:020000040000FA
:1000000018220020150200001D0200001F0200003F
:100010002102000023020000250200000000000071
:1000200000000000000000000000000027020000A7
:1000300029020000000000002B0200002D02000039
:10004000C10200002F0200002F0200002F0200005A
:100050002F0200002F0200002F0200002F020000DC
:100060002F0200002F0200002F0200002F020000CC
:100070002F0200002F0200002F0200002F020000BC
:100080002F020000190300002F0200002F020000C1
:100090003D0300002F0200002F0200002F0200008D
:1000A0002F0200002F0200002F0200002F0200008C
:1000B0002F0200002F0200000000000000000000DE
:1000C0002F0200002F0200002F0200002F0200006C
:1000D0002F0200002F0200002F0200002F0200005C
:1000E0002F0200002F0200002F020000000000007D
:1000F000000000002F020000000000002F0200009E
:1001000000000000000000000000000000000000EF
:1001100000000000000000000000000000000000DF
:1001200000000000000000000000000000000000CF
:1001300000000000000000000000000000000000BF
:1001400000000000000000000000000000000000AF
:10015000000000000000000000000000000000009F
:10016000000000000000000000000000000000008F
:10017000000000000000000000000000000000007F
:10018000000000000000000000000000000000006F
:10019000000000000000000000000000000000005F
:1001A000000000000000000000000000000000004F
:1001B000000000000000000000000000000000003F
:1001C000000000000000000000000000000000002F
:1001D000000000000000000000000000000000001F
:1001E000000000000000000000000000000000000F
:1001F00000000000000000000000000000000000FF
:10020000DFF80CD000F018F800480047950900000E
:10021000182200200648804706480047FEE7FEE710
:10022000FEE7FEE7FEE7FEE7FEE7FEE7FEE7FEE7A6
:100230004103000001020000064C074D06E0E068A3
:1002400040F0010394E8070098471034AC42F6D31D
:10025000FFF7DAFF580F0000780F000000F01F02D0
:10026000012191404009800000F1E020C0F8801297
:10027000704700F01F02012191404009800000F109
:10028000E020C0F80011704700F01F0201219140EA
:100290004009800000F1E020C0F8001270474907D3
:1002A000090E002806DA00F00F0000F1E02080F8C7
:1002B000141D704700F1E02080F800147047000022
:1002C00070B54FF48076304600F094FB114CB505C4
:1002D00060B1304600F095FB0120C5F80803607955
:1002E00020B9012060712168002088474FF4827690
:1002F000304600F07FFB00280AD0304600F081FB3A
:100300000220C5F808032168BDE8704001200847B5
:1003100070BD00000400002007480021C0F8401113
:10032000C0F84411C0F84811C0F84C11C0F80011D1
:10033000C0F8041100F0AABD0010014000F018BD83
:1003400030B54FF0805000228300D0F83011C3F850
:100350000C21C3F81021624B1A60624B1B68624C7F
:100360002360604B1B1D1B68241D23605D4B0833FD
:100370001B68241D23605B4B0C331B68241D23600A
:10038000584B10331B68241D2360564B14331B68D5
:10039000241D2360534B18331B68534C20342360B7
:1003A000504B1C331B68241D23604E4B20331B68AD
:1003B000241D23604B4B24331B68241D2360494BB1
:1003C00028331B68241D2360464B2C331B68241DD7
:1003D0002360444B30331B68434C40342360414B13
:1003E00034331B68241D23603E4B38331B68241DA7
:1003F00023603C4B3C331B68241D2360394B403346
:100400001B68241D23600124082902D1D0F834314F
:1004100013B1082904D006E0354B3449196005E0D2
:10042000D0F8343113B1082904D006E0314BFB2158
:10043000196005E0D0F8343113B1082908D00EE076
:1004400090F858322C48016863F30301016002E020
:10045000D0F834311BB929494FF40070086028489E
:100460000168C90702D06FF00101016025480168E9
:1004700041F470010160BFF34F8FBFF36F8F4FF0F6
:100480001021D1F80002002803DBD1F80402002873
:1004900022DA1D4B1C601D480468002CFCD012247D
:1004A000C1F800420568002DFCD0C1F80442016883
:1004B0000029FCD01A6001680029FCD0BFF34F8FDF
:1004C00010487C380168124A01F4E0611143016070
:1004D000BFF34F8F00BFFDE70F490E48086030BDE6
:1004E000380500400404001020C500404881030086
:1004F0008C56004018F50040E40E00404096024043
:100500000004004088ED00E004E5014000E4014003
:100510000400FA050090D0032400002002E008C87F
:10052000121F08C1002AFAD170477047002001E06D
:1005300001C1121F002AFBD17047000072B60948A2
:100540000068C00700D000BEBFF34F8F0548E438F5
:100550000168054A01F4E06111430160BFF34F8F68
:1005600000BFFDE7F0ED00E00400FA050EB5002144
:100570000091CDE901106A4644F20100FFF7DEFF69
:100580000EBD0000074B9B7823B12AB120B1006853
:10059000037C1BB1082070470720704741744261FB
:1005A000002070470801002070B500F0C3FB104820
:1005B00000240B21047044700E4D817014206C6077
:1005C0002C706C70FFF74AFE07211420FFF767FEBE
:1005D0001420FFF74EFE0848046007211120FFF7A2
:1005E0005EFE0548001F0068A860002070BD000086
:1005F000080100200C000020081501402DE9F843F7
:10060000DFF8709099F802305BB350B3052902D23D
:100610000720BDE8F88343691BB3437C012B22D03C
:1006200000270446002588461646284600F026F88E
:10063000684600F065FCC0B1012101700E494460BC
:100640000968C0E90218C0E904769DF8000089F83D
:100650000100002000F014F81420FFF715FE2846D2
:10066000D7E70820D5E70F46DBE70425002000F098
:1006700007F8F4E7080100200415014000F002B873
:1006800000F008B872B602480168491C0160704762
:100690002000002003490868401E086000D162B6AF
:1006A000704700002000002070B5084C050009D0FC
:1006B00010342168002907D008682060496828465E
:1006C0008847F6E70834F4E770BD0000F400002026
:1006D000054A012120B1012805D19170FFF7E4BF3F
:1006E00051700020FAE77047F40000202DE9F05F18
:1006F00026484168F1B3DFF898B00E688146DBF810
:10070000004087688078E11B21F07F45ED1CB0B97F
:10071000DFF880804FF48030C8F84403C8F8040341
:100720001120FFF79BFD1120FFF7A3FD4FF0010AF9
:10073000C8F800A02F2000F0F1F989F802A0B54216
:1007400000D23546124BE8193C3320F07F40186048
:10075000DBF800105A46091B21F07F41001B20F0F6
:100760007F40C91C81420FD9106818602F2000F00B
:10077000D5F900E004E0BDE8F05F1120FFF784BD8B
:10078000BDE8F05F00F0D6BABDE8F09F0C00002095
:1007900004150140001001400E4910B50A784C784C
:1007A0000023A24212D0521CD2B20A70022A00D1F7
:1007B0000B70084A0B780C3252F8232002608868CC
:1007C000104420F07F408860012010BD03600020AD
:1007D00010BD00000C0000200268134602E08A42AF
:1007E00004D01268002AFAD10B6001607047000043
:1007F0002DE9F047394E002780463D46DFF8E0906E
:10080000D6F804A057E003D00446D0F81C8035E0A9
:1008100099F8002002EB4201521CD2B289F8002064
:1008200009EBC10199F80230091D9A4201D189F8FA
:10083000005048680A780446012A12D0022A02D0E1
:10084000032A3BD108E000F0F1FA00B1012725743A
:1008500034E00574C06900E070680028F9D1706068
:100860002CE0207C50BB88686060C868A060086984
:10087000E0604869A061F07800B165606268B168C5
:10088000184B501A20F07F40984202D2A1680844C9
:1008900006E0881AA16820F07F40814202D9081A38
:1008A000206000E0256065600120A560207420467E
:1008B000E56100F09DFAB8F10000A4D199F80010AC
:1008C00099F801008142A3D117B97168514502D04E
:1008D0000120BDE8F0870020FBE700000C000020AD
:1008E00008010020FFFF7F0082788A4201D20720A2
:1008F0007047C1700020704770B582610546087866
:100900008E6828708868A8608868E86048682862EF
:100910004878A870C8680024114A2146E861FFF7AA
:1009200031FE00281AD111E0F0070DD02046202C0E
:1009300002D24FF0A04102E00A4904F01F0001EB8F
:1009400080000322C0F800277608641C002EEBD13B
:10095000284600F0EBF801202871002070BD00004F
:10096000AD0C00000003005070B504460220207159
:100970000D462046E16000F0D9F8A0682843A06049
:1009800000202075A569A061204600F08FF90020A5
:10099000A56170BD00F04EF808B1FFF7E7FD00203B
:1009A00000F062F8FFF700FE08B1FFF7DFFD00F08E
:1009B00005F90F4C4FF4FA75A078E178401AC1B2EE
:1009C0000B48FFF791FF08B1FFF7D0FD284600F074
:1009D00021F8A078E178401AC1B20548FFF784FFFA
:1009E00008B1FFF7C3FD284600F014F8E4E7000063
:1009F000D000002000F180400068002800D00120D5
:100A0000704708B500F18040002101600068009047
:100A100008BD00002DE9F041040007D0044E4FF45A
:100A20007A47751C3846A847641EFAD1BDE8F081A4
:100A3000400F000070B50A4C207808B185250CE005
:100A40000020A06060602061E060064800F046F889
:100A5000054600F02DF801202070284670BD0000EA
:100A6000F4000020D106000070B5104D0446A878AF
:100A700038B114B16168012088470020FFF7FEFDFE
:100A80000CE00020FFF7FAFD24B1084821461030A1
:100A9000FFF7A2FEE86808B900F030F8E868401CEB
:100AA000E860BDE870400020FFF7EABDF4000020D8
:100AB00008480068012110F0010F08D14FF0E02034
:100AC000E02280F80024C0F88012C0F8001102482B
:100AD0000160704700E100E0180500400649024649
:100AE00000200B790BB1852070470A6001220A7142
:100AF00000224A71704700000400002010B54FF436
:100B00008270FFF77EFF02204107C1F8040302490B
:100B10000120086010BD000008000040002802D03D
:100B20000149800108477047510F00000378026AAD
:100B3000C16813B1C2F80C1501E0C2F80815002114
:100B4000417070470378026AC16813B1C2F8081592
:100B500001E0C2F80C1501214170704770B5816841
:100B60000025154CB1F5005F16D0B1F5804F22D1AC
:100B70006188491C89B26180B1F5C87F1BD9817831
:100B8000C278891AC9B2FFF7AFFE6580002812D07B
:100B9000BDE87040FFF7EABC2188491C89B221807A
:100BA000B1F5FA7F07D98178C278891AC9B2FFF7FF
:100BB0009BFE2580EAE770BD000000207FB5002481
:100BC0008DF80040DC208DF801004FF400500290B9
:100BD00033484FF0A0450390324A694601953248A8
:100BE000FFF78AFE08B1FFF7C1FC14212E48FFF77A
:100BF0007BFE08B1FFF7BAFC8DF80040C8208DF8E5
:100C000001004FF4804002902548264A001D0390C1
:100C10002548694601952430FFF76EFE08B1FFF7BD
:100C2000A5FC214896212430FFF75EFE08B1FFF7AE
:100C30009DFC8DF8004064208DF801004FF40040C9
:100C400002901748174A08300390174869460195E3
:100C50004830FFF751FE08B1FFF788FC1248142115
:100C60004830FFF741FE08B1FFF780FC0E4881686D
:100C7000FFF77AFE08B1FFF779FC0B482430816852
:100C8000FFF772FE08B1FFF771FC07484830816832
:100C9000FFF76AFE002801D0FFF768FC7FBD000067
:100CA000300F00005D0B00008800002070B5044686
:100CB000007D052660B12046FFF738FF0020207533
:100CC000A078E178411A11FB00F006EB20201FE02C
:100CD000A16921B1204688472079022828D1E578EA
:100CE000A078A84203D12046FFF72CFF0EE0204653
:100CF00055B1FFF727FFA07810FB05F006EB102099
:100D000020610120207504E0FFF710FFA078401D4E
:100D10002061207902280BD1E06921692246006810
:100D2000FFF76CFC002803D0BDE87040FFF71EBC45
:100D300070BD000070B5012670044FF0E021002561
:100D4000C1F88001084C4010C4F84803C4F80803F7
:100D500066602F20FFF7E2FEA660044C2F20A560FE
:100D6000FFF7DCFEA57070BD001001400C000020F4
:100D70002DE9F84F1D4C00256846D4E901A6FFF780
:100D80000BFD002738B30023009A61681CE0D1F8FE
:100D900000C00846944503D9ACEB02020A6015E096
:100DA000A2EB0C0263440760D0F80CC0C169814615
:100DB000BCF1000F08D006EB030828F07F48C0E91B
:100DC000018CC9F81C5005460029E0D12846616015
:100DD000FFF70EFD03E02846FFF70AFD10B150466D
:100DE000FFF784FCE770BDE8F88F00000C000020DE
:100DF0000D4B10B5596831B102680C68A24204D895
:100E0000A21A0A60C161586010BD0B4603E00B4690
:100E1000C969121B21B10C689442F8D3A41A0C6062
:100E20000260C161D86110BD0C0000202DE9F041C5
:100E3000144E77683D462C4603E0844204D0254694
:100E4000E469002CF9D11BE0D4B1A5420BD1F869BB
:100E5000706040B90C49012088600021B160F070D9
:100E60002F20FFF75BFE2168E069E86110B102689E
:100E7000114401607068874202D00120BDE8F08112
:100E80000020FBE70C000020001001402DE9F0419C
:100E9000194D6C68002C2CD0184800270068A968F0
:100EA000B846401A20F07F462068B0420CD8214650
:100EB000361A0744E469087C20B181F810808869FB
:100EC00049698847002CEFD129786878814206D19A
:100ED000401CC0B26870022801D185F80180064824
:100EE00069780C3040F82170BDE8F0411420FFF71C
:100EF000CBB9BDE8F08100000C00002004150140D2
:100F00000A494A788B78521CD2B2934200D100220F
:100F10000B78934201D1002070470270487800EBB3
:100F2000400001EBC000001D7047000008010020D8
:100F30002800002048000020680000200000000079
:100F40000338FDD8704700000000000000000000DA
:100F50000338FDD870470000780F00000000002023
:100F6000280000001C050000A00F00002800002041
:100F7000F02100002C05000000000000000000002F
:100F80000000000000000000000000000000000061
:100F90000000000000000000000000000090D003EE
:0400000500000201F4
:00000001FF
