:020000040000FA
:1000000018220020150200001D0200001F0200003F
:100010002102000023020000250200000000000071
:1000200000000000000000000000000027020000A7
:1000300029020000000000002B0200002D02000039
:10004000C10200002F0200002F0200002F0200005A
:100050002F0200002F0200002F0200002F020000DC
:100060002F0200002F0200002F0200002F020000CC
:100070002F0200002F0200002F0200002F020000BC
:100080002F020000190300002F0200002F020000C1
:100090003D0300002F0200002F0200002F0200008D
:1000A0002F0200002F0200002F0200002F0200008C
:1000B0002F0200002F0200000000000000000000DE
:1000C0002F0200002F0200002F0200002F0200006C
:1000D0002F0200002F0200002F020000000000008D
:1000E0000000000000000000000000000000000010
:1000F0000000000000000000000000000000000000
:1001000000000000000000000000000000000000EF
:1001100000000000000000000000000000000000DF
:1001200000000000000000000000000000000000CF
:1001300000000000000000000000000000000000BF
:1001400000000000000000000000000000000000AF
:10015000000000000000000000000000000000009F
:10016000000000000000000000000000000000008F
:10017000000000000000000000000000000000007F
:10018000000000000000000000000000000000006F
:10019000000000000000000000000000000000005F
:1001A000000000000000000000000000000000004F
:1001B000000000000000000000000000000000003F
:1001C000000000000000000000000000000000002F
:1001D000000000000000000000000000000000001F
:1001E000000000000000000000000000000000000F
:1001F00000000000000000000000000000000000FF
:10020000DFF80CD000F018F800480047C10A0000E1
:10021000182200200648804706480047FEE7FEE710
:10022000FEE7FEE7FEE7FEE7FEE7FEE7FEE7FEE7A6
:100230004103000001020000064C074D06E0E068A3
:1002400040F0010394E8070098471034AC42F6D31D
:10025000FFF7DAFFB8100000D810000000F01F020E
:10026000012191404009800000F1E020C0F8801297
:10027000704700F01F02012191404009800000F109
:10028000E020C0F80011704700F01F0201219140EA
:100290004009800000F1E020C0F8001270474907D3
:1002A000090E002806DA00F00F0000F1E02080F8C7
:1002B000141D704700F1E02080F800147047000022
:1002C00070B54FF48076304600F02AFC114CB5052D
:1002D00060B1304600F02BFC0120C5F808036079BE
:1002E00020B9012060712168002088474FF4827690
:1002F000304600F015FC00280AD0304600F017FC0C
:100300000220C5F808032168BDE8704001200847B5
:1003100070BD00000400002007480021C0F8401113
:10032000C0F84411C0F84811C0F84C11C0F80011D1
:10033000C0F8041100F056BE0010014000F0C4BD2A
:10034000F0B5B5480023021D0178101D01254FF0BE
:10035000805406290BD11678360708D10678C6F3E3
:100360000316032E06D0042E04D0052E02D0062933
:1003700007D00EE0B4F82463A84FC6F304263E600D
:1003800002E01678360704D10678C6F30316032E6A
:1003900002D0062904D00FE0A24FA14E7E670EE0E6
:1003A0001678360708D10678C6F30316032E06D052
:1003B000042E04D0052E02D0062907D00EE0D4F872
:1003C0004462994FC6F342363E6002E01678360723
:1003D00004D10678C6F30316032E02D0062906D0F0
:1003E00011E0924E376827F0807737600EE016787C
:1003F000360708D10678C6F30316032E06D0042E5E
:1004000004D0052E02D006290AD011E04FF0804614
:10041000C6F80C31C6F81031834E361F336002E047
:100420001678360704D10678C6F30316032E02D0D9
:10043000062905D00CE07C4F032664373E600AE0B5
:100440001678360704D10678C6F30316032E02D0B9
:1004500006290DD014E0764F05263E60744E78369E
:100460003560734E083633603F263F1D3E6002E024
:100470001678360704D10678C6F30316052E02D087
:10048000062957D062E06B4E36686B4F3E60694E6E
:10049000361D36683F1D3E60664E083636683F1D85
:1004A0003E60644E0C3636683F1D3E60614E10362D
:1004B00036683F1D3E605F4E143636683F1D3E6015
:1004C0005C4E183636685C4F20373E60594E1C36FD
:1004D00036683F1D3E60574E203636683F1D3E60F1
:1004E000544E243636683F1D3E60524E28363668DC
:1004F0003F1D3E604F4E2C3636683F1D3E604D4ED0
:10050000303636684C4F40373E604A4E3436366897
:100510003F1D3E60474E383636683F1D3E60454EB3
:100520003C3636683F1D3E60424E403636683F1DC1
:100530003E6002E01678360708D10678C6F3031647
:10054000032E06D0042E04D0052E02D0062907D093
:1005500019E0D4F85812394A01F04F01116002E055
:10056000117809070FD10078C0F30310032803D0D6
:10057000042801D0052806D131480168C90702D0F6
:100580006FF001010160D4F83001062808D1D4F8D9
:100590003401062804D12B48016841F480610160D0
:1005A00022487438016841F470010160BFF34F8F35
:1005B000BFF36F8F4FF01021D1F80002002803DB4A
:1005C000D1F80402002822DA1F4A15601F48046887
:1005D000002CFCD01524C1F800420568002DFCD089
:1005E000C1F8044201680029FCD0136001680029A9
:1005F000FCD0BFF34F8F0D48F0380168144A01F466
:10060000E06111430160BFF34F8F00BFFDE7124966
:1006100010480860F0BD0000E00F00F040350140D8
:100620000DF0ADBA00C007403C050040FCED00E015
:10063000105600400404001020C50040E40E0040A5
:10064000000400403C17004004E5014000E4014084
:100650000400FA050090D0032400002002E008C83E
:10066000121F08C1002AFAD170477047002001E02C
:1006700001C1121F002AFBD17047000072B6094861
:100680000068C00700D000BEBFF34F8F0548E438B4
:100690000168054A01F4E06111430160BFF34F8F27
:1006A00000BFFDE7F0ED00E00400FA050EB5002103
:1006B0000091CDE901106A4644F20100FFF7DEFF28
:1006C0000EBD0000074B9B7823B12AB120B1006812
:1006D000037C1BB1082070470720704741744261BA
:1006E000002070470801002070B500F0CFFB1048D3
:1006F00000240B21047044700E4D817014206C6036
:100700002C706C70FFF7AAFD07211420FFF7C7FDBE
:100710001420FFF7AEFD0848046007211120FFF701
:10072000BEFD0548001F0068A860002070BD0000E5
:10073000080100200C000020081501402DE9F843B5
:10074000DFF8709099F802305BB350B3052902D2FC
:100750000720BDE8F88343691BB3437C012B22D0FB
:1007600000270446002588461646284600F026F84D
:10077000684600F071FCC0B1012101700E4944606F
:100780000968C0E90218C0E904769DF8000089F8FC
:100790000100002000F014F81420FFF775FD284632
:1007A000D7E70820D5E70F46DBE70425002000F057
:1007B00007F8F4E7080100200415014000F002B832
:1007C00000F008B872B602480168491C0160704721
:1007D0002000002003490868401E086000D162B66E
:1007E000704700002000002070B5084C050009D0BB
:1007F00010342168002907D008682060496828461D
:100800008847F6E70834F4E770BD0000F4000020E4
:10081000054A012120B1012805D19170FFF7E4BFFD
:1008200051700020FAE77047F40000202DE9F05FD6
:1008300026484168F1B3DFF898B00E688146DBF8CE
:10084000004087688078E11B21F07F45ED1CB0B93E
:10085000DFF880804FF48030C8F84403C8F8040300
:100860001120FFF7FBFC1120FFF703FD4FF0010AF9
:10087000C8F800A02F2000F0FDF989F802A0B542C9
:1008800000D23546124BE8193C3320F07F40186007
:10089000DBF800105A46091B21F07F41001B20F0B5
:1008A0007F40C91C81420FD9106818602F2000F0CA
:1008B000E1F900E004E0BDE8F05F1120FFF7E4BCDF
:1008C000BDE8F05F00F0E2BABDE8F09F0C00002048
:1008D00004150140001001400E4910B50A784C780B
:1008E0000023A24212D0521CD2B20A70022A00D1B6
:1008F0000B70084A0B780C3252F82320026088688B
:10090000104420F07F408860012010BD036000206B
:1009100010BD00000C0000200268134602E08A426D
:1009200004D01268002AFAD10B6001607047000001
:100930002DE9F047394E002780463D46DFF8E0902C
:10094000D6F804A057E003D00446D0F81C8035E068
:1009500099F8002002EB4201521CD2B289F8002023
:1009600009EBC10199F80230091D9A4201D189F8B9
:10097000005048680A780446012A12D0022A02D0A0
:10098000032A3BD108E000F0FDFA00B101272574ED
:1009900034E00574C06900E070680028F9D1706027
:1009A0002CE0207C50BB88686060C868A060086943
:1009B000E0604869A061F07800B165606268B16884
:1009C000184B501A20F07F40984202D2A168084488
:1009D00006E0881AA16820F07F40814202D9081AF7
:1009E000206000E0256065600120A560207420463D
:1009F000E56100F0A9FAB8F10000A4D199F800105F
:100A000099F801008142A3D117B97168514502D00C
:100A10000120BDE8F0870020FBE700000C0000206B
:100A200008010020FFFF7F0082788A4201D2072060
:100A30007047C1700020704770B582610446087825
:100A40008E6820708868A0608868E06048682062CE
:100A50004878A070C86800250D4A2946E061FFF774
:100A600031FE002812D14FF0A041032046B1F20719
:100A700003D001EB8502C2F8000776086D1CF5E78C
:100A8000204600F0FFF801202071002070BD00001A
:100A9000050E000070B50446022020710D46204668
:100AA000E16000F0EFF8A0682843A0600020207506
:100AB000A569A061204600F0A5F90020A56170BDE0
:100AC00000F04EF808B1FFF7F1FD002000F062F8E9
:100AD000FFF70AFE08B1FFF7E9FD00F01BF90F4C24
:100AE0004FF4FA75A078E178401AC1B20B48FFF7CD
:100AF0009BFF08B1FFF7DAFD284600F021F8A07847
:100B0000E178401AC1B20548FFF78EFF08B1FFF740
:100B1000CDFD284600F014F8E4E70000D0000020E6
:100B200000F180400068002800D00120704708B51F
:100B300000F18040002101600068009008BD0000C5
:100B40002DE9F041040007D0044E4FF47A47751C9C
:100B50003846A847641EFAD1BDE8F081A010000015
:100B600070B50A4C207808B185250CE00020A06003
:100B700060602061E060064800F046F8054600F03D
:100B80002DF801202070284670BD0000F4000020E0
:100B90001108000070B5104D0446A87838B114B1A2
:100BA0006168012088470020FFF708FE0CE0002064
:100BB000FFF704FE24B1084821461030FFF7ACFED1
:100BC000E86808B900F030F8E868401CE860BDE863
:100BD00070400020FFF7F4BDF400002008480068D2
:100BE000012110F0010F08D14FF0E020E02280F841
:100BF0000024C0F88012C0F800110248016070475C
:100C000000E100E0180500400649024600200B798B
:100C10000BB1852070470A6001220A7100224A71D7
:100C2000704700000400002070B54FF48270FFF799
:100C30007EFF02204107C1F804030B4B196841F005
:100C4000807018600948026842F00104046044683A
:100C50004FF40A554668361BAE42FBD3026019605A
:100C600003490120086070BDFCED00E0001000E0C9
:100C700008000040002802D0014980010847704761
:100C8000B11000000378026AC16813B1C2F80C15F4
:100C900001E0C2F808150021417070470378026A2C
:100CA000C16813B1C2F8081501E0C2F80C150121A2
:100CB0004170704770B581680025154CB1F5003F53
:100CC00016D0B1F5802F22D16188491C89B261808C
:100CD000B1F5C87F1BD98178C278891AC9B2FFF7EC
:100CE000A3FE6580002812D0BDE87040FFF7DEBC8F
:100CF0002188491C89B22180B1F5FA7F07D9817812
:100D0000C278891AC9B2FFF78FFE2580EAE770BD65
:100D1000000000207FB500248DF80040DC208DF815
:100D200001004FF40030029033484FF0A04503908B
:100D3000324A694601953248FFF77EFE08B1FFF757
:100D4000B5FC14212E48FFF76FFE08B1FFF7AEFC8B
:100D50008DF80040C8208DF801004FF480200290EB
:100D60002548264A001D03902548694601952430F0
:100D7000FFF762FE08B1FFF799FC21489621243065
:100D8000FFF752FE08B1FFF791FC8DF80040642098
:100D90008DF801004FF4002002901748174A0830E0
:100DA00003901748694601954830FFF745FE08B1A2
:100DB000FFF77CFC124814214830FFF735FE08B1DC
:100DC000FFF774FC0E488168FFF764FE08B1FFF777
:100DD0006DFC0B4824308168FFF75CFE08B1FFF71B
:100DE00065FC074848308168FFF754FE002801D0B1
:100DF000FFF75CFC7FBD000090100000B50C000008
:100E00008800002070B50446007D052660B12046AC
:100E1000FFF738FF00202075A078E178411A11FB18
:100E200000F006EB20201FE0A16921B12046884791
:100E30002079022828D1E578A078A84203D120465D
:100E4000FFF72CFF0EE0204655B1FFF727FFA078F3
:100E500010FB05F006EB102020610120207504E056
:100E6000FFF710FFA078401D2061207902280BD1E8
:100E7000E069216922460068FFF760FC002803D082
:100E8000BDE87040FFF712BC70BD000070B50126D0
:100E900070044FF0E0210025C1F88001084C40109B
:100EA000C4F84803C4F8080366602F20FFF7E2FE89
:100EB000A660044C2F20A560FFF7DCFEA57070BD76
:100EC000001001400C0000202DE9F84F1D4C0025BA
:100ED0006846D4E901A6FFF7FFFC002738B30023DA
:100EE000009A61681CE0D1F800C00846944503D917
:100EF000ACEB02020A6015E0A2EB0C02634407604F
:100F0000D0F80CC0C1698146BCF1000F08D006EBD7
:100F1000030828F07F48C0E9018CC9F81C50054639
:100F20000029E0D128466160FFF702FD03E0284672
:100F3000FFF7FEFC10B15046FFF778FCE770BDE804
:100F4000F88F00000C0000200D4B10B5596831B12E
:100F500002680C68A24204D8A21A0A60C1615860F3
:100F600010BD0B4603E00B46C969121B21B10C688A
:100F70009442F8D3A41A0C600260C161D86110BD1C
:100F80000C0000202DE9F041144E77683D462C46B8
:100F900003E0844204D02546E469002CF9D11BE02B
:100FA000D4B1A5420BD1F869706040B90C49012059
:100FB00088600021B160F0702F20FFF75BFE216890
:100FC000E069E86110B1026811440160706887420D
:100FD00002D00120BDE8F0810020FBE70C000020DA
:100FE000001001402DE9F041194D6C68002C2CD007
:100FF000184800270068A968B846401A20F07F46C4
:101000002068B0420CD82146361A0744E469087CAF
:1010100020B181F81080886949698847002CEFD198
:1010200029786878814206D1401CC0B268700228D5
:1010300001D185F80180064869780C3040F82170AC
:10104000BDE8F0411420FFF71FB9BDE8F0810000B2
:101050000C000020041501400A494A788B78521C84
:10106000D2B2934200D100220B78934201D10020EA
:1010700070470270487800EB400001EBC000001D93
:101080007047000008010020000000000000000080
:101090002800002048000020680000200000000018
:1010A0000338FDD870470000000000000000000079
:1010B0000338FDD870470000D81000000000002061
:1010C000280000005C06000000110000280000203D
:1010D000F02100006C06000000000000000000008D
:1010E0000000000000000000000000000000000000
:1010F0000000000000000000000000000090D0038D
:0400000500000201F4
:00000001FF
