:020000040000FA
:10000000D87A0020150300001D0300001F03000024
:10001000210300002303000025030000000000006E
:1000200000000000000000000000000027030000A6
:1000300029030000000000002B0300002D03000036
:100040002F0300002F0300005D2B00002F03000092
:100050002F0300002F0300002F0300002F030000D8
:100060002F0300002F0300002F0300002F030000C8
:100070002F0300002F0300002F0300002F030000B8
:100080002F0300002F0300002F0300002F030000A8
:100090002F0300002F0300002F0300002F03000098
:1000A0002F0300002F0300002F0300002F03000088
:1000B0002F0300002F0300000000000000000000DC
:1000C0002F0300002F0300002F0300002F03000068
:1000D0002F0300002F0300002F0300002F03000058
:1000E0002F0300002F0300000504000000000000A3
:1000F000000000002F030000000000002F0300009C
:1001000000000000000000000000000000000000EF
:1001100000000000000000000000000000000000DF
:1001200000000000000000000000000000000000CF
:1001300000000000000000000000000000000000BF
:1001400000000000000000000000000000000000AF
:10015000000000000000000000000000000000009F
:10016000000000000000000000000000000000008F
:10017000000000000000000000000000000000007F
:10018000000000000000000000000000000000006F
:10019000000000000000000000000000000000005F
:1001A000000000000000000000000000000000004F
:1001B000000000000000000000000000000000003F
:1001C000000000000000000000000000000000002F
:1001D000000000000000000000000000000000001F
:1001E000000000000000000000000000000000000F
:1001F00000000000000000000000000000000000FF
:10020000DFF80CD000F0ECF800480047553500004E
:10021000D87A002000B583B002900091019244F298
:10022000010071466A4602F053FE03B000BD0000B3
:1002300030B4044654E8000F0D4644E80053002B48
:10024000F8D1156030BC704730B4044654E8000F54
:1002500040EA010544E80053002BF7D1156030BC9B
:10026000704730B4044654E8000F00EA010544E842
:100270000053002BF7D1156030BC704730B40446F2
:1002800054E8000F80EA010544E80053002BF7D141
:10029000156030BC704730B4044654E8000F00EBE2
:1002A000010544E80053002BF7D1156030BC7047BE
:1002B00030B4044654E8000FA0EB010544E80053B5
:1002C000002BF7D1156030BC704770B404464FF076
:1002D000000054E8006F0D68AE4207BF44E80023F9
:1002E000012044E800630E60002B1CBF0020F0E7F3
:1002F00070BC704730B4044654E8000F88422CBFED
:10030000451A054644E80053002BF5D1156030BC72
:10031000704700000648804706480047FEE7FEE7B2
:10032000FEE7FEE7FEE7FEE7FEE7FEE7FEE7FEE7A5
:1003300081290000010200000048704710560000AB
:1003400010B5441A0346944209D28418114403E0BC
:1003500011F8013D04F8013D521EF9D210BD40EAEA
:100360000104A40703D009E010C9121F10C3042A16
:10037000FAD203E011F8014B03F8014B521EF9D2F7
:1003800010BDD2B201E000F8012B491EFBD270472C
:100390000022F6E710B513460A4604461946FFF751
:1003A000F0FF204610BD421C10F8011B0029FBD1B4
:1003B000801A704730B504460020034600E05B1CFD
:1003C000934203D2E05CCD5C401BF8D030BD0346C5
:1003D00011F8012B00F8012B002AF9D118467047BB
:1003E000064C074D06E0E06840F0010394E8070082
:1003F00098471034AC42F6D3FFF706FF845C000048
:10040000A45C00000B490C4B0C4A4FF0FF30086015
:100410001B68BFF35B8F52E8001F42E800300028E2
:10042000F9D1BFF35B8F9942F3D1BFF35F8F044AD9
:100430001360704704BA025000BA0250D43A002048
:1004400008BA0250F0B5BDB004460E466846F02129
:100450001F46154601F060FE042C39D8DFE804F091
:100460002C321B38030003202C4B2D492D4A0090C1
:100470008020179039933A913B9268469847B0F59F
:10048000720F17D02CD9284B984221D001339842B3
:100490003ED1264C1DE0264B2649274A39930120A0
:1004A0000090402017903A913B9268469847B0F5EB
:1004B000720FE7D1214C0CE01D4B1E491E4A3993A7
:1004C0000020EDE71A4B1B491B4A39930220E7E74E
:1004D0001B4C6846F02101F01FFE20463DB0F0BDE8
:1004E000B0B92DB93946684600F030F80446F0E757
:1004F0008EB1019B0BB1134CEBE72A46314668469F
:1005000002F06EF8B0F5720FD4D0BCD80028E9D054
:100510004FF47504DDE70C4CDBE700BF9D0E0000D7
:10052000211C00005D0C00000100F2000202F0003E
:10053000490E00004D1A0000D10B00000002F0002F
:100540000102F0000C02F0000302F000F0B1F9B17A
:1005500070B5026EBAB9164601230D4643603146A6
:10056000D0F8E83004469847A0B11A4B984221D001
:10057000013398421CD0184BB0F5720F0CBF1846CF
:100580004FF4750070BD00F16406E5E7124870474E
:1005900012487047D4F8EC30204698470028E4D140
:1005A00023682066032B05D8DFE803F0100E06123F
:1005B0000B4870BD0B4870BD1C22284604F1080191
:1005C00001F0A6FD002070BD2022F6E71422F4E71A
:1005D0004022F2E70100F2000002F0000502F00004
:1005E0000202F0000102F00060B138B50D46F021C2
:1005F000044601F091FD042D3DD8DFE805F0202EE2
:10060000353C050020487047204B2149214AC4F859
:10061000E430032580202560E065C4F8E810C4F8C4
:10062000EC2020469847B0F5720F2BD025D91A4BF5
:10063000984220D00133984221D1184838BD184B38
:100640001849194AC4F8E430002540202560E065C7
:10065000C4F8E810C4F8EC20E3E7114B1149124A42
:10066000C4F8E4300225F0E70D4B0E490E4AC4F8F9
:10067000E4300125E9E70D4838BD00B938BD4FF435
:10068000750038BD0048F9E70002F0009D0E00003B
:10069000211C00005D0C00000100F2000202F000CD
:1006A000490E00004D1A0000D10B00000102F000BD
:1006B00040B138B522B139B143683BB10F4838BDBC
:1006C000104638BD0E4870470E4838BD01F088FF0F
:1006D000B0F5720F08D009D90B4B98420BD00133FB
:1006E000984205D1094838BD054838BD0028E6D0F4
:1006F0004FF4750038BD064838BD00BF0C02F0004D
:100700000002F0000302F0000100F2000202F0001B
:100710000102F00028B108B5E42101F0FDFC002041
:1007200008BD0148704700BF250CF000F0B589B046
:1007300090B169B105460C46E42101F0EDFC01A938
:10074000284601F0ABFA58B1234C204609B0F0BD61
:10075000224C204609B0F0BD214C204609B0F0BD26
:10076000204E4FF0FF31306801F0F6FC80BB01A94C
:100770002246284601F050F80746306801F00EFD89
:10078000D0B9002FE0D1E421284601F0C5FC4FF09C
:10079000FF31306801F0E0FCB0B922462846012163
:1007A00001F03EFE0446306801F0F8FC40B90E4B03
:1007B000002C18BF1C46C8E70C4802F0CDF8E0E753
:1007C0000A4802F0C9F8F2E7094802F0C5F8E4E780
:1007D000074802F0C1F8CAE7110CF000200CF00045
:1007E000250CF000DC7A0020120CF000005800000C
:1007F000E857000070B582B058B10E46016A07296B
:1008000004463FD053B9032912D00025284602B030
:1008100070BD4FF47105284602B070BD416B0029D0
:100820005DD1B3F5805F0DD3914D284602B070BD08
:10083000016B0029E9D1C36303644364836400F15D
:100840003C0610234FF0FF318A488DE80C0001F080
:1008500083FC9DE80C00002847D1874801210160F6
:10086000206A072847D9854B1D68002DFCD1824B93
:1008700080481D6001F092FC0028C6D0804802F03C
:100880006BF8C3E7426B22BBB3F5805FCCD213B9E0
:10089000226B002AC8D14FF0FF317648009301F057
:1008A0005BFC009B002840F08C80734901220A60A9
:1008B000216A072940F28F80724D704A1368002B1D
:1008C000FCD16D4A6B48136001F068FC00289DD094
:1008D000D4E7012ADBD1B3F5803FA5D2D7E70129C0
:1008E000B0D1B3F5803F9FD2ACE7674802F034F84F
:1008F0009DE80C00B1E7814011F08F0FB3D0616A21
:100900000129B0D8616B0129ADD8A16B0129AAD802
:1009100020468DE80C0001F0AFFE0028A3D1A16AAB
:1009200001299DE80C006CD065D3022963D0216AAF
:10093000481E06280FD8DFE800F00431040E0E0E22
:10094000040052492068086060684860A0688860B8
:10095000E068C860216A21F00401032936D0A16B48
:10096000012958D04A484B49026020200B60626B35
:10097000012A3BD04849494A0E60136001F01CFB34
:100980003E4A1368002BFCD1236A013B062B12D888
:10099000DFE803F014061411111114004049D1E7E7
:1009A0003F4A404B126822601A6862605A68A2602F
:1009B00008331B68E3600123236354E7334A3A4B4F
:1009C000F0E7314801F0C8FF009B6EE7626B012A37
:1009D0000BD01020CEE78A4012F08F0F3FF46CAF9F
:1009E000626A012A1DD9314D67E740203049314AFA
:1009F0000E601360C2E7304D30482960012101606C
:100A000095E72F492069086060694860A06988609F
:100A1000E069C8608BE72B482B49026080200B609F
:100A2000A5E7626B012A01D9284D46E7A26B012A8E
:100A300001D9274D41E72046009301F01DFE0546F0
:100A400000287FF43AAFA26A009B012A00F092804E
:100A5000C0F08A80022A00F08780226A013A062AC2
:100A600041D8DFE802F0376537404040370000BF2B
:100A70000500F100E87A002010B8025010B90250C9
:100A8000205B00000100F100085B000040B4025050
:100A900030BD025034BD025030BC025034BC025054
:100AA00060B4025064B4025044B402500200F10039
:100AB00028BC02502CBC025038BA025078B4025004
:100AC00000B4025028BD02502CBD02500300F100BA
:100AD0000400F1002F4A2168116061685160A1682B
:100AE0009160E168D1602C482C49012202600B60C2
:100AF000002B2ED1236B0BB9294B1A60294A13689E
:100B0000002BFCD1236A013B062B3FF6D6AE01A297
:100B100052F823F0350B00004D0B0000350B0000A0
:100B2000BB080000BB080000BB080000350B00003C
:100B30001D4AD0E7174A1D4B126822601A6862608E
:100B40005A68A26008331B68E360B6E6164A184B81
:100B5000F2E7626B012A17D01649174A0E6010207F
:100B6000136001F029FAC9E714481549026001220F
:100B70000A6072E7134A2169116061695160A169D5
:100B80009160E169D16068E70F49104A0E6040202A
:100B90001360E6E740B402507CB40250BCB402508B
:100BA00024B5025010B9025060B4025044B402504F
:100BB00064B4025030BC025034BC025038BA025007
:100BC00078B4025000B4025028BC02502CBC025031
:100BD000002840D02DE9F04300F11C010EC983B07C
:100BE00006690193836845698469C76893FA83FE3F
:100BF000019BC0F808E093FA83F9836AC0F8249057
:100C000093FA83FCC36AC0F828C036BA2DBA24BA56
:100C100009BA12BA93FA83F806614561066B456B0F
:100C20008461C161846BC16B0262436C026CC0F869
:100C30002C803FBA36BA2DBA24BA09BA12BA1BBAF6
:100C4000C760066345638463C16302644364002034
:100C500003B0BDE8F0834FF47200704728B1574BE2
:100C6000826D9A4204D0564870474FF47200704724
:100C70002DE9F043016E804600F14805E1B02846B9
:100C8000C900042200F09EF8D8F8543020A84FF490
:100C9000807200211CBA01F03DFAD8F85C20E3080C
:100CA000B3FBF2F402FB1434141B102C98BFA418ED
:100CB00020ABA4F1100018442946102280258DF89D
:100CC000805001F025FA2A46684608F1640101F0D7
:100CD0001FFAD8F86030D8F85C200DEB0300D21A68
:100CE0000DEB050101F014FAD8F85C50D8F860302B
:100CF000ED1AADB26946404600F0EAF8AC4251D870
:100D000008F118000FC893FA83F9D8F82830D8F8FA
:100D10001050D8F81440D8F80870D8F80C60C8F80B
:100D2000209093FA83FE00BAD8F82C30C8F81C0043
:100D30002DBAD8F83800C8F8145024BA09BA12BA33
:100D400093FA83FCD8F83050D8F84430C8F81040F3
:100D5000C8F81810D8F83440D8F83C10C8F8242047
:100D6000D8F84020C8F82CE000BA3FBA36BA2DBAFD
:100D700024BA09BA12BA1BBAC8F83C000020C8F855
:100D80000C70C8F80860C8F828C0C8F83450C8F813
:100D90003040C8F83810C8F84420C8F8403061B076
:100DA000BDE8F08320AB59196846D8F85C2001F003
:100DB000AFF96946404600F08BF8A1E77856341247
:100DC0000200F20070B4EAB1034600EB82051C6831
:100DD00024BA43F8044B9D42F9D102F18043013B10
:100DE0009E0050F823402144A14240F8231013D321
:100DF000321D024403681BBA40F8043B9042F9D10B
:100E000070BC704750F8043C19448B4240F8041CF5
:100E100088BF6FF00306F3D9311F43184458651C8F
:100E2000A5424550A2F102010BD809B9E0E741B152
:100E300053F8045C6C1CA54201F1FF3143F8044DEA
:100E4000F5D2002AD4D1DBE740B110B50468012CFB
:100E500015D0022C05D05CB10C4810BD4FF47200C7
:100E60007047083020220A4901F052F9002010BDD5
:100E700008301422074901F04BF9204610BD083014
:100E80002022054901F044F9002010BD0100F200C4
:100E900044580000305800006458000020B1036836
:100EA000032B04D0074870474FF47200704710B509
:100EB000402204460449083001F02AF9034BA36597
:100EC000002010BD0100F200A8570000785634122F
:100ED0002DE9F04F00F10803ADF5697D1C468B4606
:100EE0004022002138A824930025FFF753FA214619
:100EF00038A800244022CDE9344501F009F9DDE9A4
:100F00003E78DDE93834DDE93A1240A8CDE91478BD
:100F1000D0E9007842A8D0E9009ACDE91C34CDE9A7
:100F20002634CDE90034CDE91E12CDE92812CDE9F1
:100F30000A12DDE9142344A8CDE9169AD0E9009AF3
:100F4000CDE90423DDE9163446A8CDE9189AD0E9A5
:100F5000009ADDE93C56CDE92E34CDE90C34DDE9CB
:100F60001834CDE91A9ACDE92278CDE92C78CDE96B
:100F70000278CDE92056CDE92A56CDE90E56CDE9C5
:100F80003034CDE91034DDE91A340BF1040BCDE92E
:100F900006348046DFF8A4A1259013E0DDE90A239A
:100FA000CDE90E23DDE90C23CDE91023DDE9002393
:100FB000CDE90A23DDE90223CDE90001CDE90C23C7
:100FC000CDE902452C9A2D98319C309E2E9D2F9B69
:100FD000DDF8A8909704910347EA903741EA9041E1
:100FE00087EA010C4FEA804E810341EA92414EEAC2
:100FF000923E8EEA010ED105C70541EA50216340B9
:101000008EEA010147EA5227754034918CEA0707BE
:1010100015402899359718406E400891299DDBF8B6
:10102000001013956040DDE9344535903496DDE9D4
:10103000346709BAC8F80810FAE90201269A279B12
:10104000DDF8ACE0A4197D414FEA827C00194FEA3B
:10105000031444EA12744CEA930C694184EA0C0CC0
:101060009D07140145EA920544EA13746C40550645
:1010700045EAD3158CEA050534955D065BF8046CEA
:1010800045EAD2156C40089D359436BA45EA090404
:10109000C8F80C6005EA0909139DF8E902672240C7
:1010A00045EA0E04234005EA0E0E801942EA0902C1
:1010B00043EA0E03794132923393DDE93445DDE9A9
:1010C0000667DDE9322336184F4112196B41DDE91D
:1010D0000445A4197D41B01847EB0301CDE9322343
:1010E000DDE90E23CDE90423DDE90223CDE92E233A
:1010F000DDE91023CDE90623DDE90A23CDE92A2322
:10110000DDE90023DDE90C67CDE9282366AB434523
:10111000CDE930670BF1080BCDE92C45CDE926016F
:101120007FF43CAF044BDDF89490CDE90645CDE962
:101130000801984618E000BF0059000080580000E0
:1011400030463946CDE90A01DDE90201CDE90C015D
:10115000DDE90801CDE90001DDE90601CDE908235B
:10116000CDE90201CDE90645D9F87C60D9F878705F
:10117000D9F81430D9F810102D9D2C98DDF8C0C086
:10118000FC004FEA463E44EA56724EEAD7444FEA24
:10119000866E4EEA971E544084EA0E047A034FEAA4
:1011A000C60E42EAD6424EEA5777574087EA96166D
:1011B00036943796DDE936ABD9E91467DC071A06B1
:1011C00042EA112244EA51045440CA071AEB060AC3
:1011D00042EA53064FEA016242EA132282EA060219
:1011E00082EAD3124FEA436343EAD11384EA030449
:1011F0004BEB070B36944FEA804EAC048303C9E9EE
:1012000022AB3792F9E9026744EA903243EA954308
:10121000AC034EEA953E8EEA030E44EA90435340F7
:101220003199139316EB0A062E9A2F9B47EB0B0767
:10123000DDE936AB8CEA02024B402B40024082EAE9
:101240000C0283EA010C1AEB06034BEB0704EE05D4
:10125000CDE9043446EA5026139B2699C00540EA9E
:1012600055205840279B34908D0745EA93078EEA16
:1012700006061D010C019807359640EA910045EAE3
:10128000117544EA13747D404440DDE93467580623
:1012900034924A0642EAD31240EAD1106A406040D2
:1012A000DDE90445CDF8D4C0C9E92045DDE9344580
:1012B0003492359028A890E80550F8E902AB361929
:1012C00034466F411AEB0406344640EA0C0601EA44
:1012D000060100EA0C0040EA010042EA0E0103EABE
:1012E000010302EA0E0243EA02033393DDE9042319
:1012F0003D464BEB05073D4612196B4114461D4612
:101300003290DDE91023DDE93201DDE9346712199D
:101310006B418019DDE90E457941DDE90267A418CA
:101320005D41CDE930671218DDE906674B41CDE933
:101330003201DDE90A01CDE92E67DDE90867CDE973
:101340000E01DDE90C01CDE92867DDE90067CDE993
:101350001001C6A98945CDE92C45CDE92A67CDE91B
:1013600026237FF4EDAEDDE91C018018594180464B
:10137000DDE91E238946DDE9080112184B419C4630
:101380009346DDE9202392197B41CDE90023DDE975
:101390000A67DDE9141289197A41CDE90412DDE901
:1013A000220100196941DDE9066704460D46DDE9C1
:1013B00016018019794142ABC3E90001DDE91867E4
:1013C000DDE902013618DDE90C234F41CDE938890A
:1013D000DDE91A01E146D846CDE93A89DDE900891F
:1013E00080185941CDE93C8946ABDDE90489C3E960
:1013F000000140ABC3E9004548A844AB4FF420725C
:101400000021C3E90067CDE93E8900F083FE38A9D9
:101410002498402200F07CFE0DF5697DBDE8F08F38
:101420000B6802E0082B0B6006D8426813424FEAB3
:101430004303F7D00020704700487047310CF1009B
:101440000138072815D8DFE800F0100C1408141430
:1014500014048B698B60002070474B698B600020FF
:1014600070470B698B6000207047CB688B60002051
:1014700070470148704700BF310CF1002DE9F04F73
:101480008FB080460C46164602A830220021189DD7
:10149000FEF780FF1A9B03F5C1622A60199A0023A8
:1014A0001360D8F8D43013F4407F0AD02B681B683F
:1014B0001360002B40F08980924F38460FB0BDE892
:1014C000F08F002E00F08E808F49904A0868A16846
:1014D0001268914240F09B80002840F0988098F874
:1014E000DB3000938A4E8B4DDFF834A2DFF834B244
:1014F0004FF004090023019301270CE09A0700F143
:101500009380DB0600F18D80A36803EB43031B048B
:101510009B0933602F6001A800F09CF9019BD9075B
:10152000ECD54FF0FF33CAF80030DBF800300293FF
:10153000794B1A6803925A6804920833774A1B68F9
:101540000593A3681168069103EB43035168079163
:10155000203A1B049B0912683360012700232F6087
:1015600001930AE099075FD4DA065AD4A36803EB23
:1015700043031B049B0933602F6001A800F06AF944
:10158000019BD807EED56649664A634B4FF0FF30A2
:101590000860126808921A6809925A680A929A6852
:1015A0000B92DA680C921A690D92143B1B681A9B15
:1015B000302203F5C26002A900F0AAFD199A302377
:1015C0001360D8F8D430002722E0D8F8D47017F48C
:1015D000007720D02B68544F5A684A4B002A08BF26
:1015E0001F466AE723F00F03C8F8D430002C00F040
:1015F00087800EA9012341F8383DC8F8D8602046FD
:10160000FFF70EFF074648B3D8F8D43000E0474F45
:101610009B053FF552AF00F001F938460FB0BDE829
:10162000F08F1023CAF800304FF0FF33CAF80030B3
:10163000009B082B0ED05B0000933CB1002B55D1D2
:1016400063683BB9D8F8D430394FE1E7D8F8D430E3
:10165000384FDDE7D8F8D430374FD9E72146009826
:10166000FFF7EEFE07460028CED1009B082B00F0C6
:10167000C480042B00F0BF80A3F10203B3FA83F30C
:101680005B092E4A2E4E214D012111600846316022
:101690000F461760A16829602E68A1688E42F8D1B4
:1016A0001C4ADFF87CE0274F274E174D00214FF0F2
:1016B000FF3C1160CEF800C06FF0130EC7F800E0D9
:1016C00033602960A368124903EB43031B049B09A1
:1016D0000B6010600099D8F8D8200B0243EA016330
:1016E00022F07F421343C8F8D830FBE66946204613
:1016F000FFF796FE50B30E4B98420746A0D083E703
:101700000C4F85E7330CF00038B1025030B1025075
:10171000D8B102502CB1025018B1025024B102507D
:1017200008B1025014B10250340CF000300CF1003A
:10173000310CF100350CF100320CF100C4B1025053
:1017400040B1025000B102500CB102502146009845
:10175000FFF776FE0028CED1009B082B45D0042B46
:1017600046D0A3F1020CBCFA8CFC4FEA5C1C244866
:10177000244F254A0123036019463B6086461F46D5
:10178000CEF80070A36813601368A0688342F7D195
:1017900000231E4A1E4F1F482B604FF0FF3ECAF821
:1017A00000E06FF0130EC7F800E0C0F800C013604F
:1017B000A36803EB43031B049B0933602960009A71
:1017C000D8F8D810130243EA026321F07F421A438B
:1017D000130A03F47F03134323F07F43B9F1010994
:1017E000C8F8D8307FF486AEE1E64FF0030CBEE7D0
:1017F0004FF0020CBBE7022343E7032341E700BF9E
:10180000C4B1025040B1025030B1025038B1025060
:1018100000B102500CB1025000207047084B094A39
:10182000002119601368002BFCD107480749084ABA
:1018300003604FF480604FF0FF330860136070471F
:101840002CB1025010B90250C4B1025008BA025073
:1018500008B1025038B504464FF4806000F0ACFB8C
:10186000054D06480649074A00232B6003600B68B4
:101870002360136038BD00BFC8B102502CB10250C4
:1018800004B1025008B1025060B3F8B5446B24B9FA
:10189000B3F5805F06D35848F8BD012C02D1B3F5EB
:1018A000803FF8D204460E4654484FF0FF311D46A3
:1018B000174600F051FCC0B9514A01231360226A57
:1018C000072A16D94F4B1C68002CFCD14C4B4B48B7
:1018D0001C6000F063FC0028DED04B4801F03CF8AF
:1018E0002046F8BD4FF471007047484801F034F8C5
:1018F000E2E7934013F08F0FE4D0636A012BE1D845
:10190000636B012BDED8A36B012BDBD8204600F0E4
:10191000B3FE0028D6D1A36A012B5DD056D3022B8B
:1019200054D0236A5A1E062A0FD8DFE802F0043189
:10193000040E0E0E0400364B22681A6062685A606C
:10194000A2689A60E268DA60236A23F00403032B3A
:1019500031D0A36B012B49D02E4A2F4B176020208A
:101960001D60636B012B2CD02C4A2D4B16601D6023
:1019700000F022FB234A1368002BFCD1236A013BB1
:10198000062B12D8DFE803F014061411111114000D
:10199000244BD1E7234A244B126822601A68626004
:1019A0005A68A26008331B68E3600123236389E758
:1019B000174A1E4BF0E7636B012B01D01020D3E7D1
:1019C00040201B4A1B4B16601D60D1E71A491B4A79
:1019D0000B6001231360A4E7194B22691A60626946
:1019E0005A60A2699A60E269DA609AE7154A164B72
:1019F000176080201D60B4E70500F100E87A002040
:101A000010B8025010B90250205B0000085B0000C3
:101A100040B4025030BD025034BD025030BC0250C0
:101A200034BC025060B4025064B4025044B402505A
:101A300028BC02502CBC025038BA025078B4025074
:101A400000B4025028BD02502CBD0250002800F006
:101A5000A280F8B50368002B00F09B80C0F2AB8039
:101A6000022B00F3A880022704460E4657484FF089
:101A7000FF31154600F070FB002840F0A380544A67
:101A80001368002BFCD1534A1368002BFCD1524839
:101A90000368002BFCD14FF0FF3000F079FA802072
:101AA00000F082FA4D484E4A4E4901230360072058
:101AB00010600B60A2F59A72A36C13604A4BE16C44
:101AC00051601F602368002B0BD019DB022B17DC41
:101AD000464B626A1A60226A43F8042CE26943F8B2
:101AE000082C434BA2691A60626943F8042C2269EE
:101AF00043F8082CE26843F80C2CA26843F8102C39
:101B0000344A1368002BFCD1002D47D1394B0422F5
:101B10001A60304A1368002BFCD12F4A1368002B3F
:101B2000FCD12368002B0BD019DB022B17DC2F4ACA
:101B3000314B126862621A682262043B1B68E361DF
:101B40002B4A2E4B1268A2611A68626153F8042C6A
:101B5000226153F8082CE2600C3B1B68A360284A02
:101B6000284B1268A2641A681E4D27482149E26476
:101B7000002201242C6003F5A07302600A601C6837
:101B8000002CFCD1154B11481C6000F007FBA0B9DC
:101B9000F8BD012768E74FF4720070476368012BB6
:101BA00004BF194A1360194A194B166040201D6082
:101BB00000F002FAADE71748F8BD174800F0CCFE78
:101BC0002046F8BD154800F0C7FE58E7E87A002027
:101BD0001CB9025010B9025020BC025018B8025073
:101BE00000B90250C4B70250C0B702505CB60250F0
:101BF00050B60250C8B7025058B602504CB6025008
:101C0000CCB70250D0B7025084B6025028BC025064
:101C10002CBC02500100F200505B0000385B000059
:101C200040B1F0B51B4B846D9C42A1B005D01A4861
:101C300021B0F0BD4FF4720070470C46C16DB2FB8D
:101C4000F1F6C900054606FB01F104224830FFF712
:101C5000B9F814F0030711D076B1EA6D00272146D8
:101C6000684600F055FA69462846FFF731F9013712
:101C7000EA6DBE421444F2D10020D9E7002EFBD019
:101C800021462846FFF724F90137EB6DBE421C447C
:101C9000F6D1F1E7785634120200F200F0B50423D1
:101CA00085B00122C0F8D03000230A6068460C4697
:101CB000019300930293039300F0A6FA074600BB3A
:101CC000019B009E029D03992361002B14BF0222F9
:101CD0000022002E18BF42F00102002D14BF042381
:101CE0000023002942EA030214BF08230023134300
:101CF00038460022E6606561A1616360A26005B0BC
:101D0000F0BD024800F028FEDAE700BF685B000083
:101D100018B159B122B91A4870474FF47000704792
:101D200038B512F00F0403D0154838BD1548704778
:101D3000056A25F00405032D01D0D3B11C461346D6
:101D40002246FFF7A1FD104B984214D005D8B0F5FC
:101D5000710F12D00BD838B938BD0C4B984206D051
:101D600005D301339842DFD04FF4750038BD0848E1
:101D700038BD084838BD084838BD4FF47000EBE75F
:101D80000A00F0000800F0000200F1000400F10079
:101D90000200F0000900F0000600F000A0B1C2B19E
:101DA000994201D93248704770B5059B7BB1036AEF
:101DB00023F00404032C049C0FD064B3059C246816
:101DC000A1420FD92B4870BD4FF4700070472A48CC
:101DD00070BD0029E8D029487047F4B1059C2468FB
:101DE0000F2CEFD90C0703D0012B21D9032B1FD0C7
:101DF0000E4633461146049A0446FEF7FBFC0546A0
:101E000068B11F4B984230D017D8B0F5710F29D068
:101E10001CD8C0B970BD0029EAD01A4870BD236A29
:101E200023F00403032B13D0059B1E60284670BDCE
:101E3000C36A002BDCD1144870BD144B984205D9FD
:101E400001339842F7D04FF4750070BD104870BD53
:101E500004982146102200F05BF9059A10231360C4
:101E6000284670BD4FF4700070BD0A4870BD00BFB9
:101E70000C00F0000D00F0001100F0000800F00070
:101E80000200F1000900F0000A00F0000400F10077
:101E90000200F0000600F00048B1032A03D9052A29
:101EA00001D017487047012904D9164870474FF4EC
:101EB000700070470BB114487047022A70B5054690
:101EC00014460E4611D0052A0FD04C2100F024F9FB
:101ED000052C11D94FF0FF32002001232A626E62D7
:101EE000E86228636B63AB6370BD0EB1074870BDD9
:101EF0004C21284600F010F9054B53F82420EBE75D
:101F00000200F0000600F0000E00F0001200F000E9
:101F10001858000060B108B5036A013B022B01D9D3
:101F2000064808BD39B1102200F0F2F8002008BDC3
:101F30004FF470007047024808BD00BF0200F00077
:101F40000100F00038B122B109B10E487047082BEA
:101F500004D00D4870474FF4700070475368102B41
:101F600001D00A4870471368002BF2D010B5134611
:101F7000012282620C46103093E8060000F0C8F897
:101F8000204610BD0500F0000400F0000300F00042
:101F9000014B1860704700BF08BA0250014B002087
:101FA00018607047D43A0020014B1860704700BF9A
:101FB00004BA02500020704710B5044682B0C0B188
:101FC000124A134BC14311601B680193019B1842D5
:101FD0000AD1104A20BFBFF35B8F1368BFF35B8F3A
:101FE0000193019B1C42F5D00B4B1C60019802B081
:101FF00010BD0A4800F0B0FC044A054B4FF0FF3119
:1020000011601B680193019BE3E700BF04BA025013
:1020100000BA0250D43A002008BA0250985B00007F
:1020200008B5FFF7C7FFBDE8084000F0C9B800BF1A
:1020300010B500F02DF810B10424204610BDFFF7B4
:10204000ADFFB0B90C4B1B681B0EF02B06D10B4A31
:102050000B4B12689A4208D0062400E00524FFF7D3
:10206000A9FF00F0ADF8204610BD064B04461860ED
:10207000E3E70324F5E700BF28B9025024BA025071
:102080000000E0200CBA025000207047704700BFEB
:1020900008B500214FF40040FFF7F6FF08B101201A
:1020A00008BD124800F03CF878B9114800F038F843
:1020B00098B9104B0E4A10481A6000F031F880B9F8
:1020C0000E4B0D4A1A60002008BD0D4800F044FC7C
:1020D000074800F025F80028EBD00A4800F03CFC47
:1020E000E7E7094800F038FCEAE700BFE87A00209B
:1020F000E07A0020DC7A0020E47A0020D87A002000
:10210000C85B0000E45B0000005C0000FEF752B911
:10211000FEF716B9FEF73EB90A460021FEF73AB9B6
:1021200010B5044610B10020206010BD024800F038
:1021300013FC0020206010BD205C000010B5044698
:1021400010B10020206010BD024800F005FC002006
:10215000206010BD205C000010B50446B8B1BFF38C
:102160005B8F2368BFF35B8F012BF8D00122BFF395
:102170005B8F54E8003F44E800210029F9D1BFF308
:102180005B8F012BF3D1BFF35F8F002010BD02489E
:1021900000F0E2FBE3E700BF445C000010B504463A
:1021A00020B1BFF35F8F0020206010BD034800F016
:1021B000D3FBBFF35F8F0020206010BD645C000084
:1021C00070B50E4E0E4D0F4CFFF760FF3046FFF717
:1021D000B5FF30460421FFF79FFF2846FFF7AEFF0B
:1021E00028460421FFF798FF2046FFF7A7FF204667
:1021F0000421BDE87040FFF78FBF00BFE87A0020E0
:10220000E07A0020E47A002003464FF47A724FF41B
:10221000FA71002099601A605A60D860704700BF58
:102220002DE9F04F7A4C80460F4696469C460FCCDF
:10223000B7B007AD0FC594E80F0004F1100685E8AC
:102240000F000FCE0FAD0FC596E80F00303485E8B4
:102250000F000FCC17AD0FC50FCC0FC594E80F00C2
:10226000D8F8D040042C85E80F0005D0082C03D006
:10227000684837B0BDE8F08F251D409BAD009D42FA
:1022800003D0654837B0BDE8F08F07EB0E019EFA2A
:102290008EF30EF118080EF109003B6095FA85FEE9
:1022A000802328F00F08A8EB0002C7F804E03844A8
:1022B0000B720021CDF80CC0FFF72CFF409B1B09CF
:1022C000A5F1100508BF0DF18C0975D0042C38D08C
:1022D00017ACDDF80CB04FF0000A0DF18C0921E0CD
:1022E000484607AE05960695FFF72CFE21461034AA
:1022F00028BB4846FFF70EFE0DF1D80E4FF0100C2C
:1023000043463A464146D0B94EF8C8CD48468DE8D6
:102310000048FFF743FD0BF1100B80B9409BBAEB6F
:10232000131F49D20023194602224846FFF7B4FD85
:102330000AF1010A0146082305AA0028D0D037482F
:1023400097E70FACDDF80CB04FF0000A0DF18C09E7
:1023500024E0484607AE05960695FFF7F3FD2146B3
:1023600010340028EBD14846FFF7D4FD0DF1D80E0C
:102370004FF0100C43463A4641460028DFD14EF854
:10238000C8CD48468DE80048FFF708FD0BF1100B5B
:102390000028D4D1409BBAEB131F0DD2002319465D
:1023A00002224846FFF778FD0AF1010A0146082398
:1023B00005AA0028CDD0C2E70023039C0594194646
:1023C000012248460695FFF767FD0028B7D1014670
:1023D000082305AA4846FFF7B5FD0028AFD1039BA7
:1023E00048465919FFF796FD01460028A7D1039CDE
:1023F000409A2046FFF78EFE409B009440AA01922F
:10240000484622461946FFF7C9FC002897D130E715
:1024100038570000210CF000230CF000360CF000BF
:102420002DE9F0438FB0884607A917460646FFF707
:1024300035FC044630B9D6F8D040042C06D0082C20
:1024400004D0434C20460FB0BDE8F083D6F8C4302A
:102450000C2B04D93F4C20460FB0BDE8F083B8F1F7
:10246000000F3CD162010EAB06A843F8242D04AA4C
:1024700001900092029707A900223046FEF7FEFF66
:1024800058BB069B0498D6F8C42023F003030833F6
:1024900006F18409184492004946FFF739FED6F840
:1024A000C420069B04990434A50003EB8204224651
:1024B00000954B4630460694FFF7B2FE044688B1BD
:1024C0003046E421FFF728FE38464FF4BF51FFF7AE
:1024D00023FE20460FB0BDE8F0831F4CF0E7221D1D
:1024E0005201C0E7B8F1010F18D003463246494601
:1024F000304600F035F808B10446E1E7D6F8D430AC
:1025000001221343C6F8D430C6F8CC200023484635
:10251000C6F8C4304021FFF7FFFDD5E72946304615
:10252000FFF7FAFD234632464946304600F018F8D8
:102530000028E1D1D6F8D430084AC6F8CC8023F47C
:10254000803343F00103C6F8D430C6F8DC20DDE761
:10255000210CF000040CF000260CF000CDAB2301A0
:10256000F0B51F4699B000230E461546D0F8D0406E
:10257000194605A80322FFF78FFC10B1174819B0C0
:10258000F0BDA4000146082303AA05A804940395FE
:10259000FFF7D8FC0028F1D1291905A8FFF7BAFCEC
:1025A0000028EBD13FB92B461022314605A8FFF792
:1025B000AFFB0028E2D118A904F1100341F8583DFF
:1025C000324601910095194605A8FFF7E7FB034B3A
:1025D000002814BF18460020D1E700BF360CF000D9
:1025E000F8B51646036EC26D0546D01AB0FBF2F47C
:1025F00002FB1404B44228BF34460F4614BB934276
:102600002FD0B6FBF2F402FB04F414B96EB93046D5
:10261000F8BDD5F8E83022463946284698470028C4
:10262000F6D1361B2744002EF1D0286E193005EB69
:10263000800032463946FFF76BFD2B6E1E442E6636
:102640000020F8BD05F1640018442246FFF760FD44
:102650002B6EEA6D234493422744A6EB04062B66B7
:10266000CFD1D5F8E83005F1640128469847002815
:10267000CED1EA6D2866C4E738B51E4B1E4901224B
:1026800005461A600B68002BFCD11C4B1A68002A07
:10269000FCD11B4B1A68002AFCD11A4B1A68002A7D
:1026A000FCD1194B1C68002CFCD14FF0FF30FFF718
:1026B0006FFC2B6A23F00403032B0CBF8020402007
:1026C000FFF772FC114B1C602B6A23F00402032AF3
:1026D00018BF6C6A0E4A9B0003F01C0304F001044F
:1026E000234313602B6A072B02D10A4B01221A6085
:1026F000002038BD00B9025070B4025020BD025015
:1027000020BC025038BD025038BC0250BCB402504C
:10271000C0B402507CB4025000F04EBA70B50B4BFE
:102720000646144618780D4608B900F045FA002010
:1027300000F0D0FB22462946304600F009F8044656
:10274000002000F0D7FB204670BD0000B01A00202A
:1027500070B50E46144900EB400001EBC00514466D
:10276000E86A183520B101280FD0022805D113E0FE
:10277000284600F057FAA04201D2002411E0224678
:102780003146284600F074FB0BE0284600F04AFA78
:10279000A042F4D20446F2E73146284600F03BFB63
:1027A0000446204670BD0000B01A00200FB408B5E2
:1027B00004A900916A46039900F003F801B05DF89E
:1027C00014FB2DE9F04198B0064607A8029040207E
:1027D0000025CDE90305CDE9055690460C4614F8D1
:1027E000011B002973D0252908D002A800F0F4FAB3
:1027F00005980028F3DA18B0BDE8F0810020012127
:102800002278232A1ED02B2A19D02D2A02D0302A32
:1028100008D102E040F0010001E040F00200641C39
:102820000029EDD100222178A1F130030A2B0CD22E
:1028300002EB820201EB4202303A641CF3E740F003
:102840000400ECE740F00800E9E70023CFB22E2FA8
:102850000BD114F8011FA1F130070A2F05D203EBA9
:10286000830301EB4303303BF3E76C290DD0682968
:102870000BD0702954D00BDC252916D0582931D023
:1028800063290CD0642913D114E014F8011FECE77C
:10289000732934D075291BD0782909D122E0D8F8C2
:1028A0000000011DC8F80010017802A800F094FA99
:1028B000641C9DE7D8F800100F1DC8F80070096867
:1028C000CDE900200A2202A800F0B8F9F0E733E0D1
:1028D000D8F800100F1DC8F800700968CDE9002075
:1028E0000A2208E0D8F800100F1DC8F80070096827
:1028F000CDE90020102202A800F004FAD8E7D8F8A9
:102900000000011DC8F80010076817F8011B002916
:10291000CED002A800F060FA05980028F5DAC7E7E3
:10292000D8F80000011DC8F8001001680820CDE9A2
:10293000000503461022DEE7059800287FF75BAF0D
:10294000049820B1024607A93046FFF7E7FEDDE90B
:102950000410084405904EE7024602A10020FFF74C
:1029600025FFFEE743433331302061626F727420EC
:1029700063616C6C65643A2025730D0A00000000E9
:1029800030B54FF0805000228300D0F83011C3F8EA
:102990000C21C3F81021624B1A60624B1B68624C19
:1029A0002360604B1B1D1B68241D23605D4B083397
:1029B0001B68241D23605B4B0C331B68241D2360A4
:1029C000584B10331B68241D2360564B14331B686F
:1029D000241D2360534B18331B68534C2034236051
:1029E000504B1C331B68241D23604E4B20331B6847
:1029F000241D23604B4B24331B68241D2360494B4B
:102A000028331B68241D2360464B2C331B68241D70
:102A10002360444B30331B68434C40342360414BAC
:102A200034331B68241D23603E4B38331B68241D40
:102A300023603C4B3C331B68241D2360394B4033DF
:102A40001B68241D23600124082902D1D0F83431E9
:102A500013B1082904D006E0354B3449196005E06C
:102A6000D0F8343113B1082904D006E0314BFB21F2
:102A7000196005E0D0F8343113B1082908D00EE010
:102A800090F858322C48016863F30301016002E0BA
:102A9000D0F834311BB929494FF400700860284838
:102AA0000168C90702D06FF0010101602548016883
:102AB00041F470010160BFF34F8FBFF36F8F4FF090
:102AC0001021D1F80002002803DBD1F8040200280D
:102AD00022DA1D4B1C601D480468002CFCD0122417
:102AE000C1F800420568002DFCD0C1F8044201681D
:102AF0000029FCD01A6001680029FCD0BFF34F8F79
:102B000010487C380168124A01F4E0611143016009
:102B1000BFF34F8F00BFFDE70F490E48086030BD7F
:102B2000380500400404001020C50040488103001F
:102B30008C56004018F50040E40E004040960240DC
:102B40000004004088ED00E004E5014000E401409D
:102B50000400FA050090D0039800002010B5054C41
:102B6000206818B904A12B2000F05CFA2068BDE8A9
:102B7000104000471C0000202E2E5C2E2E5C2E2EB6
:102B80005C2E2E5C2E2E5C2E2E5C2E2E5C6D6F64C9
:102B9000756C65735C6E7266785C6472697665727A
:102BA000735C7372635C7072735C6E7266785F7074
:102BB00072732E630000000010B5124C02202061D9
:102BC000606111A0A06104F17800E06141F69C70A1
:102BD00020620020A06260620BA1A164E0620D4946
:102BE000E1641021A065C4E91410E0650AA1E01DAC
:102BF000FDF7EDFB09A12046FDF7E9FB2020A071C0
:102C000010BD0000B01A00205465726D696E616CD1
:102C100000000000C43A0020525454005345474776
:102C2000455200000269C1688A4203D88068401A90
:102C3000104400E0501A401E704700002DE9FC5F70
:102C40000E008146DDE90C47C6F100009846934628
:102C5000824600D40846012503E000BF90FBFBF04C
:102C60006D1C5845FADAA84500D9454624B1002E16
:102C700001DB780700D5641EB80702D5B8F1000F54
:102C80000FD0F8070DD164B1A5420AD220214846E1
:102C9000641E00F0A1F8D9F80C000028F3DABDE8B2
:102CA000FC9FD9F80C000028F9DB002E02DA56460A
:102CB0002D2102E0780707D52B21484600F08CF83B
:102CC000D9F80C000028EADB07F0030002280FD136
:102CD000B8F1000F0CD15CB1A54209D230214846B1
:102CE000641E00F079F8D9F80C000028F3DAD6E772
:102CF000CDE9004743465A463146484600F002F8BF
:102D0000CDE700002DE9F84F8246DDE90A4B0126A8
:102D1000984691460D460846374602E0B0FBF9F06A
:102D20007F1C4845FAD2B84500D947465FEACB70C8
:102D300017D1B4B15FEA8B7002D5B8F1000F02D0A1
:102D4000202000900BE03020FBE75046641E0099E5
:102D500000F042F8DAF80C00002838DB0CB1A7428A
:102D6000F3D3DAF80C00002831DB00BFB8F1010F13
:102D700002D9A8F1010803E0B5FBF6F0484502D3FB
:102D800006FB09F6F2E7DFF84C8000BFB5FBF6F072
:102D900000FB165518F80010504600F01DF8DAF840
:102DA0000C00002803DBB6FBF9F6002EEED15FEA3B
:102DB000CB700CD0002C0AD0A74208D2202150465C
:102DC000641E00F009F8DAF80C000028F2DABDE819
:102DD000F88F00007C55000010B50446D4E901309E
:102DE000421C934205D323681954A260E068401C3A
:102DF000E060D4E90102824209D121682069FFF72D
:102E00008DFCA168884203D04FF0FF30E06010BD18
:102E10000020A06010BD2DE9F047C4681746894620
:102E200006464FF000083069A04201D9051B02E0B8
:102E3000B168201A0D1AB0686D1E001BA84200D898
:102E40000546BD4200D33D4670682A4620444946A7
:102E5000FDF776FAB0687F1B2C44A844A944A04231
:102E600000D10024F460002FDDD14046BDE8F0879A
:102E70002DE9F04104468846D4E90207C51BE16804
:102E8000606816460844B54206D94146FDF758FA2F
:102E9000B819E060BDE8F0812A464146FDF750FAD6
:102EA000761B08EB050132466068FDF749FAE660DB
:102EB000F0E702E008C8121F08C1002AFAD17047E3
:102EC0007047002001E001C1121F002AFBD17047AA
:102ED000FEE7000010B501F067FD012803D00449AA
:102EE0001D2000F09FF8BDE8104000F013B800006E
:102EF0001456000010B501F057FD012803D0044915
:102F00002B2000F08FF8BDE8104000F00BB8000057
:102F10001456000072B602480168491C01607047EF
:102F20002400002003490868401E086000D162B6F2
:102F3000704700002400002070B5054608680C4664
:102F4000411C04D000F0BCFF206800F041FF606825
:102F5000411C02D0002100F029FF2968A069C1F8B6
:102F60002405607D227D29681043C1F86C05D4E9F1
:102F700000122868C0F81425C0F80C15207D01281F
:102F800014D1A068411C02D0002100F00FFFE068BE
:102F9000411C04D000F094FFE06800F019FFD4E970
:102FA00002122868C0F80825C0F8101570BD70B569
:102FB000054608680C46411C04D000F08BFF2068D1
:102FC00000F010FF6068411C02D0002100F0F7FE05
:102FD0002968A069C1F82405607D217D2A6808431D
:102FE000C2F86C05D4E900122868C0F80C15C0F8C6
:102FF0001425207D012814D1A068411C02D0002195
:1030000000F0DDFEE068411C04D000F063FFE068E2
:1030100000F0E8FED4E902122868C0F80825C0F8DC
:10302000101570BD1CB56A46ADF800000191002175
:1030300044F20200FFF74CFF1CBD30B48268046804
:10304000531C8360A154D0E901128A4202D330BCE0
:1030500000F010BD30BC70472DE9F043ADF50D7D9B
:1030600040217CA8FDF794F9DFF8DC8000274FF4BD
:103070008079002649466846FFF74EF8932006FB04
:1030800000F108EB810404F582716846D4F804224B
:10309000FFF73EF8234632462CA10020FFF786FBBF
:1030A0006FB137A10020FFF781FB40A8D4F80011D1
:1030B000FDF79AFA050013D0024638A123E040A19B
:1030C0000020FFF773FB7CAB6946D4F80422D4F8E8
:1030D0000001FDF7B7F9050019D002463EA112E044
:1030E000694640A8D4F80422FDF7E2FA050002D0B0
:1030F000024641A107E07CA940A8FDF727FA050098
:1031000005D0024646A10020FFF750FB17E004F56A
:1031100002717CA8D4F84822FEF7F8FF050004D01D
:1031200049A10020FFF742FB09E04EA10020FFF774
:103130003DFB761C032E9DDB7F1C012F99D90DF5DD
:103140000D7D2846BDE8F083544E00000A2048411A
:1031500053482054657374206E756D62657220301B
:1031600078257820506172616D6574657273203ABC
:10317000200A2D2D2D2D2D25732D2D2D2D2D0A00C1
:103180000A204E6F6E20696E7465677261746564A3
:10319000206F7065726174696F6E20002043525910
:1031A000535F484153485F496E6974206661696C9A
:1031B000656420776974682030782578200A0000DB
:1031C000496E7465677261746564206F70657261C1
:1031D00074696F6E2000000020435259535F4841CC
:1031E0005348206661696C65642077697468203093
:1031F000782578200A00000020435259535F484147
:1032000053485F557064617465206661696C6564DC
:1032100020776974682030782578200A0000000043
:1032200020435259535F484153485F46696E697362
:1032300068206661696C65642077697468203078FD
:103240002578200A0000000020536153695F506117
:103250006C4D656D436D70206661696C6564200A14
:10326000000000000A20203D3D3D3D3D3D3D2050F9
:103270006173736564203D3D3D3D3D3D3D3D3D3DBC
:103280003D3D3D0A000000002DE9FC5F0E00834635
:10329000DDE90C47C6F1000098469246814600D40D
:1032A0000846012503E000BF90FBFAF06D1C504575
:1032B000FADAA84500D9454624B1002E01DB78078B
:1032C00000D5641EB80702D5B8F1000F0AD0F80780
:1032D00008D13CB1A54205D220215846641EFFF713
:1032E000ACFEF6E7002E02DA4E462D2102E078070A
:1032F00003D52B215846FFF7A0FE07F00300022854
:103300000BD1B8F1000F08D13CB1A54205D2302154
:103310005846641EFFF791FEF6E7CDE900474346A5
:1033200052463146584601F03BFDBDE8FC9F000087
:1033300002A10020FFF73AFA30BFFDE73D3D3D3DD9
:103340003D3D3D3D3D3D3D3D3D3D3D3D3D3D3D3DAD
:10335000205445535420454E44203D3D3D3D3D3D88
:103360003D3D3D3D3D3D3D3D3D3D3D3D3D3D0D0AF0
:103370000000000010B50B48094900244160E43109
:103380000160FFF7C9F908A10020FFF70FFA144AFE
:1033900001208102C2F8001112490860204610BDC8
:1033A0009C000020000000203D3D3D3D3D3D3D3D59
:1033B0003D3D3D3D3D3D3D3D3D3D3D3D2054455325
:1033C00054205354415254203D3D3D3D3D3D3D3DF3
:1033D0003D3D3D3D3D3D3D3D3D3D3D3D0D0A0000FA
:1033E00004E000E000A5025070B50E4605460068F6
:1033F0004FF48E7100F043FF4FF4A271286800F083
:103400003EFF28681549C0F804132868082E40F3C9
:10341000073403D312A14520FFF704FE7007000E06
:10342000002C06DA04F00F0101F1E02181F8140DFF
:1034300003E004F1E02484F800042868012140F34B
:10344000073000F01F0291404009800000F1E020A9
:10345000C0F88012C0F8001170BD000080000200AA
:103460002E2E5C2E2E5C2E2E5C2E2E5C2E2E5C2E96
:103470002E5C2E2E5C696E746567726174696F6E66
:103480005C6E7266785C6E7266785F676C75652ECE
:103490006800000070B50E46044600684FF488715D
:1034A00000F0FEFE4FF49071206800F0F9FE4FF43A
:1034B0009271206800F0F4FE4FF4A271206800F0D1
:1034C000EFFE20681549C0F804132068082E40F369
:1034D000073503D312A14520FFF7A4FD7007000EA6
:1034E000002D06DA05F00F0101F1E02181F8140D3D
:1034F00003E005F1E02585F800042068012140F390
:10350000073000F01F0291404009800000F1E020E8
:10351000C0F88012C0F8001170BD00001003020056
:103520002E2E5C2E2E5C2E2E5C2E2E5C2E2E5C2ED5
:103530002E5C2E2E5C696E746567726174696F6EA5
:103540005C6E7266785C6E7266785F676C75652E0D
:103550006800000070B5FFF70DFF040004D01AA149
:103560000020FFF723F92CE0FEF762FD040002D0F3
:1035700002461DA120E02548254D01682868FDF779
:10358000D5F8040002D0024622A115E0FFF764FD41
:10359000020004D028A10020FFF708F903E02FA1C2
:1035A0000020FFF703F9FEF73BFD2868FDF7B2F8AE
:1035B000040004D002462EA10020FFF7F7F8FFF721
:1035C000B7FE204670BD0000696E74656772617455
:1035D000696F6E5F74657374735F73657475702063
:1035E0006661696C65640A004661696C65642053B4
:1035F0006153695F4C6962496E6974202D20726560
:1036000074203D20307825780A000000000000205A
:10361000040000204661696C656420435259535F81
:10362000526E64496E6974202D20726574203D20AD
:10363000307825780A0000004661696C7572652053
:10364000696E20686173685F74657374732C72654A
:1036500074203D20307825780A000000416C6C20F1
:10366000746573747320706173736564200A00005D
:103670004661696C75726520696E20435259535FCB
:10368000524E445F556E496E7374616E7469617415
:10369000696F6E2C726574203D20307825780A00A1
:1036A0002DE9F05F1E46DDF828B091468A460400F9
:1036B00003D124A19020FFF7B5FCB4F8068060790F
:1036C00008FB00F8A8F10408464503D31DA19E207D
:1036D000FFF7A8FCE788301DB0FBF7F1B0FBF7F26D
:1036E00007FB1200D9F80050AA19424501D9A8EBEE
:1036F0000605C9F8005001E02468491E0029FBD1E5
:103700003E1A8846AE4215D817E000BF2044001D7F
:103710000AEB0803BBF1000F324602D001461846FF
:1037200000E01946FCF70CFE00202468AD1BB044F5
:10373000AF4201D92E4600E03E46002DE6D1BDE85D
:10374000F09F00002E2E5C2E2E5C2E2E5C2E2E5C0A
:103750002E2E5C2E2E5C2E2E5C636F6D706F6E6550
:103760006E74735C6C69627261726965735C6D65BD
:103770006D6F626A5C6E72665F6D656D6F626A2EF8
:103780006300000030B5024651B100F0A3FC0021F7
:10379000074C08E034F821301568AB4202D11160C3
:1037A000002030BD491C8142F4D3052030BD00000B
:1037B0000000000008B56A46FCF76DFD009808BDE2
:1037C00008B56A46FCF774FD009808BD70B50400A2
:1037D00003D113A1FE20FFF725FC00252846FFF7A3
:1037E00079FB206862680168914214D9491E016022
:1037F0000D781CB91AA1C220FFF714FC208AE168D9
:1038000005FB00152068217A0278891A0279C9B26D
:103810008A4200D201710020FFF76CFB284670BD80
:103820002E2E5C2E2E5C2E2E5C2E2E5C2E2E5C2ED2
:103830002E5C2E2E5C636F6D706F6E656E74735CA4
:103840006C69627261726965735C62616C6C6F63F2
:103850005C6E72665F62616C6C6F632E6300000069
:103860002E2E5C2E2E5C2E2E5C2E2E5C2E2E5C2E92
:103870002E5C2E2E5C636F6D706F6E656E74735C64
:103880006C69627261726965735C62616C6C6F63B2
:103890005C6E72665F62616C6C6F632E6300000029
:1038A00070B50C46050004D110A140F22110FFF7BD
:1038B000B9FB24B90DA14FF49170FFF7B3FB0020C1
:1038C000FFF708FB1DB91949CF20FFF7ABFBE868EC
:1038D0002A68211A288AB1FBF0F11068431C136092
:1038E0000170BDE870400020FFF704BB2E2E5C2E57
:1038F0002E5C2E2E5C2E2E5C2E2E5C2E2E5C2E2E02
:103900005C636F6D706F6E656E74735C6C69627210
:1039100061726965735C62616C6C6F635C6E726628
:103920005F62616C6C6F632E6300000060380000A2
:103930002DE9F041054604781C4888B00F4640F850
:1039400024200869194916460831012C41F8240041
:1039500005D1787F18B916A15020FFF763FBDFF877
:103960004C80797FA8F10408202208F80410394619
:103970006846FCF7E5FC0494297818F8010050B17A
:103980000EB11A4A00E000226946281D00F062FECE
:1039900008B0BDE8F0810EB1154A00E0002269468A
:1039A00005F10C0000F002FDF2E700000C00002021
:1039B0002E2E5C2E2E5C2E2E5C2E2E5C2E2E5C2E41
:1039C0002E5C2E2E5C696E746567726174696F6E11
:1039D0005C6E7266785C6C65676163795C6E72665A
:1039E0005F6472765F756172742E63007D4C0000B7
:1039F000C14A00000FB438B5040003D110A11C2047
:103A0000FFF710FB606918B90DA11D20FFF70AFB35
:103A1000206818B90AA11E20FFF704FB606818B9D6
:103A200007A11F20FFF7FEFA0599002905D006A877
:103A300000906A46204600F049F838BC5DF814FB57
:103A40002E2E5C2E2E5C2E2E5C2E2E5C2E2E5C2EB0
:103A50002E5C2E2E5C65787465726E616C5C66708F
:103A600072696E74665C6E72665F667072696E749F
:103A7000662E630010B5040003D107A10B20FFF7E9
:103A8000D1FAA268002A05D0D4E904032168984736
:103A90000020A06010BD00002E2E5C2E2E5C2E2E6D
:103AA0005C2E2E5C2E2E5C2E2E5C2E2E5C65787489
:103AB00065726E616C5C667072696E74665C6E7263
:103AC000665F667072696E74662E63002DE9FC474E
:103AD00091460C465FEA000804D183A14FF49F7021
:103AE000FFF7A0FAD8F8140020B97FA14FF4A07016
:103AF000FFF798FAD8F8000020B97BA140F24110F6
:103B0000FFF790FAD8F8040020B977A14FF4A1701C
:103B1000FFF788FA002C76D014F8011B39B125295B
:103B20000ED04046FFF789FA20780028F4D198F8A3
:103B30000C00002867D04046BDE8FC47FFF79ABF5D
:103B40000020012221782B291BD02D2902D03029D9
:103B500008D102E040F0010001E040F00200641CE6
:103B6000002AEFD100252A290ED02178A1F13002B8
:103B70000A2A11D205EB850201EB4205641C303D97
:103B8000F1E740F00400EAE7D9F800100B1DC9F88E
:103B900000300968641C0D44217800232E290BD1C4
:103BA00014F8011FA1F130020A2A05D203EB8302A7
:103BB00001EB4203303BF3E76C290DD068290BD0B1
:103BC000692921D00BDC252918D0582931D0632947
:103BD0000ED0642915D117E014F8011FECE7702905
:103BE00069D0732932D075291BD0782909D120E0FA
:103BF000D9F80000011DC9F8001001784046FFF710
:103C00001CFA641C90E76CE0D9F800100A1DC9F892
:103C100000200968CDE900500A224046FFF734FB36
:103C2000EFE7D9F800100A1DC9F8002009680A2238
:103C300006E0D9F800100A1DC9F800200968102212
:103C4000CDE90050404601F0ABF8DAE7D9F80010B2
:103C500000270A1DC9F800200E68C00705D112E030
:103C60004046761C7F1CFFF7E8F931780029F7D130
:103C700004E0202140466D1EFFF7DFF9BD42C0D9A8
:103C8000002DF6D1BDE74EB13046FCF78CFB074660
:103C900004E0202140466D1EFFF7CFF9BD4206D952
:103CA000002DF6D103E04046761CFFF7C6F93178C7
:103CB0000029F8D1A5E7D9F80000011DC9F80010C6
:103CC000056830214046FFF7B8F978214046FFF7F4
:103CD000B4F908200021CDE900010346102229464D
:103CE000B0E7BDE8FC8700002E2E5C2E2E5C2E2E49
:103CF0005C2E2E5C2E2E5C2E2E5C2E2E5C65787437
:103D000065726E616C5C667072696E74665C6E7210
:103D1000665F667072696E74665F666F726D6174FD
:103D20002E6300002DE9FF411C46DDE90A781546A7
:103D30000E46684600F060F846EA450141EA840113
:103D400041EA072242EA0841009A00EB8200C0F8EB
:103D50000017BDE8FF812DE9FF411C46DDE90A7827
:103D600015460E46684600F079F846EA450141EAF4
:103D7000840141EA072242EA0841009A00EB8200EE
:103D8000C0F80017BDE8FF811CB5002100910B466B
:103D900001220191FFF7C6FF1CBD1CB50021009157
:103DA0000B4601220191FFF7D6FF1CBD1CB5002276
:103DB0000B46009211460192FFF7B4FF1CBD1CB5E3
:103DC00000220B46009211460192FFF7C4FF1CBD72
:103DD0001CB5002100910B46012201911146FFF70D
:103DE000A1FF1CBD1CB5002100910B4601220191D1
:103DF0001146FFF7B0FF1CBD10B50446006830281F
:103E000004D308A14FF4D570FFF70CF920682028DF
:103E100002D24FF0A04010BD00F01F0020600E48FD
:103E200010BD00002E2E5C2E2E5C2E2E5C2E2E5CE5
:103E30002E2E5C2E2E5C2E2E5C6D6F64756C657361
:103E40005C6E7266785C68616C2F6E72665F67701C
:103E5000696F2E68000000000003005010B5044692
:103E60000068302804D308A14FF4D570FFF7DAF8C2
:103E70002068202802D24FF0A04010BD00F01F00A3
:103E800020600E4810BD00002E2E5C2E2E5C2E2EC3
:103E90005C2E2E5C2E2E5C2E2E5C2E2E5C6D6F64A6
:103EA000756C65735C6E7266785C68616C2F6E729F
:103EB000665F6770696F2E680000000000030050A5
:103EC00001B56846FFF798FF009A01219140C0F8BC
:103ED000081508BD01B56846FFF7C0FF009A01212B
:103EE0009140C0F8081508BDF0B595B01C461546C0
:103EF0000F4608461A9E00F079F9182109A8FCF728
:103F000047FA0E96CDE909540023082203A9384642
:103F100000F080F905980690BDF81000ADF81C007F
:103F2000BDF81200ADF81E0000208DF821000398A6
:103F3000082600F00300012802D0022818D032E041
:103F400003983346850AC0F3C2008DF82000039819
:103F50000FA9C0F38314A200384600F05BF909A84A
:103F6000009006AB22460FA9284600F0CBF81AE0D5
:103F70000398840DC0F3C2008DF82000082C01D2F4
:103F8000254600E0082533462A460FA9384600F0AA
:103F900041F92E44641B09AB06AA29460FA800F07C
:103FA00043F8002CEAD1384600F024F915B0F0BDF2
:103FB00070470000084810B50178084A515C19B1F3
:103FC000001D00F02FFC02E00C3000F0E1FABDE82B
:103FD0001040002000F092BD2C00002008000020BE
:103FE00008B5034A00924023024AFFF77DFF08BD4F
:103FF0003D4A0000B01900200A4A012902EBC00026
:1040000007D0022907D0032907D0042907D00020B0
:10401000704702207047042070470079704740794C
:1040200070470000B45C00002DE9F0470E46804662
:104030001C46924608293ED894F80C900020207324
:104040001946104600F064FC0025B54206D218F867
:1040500005201AA12046FFF7CDFC03E019A1204658
:10406000FFF7C8FC6D1C082DEFD317A12046FFF702
:10407000C1FC0025B54210D218F80570FCF75CF9B8
:104080000068C05D10F03E0F01D03A4600E02E22DD
:104090000EA12046FFF7AEFC03E00DA12046FFF77E
:1040A000A9FC6D1C082DE5D301222146504600F0E5
:1040B00011FC84F80C90BDE8F08700002025303218
:1040C00078000000202020007C0000002563000014
:1040D0002000000002480349401AC0087047000051
:1040E000D45C0000B45C000013B56846FFF74AFBDF
:1040F00008B100201CBD0248009950F831001CBDD9
:10410000B45C00002DE9FF4781460C9D00200C4661
:104110002F7B2873984616462946184600F0F8FB70
:10412000072E42D2DFE806F004090F161F2A3600D8
:1041300049462846FFF75EFC37E049462846226894
:10414000FFF758FC31E0D4E9002349462846FFF741
:1041500051FC2AE0A0680090D4E900234946284693
:10416000FFF748FC21E0D4E90201CDE90001D4E9E0
:10417000002349462846FFF73DFC16E004F10800FD
:1041800007C88DE80700D4E9002349462846FFF711
:1041900031FC0AE004F108000FC88DE80F00D4E9F3
:1041A000002349462846FFF725FC002229464046C1
:1041B00000F090FB2F73BDE8FF872DE9F0414579B2
:1041C00001466B1E002201E00968521C9A42FBD393
:1041D0000F680146002605E038460C68FFF760FBD3
:1041E0002146761CAE42F7D3BDE8F0810121001DC7
:1041F000FFF7E0BA10B504460121001DFFF7E0FA11
:1042000010F0FF0F04D12046BDE81040FFF7D5BFE6
:1042100010BD00001CB514460122CDE9002401AAFE
:10422000FFF73EFA0198A04203D002A1DA20FEF780
:10423000F9FE1CBD2E2E5C2E2E5C2E2E5C2E2E5CCE
:104240002E2E5C2E2E5C2E2E5C636F6D706F6E6555
:104250006E74735C6C69627261726965735C6D65C2
:104260006D6F626A5C6E72665F6D656D6F626A2EFD
:10427000630000004058002800D00120704708B5B6
:10428000002242504058009008BDD0F80403084076
:1042900000D0012070474058002800D0012070470E
:1042A00008B5002242504058009008BD0121B1EBF2
:1042B000507F01D1012070470020704770B50D4636
:1042C000040003D10DA15120FEF7ACFE204600F002
:1042D00079FB04000FD00020FEF7FCFD207920B10F
:1042E0000020FEF707FE112070BD0120256020711F
:1042F0000020FEF7FFFD002070BD00002E2E5C2E7A
:104300002E5C2E2E5C2E2E5C2E2E5C2E2E5C2E2EE7
:104310005C6D6F64756C65735C6E7266785C6472FC
:1043200069766572735C7372635C7072735C6E72D3
:1043300066785F7072732E630000000010B5040091
:1043400003D106A17520FEF76DFE204600F03AFB72
:10435000002802D000210160017110BD2E2E5C2EBC
:104360002E5C2E2E5C2E2E5C2E2E5C2E2E5C2E2E87
:104370005C6D6F64756C65735C6E7266785C64729C
:1043800069766572735C7372635C7072735C6E7273
:1043900066785F7072732E63000000000149024866
:1043A00000F0D8BB60190020002000402DE9F0414A
:1043B00017460D00064603D11AA18420FEF732FEEF
:1043C0003079274A00EB400101EBC00102EB810488
:1043D00094F82A1011B10820BDE8F081214951F864
:1043E00020103068FFF76AFF08B11120F4E7294672
:1043F0003046FEF7A1FD6760286920601FB1297F64
:104400003046FEF7F1FF30680421C0F800150020A7
:10441000A061E06184F8290044F8140F0121A1751E
:10442000DAE700002E2E5C2E2E5C2E2E5C2E2E5CEB
:104430002E2E5C2E2E5C2E2E5C6D6F64756C65735B
:104440005C6E7266785C647269766572735C7372B6
:10445000635C6E7266785F756172742E6300000033
:1044600060190020385500002DE9F0470546007915
:104470000F4600EB400101EBC0002D49164601EB51
:10448000800494F82A00012803D02AA1EF20FEF727
:10449000C9FD1FB927A1F020FEF7C4FD1EB925A153
:1044A000F120FEF7BFFD284600F062F810B11120A0
:1044B000BDE8F0874FF00008C4F82080A76066616F
:1044C00084F828804FF48E76474631462868FFF7F7
:1044D000D6FE28684FF00109C0F8089021462868E8
:1044E00000F0D0FA606808BBD5F800A00FE000BF6C
:1044F00094F8280008B10F2716E031465046FFF720
:10450000B9FE0028F4D02146504600F0BBFA216ADB
:1045100060698142F1D331462868FFF7ABFE00287D
:10452000F9D02868C0F80C90C4F814803846BFE76A
:10453000601900202E2E5C2E2E5C2E2E5C2E2E5C02
:104540002E2E5C2E2E5C2E2E5C6D6F64756C65734A
:104550005C6E7266785C647269766572735C7372A5
:10456000635C6E7266785F756172742E6300000022
:10457000007900EB400101EBC000044901EB800031
:104580004069002800D00120704700006019002019
:104590002DE9F047044600794FF0000900EB400197
:1045A00001EBC000254901EB80072068C0F80095A9
:1045B000786880B120682249C0F80813206801217A
:1045C00040F3073000F01F0291404009800000F1E5
:1045D000E020C0F880112068D0F80C25D0F81485B0
:1045E000D0F80865D0F810554FF0FF31C0F8141519
:1045F000C0F80C152068C0F80815C0F81015501C3C
:1046000002D01046FFF7C0FBB8F1FF3F02D0404692
:10461000FFF7BAFB681C02D02846FFF7B5FB701CF9
:1046200002D03046FFF7B0FB2068FFF787FE87F81F
:104630002A90C7F80490BDE8F087000060190020B8
:10464000840202000149024800F030BB8C190020AE
:10465000002000402DE9F04117460D00064603D129
:1046600018A19620FEF7DEFC3079254A00EBC00148
:1046700002EB810494F8201011B10820BDE8F0810C
:10468000204951F820103068FFF718FE08B11120BA
:10469000F4E729463046FEF78AFC67602869206007
:1046A0001FB1297F3046FEF7F5FE30680821C0F8BB
:1046B00000150020A061E0610121606184F82010F4
:1046C000DCE700002E2E5C2E2E5C2E2E5C2E2E5C47
:1046D0002E2E5C2E2E5C2E2E5C6D6F64756C6573B9
:1046E0005C6E7266785C647269766572735C737214
:1046F000635C6E7266785F75617274652E6300002C
:104700008C1900203C5500002DE9F04704460F4667
:1047100000792D4900EBC00001EB8005164695F8A5
:104720002000012803D029A1E720FEF77BFC1FB958
:1047300026A1E820FEF776FC1EB924A1E920FEF7A9
:1047400071FC207910B9B6F5803F03D31FA1EA2090
:10475000FEF768FC3846FFF7A9FD30B1204600F0AF
:1047600053F820B11120BDE8F0871020FBE7AF60BF
:104770006E614FF49076002731462068FFF790FD78
:104780004FF4AC7841462068FFF78AFD2068AA689C
:104790006969C0F84425C0F8481520680121816086
:1047A000686878B9B14649462068FFF774FD064647
:1047B00041462068FFF76FFD0643F4D000B10F2794
:1047C000002068613846CEE78C1900202E2E5C2E22
:1047D0002E5C2E2E5C2E2E5C2E2E5C2E2E5C2E2E13
:1047E0005C6D6F64756C65735C6E7266785C647228
:1047F00069766572735C7372635C6E7266785F75FE
:10480000617274652E6300000079054900EBC000F9
:1048100001EB80004069002800D0012070470000B3
:104820008C1900202DE9F04704460079274900EB58
:10483000C00001EB800720684FF00009C0F8009528
:10484000786880B120682249C0F8081320680121E7
:1048500040F3073000F01F0291404009800000F152
:10486000E020C0F880112068D0F80C25D0F814851D
:10487000D0F80865D0F810554FF0FF31C0F80C158E
:10488000C0F814152068C0F80815C0F81015501CA1
:1048900002D01046FFF781FAB8F1FF3F02D0404640
:1048A000FFF77BFA681C02D02846FFF776FA701CE7
:1048B00002D03046FFF771FA2068FFF73FFD87F816
:1048C0002090C7F80490BDE8F08700008C19002004
:1048D0001003020010B50C46017A052908D0407A71
:1048E00038B1084808A102682046FFF783F800E0C5
:1048F0001AB106A12046FFF77DF82046BDE810401A
:10490000FFF7B8B874000020257300000D0A0000FE
:1049100038B5C3880D46044633B114A0009015A2E3
:1049200016A12846FFF766F8217A05291CD0607A7F
:1049300048B1A088FFF760FB164951F8202016A166
:104940002846FFF757F8A0880021FFF7CDFB034664
:104950001049207A143951F8202001B02846BDE8CA
:1049600030400EA1FFF746B838BD00001B5B306D2C
:10497000000000001B5B313B33316D0025734C6F31
:1049800067732064726F7070656420282564292520
:10499000730D0A0074000020257300003C25733E4F
:1049A0002025733A20000000EFF30580C005C00DFC
:1049B00001D001207047EFF3148040F30000401C49
:1049C000704700000349884201D103487047002026
:1049D00070470000002000401C00002070B5054614
:1049E00088690C4600284FF4847128460AD0FFF7E6
:1049F00046FCD5F81805626AE1688854606A401C74
:104A0000606270BDFFF73BFCD5F8180570BD1FB59F
:104A100001238DF80030CDE90121D0E9001268466C
:104A200090471FBD1FB501238DF800308DF8081089
:104A30000192D0E90012684690471FBD70B50E4C38
:104A40000020D2B22070201D0C4D0378EB5C1BB10E
:104A5000001DFFF759FE02E00C30FFF705FD18B10D
:104A6000074A2D21FBF7D6FB6078002802D0217879
:104A70000029FAD070BD00002800002008000020A6
:104A80005856000070B50C4605464FF48E71FFF77E
:104A9000F6FB216AA068415C206A401C2062C5F8D0
:104AA0001C1570BD1FB500228DF800200291816891
:104AB00001914261D0E90012684690471FBD000095
:104AC0001FB50A4601788DF8001041680191017AFE
:104AD0008DF80810C0680390044850F82210083878
:104AE00050F82220684690471FBD000014000020A7
:104AF00001490120087070472800002010B588B0D7
:104B0000044620220F496846FBF71AFC0620009055
:104B1000C01F0190029003904FF0EB7006900CB113
:104B2000094A00E0002269460848FEF701FF18B173
:104B3000074A1D21FBF76EFB0448001F447008B0B4
:104B400010BD00005C550000F14A00002C00002060
:104B5000585600002DE9FF470C4605464FF40071FA
:104B6000FFF793FB01274FF40178002618B34FF4A9
:104B7000927949462846FFF77DFBE0B14946284631
:104B8000FFF77DFBC5F8088394F8290000B96F6032
:104B900002208DF80000D5F88004C5F88004039049
:104BA000A0690290E0680190A661E661D4E9001274
:104BB0006846904728E004212846FFF766FB18B3B3
:104BC0004FF484712846FFF755FBE8B1214628468B
:104BD000FFF704FF616AA069884215D1E06938B126
:104BE000E268616AA0612069E6616662E06008E0EF
:104BF00094F8290000B96F60C5F80883A661E268DF
:104C0000616A2046FFF703FF4FF48E78414628463D
:104C1000FFF730FB78B1206A6169884202D294F8CC
:104C2000280020B341462846FFF729FB616911B1EE
:104C30002046FFF737FF4FF4A27841462846FFF79A
:104C400019FB002818D041462846FFF718FB94F8B6
:104C5000290000B12F60A06900280DD0A661E2688C
:104C6000616A04B02046BDE8F047FFF7D0BE214698
:104C70002846FFF707FFDEE7BDE8FF871FB50A46B6
:104C800001788DF8001041680191017A8DF80810C3
:104C9000C0680390044850F82210083850F82220C9
:104CA000684690471FBD0000140000202DE9FF4119
:104CB0000C464FF4927705463946FFF7ECFA00268A
:104CC000C0B139462846FFF7EBFA02208DF8000004
:104CD000D5F88004C5F880040390D5F83C058DF81C
:104CE0000800E0680190A661E661D4E90012684618
:104CF000904723E04FF4887739462846FFF7CBFAF0
:104D0000E0B139462846FFF7CBFAD5F83C15A06943
:104D1000884213D1E06960B1E268D5F8000220F062
:104D20002000C5F80002E069A0612069E661E0604A
:104D300001E0A661E2682046FFF774FE4FF4A27717
:104D400039462846FFF7A7FA60B139462846FFF7EB
:104D5000A7FAA06930B1A661D5F83C152046E268F3
:104D6000FFF760FE4FF4907739462846FFF793FA35
:104D7000002813D039462846FFF792FA60690028C8
:104D80000CD0D5F84C058DF800608DF80800A068AF
:104D900001906661D4E9001268469047BDE8FF8142
:104DA0002DE9F05F8346DDE90A4A994690460D46B3
:104DB0000846012703E000BFB0FBF8F07F1C404528
:104DC000FAD2B94500D94F465FEACA7012D18CB108
:104DD0005FEA8A7002D5B9F1000F01D0202607E002
:104DE000302605E031465846641EFEF726F90CB120
:104DF000A742F7D35FF00106B9F1010F02D9A9F17B
:104E0000010903E0B5FBF6F0404502D306FB08F6C6
:104E1000F2E7DFF83C9000BFB5FBF6F000FB16555B
:104E200019F800105846FEF708F9B6FBF8F6002E00
:104E3000F2D15FEACA7009D0002C07D0A74205D290
:104E400020215846641EFEF7F8F8F5E7BDE8F09F0C
:104E500040550000484153482D534841312F496E79
:104E60007075745F646174615F313600000000002A
:104E70000000000000000000000000000000000032
:104E80000000000000000000000000000000000022
:104E90000000000000000000000000000000000012
:104EA0000000000000000000000000000000000002
:104EB00000000000000000000000000000000000F2
:104EC00000000000000000000000000000000000E2
:104ED00000000000000000000000000000000000D2
:104EE00000000000000000000000000000000000C2
:104EF00000000000000000000000000000000000B2
:104F000000000000000000000000000000000000A1
:104F10000000000000000000000000000000000091
:104F20000000000000000000000000000000000081
:104F30000000000000000000000000000000000071
:104F40000000000000000000000000000000000061
:104F500000000000000000006BC1BEE22E409F96E2
:104F6000E93D7E117393172A000000000000000045
:104F70000000000000000000000000000000000031
:104F80000000000000000000000000000000000021
:104F90000000000000000000000000000000000011
:104FA0000000000000000000000000000000000001
:104FB00000000000000000000000000000000000F1
:104FC00000000000000000000000000000000000E1
:104FD00000000000000000000000000000000000D1
:104FE00000000000000000000000000000000000C1
:104FF00000000000000000000000000000000000B1
:1050000000000000000000000000000000000000A0
:105010000000000000000000000000000000000090
:105020000000000000000000000000000000000080
:105030000000000000000000000000000000000070
:105040000000000000000000000000000000000060
:105050000000000000000000100000002137B53FF4
:10506000EF34D0D31EC388C3966EDE215F50D07B51
:105070000000000000000000000000000000000030
:105080000000000000000000000000000000000020
:1050900000000000000000000000000014000000FC
:1050A000484153482D5348413235362F496E70756B
:1050B000745F646174615F333200000000000000BF
:1050C00000000000000000000000000000000000E0
:1050D00000000000000000000000000000000000D0
:1050E00000000000000000000000000000000000C0
:1050F00000000000000000000000000000000000B0
:10510000000000000000000000000000000000009F
:10511000000000000000000000000000000000008F
:10512000000000000000000000000000000000007F
:10513000000000000000000000000000000000006F
:10514000000000000000000000000000000000005F
:10515000000000000000000000000000000000004F
:10516000000000000000000000000000000000003F
:10517000000000000000000000000000000000002F
:10518000000000000000000000000000000000001F
:10519000000000000000000000000000000000000F
:1051A000020000006BC1BEE22E409F96E93D7E11D9
:1051B0007393172A65A232D6BCD0F939ED1FE128C6
:1051C000C13B0E1B000000000000000000000000BA
:1051D00000000000000000000000000000000000CF
:1051E00000000000000000000000000000000000BF
:1051F00000000000000000000000000000000000AF
:10520000000000000000000000000000000000009E
:10521000000000000000000000000000000000008E
:10522000000000000000000000000000000000007E
:10523000000000000000000000000000000000006E
:10524000000000000000000000000000000000005E
:10525000000000000000000000000000000000004E
:10526000000000000000000000000000000000003E
:10527000000000000000000000000000000000002E
:10528000000000000000000000000000000000001E
:10529000000000000000000000000000000000000E
:1052A000000000002000000075CFB39B62C4749220
:1052B0001E2AAD979C210F8B69180A9D58E9F2961A
:1052C000A4B9904AE6E7AA400000000000000000F0
:1052D00000000000000000000000000000000000CE
:1052E000000000000000000020000000484153487A
:1052F0002D5348413531322F496E7075745F6461AA
:1053000074615F36350000000000000000000000FE
:10531000000000000000000000000000000000008D
:10532000000000000000000000000000000000007D
:10533000000000000000000000000000000000006D
:10534000000000000000000000000000000000005D
:10535000000000000000000000000000000000004D
:10536000000000000000000000000000000000003D
:10537000000000000000000000000000000000002D
:10538000000000000000000000000000000000001D
:10539000000000000000000000000000000000000D
:1053A00000000000000000000000000000000000FD
:1053B00000000000000000000000000000000000ED
:1053C00000000000000000000000000000000000DD
:1053D00000000000000000000000000000000000CD
:1053E00000000000000000000000000004000000B9
:1053F00099FD18A35D508184A6F361C67CD9B10BD9
:105400004CD1D8B246572A4D03B0AE556B36241D49
:10541000D6F0460571654FF0E4B2BAF831DB4C6066
:10542000DF5F54C9590F32A9911F16FAE87E0A2F7F
:10543000520000000000000000000000000000001A
:10544000000000000000000000000000000000005C
:10545000000000000000000000000000000000004C
:10546000000000000000000000000000000000003C
:10547000000000000000000000000000000000002C
:10548000000000000000000000000000000000001C
:10549000000000000000000000000000000000000C
:1054A00000000000000000000000000000000000FC
:1054B00000000000000000000000000000000000EC
:1054C00000000000000000000000000000000000DC
:1054D00000000000000000000000000000000000CC
:1054E00000000000000000000000000000000000BC
:1054F000410000005C56CF2B9F8DC2D8A93EEBDD4A
:10550000683E8560D395EF684AC9CE2FFA3431B230
:1055100028E67D1B62A3CD979CDB4DF3F52CD20EC4
:105520003C251084C80F2D2BA6097ABA0D2E5D10CC
:10553000980CA3DE400000009D430000454600009B
:1055400030313233343536373839414243444546B9
:10555000E13F0000B53F0000B13F0000FFFFFFFF4B
:10556000FFFFFFFFFFFFFFFFFFFFFFFF0000000047
:10557000000000000000D601060100003031323387
:10558000343536373839414243444546004040407F
:105590004040404040404141414141404040404006
:1055A00040404040404040404040404040050202B2
:1055B0000202020202020202020202020220202071
:1055C00020202020202020020202020202029090CD
:1055D00090909090101010101010101010101010CB
:1055E000101010101010101002020202020288881F
:1055F000888888880808080808080808080808082B
:105600000808080808080808020202024000000012
:105610008D5500002E2E5C2E2E5C2E2E5C2E2E5CC8
:105620002E2E5C2E2E5C2E2E5C636F6D706F6E6561
:105630006E74735C6C69627261726965735C7574B7
:10564000696C5C6170705F7574696C5F706C6174BB
:10565000666F726D2E6300002E2E5C2E2E5C2E2E39
:105660005C2E2E5C2E2E5C2E2E5C2E2E5C636F6DBF
:10567000706F6E656E74735C6C696272617269657D
:10568000735C6C6F675C7372635C6E72665F6C6F89
:10569000675F6261636B656E645F756172742E63D0
:1056A000000000007761726E696E67006465627564
:1056B000670000001B5B313B33306D001B5B306DBE
:1056C000000000001B5B313B33316D001B5B313B45
:1056D00033326D001B5B313B33336D001B5B313B61
:1056E00033346D001B5B313B33356D001B5B313B4D
:1056F00033366D001B5B313B33376D00696E666F6F
:10570000000000006572726F72000000505253007A
:1057100055415254000000005541525445000000CC
:10572000756172745F6C6F675F6261636B656E64F5
:10573000000000006170700000010203040506070C
:1057400008090A0B0C0D0E0F101112131415161761
:1057500018191A1B1C1D1E1FC6A13B37878F5B82A1
:105760006F4F8162A1C8D8799503E3A2245A2BE434
:105770003C9874EDFE1BED9EF29000B62A499FD036
:10578000A9F39A6ADD2E77809DBA41A777F3B46AB0
:1057900037B7AAAE49D6DF8D2F7A3C600708D124EF
:1057A000ACD3C5DE3B65844708C9BCF367E6096A2C
:1057B0003BA7CA8485AE67BB2BF894FE72F36E3CA0
:1057C000F1361D5F3AF54FA5D182E6AD7F520E51FD
:1057D0001F6C3E2B8C68059B6BBD41FBABD9831FB7
:1057E00079217E1319CDE05B4661696C20746F20CE
:1057F00061637175697265206D757465780A000062
:105800004661696C20746F2072656C6561736520F8
:105810006D757465780A000000000000010000004A
:105820000300000002000000FFFFFFFF0700000070
:105830000123456789ABCDEFFEDCBA987654321070
:10584000F0E1D2C3D89E05C107D57C3617DD703094
:1058500039590EF7310BC0FF11155868A78FF9643D
:10586000A44FFABE67E6096A85AE67BB72F36E3C69
:105870003AF54FA57F520E518C68059BABD9831F1B
:1058800019CDE05B0000000022AE28D7982F8A4295
:10589000CD65EF23914437712F3B4DECCFFBC0B565
:1058A000BCDB8981A5DBB5E938B548F35BC2563965
:1058B00019D005B6F111F1599B4F19AFA4823F924F
:1058C00018816DDAD55E1CAB420203A398AA07D8F3
:1058D000BE6F7045015B83128CB2E44EBE853124ED
:1058E000E2B4FFD5C37D0C556F897BF2745DBE7247
:1058F000B196163BFEB1DE803512C725A706DC9BAC
:10590000942669CF74F19BC1D24AF19EC1699BE490
:10591000E3254F388647BEEFB5D58C8BC69DC10FAA
:10592000659CAC77CCA10C2475022B596F2CE92D0A
:1059300083E4A66EAA84744AD4FB41BDDCA9B05CA2
:10594000B5531183DA88F976ABDF66EE52513E9893
:105950001032B42D6DC631A83F21FB98C82703B083
:10596000E40EEFBEC77F59BFC28FA83DF30BE0C660
:1059700025A70A934791A7D56F8203E05163CA0612
:10598000706E0E0A67292914FC2FD246850AB727A4
:1059900026C9265C38211B2EED2AC45AFC6D2C4DDD
:1059A000DFB3959D130D3853DE63AF8B54730A65D7
:1059B000A8B2773CBB0A6A76E6AEED472EC9C28133
:1059C0003B358214852C72926403F14CA1E8BFA28E
:1059D000013042BC4B661AA89197F8D0708B4BC22D
:1059E00030BE5406A3516CC71852EFD619E892D1B5
:1059F00010A96555240699D62A20715785350EF4CD
:105A0000B8D1BB3270A06A10C8D0D2B816C1A419E0
:105A100053AB4151086C371E99EB8EDF4C7748270A
:105A2000A8489BE1B5BCB034635AC9C5B30C1C3956
:105A3000CB8A41E34AAAD84E73E363774FCA9C5B93
:105A4000A3B8B2D6F36F2E68FCB2EF5DEE828F740E
:105A5000602F17436F63A57872ABF0A11478C884E8
:105A6000EC39641A0802C78C281E6323FAFFBE9023
:105A7000E9BD82DEEB6C50A41579C6B2F7A3F9BE7E
:105A80002B5372E3F27871C69C6126EACE3E27CA98
:105A900007C2C021C7B886D11EEBE0CDD67DDAEAB9
:105AA00078D16EEE7F4F7DF5BA6F1772AA67F00658
:105AB000A698C8A2C57D630AAE0DF9BE04983F1131
:105AC0001B471C13350B711B847D0423F577DB28E2
:105AD0009324C7407BABCA32BCBEC9150ABE9E3CEC
