:020000040001F9
:10900000B0360020C1930100C9930100CB93010049
:10901000CD930100CF930100D19301000000000027
:10902000000000000000000000000000D3930100D9
:10903000D593010000000000D7930100D9930100EF
:1090400041970100DB930100B19A0100DB9301001D
:10905000DB9301000000000079950100DB93010023
:10906000DB930100DB930100DB930100DB93010044
:10907000DB930100DB930100DB930100DB93010034
:10908000DB93010099970100DB930100DB93010062
:10909000BD970100DB930100C1970100DB93010044
:1090A000DB930100DB9301000000000000000000E2
:1090B000DB930100DB9301000000000000000000D2
:1090C00000000000000000000000000000000000A0
:1090D0000000000000000000000000000000000090
:1090E0000000000000000000000000000000000080
:1090F0000000000000000000000000000000000070
:10910000000000000000000000000000000000005F
:10911000000000000000000000000000000000004F
:10912000000000000000000000000000000000003F
:10913000000000000000000000000000000000002F
:10914000000000000000000000000000000000001F
:10915000000000000000000000000000000000000F
:1091600000000000000000000000000000000000FF
:1091700000000000000000000000000000000000EF
:1091800000000000000000000000000000000000DF
:1091900000000000000000000000000000000000CF
:1091A00000000000000000000000000000000000BF
:1091B00000000000000000000000000000000000AF
:1091C000000000000000000000000000000000009F
:1091D000000000000000000000000000000000008F
:1091E000000000000000000000000000000000007F
:1091F000000000000000000000000000000000006F
:10920000DFF80CD000F07AF900480047EDD90100F2
:10921000B036002030B450E8012F93B2C489234403
:109220008489A34228BF1B1B0489A34202BFBFF34A
:109230002F8F002007E0C3EA020340E80134002C2E
:10924000E9D14FF001000A6030BC704750E8012FAF
:10925000C2EA024240E801210029F7D1704730B448
:1092600050E8022F1FFAA2F3C488A34202BFBFF343
:109270002F8F00200DE0C48923448489A34228BF96
:109280001B1BC2EA034340E80234002CE8D14FF034
:1092900001000A6030BC704750E8022FC2EA224247
:1092A00040E802210029F7D17047034653E8022F16
:1092B000D988B2EB324F4FF0000017BF92B241EAAB
:1092C000014142EA014104E05A68B2EB324F08BF63
:1092D000012043E80212002AE8D1704730B4044666
:1092E00054E8000F0D4644E80053002BF8D11560F8
:1092F00030BC704730B4044654E8000F40EA010522
:1093000044E80053002BF7D1156030BC704730B4EF
:10931000044654E8000F00EA010544E80053002B1E
:10932000F7D1156030BC704730B4044654E8000FE4
:1093300080EA010544E80053002BF7D1156030BCEA
:10934000704730B4044654E8000F00EB010544E8D0
:109350000053002BF7D1156030BC704730B4044681
:1093600054E8000FA0EB010544E80053002BF7D1AF
:10937000156030BC704770B404464FF0000054E8EC
:10938000006F0D68AE4207BF44E80023012044E8A7
:1093900000630E60002B1CBF0020F0E770BC70471C
:1093A00030B4044654E8000F88422CBF451A0546E5
:1093B00044E80053002BF5D1156030BC7047000025
:1093C0000648804706480047FEE7FEE7FEE7FEE75F
:1093D000FEE7FEE7FEE7FEE7FEE7FEE7C5970100D2
:1093E000019201002DE9F05F0546002092469B4660
:1093F00088460646814640241BE0284641464746AB
:10940000224600F06BF853465A46C01A914110D3D9
:1094100011461846224600F016F82D1A67EB01088F
:109420004F4622460120002100F00DF817EB0009FD
:109430004E41201EA4F10104DFDC484631462A4695
:109440004346BDE8F09F202A04DB203A00FA02F1EF
:10945000002070479140C2F1200320FA03F3194322
:1094600090407047004870479434020040EA01037E
:109470009B0703D009E008C9121F08C0042AFAD2CA
:1094800003E011F8013B00F8013B521EF9D270478E
:10949000D2B201E000F8012B491EFBD27047002236
:1094A000F6E710B513460A4604461946FFF7F0FFE3
:1094B000204610BD421C10F8011B0029FBD1801A68
:1094C000704730B504460020034600E05B1C934221
:1094D00003D2E05CCD5C401BF8D030BD202A04DB19
:1094E000203A21FA02F00021704721FA02F3D0401D
:1094F000C2F120029140084319467047064C074DBF
:1095000006E0E06840F0010394E807009847103453
:10951000AC42F6D3FFF778FE743B0200943B0200A6
:1095200070B58C1810F8015B15F0070301D110F825
:10953000013B2A1106D110F8012B03E010F8016B52
:1095400001F8016B5B1EF9D12B0705D40023521ED5
:109550000DD401F8013BFAE710F8013BCB1A921C3D
:1095600003E013F8015B01F8015B521EF9D5A1423B
:10957000D8D3002070BD00002DE9F04700268AB046
:10958000DFF85091B0464FF48075012437460696B7
:10959000284605F0BDFA38B1D9F80403204203D0BB
:1095A000284605F0ABFA26432D1D64007F1CADB2A2
:1095B000082FEDD34FF4BE74204605F0A9FA48B148
:1095C000204605F09BFA46F0004606AA012100203D
:1095D00005F080FA404D16F0FF0F15D0012700244A
:1095E00037420DD009EB8401D1F81005D1F81015E0
:1095F000C0F3042055F82420C1F3014102B1904783
:109600007F00641C082CEBD3002E5FDA4FF0FF3094
:10961000CDF8108054E0281910F8507F90F9000020
:1096200027F0C008401C3BD007A9404604F00FFDBE
:1096300010B34FEA9719404602F0BAF955F8207076
:109640001FB1B9F1030F03D006E0B9F1030F27D121
:1096500004A9404604F003FD4FF0A04101EB88004F
:10966000D0F8000706A9C0F3014A404604F0EFFC19
:1096700018B1BAF1020F03D012E0BAF1030F0FD103
:10968000B9F1030F08D1BAF1020F1DD002214046F3
:1096900005F004FA761CF6B217B149464046B847C1
:1096A000641C042CB7D3002E10D06A460121002080
:1096B00005F010FA06990098884207D006900498A1
:1096C000002634460790A6E70321E0E70AB0BDE88C
:1096D000F0870000006000404426002000F01F02D8
:1096E000012191404009800000F1E020C0F8801283
:1096F000704700F01F02012191404009800000F1F5
:10970000E020C0F80011704700F01F0201219140D5
:109710004009800000F1E020C0F8001270474907BE
:10972000090E002806DA00F00F0000F1E02080F8B2
:10973000141D704700F1E02080F80014704700000D
:1097400070B54FF48076304604F092FD114CB505AB
:1097500060B1304604F093FD0120C5F8080360793C
:1097600020B9012060712168002088474FF482767B
:10977000304604F07DFD00280AD0304604F07FFD1D
:109780000220C5F808032168BDE8704001200847A1
:1097900070BD0000481C002007480021C0F840119F
:1097A000C0F84411C0F84811C0F84C11C0F80011BD
:1097B000C0F8041108F0A0BF0010014008F0EABE94
:1097C00005F02EBFF0B5A848A74B012600781B1D59
:1097D0001A1D4FF0805106280BD11C78240708D1A0
:1097E0001478C4F30314032C06D0042C04D0052CE5
:1097F00002D0062807D011E0B1F824439B4DC4F3F2
:1098000004242C6002E01C78240707D11478C4F3E8
:109810000314032C02D1974D954C6C67D1F830514D
:10982000D1F84442944FC4F342343C6006280CD132
:109830001C78240709D11478C4F30314032C04D131
:109840008E4C276827F0807727604FF080470024F0
:10985000C7F80C41C7F81041874F3F1F3C600628EE
:1098600007D11F783F0704D11778C7F30317032FD9
:1098700002D0062808D01FE0DFF8FCC103270CF156
:10988000640CCCF8007007E01F783F0714D11778FC
:10989000C7F30317032F0FD1DFF8E4C10527CCF876
:1098A0000070774F78373E60754F08373C600CF199
:1098B000040C3F27CCF80070724F3F68DFF8C8C136
:1098C000CCF800706F4F3F1D3F680CF1040CCCF8D2
:1098D00000706C4F08373F680CF1040CCCF8007036
:1098E000684F0C373F680CF1040CCCF80070654FE2
:1098F00010373F680CF1040CCCF80070614F14373E
:109900003F680CF1040CCCF800705E4F18373F68CC
:10991000DFF874C10CF1200CCCF80070594F1C37E3
:109920003F680CF1040CCCF80070564F20373F68AC
:109930000CF1040CCCF80070524F24373F680CF146
:10994000040CCCF800704F4F28373F680CF1040C22
:10995000CCF800704B4F2C373F680CF1040CCCF85E
:109960000070484F30373F68DFF81CC10CF1400CE5
:10997000CCF80070434F34373F680CF1040CCCF83E
:109980000070404F38373F680CF1040CCCF8007081
:109990003C4F3C373F680CF1040CCCF80070394F59
:1099A00040373F680CF1040CCCF80070DFF8DCC0E5
:1099B000FB27CCF80070062813D11F783F0710D181
:1099C0001778C7F30317032F03D0042F01D0052FF7
:1099D00007D1D1F85872DFF8B8C007F04F07CCF8BC
:1099E00000702C480268D20702D06FF001020260BA
:1099F000062D08D1D1F83401062804D12648016883
:109A000041F4806101604FF01021D1F8000200287C
:109A100003DBD1F80402002822DA204A166020482D
:109A20000368002BFCD01523C1F800320568002D17
:109A3000FCD0C1F8043201680029FCD01460016830
:109A40000029FCD0BFF34F8F0C48F0380168154A4D
:109A500001F4E06111430160BFF34F8F00BFFDE7E8
:109A6000124911480860F0BDE00F00F04035014098
:109A70000DF0ADBA00C007403C050040FCED00E031
:109A8000105600400404001020C5004018F50040A6
:109A9000E40E0040000400403C17004004E5014093
:109AA00000E401400400FA050090D0035C1D002092
:109AB0000149024808F0A0BEA02600200020004076
:109AC00002E008C8121F08C1002AFAD17047704787
:109AD000002001E001C1121F002AFBD170470000E5
:109AE0000121202803DA81400548014003E0402895
:109AF00002DA2038814009B1012070470020704708
:109B0000FC06FFBD082806D228B1012803D004288E
:109B100001D0012070470020704710B560B159B1E5
:109B200002780B785208B2EB530F05D10622401C85
:109B3000491CFFF7C6FC08B1002010BD012010BD74
:109B4000800701D00020704701207047C3688B4216
:109B500006D811440069491E814201D8012070478E
:109B60000020704710B501220221002001F030FDD5
:109B700008B1072810D107220221012001F028FD99
:109B800008B1072808D100210A22084601F020FD6B
:109B900008B1072800D1002010BD000010B550B159
:109BA0000A480321008801EB004009A105F096F95D
:109BB00007F06CF903E00321094800F0FFFC0028DE
:109BC00003D0BDE8104000F0CBB810BDA41D0020AC
:109BD000457261736520626F6E647321000000003E
:109BE000541E002070B58CB015460E4600236C46FE
:109BF000C3F10F01415CE1545B1C102BF8D30D2124
:109C000004F11000FFF74BFC0020C0F10F02315CA3
:109C10002244401C11740328F7D3684646DF002015
:109C2000C0F10F01214491F820102954401C032851
:109C3000F6D30CB070BD022001F0CEBB014909790A
:109C400000F002BFC01B002070B50024064D06E0E6
:109C50006868012110F8340005F0BCFD641C287808
:109C60008442F5D3002070BD501C0020F8B5154685
:109C70000C460646052A01D20720F8BD05F0A6FECF
:109C800018B905F06BFE0028F7D1124900224E608A
:109C90000C708D60C1E90422C1E906220E4D0DE071
:109CA00006EBC4002968009181788DF801100078D6
:109CB0000A4A694605F0E0FD0028DED1641EE4B2E0
:109CC000EED2BDE8F84004480021054A001D00F02E
:109CD00053B80000501C002018310200F9CC0100DC
:109CE0005DBE010072B605F0AFF900BF04F0E6FFFB
:109CF0000028FBD1104C0121208801EB00400FA16E
:109D000005F0ECF810480068C00700D000BE2088BD
:109D1000022101EB00400DA105F0E0F8BFF34F8FE9
:109D20000948E43801680D4A01F4E061114301601B
:109D3000BFF34F8F00BFFDE7A41D00204661746193
:109D40006C206572726F7200F0ED00E053797374ED
:109D5000656D207265736574000000000400FA05EB
:109D60000EB500210091CDE901106A4644F20100D0
:109D7000FFF7B8FF0EBD0000074B9B7823B12AB157
:109D800020B10068037C1BB1082070470720704792
:109D90004174426100207047E426002070B507F04E
:109DA0005BFD104800240B21047044700E4D81703F
:109DB00014206C602C706C70FFF790FC072114204D
:109DC000FFF7ADFC1420FFF794FC0848046007215E
:109DD0001120FFF7A4FC0548001F0068A8600020C0
:109DE00070BD0000E4260020701C00200815014012
:109DF0002DE9FC47DFF8789099F8023073B368B327
:109E0000052902D20720BDE8FC87436933B3437CB0
:109E1000012B25D0002704460025884616468DF8DC
:109E20000050684600F038F801A808F035FEC8B1C7
:109E3000012101700F4944600968C0E90218C0E9B6
:109E400004769DF8040089F801009DF8000000F0F8
:109E500047F81420FFF758FC2846D4E70820D2E73B
:109E60000F46D8E704259DF8000000F039F8F3E725
:109E7000E4260020041501400649897839B130B143
:109E8000416921B100210174022108F011BC0820B0
:109E900070470000E426002030B5EFF3108172B661
:109EA0000D4A9468012324B10370002900D162B6E1
:109EB00030BD93604FF0E023D3F88051074C25402C
:109EC0001560C3F88041D3F8844154605A17C3F831
:109ED000842100220270E8E7F0270020FC06FFBD85
:109EE0000B498A68002A11D000280FD1EFF31080A7
:109EF00072B60B684FF0E022C2F800314B68C2F82E
:109F0000043100228A60002800D162B67047000048
:109F1000F02700202DE9F041064608680C46411C58
:109F20004FF0A0474FF0010506D005FA00F1C7F841
:109F30000815206804F0A8FD6068411C02D00021CB
:109F400004F099FD3168A069C1F82405607D217D88
:109F500032680843C2F86C05D4E900123068C0F8D2
:109F60000C15C0F81425207D012815D1A068411CCE
:109F700002D0002104F07FFDE068411C05D085403F
:109F8000C7F80855E06804F07FFDD4E90212306894
:109F9000C0F80825C0F81015BDE8F08103F082BCB8
:109FA0002DE9F047074600888EB0804603F02AF975
:109FB000824604462D4800252A460178404600F096
:109FC0005BFD7879400734D501254FF6FF7603AB6A
:109FD0002A460721504606F0FDF8010004D040460D
:109FE00007F046FE00252BE0B1463146049803F009
:109FF0005DF8064648450FD004460146404603F04A
:10A00000EBF84046FFF71AFE30B9404607F002FE73
:10A010004046FFF713FE48B122460721504606F09E
:10A020004FF9010003D0404607F022FE00254E45BF
:10A0300006D0404606F0B2FA10B1504603F0CEF812
:10A0400002208DF81800ADF81A807879400701D504
:10A05000012000E002208DF820008DF8215006A894
:10A0600002F070F80EB0BDE8F0870000C01B0020C1
:10A070002DE9F0430546407C93B00E460024A0B184
:10A0800007949DF81C0020F00F00401C20F0F00009
:10A0900010308DF81C00707B8DF81D009DF81E009F
:10A0A00020F00600801C8DF81E001C216846FFF77A
:10A0B000F6F99DF8000040F002008DF80000697C80
:10A0C00011B140F0100001E020F010008DF8000008
:10A0D000019403940494687C00B107A8CDE90504B9
:10A0E00001278DF8427042F61920ADF840000D941A
:10A0F000B07B8DF83400F07B8DF835009DF836008C
:10A10000142120F00600801C20F019008DF8360084
:10A11000307B8DF8440008A8FFF7C1F90DF1400825
:10A120000DF13409ADF8287011A8CDE90889ADF812
:10A130002A40ADF82C700C90A888AB1D08AA69467F
:10A14000AADF002838D1B06898B38DF8427042F683
:10A150000810ADF840000D94307C8DF834009DF867
:10A16000350020F0FF008DF835009DF8360020F016
:10A170000600801C20F019008DF836000EA8B1688A
:10A1800001F0E4F80646142108A8FFF788F9ADF8B5
:10A1900028600EA8CDE90889ADF82A40ADF82C60FA
:10A1A0000C90E88805F10E0208A9ABDF002803D166
:10A1B00001E0FFE7EC81002013B0BDE8F083000070
:10A1C00010B50D490D4807F08EFDC1B24FF6FE7275
:10A1D0000B4800F0FBFA00280DD008280BD01328FC
:10A1E00009D0112807D043F20141884203D0BDE8CD
:10A1F0001040FFF7B5BD10BD0C1F0020541B002000
:10A20000F41D00200A4601461046AEDF70472DE9D6
:10A21000FC47002517880646158090F82D00144647
:10A22000894630B13A462146484600F04FFC051EAB
:10A2300009D1B0784FF00C0A18B32088C846001D29
:10A24000B84202D95046BDE8FC87684679DF00284D
:10A25000F9D12088032108F8001020881921401C1A
:10A2600080B2208008F800102088401C80B2208036
:10A2700000EB0801BDF8000008F038FB2188084415
:10A280002080F0780222C8B1218896F9033001F1CC
:10A29000030C4846BC45D5D8425421884FF0010CE8
:10A2A000491C89B2218000F801C02188491C89B26B
:10A2B000218009F801302088401C20807068B8B1E6
:10A2C000218890F9003001F1030C4846BC45B9D80B
:10A2D000425421880A22491C89B221804254218893
:10A2E000491C89B2218009F801302088401C208057
:10A2F000308950B1CDE900474B460622022106F1D4
:10A30000080008F0E1FB051E9DD1308A50B1CDE96F
:10A3100000474B460722032106F1100008F0D4FB4A
:10A32000051E90D1308B50B1CDE900474B46152228
:10A33000142106F1180008F0C7FB051E83D1306A0E
:10A3400030B13B462246494601F03DFC051EDBD1BB
:10A35000706A30B13B462246494603F033FC051E85
:10A36000D2D196F82C0038B13B46224649463046B9
:10A3700007F04EFD051EC7D1307838B13B46224666
:10A380004946304603F0A4FC051EBDD128465AE7D5
:10A3900018B504460020ADF8000013466A46204672
:10A3A00000F006F8002802D0BDF80000204418BDD7
:10A3B00070B588B182B10024158803E0065D641C85
:10A3C0003444A4B2A54203D8061976789E4201D03F
:10A3D0008C42F3D38C4201D3002070BDA11C1180AC
:10A3E000005D401E80B270BD80F8301070472DE9CE
:10A3F000F0410D00044606D02CB195F87A000026F5
:10A40000012803D006E00E20BDE8F08195F8980001
:10A41000012829D0D5F8A000042825D0D5F89C0023
:10A42000042821D04FF00108A6702C2205F17801F4
:10A43000201DFFF71BF884F83060D5F8A400606396
:10A44000D5F8A800A0634FF6FF70A4F8A80004F1A7
:10A450009400C4F8A400C4F8AA60A4F8AE6084F81C
:10A46000B060207810B104E00720CDE7FF2084F829
:10A47000540004F155011F27C4F89410A4F89870F3
:10A4800004F198022846FFF7C2FE0028BCD115F15E
:10A490003C0F0ED004F17401C4F89C10A4F8A07015
:10A4A00004F1A00205F13C00FFF7B1FE0028ABD19A
:10A4B00003E0C4F89C60A4F8A06084F85180208B6D
:10A4C000A4F8480084F83C80266484F850606069F1
:10A4D0006064454604F13C02002104F1540072DF3F
:10A4E000002891D125708FE710B50288102A1BD063
:10A4F000112A20D0262A1DD1007A0C46012801D02D
:10A50000022817D1A0780521401CB0FBF1F201FB15
:10A510001201204600F052F800280BD0A16B002950
:10A5200008D0BDE810400847C27B012A02D18088CC
:10A53000A1F8A80010BD0C46002184F8B210808854
:10A54000B4F8A8108842F5D120790028F2D1012171
:10A55000DFE710B50C46022801D0032810D160783F
:10A5600000280DD000206070A178204600F026F869
:10A57000002805D0A16B002902D0BDE81040084793
:10A5800010BD10B5044690F8540074DF012084F823
:10A59000B200002084F8B40084F850000621204660
:10A5A00001F0D6FF002808D1A178204600F006F877
:10A5B00010B1A16B01B18847002010BD2DE9F05FFB
:10A5C000044600780F4638B1A770002004F094F8D4
:10A5D000012620B16670F4E00820BDE8F09F002558
:10A5E000C4F8AA50A4F8AE5084F8B050A07910B1C5
:10A5F000A078012806D0E07968B1A078012801D0C0
:10A60000022808D1616B21B184F8B1600820884725
:10A6100001E084F8B15004F1AB0100200A5C0AB1FA
:10A62000304603E0401C0628F8D300204FF0020813
:10A630004FF0030A4FF0040B012F06D0022F0CD06D
:10A64000032F0FD0042F15D110E0A17929B194F870
:10A65000241011B908B130460DE0E17911B108B10B
:10A66000404608E0207A08B1504604E0607A08B11C
:10A67000584600E02846A070616B41B1032801D024
:10A68000042804D1607910B194F8B200A0B184F824
:10A69000B35004F13C0018210746FEF700FF04F117
:10A6A0002C0084F83C60814606F0A2F858B194F87A
:10A6B0002C0084F8510008E084F8B45084F8B360AA
:10A6C00007208847E5E784F8516094F8240050B1EA
:10A6D000484606F08DF820B194F8280084F852001E
:10A6E00001E084F8526084F85050A27804F1AA0185
:10A6F00004F19409052A4DD2DFE802F065030F1B2F
:10A70000320084F83160C4F8A450C4E9101584F80C
:10A710003C808020A4F848003EE084F8318087F82F
:10A7200000A0228ABA81C4F8A4507960E168B960B7
:10A7300032E06069B860208BB8813D4684F83C60A7
:10A74000204608F085F940B185F8148004212046A0
:10A7500001F0FEFEF0B9052115E084F831A017E004
:10A76000E069B860208CB8813D4684F83C602046A2
:10A7700008F06EF950B185F814800421204601F0EC
:10A78000E7FE38B9062184F8311001E084F831B0D1
:10A79000C4F8A490A07878B13A4604F15400D4F8F3
:10A7A000A41072DF00287FF418AF94F8301094F8EA
:10A7B000540073DF0028F6D1616B11B194F83100B9
:10A7C0008847002009E784F83150F5E7F7B594B0E1
:10A7D000174605003CD0287C9DF854100024884280
:10A7E00052D000264FF0010E0D9615A8ADF834E0BA
:10A7F0000E90ADF83660E9880DAA4FF6FF70ACDF19
:10A80000040026D19DF854002874687CA0B30F96EC
:10A81000109611961296E888ADF83C00BDF8360007
:10A82000ADF840000DA811900E981290A7F57F404A
:10A830008DF83EE0FE3805D039460FA8FFF7E2FC60
:10A84000044621E0684600F09DF800256F460FE0C1
:10A850000E2017B0F0BD00BF07EB4506B08800F032
:10A86000D5F8022803D144B10FA9B088AEDF6D1C22
:10A870000098A842F0D807E005E0B1880FA8FFF7DC
:10A88000C1FC0446F3E708242046E2E738B50D464C
:10A89000040018D0BDB12868206028796074FF20BA
:10A8A000207401208DF8020041F60F00ADF8000081
:10A8B000221D69460120A8DF002803D12946204631
:10A8C000FFF7D6FB38BD0E2038BD38B5002924D09F
:10A8D000002822D00288502A1FD10546487C0C4609
:10A8E00000281AD0E9886289A81D914215D14189B2
:10A8F000022912D1216800290FD00C3000F022FD6E
:10A9000008B1002000E001208DF80000A888ADF813
:10A910000200226869462046904738BD70B50400A1
:10A9200012D001461C221448FEF7A0FD1248134D18
:10A930000560206850B17ADF002806D120680168E0
:10A9400029604068686005E00E2070BD0B487BDF21
:10A950000028FAD108484FF6FF711438084A20F849
:10A96000041B0549343901600021FFF705FA00286E
:10A97000EBD0032070BD0000BC1F0020801B002016
:10A98000E92902000149496801F0FEB8D81F0020FA
:10A9900010B5044600F090F8002805D02146BDE827
:10A9A0001040024803F0B7BA10BD0000E81F0020B5
:10A9B00070B515460E46044608F056F8002809D032
:10A9C000054800EB840080692A463146BDE87040A6
:10A9D00001F0FCBD70BD0000D81F002010B504467A
:10A9E00000F06AF8002805D02146BDE81040024872
:10A9F00003F091BA10BD0000EC1F002010B5002438
:10AA000000F05AF800B10124204610BD70B505468B
:10AA1000002400F051F838B12946044803F07BFACD
:10AA200008B1022400E00124204670BDE01F002090
:10AA300010B51821034803F049FA182800D0C0B215
:10AA400010BD0000D81F002070B505460C46084612
:10AA500008F00AF860B1284600F02EF840B1054829
:10AA6000294600EB8400BDE87040183003F053BA6B
:10AA7000002070BDD81F002070B5054614460E4654
:10AA8000084607F0F1FF002812D0284600F014F81D
:10AA900000280DD00748294600EB860018301CB16D
:10AAA000BDE8704003F042BABDE8704003F0F3B96E
:10AAB00070BD0000D81F0020142801D3002070476B
:10AAC0000146014803F027BADC1F00207CB505468B
:10AAD00008880C460930904201D90C207CBD68469C
:10AAE0006DDF0028FAD121880820685420881B21B6
:10AAF000401C80B2208029542088401C80B22080D5
:10AB00002844DDF801100160BDF80510818020881F
:10AB1000801D80B220809DF80010490800D00121DE
:10AB200029542088401C208000207CBD7FB504462D
:10AB300001208DF8060041F60A00ADF80400454AF0
:10AB400001A90120A8DF00287ED1228804F13C055C
:10AB500052B140482B46801C009042F62920616883
:10AB600000F02EFF002873D1228952B139482B46BC
:10AB70000A30009042F62420E16800F021FF00280E
:10AB800066D1228A52B133482B461230009042F6E9
:10AB90002520616900F014FF002859D1228B52B1A1
:10ABA0002C482B461A30009042F62720E16900F02D
:10ABB00007FF00284CD1228C52B126482B46223068
:10ABC000009042F62620616A00F0FAFE00283FD18C
:10ABD000228D52B11F482B462A30009042F6282081
:10ABE000E16A00F0EDFE002832D1216B71B102A8BC
:10ABF00007F0AEFC17482B4632300090082202A91D
:10AC000042F6232000F0DCFE002821D1606B58B111
:10AC100010492B463A3100910279016842F62A2008
:10AC200000F0CEFE002813D1A16B81B102A806F07E
:10AC300086F908482B4642300090072202A942F6C6
:10AC4000502000F0BDFE00E002E0002800D100200E
:10AC500004B070BDDE1B00202DE9FC4104460188D4
:10AC60000020374D0326374F152950D01ADC2846CF
:10AC700032460088344E02EB00404FF6FF75102933
:10AC80001AD011290CD131A104F028F9B5807088AF
:10AC9000A84205D006F082F808B1FFF761F8758088
:10ACA000BDE8FC81212925D03B292CD05629F7D19C
:10ACB000A088132176DF17E028A104F00FF9758032
:10ACC000072000F0A7FC08B1FFF74AF8A188B1807F
:10ACD000254803F055FA08B1FFF742F8002243F285
:10ACE00033317868FFF784F80028D9D0BDE8FC41FB
:10ACF000FFF736B80090A08869468FDF0028CFD0D4
:10AD0000FFF72EF8CCE7A088132176DFECE7A168E7
:10AD10000091A189ADF804108DF806007868FFF75E
:10AD2000ABF808B1FFF71CF8684604F0A1F9024639
:10AD300028880EA106EB004004F0D4F8B0E700002C
:10AD4000A41D0020C42F0200481B00204469736327
:10AD50006F6E6E656374656400000000436F6E6E15
:10AD60006563746564000000481E002050617373C1
:10AD70006B65793A2025730010B51A4C018860681C
:10AD800010290ED011292BD1401E606028D1FEF76A
:10AD9000E9FE002824D02168002921D0BDE8104018
:10ADA0000847D0B900210122084600F011FC08B183
:10ADB00007280FD107220221012000F009FC08B169
:10ADC000072807D104220221002000F001FC20B155
:10ADD000072802D0216801B188476068401C606084
:10ADE00010BD0000781B00202DE9F04701883B4E84
:10ADF00040F2F3194FF6FF7510291BD011293ED0F0
:10AE0000122954D0502946D1C188F289841D91421B
:10AE100041D1618902293ED18688304602F09EFAEE
:10AE2000050038D004F10C0000F08CFAA8B32946D4
:10AE300030464EE0C17B8788044601292BD1A846C5
:10AE4000284602F08BFA050017D02F8000202872C8
:10AE5000234843464A460168C5F80A104068C5F8C9
:10AE60000E0004F1100105F10A0002F043FB6872C4
:10AE7000F08900280FD129462AE0042013E08088B9
:10AE800002F06CFA040006D06068FEF7F5FF08B126
:10AE900006F0D2FE2580BDE8F087FFE76868FEF780
:10AEA000EBFF0028F7D0BDE8F04706F0C5BE878865
:10AEB0000646384602F052FA0400ECD02B464A46C9
:10AEC00006F1080104F10A0002F014FB6072214649
:10AED0003846BDE8F04700F0BDBE0000BC1F0020B2
:10AEE000801B00202DE9F04F0746858802883D48E9
:10AEF000012197B08346102A09D0112A49D01A2A75
:10AF00006CD1387AB1EB101F45D2012244E0354CA8
:10AF1000083CA068C0430B9061680BA803F01FF8C1
:10AF20000B990CA800F030FE2C220CA96846FEF705
:10AF30009DFA0026E946A04610E000BF09EB460056
:10AF40005FF00004B0F804A008EB84005146001D37
:10AF500002F0A1FF641C1D2CF6D3761C0098B042B1
:10AF6000ECD8142D05D317B00420BDE8F04FFEF740
:10AF7000F7BE2946584602F0D9FF294608F10400D9
:10AF800002F0D4FFF87B012828D016482946001D7E
:10AF900015E029461AE000220221B1EB101F01D270
:10AFA000012600E000260F49083901F11000041DB8
:10AFB000294682B102F0BAFF36B12946204617B0C1
:10AFC000BDE8F04F02F0B2BF2946204617B0BDE8F9
:10AFD000F04F02F060BF02F05EFFF5E717B0BDE88A
:10AFE000F08F0000E01F002010B5044607480078ED
:10AFF00000280AD0204601F0DFFF204607F000F8C5
:10B000002046BDE8104001F023BC10BDB01B00205D
:10B01000FEB50025044602200095ADF8000002A808
:10B02000ADF8025001900E46E189608D6A46ADDFB1
:10B03000002813D102A800F085F90746E18C608D45
:10B040006A46ADDF002809D102A800F077F938423E
:10B0500002D00120307000E035700020FEBD0000FD
:10B0600030B50020094A0146FF2302F55C7400BF99
:10B0700000EB400505EBC00502F825102354401CE9
:10B080001428F5DB02480180002030BDAC220020EE
:10B090003C1C002001480088704700003C1C002038
:10B0A00070B5134D0146288814280BD01148002490
:10B0B00004EB440202EBC40210F8222022B1641C0B
:10B0C000142CF5DB042070BD04EB440202EBC40237
:10B0D000012300F8223000EB82002A22801CFEF7B8
:10B0E000C5F9054928880C54401C2880002070BDF3
:10B0F0003C1C0020AC2200201C2600200B460B49E3
:10B1000010B50988884201D3072010BD08492A22BA
:10B11000085C00EB400101EBC000064901EB800137
:10B120001846891CFEF7A2F9002010BD3C1C002027
:10B130001C260020AC22002008460349CA88428011
:10B14000521CCA80FFF7ACBF281C0020F0B58DB0A0
:10B150000D460446FFF784FF00283BD1FFF79AFF16
:10B160001D4E002758B1401EC0B202A9FFF7C6FF0E
:10B1700000282FD1BDF80A00401CF08000E0F780C5
:10B1800028682060686860602889A085A87A84F8AB
:10B190002E004FF6FF70608500203070377101205F
:10B1A0008DF8060041F60800ADF8040004F108022D
:10B1B00001A90120A8DF00280CD1204601F020FDC4
:10B1C000002807D1204601F096FC002802D1204635
:10B1D00006F0A4F90DB0F0BD281C002038B5058894
:10B1E00000243B4A512D40D016DC102D24D0112DC7
:10B1F00025D0502D26D10A4630F8061FD389994212
:10B200002BD14189154602291CD10C3000F09AF847
:10B21000C8B18DF8004019E02D4B532D1B783BD061
:10B22000572D0FD108461471022B1BD0012B09D1C9
:10B23000BDE8384006F03AB8808848853DE04FF6D2
:10B24000FF70488538BD01208DF800002A68002A6B
:10B25000F8D069462846904738BD538C9942FBD1B7
:10B26000014614E01A490C312DE00A46011D10F880
:10B27000063F022BF0D1897A0429EDD00629EBD0C4
:10B280000529E9D04188538C9942E5D1811CBDE85C
:10B290003840104604F05EBD0C46C088498C884298
:10B2A000DAD1032B09D0022B0AD061680029D3D050
:10B2B00001B00820BDE8304008470020107038BDBC
:10B2C000034920460C31BDE8384006F04FB8000075
:10B2D000281C0020FF2313705370002393705360C9
:10B2E00000280BD00B781370012801D94B785370CC
:10B2F000022803D9801E9070891C51607047024655
:10B3000010B5002000290FD01078087050784870D0
:10B310000220002305E05468E45C0C54401CC0B2D9
:10B320005B1C94789C42F6DC10BD70B504460D465B
:10B330000846FEF7BFF82080656070BD0078C0F356
:10B3400040007047007800F0010070470A780270F2
:10B3500049784170022070470149085C704700003D
:10B36000D02F02000649095C4FF0A040D0F810052C
:10B37000C84010F0010000D0012080F001007047AB
:10B38000D02F02002DE9FC410646C0074FF0000512
:10B390000ED0104F00240122385D00950023114685
:10B3A000019503F029FB641C042CF4D300F046F84B
:10B3B000B0070DD5074E0024361D0022305D032353
:10B3C00000951146019503F017FB641C042CF4D37F
:10B3D000BDE8FC81CC2F020007490B5C4FF0A04177
:10B3E000D1F804250120984020EA0203C1F808356D
:10B3F0001040C1F80C057047CC2F02000249085CD0
:10B40000012103F05CBB0000CC2F02000249085C64
:10B41000002103F054BB0000CC2F02000649095C58
:10B420004FF0A040D0F80405C84010F0010000D053
:10B43000012080F001007047CC2F020010B50024DD
:10B440002046FFF7DBFF641C042CF9D310BD10B5B8
:10B4500000242046FFF7DAFF641C042CF9D310BD4A
:10B4600010B50246064B4FF0FF3000215C5C944261
:10B4700001D1084610BD491C0429F7D310BD0000B6
:10B48000D02F020070B50C4E0C004FF0000530605C
:10B490000BD0012000F06AF808B1022004E000207F
:10B4A00000F064F800B10B202070706810B9FEF74E
:10B4B00059FB0546284670BD781B002010B50020BA
:10B4C00000F0DAF908B1062806D1012000F0D4F91D
:10B4D00008B1062800D1002010BD00002DE9F0477A
:10B4E0000D468146FFF7BCFF0446042836D2DFF83C
:10B4F00074801B481C4EA8F10C0725B3012D0ED0FB
:10B50000022D2BD104EB440030444578002D25D08A
:10B51000B968002922D02846BDE8F047084704EB67
:10B520004401755C0E44717849B10E4A4FF40041F4
:10B53000093A8068FEF75CFC08B987F80390B17897
:10B5400008F80410E2E78068FEF796FC04EB44017B
:10B55000314418F804008D78A842D7D0BDE8F087B0
:10B56000D42F0200741B00205C1F0020042801D28D
:10B57000FFF7F8BE002070470146134810B58088D9
:10B5800004290DD0072914D00A2905D00F2919D173
:10B59000BDE8104005F044BFBDE8104006F01CBDFA
:10B5A000132176DF0CE000280CD0BDE81040FEF738
:10B5B000D7BBA0F57F41FF3904D10448FEF7E1FF76
:10B5C0000828F0D110BD0000481B0020541E0020A8
:10B5D00070B50023042810D20D4D00EB4004012A61
:10B5E00002D101290CD00022094E00EB400030446A
:10B5F00061B1012906D0022906D00723184670BD83
:10B600000E30C2B22A55F9E74270F7E78270F5E7CB
:10B610005C1F0020044A014600201279D20702D0A4
:10B62000084600F04DB87047681B002070B506460C
:10B630001E480024C0E90161B00720D50025012281
:10B6400011462846FFF7C4FF6D1C0446042D02D2A4
:10B65000002CF4D013E094B940F26662042114483F
:10B66000FEF704FB04000AD1FEF7EEFA040006D14F
:10B670000F48104A0021001FFEF77EFB0446F0072A
:10B6800012D00120FFF77EFE74B909480A4A002152
:10B690000C38FEF771FB040006D10548074A01216A
:10B6A0000838FEF769FB0446204670BD681B002081
:10B6B000E02F020045B9010019D60100379C0100B6
:10B6C0002DE9F05F6A4C054600266078B34618B154
:10B6D00084F801B001F088FF664F4FF47A694FF4A7
:10B6E000C87A4FF00108182D62D2DFE805F0AC0CE3
:10B6F0000C31404D62676B746B74BE7D7D7D7D7DCA
:10B70000ACAFB2B5BEBE0020FFF788FE00284FF0F8
:10B71000000008D0FFF772FE022D02D14FF4E16065
:10B7200008E0484606E0FFF771FE022D01D1C8206F
:10B7300000E05046410CC0034FF4FA72801841F10A
:10B740000001257052000023FDF74CFE01462AE05F
:10B750000020FFF763FE00284FF0000004D0FFF741
:10B760004DFE4FF44870E5E7FFF750FEDFE700209D
:10B77000FFF754FE00284FF0000002D0FFF73EFE16
:10B78000CFE7FFF743FED4E70020FFF747FE00288E
:10B790004FF0000002D0FFF731FE01E0FFF736FE68
:10B7A000257041F69A1100223868FEF721FB064603
:10B7B00046E00020FFF710FE257008E0002051E071
:10B7C00025703DE084F801800120FFF705FE00228E
:10B7D00040F6CD41E8E784F801800120FFF7FCFD49
:10B7E00000224FF48041DFE77868FEF745FB06460C
:10B7F000D5F1110000D02EB10220FFF7FFFD84F833
:10B8000002B01DE0012816D980B2C8214843C117F3
:10B81000C90341EA5041C0034FF4FA72801841F164
:10B82000000152000023FDF7DDFD0146002278688B
:10B83000FEF7DEFA06460220FFF7E8FD84F80280F4
:10B840003046BDE8F09F01F0CFFEB9E701F0CCFE35
:10B85000B4E701F0C9FE04E001F0C6FE0020FFF7E6
:10B86000D5FD0120FFF7D2FDAAE7FFF7F0FDA7E71E
:10B87000681B0020D42F0200012107F08CB90000C2
:10B880002DE9F8430546861C00208DF800009046FF
:10B890000F464FF001096846FEF7FEFA1B4C206880
:10B8A0003860D4E90001401AA16804F21C47081A64
:10B8B0000EE00121384602F04CFB02F049F8014647
:10B8C000384602F046FBD4E90001401AA168081A84
:10B8D000401C8642EDD8B8F1000F03D0052065F377
:10B8E000891002E0062065F39F50A268216811408C
:10B8F00004EB8101C8602068304420609DF800009E
:10B90000FEF7EEFA4846BDE8F8830000882A0020DA
:10B9100030B482680468531C8360A154D0E90112DA
:10B920008A4202D330BC02F014BD30BC7047000024
:10B93000034803C8814201D10120704700207047AD
:10B94000882A002000780221FFF7C8BD05494FF082
:10B95000FF32082841F8202002D3084480F848200C
:10B960007047000044260020F0B54FF0FF3512B1BB
:10B970000023082601E008230C260C4C05E000BF3C
:10B9800054F823707F1C04D05B1CB342F8D32846C4
:10B99000F0BD26185DB286F8305044F82310002A16
:10B9A000F5D1E11881F84800F1E7000044260020B5
:10B9B0000249084490F930007047000044260020F6
:10B9C0002DE9F0438FB01E46DDF8589015460F0064
:10B9D000804602D10020FEF7C3F915B90020FEF71A
:10B9E000BFF91C216846FDF75AFD00249DF80000B0
:10B9F000039440F002008DF80000012001948DF8BE
:10BA00003600049405940694ADF834800C94307894
:10BA10008DF8300070788DF831009DF832001421D7
:10BA200020F00600801C20F019008DF8320007A8D5
:10BA3000FDF735FD0DA807900CA808900748ADF854
:10BA40002450ADF82640ADF828500B974B4607AA76
:10BA500069460088AADF0FB0BDE8F083DE1B002036
:10BA600070B504464FF6FF750A462846AC4208D129
:10BA70004FF480742146104605F0C0F8A04209D06A
:10BA800070BDFF2CFCD82146104605F0AAF808B17D
:10BA9000204670BD284670BD70B5084C050009D021
:10BAA00010342168002907D00868206049682846BA
:10BAB0008847F6E70834F4E770BD00003026002020
:10BAC000054A012120B1012805D19170FFF7E4BF9B
:10BAD00051700020FAE77047302600202DE9F05F12
:10BAE00026484168F1B3DFF898B00E688146DBF86C
:10BAF000004087688078E11B21F07F45ED1CB0B9DC
:10BB0000DFF880804FF48030C8F84403C8F804039D
:10BB10001120FDF7E3FD1120FDF7EBFD4FF0010AC9
:10BB2000C8F800A02F2003F04DFE89F802A0B5420E
:10BB300000D23546124BE8193C3320F07F401860A4
:10BB4000DBF800105A46091B21F07F41001B20F052
:10BB50007F40C91C81420FD9106818602F2003F064
:10BB600031FE00E004E0BDE8F05F1120FDF7CCBD40
:10BB7000BDE8F05F05F070BEBDE8F09F701C0020CE
:10BB8000041501400010014073B58CB0064600203A
:10BB900000900D9880B100246D4621460DA802F05A
:10BBA000BAF930B1009805EB400084800098401C41
:10BBB0000090641C142CF0D32C2269463046FDF70B
:10BBC00055FC0EB070BD2DE9F04117880646B81D32
:10BBD00014460D46984202D90C20BDE8F081318808
:10BBE000072206290AD34FF4486C4FF6FF736145CC
:10BBF00001D9994202D17088062801D21046ECE79B
:10BC0000604501D99842F9D1994203D0984201D0B8
:10BC10008142F3D80520E85520881221401C80B2CB
:10BC2000208029542088401C80B22080411930880F
:10BC300006F05CFE2188084480B22080411970889B
:10BC400006F054FE2188084420800020C5E7FEF756
:10BC500087B8000038B54A7A0F4B62B100220A72E9
:10BC60005969002906D001228DF80020ADF80200A4
:10BC70006846884738BD0A7A62B19B684C680246BC
:10BC800019462046FEF7B4F80028F3D0BDE8384046
:10BC900005F0D2BF5B68F1E7BC1F0020F0B585B0AE
:10BCA00016460F4604461D4614220B496846FDF70A
:10BCB000DDFB0A488DF80870ADF80240ADF80A6067
:10BCC0008DF80C50017800222046FEF7D5FE68461C
:10BCD00000F038FA05B0F0BDE4300200C01B0020CF
:10BCE000F8B50025441C17460E468DF800506846EE
:10BCF000FEF7D2F8184908683860D1E900028B686D
:10BD0000821A18409A1A181A401C521C824201D8F2
:10BD1000134600E0034602D84FF0000201E0A2EB18
:10BD200000029C4202D9671E97420FD89C4201D85C
:10BD3000002000E0401E30600A688B680244501CFE
:10BD4000184001EB800510190C3508609DF80000C3
:10BD5000FEF7C6F82846F8BD882A002030B504460C
:10BD600085B000211B4804F03CFF00282FD000259F
:10BD7000204601F050F868B1112812D086281BD057
:10BD8000A0F54051023903D00146204605F05CFF82
:10BD9000294607E005B029462046BDE8304001F0BD
:10BDA000B5BD0121204601F0B1FD05B00021BDE87F
:10BDB0003040084804F049BF142207496846FDF79F
:10BDC00055FBADF80240684600F098F9E0E705B091
:10BDD00030BD0000891B0020143002007FB50C46E6
:10BDE00010B1012004B070BD2079002638B141F6B1
:10BDF0001D5501281BD0022826D00F20F2E7022073
:10BE0000207102960396E0680190694601A805F04A
:10BE100035FC50B102988188E18000882081BDF80E
:10BE20000010029805F0A8FCDCE70A20DAE70A4BCC
:10BE30006A460021A01D05F0DDFB38B1064918391E
:10BE40008E61CE610A28CDD12846CBE70248818891
:10BE5000019805F091FCF5E7B01C00202DE9F047B2
:10BE60000025DFF88C803CE06068002100EBC5060F
:10BE7000012032789146FDF7E6FAD4E9062300EA7C
:10BE8000020701EA030C57EA0C0728D082438B43D0
:10BE90004846C4E9062303F057FD327882469146AE
:10BEA00001200021FDF7CFFAD4E9042300EA0204BF
:10BEB00001EA03074A4650460021FDF7C4FA444010
:10BEC0004F403C430BD17078012801D0012100E0A4
:10BED0000021726881EA0A010AB1484690476D1C48
:10BEE000EDB298F8000044468542BDD3BDE8F08726
:10BEF000501C002010B50021024802F045F880F3E4
:10BF0000100010BDA42E00200E4910B50A784C7800
:10BF10000023A24212D0521CD2B20A70022A00D1CF
:10BF20000B70084A0B780C3252F8232002608868A4
:10BF3000104420F07F408860012010BD0360002085
:10BF400010BD0000701C002013460A460021FFF7B8
:10BF5000A5BE00002DE9F843104D0F4680461E4651
:10BF600091466946286801F06AFF040014D01C213C
:10BF7000FDF795FA01202071C4F81490380BC4F82D
:10BF80000080C4E902606946286801F079FF05F085
:10BF900029F90020BDE8F8830420FBE7B031020056
:10BFA00010B503780022072B06D2DFE803F0050462
:10BFB0000610202930000A7010BD01230B70038980
:10BFC0008B818388CB81C06888600A7410BD02228F
:10BFD0000A7002898A818288CA81C2688A60807DEB
:10BFE000062802D00020087410BD0120FBE70322C0
:10BFF0000A70C2888A810289CA81C068886010BDBF
:10C0000004230B70C0888881CA818A6010BD052016
:10C01000087010BD70B5064D0646002455F8241072
:10C0200009B130468847641C042CF7D370BD00006A
:10C030000828002030B50446006887B00D468068A7
:10C0400000281FD018216846FDF729FA0195A0683D
:10C050000590207910B1012810D107E001208DF85A
:10C06000000020690290E068039005E002208DF84E
:10C070000000E06800030290606904902068816815
:10C080006846884707B030BD70B586B015460C00CD
:10C09000064619D0112C17D0082C15D0142168464B
:10C0A000FDF7FDF9ADF80260304601F0ABF8ADF8F0
:10C0B00004000D2C0AD0862C1CD007208DF800001F
:10C0C0000294684600F04CF806B070BD03208DF86D
:10C0D000000025B12878C00701D0012000E002202F
:10C0E0008DF8080000208DF80C0041F20110ADF829
:10C0F0000A00E6E706208DF80000E2E710B50446E6
:10C10000408801F07FF8A080024801682046BDE821
:10C1100010400847901B00202DE9F04107460024FD
:10C12000064E074D05E000BF56F8241038468847F4
:10C13000641CE8788442F7DBBDE8F08160220020CF
:10C14000B01B002010B50446408801F05BF8A080C9
:10C15000024801682046BDE810400847B830020098
:10C1600001490968084700000C31020070B586B02B
:10C17000044614216846FDF792F9A0890125A0F52F
:10C180004040ADF8040020782A4E062833D2DFE87C
:10C1900000F0320303032C48A08900F0BDF930B948
:10C1A000E08943F6FE71A0F54040884223D8A07B89
:10C1B0008DF80800207803280FD000208DF80900A2
:10C1C000A0680390606850B109208DF80000606895
:10C1D0000490684604F0BCF80DE00120EEE708206A
:10C1E0008DF800008DF81050F3E7A08900F094F965
:10C1F00008B1E08930B17078002801D004F0D8F996
:10C2000006B070BD606820B10B208DF8000075701D
:10C21000DFE70A208DF80000BDF8040004F052FAB0
:10C22000F5E713208DF800004FF6FF70ADF804001D
:10C23000CFE70000A01B002038B504460E48007868
:10C24000A8B1A4F57F40FF380FD0684604F0FCFE8B
:10C2500078B10521017001210171C480684604F0A4
:10C2600001FF04F0B1FF002038BD042038BD0220DA
:10C2700038BD082038BD0000B81C00200C4808B5A7
:10C28000007888B1684604F0DFFE78B106210170BD
:10C29000684604F0E7FE0748017809B101210173FF
:10C2A00004F092FF002008BD022008BD082008BD50
:10C2B000B81C0020CC280020F0B587B014216846B7
:10C2C000FDF7EDF82B4C207818B16846FFF7A2FE79
:10C2D0004EE0201D01F03AFEB8BB4FF0102041693E
:10C2E000000400694A1C02D100EB40000101224811
:10C2F00000220161A1F54051C160204902F0B8F966
:10C30000002820D11F481C238C221D49006801F001
:10C3100083FD03F00DFE050014D0022D12D000277E
:10C320000126062D12D005A804F08EFE88B10670F5
:10C330000C2D18D2DFE805F0170F170F1716171678
:10C34000171113110B2007B0F0BD11E026706760C4
:10C35000BBE70820F7E7077105E0032100E00221B1
:10C36000017100E0067105A804F07CFE04F02CFFCA
:10C370000020E8E7B81C0020601D0020C03102004A
:10C38000182800202831020038B5040014D069466E
:10C3900005F074F9A0B1BDF8000000EB8001094878
:10C3A00000EB8100C16849B1A17A39B1C168491E69
:10C3B000C1600020A07238BD052038BD062038BD00
:10C3C0000A2038BDA42800201FB501A9684605F041
:10C3D00011F904B010BD07B513460A46694600209E
:10C3E00005F008F90EBD07B513460A460021684658
:10C3F00005F000F90EBD20B119B1006808600020F9
:10C400007047052070470000F8B50D46040018D0AD
:10C41000BDB1694605F032F9A8B1BDF800000B497D
:10C4200000EB800001EB800001210C30666801F018
:10C4300090FD2E6060680C3068600120A0720020C2
:10C44000F8BD0520F8BD0A20F8BD0000A428002092
:10C4500018B10323002206F08DBC0520704702238B
:10C46000002206F087BC12B1022306F083BC05202F
:10C4700070470000084910B50A69042A0AD0074A23
:10C48000096942F8210004480121103001F061FDE2
:10C49000002010BD0C2010BD981C00200828002092
:10C4A00038B5044609480D46007858B164B169466C
:10C4B000284606F059FD002803D1BDF80010218060
:10C4C000658038BD022038BD052038BDB81C00206D
:10C4D00010B504460E48007898B1A4B1218802290D
:10C4E00013D80C4A01EB810002EB8002608852896C
:10C4F000C31C934209D806F02BFD002020806080E9
:10C5000010BD022010BD052010BD042010BD00008C
:10C51000B81C0020A428002043F6FE71A0F540407E
:10C52000884201D8012070470020704710B50446AA
:10C530000078182802D1FEF77BFA207010BD10B5E4
:10C5400004460078182802D1FEF772FA207010BD58
:10C5500070B50D460446B0F89810D0F8940001224A
:10C56000FDF716FF00B1057004F13C0204F19401DF
:10C5700004F1540072DF70BD70B513460022064608
:10C580001546862902D0112902D002E0012200E0DE
:10C5900001250D4C73B1A179FEF76EFA2A46617937
:10C5A0003046FEF769FA0022A1783046FEF764FAB9
:10C5B000002203E0A178FEF75FFA2A466178304650
:10C5C000BDE87040FEF758BAC81B0020F7B5174603
:10C5D0000E0011D00098002560B100242146684665
:10C5E00001F099FC18B1A0B23946B0476D1C641C2B
:10C5F000142CF3D32846FEBD0020FEBD406804F095
:10C6000043BD00000EB516A19DF8080020F00F00F4
:10C61000401C20F0F00010308DF808000E2202A817
:10C620007CDF08B1FDF79CFB4FF4806078DF08B138
:10C63000FDF796FB0020009001900821ADF8040062
:10C64000ADF800104FF4C8705021ADF80600ADF8F9
:10C65000021068467ADF002801D0FDF781FB0EBD8D
:10C660004E6F726469635F476C75636F736500003A
:10C6700070B508B1012070BD194C0025207B08B1B0
:10C68000257301E000F0A0F82078082826D2DFE822
:10C6900000F02504080C10251420BDE8704000F0BF
:10C6A00021B8BDE8704000F07DB8BDE8704000F0F2
:10C6B0005FB8BDE8704000F03BB86088084900EB07
:10C6C0008000283901EB80004068BDE8704003F02D
:10C6D0000FBC6560BDE8704003F018BC0F2070BD52
:10C6E000CC2800201149F0B48A1C00200346A1F197
:10C6F00028050C18A67A4EB1A37200EB800405EB56
:10C700008404E66816B9247C012C0AD0401C80B24F
:10C710000228EED30B704B804B60F0BC41F61D50ED
:10C7200070471080F0BC00F03DB80000CC2800201D
:10C730000C48418801EB8102A0F1280101EB820144
:10C74000CA6852B105210170074802218180016841
:10C7500000230122054801F0F5BE04220270496859
:10C76000F6E70000CC280020C01C0020601D00203F
:10C7700038B50A49084803240B684268898803EBE6
:10C78000810153880470DB1C00201B0400909B0B6C
:10C79000034802F047F838BDCC280020C01C002018
:10C7A000601D0020074910B54888091D04F0B6FF38
:10C7B00018B1BDE81040FFF7DBBFBDE81040FFF740
:10C7C000B7BF0000CC280020F0B51F481F49012545
:10C7D000067802248B88A0F12802082E19D2DFE8FF
:10C7E00006F00418181B222F2F170189491C0181FC
:10C7F0000021418080F80C1001EB810312F82330F6
:10C8000043B100234418491C89B2A3720229F3D30F
:10C810000570F0BD0123F5E742685288D21C1A4426
:10C820008A800470F0BD46880D6806EB860602EB30
:10C83000860256680E60556013818C80062100E0E8
:10C8400007210170F0BD0000CC280020C01C002092
:10C8500030B501888488224D85B0502924D05229D2
:10C8600002D0542931D103E0204601F01BF82CE01E
:10C8700014221C496846FCF7F9FDADF80240204639
:10C8800000F0C0FCADF8040000F078FA00226979ED
:10C890002046FEF7F1F8002229792046FEF7ECF851
:10C8A0006846FFF72BFC10E0017B01290DD1817A4E
:10C8B00001290AD10089A0F52451023905D10121AD
:10C8C000204601F023F806F085F800220649E878B2
:10C8D000FEF76EF805B0BDE8304005F027BA00005D
:10C8E000881B00203C3002009D9F010010B50446CB
:10C8F000007800280FD1608800F0D4FF608800F035
:10C90000D7FA002807D00449608801220979BDE8D8
:10C910001040FEF7B1B810BD881B002010B5124CB6
:10C9200000202070FEF784F8A070FEF781F8E07018
:10C93000FEF77EF82071FEF77BF86071A178182968
:10C940000FD0E17818290CD02179182909D018289E
:10C9500007D00121601C04F03DF901202070002067
:10C9600010BD032010BD0000881B00207CB50446CC
:10C97000007808282FD1607A38BB207A4FF6FF75EF
:10C9800001280DD0072802D0082824D11EE0A08855
:10C9900000F076FBA8421ED0012100F0B7FF1AE09C
:10C9A000A0886A46012103F0EBFB70B9019800787A
:10C9B00058B1A08800F064FBA8420CD008490122BD
:10C9C0000979FEF759F805F0B1F904E004480021AF
:10C9D000401C04F03AF9BDE87C4005F0FBBF0000C4
:10C9E000881B002010B504460A4841782046FEF70F
:10C9F0002BF868B10848002101EB410200EB8202EC
:10CA00005288A24201D1C8B210BD491C1429F3D3E7
:10CA1000FF2010BD9A1B00205020002070B5094D4A
:10CA2000094E002404EB440005EB80007178408837
:10CA3000FEF70AF820B1641C142CF3D3FF2070BD5C
:10CA4000E0B270BD502000209A1B00202DE9F0417B
:10CA500004460E46007801F8010B608805F04BFF94
:10CA6000401CC7B2F519A088294605F044FFA179FA
:10CA70002954401CC0B2E1792954401CC0B2217A2B
:10CA80002954401CC0B2617A2954401CC0B2A17A1A
:10CA90002954401C3844C5B22078C00705D071190C
:10CAA000A08905F028FF2844C5B22078800716D554
:10CAB000A07B4FF6FF7101EA0030218AC1F30B0120
:10CAC000084370556D1CE9B2000A7054491CC8B285
:10CAD000E27CA17C62F31F113154401CC5B2207866
:10CAE000000705D57119A08A05F005FF2844C5B2D5
:10CAF0002846BDE8F08130B58FB005461C21684658
:10CB0000FCF7CDFC9DF80000002440F002008DF8F9
:10CB10000000039401208DF8360042F65120ADF854
:10CB200034000C949DF83000019420F00F00401C5C
:10CB300020F0F00020308DF830009DF83100049492
:10CB400020F0FF008DF831009DF83200059420F0B0
:10CB50000600801C20F019008DF832000694142184
:10CB600007A8FCF79CFCA88D8DF83800000A8DF80A
:10CB700039000DA807900CA808900220ADF82400F9
:10CB8000ADF828000EA8ADF826400B90288905F1D5
:10CB90001A0307AA6946AADF0FB030BD30B50A46AE
:10CBA0008BB0044605A91046FFF750FF0546ADF8C7
:10CBB0000000002001900290039004906189ADF87C
:10CBC00004100121ADF808008DF8061005A8CDF875
:10CBD0000CD00490608D01A9AEDF002804D1BDF80F
:10CBE0000010A94202D00C200BB030BD0349CA7816
:10CBF000521CCA700A79521C0A71F5E7281C0020E1
:10CC000030B59FB00024054607949DF81C001C21F8
:10CC100020F00F00401C20F0F00010308DF81C00B8
:10CC20009DF81D0020F00F00401C20F0F000203087
:10CC30008DF81D009DF81E0020F00600801C8DF868
:10CC40001E006846FCF72BFC9DF80000019440F0A4
:10CC500010008DF8000007A8CDE9044001208DF8F0
:10CC60007A0042F61820ADF8780018949DF860001C
:10CC7000039420F0FF008DF860009DF86100069499
:10CC800020F0FF008DF861009DF86200142120F073
:10CC90000600801C20F0180040F001008DF86200B2
:10CCA00013A8FCF7FCFB2C2108A8FCF7F8FBFEF707
:10CCB000F1F910F0FF0006D0401EC0B208A9FEF73F
:10CCC0001DFA002816D11EA8139018A8149019A9AF
:10CCD00008A8FFF7BBFEADF854001420ADF85800CB
:10CCE00019A8ADF856401790288905F10A0313AA30
:10CCF0006946AADF1FB030BD2DE9F04180460246EB
:10CD000001200021FCF79FFB1A4F05460E4678686C
:10CD1000FDF7B2F800280CD1174CD4E906211046D3
:10CD20002A4001EA06031A4305D0A843B143C4E9E7
:10CD30000601BDE8F081404602F006FE30B1D4E9BC
:10CD4000040128433143C4E9040105E0D4E9041097
:10CD5000A943B043C4E90410D4E906012843314390
:10CD6000C4E90601A1687868BDE8F0410022FDF73A
:10CD70003FB8000018310200501C00201CB5054AC5
:10CD8000D2E90212CDE900120022694603F01DFA31
:10CD90001CBD00005430020003484FF6FF71818033
:10CDA0000121017000207047941B00202DE9FC41F7
:10CDB000804600F027FA002403250127A0F57F41D3
:10CDC0002646FF3908D06A46082103F0D9F918B978
:10CDD0000198841D8688056832462B4621464046C8
:10CDE000B1DF042804D0082804D00B2808D002E0C2
:10CDF000112000E00020002F00D10B20BDE8FC81B5
:10CE00000027A80701D50125E6E73443F5D0002423
:10CE100026460325E0E72DE9FC41804600F0F2F9C3
:10CE20000646A0F57F40FF380ED001252A466D1C2E
:10CE30000027ADB26B460821304603F0CBF9040061
:10CE400006D0072C25D025E043F20200BDE8FC8186
:10CE5000019903230A1D0B604046891DB2DF0400BF
:10CE600004D00C2C09D0052C09D009E03246082149
:10CE7000104603F025FA04460CE0012700E00024E8
:10CE80000821304603F008FA00B10324002FCDD169
:10CE900000E00C242046D9E704488088A0F57F41B3
:10CEA000FF3901D004F04CBF70470000941B0020F4
:10CEB0000EB502A9019100F0A5F96A46012103F01F
:10CEC0005FF908B100200EBD019800780EBD00008A
:10CED0002DE9F04107464FF6FF760A48B3DF10B15F
:10CEE0000320BDE8F081074C43F20305A41E32463F
:10CEF00061883846AFDFA842F3D16088401C60806B
:10CF0000F5E70000961B0020428800EB82020C32FD
:10CF10008A4201D9022070478188A1F57F42FF3AF9
:10CF200003D0008808B10020704701207047884274
:10CF300004D20068401C01D00120704700207047D7
:10CF40003EB5027802230C46B3EB520F17D1B0F86E
:10CF50000110ADF80010C1788DF802108188ADF88D
:10CF6000041080798DF8060002AA01A92046FCF77A
:10CF700039FE032202A96846FCF7A3FA08B1002093
:10CF80003EBD01203EBD000010B50C46FFF72AFD56
:10CF9000FF280CD0074900EB400001EB80004168FE
:10CFA00021600189A180807AA071002010BD052038
:10CFB00010BD00005020002070B5018890B01029ED
:10CFC00059D1011D28226846FCF750FA9DF804004B
:10CFD0004FF6FF76032134466D46B1EB500F2AD051
:10CFE00003F024FA9DF8040040080ED001280CD06C
:10CFF000022820D118E00C99281D1131FCF78DFD75
:10D0000018B100BFBDF8284015E00BAA0AA90720F7
:10D0100003F0E0F90028EED10DE00C99281D491C21
:10D02000FFF78EFF0028EDD10BAA0AA9072003F015
:10D03000D1F90028F1D1BDF80000291D00F096FEBD
:10D04000B44218D0BDF80000214600F0C5F8BDF884
:10D050000000ADF82A000020ADF82C40074E8DF8F6
:10D0600028000AAD044600BF56F824102846884719
:10D07000641C022CF8D310B070BD000068300200B0
:10D08000094A002101EB410332F82330834205D1E4
:10D0900001EB410002EB800040887047491C1429D5
:10D0A000F0D34FF6FF707047502000203EB50C467D
:10D0B000054603F0BBF90BE0BDF80000A04207D025
:10D0C0002846029900F02EF810B1BDF800003EBDD0
:10D0D00001AA6946072003F07DF90028ECD14FF63C
:10D0E000FF703EBD10B50D4C18200D4A6070002039
:10D0F0004FF6FF7100EB400302EB8303401C5980A5
:10D100001428F7D3FDF794FC6070182803D0012091
:10D110002070002010BD032010BD00009A1B0020CD
:10D12000502000202DE9F0410C46054600F1110782
:10D1300001F111061022491C401CFCF7C2F948B944
:10D14000681C00F041FA28B1601C00F03DFA08B1FB
:10D15000012400E0002431463846FCF7DEFC3B7831
:10D160000222B2EB530F0CD00321B1EB530F08D0C6
:10D170003378B2EB530F04D0B1EB530F01D0012140
:10D1800000E00021084201D18C4302D00120BDE81B
:10D19000F0810020FBE7018811B9421892780AB1AA
:10D1A00001207047491C0829F7D30020704710B5AB
:10D1B0000C460346FFF7EFFF00280AD018882188A5
:10D1C000884205D10822A11C981CFCF77AF908B105
:10D1D000002010BD012010BD03F0C8BA70B5044690
:10D1E000FFF74EFF0546204602F0CDFF4FF6FF71D8
:10D1F00004468D4203D014B9284603F0B7FA2046FE
:10D2000070BD000010B5FFF7EDFBFF2805D0044905
:10D2100000EB400031F8200010BD4FF6FF7010BD4C
:10D22000502000203EB5044603F000F90EE00199BD
:10D2300020464631FFF7BBFF28B9019920462A3125
:10D24000FFF7B5FF10B1BDF808003EBD6A4602A960
:10D25000072003F0BFF80028E9D14FF6FF703EBD6C
:10D2600010B50A4941600A4800F070FE58B902F052
:10D27000E9F907491C238C22087404488C39001FE3
:10D28000006800F0C9FD002010BD0000B4310200AC
:10D29000682900202DE9F0412D4F002518B17D604F
:10D2A0000120BDE8F0810879012258B1294E0128FA
:10D2B0000CD0274C4FF002080834022821D0032854
:10D2C00042D128E00A7102F021FE3BE05FF000004D
:10D2D00000EB800116F82110022908D0401C80B212
:10D2E0000228F5D33A707D6041F61D50D9E700EB76
:10D2F000800006F8205006EB8000406802F0F8FD40
:10D3000020E00D71A4F80480002301221248216856
:10D3100001F018F916E00D71206802F0E9FD0D49E1
:10D3200023682831498801EB810206EB8201D1F89C
:10D3300004C0C4F800C04B60A3880B81A4F804802B
:10D3400006F822500028ACD07D600E20A9E700002E
:10D35000B81C0020A4280020601D002001460348BE
:10D3600002888A4200D0002070470000A81F0020D9
:10D370002DE9FC5F0E008346DDE90C47C6F1000095
:10D3800098469246814600D40846012503E000BF36
:10D3900090FBFAF06D1C5045FADAA84500D94546D5
:10D3A00024B1002E01DB780700D5641EB80702D532
:10D3B000B8F1000F0AD0F80708D13CB1A54205D258
:10D3C00020215846641EFEF7A3FAF6E7002E02DA83
:10D3D0004E462D2102E0780703D52B215846FEF753
:10D3E00097FA07F0030002280BD1B8F1000F08D11B
:10D3F0003CB1A54205D230215846641EFEF788FA9A
:10D40000F6E7CDE90047434652463146584605F017
:10D4100087FABDE8FC9F000070B50D460446006821
:10D420004FF4887102F093F94FF49071206802F084
:10D430008EF94FF49271206802F089F94FF4A271CD
:10D44000206802F084F920681249C0F804132068AB
:10D450006907000B40B2090E002806DA00F00F0041
:10D4600000F1E02080F8141D03E000F1E02080F8D6
:10D47000001420680121000B40B200F01F0291400F
:10D480004009800000F1E020C0F88012C0F80011CF
:10D4900070BD0000100302000246002012689307CE
:10D4A00002D0530702D47047500714D502F003008E
:10D4B000012802D002280CD105E0C2F383100B68CA
:10D4C000801C184404E00223086803EB92521044C5
:10D4D000086001207047086800EB9253C2F389107E
:10D4E000401CEEE70248007A002800D00120704777
:10D4F00068290020F0B58488A518944200D82246F7
:10D50000A41AC288D6189A4200D81346D21A4B8859
:10D510000788BB420CD34088834209D88888A04240
:10D5200006D3A84204D8C888904201D3B04201D99A
:10D530000020F0BD0120F0BD70B50022214C0A7022
:10D540000278032505232478032A01D094BB0EE03A
:10D55000012C01D0072008E042780AB10D702BE0C1
:10D56000807808B10B7027E00120087024E0012AC0
:10D5700003D0042A01D00220F7E742780424072AC6
:10D580001CD2DFE802F01B0418081804040080789D
:10D590000028E7D10CE042681278012A05D0092062
:10D5A000022AE2D0072AE0D2DCE780780328D9D12A
:10D5B000012070BD00E00C700020FAE7072AFAD2C3
:10D5C000CCE70000281C00200021425C0AB10120A9
:10D5D0007047491C1029F8D300207047800701D0FC
:10D5E00000207047012070470A4810B5807860B16C
:10D5F000002401E0022C06D02046FDF7FFFE641C4B
:10D60000042CF7D310BD0324F6E7BDE81040FDF766
:10D6100015BF0000681B002003480179C90702D02C
:10D620000078FEF74DB87047681B00201721018075
:10D630004180002101714171704700002DE9FE4FCA
:10D640002B4D984691460F00824601D000260DE0F2
:10D65000684600F0B7FB6A460021504602F0FFFC26
:10D660002878009E10B99DF8090098B14A463146C5
:10D67000504604F027FE0446014600225046FEF7BD
:10D680007BFF0D2C32D008DC84B3082C2ED00B2C61
:10D690000BD12BE00520BDE8FE8F112C10D0862C7D
:10D6A0001AD0A4F54050023820D00325B8F1000F5D
:10D6B00004D0324621465046FEF7E6FC2846EAE70B
:10D6C0003A4629795046FDF7D7F94A46E978504657
:10D6D000FDF7D2F90025E9E73A4629795046FDF7EA
:10D6E000CBF94A46E9785046FDF7C6F92546DDE70D
:10D6F000C81B00202DE9F041204F0E461546044678
:10D700003978FDF7A1F9002835D0204602F09EFCBB
:10D7100050B32046FFF776FD80462046B978FDF7E6
:10D7200093F908B1012700E00227204602F036FFF6
:10D730000028404602D0FFF751FD0DE0A8F57F41DB
:10D74000FF3909D0072102F0A7FD010004D0052907
:10D7500002D0204604F08CFA2B4632463946204649
:10D76000BDE8F041FEF79ABA2A4631462046BDE8A8
:10D77000F041FEF7E9BBBDE8F0810000C01B0020CE
:10D7800070B5094D0646E978FDF75EF9044629793A
:10D790003046FDF759F9014622463046BDE8704053
:10D7A0000123FFF74BBF0000C81B00202DE9F04705
:10D7B000394E002780463D46DFF8E090D6F804A0B9
:10D7C00057E003D00446D0F81C8035E099F80020DB
:10D7D00002EB4201521CD2B289F8002009EBC101D0
:10D7E00099F80230091D9A4201D189F80050486821
:10D7F0000A780446012A12D0022A02D0032A3BD119
:10D8000008E004F025FF00B10127257434E0057419
:10D81000C06900E070680028F9D170602CE0207CBD
:10D8200050BB88686060C868A0600869E0604869AB
:10D83000A061F07800B165606268B168184B501A59
:10D8400020F07F40984202D2A168084406E0881A7E
:10D85000A16820F07F40814202D9081A206000E0D0
:10D86000256065600120A56020742046E56104F014
:10D87000D1FEB8F10000A4D199F8001099F8010088
:10D880008142A3D117B97168514502D00120BDE88A
:10D89000F0870020FBE70000701C0020E426002039
:10D8A000FFFF7F0030B585B005460024142168468F
:10D8B000FBF7F5FDA5F57F40ADF80250FF3815D018
:10D8C0002846FFF773FA98B10B2815D0112811D00C
:10D8D000A0F54051023903D00146284604F0B4F9BE
:10D8E00009482246C1782846FDF7C6F805B030BD84
:10D8F0000E2002E00124F3E70F208DF800006846B7
:10D90000FEF7FCFBECE70000881B00200A460249FA
:10D910008978FDF7B1B80000881B0020F8B50546EE
:10D9200000780C46002620420FD100208DF8000020
:10D930006846FCF7B1FA2878204202D120432870CB
:10D9400001269DF80000FCF7CBFA3046F8BD000038
:10D950002DE9FF410026234800F0F5FA2148001F79
:10D96000074600F0F0FA204C60680090A56800E0DF
:10D9700000986946284004EB80000C30FFF78CFDCE
:10D980000028F5D101AA009901EA050304EB8303FD
:10D99000491CDB6842F82030401C00910228F2D379
:10D9A000019800F0030001280BD0022810D1019843
:10D9B000032101EB90500099BDF80A6001EB900043
:10D9C00005E00198BDF80A60C0F383100844009098
:10D9D000384600F0B5FA08B10098606004B03046EF
:10D9E000BDE8F081A02E0020882A0020ACB04FF4C2
:10D9F0000041002001F0E4FA08B1FCF7B1F901F0B0
:10DA00004FF9FCF7CBF908B1FCF7AAF95C4A012100
:10DA10005C48FCF7B1F908B1FCF7A2F959485A4A39
:10DA20000021001DFCF7A8F908B1FCF799F9574946
:10DA30000320FDF7FBFD08B1FCF792F969460020D1
:10DA4000FDF720FD08B1FCF78BF99DF800000228D6
:10DA50007ED0002701F006FC08B1FCF781F901F047
:10DA600097FD08B1FCF77CF9002569460120009577
:10DA700001F022FC08B1FCF773F9684601F09AFC4A
:10DA800008B1FCF76DF9FEF7BDFD0021404800F03C
:10DA9000F0FA08B1FCF764F9AC216846FBF7FFFC2B
:10DAA00002208DF8000001248DF8024005208DF839
:10DAB0000300384803260590ADF810602820229016
:10DAC00044F2506023908DF87C40334829903048D0
:10DAD00069461C30FCF78BFC08B1FCF741F92C4877
:10DAE00001211C30FCF780FC04F0D8F928485121B2
:10DAF000D43001606421C0E9011404730146254853
:10DB0000083804F0E5F81C216846FBF7C8FC4FF420
:10DB10002030CDE900504FF4702002901F4805904E
:10DB20001F488DF80C600690ADF80E508DF810501F
:10DB30006846FCF7F3FE08B1FCF712F902F024FE88
:10DB4000184819A1008806EB004001F0C7F900E071
:10DB500013E00C4800224FF4A0210068FCF748F9BC
:10DB600008B1FCF7FDF83846FCF718F801F0A6F804
:10DB70000028FBD101F08AFBF8E701276AE70000E3
:10DB8000C1A10100C42F0200E91B020079B5010008
:10DB9000381E00205C1B0020C1FB01000DFC0100B1
:10DBA0004FBC0100A41D0020476C75636F73652096
:10DBB0006578616D706C6520737461727465642E34
:10DBC0000000000070B5144682880E460546208885
:10DBD000111D0144921C994201D8FE2A01D90C2042
:10DBE00070BD521C32542088FF21401C80B220801E
:10DBF00031542088401C80B220808119288804F08C
:10DC000075FE2188084480B22080AA8842B1A968A4
:10DC100041B13044FBF72AFC2088A98808442080C1
:10DC2000002070BD072070BD2DE9F047C78804466D
:10DC3000181D16468946B0FBF7F1B0FBF7F207FB5B
:10DC400012009A193A44D21CB2FBF7F2DDF820A078
:10DC500001E02468491E0029FBD13D1A8846B542DF
:10DC600016D818E0BAF1000F05D0211809EB08000A
:10DC70002A46091D04E0204409EB08012A46001D3C
:10DC8000FBF7F4FB00202468761BA844B74201D9B7
:10DC9000354600E03D46002EE4D1BDE8F0870000A7
:10DCA00030B5024659B101F0B7F90021074C09E03F
:10DCB00004EB810315685B88AB4202D11160002040
:10DCC00030BD491C8142F3D3052030BD741D0020B6
:10DCD000F8B50F46017814460546012901D1687848
:10DCE00030B12088821C9A422DD8012902D006E04A
:10DCF0000720F8BD69780144891C994223D8181A75
:10DD0000801E86B2ADF800602188B81C08446946C0
:10DD10007DDF0028EDD12878022805D1BDF800105C
:10DD2000B14201D809210AE00821012805D168780B
:10DD3000B04202D8ADF8000001E0ADF80060BDF8D7
:10DD40000000FE2801D90C20F8BD2288401CB854E0
:10DD50002088401C80B2208039542088401C2080BC
:10DD6000BDF80010084420800020F8BD70B50546BD
:10DD70000C004FF0FF0020D04FF6FF76B5421CD0CC
:10DD80000E48012241782846FCF776FE2846FEF729
:10DD900029FEFF2803D1FEF741FEFF280DD0084BD6
:10DDA00000EB400203EB82014D8023F822602268E1
:10DDB0004A60A2880A81A2798A7270BD9A1B0020EB
:10DDC00050200020034A00219268C0E900218160B0
:10DDD00070470000C81B002070B54FF6FF750E4657
:10DDE000A84201D1002000E0401C84B208E0214696
:10DDF000304602F01EFF08B1204670BD641CA4B27C
:10DE0000FF2CF4D9284670BD10B5FBF74EFA08B1C7
:10DE1000002010BD112010BD10B531B1B2FBF3F4DC
:10DE200003FB14241CB1092010BD0E2010BD01609D
:10DE30000021416081608281C381084610BD70B5B8
:10DE40000C460546FBF7E6F9002802D02188286831
:10DE5000084470BD10B50A8849888A4203D1FBF78F
:10DE60001BFA012010BD002010BD70B50C46054600
:10DE7000FBF7F5F9002802D061882868084470BDD6
:10DE800010B50A8849888A4203D1FBF7DFF90120DF
:10DE900010BD002010BD01F01F0301229A40D243A3
:10DEA000490900EB8100114600F059B80A4601F01B
:10DEB0001F030121994010B552090C4600EB820066
:10DEC00000F05DF8204000D0012010BD2DE9F041A8
:10DED00080460D460024481E012101EB501716E034
:10DEE00058F82400C04390FAA0F0B0FA80F020283F
:10DEF0000CD200EB4416AE4208D231464046FFF742
:10DF0000D5FF0028ECD13046BDE8F081641CA74263
:10DF1000E6D82846F8E74A0950F8220001F01F0227
:10DF200001219140084000D00120704701F01F03FB
:10DF300001229A40490900EB8100114600F029B8FE
:10DF4000002100F017B8012100F023B8012100F0F2
:10DF500016B808B56A46FBF7F4F9009808BD08B58D
:10DF60006A46FBF7D4F9009808BD08B56A46FBF786
:10DF7000E8F908BD08B56A46FBF7C9F908BD08B558
:10DF80006A46FBF7B7F908BD08B56A46FBF7A6F97C
:10DF900008BD08B56A46FBF7ADF9009808BD08B59D
:10DFA0006A46FBF7DBF9009808BD38B50446002542
:10DFB0008DF800506846FBF76FFF216862680868BB
:10DFC00090420ED9401E08600178A38AE26801FBE6
:10DFD0000325227A2168101AC0B20A79824200D23F
:10DFE00008719DF80000FBF77BFF284638BD38B567
:10DFF000054600208DF800000C466846FBF74CFFF4
:10E00000E868A98A201AB0FBF1F12A681068431C5D
:10E01000136001709DF80000FBF762FF38BD10B57A
:10E0200030B1017A42680368891AC9B21A6006E001
:10E030000E2010BD03681A68541C1C601170491E24
:10E04000C9B2F7D2006800210171084610BDC208AC
:10E0500000F007030120895C98400840704710B524
:10E06000C20800F00703885C01249C4020438854C8
:10E0700010BD10B560B1C160172120F8021B20F857
:10E08000021B1B2100F8021BFFF7D0FA002010BD75
:10E090000E2010BD7CB50C468188002933D1028842
:10E0A0000025102A06D0112A09D03A2A0BD0552A69
:10E0B0002ED129E00146204601F0B6FD28E0A01D42
:10E0C000FFF7B4FA24E02246408934F8063F834241
:10E0D00000D818466080172800D217206080D068CA
:10E0E00078B1607968B1174BD3E90003CDE900033B
:10E0F000ADF802106088ADF80400D3686946104698
:10E100009847657125717CBD0146204601F0CEFD22
:10E11000A07A0028F7D02846E188A5DF012670B153
:10E120001128F0D001F004FB0246074807A100883F
:10E1300002B006EB0040BDE8704000F0D3BEA5720F
:10E14000E6727CBD70300200741D002073645F6253
:10E150006C655F67617474635F65786368616E673F
:10E16000655F6D74755F72657175657374282920BC
:10E1700072657475726E65642025732E0000000050
:10E1800020B10278DE2A03D0082070470E207047A5
:10E1900041800020704760B159B10278DE2A0AD070
:10E1A00009684160DE2101704FF6FF714180002057
:10E1B00070470E207047082070477FB5054600293C
:10E1C0004DD0002D4BD008780C46DE2847D1A888CA
:10E1D0006188884202D1204604F04CFC288801283E
:10E1E00025D002283BD011283AD0512837D135F814
:10E1F000040F6188884232D1A978A81C02292ED147
:10E20000017A042903D0062901D0052927D100214C
:10E21000009102228DF8002001914FF4C07202910A
:10E220000391ADF80420007A05280FD010E0297A78
:10E230002046012913D1A988428891420FD101219A
:10E24000017204B0BDE8704004F014BCADF80410D5
:10E2500028886946B0DF002801D0616888477FBD03
:10E26000A88861888842FAD14FF6FF7060807FBD30
:10E2700000F180400068002800D00120704708B5F8
:10E2800000F18040002101600068009008BD00009E
:10E2900070B50B4C207808B185250FE00020A060F8
:10E2A00060602061E060074801F06EFA054601F009
:10E2B000C9F908B901F052FA01202070284670BD52
:10E2C00030260020C1BA010038B500258DF8005075
:10E2D0006846FBF7E1FD074CE068401EE060E0683F
:10E2E00010B901F061FAA5709DF80000FBF7F8FD88
:10E2F00038BD00003026002070B5064604780C4872
:10E3000088B0154640F82420094A0869121D42F8D1
:10E31000240020226846FBF7A9F804940DB1054AB1
:10E3200000E000226946301D01F066FB08B070BDB8
:10E33000401C0020C92702000FB408B5039900292A
:10E3400004D004AA00926A4600F00FF801B05DF80C
:10E3500014FB10B582680446002A05D0D4E90403F2
:10E36000216898470020A06010BD2DE9FC47914628
:10E370000C00804676D014F8011B39B125290ED047
:10E380004046FDF7C5FA20780028F4D198F80C0033
:10E39000002867D04046BDE8FC47FFF7DABF002001
:10E3A000012221782B291BD02D2902D0302908D118
:10E3B00002E040F0010001E040F00200641C002A8D
:10E3C000EFD100252A290ED02178A1F130020A2AA6
:10E3D00011D205EB850201EB4205641C303DF1E7EB
:10E3E00040F00400EAE7D9F800100B1DC9F800302E
:10E3F0000968641C0D44217800232E290BD114F8E0
:10E40000011FA1F130020A2A05D203EB830201EBBE
:10E410004203303BF3E76C290DD068290BD0692902
:10E4200021D00BDC252918D0582931D063290ED0F2
:10E43000642915D117E014F8011FECE7702969D0A1
:10E44000732932D075291BD0782909D120E0D9F859
:10E450000000011DC9F8001001784046FDF758FA88
:10E46000641C90E76CE0D9F800100A1DC9F8002080
:10E470000968CDE900500A224046FEF779FFEFE730
:10E48000D9F800100A1DC9F8002009680A2206E020
:10E49000D9F800100A1DC9F8002009681022CDE93A
:10E4A0000050404604F03CFADAE7D9F800100027A3
:10E4B0000A1DC9F800200E68C00705D112E04046C9
:10E4C000761C7F1CFDF724FA31780029F7D104E08F
:10E4D000202140466D1EFDF71BFABD42C0D9002D1C
:10E4E000F6D1BDE74EB13046FAF7E4FF074604E047
:10E4F000202140466D1EFDF70BFABD4206D9002DC6
:10E50000F6D103E04046761CFDF702FA3178002987
:10E51000F8D1A5E7D9F80000011DC9F80010056879
:10E5200030214046FDF7F4F978214046FDF7F0F937
:10E5300008200021CDE90001034610222946B0E75A
:10E54000BDE8FC872DE9F84F2B4E04009A46308831
:10E550004FF001031546894603EB004024D02168A3
:10E5600000292BD0002D32D0626849464FF01007A9
:10E570001268A2F1010C1CEA090F11D198466A43F6
:10E580002046FBF7E3FA00282AD0206853462A46A3
:10E59000066901B049462046B446BDE8F04F6047E1
:10E5A000164B17A2009721E00E210091134B1EA2DB
:10E5B0001FA100F0A6FC0E20BDE8F88F08210091F5
:10E5C0000E4B26A21AA100F09CFC0820F4E70921BA
:10E5D00000910A4B24A216A100F093FC0920EBE75E
:10E5E00000973188054B214A08EB014010A100F04B
:10E5F00088FC1020E0E70000941D00209B31020001
:10E60000616464725F69735F706167655F616C69A3
:10E61000676E656428705F66732C20706167655F44
:10E620006164647229000000705F6673000000007E
:10E63000257320636865636B206661696C6564207F
:10E64000696E202573282920776974682076616CAB
:10E65000756520307825782E00000000705F6673A5
:10E660002D3E705F617069006C656E009834020029
:10E6700038B503000F484FF001054FF00E04008835
:10E6800005EB004009D061B119600C6801B0A446E7
:10E69000BDE83040114618466047074B07A200947A
:10E6A00002E0054B07A2009408A100F02AFC0E200E
:10E6B00038BD0000941D002050310200705F667369
:10E6C00000000000705F6170690000002573206326
:10E6D0006865636B206661696C656420696E2025DE
:10E6E00073282920776974682076616C75652030FD
:10E6F0007825782E000000002DE9F04128B101684E
:10E7000019B1C969BDE8F04108470D4D0D48002415
:10E71000461B14270DE000BF04EB840005EB8000CE
:10E72000016829B1C969884710B10120BDE8F081AD
:10E73000641CB6FBF7F0A042EED80020F6E700001C
:10E74000601D0020741D0020044801214174007ADE
:10E7500008B10020704701207047000068290020A0
:10E76000012801D0032808D10449002201284A7455
:10E7700000D00020087402F0D7BC70476829002040
:10E7800070B50246022801D0032A45D1234C207AD5
:10E79000002841D0012833D0022831D1204800235D
:10E7A000022A006802D0032A2AD11BE0E360017923
:10E7B00011B1012924D10DE0D0E90565711B4FF499
:10E7C0008056B14200D33146294481614569A9424E
:10E7D0000ED015E00169491C0161426991420FD1D7
:10E7E000237213E0E168491CE160082908D9E3605D
:10E7F0002372022A0AD00D21FDF71CFC02F03AFC1C
:10E80000607C28B1BDE8704000F022BF0021F3E732
:10E81000BDE8704002F088BC70BD0000682900208F
:10E82000DC1C00202DE9F84F3A4D04008B46288867
:10E830004FF00106DDF828A0984691464FF00E01F2
:10E8400006EB00401AD0B9F1000F1BD02168002957
:10E8500020D00921B8F1000F25D062685368B8FBB9
:10E86000F3F703FB1782002A21D02B4B2BA2009138
:10E8700035A100F046FB0920BDE8F88F264B3DA2EC
:10E88000009102E0244B3DA200912FA100F039FB42
:10E890000E20F1E7082100911F4B3AA22AA100F0B7
:10E8A00030FB0820E8E71C4B39A20091E0E758460E
:10E8B000FBF746F9102798B14846FBF741F9B0B18C
:10E8C000424659462046FBF741F9B8B1CDF800A0C1
:10E8D000206843464A46C56859462046A847CBE7C4
:10E8E000009728880C4B06EB00402AA20CE000970A
:10E8F0002888094B06EB00402CA205E000972888E9
:10E90000054B06EB004032A20FA100F0FAFA1020EE
:10E91000B2E70000941D00208831020021286C65B8
:10E920006E202520705F66732D3E705F666C61738C
:10E93000685F696E666F2D3E70726F6772616D5FA2
:10E94000756E697429000000257320636865636B28
:10E95000206661696C656420696E20257328292012
:10E96000776974682076616C756520307825782E1B
:10E9700000000000705F667300000000705F73723B
:10E9800063000000705F66732D3E705F6170690008
:10E990006C656E00616464725F69735F616C696766
:10E9A0006E6564333228646573742900616464722F
:10E9B0005F69735F616C69676E65643332282875BF
:10E9C000696E7433325F7429705F7372632900005B
:10E9D000616464725F69735F77697468696E5F62AE
:10E9E0006F756E647328705F66732C206465737432
:10E9F0002C206C656E29000070B541EA4201DDE90A
:10EA000004564FF0A04441EA830141EA052104EB9A
:10EA1000800041EA0641C0F8001770BD70B541EAB8
:10EA20004201DDE904564FF0A04441EA830141EA86
:10EA3000052104EB800041EA0641C0F8001770BDD3
:10EA400070B541EA4201DDE904564FF0A04441EAC5
:10EA5000830141EA052104EB800041EA0641C0F848
:10EA6000001770BD1CB5002100910B4601220191D9
:10EA7000FFF7E6FF1CBD1CB500220B4600921146B5
:10EA80000192FFF7DDFF1CBD1CB5002100910B4674
:10EA9000012201911146FFF7D3FF1CBD4FF0A042A8
:10EAA00002EB8000D0F8002722F44032C0F80027A3
:10EAB000D0F8002742EA0141C0F800177047012250
:10EAC0004FF0A043824011B1C3F808257047C3F846
:10EAD0000C25704718B5084B6C4601441B68009321
