:020000040000FA
:1000000058260020F902000001030000030300004D
:1000100005030000070300000903000000000000C2
:100020000000000000000000000000000B030000C2
:100030000D030000000000000F030000110300008A
:100040001303000013030000F9060000130300006F
:100050001303000013030000130300001303000048
:10006000BD060000D1060000E506000013030000F5
:100070001303000013030000130300001303000028
:100080001303000013030000130300001303000018
:100090001303000013030000130300001303000008
:1000A00013030000130300001303000013030000F8
:1000B0001303000013030000000000000000000014
:1000C00013030000130300001303000013030000D8
:1000D00013030000130300001303000000000000DE
:1000E0000000000000000000000000000000000010
:1000F0000000000000000000000000000000000000
:1001000000000000000000000000000000000000EF
:1001100000000000000000000000000000000000DF
:1001200000000000000000000000000000000000CF
:1001300000000000000000000000000000000000BF
:1001400000000000000000000000000000000000AF
:10015000000000000000000000000000000000009F
:10016000000000000000000000000000000000008F
:10017000000000000000000000000000000000007F
:10018000000000000000000000000000000000006F
:10019000000000000000000000000000000000005F
:1001A000000000000000000000000000000000004F
:1001B000000000000000000000000000000000003F
:1001C000000000000000000000000000000000002F
:1001D000000000000000000000000000000000001F
:1001E000000000000000000000000000000000000F
:1001F00000000000000000000000000000000000FF
:10020000DFF80CD000F0BAF800480047450C0000B9
:100210005826002030B4044654E8000F0D4644E848
:100220000053002BF8D1156030BC704730B4044641
:1002300054E8000F40EA010544E80053002BF7D1D1
:10024000156030BC704730B4044654E8000F00EA33
:10025000010544E80053002BF7D1156030BC70470E
:1002600030B4044654E8000F80EA010544E8005326
:10027000002BF7D1156030BC704730B4044654E809
:10028000000F00EB010544E80053002BF7D1156087
:1002900030BC704730B4044654E8000FA0EB0105B1
:1002A00044E80053002BF7D1156030BC704770B4A0
:1002B00004464FF0000054E8006F0D68AE4207BFDF
:1002C00044E80023012044E800630E60002B1CBFBB
:1002D0000020F0E770BC704730B4044654E8000FCB
:1002E00088422CBF451A054644E80053002BF5D13F
:1002F000156030BC7047000006488047064800473C
:10030000FEE7FEE7FEE7FEE7FEE7FEE7FEE7FEE7C5
:10031000FEE7FEE7A103000001020000004870476D
:10032000BC2B000040EA01039B0703D009E008C989
:10033000121F08C0042AFAD203E011F8013B00F8AA
:10034000013B521EF9D27047D2B201E000F8012BF6
:10035000491EFBD270470022F6E710B513460A4645
:1003600004461946FFF7F0FF204610BD421C10F866
:10037000011B0029FBD1801A70470000064C074D75
:1003800006E0E06840F0010394E807009847103465
:10039000AC42F6D3FFF738FF1C3000003C300000C1
:1003A000F0B5B5480023021D0178101D01254FF05E
:1003B000805406290BD11678360708D10678C6F383
:1003C0000316032E06D0042E04D0052E02D00629D3
:1003D00007D00EE0B4F82463A84FC6F304263E60AD
:1003E00002E01678360704D10678C6F30316032E0A
:1003F00002D0062904D00FE0A24FA14E7E670EE086
:100400001678360708D10678C6F30316032E06D0F1
:10041000042E04D0052E02D0062907D00EE0D4F811
:100420004462994FC6F342363E6002E016783607C2
:1004300004D10678C6F30316032E02D0062906D08F
:1004400011E0924E376827F0807737600EE016781B
:10045000360708D10678C6F30316032E06D0042EFD
:1004600004D0052E02D006290AD011E04FF08046B4
:10047000C6F80C31C6F81031834E361F336002E0E7
:100480001678360704D10678C6F30316032E02D079
:10049000062905D00CE07C4F032664373E600AE055
:1004A0001678360704D10678C6F30316032E02D059
:1004B00006290DD014E0764F05263E60744E78363E
:1004C0003560734E083633603F263F1D3E6002E0C4
:1004D0001678360704D10678C6F30316052E02D027
:1004E000062957D062E06B4E36686B4F3E60694E0E
:1004F000361D36683F1D3E60664E083636683F1D25
:100500003E60644E0C3636683F1D3E60614E1036CC
:1005100036683F1D3E605F4E143636683F1D3E60B4
:100520005C4E183636685C4F20373E60594E1C369C
:1005300036683F1D3E60574E203636683F1D3E6090
:10054000544E243636683F1D3E60524E283636687B
:100550003F1D3E604F4E2C3636683F1D3E604D4E6F
:10056000303636684C4F40373E604A4E3436366837
:100570003F1D3E60474E383636683F1D3E60454E53
:100580003C3636683F1D3E60424E403636683F1D61
:100590003E6002E01678360708D10678C6F30316E7
:1005A000032E06D0042E04D0052E02D0062907D033
:1005B00019E0D4F85812394A01F04F01116002E0F5
:1005C000117809070FD10078C0F30310032803D076
:1005D000042801D0052806D131480168C90702D096
:1005E0006FF001010160D4F83001062808D1D4F879
:1005F0003401062804D12B48016841F48061016070
:1006000022487438016841F470010160BFF34F8FD4
:10061000BFF36F8F4FF01021D1F80002002803DBE9
:10062000D1F80402002822DA1F4A15601F48046826
:10063000002CFCD01524C1F800420568002DFCD028
:10064000C1F8044201680029FCD013600168002948
:10065000FCD0BFF34F8F0D48F0380168144A01F405
:10066000E06111430160BFF34F8F00BFFDE7124906
:1006700010480860F0BD0000E00F00F04035014078
:100680000DF0ADBA00C007403C050040FCED00E0B5
:10069000105600400404001020C50040E40E004045
:1006A000000400403C17004004E5014000E4014024
:1006B0000400FA050090D003A000002004220249A3
:1006C000024800F03BBA0000BC000020008000405F
:1006D00004220249024800F031BA0000C80000209C
:1006E0000090004004220249024800F027BA0000AE
:1006F000D400002000A0004001480068004700002E
:100700002000002002E008C8121F08C1002AFAD108
:1007100070477047002001E001C1121F002AFBD181
:100720007047000072B601F043F800BF00F07EFE93
:100730000028FBD1104C0121208801EB00400FA1C3
:1007400000F080FF10480068C00700D000BE20887D
:10075000022101EB00400DA100F074FFBFF34F8FA9
:100760000948E43801680D4A01F4E0611143016071
:10077000BFF34F8F00BFFDE7B800002046617461F2
:100780006C206572726F7200F0ED00E05379737443
:10079000656D207265736574000000000400FA0541
:1007A0000EB500210091CDE901106A4644F2010026
:1007B000FFF7B8FF0EBD00F003B800F009B8000065
:1007C00072B602480168491C016070472800002089
:1007D00003490868401E086000D162B670470000F7
:1007E000280000202DE9F041064608680C46411C0F
:1007F0004FF0A0474FF0010506D005FA00F1C7F809
:100800000815206800F026FD6068411C02D0002118
:1008100000F00EFD3168A069C1F82405607D227DDD
:1008200031681043C1F86C05D4E900123068C0F893
:100830001425C0F80C15207D012815D1A068411C95
:1008400002D0002100F0F4FCE068411C05D0854096
:10085000C7F80855E06800F0FDFCD4E902123068E2
:10086000C0F80825C0F81015BDE8F0812DE9F04169
:10087000064608680C46411C4FF0A0474FF00105A2
:1008800006D005FA00F1C7F80815206800F0ECFC66
:100890006068411C02D0002100F0D3FC3168A069DF
:1008A000C1F82405607D217D32680843C2F86C05DB
:1008B000D4E900123068C0F80C15C0F81425207D6A
:1008C000012815D1A068411C02D0002100F0B9FC1C
:1008D000E068411C05D08540C7F80855E06800F085
:1008E000C3FCD4E902123068C0F80825C0F810151E
:1008F000BDE8F0812DE9F0470546861C90460F467D
:100900004FF001090020FFF756FF1B4C20683860AC
:10091000D4E90001401AA16804F21C47081A0EE04D
:100920000121384600F0A0FA00F03EF901463846B1
:1009300000F09AFAD4E90001401AA168081A401C94
:100940008642EDD8B8F1000F03D0052065F3891079
:1009500002E0062065F39F50A2682168114004EB75
:100960008101C8602068304420600020FFF725FF27
:100970004846BDE8F08700003002002030B48268AD
:100980000468531C8360A154D0E901128A4202D347
:1009900030BC00F01EBB30BC70470000034803C8E9
:1009A000814201D1012070470020704730020020B1
:1009B00010B50021024800F062FA80F3100010BD6B
:1009C0004C060020704700002DE9FC5F0E008346B6
:1009D000DDE90C47C6F1000098469246814600D4F6
:1009E0000846012503E000BF90FBFAF06D1C50455E
:1009F000FADAA84500D9454624B1002E01DB780774
:100A000000D5641EB80702D5B8F1000F0AD0F80768
:100A100008D13CB1A54205D220215846641EFFF7FB
:100A2000ADFFF6E7002E02DA4E462D2102E07807F0
:100A300003D52B215846FFF7A1FF07F0030002283A
:100A40000BD1B8F1000F08D13CB1A54205D230213D
:100A50005846641EFFF792FFF6E7CDE9004743468C
:100A600052463146584601F09FFEBDE8FC9F00000B
:100A700070B50D46044600684FF4887100F0B4FF6D
:100A80004FF49071206800F0AFFF4FF4927120682E
:100A900000F0AAFF4FF4A271206800F0A5FF2068C3
:100AA0001249C0F8041320686907000B40B2090E10
:100AB000002806DA00F00F0000F1E02080F8141D95
:100AC00003E000F1E02080F8001420680121000B11
:100AD00040B200F01F0291404009800000F1E02088
:100AE000C0F88012C0F8001170BD000010030200B1
:100AF000024600201268930702D0530702D47047C1
:100B0000500714D502F00300012802D002280CD1AE
:100B100005E0C2F383100B68801C184404E0022334
:100B2000086803EB9252104408600120704708687F
:100B300000EB9253C2F38910401CEEE72DE9F0411F
:100B4000174688460646002417E000BF4FF4A07001
:100B500000EB84054FF480307159A04059B1D6F8AC
:100B60000413014207D02946304600F021FFD8E99E
:100B7000002128469047641CE4B2BC42E6D3BDE89D
:100B8000F08100000121814003484068014201D00A
:100B9000012070470020704718000020012181408B
:100BA000080300D0012070472DE9FF4100262348AB
:100BB00000F057F92148001F074600F052F9204C79
:100BC00060680090A56800E000986946284004EB42
:100BD00080000C30FFF78CFF0028F5D101AA0099A6
:100BE00001EA050304EB8303491CDB6842F820306B
:100BF000401C00910228F2D3019800F00300012864
:100C00000BD0022810D10198032101EB90500099DC
:100C1000BDF80A6001EB900005E00198BDF80A609C
:100C2000C0F3831008440090384600F017F908B16B
:100C30000098606004B03046BDE8F08148060020AE
:100C4000300200200EB500244FF40041204600F091
:100C50006BFD08B1FFF7A4FD00F0DAFB01F0E2FA4A
:100C6000444D0926444AD5E90801CDE901018DF832
:100C7000046001A905F1080001F034F808B1FFF79C
:100C80008FFD3C486421083001F08CF802460120B9
:100C90000346009037480021083001F00DF8D5E9EF
:100CA0000A01CDE9010133488DF80460334A01A9F6
:100CB000103001F017F808B1FFF772FD2D484FF41E
:100CC000FA684146103001F06DF8024600272948C5
:100CD000012339461030009700F0EEFFD5E90C01F2
:100CE000CDE9010123488DF80460244A01A9183098
:100CF00000F0F8FF08B1FFF753FD1E4841461830D9
:100D000001F050F802461B480123002118300097DB
:100D100000F0D2FF1A4E03271AA1308807EB0040DB
:100D200000F090FC1348083000F0B8FF11494FF470
:100D3000A070491C88470F48103000F0AFFF174DD6
:100D40006FF00900686068680028FCD10948183015
:100D500000F0A4FF6A689442FCD03088144607EB88
:100D600000400FA100F072FC00F060FB0028FBD1F6
:100D7000F0E700006028000085240000C50900009D
:100D8000B8000020505049206578616D706C652076
:100D9000737461727465642E00000000000000200E
:100DA00043757272656E7420636F756E743A202598
:100DB000750000002DE9F047C7880446181D164647
:100DC0008946B0FBF7F1B0FBF7F207FB12009A1966
:100DD0003A44D21CB2FBF7F2DDF820A001E024680F
:100DE000491E0029FBD13D1A8846B54216D818E0A5
:100DF000BAF1000F05D0211809EB08002A46091D99
:100E000004E0204409EB08012A46001DFFF78AFA96
:100E100000202468761BA844B74201D9354600E07B
:100E20003D46002EE4D1BDE8F087000030B5024613
:100E300059B100F0A5FC0021074C09E004EB810347
:100E400015685B88AB4202D11160002030BD491C9F
:100E50008142F3D3052030BDA4000020002100F022
:100E600009B8012100F010B808B56A46FFF705FA85
:100E7000009808BD08B56A46FFF7E5F908BD08B552
:100E80006A46FFF7C7F908BD08B56A46FFF7CEF90D
:100E9000009808BD08B56A46FFF7FCF9009808BD40
:100EA00070B5044600252846FFF785FC2168626876
:100EB000086890420ED9401E08600178A38AE26853
:100EC00001FB0325227A2168101AC0B20A798242F6
:100ED00000D208710020FFF770FC284670BD70B585
:100EE00005460C460020FFF766FCE868A98A201A30
:100EF000B0FBF1F12A681068431C13600170BDE873
:100F000070400020FFF759BC10B530B1017A42683B
:100F10000368891AC9B21A6006E00E2010BD036882
:100F20001A68541C1C601170491EC9B2F7D20068BF
:100F300000210171084610BD0448017809B18520DF
:100F40007047012101700020704700000800002058
:100F5000F0B505460478154889B0164640F82420B7
:100F6000124A0869121DA2F1080742F82400487FBE
:100F7000385520226846FFF7D5F904942878385C64
:100F800048B10EB10A4A00E000226946281D01F06E
:100F900047F809B0F0BD0EB1064A00E000226946EC
:100FA00005F10C0000F00EFFF3E700001000002038
:100FB00085260000D12400000FB408B5039900294C
:100FC00004D004AA00926A4600F00FF801B05DF860
:100FD00014FB10B582680446002A05D0D4E9040346
:100FE000216898470020A06010BD2DE9FC4791467C
:100FF0000C00804676D014F8011B39B125290ED09B
:101000004046FFF7BBFC20780028F4D198F80C008C
:10101000002867D04046BDE8FC47FFF7DABF002054
:10102000012221782B291BD02D2902D0302908D16B
:1010300002E040F0010001E040F00200641C002AE0
:10104000EFD100252A290ED02178A1F130020A2AF9
:1010500011D205EB850201EB4205641C303DF1E73E
:1010600040F00400EAE7D9F800100B1DC9F8003081
:101070000968641C0D44217800232E290BD114F833
:10108000011FA1F130020A2A05D203EB830201EB12
:101090004203303BF3E76C290DD068290BD0692956
:1010A00021D00BDC252918D0582931D063290ED046
:1010B000642915D117E014F8011FECE7702969D0F5
:1010C000732932D075291BD0782909D120E0D9F8AD
:1010D0000000011DC9F8001001784046FFF74EFCE2
:1010E000641C90E76CE0D9F800100A1DC9F80020D4
:1010F0000968CDE900500A224046FFF765FCEFE79A
:10110000D9F800100A1DC9F8002009680A2206E073
:10111000D9F800100A1DC9F8002009681022CDE98D
:101120000050404601F040FBDAE7D9F800100027F4
:101130000A1DC9F800200E68C00705D112E040461C
:10114000761C7F1CFFF71AFC31780029F7D104E0E8
:10115000202140466D1EFFF711FCBD42C0D9002D75
:10116000F6D1BDE74EB13046FFF700F9074604E07F
:10117000202140466D1EFFF701FCBD4206D9002D1F
:10118000F6D103E04046761CFFF7F8FB31780029E2
:10119000F8D1A5E7D9F80000011DC9F800100568CD
:1011A00030214046FFF7EAFB78214046FFF7E6FB97
:1011B00008200021CDE90001034610222946B0E7AE
:1011C000BDE8FC8770B541EA4201DDE904564FF005
:1011D000A04441EA830141EA052104EB800041EA91
:1011E0000641C0F8001770BD70B541EA4201DDE963
:1011F00004564FF0A04441EA830141EA052104EB83
:10120000800041EA0641C0F8001770BD1CB50021FE
:1012100000910B4601220191FFF7D4FF1CBD1CB5C4
:10122000002100910B4601220191FFF7DDFF1CBD5B
:101230001CB500220B46009211460192FFF7C2FF37
:101240001CBD1CB500220B46009211460192FFF70F
:10125000CBFF1CBD1CB5002100910B460122019162
:101260001146FFF7AFFF1CBD1CB5002100910B46D6
:10127000012201911146FFF7B7FF1CBD30B5124B9B
:1012800001460020D3F81044224609E0157A854231
:1012900005D1401C0A28F7DB4FF0FF3030BD526803
:1012A000002AF3D1421CF9D00872D3F810242AB1D5
:1012B00052684A60D3F81024516030BD0022C3F850
:1012C00010144A6030BD000030020020F0B595B027
:1012D0001C4615460F4608461A9E00F021FB1821B1
:1012E00009A8FFF738F80E96CDE909540023082223
:1012F00003A9384600F029FB05980690BDF81000B8
:10130000ADF81C00BDF81200ADF81E0000208DF8ED
:1013100021000398082600F00300012802D00228CB
:1013200018D032E003983346850AC0F3C2008DF826
:10133000200003980FA9C0F38314A200384600F0E0
:1013400004FB09A8009006AB22460FA9284600F02E
:1013500043FA1AE00398840DC0F3C2008DF8200010
:10136000082C01D2254600E0082533462A460FA95D
:10137000384600F0EAFA2E44641B09AB06AA294657
:101380000FA800F07BF9002CEAD1384600F0CEFA25
:1013900015B0F0BD7047012001F0B8B8084810B58D
:1013A0000178084A515C19B1001D00F0C5FE02E049
:1013B0000C3000F0D3FDBDE81040002001F0A6B8CD
:1013C000300000200C00002008B5034A00924023A2
:1013D000024AFFF77BFF08BDB9230000300100205F
:1013E0000A4A012902EBC00007D0022907D00329CD
:1013F00007D0042907D0002070470220704704203E
:101400007047007970474079704700003C30000019
:1014100010B5FFF7C0FF04210348FFF72FFF024973
:101420000120487210BD0000440000202DE9F04763
:101430008CB0FFF7B3FA18B100200CB0BDE8F0870C
:10144000784C0020C4F81804BFF34F8F60680290F6
:10145000A5684FF00008284004EB800008E02168F0
:101460000298814201D86160E6E7284004EB8000E1
:101470000C3002A9FFF73CFB0028F0D103AB029926
:1014800001EA050204EB8202491CD26843F82020DD
:10149000401C02910228F2D3039800F003000228B6
:1014A00002D001284ED0A5E003985022810D894634
:1014B000B2EB905F00D850210E4666F39F50039028
:1014C0000831594800F0E3F9070078D000F028FA15
:1014D0004346082203A9384600F03DFA029908F174
:1014E000080A2940681A8000001D864223D94D4D04
:1014F0000C3530B1C2B204EB8101301A90460C3188
:1015000004E02946F2B2002590462846C6B253466A
:10151000384600F020FA0AEB08032DB1324629467E
:101520004FEA070000F017FA029909F1030001EBF6
:10153000900002903AE004EB81015346324638466F
:101540000C31EFE70398C0F38311062900D306217D
:1015500061F389100390C0F38310801C810032482E
:1015600000F095F9070045D000F0DAF9434608226B
:1015700003A9384600F0EFF908F1080800260FE04B
:101580000298434600EA0501401C04EB81010290E9
:10159000042238460C3100F0DEF908F10408761C0C
:1015A0000398C0F38310B042EAD847B1D4F810547E
:1015B000D4F8180468B1384600F0B8F92CE019E006
:1015C000687A012804D12A6828463946126890476B
:1015D0006D68002DF4D1384600F0A8F90020FFF71F
:1015E000EAF8D4F8180408B9029860600020FFF700
:1015F000E4F811E0D4F8104404E02168204689683A
:1016000088476468002CF8D108480221008801EB63
:10161000004007A100F016F8FFF7C0F980F00100C4
:101620000BE70000300200206C300000B800002002
:101630004261636B656E647320666C757368656484
:101640000000000000231A4600F0D6BE08B50123B2
:1016500000926A4600F0D0FE08BD1CB5CDE900231B
:1016600002236A4600F0C8FE1CBD3EB5069C8DE80C
:101670001C0003236A4600F0BFFE3EBD2DE9F04783
:101680000E4680461C46924608293ED894F80C9097
:10169000002020731946104600F006FE0025B542D2
:1016A00006D218F805201AA12046FFF785FC03E0B2
:1016B00019A12046FFF780FC6D1C082DEFD317A160
:1016C0002046FFF779FC0025B54210D218F80570C6
:1016D000FEF724FE0068C05D10F03E0F01D03A46D0
:1016E00000E02E220EA12046FFF766FC03E00DA1CC
:1016F0002046FFF761FC6D1C082DE5D30122214631
:10170000504600F071FD84F80C90BDE8F0870000B1
:101710002025303278000000202020007C000000CE
:101720002563000020000000104810B5FF218160F3
:10173000002101604160C0F81814C0F8141480F84A
:1017400020140B4800F0F0F800280DD109480A4990
:101750000A4B401AC108002003E000BF23F8200014
:10176000401C8842FAD3002010BD00003002002047
:101770006C3000006C3000003C300000A400002001
:1017800002480349401AC008704700006C3000004E
:101790003C30000013B56846FFF748FB08B1002055
:1017A0001CBD0248009950F831001CBD3C300000BF
:1017B00070B508480125D0F8104480F8205405E0A1
:1017C000657221682046496888476468002CF7D113
:1017D00070BD0000300200202DE9FF4781460C9DBE
:1017E00000200C462F7B287398461646294618463B
:1017F00000F05AFD072E42D2DFE806F004090F166A
:101800001F2A360049462846FFF7D6FB37E04946EF
:1018100028462268FFF7D0FB31E0D4E9002349468F
:101820002846FFF7C9FB2AE0A0680090D4E900230E
:1018300049462846FFF7C0FB21E0D4E90201CDE983
:101840000001D4E9002349462846FFF7B5FB16E01E
:1018500004F1080007C88DE80700D4E900234946D1
:101860002846FFF7A9FB0AE004F108000FC88DE83D
:101870000F00D4E9002349462846FFF79DFB0022CC
:101880002946404600F0B0FC2F73BDE8FF872DE9E4
:10189000F041858A80462D1F4819C01CB0FBF5F029
:1018A000C6B24046FFF7FCFA041E19D00020207192
:1018B00001206071E58000272546761EC4F800806F
:1018C0000BE04046FFF7ECFA60B16179491C6171A9
:1018D000286005467F1CC0F80080B742F1D320463F
:1018E000BDE8F081204600F002F80020F8E72DE97D
:1018F000F041457901466B1E002201E00968521C47
:101900009A42FBD30F680146002605E038460C6872
:10191000FFF7E5FA2146761CAE42F7D3BDE8F08129
:101920000121001DFFF7A0BAFFF7EEBA10B504467B
:101930000121001DFFF7AEFA10F0FF0F04D1204681
:10194000BDE81040FFF7D3BF10BD38B501240094A7
:10195000FFF730FA38BD38B500240094FFF72AFAB3
:1019600038BD00000C4A10B502F58C730EE0991AD0
:10197000C91001EBD171491002EBC1010C6884421E
:1019800001D90B4602E005D201F108029A42EED3DA
:10199000002010BD486810BDF429000000B5FFF715
:1019A000E1FF002800D1014800BD0000E02900004F
:1019B00008B5002242504058009008BD4058002809
:1019C00000D00120704708B50022425040580090D6
:1019D00008BDD0F80403084000D0012070474058EB
:1019E000002800D00120704708B50022425040581E
:1019F000009008BD0121B1EB507F01D1012070475B
:101A0000002070472DE9F05F0427204EDFF880901A
:101A1000834600244FF0030A4FF001080020FEF730
:101A2000CAFE08FA04F5354203D02046FFF7AAF8AB
:101A3000B8B10020FEF7C1FEFFB104F10104AE43CE
:101A4000E4B2EBD13846FFF7A9FFB9F8001003461E
:101A50000AEB01400F4A10A1FFF7FFFD3846BDE831
:101A6000F09F154908FA04F000274A6810434860BF
:101A70008BF800403846FEF7A0FEB9F80010224669
:101A80000AEB01400DA1FFF7E1FDDBE7FFFF0F00CF
:101A9000B80000209828000046756E6374696F6E68
:101AA0003A2025732C206572726F7220636F646513
:101AB0003A2025732E00000018000020416C6C6F46
:101AC0006361746564206368616E6E656C3A20259D
:101AD000642E00002DE9F84314460D0081462CD0F9
:101AE000002C2AD00026FFF759F8174F4FF00308B3
:101AF000002824D04846FFF745F8002821D0134895
:101B000000EBC900C0F81055C0F81445009439889E
:101B10002B4608EB01404A460DA1FFF7A6FD3046D3
:101B2000FFF73CFF3988034608EB0140184A19A12A
:101B3000FFF793FD3046BDE8F8830E20FBE707264C
:101B4000EDE70826EBE70000B800002000F00140B8
:101B500041737369676E6564206368616E6E656C5E
:101B60003A2025642C206576656E7420656E6420AD
:101B7000706F696E743A2025782C207461736B2025
:101B8000656E6420706F696E743A2025782E0000AF
:101B9000C528000046756E6374696F6E3A20257320
:101BA0002C206572726F7220636F64653A20257312
:101BB0002E00000070B5044601260025A640FEF761
:101BC000EDFF18B12046FEF7DDFF80B10948066041
:101BD0002846FFF7E3FE034607480321074A00882B
:101BE00001EB004006A1FFF738FD284670BD08252F
:101BF000EEE7000004F50140B8000020FA280000DC
:101C000046756E6374696F6E3A2025732C20657279
:101C1000726F7220636F64653A2025732E00000096
:101C200070B50D4600F08CFB04000FD00020FEF7CD
:101C3000C2FD207920B10020FEF7BFFD112070BD4C
:101C40000120256020710020FEF7B7FD002070BD47
:101C500010B500F075FB002802D000210160017171
:101C600010BD2DE9F04106460D464FF48034006862
:101C70001746AC404BB14FF4A07101EB8501FFF763
:101C800097FE3068C0F8044301E0C0F808433068AC
:101C900000EB8500C0F84075BDE8F08101680122C5
:101CA0000A600079034A00EB400002EB8000022149
:101CB00001727047BC000020F0B40468049E40F23A
:101CC0000115D4F800728D40AF43C4F80072046867
:101CD000D4F800521D43C4F800523346F0BCFFF75D
:101CE000C0BF00002DE9F04104460E4600792C49A2
:101CF00000EB400001EB8007387A10B10820BDE806
:101D0000F0813A60706800254FF4A078786006E0B2
:101D100008EB85012068FFF74BFE6D1CEDB2607982
:101D2000A842F5D82068F178000B40B200284FEAAD
:101D3000411106DA00F00F0000F1E02080F8141DD8
:101D400003E000F1E02080F8001420680122000B7D
:101D500040B200F01F0302FA03F14009800000F1D5
:101D6000E020C0F88012C0F8001120687178D0F827
:101D7000043561F30103C0F804352068B178D0F868
:101D8000083561F30103C0F8083520683178D0F8D0
:101D9000103561F30303C0F810353A720020AEE746
:101DA000BC0000200068D0F810254FF47A5048435A
:101DB000D04070470149024800F0D0BBE00000204D
:101DC000002000402DE9F0410546007916460F46F7
:101DD00000EB40012D4A01EBC00102EB810494F8B5
:101DE0002A1011B10820BDE8F081294951F82010CE
:101DF0002868FFF715FF08B11120F4E73946284697
:101E0000FEF7F0FC66603869206030004FF0010694
:101E10002FD03F7F4FF48E712868FFF7D4FD4FF429
:101E2000A2712868FFF7CFFD28681A49C0F804138B
:101E300028684FEA4711000B40B2002806DA00F08C
:101E40000F0000F1E02080F8141D03E000F1E02015
:101E500080F800142868000B40B200F01F0206FA58
:101E600002F14009800000F1E020C0F88012C0F8C3
:101E7000001128680421C0F800150020A061E0616D
:101E800084F8290044F8140FA675ACE7E0000020A0
:101E9000C8290000800002002DE9F04705460079BE
:101EA0000B4600EB400101EBC000234901EB80042D
:101EB000284600F043F810B11120BDE8F0874FF03C
:101EC0000008C4F82080A360626184F828804FF481
:101ED0008E76474631462868FFF775FD28684FF033
:101EE0000109C0F808902146286800F0D3FA60681C
:101EF00000BBD5F800A00EE094F8280008B10F2729
:101F000016E031465046FFF759FD0028F4D021462F
:101F1000504600F0BFFA216A60698142F1D3314630
:101F20002868FFF74BFD0028F9D02868C0F80C900E
:101F3000C4F814803846C0E7E0000020007900EBC8
:101F4000400101EBC000044901EB8000406900281A
:101F500000D0012070470000E00000202DE9F0478C
:101F6000044600794FF0000900EB400101EBC0008E
:101F7000254901EB80072068C0F80095786880B19A
:101F800020682249C0F8081320680121000B40B2E4
:101F900000F01F0291404009800000F1E020C0F8ED
:101FA00080112068D0F80C25D0F81485D0F8086589
:101FB000D0F810554FF0FF31C0F81415C0F80C15CB
:101FC0002068C0F80815C0F81015501C02D0104643
:101FD000FFF71CF9B8F1FF3F02D04046FFF716F9B2
:101FE000681C02D02846FFF711F9701C02D0304659
:101FF000FFF70CF92068FFF72BFE87F82A90C7F847
:102000000490BDE8F0870000E00000208402020098
:102010000149024800F04EBB0C01002000200040A6
:102020002DE9F0410546164600790F46154A00EBAA
:10203000C00102EB810494F8201011B10820BDE822
:10204000F081114951F820102868FFF7E9FD08B127
:102050001120F4E739462846FEF708FC6660386927
:1020600020601EB1397F2846FEF702FD286808214E
:10207000C0F800150020A061E0610121606184F8D2
:102080002010DCE70C010020CC2900002DE9F047EE
:1020900004460E460079204900EBC00001EB8005A4
:1020A00017463046FFF7A6FC30B1204600F036F860
:1020B00020B11120BDE8F0871020FBE76F61AE6012
:1020C0004FF49076002731462068FFF78DFC4FF4DF
:1020D000AC7841462068FFF787FC2068AA686969E8
:1020E000C0F84425C0F8481520680121816068685F
:1020F00078B9B14649462068FFF771FC064641466B
:102100002068FFF76CFC0643F4D000B10F270020D5
:1021100068613846CEE700000C01002000790549CF
:1021200000EBC00001EB80004069002800D00120D6
:10213000704700000C0100202DE9F04704460079AB
:10214000274900EBC00001EB800720684FF0000931
:10215000C0F80095786880B120682249C0F808135B
:1021600020680121000B40B200F01F02914040099D
:10217000800000F1E020C0F880112068D0F80C2524
:10218000D0F81485D0F80865D0F810554FF0FF311D
:10219000C0F80C15C0F814152068C0F80815C0F870
:1021A0001015501C02D01046FFF739F8B8F1FF3F68
:1021B00002D04046FFF733F8681C02D02846FFF7EC
:1021C0002EF8701C02D03046FFF729F82068FFF780
:1021D0003FFD87F82090C7F80490BDE8F087000025
:1021E0000C0100201003020010B50C46017A0529ED
:1021F00008D0407A38B1084808A102682046FEF7A6
:10220000DBFE00E01AB106A12046FEF7D5FE20460F
:10221000BDE81040FEF7DDBE7C0000202573000005
:102220000D0A000070B5FEF787FE08B1FEF7B8FA98
:102230001B48FFF7E7FB08B1FEF7B2FA194D184C3F
:1022400005F108002A680168207801F5A071121DC7
:10225000FFF740FC08B1FEF7A3FA1148401CFFF756
:10226000D1FB08B1FEF79CFA0E482A6810300168CD
:10227000607801F5A071FFF72DFC08B1FEF790FA28
:102280002078FFF797FC08B1FEF78AFA6078FFF72D
:1022900091FC002803D0BDE87040FEF781BA70BD04
:1022A000000000206828000038B5C3880D460446A9
:1022B00033B114A0009015A216A12846FEF77CFEAB
:1022C000217A05291CD0607A48B1A088FFF788F8E8
:1022D000164951F8202016A12846FEF76DFEA08869
:1022E0000021FFF757FA03461049207A143951F8B4
:1022F000202001B02846BDE830400EA1FEF75CBEAC
:1023000038BD00001B5B306D000000001B5B313BE3
:1023100033316D0025734C6F67732064726F70707A
:102320006564202825642925730D0A007C0000209F
:10233000257300003C25733E2025733A20000000E1
:102340000349884201D103487047002070470000CC
:10235000002000402000002070B5054688690C462A
:1023600000284FF4847128460AD0FFF72CFBD5F8DB
:102370001805626AE1688854606A401C606270BD3A
:10238000FFF721FBD5F8180570BD1FB501238DF8A7
:102390000030CDE90121D0E90012684690471FBD09
:1023A0001FB501238DF800308DF808100192D0E997
:1023B0000012684690471FBD70B50D4C0020D2B288
:1023C0002070201D0B4D0378EB5C1BB1001DFFF747
:1023D0005DFE02E00C30FFF75FFD08B1FEF7E0F9AB
:1023E0006078002802D021780029FAD070BD000062
:1023F0002C0000200C0000202DE9F84F204D9246C3
:10240000894606469846012269461846AF68FEF797
:1024100071FA58B3009800210446801C09E000BFFF
:1024200000EA07035AF8212005EB8303401C491CEE
:10243000DA604145F4D34FEA164AFEF7B9FA4AEAA0
:102440000041601C384005EB80003C4005EB8402F5
:10245000C160D06866F3C50068F3891069F39F20F6
:1024600020F00300401C20F00400D06095F8200408
:1024700002E000BFFEF7DAFF0028FBD1BDE8F88FCD
:102480003002002002484168491C4160704700004A
:102490000000002070B50C4605464FF48E71FFF722
:1024A00092FA216AA068415C206A401C2062C5F84B
:1024B0001C1570BD1FB500228DF8002002918168A7
:1024C00001914261D0E90012684690471FBD0000AB
:1024D0001FB50A4601788DF8001041680191017A14
:1024E0008DF80810C0680390044850F82210001FAF
:1024F00050F82220684690471FBD000014000020BD
:1025000001490120087070472C00002010B588B0E8
:10251000044620220E496846FDF704FF062000907D
:10252000C01F0190029003904FF0EB7006900CB129
:10253000084A00E0002269460748FEF709FD08B195
:10254000FEF72EF90448001F447008B010BD0000CB
:10255000182B000001250000300000202DE9FF4766
:102560000C4605464FF40071FFF733FA01274FF48C
:102570000178002618B34FF4927949462846FFF7B0
:102580001DFAE0B149462846FFF71DFAC5F8088351
:1025900094F8290000B96F6002208DF80000D5F88A
:1025A0008004C5F880040390A0690290E06801905F
:1025B000A661E661D4E900126846904728E004214C
:1025C0002846FFF706FA18B34FF484712846FFF740
:1025D000F5F9E8B121462846FFF7BEFE616AA06919
:1025E000884215D1E06938B1E268616AA06120696A
:1025F000E6616662E06008E094F8290000B96F6067
:10260000C5F80883A661E268616A2046FFF7BDFE4F
:102610004FF48E7841462846FFF7D0F978B1206A0A
:102620006169884202D294F8280020B341462846C6
:10263000FFF7C9F9616911B12046FFF73BFF4FF47D
:10264000A27841462846FFF7B9F9002818D041463C
:102650002846FFF7B8F994F8290000B12F60A06967
:1026600000280DD0A661E268616A04B02046BDE88A
:10267000F047FFF78ABE21462846FFF70BFFDEE74B
:10268000BDE8FF871FB50A4601788DF80010416844
:102690000191017A8DF80810C0680390044850F841
:1026A0002210001F50F82220684690471FBD0000EE
:1026B000140000202DE9FF410C464FF492770546A7
:1026C0003946FFF78CF90026C0B139462846FFF796
:1026D0008BF902208DF80000D5F88004C5F880043D
:1026E0000390D5F83C058DF80800E0680190A661DC
:1026F000E661D4E900126846904723E04FF48877FA
:1027000039462846FFF76BF9E0B139462846FFF70E
:102710006BF9D5F83C15A069884213D1E06960B126
:10272000E268D5F8000220F02000C5F80002E06958
:10273000A0612069E661E06001E0A661E2682046F0
:10274000FFF72EFE4FF4A27739462846FFF747F9E8
:1027500060B139462846FFF747F9A06930B1A66154
:10276000D5F83C152046E268FFF71AFE4FF4907743
:1027700039462846FFF733F9002813D03946284652
:10278000FFF732F9606900280CD0D5F84C058DF8B8
:1027900000608DF80800A06801906661D4E900121D
:1027A00068469047BDE8FF812DE9F05F8346DDE98B
:1027B0000A4A994690460D460846012703E000BFA5
:1027C000B0FBF8F07F1C4045FAD2B94500D94F461E
:1027D0005FEACA7012D18CB15FEA8A7002D5B9F192
:1027E000000F01D0202607E0302605E0314658468C
:1027F000641EFEF7C3F80CB1A742F7D35FF00106E1
:10280000B9F1010F02D9A9F1010903E0B5FBF6F016
:10281000404502D306FB08F6F2E7DFF83C9000BF24
:10282000B5FBF6F000FB165519F800105846FEF7F8
:10283000A5F8B6FBF8F6002EF2D15FEACA7009D00F
:10284000002C07D0A74205D220215846641EFEF76F
:1028500095F8F5E7BDE8F09FD029000000000000E2
:102860000338FDD8704700000080004000040000DD
:10287000009000400104000000A00040020400009D
:10288000000000070000000000000007000000003A
:1028900000000007000000006E7266785F707069CB
:1028A0005F6368616E6E656C5F616C6C6F63006E18
:1028B0007266785F7070695F6368616E6E656C5F89
:1028C00066726565006E7266785F7070695F6368D6
:1028D000616E6E656C5F61737369676E006E7266C0
:1028E000785F7070695F6368616E6E656C5F666F5C
:1028F000726B5F61737369676E006E7266785F708A
:1029000070695F6368616E6E656C5F656E61626C55
:1029100065006E7266785F7070695F6368616E6E85
:10292000656C5F64697361626C65006E7266785F86
:102930007070695F67726F75705F616C6C6F630058
:102940006E7266785F7070695F67726F75705F66D0
:10295000726565006E7266785F7070695F67726F2E
:1029600075705F656E61626C65006E7266785F702F
:1029700070695F67726F75705F64697361626C65BF
:10298000006E7266785F7070695F6368616E6E6515
:102990006C735F72656D6F76655F66726F6D5F6792
:1029A000726F7570006E7266785F7070695F6368D1
:1029B000616E6E656C735F696E636C7564655F698B
:1029C0006E5F67726F757000B51D0000112000000A
:1029D0003031323334353637383941424344454655
:1029E000556E6B6E6F776E206572726F7220636FBB
:1029F0006465000000000000242F000001000000BA
:102A0000E42D000002000000D82B000003000000AD
:102A1000582E000004000000AC2E0000050000004D
:102A20008C2D000006000000282D0000070000008B
:102A3000942E000008000000A02D000009000000F6
:102A4000042E00000A0000000C2F00000B00000004
:102A5000C02B00000C000000B82D00000D0000008D
:102A60005C2F00000E000000842E00000F0000000C
:102A7000C02E000010000000F42E00001100000025
:102A8000702F000080000000402D00008100000039
:102A90007C2C0000820000003C2C00008300000021
:102AA0001C2C000084000000582C00008500000051
:102AB000642D0000860000006C2E000090000000D5
:102AC000082D000091000000FC2B00009200000087
:102AD000CC2D000000820000D42E000001820000F6
:102AE000202E0000028200003C2E00000084000026
:102AF000982C000001840000302F000002840000A8
:102B0000E02C000003840000BC2C0000C91300006E
:102B10009D13000095130000FFFFFFFFFFFFFFFF65
:102B2000FFFFFFFFFFFFFFFF0000000000000000AD
:102B30000000D601070100000040404040404040F6
:102B40004040414141414140404040404040404080
:102B50004040404040404040400502020202020224
:102B60000202020202020202022020202020202073
:102B70002020200202020202020290909090909087
:102B80001010101010101010101010101010101045
:102B900010101010020202020202888888888888B9
:102BA00008080808080808080808080808080808A5
:102BB000080808080202020240000000392B000049
:102BC0004E52465F4552524F525F494E56414C4914
:102BD000445F4441544100004E52465F4552524FBB
:102BE000525F534F46544445564943455F4E4F54F8
:102BF0005F454E41424C4544000000004E52465F46
:102C00004552524F525F464541545552455F4E4FD3
:102C1000545F454E41424C45440000004E52465FD1
:102C20004552524F525F4D555445585F554E4C4F8B
:102C3000434B5F4641494C45440000004E52465FBD
:102C40004552524F525F4D555445585F4C4F434B80
:102C50005F4641494C4544004E52465F4552524FF3
:102C6000525F4D555445585F434F4E445F494E495E
:102C7000545F4641494C4544000000004E52465FB7
:102C80004552524F525F4D555445585F494E495435
:102C90005F4641494C4544004E52465F4552524FB3
:102CA000525F424C455F495053505F52585F504B02
:102CB000545F5452554E4341544544004E52465F72
:102CC0004552524F525F424C455F495053505F50FE
:102CD0004545525F52454A45435445440000000073
:102CE0004E52465F4552524F525F424C455F4950EB
:102CF00053505F4C494E4B5F444953434F4E4E45F2
:102D000043544544000000004E52465F4552524F26
:102D1000525F4150495F4E4F545F494D504C454DB5
:102D2000454E5445440000004E52465F4552524FB6
:102D3000525F4E4F545F535550504F5254454400CC
:102D40004E52465F4552524F525F4D4F44554C458F
:102D50005F4E4F545F494E495449414C495A45448E
:102D6000000000004E52465F4552524F525F4D4F99
:102D700044554C455F414C52454144595F494E4989
:102D80005449414C495A4544000000004E52465FA8
:102D90004552524F525F4E4F545F464F554E44007E
:102DA0004E52465F4552524F525F494E56414C4932
:102DB000445F5354415445004E52465F4552524F72
:102DC000525F444154415F53495A45004E52465F59
:102DD0004552524F525F494F5F50454E44494E470E
:102DE000000000004E52465F4552524F525F53560C
:102DF000435F48414E444C45525F4D495353494E01
:102E0000470000004E52465F4552524F525F494EB6
:102E100056414C49445F4C454E4754480000000021
:102E20004E52465F4552524F525F4452565F54577E
:102E3000495F4552525F414E41434B004E52465FFF
:102E40004552524F525F4452565F5457495F455264
:102E5000525F444E41434B004E52465F4552524FE3
:102E6000525F494E5445524E414C00004E52465F0F
:102E70004552524F525F53544F524147455F46555A
:102E80004C4C00004E52465F4552524F525F4E55D9
:102E90004C4C00004E52465F4552524F525F494ED5
:102EA00056414C49445F504152414D004E52465F9D
:102EB0004552524F525F4E4F5F4D454D000000004E
:102EC0004E52465F4552524F525F464F524249441E
:102ED00044454E004E52465F4552524F525F445257
:102EE000565F5457495F4552525F4F5645525255AF
:102EF0004E0000004E52465F4552524F525F494EBF
:102F000056414C49445F4144445200004E52465F92
:102F10004552524F525F494E56414C49445F464CD0
:102F2000414753004E52465F535543434553530068
:102F30004E52465F4552524F525F424C455F495098
:102F400053505F4348414E4E454C5F414C524541C2
:102F500044595F4558495354530000004E52465F50
:102F60004552524F525F54494D454F555400000051
:102F70004E52465F4552524F525F425553590000E0
:102F80007761726E696E6700646562756700000044
:102F90001B5B313B33306D001B5B306D000000006C
:102FA0001B5B313B33316D001B5B313B33326D00BA
:102FB0001B5B313B33336D001B5B313B33346D00A6
:102FC0001B5B313B33356D001B5B313B33366D0092
:102FD0001B5B313B33376D00696E666F000000008C
:102FE0006572726F720000005052530054494D4593
:102FF0005200000055415254000000005541525407
:103000004500000062616C6C6F632E6C6F675F6DD2
:10301000656D706F6F6C000061707000843000002F
:1030200000000020BC000000040700004031000048
:10303000BC0000209C25000014070000E82F0000C1
:1030400000000000EC2F000000000000F42F000042
:1030500000000000FC2F0000000000000430000011
:103060000000000318300000000003035800002097
:10307000500000205800002070010020B400002003
:103080001800000000000000000000000000000028
:103090000000000000000000000000000000000030
:1030A0000000000000000000000000000000000020
:1030B00000000000000000000020004000000000B0
:1030C00000200040000000000C2B00000000000069
:1030D00000000000000000000000000000000000F0
:1030E00000000000000000000000000000000000E0
:1030F000E02F0000802F0000D82F0000882F000054
:10310000982F0000902F0000A02F0000A82F000093
:10311000B02F0000B82F0000C02F0000C82F000003
:10312000D02F00000090D00300000000000000003D
:10313000000000000000000000000000000000008F
:0400000500000201F4
:00000001FF
