:020000040000FA
:10000000E0270020F90200000103000003030000C4
:1000100005030000070300000903000000000000C2
:100020000000000000000000000000000B030000C2
:100030000D030000000000000F030000110300008A
:10004000130300001303000049070000130300001E
:100050001303000013030000130300001303000048
:100060001303000013030000130300001303000038
:100070001303000013030000130300001303000028
:100080001303000005040000130300001303000025
:1000900029040000130300001303000013030000F1
:1000A00013030000130300001303000013030000F8
:1000B0001303000013030000000000000000000014
:1000C00013030000130300001303000013030000D8
:1000D00013030000130300001303000000000000DE
:1000E0000000000000000000000000000000000010
:1000F0000000000000000000000000000000000000
:1001000000000000000000000000000000000000EF
:1001100000000000000000000000000000000000DF
:1001200000000000000000000000000000000000CF
:1001300000000000000000000000000000000000BF
:1001400000000000000000000000000000000000AF
:10015000000000000000000000000000000000009F
:10016000000000000000000000000000000000008F
:10017000000000000000000000000000000000007F
:10018000000000000000000000000000000000006F
:10019000000000000000000000000000000000005F
:1001A000000000000000000000000000000000004F
:1001B000000000000000000000000000000000003F
:1001C000000000000000000000000000000000002F
:1001D000000000000000000000000000000000001F
:1001E000000000000000000000000000000000000F
:1001F00000000000000000000000000000000000FF
:10020000DFF80CD000F0BAF80048004705110000F4
:10021000E027002030B4044654E8000F0D4644E8BF
:100220000053002BF8D1156030BC704730B4044641
:1002300054E8000F40EA010544E80053002BF7D1D1
:10024000156030BC704730B4044654E8000F00EA33
:10025000010544E80053002BF7D1156030BC70470E
:1002600030B4044654E8000F80EA010544E8005326
:10027000002BF7D1156030BC704730B4044654E809
:10028000000F00EB010544E80053002BF7D1156087
:1002900030BC704730B4044654E8000FA0EB0105B1
:1002A00044E80053002BF7D1156030BC704770B4A0
:1002B00004464FF0000054E8006F0D68AE4207BFDF
:1002C00044E80023012044E800630E60002B1CBFBB
:1002D0000020F0E770BC704730B4044654E8000FCB
:1002E00088422CBF451A054644E80053002BF5D13F
:1002F000156030BC7047000006488047064800473C
:10030000FEE7FEE7FEE7FEE7FEE7FEE7FEE7FEE7C5
:10031000FEE7FEE72D0400000102000000487047E0
:10032000542B000040EA01039B0703D009E008C9F1
:10033000121F08C0042AFAD203E011F8013B00F8AA
:10034000013B521EF9D27047D2B201E000F8012BF6
:10035000491EFBD270470022F6E710B513460A4645
:1003600004461946FFF7F0FF204610BD421C10F866
:10037000011B0029FBD1801A70470000064C074D75
:1003800006E0E06840F0010394E807009847103465
:10039000AC42F6D3FFF738FFEC2B00000C2C00002A
:1003A00000F01F02012191404009800000F1E0208F
:1003B000C0F88012704700F01F02012191404009EF
:1003C000800000F1E020C0F80011704700F01F022B
:1003D000012191404009800000F1E020C0F80012A6
:1003E00070474907090E002806DA00F00F0000F1F7
:1003F000E02080F8141D704700F1E02080F8001420
:100400007047000007480021C0F84011C0F84411AF
:10041000C0F84811C0F84C11C0F80011C0F8041120
:1004200002F0DCB80010014002F04AB8F0B5B5485F
:100430000023021D0178101D01254FF0805406296C
:100440000BD11678360708D10678C6F30316032EAB
:1004500006D0042E04D0052E02D0062907D00EE0C7
:10046000B4F82463A84FC6F304263E6002E0167871
:10047000360704D10678C6F30316032E02D00629E8
:1004800004D00FE0A24FA14E7E670EE0167836072B
:1004900008D10678C6F30316032E06D0042E04D026
:1004A000052E02D0062907D00EE0D4F84462994FF9
:1004B000C6F342363E6002E01678360704D106786D
:1004C000C6F30316032E02D0062906D011E0924E81
:1004D000376827F0807737600EE01678360708D146
:1004E0000678C6F30316032E06D0042E04D0052E7C
:1004F00002D006290AD011E04FF08046C6F80C3130
:10050000C6F81031834E361F336002E01678360786
:1005100004D10678C6F30316032E02D0062905D0AF
:100520000CE07C4F032664373E600AE016783607FD
:1005300004D10678C6F30316032E02D006290DD087
:1005400014E0764F05263E60744E78363560734E63
:10055000083633603F263F1D3E6002E016783607BE
:1005600004D10678C6F30316052E02D0062957D00B
:1005700062E06B4E36686B4F3E60694E361D3668E2
:100580003F1D3E60664E083636683F1D3E60644E35
:100590000C3636683F1D3E60614E103636683F1D92
:1005A0003E605F4E143636683F1D3E605C4E183626
:1005B00036685C4F20373E60594E1C3636683F1D0A
:1005C0003E60574E203636683F1D3E60544E2436FE
:1005D00036683F1D3E60524E283636683F1D3E60ED
:1005E0004F4E2C3636683F1D3E604D4E30363668D5
:1005F0004C4F40373E604A4E343636683F1D3E60B1
:10060000474E383636683F1D3E60454E3C363668AC
:100610003F1D3E60424E403636683F1D3E6002E060
:100620001678360708D10678C6F30316032E06D0CF
:10063000042E04D0052E02D0062907D019E0D4F8E4
:100640005812394A01F04F01116002E01178090790
:100650000FD10078C0F30310032803D0042801D081
:10066000052806D131480168C90702D06FF00101A1
:100670000160D4F83001062808D1D4F834010628E6
:1006800004D12B48016841F480610160224874382C
:10069000016841F470010160BFF34F8FBFF36F8FAA
:1006A0004FF01021D1F80002002803DBD1F804023A
:1006B000002822DA1F4A15601F480468002CFCD06D
:1006C0001524C1F800420568002DFCD0C1F8044291
:1006D00001680029FCD0136001680029FCD0BFF339
:1006E0004F8F0D48F0380168144A01F4E06111435E
:1006F0000160BFF34F8F00BFFDE71249104808604B
:10070000F0BD0000E00F00F0403501400DF0ADBA43
:1007100000C007403C050040FCED00E010560040E2
:100720000404001020C50040E40E00400004004016
:100730003C17004004E5014000E401400400FA05D4
:100740000090D003A400002001480068004700008A
:100750000C00002002E008C8121F08C1002AFAD1CC
:1007600070477047002001E001C1121F002AFBD131
:100770007047000072B601F023FA00BF01F070F874
:100780000028FBD111481249401AC408012000EB8F
:10079000044010A101F07CF911480068C00700D0A6
:1007A00000BE022000EB04400EA101F071F9BFF37E
:1007B0004F8F0B48E43801680E4A01F4E0611143A1
:1007C0000160BFF34F8F00BFFDE70000342C000035
:1007D0001C2C0000466174616C206572726F72009F
:1007E000F0ED00E053797374656D20726573657484
:1007F000000000000400FA050EB500210091CDE9CB
:1008000001106A4644F20100FFF7B4FF0EBD00007C
:10081000074B9B7823B12AB120B10068037C1BB140
:1008200008207047072070474174426100207047DC
:100830001801002070B501F08FFD104800240B2135
:10084000047044700E4D817014206C602C706C70BC
:10085000FFF7A6FD06211420FFF7C3FD1420FFF7C4
:10086000AAFD0848046006211120FFF7BAFD0548DB
:10087000001F0068A860002070BD00001801002063
:100880001C000020081501402DE9F843DFF87090A6
:1008900099F802305BB350B3052902D20720BDE8B6
:1008A000F88343691BB3437C012B22D00027044605
:1008B000002588461646284600F026F8684602F0CD
:1008C000ABF8C0B1012101700E4944600968C0E96C
:1008D0000218C0E904769DF8000089F801000020A4
:1008E00000F014F81420FFF771FD2846D7E7082020
:1008F000D5E70F46DBE70425002000F007F8F4E712
:10090000180100200415014000F002B800F008B8FA
:1009100072B602480168491C01607047300000202F
:1009200003490868401E086000D162B670470000A5
:10093000300000202DE9F041064608680C46411CB5
:100940004FF0A0474FF0010506D005FA00F1C7F8B7
:100950000815206800F092FE6068411C02D000215A
:1009600000F07AFE3168A069C1F82405607D227D1F
:1009700031681043C1F86C05D4E900123068C0F842
:100980001425C0F80C15207D012815D1A068411C44
:1009900002D0002100F060FEE068411C05D08540D7
:1009A000C7F80855E06800F069FED4E90212306823
:1009B000C0F80825C0F81015BDE8F0812DE9F04118
:1009C000064608680C46411C4FF0A0474FF0010551
:1009D00006D005FA00F1C7F80815206800F058FEA7
:1009E0006068411C02D0002100F03FFE3168A06920
:1009F000C1F82405607D217D32680843C2F86C058A
:100A0000D4E900123068C0F80C15C0F81425207D18
:100A1000012815D1A068411C02D0002100F025FE5C
:100A2000E068411C05D08540C7F80855E06800F033
:100A30002FFED4E902123068C0F80825C0F810155E
:100A4000BDE8F0812DE9F0470546861C90460F462B
:100A50004FF001090020FFF757FF1B4C206838605A
:100A6000D4E90001401AA16804F21C47081A0EE0FC
:100A70000121384600F018FC00F0F6FA014638462D
:100A800000F012FCD4E90001401AA168081A401CC9
:100A90008642EDD8B8F1000F03D0052065F3891028
:100AA00002E0062065F39F50A2682168114004EB24
:100AB0008101C8602068304420600020FFF726FFD5
:100AC0004846BDE8F0870000BC03002030B48268CF
:100AD0000468531C8360A154D0E901128A4202D3F6
:100AE00030BC00F08ABC30BC70470000034803C82B
:100AF000814201D10120704700207047BC030020D3
:100B00002DE9F05F26484168F1B3DFF898B00E6830
:100B10008146DBF8004087688078E11B21F07F4543
:100B2000ED1CB0B9DFF880804FF48030C8F8440382
:100B3000C8F804031120FFF733FC1120FFF73BFC3A
:100B40004FF0010AC8F800A02F2001F043F989F8FE
:100B500002A0B54200D23546124BE8193C3320F0D2
:100B60007F401860DBF800105A46091B21F07F41D6
:100B7000001B20F07F40C91C81420FD9106818600B
:100B80002F2001F027F900E004E0BDE8F05F11201C
:100B9000FFF71CBCBDE8F05F01F0DEBBBDE8F09FD5
:100BA0001C000020041501400010014010B5002178
:100BB000024800F084FB80F3100010BDD80700202D
:100BC0000E4910B50A784C780023A24212D0521C6C
:100BD000D2B20A70022A00D10B70084A0B780C328C
:100BE00052F8232002608868104420F07F4088601B
:100BF000012010BD0360002010BD00001C0000207B
:100C00002DE9FC5F0E008346DDE90C47C6F10000CC
:100C100098469246814600D40846012503E000BF6D
:100C200090FBFAF06D1C5045FADAA84500D945460C
:100C300024B1002E01DB780700D5641EB80702D569
:100C4000B8F1000F0AD0F80708D13CB1A54205D28F
:100C500020215846641EFFF739FFF6E7002E02DA1E
:100C60004E462D2102E0780703D52B215846FFF789
:100C70002DFF07F0030002280BD1B8F1000F08D1B7
:100C80003CB1A54205D230215846641EFFF71EFF35
:100C9000F6E7CDE90047434652463146584601F053
:100CA00061FEBDE8FC9F000070B50D46044600687B
:100CB0004FF4887101F087F84FF49071206801F0CB
:100CC00082F84FF49271206801F07DF84FF4A27120
:100CD000206801F078F820681249C0F804132068F1
:100CE000690740F30730090E002806DA00F00F000C
:100CF00000F1E02080F8141D03E000F1E02080F80E
:100D000000142068012140F3073000F01F029140D9
:100D10004009800000F1E020C0F88012C0F8001106
:100D200070BD000010030200024600201268530745
:100D300013D502F00300012802D002280CD105E0EF
:100D4000C2F383100B68801C184404E00223086877
:100D500003EB92521044086001207047124800686B
:100D60004FF48011104A8143121D1160111D00F4CF
:100D7000801008604FF0A040D0F804154FF40052E6
:100D80008A43C0F8082501F40051C0F80C15074843
:100D900007494FF44872401AC008032101EB004094
:100DA00004A100F079BE000004050050342C0000BE
:100DB0001C2C00002D2D2D2D2D2D2D2D2D2D2D2DCF
:100DC0002D2D2D2D2D2D2D2D2D2D2D2D2D20253461
:100DD00064206D7300000000F0B5D8B1002104223A
:100DE0004BF207256426047812E0436853F831700B
:100DF00057B102EBC107DB5933B1642B04D3B3FB0A
:100E0000F6F706FB17330BB12846F0BD491CC9B2F3
:100E10008C42EAD8014948600020F0BD140000204F
:100E20000B4800684FF40031094A8143121D1160DC
:100E3000111D00F40030086006480749401AC00838
:100E4000032101EB0040642204A100F025BE000054
:100E500004050050342C00001C2C00002D2D2D2DDD
:100E600020253464206D73000B4800684FF4002186
:100E7000094A8143121D1160111D00F40020086011
:100E8000064807494FF4C872401AC008032101EB15
:100E9000004004A100F000BE04050050342C000006
:100EA0001C2C00002D2D2D2D2D2D2D2D2D2D2D2DDE
:100EB0002D2D2D2D2D2D20253464206D7300000047
:100EC0000B4800684FF48021094A8143121D1160CC
:100ED000111D00F48020086006480749401AC00828
:100EE000032101EB0040C82204A100F0D5BD0000A1
:100EF00004050050342C00001C2C00002D2D2D2D3D
:100F00002D2D2D2D2D2D2D20253464206D730000C9
:100F100010B500F007F8002803D0BDE81040FFF737
:100F20006BBC10BD70B5114C206864302060C043AC
:100F3000642801D2642020606068A8B100250426DE
:100F40000EE0416806EBC5000A582068B0FBF2F3DA
:100F500002FB130212B951F8351088476D1CEDB22F
:100F600060680178A942ECD8002070BD1400002010
:100F70002DE9F047394E002780463D46DFF8E090E6
:100F8000D6F804A057E003D00446D0F81C8035E022
:100F900099F8002002EB4201521CD2B289F80020DD
:100FA00009EBC10199F80230091D9A4201D189F873
:100FB000005048680A780446012A12D0022A02D05A
:100FC000032A3BD108E001F0D9FA00B101272574CA
:100FD00034E00574C06900E070680028F9D17060E1
:100FE0002CE0207C50BB88686060C868A0600869FD
:100FF000E0604869A061F07800B165606268B1683E
:10100000184B501A20F07F40984202D2A168084441
:1010100006E0881AA16820F07F40814202D9081AB0
:10102000206000E0256065600120A56020742046F6
:10103000E56101F085FAB8F10000A4D199F800103B
:1010400099F801008142A3D117B97168514502D0C6
:101050000120BDE8F0870020FBE700001C00002015
:1010600018010020FFFF7F002DE9FF4100262348E3
:1010700000F017F92148001F074600F012F9204C34
:1010800060680090A56800E000986946284004EB7D
:1010900080000C30FFF748FE0028F5D101AA009926
:1010A00001EA050304EB8303491CDB6842F82030A6
:1010B000401C00910228F2D3019800F0030001289F
:1010C0000BD0022810D10198032101EB9050009918
:1010D000BDF80A6001EB900005E00198BDF80A60D8
:1010E000C0F3831008440090384600F0D7F808B1E8
:1010F0000098606004B03046BDE8F081D40700205D
:10110000BC0300204FF40041002000F023FD08B193
:10111000FFF772FB00F096FB002001214FF0A04288
:101120005FF0030401FA00F313F4F01F03D002EBA5
:101130008003C3F80047401C2028F3D31F4A4FF414
:10114000F01010600020121D10601D4A11604FF059
:101150008042C2F804019160D2F804110029FBD04A
:10116000C2F80401FFF766FB08B1FFF745FB154A1B
:1011700001211548FFF74CFB08B1FFF73DFB124872
:10118000001DFFF729FE08B1FFF736FB0E480022CD
:1011900040F6CD410068FFF777FB08B1FFF72CFB65
:1011A0000A480B49401AC00804EB004009A100F0AE
:1011B0006FFC00BF00F054FBFCE700000805005086
:1011C00018050040110F0000482A0000342C0000D0
:1011D0001C2C00004170706C69636174696F6E2033
:1011E000737461727465642E000000002DE9F0478D
:1011F000C5881E1DB6FBF5F78946B6FBF5F104461A
:1012000005FB176C407916686843DDF820A0F718D5
:10121000001F874200D9C61A166001E02468491EE3
:101220000029FBD1A5EB0C078846B74216D818E079
:1012300004EB0C00001D09EB0803BAF1000F3A465D
:1012400002D00146184600E01946FFF76BF8246803
:10125000F61B4FF0000CB844B54201D9374600E008
:101260002F46002EE4D1BDE8F087000030B50246DD
:1012700051B100F08DFC0021074C08E034F821301A
:101280001568AB4202D11160002030BD491C81427B
:10129000F4D3052030BD000000000000002100F064
:1012A00009B8012100F010B808B56A46FEF7E5FF5D
:1012B000009808BD08B56A46FEF7C5FF08BD08B529
:1012C0006A46FEF7A7FF08BD08B56A46FEF7AEFFFF
:1012D000009808BD08B56A46FEF7DCFF009808BD17
:1012E00070B5044600252846FFF70EFB21686268AA
:1012F000086890420ED9401E08600178238AE2688F
:1013000001FB0325227A2168101AC0B20A798242B1
:1013100000D208710020FFF7F9FA284670BD70B5B9
:1013200005460C460020FFF7EFFAE868298A201AE4
:10133000B0FBF1F12A681068431C13600170BDE82E
:1013400070400020FFF7E2BA10B530B1017A426870
:101350000368891AC9B21A6006E00E2010BD03683E
:101360001A68541C1C601170491EC9B2F7D200687B
:1013700000210171084610BDF0B5054604781548F6
:1013800089B0164640F82420124A0869121DA2F1BD
:10139000080742F82400487F385520226846FEF7A7
:1013A000C1FF04942878385C48B10EB10A4A00E0C5
:1013B00000226946281D00F075FE09B0F0BD0EB18F
:1013C000064A00E00022694605F10C0000F03CFDF1
:1013D000F3E7000004000020412800008D260000F3
:1013E0000FB408B50399002904D004AA00926A46F4
:1013F00000F00FF801B05DF814FB10B582680446E8
:10140000002A05D0D4E90403216898470020A06091
:1014100010BD2DE9FC4791460C00804676D014F8AB
:10142000011B39B125290ED04046FFF74FFB20782C
:101430000028F4D198F80C00002867D04046BDE899
:10144000FC47FFF7DABF0020012221782B291BD0AF
:101450002D2902D0302908D102E040F0010001E03E
:1014600040F00200641C002AEFD100252A290ED08A
:101470002178A1F130020A2A11D205EB850201EB95
:101480004205641C303DF1E740F00400EAE7D9F87A
:1014900000100B1DC9F800300968641C0D44217848
:1014A00000232E290BD114F8011FA1F130020A2AC2
:1014B00005D203EB830201EB4203303BF3E76C29D7
:1014C0000DD068290BD0692921D00BDC252918D033
:1014D000582931D063290ED0642915D117E014F8AA
:1014E000011FECE7702969D0732932D075291BD010
:1014F000782909D120E0D9F80000011DC9F80010B1
:1015000001784046FFF7E2FA641C90E76CE0D9F8F6
:1015100000100A1DC9F800200968CDE900500A2210
:101520004046FFF76DFBEFE7D9F800100A1DC9F838
:10153000002009680A2206E0D9F800100A1DC9F83F
:10154000002009681022CDE90050404601F00AFA57
:10155000DAE7D9F8001000270A1DC9F800200E6844
:10156000C00705D112E04046761C7F1CFFF7AEFA9B
:1015700031780029F7D104E0202140466D1EFFF7A5
:10158000A5FABD42C0D9002DF6D1BDE74EB1304617
:10159000FEF7ECFE074604E0202140466D1EFFF7F3
:1015A00095FABD4206D9002DF6D103E04046761CDF
:1015B000FFF78CFA31780029F8D1A5E7D9F80000B7
:1015C000011DC9F80010056830214046FFF77EFA7A
:1015D00078214046FFF77AFA08200021CDE9000182
:1015E000034610222946B0E7BDE8FC8770B541EA02
:1015F0004201DDE904564FF0A04441EA830141EA8B
:10160000052104EB800041EA0641C0F8001770BDD7
:1016100070B541EA4201DDE904564FF0A04441EAC9
:10162000830141EA052104EB800041EA0641C0F84C
:10163000001770BD1CB5002100910B4601220191DD
:10164000FFF7D4FF1CBD1CB5002100910B46012201
:101650000191FFF7DDFF1CBD1CB500220B46009277
:1016600011460192FFF7C2FF1CBD1CB500220B46BC
:10167000009211460192FFF7CBFF1CBD1CB5002163
:1016800000910B46012201911146FFF7AFFF1CBDEF
:101690001CB5002100910B46012201911146FFF774
:1016A000B7FF1CBD30B5154A01460020D2F81044E2
:1016B00023460AE0DB681D79854205D1401C0A28D3
:1016C000F6DB4FF0FF3030BD1B68002BF2D1431C1E
:1016D000F9D0CB681871D2F8103443B1DB68CC680C
:1016E0001B682360D2F81024D268116030BDC2F8A4
:1016F0001014C96800220A6030BD0000BC0300203D
:10170000F0B595B01C4615460F4608461A9E00F0E7
:1017100011FB182109A8FEF71EFE0E96CDE909540B
:101720000023082203A9384600F019FB059806900B
:10173000BDF81000ADF81C00BDF81200ADF81E0099
:1017400000208DF821000398082600F003000128EE
:1017500002D0022818D032E003983346850AC0F33D
:10176000C2008DF8200003980FA9C0F38314A200D3
:10177000384600F0F4FA09A8009006AB22460FA9FB
:10178000284600F033FA1AE00398840DC0F3C20033
:101790008DF82000082C01D2254600E008253346AC
:1017A0002A460FA9384600F0DAFA2E44641B09AB2A
:1017B00006AA29460FA800F077F9002CEAD138468E
:1017C00000F0BEFA15B0F0BD7047012000F07CBFFC
:1017D000084810B50178084A515C19B1001D00F0A5
:1017E000EDFC02E00C3000F0FBFBBDE810400020F7
:1017F00000F06ABF380000200000002008B5034A4E
:1018000000924023024AFFF77BFF08BDF52300004A
:10181000240200200A4A012902EBC00007D0022955
:1018200007D0032907D0042907D0002070470220E1
:101830007047042070470079704740797047000076
:101840001C2C000010B5FFF7C0FF04210348FFF770
:1018500029FF02490120C968487110BD0C2C000005
:101860002DE9F0478CB0FFF741F918B100200CB01A
:10187000BDE8F0877D4C0020C4F81804BFF34F8FFB
:1018800060680290A5684FF00008284004EB8000D3
:101890000CE000BFD4F8180470B9216802988142A6
:1018A00001D86160E2E7284004EB80000C3002A917
:1018B000FFF73AFA0028EDD1002003AA029901EAC5
:1018C000050304EB8303491CDB6842F82030401C0D
:1018D00002910228F2D3039800F00300022802D0FC
:1018E00001284DD0A7E003985022810D8946B2EB24
:1018F000905F00D850210E4666F39F500390083148
:101900005B4800F0CEF9070078D000F013FA4346A8
:10191000082203A9384600F02AFA029908F1080AB9
:101920002940681A8000001D864222D94F4D0C358F
:1019300030B1C2B204EB8101301A90460C3104E0A0
:101940002946F2B2002590462846C6B2534638468C
:1019500000F00DFA0AEB080325B132462946384655
:1019600000F005FA029909F1030001EB90000290E2
:101970003BE004EB81015346324638460C31EFE739
:101980000398C0F38310062800D30620039960F360
:101990008911C1F38310801C03918100344800F049
:1019A00080F9070047D000F0C5F94346082203A993
:1019B000384600F0DCF908F1080800260FE002982C
:1019C000434600EA0501401C04EB81010290042219
:1019D00038460C3100F0CBF908F10408761C039866
:1019E000C0F38310B042EAD847B1D4F81054D4F809
:1019F000180478B1384600F0A3F931E01BE0E8683C
:101A00004079012804D12A6828463946126890474F
:101A1000E8680568002DF2D1384600F091F9002001
:101A2000FEF772FFD4F8180408B90298606000202D
:101A3000FEF76CFF14E0D4F8104405E0216820465E
:101A400089688847E0680468002CF7D109480A498A
:101A5000401AC008022101EB004008A100F018F86C
:101A6000FFF744F880F0010001E70000BC0300200C
:101A70003C2C0000342C00001C2C00004261636BE5
:101A8000656E647320666C757368656400000000A1
:101A900000231A4600F0CEBC08B5012300926A4626
:101AA00000F0C8FC08BD00002DE9F0470E46804656
:101AB0001C46924608293ED894F80C9000202073CA
:101AC0001946104600F0F0FB0025B54206D218F882
:101AD00005201AA12046FFF783FC03E019A1204648
:101AE000FFF77EFC6D1C082DEFD317A12046FFF7F2
:101AF00077FC0025B54210D218F80570FEF70EFCF1
:101B00000068C05D10F03E0F01D03A4600E02E2282
:101B10000EA12046FFF764FC03E00DA12046FFF76D
:101B20005FFC6D1C082DE5D301222146504600F0D4
:101B30009DFB84F80C90BDE8F08700002025303232
:101B400078000000202020007C00000025630000B9
:101B5000200000000B4810B5FF21816000210160CA
:101B60004160C0F81814C0F8141480F82014064816
:101B700000F0E4F8002803D1044800F000F9002048
:101B800010BD0000BC0300203C2C0000C42A000053
:101B900002480349401AC008704700003C2C00006E
:101BA0001C2C000013B56846FFF760FB08B100204D
:101BB0001CBD0248009950F831001CBD1C2C0000CF
:101BC00070B509480125D0F8104480F8205407E08A
:101BD000E06845712168204649688847E0680468E4
:101BE000002CF5D170BD0000BC0300202DE9FF479B
:101BF00081460C9D00200C462F7B28739846164684
:101C00002946184600F050FB072E42D2DFE806F0C6
:101C100004090F161F2A360049462846FFF7E0FB45
:101C200037E0494628462268FFF7DAFB31E0D4E97D
:101C3000002349462846FFF7D3FB2AE0A06800901E
:101C4000D4E9002349462846FFF7CAFB21E0D4E93E
:101C50000201CDE90001D4E9002349462846FFF7F7
:101C6000BFFB16E004F1080007C88DE80700D4E9BF
:101C7000002349462846FFF7B3FB0AE004F10800B9
:101C80000FC88DE80F00D4E9002349462846FFF726
:101C9000A7FB00222946404600F0E8FA2F73BDE872
:101CA000FF872DE9F041058A80462D1F4819C01C89
:101CB000B0FBF5F0C6B24046FFF712FB041E19D088
:101CC0000020207101206071E58000272546761EE6
:101CD000C4F800800BE04046FFF702FB60B1617979
:101CE000491C6171286005467F1CC0F80080B7421E
:101CF000F1D32046BDE8F081204600F002F8002034
:101D0000F8E72DE9F041457901466B1E002201E01C
:101D10000968521C9A42FBD30F680146002605E071
:101D200038460C68FFF7FBFA2146761CAE42F7D323
:101D3000BDE8F0810121001DFFF7B6BAFFF704BB33
:101D400010B504460121001DFFF7C4FA10F0FF0F83
:101D500004D12046BDE81040FFF7D3BF10BD1CB52D
:101D600001920122009201AAFFF740FA1CBD1CB5A6
:101D700001920022009201AAFFF738FA1CBD826886
:101D80000021916082681161826851618268D1602E
:101D9000826851608068016070474058002800D018
:101DA0000120704708B5002242504058009008BDFD
:101DB000D0F80403084000D00120704740580028A4
:101DC00000D00120704708B50022425040580090D2
:101DD00008BD0000002802D0014980010847704773
:101DE000812A00000121B1EB507F01D10120704711
:101DF0000020704770B50D4600F0A2FA04000FD025
:101E00000020FEF781FD207920B10020FEF77EFD45
:101E1000112070BD0120256020710020FEF776FDA5
:101E2000002070BD10B500F08BFA002802D0002110
:101E30000160017110BD00000149024800F06CBC56
:101E4000C8000020002000402DE9F041054600793F
:101E500016460F4600EB40012D4A01EBC00102EB94
:101E6000810494F82A1011B10820BDE8F0812949B5
:101E700051F820102868FFF7BDFF08B11120F4E7E2
:101E800039462846FEF756FD666038692060300006
:101E90004FF001062FD03F7F4FF48E712868FFF777
:101EA00081FF4FF4A2712868FFF77CFF28681A4968
:101EB000C0F8041328684FEA471140F307300028A0
:101EC00006DA00F00F0000F1E02080F8141D03E0B6
:101ED00000F1E02080F80014286840F3073000F09B
:101EE0001F0206FA02F14009800000F1E020C0F86C
:101EF0008012C0F8001128680421C0F800150020E5
:101F0000A061E06184F8290044F8140FA675ACE7DD
:101F1000C8000020742A0000800002002DE9F0476C
:101F2000054600790B4600EB400101EBC000234958
:101F300001EB8004284600F043F810B11120BDE801
:101F4000F0874FF00008C4F82080A360626184F835
:101F500028804FF48E76474631462868FFF722FFE7
:101F600028684FF00109C0F808902146286800F061
:101F70006FFB606800BBD5F800A00EE094F8280065
:101F800008B10F2716E031465046FFF706FF00283C
:101F9000F4D02146504600F05BFB216A6069814223
:101FA000F1D331462868FFF7F8FE0028F9D02868F9
:101FB000C0F80C90C4F814803846C0E7C800002070
:101FC000007900EB400101EBC000044901EB800007
:101FD0004069002800D0012070470000C8000020A0
:101FE0002DE9F047044600794FF0000900EB40016D
:101FF00001EBC000254901EB80072068C0F800957F
:10200000786880B120682249C0F80813206801214F
:1020100040F3073000F01F0291404009800000F1BA
:10202000E020C0F880112068D0F80C25D0F8148585
:10203000D0F80865D0F810554FF0FF31C0F81415EE
:10204000C0F80C152068C0F80815C0F81015501C11
:1020500002D01046FFF7EEFAB8F1FF3F02D040463B
:10206000FFF7E8FA681C02D02846FFF7E3FA701C75
:1020700002D03046FFF7DEFA2068FFF7D3FE87F87C
:102080002A90C7F80490BDE8F0870000C80000203F
:10209000840202000149024800F0EABBF40000207B
:1020A000002000402DE9F0410546164600790F4614
:1020B000154A00EBC00102EB810494F8201011B125
:1020C0000820BDE8F081114951F820102868FFF779
:1020D00091FE08B11120F4E739462846FEF76EFC60
:1020E0006660386920601EB1397F2846FEF7DCFD46
:1020F00028680821C0F800150020A061E0610121D6
:10210000606184F82010DCE7F4000020782A0000E9
:102110002DE9F04704460E460079204900EBC00047
:1021200001EB800517463046FFF75CFE30B12046D4
:1021300000F036F820B11120BDE8F0871020FBE751
:102140006F61AE604FF49076002731462068FFF74C
:102150003AFE4FF4AC7841462068FFF734FE206821
:10216000AA686969C0F84425C0F8481520680121AB
:102170008160686878B9B14649462068FFF71EFE5D
:10218000064641462068FFF719FE0643F4D000B129
:102190000F27002068613846CEE70000F4000020D9
:1021A0000079054900EBC00001EB80004069002880
:1021B00000D0012070470000F40000202DE9F04716
:1021C00004460079274900EBC00001EB8007206836
:1021D0004FF00009C0F80095786880B12068224966
:1021E000C0F808132068012140F3073000F01F02F7
:1021F00091404009800000F1E020C0F88011206883
:10220000D0F80C25D0F81485D0F80865D0F8105512
:102210004FF0FF31C0F80C15C0F814152068C0F855
:102220000815C0F81015501C02D01046FFF70BFA25
:10223000B8F1FF3F02D04046FFF705FA681C02D014
:102240002846FFF700FA701C02D03046FFF7FBF972
:102250002068FFF7E7FD87F82090C7F80490BDE8F5
:10226000F0870000F40000201003020010B50C46B7
:10227000017A052908D0407A38B1084808A10268D7
:102280002046FFF7ADF800E01AB106A12046FFF79F
:10229000A7F82046BDE81040FFF7AFB88000002047
:1022A000257300000D0A000038B5C3880D460446AA
:1022B00033B114A0009015A216A12846FFF790F89C
:1022C000217A05291CD0607A48B1A088FFF7A2FACC
:1022D000164951F8202016A12846FFF781F8A0885A
:1022E0000021FFF75FFC03461049207A143951F8AA
:1022F000202001B02846BDE830400EA1FFF770B89D
:1023000038BD00001B5B306D000000001B5B313BE3
:1023100033316D0025734C6F67732064726F70707A
:102320006564202825642925730D0A00800000209B
:10233000257300003C25733E2025733A20000000E1
:102340000349884201D103487047002070470000CC
:10235000002000400C00002070B5012670044FF0F2
:10236000E0210025C1F88001084C4010C4F8480362
:10237000C4F8080366602F20FFF72CFDA660044C0C
:102380002F20A560FFF726FDA57070BD001001404D
:102390001C00002070B5054688690C4600284FF4E3
:1023A000847128460AD0FFF7FDFCD5F81805626A4B
:1023B000E1688854606A401C606270BDFFF7F2FCFF
:1023C000D5F8180570BD1FB501238DF80030CDE993
:1023D0000121D0E90012684690471FBD1FB50123B7
:1023E0008DF800308DF808100192D0E9001268468F
:1023F00090471FBD70B50D4C0020D2B22070201D3B
:102400000B4D0378EB5C1BB1001DFFF781FE02E072
:102410000C30FFF783FD08B1FEF7EEF96078002875
:1024200002D021780029FAD070BD000034000020CD
:10243000000000202DE9F84F204D924689460646BF
:102440009846012269461846AF68FEF7FBFA58B372
:10245000009800210446801C09E000BF00EA070341
:102460005AF8212005EB8303401C491CDA604145E2
:10247000F4D34FEA164AFEF799FB4AEA0041601C82
:10248000384005EB80003C4005EB8402C160D06819
:1024900066F3C50068F3891069F39F2020F00300FC
:1024A000401C20F00400D06095F8200402E000BF3A
:1024B000FFF7D6F90028FBD1BDE8F88FBC03002058
:1024C0002DE9F84F1D4C00256846D4E901A6FEF71A
:1024D00077FB002738B30023009A61681CE0D1F82D
:1024E00000C00846944503D9ACEB02020A6015E02F
:1024F000A2EB0C0263440760D0F80CC0C1698146AE
:10250000BCF1000F08D006EB030828F07F48C0E9B3
:10251000018CC9F81C5005460029E0D128466160AD
:10252000FEF726FD03E02846FEF722FD10B15046D7
:10253000FEF7E6FAE770BDE8F88F00001C00002007
:102540000D4B10B5596831B102680C68A24204D82D
:10255000A21A0A60C161586010BD0B4603E00B4629
:10256000C969121B21B10C689442F8D3A41A0C60FB
:102570000260C161D86110BD1C0000202DE9F0414E
:10258000144E77683D462C4603E0844204D025462D
:10259000E469002CF9D11BE0D4B1A5420BD1F86954
:1025A000706040B90C49012088600021B160F07072
:1025B0002F20FFF70FFC2168E069E86110B1026885
:1025C000114401607068874202D00120BDE8F081AB
:1025D0000020FBE71C000020001001402DE9F04125
:1025E000194D6C68002C2CD0184800270068A96889
:1025F000B846401A20F07F462068B0420CD82146E9
:10260000361A0744E469087C20B181F81080886993
:1026100049698847002CEFD129786878814206D132
:10262000401CC0B26870022801D185F801800648BC
:1026300069780C3040F82170BDE8F0411420FDF7B6
:10264000C5BEBDE8F08100001C000020041501405B
:1026500070B50C4605464FF48E71FFF7A3FB216A57
:10266000A068415C206A401C2062C5F81C1570BD42
:102670001FB500228DF8002002918168019142610E
:10268000D0E90012684690471FBD00001FB50A46FA
:1026900001788DF8001041680191017A8DF80810D9
:1026A000C0680390044850F82210001F50F8222000
:1026B000684690471FBD0000080000200149012026
:1026C000087070473400002010B588B004462022FE
:1026D0000E496846FDF726FE06200090C01F0190B7
:1026E000029003904FF0EB7006900CB1084A00E0A6
:1026F000002269460748FEF73FFE08B1FEF77CF866
:102700000448001F447008B010BD0000A42A000057
:10271000BD260000380000202DE9FF470C46054685
:102720004FF40071FFF744FB01274FF401780026B6
:1027300018B34FF4927949462846FFF72EFBE0B1D3
:1027400049462846FFF72EFBC5F8088394F8290070
:1027500000B96F6002208DF80000D5F88004C5F83C
:1027600080040390A0690290E0680190A661E66190
:10277000D4E900126846904728E004212846FFF774
:1027800017FB18B34FF484712846FFF706FBE8B136
:1027900021462846FFF7FEFD616AA069884215D1EF
:1027A000E06938B1E268616AA0612069E661666249
:1027B000E06008E094F8290000B96F60C5F808836C
:1027C000A661E268616A2046FFF7FDFD4FF48E784E
:1027D00041462846FFF7E1FA78B1206A61698842EC
:1027E00002D294F8280020B341462846FFF7DAFACF
:1027F000616911B12046FFF73BFF4FF4A2784146D3
:102800002846FFF7CAFA002818D041462846FFF7A5
:10281000C9FA94F8290000B12F60A06900280DD0F2
:10282000A661E268616A04B02046BDE8F047FFF7A0
:10283000CABD21462846FFF70BFFDEE7BDE8FF874C
:102840001FB50A4601788DF8001041680191017AA0
:102850008DF80810C0680390044850F82210001F3B
:1028600050F82220684690471FBD00000800002055
:102870002DE9FF410C464FF4927705463946FFF7A4
:102880009DFA0026C0B139462846FFF79CFA02207F
:102890008DF80000D5F88004C5F880040390D5F8C1
:1028A0003C058DF80800E0680190A661E661D4E976
:1028B00000126846904723E04FF48877394628464F
:1028C000FFF77CFAE0B139462846FFF77CFAD5F8E5
:1028D0003C15A069884213D1E06960B1E268D5F87F
:1028E000000220F02000C5F80002E069A061206924
:1028F000E661E06001E0A661E2682046FFF76EFD58
:102900004FF4A27739462846FFF758FA60B13946A6
:102910002846FFF758FAA06930B1A661D5F83C15F2
:102920002046E268FFF75AFD4FF490773946284673
:10293000FFF744FA002813D039462846FFF743FA38
:10294000606900280CD0D5F84C058DF800608DF832
:102950000800A06801906661D4E9001268469047BB
:10296000BDE8FF812DE9F05F8346DDE90A4A99461B
:1029700090460D460846012703E000BFB0FBF8F083
:102980007F1C4045FAD2B94500D94F465FEACA706C
:1029900012D18CB15FEA8A7002D5B9F1000F01D073
:1029A000202607E0302605E031465846641EFEF733
:1029B0008DF80CB1A742F7D35FF00106B9F1010F12
:1029C00002D9A9F1010903E0B5FBF6F0404502D3B5
:1029D00006FB08F6F2E7DFF83C9000BFB5FBF6F027
:1029E00000FB165519F800105846FEF76FF8B6FBB5
:1029F000F8F6002EF2D15FEACA7009D0002C07D099
:102A0000A74205D220215846641EFEF75FF8F5E77D
:102A1000BDE8F09F862A00000A494A788B78521C4C
:102A2000D2B2934200D100220B78934201D1002010
:102A300070470270487800EB400001EBC000001DB9
:102A40007047000018010020A800002004000000CA
:102A5000542A0000210E000064000000C10E000096
:102A6000C8000000690E0000900100005D0D00002C
:102A700020030000391E0000952000000000000027
:102A80000338FDD870473031323334353637383972
:102A90004142434445460000FD170000D1170000A5
:102AA000C9170000FFFFFFFFFFFFFFFFFFFFFFFF52
:102AB000FFFFFFFF00000000000000000000D60143
:102AC00006010000240300207F000000A403002072
:102AD0000040404040404040404041414141414031
:102AE00040404040404040404040404040404040E6
:102AF0004005020202020202020202020202020275
:102B00000220202020202020202020020202020279
:102B100002029090909090901010101010101010D1
:102B200010101010101010101010101002020202DD
:102B30000202888888888888080808080808080821
:102B4000080808080808080808080808020202021D
:102B500040000000D12A00007761726E696E670044
:102B600064656275670000001B5B313B33306D00AC
:102B70001B5B306D000000001B5B313B33316D008F
:102B80001B5B313B33326D001B5B313B33336D00DC
:102B90001B5B313B33346D001B5B313B33356D00C8
:102BA0001B5B313B33366D001B5B313B33376D00B4
:102BB000696E666F000000006572726F720000003F
:102BC0005052530055415254000000005541525498
:102BD00045000000756172745F6C6F675F626163CE
:102BE0006B656E640000000061707000502C000086
:102BF00000000020A800000054070000F82C00008E
:102C0000A80000203827000064070000982A000070
:102C100000000000D42B00004C000020C02B00005E
:102C200000000000C42B000000000000CC2B0000BE
:102C300000000000E82B0000000003035C000020FF
:102C4000540000205C0000206402002018000000F6
:102C50000000000000000000000000000000000074
:102C60000000000000000000000000000000000064
:102C70000000000000000000000000000000000054
:102C800000000000000000000000000000200040E4
:102C900000000000002000400000000000000000D4
:102CA000FF00000000000000000000000000000025
:102CB0000000000000000000000000000000000014
:102CC000B82B0000582B0000B02B0000602B000038
:102CD000702B0000682B0000782B0000802B000078
:102CE000882B0000902B0000982B0000A02B0000E8
:082CF000A82B00000090D003A6
:0400000500000201F4
:00000001FF
