:020000040000FA
:1000000008220020490200005102000015020000F1
:1000100055020000570200005902000000000000D5
:100020000000000000000000000000005B02000073
:100030005D020000000000005F020000610200009D
:10004000E5040000630200004D08000063020000A8
:10005000630200000103000063020000630200006D
:1000600063020000630200006302000063020000FC
:1000700063020000630200006302000063020000EC
:1000800063020000630200006302000063020000DC
:1000900063020000630200006302000063020000CC
:1000A00063020000630200006302000039080000E0
:1000B0006302000063020000000000000000000076
:1000C000630200006302000063020000630200009C
:1000D00063020000630200006302000000000000F1
:1000E0000000000000000000000000000000000010
:1000F0000000000000000000000000000000000000
:1001000000000000000000000000000000000000EF
:1001100000000000000000000000000000000000DF
:1001200000000000000000000000000000000000CF
:1001300000000000000000000000000000000000BF
:1001400000000000000000000000000000000000AF
:10015000000000000000000000000000000000009F
:10016000000000000000000000000000000000008F
:10017000000000000000000000000000000000007F
:10018000000000000000000000000000000000006F
:10019000000000000000000000000000000000005F
:1001A000000000000000000000000000000000004F
:1001B000000000000000000000000000000000003F
:1001C000000000000000000000000000000000002F
:1001D000000000000000000000000000000000001F
:1001E000000000000000000000000000000000000F
:1001F00000000000000000000000000000000000FF
:10020000DFF80CD000F056F800480047150D00004C
:1002100008220020094B1EF0040F1CBFEFF30980D9
:100220001847EFF308800649064A884201D89042F1
:1002300002D88D464FF0000018470000D902000098
:100240000822002008020020064880470648004790
:10025000FEE7FEE7FEE7FEE7FEE7FEE7FEE7FEE776
:10026000FEE7FEE73D0500000102000040EA010351
:100270009B0703D009E008C9121F08C0042AFAD25C
:1002800003E011F8013B00F8013B521EF9D2704720
:10029000D2B201E000F8012B491EFBD270470022C8
:1002A000F6E710B513460A4604461946FFF7F0FF75
:1002B000204610BD064C074D06E0E06840F0010303
:1002C00094E8070098471034AC42F6D3FFF79CFF40
:1002D000241700004417000000F000F8BFF34F8F10
:1002E00005480168054A01F4E06111430160BFF36C
:1002F0004F8F00BFFDE700000CED00E00400FA05A1
:100300002DE9F05F5D4CD4F804015D4D012690B1FC
:10031000D4F8000380070ED55A4801F073F86878C6
:1003200040B905F1100000F0DDFF5748C6600660D7
:100330000020A8606E70D4F81801544F08B3D4F8A8
:10034000000340061DD552480068C0F3C800A0F164
:1003500002084C48143001F055F83878302803D0A2
:10036000387850280BD00BE0D5F804C0BCF1000F52
:1003700007D04346454A0221E868E04701E02E7075
:10038000E661D4F81001DFF808A14FF0100BAAF1D4
:10039000140AD0B1D4F80003C00616D539480C3081
:1003A00001F030F8C4F808B3CAF800700AF104018B
:1003B000C1F800B0E661D5F804C0BCF1000F04D06C
:1003C00000231A460321E868E047D4F84C01DFF81F
:1003D000C4904FF00D0838B3D4F80003000323D5C0
:1003E0002848483001F00EF82648143001F00AF889
:1003F0002448243001F006F8CAF800702449103966
:10040000C1F800B0E6614FF48860C4F804032149E4
:100410000831C1F80080C9F800806F6827B1002357
:100420001A461946E868B847D4F8280160B1D4F8EC
:100430000003400508D5174F0837386811482430A5
:1004400000F0E0FFC7F80080D4F81C01002813D0AA
:10045000D4F8000300060FD5D9F800704C460948BF
:10046000183000F0CFFFF80704D0287810B12660CC
:1004700000202870C4F80080BDE8F09F00500040C4
:10048000040000200451004000B001408001002021
:10049000245500400454004000F01F020121914007
:1004A0004009800000F1E020C0F88012704700F0A1
:1004B0001F02012191404009800000F1E020C0F8B6
:1004C000001170474907090E002806DA00F00F00F6
:1004D00000F1E02080F8141D704700F1E02080F862
:1004E000001470472DE9F0414FF48077384600F052
:1004F000C7FE0124104EA50748B1384600F0C7FEDC
:100500000120C5F808037470002000F027FA4FF4AA
:100510008277384600F0B4FE00280BD0384600F051
:10052000B6FE0220C5F80803B470BDE8F041012012
:1005300000F014BABDE8F0814C010020F0B5AE48DF
:100540000023021D01780125101D4FF0805406295B
:100550000BD11678360708D10678C6F30316032E9A
:1005600006D0042E04D0052E02D0062907D00EE0B6
:10057000B4F82463A14FC6F304263E6002E0167867
:10058000360704D10678C6F30316032E02D00629D7
:1005900004D00FE09B4F9A4E7E670EE01678360728
:1005A00008D10678C6F30316032E06D0042E04D015
:1005B000052E02D0062907D00EE0D4F84462924FEF
:1005C000C6F342363E6002E01678360704D106785C
:1005D000C6F30316032E02D0062906D011E08B4E77
:1005E000376827F0807737600EE01678360708D135
:1005F0000678C6F30316032E06D0042E04D0052E6B
:1006000002D006290AD011E04FF08046C6F80C311E
:10061000C6F810317C4E361F336002E0167836077C
:1006200004D10678C6F30316032E02D0062905D09E
:100630000CE0754F032664373E600AE016783607F3
:1006400004D10678C6F30316032E02D006290DD076
:1006500014E06F4F05263E606D4E783635606C4E67
:10066000083633603F263F1D3E6002E016783607AD
:1006700004D10678C6F30316052E02D0062957D0FA
:1006800062E0644E3668644F3E60624E361D3668E6
:100690003F1D3E605F4E083636683F1D3E605D4E32
:1006A0000C3636683F1D3E605A4E103636683F1D88
:1006B0003E60584E143636683F1D3E60554E183623
:1006C0003668554F20373E60524E1C3636683F1D07
:1006D0003E60504E203636683F1D3E604D4E2436FB
:1006E00036683F1D3E604B4E283636683F1D3E60E3
:1006F000484E2C3636683F1D3E60464E30363668D2
:10070000454F40373E60434E343636683F1D3E60AD
:10071000404E383636683F1D3E603E4E3C363668A9
:100720003F1D3E603B4E403636683F1D3E6002E056
:100730001678360708D10678C6F30316032E06D0BE
:10074000042E04D0052E02D0062907D019E0D4F8D3
:100750005812324A01F04F01116002E01178090786
:100760000FD10078C0F30310032803D0042801D070
:10077000052806D12A480168C90702D06FF0010197
:10078000016022487438016841F470010160BFF3D0
:100790004F8FBFF36F8F4FF01021D1F80002002868
:1007A00003DBD1F80402002822DA1E4A15601E4835
:1007B0000468002CFCD01524C1F800420568002D07
:1007C000FCD0C1F8044201680029FCD01360016824
:1007D0000029FCD0BFF34F8F0C48F0380168134A52
:1007E00001F4E06111430160BFF34F8F00BFFDE7EB
:1007F00010490F480860F0BDE00F00F0403501409F
:100800000DF0ADBA00C007403C050040FCED00E033
:10081000105600400404001020C50040E40E0040C3
:100820000004004004E5014000E401400400FA0532
:100830000090D0031C00002010B500F0FFF8024922
:100840000020C1F8400110BD00B001400448017F04
:1008500004480029024901D000F0C8BE00F037BEAC
:10086000600100200020004002E008C8121F08C1FB
:10087000002AFAD170477047002001E001C1121F21
:10088000002AFBD17047000009480068C00700D06B
:1008900000BEBFF34F8F0648E4380168054A01F4F3
:1008A000E06111430160BFF34F8F00BFFDE700001F
:1008B000F0ED00E00400FA050EB500210091CDE94D
:1008C00001106A4644F20100FFF7DEFF0EBD00F0A2
:1008D00003B800F009B8000072B602480168491C6C
:1008E000016070470000002003490868401E08604E
:1008F00000D162B670470000000000200249085C89
:10090000012100F06BBD0000EA1600000249085CFE
:10091000002100F063BD0000EA1600007CB5002451
:10092000084E25460122305D0095002311460195B1
:1009300000F042FD641C042CF4D3BDE87C4000F0C0
:1009400003B80000EA16000010B500242046FFF7A7
:10095000D5FF641C042CF9D310BD000070B5084C01
:10096000050009D010342168002907D008682060EC
:10097000496828468847F6E70834F4E770BD000068
:100980004C01002070B5254CA0421ED1F1B10129C7
:1009900036D0022928D0032917D1072000F016FAF3
:1009A000002812D194F8680094F8691088420CD19C
:1009B00094F86A00002808D10023D4E901501A46AF
:1009C0000321A847012084F86A0070BD052000F0CB
:1009D000FDF90028F9D1A06864680023A446BDE8A9
:1009E00070401A460121604710461900EDD00028DA
:1009F000EBD00278302AE8D1BDE8704000F006BAAA
:100A0000082000F0E3F928B9A068002364681A46BA
:100A10000221A047BDE8704000F092BA9C0100207E
:100A200004480221C0F804130349C0F8041300F07D
:100A30009DB80000005000408000080070B51348C9
:100A40000068134C10F0030F4FF0000501D0A560B3
:100A500070BDA068401CA0600728F9D90D48012688
:100A6000066100F02BFCBFF35F8F0B480560BFF3FE
:100A70005F8F0660666826B100231A460121E06890
:100A8000B0476570BDE87040FFF7CABF3C540040F6
:100A90000400002000B00140FC5F0040FEB5224889
:100AA00087780A2F23D0214A0324072F16785578F8
:100AB0009378D1788DF800608DF8015086EA0500B2
:100AC0008DF802301AD04B4058408DF803108DF845
:100AD0000400FF2204210DF10500FFF7D9FB00BF40
:100AE0008DF809400A21684600F030FBFEBD03B0D6
:100AF0000A21BDE8F0400D4800F028BB83F08803D0
:100B000058408DF803008DF8041013798DF80530E6
:100B100050798DF8060092795940504041408DF847
:100B200007208DF80810DBE704000020900100206A
:100B30000C4810B50268001D0168001D03680A48D2
:100B4000140A02704470120C8270C1700A0A027199
:100B50000A0C4271090E8171C371190A0172190CD4
:100B6000417210BD50040010900100201B491A482A
:100B7000897804292BD007292BD010F8011B10F8F5
:100B8000012B090441EA022110F8012B1143144AF8
:100B90001160022110F8012B10F8013B120442EA07
:100BA000032210F8013B1A430D4B1B1F1A60026809
:100BB000C07812BA22F0FF020243094808380260E6
:100BC000042000EB811006490831086070470021BD
:100BD000EDE70121DEE70000900100200400002085
:100BE0009855004070B50C00054613D00A4800F037
:100BF00009FC0A480560094940F6FF700C3100EA1B
:100C0000C400086006481021C0F804130121C16027
:100C1000002070BD0C2070BD1051004010550040E8
:100C20000050004070B51D4AD1605060907818B9EE
:100C300007209070FFF77CFFFFF7F2FEFFF72EFF13
:100C40001648174910300024C0E9004100F076FB37
:100C5000054614480460001D0460124904200C314C
:100C60000860104964203C3108600F480121C0F839
:100C700000120904C0F804131B20FFF70DFC072124
:100C80001B20FFF71FFC1B20FFF711FC1DB1852D5A
:100C900001D0032070BD002070BD000004000020C2
:100CA000F513000004B5014000B00140094910B53A
:100CB0000D2008600849012088600520FFF7ECFB43
:100CC00007210520FFF7FEFB0520FFF7F0FB0020C2
:100CD00010BD00000454004000500040054910B50C
:100CE00001200860012000F0DBFA0028FAD1024957
:100CF000487010BD040000404C01002002681346FB
:100D000002E08A4204D01268002AFAD10B60016026
:100D1000704700001CB5FFF701FE0021104800F0ED
:100D200043FA08B1FFF7C8FD4FF48070019001A8A5
:100D300000900C4B0E220C49012000F05FFA08B124
:100D4000FFF7BAFD0748019900F00EFA08B1FFF766
:100D5000B3FD00F0EFF908B1FFF7AEFD20BFFDE7EE
:100D6000E50F00004C000020DC16000010B51C460A
:100D7000934200D914462246FFF778FA204610BD68
:100D800010B51C46934200D914460A462146FFF787
:100D90007FFA204610BD00000B4900F110021346F7
:100DA0004A610A6913448B6128B14FF47C73CB61AB
:100DB0004FF4806301E00023CB61C01C1044800825
:100DC0000B6281F8690070479C01002070B50D4DE1
:100DD0000D4A00212C7800BF01EB4103D65CA642EE
:100DE0000AD113445B78834206D101EB41001044E1
:100DF00080782870002070BD491C0E29ECD3082093
:100E000070BD00009C0100202000002070B5044649
:100E1000022920D10620FFF7D9FF00281BD10E4957
:100E200064784B69A2002046934208D88D69103D32
:100E3000954204D3C968C3EB8400084403E000F082
:100E400017F8054838301021FFF7CCFE2046BDE8E2
:100E5000704000F099B870BD9C0100200349026801
:100E60004A6242688A620089888570479C01002036
:100E70002DE9F041264F8400102529463846FFF71A
:100E80000EFAA7F138067069A0420BD9021B31197E
:100E90002B4638462431FFF769FFD0F11005044492
:100EA000074432D0B069A0420CD970693169201A68
:100EB0000A1AF1682B4601443846FFF757FF2D1AEE
:100EC00004440744002D20D0F069A04209D9021B38
:100ED0002B4600213846FFF753FF2D1A04440744E0
:100EE00013D0306AA04208D9021B2B46FF21384696
:100EF000FFF746FF2D1A074407D02B463846BDE8BA
:100F0000F0411A460021FFF73BBFBDE8F081000029
:100F1000D401002070B50C460546914201D90C2041
:100F200070BD0120FFF752FF08B1082070BD05B960
:100F300000240248C0E90354002070BD9C01002039
:100F400070B5002103230A460C460E4801260CE02A
:100F500006FA03F50D43E9B25B1E05D5831883F845
:100F6000481007230021521C641C90F86950A542C8
:100F7000EEDC024482F84810002100F8681F8170FE
:100F800070BD00009C010020F0B5C208514200EB8A
:100F9000C1010024124BC1F107010125042813D31C
:100FA00005FA01F603EB020CF7B29CF848603E42EA
:100FB00004D0BE438CF848602E4600E0002693F82B
:100FC00068703E4483F86860491E01D50721521CB1
:100FD000401C10F0FF0002D0641C042CDEDBF0BDCE
:100FE0009C010020012904D0022905D10020FFF72F
:100FF00085BC0020FFF78ABC70472DE9F843904676
:10100000894607004FF0000606D0B8F1000F03D064
:101010003D680DB1002422E00E20BDE8F88324B124
:10102000611C884207D1402106E0012801D08021BF
:1010300002E0C02100E00021D8F800006B46801BD0
:1010400000904A46286800F01FF80028E5D1009873
:10105000B9F1000F064400D08144641C2D1DB8680E
:10106000A042DCD80020C8F80060D6E7D0E9013201
:101070009A4201D304207047036843F82210816824
:10108000491C8160002070472DE9F84314469846BA
:101090000A4605004FF000074AD06878297A4618BA
:1010A000B61D00B1761C8CB332F0C00002D0072010
:1010B000BDE8F883D8F80000B04201D20420F7E779
:1010C00022702B78601C1A4322702A7A00F8012BB8
:1010D00021460746041D687828B104F8010B0878FA
:1010E00040F0080008702A7A2046E968FFF7BEF849
:1010F000287A6A7804442AB120466968FFF7B6F86E
:1011000068780444D8F80000801B00902B697BB1FC
:101110006A462146686998470028C9D114B10098E9
:1011200000BA3860009831180020C8F80010BFE7F6
:101130000E20BDE710B50420FFF748FE08B10820D7
:1011400010BDBDE81040FFF7B1BD000010B518B1EB
:101150000A2902D00C2010BD0248FFF77FFE0020B4
:1011600010BD00001917000010B54FF47772FFF79B
:10117000D1FE040013D10B480322016900F8342F7B
:10118000FE2902D84170022005E0FF2242700A0ABF
:101190008270C1700420FFF7FFFDFFF7D1FE2046EB
:1011A00010BD00009C01002070B50E46050005D062
:1011B0000020FFF70BFE18B1082070BD072070BD9E
:1011C0000B4C0C48C4E901561434FFF747FEFF20CE
:1011D000A076E076E1202077112060777C20A07750
:1011E0000F20E077BDE8704001490348FFF71ABDC2
:1011F0009C010020191700008509000070B51D46EC
:10120000134B0C468EB0D3E90113129ECDE90713A0
:101210000DA906910E498DF824008DF82C200A9412
:1012200018220C316846FFF721F809A80590694695
:1012300006A8FFF71BFF002805D134B13246294626
:1012400006A8FFF7DAFE0EB070BD0E20FBE7000027
:10125000F416000070B51546044661B1207A2A687C
:10126000904201D3042070BD20780870481C227A77
:101270006168FEF7FBFF207A401C2860002070BDEB
:1012800000F180400068002800D00120704708B5B8
:1012900000F18040002101600068009008BD00005E
:1012A0000549096840F4803001F00111814201D103
:1012B00001207047002070470C04004010B500204A
:1012C000FFF705FB06484168491E4160406808B9C0
:1012D000FFF704FDBDE810400020FFF7FABA000058
:1012E0004C01002070B5144D0446687838B114B133
:1012F0006168002088470020FFF7E9FA13E000202A
:10130000FFF7E5FA24B10C4821460830FFF7F6FC58
:10131000686840B94FF48070FFF7B9FF012081077A
:10132000C1F8040308606868401C6860BDE870404C
:101330000020FFF7CEBA00004C01002070B50E4C23
:101340000025207808B1852513E00021A1606160A7
:101350002161E1604FF0E020D0F80001012610F09B
:10136000010F03D10721002000F00AF803480660AE
:101370002670284670BD00004C0100201805004072
:101380004907090E002806DA00F00F0202F1E022F8
:1013900082F8141D03E000F1E02282F8001400F04E
:1013A0001F02012191404009800000F1E020C0F8B7
:1013B0008012C0F80011704770B541EA4201DDE9C2
:1013C00004564FF0A04441EA830141EA052104EBB1
:1013D000800041EA0641C0F8001770BD01224FF0BD
:1013E000A043824011B1C3F808257047C3F80C250B
:1013F00070470000002802D10149012008607047B1
:101400000050004008B5002101600068009008BD50
:101410004058002800D00120704708B500224250F3
:101420004058009008BDD0F80403084000D00120C7
:1014300070474058002800D00120704708B50022AE
:1014400042504058009008BD70B50546C87D0C4616
:1014500000284FF4847128460AD0FFF7DEFFD5F844
:101460001805627EE1688854607E401C607670BD1D
:10147000FFF7D3FFD5F8180570BD1FB501238DF810
:1014800000308DF808100192D0E9001268469047AC
:101490001FBD70B50C4605464FF48E71FFF7BDFFBA
:1014A000A18AA068415CA08A401CA082C5F81C15D6
:1014B00070BD1FB500228DF800208DF808108168DE
:1014C00001918275D0E90012684690471FBD2DE951
:1014D000FF470C4605464FF40071FFF7A4FF0127B4
:1014E0004FF40178002618B34FF492794946284604
:1014F000FFF78EFFE0B149462846FFF78EFFC5F89B
:101500000883A07E00B96F6002208DF80000D5F836
:101510008004C5F880040390E07D8DF80800E06841
:101520000190E6752676D4E900126846904727E0D8
:1015300004212846FFF777FF10B34FF48471284643
:10154000FFF766FFE0B121462846FFF77DFFE07D0B
:10155000617E884214D1207E38B1617EE268E075F8
:101560002069E0602676667607E0A07E00B96F60AD
:10157000C5F80883E675617EE2682046FFF77DFFC7
:101580004FF48E7841462846FFF742FF88B1A08A83
:10159000A17D884204D221462846FFF77AFF08E061
:1015A00041462846FFF739FFA17D11B12046FFF7DC
:1015B00080FF4FF4A27841462846FFF729FF002814
:1015C00012D041462846FFF728FFA07E00B12F60C9
:1015D000E07D002808D0E675617EE26804B0204610
:1015E000BDE8F047FFF749BFBDE8FF872DE9FF41A0
:1015F0000C464FF4927705463946FFF71AFF00264E
:10160000C0B139462846FFF719FF02208DF80000C7
:10161000D5F88004C5F880040390D5F83C058DF812
:101620000800E0680190E6752676D4E90012684665
:10163000904724E04FF4887739462846FFF7F9FEB3
:10164000E8B139462846FFF7F9FED5F83C05C1B2A6
:10165000E07D884213D1207E60B1E268D5F80002B7
:1016600020F02000C5F80002207EE0752069E060CF
:10167000267601E0E675E2682046FFF7FEFE4FF4AD
:10168000A27739462846FFF7D4FE68B13946284686
:10169000FFF7D4FEE07D38B1E675D5F83C05E26889
:1016A000C1B22046FFF7E9FE4FF490763146284656
:1016B000FFF7BFFE00280FD031462846FFF7BEFED9
:1016C000A07D002808D0D5F84C0504B0C1B2204652
:1016D000BDE8F041FFF7EDBEBDE8FF816E6F7264BB
:1016E000696373656D692E636F6D111213140D0EAE
:1016F0000F100000000000000100000000000000CA
:1017000001000000000000000100000018170000A8
:1017100055120000000000005500010203040506F8
:101720000708090044170000000000204C000000DA
:1017300068080000901700004C000020BC21000049
:101740007808000000000000000000000000000019
:101750000000000000000000000000000000000089
:101760000090D003040605040803040902050704D9
:10177000050803050902030504030902000001012D
:101780000102020403020A0002010202090200002F
:0400000500000201F4
:00000001FF
