:020000040000FA
:10000000A0570020F90200000103000003030000D4
:1000100005030000070300000903000000000000C2
:100020000000000000000000000000000B030000C2
:100030000D030000000000000F030000110300008A
:1000400013030000130300001D75000013030000DC
:100050001303000013030000130300001303000048
:100060001303000013030000130300001303000038
:1000700013030000B9720000130300001303000013
:100080001303000013030000130300001303000018
:100090001303000013030000130300001303000008
:1000A00013030000130300001303000013030000F8
:1000B0001303000013030000000000000000000014
:1000C00013030000130300001303000013030000D8
:1000D00013030000130300001303000013030000C8
:1000E0001303000013030000E903000000000000F8
:1000F00000000000130300000000000013030000D4
:1001000000000000000000000000000000000000EF
:1001100000000000000000000000000000000000DF
:1001200000000000000000000000000000000000CF
:1001300000000000000000000000000000000000BF
:1001400000000000000000000000000000000000AF
:10015000000000000000000000000000000000009F
:10016000000000000000000000000000000000008F
:10017000000000000000000000000000000000007F
:10018000000000000000000000000000000000006F
:10019000000000000000000000000000000000005F
:1001A000000000000000000000000000000000004F
:1001B000000000000000000000000000000000003F
:1001C000000000000000000000000000000000002F
:1001D000000000000000000000000000000000001F
:1001E000000000000000000000000000000000000F
:1001F00000000000000000000000000000000000FF
:10020000DFF80CD000F0DEF800480047797C0000F1
:10021000A057002030B4044654E8000F0D4644E8CF
:100220000053002BF8D1156030BC704730B4044641
:1002300054E8000F40EA010544E80053002BF7D1D1
:10024000156030BC704730B4044654E8000F00EA33
:10025000010544E80053002BF7D1156030BC70470E
:1002600030B4044654E8000F80EA010544E8005326
:10027000002BF7D1156030BC704730B4044654E809
:10028000000F00EB010544E80053002BF7D1156087
:1002900030BC704730B4044654E8000FA0EB0105B1
:1002A00044E80053002BF7D1156030BC704770B4A0
:1002B00004464FF0000054E8006F0D68AE4207BFDF
:1002C00044E80023012044E800630E60002B1CBFBB
:1002D0000020F0E770BC704730B4044654E8000FCB
:1002E00088422CBF451A054644E80053002BF5D13F
:1002F000156030BC7047000006488047064800473C
:10030000FEE7FEE7FEE7FEE7FEE7FEE7FEE7FEE7C5
:10031000FEE7FEE74173000001020000004870475D
:10032000E4A2000010B5441A0346944209D284188E
:10033000114403E011F8013D04F8013D521EF9D2C9
:1003400010BD40EA0104A40703D009E010C9121F40
:1003500010C3042AFAD203E011F8014B03F8014B51
:10036000521EF9D210BDD2B201E000F8012B491E95
:10037000FBD270470022F6E710B513460A46044642
:100380001946FFF7F0FF204610BD421C10F8011B74
:100390000029FBD1801A704730B50446002003467F
:1003A00000E05B1C934203D2E05CCD5C401BF8D0C4
:1003B00030BD034611F8012B00F8012B002AF9D1BA
:1003C00018467047064C074D06E0E06840F0010310
:1003D00094E8070098471034AC42F6D3FFF714FFB7
:1003E00010CF000030CF00000B490C4B0C4A4FF0EF
:1003F000FF3008601B68BFF35B8F52E8001F42E8C4
:1004000000300028F9D1BFF35B8F9942F3D1BFF3DD
:100410005F8F044A1360704704BA025000BA02505A
:100420009C37002008BA025099422DE9F04349D880
:1004300001EB030E4FEA5E0E012700240025002683
:1004400099423CD202EB830302EB810E5EF804CBAF
:100450009E4544EA0C04F9D114F1FF3445F1FF350F
:100460006FEA050C0CF0010C8E46BEF1000F4DD06A
:10047000002400EB8E0E043A214652F8043F50F857
:10048000045B9D420CBF0123002301EA030103EA40
:10049000040388BF41F001012CBF1C4643F0010456
:1004A0008645EAD181B38CF001001EB3BCF1000F88
:1004B00024D123461F4000EB4700BDE8F0834FF0F6
:1004C000000CD2E700EB830600EB810E0024002530
:1004D00056F8047BB64544EA0704F9D114F1FF3815
:1004E00045F1FF396FEA090606F0010609F0010738
:1004F0009E46A5E70840BCF1000FDAD001231F405B
:1005000000EB4700BDE8F083002CCCD12EB9BCF144
:10051000000F09D030460123CCE78CF00100002405
:10052000BCF1000FC5D0E9E7604664466746C0E706
:10053000F0B461B14C1E0519065DF6B9294634B117
:1005400011F8015D661EBDB93446002CF8D1002BB0
:1005500046D05C1E1519115D002943D12B4634B1DC
:1005600013F8016D651E86B92C46002CF8D1081CC5
:1005700018BF0120F0BC7047214673B35C1E1519EB
:10058000165D002EEAD0254600E023468B4224D398
:10059000994238BF0220EDD34C1EA54228BF254604
:1005A000002D22DB4419471E2A44002004E00028C5
:1005B00008BF0120A7420BD014F8016912F80159B5
:1005C000AE42F4D8F6D2002808BF0220A742F3D1E9
:1005D000994218BF0020F0BC70470120F0BC704762
:1005E0001846C7E725460021D2E70020F0E700BF04
:1005F00088420BD030B4D31C9B0803F18043013BED
:10060000002540F8235030BC06F052BB704700BFB5
:10061000814202D0920006F04BBB70471AB110B174
:100620001BB9114870471148704713F0030FF8D1F8
:100630008B42F6D30029F4D090420AD004D9134457
:10064000984201D20A487047904202D243189A4217
:10065000F8D91144013811F8013D00F8013F8A42F0
:10066000F9D10020704700BF050DF000040DF00027
:10067000060DF00032B128B1F8B55C1E053403D97F
:100680001E48F8BD1E48704711F00304F8D18B4294
:10069000F6D8CE1C26F00307B94201D21948F8BD9E
:1006A000FF1A114605461A46384406F001FB394642
:1006B0002846B70806F000FB012F04D12B681BBAAF
:1006C0002B602046F8BDF60805EB86042B4605EBAB
:1006D000870050F8041C1A6809BA43F8041B12BAC0
:1006E0009C4240F8042DF4D117F00100D7D055F802
:1006F00026301BBA45F826300020F8BD050DF00065
:10070000040DF000090DF00091B310B44B1EC41895
:10071000C25C6AB9214633B111F8012D581E32B9B5
:100720000346002BF8D118465DF8044B7047194674
:1007300014064FEAC100F7D4510600F1FF33F2D49A
:100740009406A0F10203EED4D106A0F10303EAD48B
:100750001407A0F10403E6D45107A0F10503E2D485
:100760009207A0F10603DED407385DF8044B70470A
:100770000846704749B301F18042013A00EB820319
:1007800050F8222022BB1A464B1E1FD010B452F83C
:10079000044D34B91946013B13D052F8044D002CD6
:1007A000F8D001F1804102395B0150F82120A3F11A
:1007B000200102E0013B8B4203D0002A4FEA4202B3
:1007C000F8DA18465DF8044B70470B461846704738
:1007D0004B01A3F1200102E0013B8B42F6D0002A3D
:1007E0004FEA4202F8DAF1E72DE9F04F83B0C8B1E1
:1007F000C1B1BAB1B3B10E9CA4B10C9C94B10D9C23
:10080000ACB1984617460E46044601F0FFF9426A1D
:1008100033684FEAC20A534583464FEA820908D239
:10082000154D00E0154D284603B0BDE8F08F144D7E
:10083000F9E7D8F800309945F2D81FFA89F10E9AF5
:100840000C980D9B9847054620B149460E9806F036
:1008500033FAE8E70E9B03F1200200925B46214643
:1008600038460E9A01F08EFA05460028EDD1C6F8FA
:1008700000A0C8F80090E8E70123F0000023F00092
:100880000523F00078B172B16BB170B582B0069CEF
:100890005CB1079C4CB1089C3CB11C683F2C07D84C
:1008A000114802B070BD11487047104802B070BDC9
:1008B000079C24681F2CF3D92029F1D11546044642
:1008C0001E4601F0A3F9089B0093224603462946E1
:1008D000069801F057FA0028E8D140223260079AC2
:1008E00020231360E2E700BF0123F0000023F000A3
:1008F00068B161B15AB1F0B583B0089C1CB30A9CD1
:100900000CB3B3F1005F04D3104803B0F0BD10483E
:100910007047099C402CF7D10C683F2CF4D91F4636
:10092000164604460D4601F071F90A9B3A468DE8D9
:10093000090031462046089B01F090FA0028E4D1D6
:10094000099B2B60E1E7024803B0F0BD0123F000F2
:100950000023F0002DE9F041069E079C089F38B166
:1009600032B12EB127B1402905D00C48BDE8F08145
:100970000B48BDE8F081B4F1005FF6D8202BF4D12C
:100980001546804601F042F9079706902B4622460D
:1009900031464046BDE8F04101F0EEBB0123F000D6
:1009A0000023F0002DE9F04782B0BAB1B3B1A8B18D
:1009B000A1B10A9C94B10C9C84B10B9C9CB11446CF
:1009C0001E468846074601F0B7FDD0F88C203368F4
:1009D0004FEA8209994508D91D4D00E01D4D284672
:1009E00002B0BDE8F0871C4DF9E7D8F80030994512
:1009F000F2D8436A0A981FFA89F122464FEA830A1D
:100A00000B9B9847054668B10C984FF4B07106F0FF
:100A100053F95146384606F04FF94946204606F04C
:100A20004BF9DCE70C9BC8F800A041460093224636
:100A30004B46384600F012F805460028E4D1C6F8C7
:100A400000904FF4B0710C9806F036F9C7E700BF7C
:100A50003123F0003023F0000523F000C0B1B9B11C
:100A6000B2B12DE9F04F83B00C9C002C4CD09946CC
:100A70000D460446164601F05FFD476A2B68BF002D
:100A80009F42804607D92B4B184603B0BDE8F08F34
:100A9000294B18467047D0F88C30B9EB830FF2D150
:100AA0004A4631460C98FFF7A3FDA9F1040A0C9BB6
:100AB0000C9A53F80AB01B6800932BF0404343F0A4
:100AC000804342F80A3013680C9902F1200923F0A0
:100AD000070313604846434608F1280201F04AFF25
:100AE000B8B1164B0C9A964205D039461046009381
:100AF00006F0E2F8009B4C45C6D0394648460093C4
:100B000006F0DAF8009BBFE70B4B184603B0BDE8D0
:100B1000F08F0C9B01901A46009B136042F80AB0BC
:100B20004946D8F824202046FFF772FD2F60019B2C
:100B3000D8E700BF3123F0003023F0003423F00069
:100B40002DE9F04751B18BB160B1D0F8B842B4F59E
:100B5000107F0FD9294C2046BDE8F087284C20464D
:100B6000BDE8F087274C2046BDE8F087264C20469C
:100B7000BDE8F087D0F8BC520134A542EAD80AB9E2
:100B8000224CE8E70735EE08B242F9D8174603F1E0
:100B900004080A461D4681463B4640464C21FFF765
:100BA00069FD044650B907F1030AB7424FEA9A0AB1
:100BB00015D051464046FFF7DDFD30B928464FF4C9
:100BC0004C7106F079F8124CC5E749464FF437727C
:100BD00005F1500006F06AF80E4B2B60BBE7D9F820
:100BE000BC321F33C3F34F1309F1D80251464046BC
:100BF000FFF71AFC0228E1D1DBE700BF9508F000FF
:100C00000908F0000208F0000A08F0000B08F000E4
:100C10000C08F000020000EC38B191B110B5114B96
:100C200004689C4203D0104810BD1048704752B170
:100C3000D0F80C3314680733B4EBD30F05D20C484B
:100C400010BD0C4870470C4810BD024604320846DF
:100C50004C232146FFF7E2FC084B002814BF18463E
:100C6000002010BD020000ECC208F000C008F00037
:100C7000C408F000C108F000C308F000C508F00087
:100C800048B17AB32DE9F843364C0568A54204D043
:100C90003548BDE8F883354870472BB305291ED089
:100CA00007291CD81E46D0F84C331546C26CDF1DF0
:100CB000042903F11F0304464FEAD7074FEA5313F1
:100CC00002F0010213D0062911D0022907D13168A0
:100CD00007F10108414529D22548BDE8F883254898
:100CE000BDE8F883244870472448BDE8F8834FEAFC
:100CF0004708306808F101084045EDD3042928462B
:100D000018BF42F006014FEA830900F8011B4B4669
:100D1000221D3946FFF782FCC0B12846316805F034
:100D2000CBFF002333601648BDE8F883284642F025
:100D3000020200F8012B9B00221D3946FFF76EFCD2
:100D40000028EAD1C6F80080BDE8F883781C4B463D
:100D500004F14C0228443946FFF760FC0028DCD13E
:100D6000F0E700BF010000EC1A08F0001408F000E2
:100D70001808F0001508F0001608F0001708F00039
:100D80001B08F0002DE9F04182B0002A52D0002B60
:100D90005FD0089C002C52D0099C002C5ED000280B
:100DA00061D0002950D0154604460F4618464FF42E
:100DB0004C711E4605F080FF4FF45D71089805F0F8
:100DC0007BFFD5F8BC3209981F334FEA53184FEA1E
:100DD000880208F1FF3805F1D80106EB880805F014
:100DE00065FF0023C8F80430331DD5F8BC220093FA
:100DF00020463946099B00F091FB0446002834D078
:100E000030464FF44C7105F057FF4FF45D71089870
:100E100005F052FF0A9B23B140F66811184605F011
:100E20004BFF09984FF4537105F046FF204602B07E
:100E3000BDE8F081124C204602B0BDE8F081114CB3
:100E4000204602B0BDE8F0810F4C204602B0BDE85C
:100E5000F0810E4C204602B0BDE8F0810C4C2046DB
:100E600002B0BDE8F0810B4CE5E72846099B089AE3
:100E7000314601F0B1FD04460028C1D1CAE700BFE8
:100E80000208F0000408F0009008F0000308F000E9
:100E90000508F0009108F0000B2804D8034B53F824
:100EA000203003B118470020704700BF4CAF00004E
:100EB000F0B5BDB004460E466846F0211F46154603
:100EC00005F0FAFE042C39D8DFE804F02C321B3888
:100ED000030003202C4B2D492D4A009080201790B1
:100EE00039933A913B9268469847B0F5720F17D004
:100EF0002CD9284B984221D0013398423ED1264C20
:100F00001DE0264B2649274A3993012000904020B6
:100F100017903A913B9268469847B0F5720FE7D127
:100F2000214C0CE01D4B1E491E4A39930020EDE771
:100F30001A4B1B491B4A39930220E7E71B4C6846B2
:100F4000F02105F0B9FE20463DB0F0BDB0B92DB995
:100F50003946684600F030F80446F0E78EB1019B50
:100F60000BB1134CEBE72A463146684606F008F908
:100F7000B0F5720FD4D0BCD80028E9D04FF4750476
:100F8000DDE70C4CDBE700BF593100004167000092
:100F9000192F00000100F2000202F00005310000EC
:100FA0006D6500008D2E00000002F0000102F000CF
:100FB0000C02F0000302F000F0B1F9B170B5026E5E
:100FC000BAB9164601230D4643603146D0F8E830E1
:100FD00004469847A0B11A4B984221D00133984259
:100FE0001CD0184BB0F5720F0CBF18464FF47500AB
:100FF00070BD00F16406E5E712487047124870477B
:10100000D4F8EC30204698470028E4D123682066C5
:10101000032B05D8DFE803F0100E06120B4870BD55
:101020000B4870BD1C22284604F1080105F03EFE65
:10103000002070BD2022F6E71422F4E74022F2E7F8
:101040000100F2000002F0000502F0000202F000D0
:101050000102F00060B138B50D46F021044605F0FC
:101060002BFE042D3DD8DFE805F0202E353C050091
:1010700020487047204B2149214AC4F8E430032519
:1010800080202560E065C4F8E810C4F8EC20204614
:101090009847B0F5720F2BD025D91A4B984220D023
:1010A0000133984221D1184838BD184B1849194AC4
:1010B000C4F8E430002540202560E065C4F8E8105D
:1010C000C4F8EC20E3E7114B1149124AC4F8E430AC
:1010D0000225F0E70D4B0E490E4AC4F8E430012515
:1010E000E9E70D4838BD00B938BD4FF4750038BD8B
:1010F0000048F9E70002F0005931000041670000A4
:10110000192F00000100F2000202F000053100007A
:101110006D6500008D2E00000102F00040B138B571
:1011200022B139B143683BB10F4838BD104638BDD4
:101130000E4870470E4838BD06F022F8B0F5720F21
:1011400008D009D90B4B98420BD00133984205D1F6
:10115000094838BD054838BD0028E6D04FF4750071
:1011600038BD064838BD00BF0C02F0000002F00098
:101170000302F0000100F2000202F0000102F000A0
:101180002DE9F84348B1044615460E4669B3302AA6
:1011900007D9254F3846BDE8F883244F3846BDE8C7
:1011A000F8839307F5D1DFF894804FF0FF31D8F83A
:1011B000000005F0A1FD074620BB04F18409484664
:1011C000402105F079FD314648462A4605F06EFD7E
:1011D000AD08C4F8C450D8F8000005F0AFFD0028F1
:1011E000D8D0134805F00CFDD4E70AB1114FD1E770
:1011F000DFF848804FF0FF31D8F8000005F07CFDA3
:10120000074658B10C4804F1840905F0F9FC48463A
:10121000402105F051FD002ED5D1D9E7402104F140
:10122000840005F049FDD3E7040CF000250CF00024
:1012300068A40000030CF00050A40000A057002098
:101240002DE9F04F9BB040B3002A43D021B98B4623
:1012500058461BB0BDE8F08FA34E04460F463068D9
:101260004FF0FF31154605F047FDE0B99F4BD4F82C
:10127000DC209A421BD0DFF884B23946284605F0BC
:101280001BFDD4F8C4305BBB306805F057FD002867
:10129000DED0974805F0B4FCDAE7DFF864B25846D0
:1012A0001BB0BDE8F08F934805F0AAFCDEE7D4F848
:1012B000D430DA071DD5D4F8CC3011331CD8D4F88B
:1012C000D080B8F1040F1AD0B8F1080F17D0DFF8AA
:1012D00034B2D2E7DFF830B258461BB0BDE8F08F29
:1012E0000023C4F8C43004F18400402105F0E4FC7C
:1012F000CAE7DFF818B2C0E7DFF814B2BDE7D4F8E8
:10130000C4200C2A54D804F14003029304F1840A47
:10131000002A50D09200514604F1480005F0C6FC66
:10132000D4F8C420029908F104039B0000939200B2
:101330005346204605F044FD834600289DD10346D0
:1013400022465146204605F0DBFE8346002894D114
:101350004FEA880B04EB0B09D9F80C301BBA5A1C66
:1013600011BA9342C9F80C1018D9D9F808301BBA31
:101370005A1C11BA9A42C9F808100FD2D9F8043091
:101380001BBA5A1C11BA9A42C9F8041006D254F872
:1013900028301BBA01331BBA44F82830002307A8B1
:1013A0001946032205F008FB50B1DFF868B164E785
:1013B000DFF864B161E75046402105F07DFCC7E7E6
:1013C0000146082305AA07A80594CDF818B005F032
:1013D00049FB0028E9D1494607A805F02BFB002866
:1013E000E3D1454AD4F8D4301A4267D017F00F0B36
:1013F0004FEA171303930EBF4FF0100B0133039303
:10140000BB450DD0A7EB0B084146284605F054FC20
:101410002B464246294607A805F00AFA0028C4D1FF
:1014200004F1300810224146029805F03FFC404686
:10143000102105F041FC1AAA102342F8583D07A8D4
:101440000192CDF800801946424605F037FA00288F
:10145000ABD1A7EB0B0028445A46414605F026FCC9
:10146000D4F8D430DB0509D442460298039B2946C0
:1014700002F030FB834600287FF4FFAE039A09F1A7
:10148000100353F8041C09BA0A4410BA914243F8F5
:10149000040D4FF0010201D99945F2D151460123C3
:1014A0002246204605F02CFE834600287FF4E5AE58
:1014B000D4F8CC300133C4F8CC30E2E604F1300883
:1014C0004046102105F0F8FB43464146102207A88C
:1014D00005F0AEF900287FF468AFD4F8D43043F4B7
:1014E0008033C4F8D43081E7A0570020CDAB23016E
:1014F00068A4000050A40000000101000E0CF000E0
:10150000270CF000210CF000000CF000080CF0009B
:10151000070CF000360CF000040CF00070B4039DD2
:101520004DB1064E941EB44202D9054870BC7047B6
:1015300070BC00F009B8034870BC7047FDFF07009D
:10154000310CF000300CF000002800F08F800029F2
:1015500000F0B7802DE9F04F87B01D460193D31DF1
:101560001446DA080E460292002D00F08280804672
:10157000BDF808102846FFF7C7F802282C46054694
:1015800069D9032864D0109BEC1DE40803EB04091F
:10159000029B4846191B6D4205F08EFB05F00705BE
:1015A000109BCDF810904FF0FF0A4AFA05FA651E1D
:1015B0001D44A3B20393A4F1100305934FF6FF73E8
:1015C0005FFA8AFA9946109A03994046B047002874
:1015D0007AD12B780F2C0AEA03032B705FD9109A6B
:1015E000059BD718019A02EB030B08E0002B56D09D
:1015F000B047002868D12B780AEA03032B70102328
:1016000019465A463846FEF793FF0346022B3A46E0
:101610004FF010014046E9D1DDF8109010990123F8
:101620000A78134401F8013B89454FEA2323F7D197
:10163000019B02221C4419780A4403F8012B9C42A6
:101640004FEA2222F7D10023184607B0BDE8F08FF9
:101650002378032B97D81F4B10980299019305F01C
:101660002BFB019B184607B0BDE8F08F1A4B1846BC
:1016700070471546A9B2109AB04703460028EBD12F
:101680006B1E109AD25C42F0800162071ED062424B
:1016900002F0070241FA02F21099CA54D3E7A3B24A
:1016A0001946019A1098FEF743FF022804D0B9F1B9
:1016B000010988D1094BCFE7DDF81090002CADD19E
:1016C000C1E7074B184670470346C5E7109AD15447
:1016D000B9E700BF320CF000250CF000010CF0005F
:1016E000140CF00070B5D9B1B8B1174E0D460446D0
:1016F0004FF0FF31306805F0FFFAA0B9134BD4F872
:10170000DC209A4213D0124C306805F017FB10B160
:10171000104805F075FA204670BD0F4C204670BD8C
:101720000E4C204670BD0E4805F06AFAE6E7D4F884
:10173000D430DB0701D40B4CE6E720462A460021D3
:1017400005F03EFC0446DFE7A4570020CDAB2301A3
:101750000E0CF00068A40000250CF000200CF00036
:1017600050A40000080CF000F0B589B090B169B148
:1017700005460C46E42105F09FFA01A9284605F02C
:101780001DF858B1234C204609B0F0BD224C20462C
:1017900009B0F0BD214C204609B0F0BD204E4FF0FD
:1017A000FF31306805F0A8FA80BB01A9224628461F
:1017B00002F0BEF90746306805F0C0FAD0B9002F34
:1017C000E0D1E421284605F077FA4FF0FF31306888
:1017D00005F092FAB0B922462846012105F0F0FB47
:1017E0000446306805F0AAFA40B90E4B002C18BF29
:1017F0001C46C8E70C4805F003FAE0E70A4805F084
:10180000FFF9F2E7094805F0FBF9E4E7074805F0BE
:10181000F7F9CAE7110CF000200CF000250CF000DD
:10182000A4570020120CF00068A4000050A400008F
:101830002DE9F04F99B09C01239F229EDFF87CE2B6
:101840004FEA073C4CEA874744F00458944648EA7C
:101850000705DEF800200292029AD207F9D5964ACF
:10186000DFF858E215604FEA8C1C249A4CF0104CBB
:101870004CEA02354FEA834945EA090CDEF80020BC
:101880000392039AD507F9D58B4A8C4DC2F800C054
:101890004FEA811848F0104217432A680492049ACC
:1018A000D207FAD5320342EA8646834A834D17604F
:1018B00046F0045727432A680592059AD207FAD5BD
:1018C00044EA090A7C4A7D4D17604AF0045A4FEAFF
:1018D000033E4AEA0E0A2A680692069AD707FAD504
:1018E0008A04019242F0104C734A744FC2F800A06F
:1018F0004CEA040C4CEA0E0C3A680792079AD2079D
:10190000FAD56D4A6D4FC2F800C046F0104C4CF449
:10191000807C3A680892089AD507FAD5664A674FDC
:10192000C2F800C0860146F0045C4CF4821C3A68A0
:101930000992099AD207FAD55F4ADFF88CB15F4F56
:10194000C2F800C04FEA003A4AEA0B0B3A680A9222
:101950000A9AD507FAD5584F594AC7F800B0259DBD
:10196000303742EA854C3A680B920B9AD207FAD587
:1019700044EA0E07DFF840B1504ACBF800C047F008
:10198000245747F4001715680C950C9DED07FAD500
:1019900046F0484CDFF820B1484ACBF800704CF4D0
:1019A000821C4CEA030315680D950D9DED07FAD5D1
:1019B00046EA0A06404F414A3B6046F0045646EA72
:1019C000090613680E930E9BDF07FAD544EA8040A0
:1019D000394B3A4A1E6040F0045040EA0E0013684A
:1019E0000F930F9BDD07FAD5334B364F334A186000
:1019F0004EEA070713681093109BD807FAD5019D8C
:101A00002D4B2E4E1F600A03154348EA050747F089
:101A1000045033681193119BDB07FAD5264B274EF0
:101A2000186047F0104733681293129BDB07FAD512
:101A3000214B224E1F6033681393139BDB07FAD5AB
:101A40001D4B1E4E186045F0045525433368149312
:101A5000149BDF07FAD5259B184844EA0334164B3C
:101A600044F010441D6044EA090403681593159B73
:101A7000DD07FAD548EA02020F4B10481C6042F01D
:101A8000245242F4101203681693169BDC07FAD511
:101A900041F04841084B09481A6041F4A21141EA5B
:101AA000080103681793179BDB07FAD5024B1960EF
:101AB00019B0BDE8F08F00BF80B00250B0B0025046
:101AC0000041002140012829000110212DE9F04F9B
:101AD0008BB00F46159D6C6A8246214638461E46DD
:101AE0009046FEF747FE214683461498FEF742FED5
:101AF00023462A4607218146002002F013FC05F206
:101B0000D44205230721012002F00CFC002E47D00F
:101B1000424623460721092002F004FC23463246B0
:101B20000721082002F0FEFB149B04950293CDF8D8
:101B30000C908DE88008092308220E210D2002F068
:101B400057FE054618B128460BB0BDE8F08F0D22B0
:101B50002146504602F0BAFB274A13680893089BB7
:101B6000D907FAD5254B2649264A196013680993E7
:101B7000099BDB07FAD5244B1F680E2221465046ED
:101B80006FEA173702F0A2FB002EDCD104F180448B
:101B9000013C5AF8243043EAC7734AF82430D2E7AC
:101BA000234605F1940207211A2002F0BBFB2346CD
:101BB00005F294420721182002F0B4FB234605F2F7
:101BC000B4420721192002F0ADFB04F18043013B30
:101BD000424658F82310079121F0004148F823109D
:101BE00009202346072102F09DFB07980921C20F17
:101BF000082003F009F997E7B0B0025080B0025016
:101C0000C01F3647B4B0025088B002500048704739
:101C100098A400002DE9F843089C814688461046A8
:101C200019461646656AFEF7A5FD18B9544C2046BC
:101C3000BDE8F883224607462B460721002002F024
:101C400071FB04F2D44205230721012002F06AFB54
:101C500004F1D4022B460721102002F063FB04F1AB
:101C6000F4022B460721112002F05CFB04F58A7276
:101C70002B460721122002F055FB04F59A722B46E1
:101C80000721132002F04EFB04F5AA722B46072110
:101C9000142002F047FB04F5BA722B4607211520E9
:101CA00002F040FB04F5CA722B460721162002F011
:101CB00039FB04F5DA722B460721172002F032FBBC
:101CC00004F5EA722B4607210C2002F02BFB04F5E9
:101CD000FA722B4607210D2002F024FB04F5057251
:101CE0002B4607210E2002F01DFB04F50D722B463A
:101CF00007210F2002F016FB04F555722B46072131
:101D0000022002F00FFB04F55D722B460721032031
:101D100002F008FB04F565722B460721042002F04F
:101D200001FB04F56D722B460721052002F0FAFA3B
:101D300004F575722B4607211C2002F0F3FA04F516
:101D40007D722B4607211D2002F0ECFA072104F2D8
:101D5000744208462B4602F0E5FA3946304603F055
:101D60006BFA044600287FF462AF484629461022E9
:101D700002F0ACFA29464046112202F0A7FA56E7D3
:101D80000223F0002DE9F04F5F6A85B09046BC0059
:101D900000251E468246894622460E9B03954146F3
:101DA0000420FFF785F8054658B104EB44010E986E
:101DB00004F082FF039803F063FD284605B0BDE8F8
:101DC000F08F4FF0FF31224804F096FF50B904AA7B
:101DD0001E2342F8043D0021306A03F01FFE28B1A3
:101DE0001C4DE2E71C4804F00BFFF0E70E9B0E9A37
:101DF0001B68009623F00703261F1360935923F0F6
:101E0000404302EB040B43F08043935159460BEBE4
:101E100004003B4600F0B8FA05460028C5D15BF83F
:101E200027205BF8063043EAC27341464BF8063080
:101E30002246484604F03AFF3A4659465046FEF7D5
:101E4000E7FB2246514609EB040004F02FFFACE704
:101E5000A85700203323F000A0A900002DE9F04F7F
:101E600091B098461A9D1B9CD5F88C700290BE00CC
:101E70008A4691461946324623460420FFF718F851
:101E8000054660B120464FF40C7104F015FF4FF089
:101E9000FF3003F0F5FC284611B0BDE8F08F237841
:101EA000A1190846721E23F00703304423700390E3
:101EB000A35C03980491F9000D4605914031411847
:101EC00003F03F0301EB050B43F040030691A354DD
:101ED00058460421FFF7BEF805460028D2D1B9F1D3
:101EE000000F28D0C6F18003994526D84A465146AE
:101EF000039804F0DBFE06EB090204995846FFF74D
:101F00000DF905460028BDD104995846FFF754F84D
:101F100005460028B6D14FF0FF318B4804F0ECFEA7
:101F200050BBBB01002218461146079303F076FD13
:101F300030B3864DA6E73246DFE71A46514603988E
:101F40000893A9F1800504F0B1FEAB198022049931
:101F500007935846FFF7E2F80546002892D1079A02
:101F6000089B002AD0D00AEB03015846FFF7D6F8A9
:101F700005460028C8D085E7754804F041FED0E743
:101F80001A9B68331A46089301213B4602F0CAF9AE
:101F9000049A10230121022002F0C4F96D4A13684B
:101FA0000B930B9BDB07FAD56B4B6C4A1A603946D7
:101FB0000222049802F08AF91A9B0022596A186AD0
:101FC00003F02CFD0028B4D103991A9A00920B4615
:101FD000334409931846049A3B46FFF71BFE054617
:101FE00000287FF44FAF0398321F50F82710835812
:101FF00083EAC173835008EB06013246099804F066
:1020000055FEB9F1000F40F08580059E0421584629
:10201000FFF720F8054600287FF434AF32460399D5
:102020005846FFF77BF8054600287FF42BAFB9F13F
:10203000000F0AD0059B4A460AEB03015846FFF7FA
:102040006DF8054600287FF41DAF58460699FEF747
:10205000B3FF054600287FF415AF2A4629460798A6
:1020600003F0DCFC054600287FF463AF089A3B468A
:10207000012102F057F9069A10230121032002F0F2
:1020800051F93B4622460121042002F04BF93B4620
:10209000049A0121022002F045F91A9A0121052330
:1020A000084602F59D6202F03DF92A4B1A680C922F
:1020B0000C9AD607FAD5284B294A2A491A600B6888
:1020C0000D930D9BD807FAD51A99274BD1F8881094
:1020D0001960264A1F49BB1C5B0113600B680E93F5
:1020E0000E9BDA07FAD51C4B214A1A491A600B6875
:1020F0000F930F9BDB07FAD5174B1E4A1A60394620
:102100000998052202F0E2F8059A0399029804F072
:10211000CDFDB7E67300C3F180039945099B03EB3E
:10212000060007D8059B4A4651469E18A94604F06A
:10213000BDFD6BE7059D5146C5F1800204F0B6FD7B
:10214000A9EB0509802661E7A85700203323F0009A
:10215000A0A90000B0B0025080B00250000108A158
:10216000C0010CA1B4B0025090B0025094B0025023
:1021700040410C88402114302DE9F04F8BB00746C8
:10218000149C7A48D4F824808A464FF0FF31934655
:1021900099464FEA880504F0AFFD78B96E00BA1988
:1021A000236A12F8012C03F01F03023B52FA03F3D7
:1021B00008D06F4B18460BB0BDE8F08F6D4804F0A7
:1021C0001FFDEBE72946484604F09EF80028F0D1B1
:1021D000159B04902B442A4639461598029304F027
:1021E00065FD2A464946029804F060FDBBF1000FE8
:1021F00029D06A00029BC2F180022B4493450393CD
:1022000018464CD8049B05935A46B318514604937C
:1022100004F04CFD039B2B4407932B4403EB060B6C
:10222000584604210693FEF715FF034690B14FF47C
:102230000C711598029304F03FFD4FF0FF3003F04E
:102240001FFB029BB6E7029BCDF814B02B4404960B
:102250000393E0E7049A15995846FEF75FFF03469B
:102260000028E4D1059B4BB11A46049B991B5144AD
:102270005846FEF753FF03460028D8D15846159913
:10228000FEF79AFE03460028D1D1024601464FF4DC
:10229000007003F0C3FB064678B1374BC7E7C6F1C1
:1022A00080025146ABF1800B04F000FD0BEB0603FE
:1022B000059380230493039BADE71023159A012116
:1022C000032002F02FF804F1680243463046012152
:1022D00002F028F8294A13680993099BDB07FAD50D
:1022E000274B284A1A6041460322159801F0EEFF59
:1022F00000221146206A03F091FB06460028CCD14B
:10230000DDF80880494640462A46FEF771F9291F44
:10231000CDF8088058F8013003F1004348F8013047
:10232000DDF80C802A4679194046FEF761F93346FC
:102330000194CDF80080029A15990698FFF7C6FB24
:10234000034600287FF473AF079C029039462A4663
:102350002046FEF74DF92A462146069803F060FF15
:10236000034A029B002808BF134660E7A8570020D5
:102370002023F000A0A900003323F000B0B00250E9
:1023800080B0025000010CA12DE9F04784B09A46BC
:102390000C9C81468846104619461646656AFEF72B
:1023A000E9F9BAF1000F04D15C4C204604B0BDE855
:1023B000F0872B46224607210746002001F0B2FF96
:1023C000052304F2D4420721012001F0ABFF2B4684
:1023D00004F5EA7207210C2001F0A4FF2B4604F556
:1023E000FA7207210D2001F09DFF2B4604F50572BE
:1023F00007210E2001F096FF2B4604F50D720721F0
:102400000F2001F08FFF2B4604F5157207211020D5
:1024100001F088FF2B4604F51D720721112001F001
:1024200081FF2B4604F525720721122001F07AFF67
:102430002B4604F52D720721132001F073FF2B4664
:1024400004F535720721142001F06CFF2B4604F5CA
:102450003D720721152001F065FF2B4604F54572FA
:102460000721162001F05EFF2B4604F54D7207216F
:10247000172001F057FF2B4604F2144207210820D1
:1024800001F050FF2B4604F234420721092001F0ED
:1024900049FF04F254422B4607210B2001F042FF72
:1024A0001F4A13680093009BDB07FAD51D4B1E499A
:1024B0001B4A196013680193019BD807FAD5194B81
:1024C0001A49174A196013680293029BD907FAD573
:1024D000144B1749124A196013680393039BDB07D7
:1024E000FAD5104B134A1A60072104F274420846C9
:1024F0002B4601F017FF3946304603F031F8044609
:1025000000287FF452AF48462946102201F0DEFE33
:1025100029464046112201F0D9FE46E70223F00089
:10252000B0B0025080B0025080022A4780122A4F79
:10253000800100218061182100487047B8A900007F
:102540002DE9F041069C0E4615461F462246636A59
:1025500001218046002001F0E5FE012104F1B402D2
:102560000846052301F0DEFE636A04F194020121AE
:10257000062001F0D7FE636A3A460121082001F0E7
:10258000D1FE2946304600F00DF8044630B905F179
:102590001F0149094046072201F098FE2046BDE888
:1025A000F08100BF2DE9F04FA9B009230590012269
:1025B00018460C460B2704210A260C25079308977A
:1025C00009960A9501F0DAFD079B9F4A990141EAB5
:1025D000834141F0924141F4043113680B930B9B0A
:1025E000DE07FAD5994A9A4B11600899303243EACE
:1025F000811113680C930C9BDD07FAD5934B924A1B
:1026000019600A9B990141EA834141F0924141F4EA
:10261000043113680D930D9BD807FAD58B4B8A4A6A
:10262000196013680E930E9BD907FAD5874B894919
:10263000854A196013680F930F9BDB07FAD5834B0C
:10264000854A1A6014F11E0248BF04F13D026FF082
:10265000404303EB621304F1FF38059AB8F1000F11
:1026600052F823B0C0F2718108AB029307AB01931B
:102670000AAB0493DFF8F891734C744DDFF8F4A1C2
:1026800009AB0027039308F01F061F2E00F05781A7
:102690002BFA06F606F0010677403A4602990198B1
:1026A00003F00AFE3A460499039803F005FE0A9ADD
:1026B00049EA023123681093109BDF07FAD529609D
:1026C000089A664941EA824123681193119BD80711
:1026D000FAD52960099A49EA023123681293129BBC
:1026E000DA07FAD52960079A5D4B43EA82412368ED
:1026F0001393139BDB07FAD52960079A09981103F6
:1027000041EA804141F0045141EA82112368149367
:10271000149BDF07FAD529600A9A089909981203D1
:1027200042EA814141F0045141EA80112368159346
:10273000159BD807FAD529600A9A0798910141EAB2
:10274000003141F0104141F4002123681693169B9B
:10275000DA07FAD52960099A910141EA023141F07C
:10276000104141F4402123681793179BDB07FAD5EA
:10277000296023681893189BDF07FAD5394B2B6023
:10278000079A110341EA824141F0104141F0C00132
:1027900023681993199BD807FAD52960099A0A99D1
:1027A0000898120342EA814141F0045141EA801144
:1027B00023681A931A9BDA07FAD52960099A49EA1D
:1027C000023123681B931B9BDB07FAD52960099A0A
:1027D0000A98910141EA804141F0045141F480415D
:1027E00023681C931C9BDF07FAD52960079A4AEAE5
:1027F000821123681D931D9BD807FAD52960236891
:102800001E931E9BDA07FAD5174A2A6023681F9386
:102810001F9BDB07FAD5154A2A60099A110341EA82
:10282000824141F0104141EA821123682093209BAC
:10283000DF07FAD52960089A110341EA824141F085
:10284000104141EA821117E0B0B0025080B002504E
:102850000000224940010021405114218040002104
:10286000C040002180300C9000211429C0400C2170
:102870000001142900200C9023682193219BD80784
:10288000FAD5296023682293229BDA07FAD5344AC5
:102890002A600A9A0998910141EA003141F01041F9
:1028A00041F4001123682393239BDB07FAD52960A9
:1028B000099A4AEA821123682493249BDF07FAD5F8
:1028C00008F1FF38B8F1FF3F296037467FF4DBAEEF
:1028D00002990198324603F0EFFC324604990398BE
:1028E00003F0EAFC089B1F491F4A41EA8311136861
:1028F0002593259BDC07FAD51C4B1B4A1960089BC6
:102900000998190341EA804141F0184141F08001E2
:1029100013682693269BD807FAD5144A144B1160E6
:102920000799303243EA814113682793279BDB07DD
:10293000FAD50E4B0020196029B0BDE8F08F4FEAA0
:102940006812059B53F822B0A2E608AB029307ABCE
:1029500001930AAB049309AB00260393B8E700BFC9
:10296000823018C800200229B0B0025080B0025056
:10297000C02100882DE9F04184B007460E460D24A1
:102980004FF0FF311248039490461D4604F0B4F90D
:10299000D0B903AA0021286A03F040F8044660B9C0
:1029A000D5F88C103046FDF7E5FE0095024643460B
:1029B00031463846FFF7C4FD0446039802F060FF35
:1029C000204604B0BDE8F081024804F019F9E0E7C0
:1029D000A8570020B0AA00002DE9F04385B088B3C5
:1029E00000294CD09AB3002B4ED01646D0F8BC220A
:1029F000039306F14C0400F5B6731F3201F104098C
:102A000006F10408029400930D4652094946CDF898
:102A1000048000F59273074602F0A2FE0446D8B186
:102A200000242C604846214634604C2204F042F9D0
:102A300021464046902204F03DF9164C204605B050
:102A4000BDE8F083144C204605B0BDE8F083134C7C
:102A5000204605B0BDE8F0834FF43772394605F1E2
:102A6000500004F023F90E4B2B6039464FF43772B7
:102A700006F1940004F01AF90A4B3360E3E70A4CBC
:102A8000204605B0BDE8F083084C204605B0BDE8FF
:102A9000F08300BF3008F0000208F0000408F000E6
:102AA000020000EC010000EC0308F0000508F00053
:102AB00070B582B058B10E46016A072904463FD06E
:102AC00053B9032912D00025284602B070BD4FF437
:102AD0007105284602B070BD416B00295DD1B3F588
:102AE000805F0DD3914D284602B070BD016B002967
:102AF000E9D1C36303644364836400F13C0610239B
:102B00004FF0FF318A488DE80C0004F0F5F89DE89D
:102B10000C00002847D1874801210160206A07285E
:102B200047D9854B1D68002DFCD1824B80481D6024
:102B300004F004F90028C6D0804804F061F8C3E727
:102B4000426B22BBB3F5805FCCD213B9226B002A53
:102B5000C8D14FF0FF317648009304F0CDF8009BC8
:102B6000002840F08C80734901220A60216A0729FD
:102B700040F28F80724D704A1368002BFCD16D4A71
:102B80006B48136004F0DAF800289DD0D4E7012ADE
:102B9000DBD1B3F5803FA5D2D7E70129B0D1B3F59A
:102BA000803F9FD2ACE7674804F02AF89DE80C000C
:102BB000B1E7814011F08F0FB3D0616A0129B0D81D
:102BC000616B0129ADD8A16B0129AAD820468DE8F7
:102BD0000C0004F021FB0028A3D1A16A01299DE883
:102BE0000C006CD065D3022963D0216A481E0628E8
:102BF0000FD8DFE800F00431040E0E0E0400524935
:102C00002068086060684860A0688860E068C86004
:102C1000216A21F00401032936D0A16B012958D083
:102C20004A484B49026020200B60626B012A3BD06E
:102C30004849494A0E60136003F07AFF3E4A136820
:102C4000002BFCD1236A013B062B12D8DFE803F0EE
:102C500014061411111114004049D1E73F4A404BAA
:102C6000126822601A6862605A68A26008331B68A2
:102C7000E3600123236354E7334A3A4BF0E73148DA
:102C800003F0BEFF009B6EE7626B012A0BD01020A1
:102C9000CEE78A4012F08F0F3FF46CAF626A012AD0
:102CA0001DD9314D67E740203049314A0E6013602D
:102CB000C2E7304D304829600121016095E72F4976
:102CC0002069086060694860A0698860E069C86040
:102CD0008BE72B482B49026080200B60A5E7626BD5
:102CE000012A01D9284D46E7A26B012A01D9274DB7
:102CF00041E72046009304F08FFA054600287FF450
:102D00003AAFA26A009B012A00F09280C0F08A804C
:102D1000022A00F08780226A013A062A41D8DFE8B9
:102D200002F0376537404040370000BF0500F10032
:102D3000B057002010B8025010B90250E8AD0000A2
:102D40000100F100D0AD000040B4025030BD02508F
:102D500034BD025030BC025034BC025060B402504A
:102D600064B4025044B402500200F10028BC025086
:102D70002CBC025038BA025078B4025000B4025051
:102D800028BD02502CBD02500300F1000400F100E8
:102D90002F4A2168116061685160A1689160E16803
:102DA000D1602C482C49012202600B60002B2ED1EF
:102DB000236B0BB9294B1A60294A1368002BFCD1ED
:102DC000236A013B062B3FF6D6AE01A252F823F050
:102DD000F12D0000092E0000F12D0000772B0000DE
:102DE000772B0000772B0000F12D00001D4AD0E763
:102DF000174A1D4B126822601A6862605A68A26006
:102E000008331B68E360B6E6164A184BF2E7626BBC
:102E1000012A17D01649174A0E601020136003F0DC
:102E200087FEC9E714481549026001220A6072E76B
:102E3000134A2169116061695160A1699160E1697A
:102E4000D16068E70F49104A0E6040201360E6E742
:102E500040B402507CB40250BCB4025024B50250BD
:102E600010B9025060B4025044B4025064B402502D
:102E700030BC025034BC025038BA025078B4025010
:102E800000B4025028BC02502CBC0250002840D094
:102E90002DE9F04300F11C010EC983B006690193CE
:102EA000836845698469C76893FA83FE019BC0F80B
:102EB00008E093FA83F9836AC0F8249093FA83FCBC
:102EC000C36AC0F828C036BA2DBA24BA09BA12BAF1
:102ED00093FA83F806614561066B456B8461C161B5
:102EE000846BC16B0262436C026CC0F82C803FBAE9
:102EF00036BA2DBA24BA09BA12BA1BBAC760066329
:102F000045638463C16302644364002003B0BDE889
:102F1000F0834FF47200704728B1574B826D9A428C
:102F200004D0564870474FF4720070472DE9F043C3
:102F3000016E804600F14805E1B02846C900042230
:102F400000F09EF8D8F8543020A84FF48072002189
:102F50001CBA03F0AFFED8F85C20E308B3FBF2F430
:102F600002FB1434141B102C98BFA41820ABA4F13E
:102F7000100018442946102280258DF8805003F057
:102F800095FE2A46684608F1640103F08FFED8F8E2
:102F90006030D8F85C200DEB0300D21A0DEB050170
:102FA00003F084FED8F85C50D8F86030ED1AADB26A
:102FB0006946404600F0EAF8AC4251D808F11800E2
:102FC0000FC893FA83F9D8F82830D8F81050D8F8F9
:102FD0001440D8F80870D8F80C60C8F8209093FA1C
:102FE00083FE00BAD8F82C30C8F81C002DBAD8F8E7
:102FF0003800C8F8145024BA09BA12BA93FA83FCFC
:10300000D8F83050D8F84430C8F81040C8F8181034
:10301000D8F83440D8F83C10C8F82420D8F840201C
:10302000C8F82CE000BA3FBA36BA2DBA24BA09BAA9
:1030300012BA1BBAC8F83C000020C8F80C70C8F8D7
:103040000860C8F828C0C8F83450C8F83040C8F83C
:103050003810C8F84420C8F8403061B0BDE8F083AB
:1030600020AB59196846D8F85C2003F01FFE69466A
:10307000404600F08BF8A1E7785634120200F200C7
:1030800070B4EAB1034600EB82051C6824BA43F829
:10309000044B9D42F9D102F18043013B9E0050F860
:1030A00023402144A14240F8231013D3321D02448F
:1030B00003681BBA40F8043B9042F9D170BC7047DA
:1030C00050F8043C19448B4240F8041C88BF6FF050
:1030D0000306F3D9311F43184458651CA5424550D7
:1030E000A2F102010BD809B9E0E741B153F8045C41
:1030F0006C1CA54201F1FF3143F8044DF5D2002AC2
:10310000D4D1DBE740B110B50468012C15D0022CF6
:1031100005D05CB10C4810BD4FF472007047083008
:1031200020220A4903F0C2FD002010BD08301422FD
:10313000074903F0BBFD204610BD08302022054999
:1031400003F0B4FD002010BD0100F200DCAA000075
:10315000C8AA0000FCAA000020B10368032B04D019
:10316000074870474FF47200704710B5402204467C
:103170000449083003F09AFD034BA365002010BDFD
:103180000100F20010A40000785634122DE9F04F2F
:1031900000F10803ADF5697D1C468B4640220021F5
:1031A00038A824930025FDF7E7F8214638A8002425
:1031B0004022CDE9344503F079FDDDE93E78DDE9D3
:1031C0003834DDE93A1240A8CDE91478D0E9007826
:1031D00042A8D0E9009ACDE91C34CDE92634CDE9E6
:1031E0000034CDE91E12CDE92812CDE90A12DDE93D
:1031F000142344A8CDE9169AD0E9009ACDE9042316
:10320000DDE9163446A8CDE9189AD0E9009ADDE93F
:103210003C56CDE92E34CDE90C34DDE91834CDE946
:103220001A9ACDE92278CDE92C78CDE90278CDE95A
:103230002056CDE92A56CDE90E56CDE93034CDE9F8
:103240001034DDE91A340BF1040BCDE90634804665
:10325000DFF8A4A1259013E0DDE90A23CDE90E23D0
:10326000DDE90C23CDE91023DDE90023CDE90A23B4
:10327000DDE90223CDE90001CDE90C23CDE90245CA
:103280002C9A2D98319C309E2E9D2F9BDDF8A89076
:103290009704910347EA903741EA904187EA010C8D
:1032A0004FEA804E810341EA92414EEA923E8EEA15
:1032B000010ED105C70541EA502163408EEA0101A4
:1032C00047EA5227754034918CEA07071540289940
:1032D000359718406E400891299DDBF80010139532
:1032E0006040DDE9344535903496DDE9346709BA4C
:1032F000C8F80810FAE90201269A279BDDF8ACE02D
:10330000A4197D414FEA827C00194FEA031444EA74
:1033100012744CEA930C694184EA0C0C9D07140169
:1033200045EA920544EA13746C40550645EAD31504
:103330008CEA050534955D065BF8046C45EAD21508
:103340006C40089D359436BA45EA0904C8F80C600B
:1033500005EA0909139DF8E90267224045EA0E04CF
:10336000234005EA0E0E801942EA090243EA0E03E1
:10337000794132923393DDE93445DDE90667DDE9D1
:10338000322336184F4112196B41DDE90445A41967
:103390007D41B01847EB0301CDE93223DDE90E236F
:1033A000CDE90423DDE90223CDE92E23DDE9102355
:1033B000CDE90623DDE90A23CDE92A23DDE900234F
:1033C000DDE90C67CDE9282366AB4345CDE93067DD
:1033D0000BF1080BCDE92C45CDE926017FF43CAF7C
:1033E000044BDDF89490CDE90645CDE908019846F7
:1033F00018E000BF98AB000018AB0000304639461B
:10340000CDE90A01DDE90201CDE90C01DDE90801A0
:10341000CDE90001DDE90601CDE90823CDE902018E
:10342000CDE90645D9F87C60D9F87870D9F8143020
:10343000D9F810102D9D2C98DDF8C0C0FC004FEA83
:10344000463E44EA56724EEAD7444FEA866E4EEA4A
:10345000971E544084EA0E047A034FEAC60E42EAED
:10346000D6424EEA5777574087EA961636943796F3
:10347000DDE936ABD9E91467DC071A0642EA112206
:1034800044EA51045440CA071AEB060A42EA5306BA
:103490004FEA016242EA132282EA060282EAD3126A
:1034A0004FEA436343EAD11384EA03044BEB070B6F
:1034B00036944FEA804EAC048303C9E922AB3792BD
:1034C000F9E9026744EA903243EA9543AC034EEAD5
:1034D000953E8EEA030E44EA90435340319913938C
:1034E00016EB0A062E9A2F9B47EB0B07DDE936AB4E
:1034F0008CEA02024B402B40024082EA0C0283EA33
:10350000010C1AEB06034BEB0704EE05CDE904347E
:1035100046EA5026139B2699C00540EA552058409C
:10352000279B34908D0745EA93078EEA06061D0116
:103530000C019807359640EA910045EA117544EA76
:1035400013747D404440DDE93467580634924A06DE
:1035500042EAD31240EAD1106A406040DDE90445F6
:10356000CDF8D4C0C9E92045DDE934453492359021
:1035700028A890E80550F8E902AB361934466F41A7
:103580001AEB0406344640EA0C0601EA060100EA9A
:103590000C0040EA010042EA0E0103EA010302EADC
:1035A0000E0243EA02033393DDE904233D464BEB6D
:1035B00005073D4612196B4114461D463290DDE960
:1035C0001023DDE93201DDE9346712196B418019FE
:1035D000DDE90E457941DDE90267A4185D41CDE9D9
:1035E00030671218DDE906674B41CDE93201DDE9AC
:1035F0000A01CDE92E67DDE90867CDE90E01DDE9B5
:103600000C01CDE92867DDE90067CDE91001C6A905
:103610008945CDE92C45CDE92A67CDE926237FF4FC
:10362000EDAEDDE91C01801859418046DDE91E231D
:103630008946DDE9080112184B419C469346DDE9B5
:10364000202392197B41CDE90023DDE90A67DDE9FA
:10365000141289197A41CDE90412DDE92201001919
:103660006941DDE9066704460D46DDE9160180196A
:10367000794142ABC3E90001DDE91867DDE90201E8
:103680003618DDE90C234F41CDE93889DDE91A010F
:10369000E146D846CDE93A89DDE9008980185941EB
:1036A000CDE93C8946ABDDE90489C3E9000140ABC3
:1036B000C3E9004548A844AB4FF420720021C3E998
:1036C0000067CDE93E8903F0F5FA38A92498402235
:1036D00003F0ECFA0DF5697DBDE8F08F0B6802E0B0
:1036E000082B0B6006D8426813424FEA4303F7D019
:1036F0000020704700487047310CF100013807285E
:1037000015D8DFE800F0100C1408141414048B69A9
:103710008B60002070474B698B60002070470B69FD
:103720008B6000207047CB688B6000207047014899
:10373000704700BF310CF1002DE9F04F8FB080468B
:103740000C46164602A830220021189DFCF714FEF4
:103750001A9B03F5C1622A60199A00231360D8F8F6
:10376000D43013F4407F0AD02B681B681360002B01
:1037700040F08980924F38460FB0BDE8F08F002EA0
:1037800000F08E808F49904A0868A16812689142C3
:1037900040F09B80002840F0988098F8DB30009340
:1037A0008A4E8B4DDFF834A2DFF834B24FF00409B3
:1037B0000023019301270CE09A0700F19380DB06B8
:1037C00000F18D80A36803EB43031B049B09336066
:1037D0002F6001A800F0CAF9019BD907ECD54FF082
:1037E000FF33CAF80030DBF800300293794B1A68D7
:1037F00003925A6804920833774A1B680593A368BA
:103800001168069103EB430351680791203A1B04AA
:103810009B0912683360012700232F6001930AE09F
:1038200099075FD4DA065AD4A36803EB43031B0459
:103830009B0933602F6001A800F098F9019BD8071D
:10384000EED56649664A634B4FF0FF300860126858
:1038500008921A6809925A680A929A680B92DA6872
:103860000C921A690D92143B1B681A9B302203F5C7
:10387000C26002A903F01AFA199A30231360D8F82B
:10388000D430002722E0D8F8D47017F4007720D085
:103890002B68544F5A684A4B002A08BF1F466AE7F4
:1038A00023F00F03C8F8D430002C00F087800EA955
:1038B000012341F8383DC8F8D8602046FFF70EFFD5
:1038C000074648B3D8F8D43000E0474F9B053FF592
:1038D00052AF00F02FF938460FB0BDE8F08F10233B
:1038E000CAF800304FF0FF33CAF80030009B082BB5
:1038F0000ED05B0000933CB1002B55D163683BB9FF
:10390000D8F8D430394FE1E7D8F8D430384FDDE774
:10391000D8F8D430374FD9E721460098FFF7EEFEAC
:1039200007460028CED1009B082B00F0C480042B52
:1039300000F0BF80A3F10203B3FA83F35B092E4AC0
:103940002E4E214D01211160084631600F4617604F
:10395000A16829602E68A1688E42F8D11C4ADFF860
:103960007CE0274F274E174D00214FF0FF3C1160A0
:10397000CEF800C06FF0130EC7F800E03360296086
:10398000A368124903EB43031B049B090B601060FF
:103990000099D8F8D8200B0243EA016322F07F4255
:1039A0001343C8F8D830FBE669462046FFF796FE79
:1039B00050B30E4B98420746A0D083E70C4F85E7E3
:1039C000330CF00038B1025030B10250D8B102507F
:1039D0002CB1025018B1025024B1025008B102506B
:1039E00014B10250340CF000300CF100310CF10035
:1039F000350CF100320CF100C4B1025040B102505C
:103A000000B102500CB1025021460098FFF776FE3B
:103A10000028CED1009B082B45D0042B46D0A3F123
:103A2000020CBCFA8CFC4FEA5C1C2448244F254A4B
:103A30000123036019463B6086461F46CEF800709E
:103A4000A36813601368A0688342F7D100231E4A5D
:103A50001E4F1F482B604FF0FF3ECAF800E06FF08A
:103A6000130EC7F800E0C0F800C01360A36803EBB2
:103A700043031B049B0933602960009AD8F8D810CF
:103A8000130243EA026321F07F421A43130A03F44C
:103A90007F03134323F07F43B9F10109C8F8D830FD
:103AA0007FF486AEE1E64FF0030CBEE74FF0020C68
:103AB000BBE7022343E7032341E700BFC4B1025041
:103AC00040B1025030B1025038B1025000B1025042
:103AD0000CB10250012BF8B5164607D010221D4636
:103AE0000C4603F0E1F848B91048F8BD1146102221
:103AF00003F0DAF80028F7D00020F8BDAF1E3146F9
:103B000004EB0710102203F0CFF80028ECD0022DB0
:103B1000F2DD00252046103421461022013503F045
:103B2000C3F80028E0D0BD42F4D1E5E7020CF00074
:103B300000207047084B094A002119601368002BC8
:103B4000FCD107480749084A03604FF480604FF0F2
:103B5000FF330860136070472CB1025010B9025057
:103B6000C4B1025008BA025008B1025038B5044638
:103B70004FF4806002F0DCFF054D06480649074A15
:103B800000232B6003600B682360136038BD00BF07
:103B9000C8B102502CB1025004B1025008B1025019
:103BA0002DE9F04F99B0964C269F239E4FEA874E01
:103BB0004FEA073C4EEA0C0747F0104747F08007F2
:103BC00025680195019DED07FAD54FEA801A4AF064
:103BD00010498C4C8A4D276049F4005949EA8343C7
:103BE0002C680294029CE407FAD5864C844D23602D
:103BF0004AEA003747F0245444F400142B68039336
:103C0000039BDB07FAD57F4BDFF8F4811C604EF095
:103C1000104545F40255D8F800300493049BDB07A7
:103C2000F9D5784C764B25604FEA811949F0104858
:103C3000229C48F4005848EA84451C680594059C79
:103C4000E407FAD549EA013E6E4B6D4C1D604EF01B
:103C5000245848F4001823680693069BDB07FAD51E
:103C60004FEA864B4BEA0636664B654CC3F800803C
:103C700046F0104646F0800623680793079BDD0751
:103C8000FAD5614B249D5F4C43EA85455C4B266029
:103C900005431C680894089CE407FAD5594B584C16
:103CA0001D604BF0104545F4025523680993099BAC
:103CB000DB07FAD5259C554E524B46EA8446504CBC
:103CC0001D6046EA010523680A930A9BDE07FAD5C0
:103CD000940144F010464B4B46EA0B0B484E1D60D6
:103CE0004BEA0C0533680B930B9BDB07FAD544EAD0
:103CF0008242444B424C1D6042F0104242F440521A
:103D000023680C930C9BDD07FAD53E4B3C4C1A60A4
:103D100023680D930D9BDA07FAD53A4B3C4C384A91
:103D20001C6013680E930E9BDB07FAD5354B394C9C
:103D3000334A1C6013680F930F9BDE07FAD5314B93
:103D4000354C1C602E4A4EF0104444F44024136855
:103D50001093109BDD07FAD580042A4B284A1C607B
:103D600040F0104545F4824513681193119BDC0720
:103D7000FAD5244B294C224A1D604AEA04041368F0
:103D80001293129BDB07FAD51E4B1D4A1C6047F0AD
:103D9000045747F4801713681393139BDE07FAD573
:103DA000184B174A1F6013681493149BDD07FAD54C
:103DB000144B134A1F6040F0045040F482401368D3
:103DC0001593159BDC07FAD541F048410D4B0C4A81
:103DD000186041F4042141EA090113681693169B07
:103DE000D807FAD5074B064A196013681793179B33
:103DF000DB07FAD5034BC3F8008019B0BDE8F08F9C
:103E0000B0B0025080B00250C02000C8802000C86E
:103E100000310C90C0400C90C0302029032008C80D
:103E20002DE9F04FA1B09E012F9FDDF8B0A0AE4C60
:103E300000924FEA87493F0346F0104549EA070ED2
:103E400005954EEA05084D4622680692069AD20765
:103E5000FAD5DFF898C2DFF890E282010192CCF83F
:103E6000008042F010442A9A44EA82441A0344EA49
:103E70000208DEF800400794079CE407F9D5019C8E
:103E8000DFF868E2DFF860C244EA00340294CEF85A
:103E9000008044F0245E4EF4001EDCF800400894DC
:103EA000089CE407F9D546EA0204A946DFF83CC2BB
:103EB0000494254649EA05058B4CCCF800E045F012
:103EC000104925680995099DED07FAD52B9CDFF867
:103ED0001CE24FEA811848F0104C4CEA844C824CAA
:103EE000CEF800904CEA020C25680A950A9DED0771
:103EF000FAD57E4C7C4DC4F800C048EA013E4EF035
:103F0000245C4CF4001C2C680B940B9CE407FAD541
:103F10004FEA8A4949EA0A35744CDFF8CCA1C4F863
:103F200000C045F010453543DAF800400C940C9C75
:103F3000E407F9D52D9CDFF8B8A1DFF8B0B14AEA63
:103F4000844A4AEA000ACBF80050674C4AEA020564
:103F5000039525680D950D9DED07FAD549F0104A9A
:103F6000DFF888B1039D604CCBF800504AEA060A9E
:103F70004AEA020A25680E950E9DED07FAD52E9C99
:103F8000DFF868B141EA844545F0484535431543BB
:103F9000554CCBF800A0039525680F950F9DED07B4
:103FA000FAD5009CDFF844B1039DCBF800504FEAEE
:103FB000841A4AF0104444EA09094B4C49EA0707BD
:103FC00025681095109DED07FAD5009CDFF81C912F
:103FD000A5044AEA050A4AF0104A434CC9F80070A1
:103FE0004AF4405A27681197119FFF07FAD53F4FAF
:103FF0003D4CC7F800A027681297129FFF07FAD51B
:104000003A4FDFF8F090384CC7F8009027681397C4
:10401000139FFF07FAD5354FDFF8DC90324CC7F815
:10402000009027681497149FFF07FAD52F4FDFF8E9
:10403000CC902D4CC7F800904EF0104E4EF4402E10
:1040400027681597159FFF07FAD5284C264FC4F807
:1040500000E0800440F0104E4EF4824E3C6816940E
:10406000169CE407FAD5019CDFF8809044F048479D
:104070009B04C9F800E047F0030742EA030E1A4C1C
:1040800047EA0E0722681792179AD207FAD5174CFB
:10409000154A2760029C44F0045747F480171468BF
:1040A0001894189CE407FAD5104A0F4C1760226840
:1040B0001992199AD207FAD50C4A0B4C176040F0A6
:1040C000045040F4824022681A921A9AD707FAD50F
:1040D00041F0484141F48041044A034C106041EAF8
:1040E00008010B430CE000BFB0B0025080B002509A
:1040F000C00000C800310C90C0400C90C030202996
:1041000022681B921B9AD207FAD51A491A4A0B60E9
:1041100013681C931C9BDF07FAD5009B164945EAE0
:104120000335144B45F01045C3F800C02E430B680F
:104130001D931D9BDC07FAD50E4B0F491E60059B96
:104140004EEA03020B681E931E9BD807FAD5094B53
:1041500009491A60049B43F0104242F430120B6884
:104160001F931F9BDB07FAD5024B1A6021B0BDE8F5
:10417000F08F00BF80B00250B0B002502DE9F04186
:104180004C4C88B023680193019BDD07FAD54A4B5C
:1041900013449B000A181D681E2A05F11F0588BFDD
:1041A0001E224FEA551505FB02F288BFC0F11E0121
:1041B000B2F5806F04D94FF48061B1FBF5F1091AB3
:1041C000002971DD00F1A05000F52C406E1C4FF06D
:1041D000000E384ADFF8ECC0384C870026F00106A4
:1041E000704613680293029BDB07FAD5D7F800806C
:1041F00013680393039BDB07FAD5CCF800800023F8
:104200004DB101339D422060FBD1B54203D2013351
:10421000B3422060FBD10EF1010E714507F1040796
:10422000DFD1244A13680493049BDC07FAD5244B9E
:10423000204A196813680593059BD807FAD5214BC6
:10424000196075B100231D491A4601339D420A6069
:10425000FBD1AE4205D91949002201339E420A60C2
:10426000FBD1144A13680693069BD907FAD5164B5F
:10427000104A196813680793079BDB07FAD5114B9F
:104280001960ADB100230D491A4601339D420A6001
:10429000FBD19E4205D90949002201339E420A60A2
:1042A000FBD108B0BDE8F0816E1C26F00106B8E72E
:1042B0002B46EEE7B4B0025024AC0014D8B0025044
:1042C0007CB00250D4B0025078B0025010B4124CFE
:1042D00085B023680193019BDB07FAD502F1A05258
:1042E00002F52C4293000C4A1C6813680393039B4D
:1042F000DB07FAD5094B1C6049B1094A00EB810183
:1043000013680293029B40F8043B8842F8D105B041
:104310005DF8044B704700BFB4B00250E4B00250E7
:10432000DCB0025070B42E4D85B02C680094009C17
:10433000E407FAD500F1A05000F52C408000284D8C
:104340000468286801900198C007FAD5254801261D
:10435000046093B1244E02EB830552F8040B3060E5
:10436000AA42FAD15E1C26F00102934205D21E4DEC
:104370000020013393422860FBD1194826F0010543
:1043800002680292029AD607FAD5184B0B449B009A
:104390001B681F335B099D421ED211490A680392B4
:1043A000039AD207FAD50F4A2C445B1B146013D032
:1043B000002214460C4800E00A46511C9942046051
:1043C000FAD1023222F00102934205D206480021BE
:1043D000013393420160FBD105B070BC704700BF50
:1043E000B4B00250D4B00250D8B0025024AC001483
:1043F000F0B595B07B4D1A9E370347EA864747F0E4
:10440000045444F080042E680096009EF607FAD506
:10441000754D764E2C601B9C46EA8212714E42EA24
:10442000043432680192019AD207FAD56E4D6D4E6E
:104430002C608A0142F01044274334680294029CA5
:10444000E507FAD51C0344EA8343674C654E2760B1
:1044500043F0045747F0800734680394039CE40753
:10446000FAD5614C5F4E276034680494049CE707DA
:10447000FAD55D4E5E4D35608C0444F01045594FC1
:1044800045F402553E680596059EF607FAD5564F47
:10449000544E3D6043F0104545F4807533680693F3
:1044A000069BDF07FAD5504B4E4F1D60860146F044
:1044B000045545F482153B680793079BDB07FAD543
:1044C000494BDFF83CC1DFF81CE11D60070347EAF8
:1044D0000C0CDEF800300893089BDD07F9D5424D3F
:1044E000DFF820E1C5F800C01C9B30354EEA834C54
:1044F0002B680993099BDB07FAD53B4B394DC3F871
:1045000000C02B680A930A9BDB07FAD5364B394D5E
:10451000DFF8F4E01D60334D46EA0E0E2B680B9376
:104520000B9BDB07FAD53E432F4B2E4DC3F800E023
:1045300046F0045646F400262B680C930C9BDF07CC
:10454000FAD5294F2C4B274D3E6043EA80402B681B
:104550000D930D9BDE07FAD5234B224D18602B6877
:104560000E930E9BDB07FAD514430E031E4B234D0F
:104570001C481D60344344F0045503680F930F9B9F
:10458000DF07FAD5184B17481D6044F01044036844
:104590001093109BDB07FAD5134B12481C6003687D
:1045A0001193119BDF07FAD516430F4B0D481D6081
:1045B00046F0245646F4101603681293129BDC074B
:1045C000FAD541F04841084B06481E6041F4A2115B
:1045D000114303681393139BDB07FAD5024B196051
:1045E00015B0F0BDB0B0025080B00250000008908D
:1045F0008020082180202029802000214021282996
:104600000001102100410021024010C82DE9F043B3
:1046100093B0684E1A9CDDF86C90DDF87080664DA2
:10462000240326432F680197019FFF07FAD5634DA6
:10463000634F2E6047EA093730352E680296029E96
:10464000F607FAD55D4D5F4E2F601F9F303546EA65
:1046500007362F680397039FFF07FAD55A4D574F28
:1046600045EA8949544D3E6049EA04042F6804979D
:10467000049FFE07FAD5514F544E3C601E9C3037C4
:1046800046EA04363C680594059CE407FAD5DFF851
:104690002CE14F4C209DCEF8006044EA05351D9C6E
:1046A000454F45EA84453C680694069CE607FAD5E2
:1046B0004FEA083747EA8848404C3F4E256048F0AB
:1046C000045747F0C00734680794079CE507FAD5FC
:1046D0003A4C394E27609D0145F0245747F4C217E4
:1046E00034680894089CE407FAD59B04334C324E96
:1046F00027601D4345F0045747F4A04734680994E8
:10470000099CE407FAD52D4C2B4E276034680A9497
:104710000A9CE407FAD5294C2E4F274E27603468AF
:104720000B940B9CE707FAD5244C2B4F224E2760A5
:1047300034680C940C9CE407FAD5204C274F1E4E8D
:10474000276034680D940D9CE707FAD5244C1B4E66
:10475000244F376044EA8010174C184323680E93A7
:104760000E9BDE07FAD5154E1F4B134C306043EA03
:10477000811123680F930F9BD807FAD50F4C1B4B61
:104780000D48216043EA821203681093109BD907F9
:10479000FAD50A4B08491A6045F0104545F4A04582
:1047A0000B681193119BDB07FAD5044B1D6013B006
:1047B000BDE8F08380001829B0B0025080B00250EC
:1047C000800008210001089080000021400108902D
:1047D000800000904041142100211829003110214F
:1047E00000400090C0200C2100500C900030109030
:1047F0002DE9F04FBFB0499E4C9C1EB9B2483FB066
:10480000BDE8F08FD4F824A0994615460F4604F170
:1048100094028046534601210720FFF783FDAB4AEF
:1048200013680F930F9BD807FAD5A94BA949A74A3C
:10483000196013681093109BD907FAD5A44BA649A9
:10484000A24A196013681193119BDB07FAD5A04B9C
:10485000A24A1A600121534604F128021120FFF7F1
:1048600061FD04F14802534601211220FFF75AFD71
:10487000964A13681293129BD807FAD5944B98491D
:10488000924A196013681393139BD907FAD5904B7A
:10489000944A1A60012104F1B40253461420FFF730
:1048A00041FD04F1D402534601211520FFF73AFDE2
:1048B00004F1F402534601211620FFF733FD04F5FD
:1048C0008A72012117205346FFF72CFD4FEA8944D5
:1048D000290344EA010040F0445E7C4A4EF4207E05
:1048E00013681493149BDB07FAD5794B774AC3F806
:1048F00000E040F0645040F4307013681593159B4D
:10490000DB07FAD5724BDFF8F4E1186041EA0E0ECE
:1049100030331A681692169AD207FAD56C4B724940
:104920006A4AC3F800E041EA093113681793179BFC
:10493000DB07FAD566480C220B2301604FF00A0E04
:104940001420132106920593122211230390029141
:10495000019200931A221B2319211820CDF810E090
:10496000FFF754FE4B9B4A989E4238BF1E46013EBD
:104970007211489B53F8223050F8222006F01F0194
:10498000CB405B00CA4003F0020302F00102134374
:10499000022B07D0032B00F0A381012B00F06B81C9
:1049A00052482CE74FEA8813089343F0924343F4AC
:1049B0000033464A43EA854513681C931C9BDB077A
:1049C000FAD5BB0109934249404A0D6043F0924336
:1049D00043F400331C4313681D931D9BDD07FAD578
:1049E0003B4B3A4A1C6013681E931E9BD807FAD5AE
:1049F000374B3F49354A196013681F931F9BD907EE
:104A0000FAD533483B4C0460390341F010434FEA78
:104A1000884043F480632D4A0D9018431368209317
:104A2000209BDB07FAD52A4B1860BB04324A0C9353
:104A300043F00453104643F080034FEA0832134317
:104A40000A93089BDFF8B8B0DFF8B8A01F4CDFF876
:104A50008090034342EA0B0B41EA0A0A0B93013EA2
:104A600000F1A2814899721106F01F0351F82250FB
:104A70004A9951F82220DD406D0022FA03F303F039
:104A8000010305F002051D430F221023394640465D
:104A900000F0D0FA022D00F0EA80032D34D0012D71
:104AA000DDD117251620152110230F220590049122
:104AB0000197CDF80080069503930292394640464F
:104AC000FFF7A4FDCBE700BF0223F000B0B0025017
:104AD00080B00250C0711C3180010021806118211A
:104AE000C0044E41C0144E49000330880323F00037
:104AF000C0033E41C0133E490040409000031C8863
:104B0000800018298000082123682593259BDA0757
:104B1000FAD5C9F800B023682693269BDB07FAD59F
:104B2000C9F800A023682793279BDD07FAD5874B98
:104B3000C9F8003023682893289BD807FAD5844BFE
:104B4000C9F8003023682993299BD907FAD5814BEE
:104B5000C9F8003023682A932A9BDA07FAD50A9B02
:104B6000C9F8003023682B932B9BDB07FAD57A4BCF
:104B7000C9F8003023682C932C9BDD07FAD5774BBE
:104B8000C9F8003023682D932D9BD807FAD5744BB4
:104B9000C9F8003023682E932E9BD907FAD5714BA4
:104BA000C9F8003023682F932F9BDA07FAD56E4B94
:104BB000C9F8003023683093309BDB07FAD56B4B84
:104BC000C9F8003023683193319BDD07FAD5684B73
:104BD000C9F8003023683293329BD807FAD5654B69
:104BE000C9F8003023683393339BD907FAD5624B59
:104BF000C9F8003023683493349BDA07FAD55F4B49
:104C0000C9F8003023683593359BDB07FAD55C4B38
:104C1000C9F8003023683693369BDD07FAD5594B27
:104C2000C9F8003023683793379BD807FAD5099B1A
:104C300043F010420B9BC9F8003042F44522236830
:104C40003893389BD907FAD5C9F8002023683993DF
:104C5000399BDB07FAD54C4BC9F8003023683A93EF
:104C60003A9BDD07FAD5494BC9F80030F7E60C2529
:104C70000B200A2118E74FEA881343F09241444A77
:104C8000089341F48C0113681893189BDD07FAD53B
:104C9000BB01184609933F4B3D4A196040F09241D1
:104CA00041F4940113681993199BDC07FAD5394B29
:104CB000374A196013681A931A9BD807FAD5354BEF
:104CC0003549334A196013681B931B9BD907FAD5E2
:104CD000304B324A1A604FEA88430D933903A4E6F9
:104CE0004FEA881343F09241294A089341F4C401E2
:104CF00013682193219BDD07FAD5BB011846099360
:104D0000244B234A196040F0924141F4CC011368CE
:104D10002293229BDC07FAD51E4B1D4A19601368AB
:104D20002393239BD807FAD51A4B1D49184A1960BB
:104D300013682493249BD907FAD5164B194A1A6095
:104D40004FEA88430D9339036FE600BFC0801929ED
:104D5000C0900D2100310890C0806521403108903D
:104D600080B0419080700890C0F03C21C0A00D90B0
:104D700000441829005440214041142100211829E1
:104D800000311021C0200C21C033109000544090FD
:104D9000B0B0025080B00250C0034E4900045249E6
:104DA000C0036A4900046E49144A13683B933B9B55
:104DB000DC07FAD5089B0D9A114810491A43114B8C
:104DC00042F00842186042F4E0420B683C933C9B7E
:104DD000D807FAD50B480C9B026043F00843099AA8
:104DE000064943F4E0431A430B683D933D9BDB07C0
:104DF000FAD5044B00201A6001E500BFB0B00250A4
:104E0000C0F184A880B00250F0B50B0343EA8141A1
:104E100041F01041794C97B041F080012368009334
:104E2000009BDE07FAD5764B744C1960236801931A
:104E3000019BDD07FAD5724B724C70491C600B6800
:104E40000293029BDC07FAD56D4B6F4C6B491C60DB
:104E50000B680393039BDB07FAD5694B6B4C6749DF
:104E60001C600B680493049BDF07FAD5644B684C05
:104E700062491C600B680593059BDE07FAD5604B01
:104E80006449654F19605D4C81010F4323680693A7
:104E9000069BDD07FAD58404594B584E1F6041EA42
:104EA000040545F0104747F4405733680793079BC4
:104EB000DB07FAD5524B514E1F6044F0104747F4C0
:104EC000045733680893089BDB07FAD54C4B4B4ECD
:104ED0001F6041F0184747F48C1733680993099B0A
:104EE000DB07FAD5464B454E1F6045F0104747F4A7
:104EF000005733680A930A9BDB07FAD5404B3F4EB5
:104F00001F6045F0104E4EF4E03E33680B930B9B50
:104F1000DF07FAD5000344EA0007394B374EC3F8E0
:104F200000E047F0104747F4E06733680C930C9BB0
:104F3000DB07FAD5324B314E1F6033680D930D9B62
:104F4000DB07FAD52E4B354F2C4E1F6033680E937E
:104F50000E9BDF07FAD52A4B314F284E1F6033686E
:104F60000F930F9BDB07FAD5254B2E4F2E4E1F605C
:104F700033681093109BDF07FAD52C4B1B68DB04BA
:104F80000BD545F090251D4E45F4803533681193BF
:104F9000119BDF07FAD51A4B1D6044F02147174DCE
:104FA00047F0C0072B681293129BDB07FAD5144B0E
:104FB0001F4E124D1F6026432B681393139BDF0770
:104FC000FAD50F4B184C1E6023681493149BDD0711
:104FD000FAD5164B1B686FEA133303F001039A42AC
:104FE0000AD00143054A41F0245113681593159BDB
:104FF000DB07FAD5024B196017B0F0BDB0B0025014
:1050000080B00250C0A0099080100A29C0100E2163
:1050100000370C9000C70D9000C0719002C70DC002
:10502000C00070A100087251B4B0025088B00250A4
:10503000C01F0241F0B5DFF8F0E1704E050395B0F6
:1050400045EA0E0E34680194019CE707FAD56C4CD2
:105050006C4F6A4EC4F800E047EA013734680294A6
:10506000029CE407FAD5664C644E276034680394CA
:10507000039CE707FAD5644C614E644F376044EAFD
:1050800081443036254334680494049CE407FAD5FF
:105090005B4C5A4E256034680594059DEF07FAD5A0
:1050A0009D0445EA0337564EDFF880E1534CC6F8BD
:1050B00000E047F0104747F0800726680696069EF6
:1050C000F607FAD54E4E4D4C376026680796079E78
:1050D000F707FAD54FEA023C4CEA8247484EDFF820
:1050E00050E1464CC6F800E047F0045747F0C007CF
:1050F00026680896089EF607FAD5414CDFF834E199
:1051000027604CEA0E0E303426680996099EF60791
:10511000FAD53B4C394FC4F800E09B0143F0245EC4
:105120004EF4C21E3E680A960A9EF407FAD545EA76
:105130000304334B314EC3F800E044F0045747F406
:10514000A04733680B930B9BDB07FAD52C4B2B4EF8
:105150001F6033680C930C9BDF07FAD5284B2C4F4C
:10516000264E1F6033680D930D9BDB07FAD5244B49
:10517000284F224E1F6033680E930E9BDF07FAD52F
:105180001F4B254F1D4E1F6033680F930F9BDB078E
:10519000FAD545F010451A4B204F184E1F6045F4C4
:1051A000804545EA801533681093109BDF07FAD5D8
:1051B00013481B4B114E056043EA8111336811936C
:1051C000119BD807FAD50E4D164B0C48296043EABF
:1051D000821203681293129BD907FAD5084B07492C
:1051E0001A6044F0104444F4A0440B681393139BDA
:1051F000DB07FAD5024B1C6015B0F0BDB0B0025011
:1052000080B0025080000821800000210021089019
:10521000404114210021182900311021C0200C2107
:1052200000500C9000301090800018294021089008
:1052300080700890C0000C9009B9944870472DE91F
:10524000F0434C1C24F00104023C631104F01F02E3
:1052500050F82330D34003F00303022B9FB000F03B
:105260003981032B06D0012B00F0528188481FB0F2
:10527000BDE8F083874A13680F930F9BDD07FAD5CB
:10528000854B8649834A196013681093109BD90790
:10529000FAD5814B82497F4A196013681193119B9B
:1052A000DB07FAD57C4B7F4A1A604FF0FF39794A09
:1052B00013681293129BDF07FAD5774B7A49754A28
:1052C000196013681393139BDE07FAD5724B774965
:1052D000704A196013681493149BDD07FAD56E4B5E
:1052E00073496C4A196013681593159BD907FAD551
:1052F000694B704A1A60023C054638D44FF00B08DF
:105300000A2709260B230A2209210820FFF792FE0B
:105310000B230A2209210820FFF78CFE621104F0FA
:105320001F0355F8222022FA03F303F0030303EBD3
:1053300089030333062B7BD8DFE803F076726E5ABD
:105340005604A30016211522142308200691059265
:105350000493CDF80C800297019600900B230A224B
:105360000921FFF753F94FF00009023CCAD50B2081
:105370000A210922082313261025112403900291E3
:10538000019200930E220696059504940F230D2199
:105390000C20FFF73BF93F4AB9F1000F4CD11368DD
:1053A0001A931A9BDC07FAD53B4B4349394A1960DB
:1053B00013681B931B9BD807FAD5374B3F49354AD7
:1053C000196013681C931C9BD907FAD5324B3C49D2
:1053D000304A196013681D931D9BDB07FAD52E4BCD
:1053E000384A1A60002042E7122111221023ACE74C
:1053F0001221112210230820069105920493CDF862
:105400000C800297019600900B230A220921FFF7D6
:10541000FDF84FF0FF39A8E713211022112394E77C
:1054200017211422152390E7172114221523E2E7F0
:105430000F210C220D2388E713681693169BDB07B8
:10544000FAD5154B1C49134A196013681793179B1B
:10545000DF07FAD5104B1C490E4A196013681893E0
:10546000189BDE07FAD50C4B18490A4A19601368D5
:105470001993199BDD07FAD5074B154A1A600020CE
:10548000F5E60E210D220C23B5E700BF0223F00044
:105490000323F000B0B0025080B002500002164F5B
:1054A0004002724FC002764F80022A4780122A487B
:1054B000800100218061182180210229C061289883
:1054C0000074208840742488C06138980074308843
:1054D000407434881D4A13680C930C9BDB07FAD583
:1054E0001B4B1C49194A196013680D930D9BDF076C
:1054F000FAD5174B1849154A196013680E930E9B7D
:10550000DE07FAD5124B154A1A604FF00009CEE6B5
:105510000E4A13680993099BDE07FAD50C4B0D4917
:105520000A4A196013680A930A9BDD07FAD5084BEB
:105530000949064A196013680B930B9BD907FAD5E2
:10554000034B064A1A604FF0FF39B0E6B0B0025084
:1055500080B0025000020A4F40020E4FC002124FAC
:10556000FF2901D0734870472DE9F043C26993B019
:1055700004460992920F012A03D06F4813B0BDE888
:10558000F08309A9FE2200F0A5FE0128F5D1FC2632
:105590004FF0FF354FF016094FF01508142732462B
:1055A00009A9204600F096FE00EB85030433072B83
:1055B000E3D8DFE803F04D494541363222040B239E
:1055C0000A2209210820CDF81890CDF814800497FC
:1055D0008DE80F00FFF71AF84FF0FF35023E41D07B
:1055E0000B230A2209210820FFF724FD0B230A229E
:1055F00009210820FFF71EFDD1E7122111201025F7
:10560000069105900B230A220921082004958DE8B4
:105610000F00FEF7FBFF0025E0E70E210D200C2513
:10562000EEE70E210D200C25069105900B230A2292
:10563000092108200495CBE70F210C200D25DFE779
:10564000132110201125DBE7132110201125EBE792
:1056500017250B230A22092108200597CDF8108071
:105660000695D4E7324609A9204600F033FE00280B
:1056700083D10B200A21092208230F270C260D2491
:1056800003900291019200930697172305960494C4
:10569000162215211420FEF7B9FF284B002D24D126
:1056A0001A680E920E9AD407FAD5254B254A23493B
:1056B0001A600B680F930F9BD807FAD5204B224A2C
:1056C0001E491A600B681093109BDA07FAD51C4B21
:1056D0001E4A1A491A600B681193119BDB07FAD511
:1056E000174B1B4A1A60002048E71A680A920A9A68
:1056F000D207FAD5124B134A10491A600B680B9364
:105700000B9BDF07FAD50E4B124A0C491A600B6847
:105710000C930C9BDE07FAD5094B0F4A07491A6018
:105720000B680D930D9BDD07FAD5054B0B4A1A60EC
:10573000002023E70223F0000323F000B0B0025062
:1057400080B0025080210229C0612898007420880E
:1057500040742488C06158980074508840745488FC
:105760002DE9F04F04460D4687B011462846904675
:105770009946FAF7FFFFD4F8BC3204F1D8071F337B
:10578000064641465B093A462846FAF74DFE2EB9D1
:10579000DFF8E880404607B0BDE8F08F0128F7D079
:1057A00006A9202341F8043D324BD4F8B8B2D4F80E
:1057B000BC0293F91A200092584593F91B200192DC
:1057C00038BF584693F91C2093F91D300292039379
:1057D00000F0F8F880460028DCD10BF11F0A2649BA
:1057E0004FEA5A1A5346C1F800B022460121FEF78B
:1057F00099FD0121084604F5DC720523FEF792FDB0
:10580000534604F1480201210B20FEF78BFDD4F82A
:10581000BC329DF808409DF800001F333A465B09F2
:105820009DF80C700121FEF77DFD4A465346204647
:105830000121FEF777FD53463846109A0121FEF705
:1058400071FD06F11F035B092A469DF80400012142
:10585000FEF768FD00F0DAF9224651461198FEF78E
:1058600035FD12983A465146FEF730FD059800F096
:1058700007F88FE77CAF000090B002503008F100CD
:1058800008B560B90B4B0C4800221A6001F056FABB
:1058900000B908BD0948BDE8084001F0B1B92028A9
:1058A00001464FF0070228BF20210020FEF766FCCA
:1058B000E8E700BF1CB80250A8570020A0AD0000C8
:1058C00070B41C6885B001F01F0644B91E2E06D0C6
:1058D0001068F04000F0030005B070BC70470F4D39
:1058E0002C680194019CE407FAD500F1A05000F562
:1058F0002C408000094D00682C680394039CE40749
:10590000FAD5074D074C00EB61112960216802911F
:105910000299116000211960DAE700BFB4B00250AB
:10592000E4B00250DCB0025030B4224A84B01368B4
:105930000093009BDC07FAD500F1A05303F52C433C
:105940009B001C4A186813680193019BD907FAD57C
:10595000194B1B6813F11F0148BF03F13E014911A8
:10596000013910D4134A154D154C13680393039B4A
:10597000DB07FAD50B182B6023680293029B3BB917
:1059800011F1FF31F1D2481C400104B030BC704726
:1059900001314801A0F120014FF0004202E001383E
:1059A0008142F2D013424FEA5202F8D004B030BC28
:1059B000704700BFB4B00250ACB00250E4B0025027
:1059C000DCB0025038B504460D4611484FF0FF31A7
:1059D00001F092F950B9A4F12003B3F5426F0DD94B
:1059E0000C4C0B4801F0AAF9204638BD0A4801F0DA
:1059F00007F9A4F12003B3F5426FF1D820462A46F7
:105A0000002100F017F804460028EAD1204638BDEE
:105A1000A85700202221F000B8AD0000A0F120031B
:105A2000B3F5426F01D90248704700F003B800BFD8
:105A30002221F000F0B58F2883B060D800F1470430
:105A400000F16603E4064FEA53135CD15B013F3378
:105A50009B095F1C29B18F4202D92C4803B0F0BDCD
:105A60000F46FB004FF48054B4FBF3F4202C28BF06
:105A7000202402B11460264B264A012500211D6016
:105A8000023C0B4607FA05F540F6FC76A34203F10B
:105A900001032FDA1E2B42F8041B2944F6D11E4ABB
:105AA000DFF894C0116000F13F0329441B4EDFF87A
:105AB0008CE0CCF8001023F03F03403318493160EC
:105AC000BC01CEF80000174FD361174D1748184995
:105AD000184B3C603C32B4612C6004600C601C606C
