:020000040000FA
:1000000090C30020F9020000010300000303000078
:1000100005030000070300000903000000000000C2
:100020000000000000000000000000000B030000C2
:100030000D030000000000000F030000110300008A
:100040001303000013030000130300001303000058
:100050001303000013030000130300001303000048
:100060001303000013030000130300001303000038
:1000700013030000C170000013030000130300000D
:1000800013030000E97000001303000013030000D5
:100090006D71000013030000130300001303000040
:1000A00013030000130300001303000013030000F8
:1000B0001303000013030000000000000000000014
:1000C00013030000130300001303000013030000D8
:1000D00013030000130300001303000000000000DE
:1000E0000000000000000000000000000000000010
:1000F0000000000000000000000000000000000000
:1001000000000000000000000000000000000000EF
:1001100000000000000000000000000000000000DF
:1001200000000000000000000000000000000000CF
:1001300000000000000000000000000000000000BF
:1001400000000000000000000000000000000000AF
:10015000000000000000000000000000000000009F
:10016000000000000000000000000000000000008F
:10017000000000000000000000000000000000007F
:10018000000000000000000000000000000000006F
:10019000000000000000000000000000000000005F
:1001A000000000000000000000000000000000004F
:1001B000000000000000000000000000000000003F
:1001C000000000000000000000000000000000002F
:1001D000000000000000000000000000000000001F
:1001E000000000000000000000000000000000000F
:1001F00000000000000000000000000000000000FF
:10020000DFF80CD001F068FC0048004791A700001F
:1002100090C3002030B4044654E8000F0D4644E873
:100220000053002BF8D1156030BC704730B4044641
:1002300054E8000F40EA010544E80053002BF7D1D1
:10024000156030BC704730B4044654E8000F00EA33
:10025000010544E80053002BF7D1156030BC70470E
:1002600030B4044654E8000F80EA010544E8005326
:10027000002BF7D1156030BC704730B4044654E809
:10028000000F00EB010544E80053002BF7D1156087
:1002900030BC704730B4044654E8000FA0EB0105B1
:1002A00044E80053002BF7D1156030BC704770B4A0
:1002B00004464FF0000054E8006F0D68AE4207BFDF
:1002C00044E80023012044E800630E60002B1CBFBB
:1002D0000020F0E770BC704730B4044654E8000FCB
:1002E00088422CBF451A054644E80053002BF5D13F
:1002F000156030BC7047000006488047064800473C
:10030000FEE7FEE7FEE7FEE7FEE7FEE7FEE7FEE7C5
:10031000FEE7FEE7717100000102000030B44FF00B
:10032000000310F8014B11F8015B013A84EA05045F
:1003300043EA0403F5D1A3F101034FEAD37030BCC3
:1003400070474FF0000310F8012B013943EA020314
:10035000F9D1A3F101034FEAD37070472DE9F007FB
:1003600091E8F807B2E802105B1854EB0C04B2E80D
:1003700002104D4156EB0C06B2E802104F4158EB0B
:100380000C08B2E8021059EB01095AEB0C0A4FF0C5
:10039000260261EB010122EA01015B1854F100041D
:1003A00055F1000556F1000657F1000758F1000815
:1003B00059F100095AF1000A61EB010122EA010139
:1003C0000B4480E8F807BDE8F00770472DE9F00717
:1003D00091E8F807B2E802105B1A74EB0C04B2E87B
:1003E00002108D4176EB0C06B2E802108F4178EBDB
:1003F0000C08B2E8021079EB01097AEB0C0A4FF015
:10040000260261EB010102EA01015B1A74F10004AA
:1004100075F1000576F1000677F1000778F1000824
:1004200079F100097AF1000A61EB010102EA0101A8
:10043000A3EB010380E8F807BDE8F00770470A4620
:100440002DE9F04F92E8F00F2DE9F30F87B091E816
:1004500039000999A0FB01784FF00009E3FB0189FD
:100460004FF0000AE4FB019A4FF0000BE5FB01ABF3
:100470000D994FF0000CE0FB01BC4FF0000EE3FBC8
:1004800001CE4FF00002E4FB01E24FF00006E5FB75
:10049000012600970A994FF00007E0FB018719EB4E
:1004A00007094FF0000747EB0707E3FB01971AEB3B
:1004B000070A4FF0000747EB0707E4FB01A71BEB18
:1004C000070B4FF0000747EB0707E5FB01B70E9955
:1004D0001CEB070C4FF0000747EB0707E0FB01C7D9
:1004E0001EEB070E4FF0000747EB0707E3FB01E7A2
:1004F000D2194FF0000747EB0707E4FB0127F61975
:100500004FF0000747EB0707E5FB0167CDF80480D4
:100510000B994FF00008E0FB01981AEB080A4FF026
:10052000000848EB0808E3FB01A81BEB080B4FF0A1
:10053000000848EB0808E4FB01B81CEB080C4FF07E
:10054000000848EB0808E5FB01C80F991EEB080EF0
:100550004FF0000848EB0808E0FB01E812EB080246
:100560004FF0000848EB0808E3FB012816EB0806EB
:100570004FF0000848EB0808E4FB016817EB080798
:100580004FF0000848EB0808E5FB0178CDF808902B
:100590000C994FF00009E0FB01A91BEB090B4FF090
:1005A000000949EB0909E3FB01B91CEB090C4FF009
:1005B000000949EB0909E4FB01C91EEB090E4FF0E4
:1005C000000949EB0909E5FB01E9109912EB090261
:1005D0004FF0000949EB0909E0FB012916EB090678
:1005E0004FF0000949EB0909E3FB016917EB090723
:1005F0004FF0000949EB0909E4FB017918EB090800
:100600004FF0000949EB0909E5FB0189CDF80CA081
:10061000089901F1100191E8390009994FF0000A99
:10062000E0FB01BA1CEB0A0C4FF0000A4AEB0A0A85
:10063000E3FB01CA1EEB0A0E4FF0000A4AEB0A0A5E
:10064000E4FB01EA12EB0A024FF0000A4AEB0A0A45
:10065000E5FB012A0D9916EB0A064FF0000A4AEB5A
:100660000A0AE0FB016A17EB0A074FF0000A4AEB9F
:100670000A0AE3FB017A18EB0A084FF0000A4AEB7A
:100680000A0AE4FB018A19EB0A094FF0000A4AEB57
:100690000A0AE5FB019ACDF810B00A994FF0000B59
:1006A000E0FB01CB1EEB0B0E4FF0000B4BEB0B0BEB
:1006B000E3FB01EB12EB0B024FF0000B4BEB0B0BD0
:1006C000E4FB012B16EB0B064FF0000B4BEB0B0B77
:1006D000E5FB016B0E9917EB0B074FF0000B4BEB93
:1006E0000B0BE0FB017B18EB0B084FF0000B4BEB07
:1006F0000B0BE3FB018B19EB0B094FF0000B4BEBE2
:100700000B0BE4FB019B1AEB0B0A4FF0000B4BEBBE
:100710000B0BE5FB01ABCDF814C00B994FF0000CAF
:10072000E0FB01EC12EB0C024FF0000C4CEB0C0C5C
:10073000E3FB012C16EB0C064FF0000C4CEB0C0C01
:10074000E4FB016C17EB0C074FF0000C4CEB0C0CAE
:10075000E5FB017C0F9918EB0C084FF0000C4CEBFB
:100760000C0CE0FB018C19EB0C094FF0000C4CEB6E
:100770000C0CE3FB019C1AEB0C0A4FF0000C4CEB49
:100780000C0CE4FB01AC1BEB0C0B4FF0000C4CEB26
:100790000C0CE5FB01BCCDF818E00C994FF0000EF5
:1007A000E0FB012E16EB0E064FF0000E4EEB0E0E88
:1007B000E3FB016E17EB0E074FF0000E4EEB0E0E33
:1007C000E4FB017E18EB0E084FF0000E4EEB0E0E10
:1007D000E5FB018E109919EB0E094FF0000E4EEB60
:1007E0000E0EE0FB019E1AEB0E0A4FF0000E4EEBD0
:1007F0000E0EE3FB01AE1BEB0E0B4FF0000E4EEBAB
:100800000E0EE4FB01BE1CEB0E0C4FF0000E4EEB87
:100810000E0EE5FB01CE4FF02601DDE900344FF06E
:100820000000E6FB013024184FF0000040EB000010
:10083000E7FB0140DDE902562D184FF0000040EBC8
:100840000000E8FB015036184FF0000040EB0000BC
:10085000E9FB0160DDE9048918EB00084FF00000B6
:1008600040EB0000EAFB018019EB00094FF00000AB
:1008700040EB0000EBFB0190DDF818A01AEB000A3A
:100880004FF0000040EB0000ECFB01A012184FF00D
:10089000000040EB0000EEFB012000FB01F01B1804
:1008A00054F1000455F1000556F1000658F1000717
:1008B00059F100085AF1000952F1000A60EB0000FA
:1008C00021EA00000344079880E8F80711B0BDE86A
:1008D000F08F2DE9F00791E8F0174EF6A1514FEA9D
:1008E0004101A4FB01234FF00004E5FB01344FF06C
:1008F0000005E6FB01454FF00006E7FB01564FF00F
:100900000007E8FB01674FF00008E9FB01784FF0B2
:100910000009EAFB01894FF0000AECFB019A4FF055
:1009200026010AFB01FA12EB0A0253F1000354F10B
:10093000000455F1000556F1000657F1000758F183
:10094000000859F100096AEB0A0A21EA0A010A447F
:1009500080E8FC03BDE8F00770472DE9F00390E85C
:10096000F8134FEAEC7202F013022CF0004C02F183
:100970001301591854F1000155F1000156F100011D
:1009800057F1000158F1000159F100015CF100013B
:100990004FEAE17101F0130111445B1854F10004B6
:1009A00055F1000556F1000657F1000758F100080F
:1009B00059F100094CF1000C2CF0004C80E8F813C0
:1009C000BDE8F003704700BF2DE9F00791E8F80794
:1009D000B2E802105B1854EB0C04B2E802104D416F
:1009E00056EB0C06B2E802104F4158EB0C08B2E887
:1009F000021059EB01095AEB0C0A8941B3F1FF339C
:100A000074F1FF3475F1FF3576F1000677F10007D8
:100A100078F1000879F101097AF1FF3A51F100010A
:100A20004A425B184C414D4156F1000657F1000710
:100A300058F1000859EB02095AEB010A80E8F8075F
:100A4000BDE8F00770472DE9F00791E8F807B2E834
:100A500002105B1A74EB0C04B2E802108D4176EBC5
:100A60000C06B2E802108F4178EB0C08B2E80210D5
:100A700079EB01097AEB0C0A89414A425B184C4137
:100A80004D4156F1000657F1000758F1000859EBA7
:100A900002095AEB010A80E8F807BDE8F007704741
:100AA0000A462DE9F04F92E8F00F2DE9F30F87B0D9
:100AB00091E839000999A0FB01784FF00009E3FBA8
:100AC00001894FF0000AE4FB019A4FF0000BE5FBAF
:100AD00001AB0D994FF0000CE0FB01BC4FF0000E94
:100AE000E3FB01CE4FF00002E4FB01E24FF0000611
:100AF000E5FB012600970A994FF00007E0FB01870C
:100B000019EB07094FF0000747EB0707E3FB0197D5
:100B10001AEB070A4FF0000747EB0707E4FB01A7B2
:100B20001BEB070B4FF0000747EB0707E5FB01B78F
:100B30000E991CEB070C4FF0000747EB0707E0FB93
:100B400001C71EEB070E4FF0000747EB0707E3FB5B
:100B500001E7D2194FF0000747EB0707E4FB012735
:100B6000F6194FF0000747EB0707E5FB0167CDF8E3
:100B700004800B994FF00008E0FB01981AEB080A7B
:100B80004FF0000848EB0808E3FB01A81BEB080B3B
:100B90004FF0000848EB0808E4FB01B81CEB080C18
:100BA0004FF0000848EB0808E5FB01C80F991EEB61
:100BB000080E4FF0000848EB0808E0FB01E812EBD4
:100BC00008024FF0000848EB0808E3FB012816EB89
:100BD00008064FF0000848EB0808E4FB016817EB33
:100BE00008074FF0000848EB0808E5FB0178CDF84E
:100BF00008900C994FF00009E0FB01A91BEB090BD1
:100C00004FF0000949EB0909E3FB01B91CEB090CA2
:100C10004FF0000949EB0909E4FB01C91EEB090E7D
:100C20004FF0000949EB0909E5FB01E9109912EBC6
:100C300009024FF0000949EB0909E0FB012916EB15
:100C400009064FF0000949EB0909E3FB016917EBBD
:100C500009074FF0000949EB0909E4FB017918EB9A
:100C600009084FF0000949EB0909E5FB0189CDF8B6
:100C70000CA0089901F1100191E8390009994FF091
:100C8000000AE0FB01BA1CEB0A0C4FF0000A4AEB29
:100C90000A0AE3FB01CA1EEB0A0E4FF0000A4AEBF8
:100CA0000A0AE4FB01EA12EB0A024FF0000A4AEBDF
:100CB0000A0AE5FB012A0D9916EB0A064FF0000A15
:100CC0004AEB0A0AE0FB016A17EB0A074FF0000A39
:100CD0004AEB0A0AE3FB017A18EB0A084FF0000A14
:100CE0004AEB0A0AE4FB018A19EB0A094FF0000AF1
:100CF0004AEB0A0AE5FB019ACDF810B00A994FF0C9
:100D0000000BE0FB01CB1EEB0B0E4FF0000B4BEB8F
:100D10000B0BE3FB01EB12EB0B024FF0000B4BEB69
:100D20000B0BE4FB012B16EB0B064FF0000B4BEB10
:100D30000B0BE5FB016B0E9917EB0B074FF0000B4C
:100D40004BEB0B0BE0FB017B18EB0B084FF0000BA0
:100D50004BEB0B0BE3FB018B19EB0B094FF0000B7B
:100D60004BEB0B0BE4FB019B1AEB0B0A4FF0000B58
:100D70004BEB0B0BE5FB01ABCDF814C00B994FF01F
:100D8000000CE0FB01EC12EB0C024FF0000C4CEB02
:100D90000C0CE3FB012C16EB0C064FF0000C4CEB9B
:100DA0000C0CE4FB016C17EB0C074FF0000C4CEB48
:100DB0000C0CE5FB017C0F9918EB0C084FF0000CB4
:100DC0004CEB0C0CE0FB018C19EB0C094FF0000C08
:100DD0004CEB0C0CE3FB019C1AEB0C0A4FF0000CE3
:100DE0004CEB0C0CE4FB01AC1BEB0C0B4FF0000CC0
:100DF0004CEB0C0CE5FB01BCCDF818E00C994FF066
:100E0000000EE0FB012E16EB0E064FF0000E4EEB2F
:100E10000E0EE3FB016E17EB0E074FF0000E4EEBCC
:100E20000E0EE4FB017E18EB0E084FF0000E4EEBA9
:100E30000E0EE5FB018E109919EB0E094FF0000E16
:100E40004EEB0E0EE0FB019E1AEB0E0A4FF0000E69
:100E50004EEB0E0EE3FB01AE1BEB0E0B4FF0000E44
:100E60004EEB0E0EE4FB01BE1CEB0E0C4FF0000E21
:100E70004EEB0E0EE5FB01CEDDE90434069913EBD3
:100E80000A0354EB0B0451EB0C0152EB0E02002051
:100E900040F1000013EB0B0354EB0C0451EB0E017B
:100EA00052EB0E0246410020474158EB000859EB37
:100EB0000A0940F10000B3EB0E0374F1000471F174
:100EC000000172EB0A0276EB0B0677EB0C0778EB6E
:100ED0000A0879EB0C0960F10000B2EB0B0276EB2B
:100EE0000C0677EB0E0778EB0B0879EB0E0960F137
:100EF00000005FEAE07C7FEA0C0CDCF1000EB3EB53
:100F00000C0374EB0C0471EB0C0172F1000276F12E
:100F1000000677F1000778EB0E0879EB0C0960F119
:100F200000005FEAE07CDCF1000E13EB0C0354EBF5
:100F30000C0451EB0C0152F1000256F1000657F17E
:100F4000000758EB0E0859EB0C0940F100005FEA6E
:100F5000E07CDCF1000E13EB0C0354EB0C0451EBC2
:100F60000C0152F1000256F1000657F1000758EB50
:100F70000E0859EB0C09DDE900ABDDE902CE1AEBF6
:100F8000060A5BEB070B5CEB080C5EEB090E00201E
:100F900040F100001AEB070A5BEB080B5CEB090C55
:100FA0005EEB090E4341002044414141724140F152
:100FB0000000BAEB090A7BF1000B7CF1000C7EEB20
:100FC000060EBB4174EB0804B14172EB080260F1FC
:100FD0000000BEEB070E73EB080374EB0904B94184
:100FE00072EB090260F100005FEAE0787FEA08082E
:100FF000D8F10009BAEB080A7BEB080B7CEB080C74
:101000007EF1000E73F1000374F1000471EB09012D
:1010100072EB080260F100005FEAE078D8F10009A5
:101020001AEB080A5BEB080B5CEB080C5EF1000E98
:1010300053F1000354F1000451EB090152EB080293
:1010400040F100005FEAE078D8F100091AEB080AE5
:101050005BEB080B5CEB080C5EF1000E53F1000338
:1010600054F1000451EB090152EB08020798A0E883
:10107000005C18C080E8060011B0BDE8F08F00BF2A
:1010800070B491E87800B2E802105B1854EB0C04DD
:10109000B2E802104D4156EB0C0680E87800804122
:1010A000013070BC70472DE9F00791E8F807B2E80D
:1010B00002105B1854EB0C04B2E802104D4156EBE1
:1010C0000C06B2E802104F4158EB0C08B2E80210CF
:1010D00059EB01095AEB0C0A80E8F807804101300E
:1010E000BDE8F00770472DE9F00791E8F807B2E88E
:1010F00002105B1A74EB0C04B2E802108D4176EB1F
:101100000C06B2E802108F4178EB0C08B2E802102E
:1011100079EB01097AEB0C0A80E8F807804140423C
:10112000BDE8F00770472DE9F007524290E87800DB
:10113000B1E880071740DB1918EA020854EB0804ED
:1011400019EA020955EB09051AEA020A56EB0A06E2
:1011500078C090E87800B1E8800717407B4118EA32
:10116000020854EB080419EA020955EB09051AEACA
:10117000020A56EB0A0678C080410130BDE8F0074C
:1011800070472DE9F007524290E87800B1E88007F7
:101190001740DB1B18EA020874EB080419EA02097D
:1011A00075EB09051AEA020A76EB0A0678C090E8A0
:1011B0007800B1E880071740BB4118EA020874EBD9
:1011C000080419EA020975EB09051AEA020A76EB26
:1011D0000A0678C080414042BDE8F007704790E8B9
:1011E000300091E8C000A31B1340E41AF618EB1B73
:1011F0001340ED1AFF1830C0C0C17047F0B552421D
:10120000FFF7EDFFFFF7EBFFFFF7E9FFFFF7E7FF62
:10121000F0BD2DE9F0073AC91668A1FB069A4FF018
:10122000000CE3FB06AC4FF00007E4FB06C74FF0F1
:101230000008E5FB067840F8049B56684FF000096B
:10124000E1FB06A91CEB090C4FF0000949EB090969
:10125000E3FB06C917EB09074FF0000949EB090941
:10126000E4FB067918EB09084FF0000949EB09097E
:10127000E5FB068940F804AB96684FF0000AE1FBF5
:1012800006CA17EB0A074FF0000A4AEB0A0AE3FB0B
:10129000067A18EB0A084FF0000A4AEB0A0AE4FB48
:1012A000068A19EB0A094FF0000A4AEB0A0AE5FB25
:1012B000069A40F804CBD6684FF0000CE1FB067CA0
:1012C00018EB0C084FF0000C4CEB0C0CE3FB068CFD
:1012D00019EB0C094FF0000C4CEB0C0CE4FB069CDA
:1012E0001AEB0C0A4FF0000C4CEB0C0CE5FB06ACB7
:1012F00080E88017BDE8F00770470A462DE9F04FF7
:1013000092E8F00F2DE9F30F87B091E839000999C1
:10131000A0FB01784FF00009E3FB01894FF0000AC0
:10132000E4FB019A4FF0000BE5FB01AB0D994FF088
:10133000000CE0FB01BC4FF0000EE3FB01CE4FF0D0
:101340000002E4FB01E24FF00006E5FB01260097F6
:101350000A994FF00007E0FB018719EB07094FF0EE
:10136000000747EB0707E3FB01971AEB070A4FF06B
:10137000000747EB0707E4FB01A71BEB070B4FF048
:10138000000747EB0707E5FB01B70E991CEB070CBD
:101390004FF0000747EB0707E0FB01C71EEB070E06
:1013A0004FF0000747EB0707E3FB01E7D2194FF0C7
:1013B000000747EB0707E4FB0127F6194FF000078A
:1013C00047EB0707E5FB0167CDF804800B994FF069
:1013D0000008E0FB01981AEB080A4FF0000848EB00
:1013E0000808E3FB01A81BEB080B4FF0000848EBD3
:1013F0000808E4FB01B81CEB080C4FF0000848EBB0
:101400000808E5FB01C80F991EEB080E4FF0000815
:1014100048EB0808E0FB01E812EB08024FF0000877
:1014200048EB0808E3FB012816EB08064FF000081C
:1014300048EB0808E4FB016817EB08074FF00008C9
:1014400048EB0808E5FB0178CDF808900C994FF0BF
:101450000009E0FB01A91BEB090B4FF0000949EB68
:101460000909E3FB01B91CEB090C4FF0000949EB3A
:101470000909E4FB01C91EEB090E4FF0000949EB15
:101480000909E5FB01E9109912EB09024FF0000987
:1014900049EB0909E0FB012916EB09064FF00009A9
:1014A00049EB0909E3FB016917EB09074FF0000954
:1014B00049EB0909E4FB017918EB09084FF0000931
:1014C00049EB0909E5FB0189CDF80CA0089901F168
:1014D000100191E8390009994FF0000AE0FB01BAC8
:1014E0001CEB0A0C4FF0000A4AEB0A0AE3FB01CAA4
:1014F0001EEB0A0E4FF0000A4AEB0A0AE4FB01EA6F
:1015000012EB0A024FF0000A4AEB0A0AE5FB012A35
:101510000D9916EB0A064FF0000A4AEB0A0AE0FBA7
:10152000016A17EB0A074FF0000A4AEB0A0AE3FBCD
:10153000017A18EB0A084FF0000A4AEB0A0AE4FBAA
:10154000018A19EB0A094FF0000A4AEB0A0AE5FB87
:10155000019ACDF810B00A994FF0000BE0FB01CBD7
:101560001EEB0B0E4FF0000B4BEB0B0BE3FB01EBF9
:1015700012EB0B024FF0000B4BEB0B0BE4FB012BC0
:1015800016EB0B064FF0000B4BEB0B0BE5FB016B67
:101590000E9917EB0B074FF0000B4BEB0B0BE0FB1F
:1015A000017B18EB0B084FF0000B4BEB0B0BE3FB35
:1015B000018B19EB0B094FF0000B4BEB0B0BE4FB12
:1015C000019B1AEB0B0A4FF0000B4BEB0B0BE5FBEF
:1015D00001ABCDF814C00B994FF0000CE0FB01EC0F
:1015E00012EB0C024FF0000C4CEB0C0CE3FB012C4B
:1015F00016EB0C064FF0000C4CEB0C0CE4FB016CF2
:1016000017EB0C074FF0000C4CEB0C0CE5FB017CCE
:101610000F9918EB0C084FF0000C4CEB0C0CE0FB96
:10162000018C19EB0C094FF0000C4CEB0C0CE3FB9C
:10163000019C1AEB0C0A4FF0000C4CEB0C0CE4FB79
:1016400001AC1BEB0C0B4FF0000C4CEB0C0CE5FB56
:1016500001BCCDF818E00C994FF0000EE0FB012E14
:1016600016EB0E064FF0000E4EEB0E0EE3FB016E76
:1016700017EB0E074FF0000E4EEB0E0EE4FB017E53
:1016800018EB0E084FF0000E4EEB0E0EE5FB018E30
:10169000109919EB0E094FF0000E4EEB0E0EE0FB09
:1016A000019E1AEB0E0A4FF0000E4EEB0E0EE3FBFE
:1016B00001AE1BEB0E0B4FF0000E4EEB0E0EE4FBDB
:1016C00001BE1CEB0E0C4FF0000E4EEB0E0EE5FBB8
:1016D00001CE079800F11C0181E8C45FBDE8F80362
:1016E00080E8F8030AB0BDE8F08F00BF2DE9F04FA5
:1016F000B0E8FE5F83B02DE90158B0E800584FF024
:101700000A00069003984919484019EB304995EAB8
:10171000090511EB355191EA304019EB306999EA2E
:10172000355592199BEA020B1AEB3B4A96EA0A06D8
:1017300012EB365292EA3B4B1AEB3B6A9AEA365668
:10174000CDE9049ADDE9019ADB199CEA030C19EB57
:101750003C4997EA090713EB375393EA3C4C19EBE2
:101760003C6999EA375714EB08049EEA040E1AEB19
:101770003E4A98EA0A0814EB385494EA3E4E1AEBB3
:101780003E6A9AEA385811EB766191EA3E6E19EB9F
:101790003E4999EA766611EB365191EA3E4E5FEA90
:1017A0003E6E19EB0E0999EA36565FEA766612EB41
:1017B000776292EA30601AEB304A9AEA776712EB66
:1017C000375292EA30405FEA30601AEB000A9AEA38
:1017D00037575FEA7767CDE9019ADDE9049A13EBA1
:1017E000786393EA3B6B19EB3B4999EA786813EB12
:1017F000385393EA3B4B5FEA3B6B19EB0B0999EAD1
:1018000038585FEA786814EB756494EA3C6C1AEB1C
:101810003C4A9AEA756514EB355494EA3C4C5FEA0D
:101820003C6C1AEB0C0A9AEA35555FEA7565039031
:10183000069801387FF465AF01BC80E80058A0F13C
:101840003400BDE8005880E8FE5F03B0BDE8F08FCB
:101850002DE9F14F90E8F80092E8001F13EB080320
:1018600054EB090455EB0A0556EB0B0647EB0C0746
:101870000A68A3FB02894FF0000AE4FB029A4FF0CA
:10188000000BE5FB02AB4FF0000CE6FB02BC4FF097
:101890000000E7FB02C04DF8048D4A684FF00008D5
:1018A000E3FB02981AEB080A4FF0000848EB08081F
:1018B000E4FB02A81BEB080B4FF0000848EB0808FC
:1018C000E5FB02B81CEB080C4FF0000848EB0808D9
:1018D000E6FB02C810EB08004FF0000848EB0808D0
:1018E000E7FB02084DF8049D8A684FF00009E3FB0E
:1018F00002A91BEB090B4FF0000949EB0909E4FBB6
:1019000002B91CEB090C4FF0000949EB0909E5FB92
:1019100002C910EB09004FF0000949EB0909E6FB89
:10192000020918EB09084FF0000949EB0909E7FB28
:1019300002894DF804ADCA684FF0000AE3FB02BA11
:101940001CEB0A0C4FF0000A4AEB0A0AE4FB02CA3D
:1019500010EB0A004FF0000A4AEB0A0AE5FB020A04
:1019600018EB0A084FF0000A4AEB0A0AE6FB028A63
:1019700019EB0A094FF0000A4AEB0A0AE7FB029A40
:1019800034BC4FF4A0364FEA1C4747EA00474FF0FB
:101990000001E7FB06514FEA104747EA0847641881
:1019A0004FF0000141EB0101E7FB06414FEA184708
:1019B00047EA094752184FF0000141EB0101E7FBEC
:1019C00006214FEA194747EA0A471BEB010B4FF084
:1019D000000141EB0101E7FB06B11FFA8CFC8C44CE
:1019E0004FEA9C070CF0030C07EB8707EB1954F147
:1019F000000452F100055BF100064CF1000701BC48
:101A000080E8F800BDE8F08F30B490E83C10511D3C
:101A100053F1000154F1000155F100014CF10001B6
:101A20004FEA9101494201F00501521853F10003B8
:101A300054F1000455F100054CF1000C0CF0030CBE
:101A400080E83C1030BC704700487047D018010057
:101A500010B540EA01040346A40703D009E010C909
:101A6000121F10C3042AFAD203E011F8014B03F845
:101A7000014B521EF9D210BDD2B201E000F8012B89
:101A8000491EFBD270470022F6E710B513460A46FE
:101A900004461946FFF7F0FF204610BD421C10F81F
:101AA000011B0029FBD1801A704730B50446002085
:101AB000034600E05B1C934203D2E05CCD5C401B1C
:101AC000F8D030BD034611F8012B00F8012B002A95
:101AD000F9D1184670470000064C074D06E0E06853
:101AE00040F0010394E8070098471034AC42F6D365
:101AF000FEF78AFB40FB010060FB010070B58C180B
:101B000010F8015B15F0070301D110F8013B2A1111
:101B100006D110F8012B03E010F8016B01F8016BFE
:101B20005B1EF9D12B0705D40023521E0DD401F8FA
:101B3000013BFAE710F8013BCB1A921C03E013F8C3
:101B4000015B01F8015B521EF9D5A142D8D30020F8
:101B500070BD00002DE9F047CA17A0B0064600F19D
:101B600020098C180F46544001464A46684606F143
:101B7000400A06F16008FEF763FC5146424608A899
:101B8000FEF75EFC651E5246494610A8FEF758FC5B
:101B9000ED174246314618A8FEF752FCED43064ABF
:101BA0002C40FB0F6946304602EB841200F02CFA01
:101BB00020B0BDE8F08700BF10F401002DE9F04728
:101BC000CA17A0B0054600F1200A8C180F465440F1
:101BD00001465246684605F1400905F16008FEF7E6
:101BE0002FFC4946424608A8FEF72AFC661E4A46D4
:101BF000514610A8FEF724FCF6174246294618A8BD
:101C0000FEF71EFCF6430834054A3440FB0F6946D4
:101C1000284602EB841200F0F7F920B0BDE8F08707
:101C200010F401002DE9F047CA17A0B0054600F1F5
:101C3000200A8C180F46544001465246684605F16A
:101C4000400905F16008FEF7FBFB4946424608A83B
:101C5000FEF7F6FB661E4A46514610A8FEF7F0FB5B
:101C6000F6174246294618A8FEF7EAFBF643103459
:101C7000054A3440FB0F6946284602EB841200F007
:101C8000C3F920B0BDE8F08710F401002DE9F0435E
:101C90000D46A1B001F120091646044649462A46E0
:101CA00068461F4606F12008FEF790FB49462A4683
:101CB00008A8FEF753FB4146324610A8FEF786FB04
:101CC0004146324618A8FEF749FB3A4618A910A823
:101CD000FFF794FA10AA69466846FEF7B1FB08A917
:101CE00018AA0846FEF7ACFB06F1600205F1600198
:101CF00010A8FEF7A5FB10A90846174AFEF7A0FB9F
:101D000006F1400205F1400118A8FEF799FB18AA58
:101D100011461046FEF722FB6A4608A92046FEF748
:101D200055FB04F120056A4608A904F16000FEF79E
:101D300015FB4034284610AA18A9FEF747FB10AA45
:101D400018A92046FEF70AFB3A4629462046FFF727
:101D500055FA21B0BDE8F08350FA010070B5A0B08B
:101D6000044601F1200668460D46FEF768FB314641
:101D700008A8FEF764FB05F1400110A8FEF75FFB21
:101D800010AA11461046FEF7E9FA694618A802F0B3
:101D9000E1F8324629462046FEF7E0FA2146204681
:101DA000FEF74DFB6A4621462046FEF70FFB04F185
:101DB000400508AA21462046FEF708FB284608AA47
:101DC00018A9FEF7CBFA10AA294604F12000FEF765
:101DD000FDFA08AA18A904F16000FEF7F7FA20B08E
:101DE00070BD00BF2DE9F0419046B0B004460A46F0
:101DF000624E634D00E0224611466846FFF77EFAC8
:101E0000324608A910A8FFF779FA18A908AA0846C7
:101E1000FFF749F92A4618A920A8FFF76FFA089B8F
:101E2000289F20AA69462046DF1BFFF75CF92A4657
:101E30003F1A21462046FFF756F93F1AFA43D20FC0
:101E400029462046FFF79DF93A1AD20F2946204627
:101E5000FFF769F9224621466846FFF74FFA3246F6
:101E600008A910A8FFF74AFA18A908AA0846FFF718
:101E70001AF92A4618A920A8FFF740FA089B289FBC
:101E800020AA69462046DF1BFFF72DF92A463F1A94
:101E900021462046FFF727F93F1AFA43D20F294679
:101EA0002046FFF76EF93A1AD20F29462046FFF76F
:101EB0003AF9224621466846FFF720FA324608A939
:101EC00010A8FFF71BFA18A908AA0846FFF7EBF8B5
:101ED0002A4618A920A8FFF711FA089B289F20AAD4
:101EE00069462046DF1BFFF7FEF82A463F1A2146C7
:101EF0002046FFF7F8F83F1AFA43D20F294620464A
:101F0000FFF73FF93A1AD20F29462046FFF70BF99F
:101F1000224621466846FFF7F1F9324608A910A883
:101F2000FFF7ECF918A908AA0846FFF7BCF82A46FB
:101F300018A920A8FFF7E2F9089B289F20AA694664
:101F40002046DF1BFFF7CFF82A463F1A21462046DE
:101F5000FFF7C9F83F1AFA43D20F29462046FFF788
:101F600010F93A1AD20F29462046FFF7DCF8B8F1EB
:101F700004087FF440AF30B0BDE8F081B0F3010059
:101F8000F0FA0100F0B5C3B005460C4610A817469C
:101F90001E4604F075F824B12146202210A804F052
:101FA0004FFA394610A8202204F04AFA489A3146DE
:101FB00010A804F045FA10A9684603F02DFF694601
:101FC000284602F0D7FC43B0F0BD00BFF0B5C3B067
:101FD00004460F4610A81E46154604F051F839462F
:101FE00010A8202204F02CFA3246294610A804F04A
:101FF00027FA10A9684603F00FFF6946204602F051
:10200000B9FC43B0F0BD00BF2DE9F0430D46A1B0CF
:1020100001F120091646044649462A466846984674
:1020200006F12007FEF7D2F949462A4608A8FEF72E
:1020300095F93946324610A8FEF7C8F939463246B6
:1020400018A8FEF78BF9424618A910A8FFF7D6F892
:1020500010AA69466846FEF7F3F908A918AA0846C7
:10206000FEF7EEF93A46314610A8FEF7E9F910A955
:1020700005F160020846FEF7E3F910A90846144A84
:10208000FEF7DEF905F14002114618A8FEF766F9E1
:102090006A4608A92046FEF799F904F120056A4628
:1020A00008A904F16000FEF759F94034284610AA47
:1020B00018A9FEF78BF910AA18A92046FEF74EF9C9
:1020C000424629462046FFF799F821B0BDE8F08343
:1020D00050FA01002DE9F04F9BB09646DA68029263
:1020E000404C1A69D3F818A0D3F81C901F685E689A
:1020F0009D6803928B465A691691DEF8003002996A
:10210000049205932268DEF8043011910399069336
:102110000192DEF808301291221D049907930E9760
:1021200092E80C010F961095139105991791069955
:1021300018910799199104460199CDF854900AA86D
:102140000A910B9209920C930893CDF83480CDF844
:1021500050A0FFF7CBFA0B9A0C9B0D991698964658
:10216000099A72449E46089B62607344A360159B63
:102170000E9A09EB030E059B17449C460F9A179B7A
:10218000276116449C44109A069B66615844884413
:10219000039E206312991198C4F80C801544984648
:1021A000029A189B139FA56110443144199A049E0A
:1021B0009844079B3E4402EB0309149F019B0A9A33
:1021C000E0615744134421626662A762C4F82CE0C0
:1021D000C4F834C0C4F83880C4F83C9023601BB005
:1021E000BDE8F08F30FB01002DE9F04F9BB00025DA
:1021F000DDF89C80DDF8A090259ECDF800901C466F
:1022000017464346269A019582468B4612A82021FE
:1022100000F074F80DA802F0FFF812AB32462499D2
:102220000DA802F001F912AB224639460DA802F0C2
:10223000FBF84FF0010ECDF808E039465846269BD2
:1022400022468DE8000300F067FA12AB0DA805A93D
:102250000C2205960695079402F0E6F812AA0DA93D
:1022600009A802F0B7F809A950461022FEF756F85F
:1022700001381BB0BDE8F08F2DE9F04F97B0002575
:10228000DDF88C80DDF89090CDF800901C460F466C
:10229000824693464346229A01950EA82021219E0C
:1022A00000F02CF84FF0010ECDF808E05946229BC3
:1022B000224638468DE8000300F02EFA09A802F005
:1022C000ABF80EAB3246209909A802F0ADF80EAB80
:1022D0002246394609A802F0A7F80EAB09A805A9BD
:1022E0000C2205960695079402F09EF80EAA09A9FD
:1022F000504602F06FF817B0BDE8F08F2DE9F04FAF
:10230000A5B00E90DDF8B890DDF8BCA00D910029C5
:1023100000F01781002B00F08B81591E505C8DF866
:102320004F00002900F0D681991E505C8DF84E00B8
:10233000002900F0DC81D91E505C8DF84D00002989
:1023400000F0D781191F505C8DF84C00002900F077
:10235000D281591F505C8DF84B00002900F0CD81CF
:10236000991F505C8DF84A00002900F0C881D91FE0
:10237000505C8DF84900002900F0C381A3F10801E9
:10238000505C8DF84800002900F0BD81A3F10901DF
:10239000505C8DF84700002900F0B781A3F10A01D5
:1023A000505C8DF84600002900F0B181A3F10B01CB
:1023B000505C8DF84500002900F0AB81134413F800
:1023C0000C3C8DF844300D9B3F2B40F2BD801A46EB
:1023D000964BDDF838B019680391596805919968F2
:1023E000DB680693403A0AF10103099303EB921369
:1023F0000C9314AB0F9204910B93D04602E053461A
:10240000013309931198D9F81430059C0090129863
:10241000019015941398049CD9F800A0D9F80420D1
:10242000D9F80870D9F80C60D9F8105002909E467F
:102430000398D9F818301694069CD9F81C10CDF8DA
:1024400074E00793149017940B98CDF88080CDF822
:1024500060A019920A921A971B961C951E93009AD7
:102460002192019A2292029A089174461F91239216
:10247000FFF73CF918991A9B1B98199A51443B4451
:10248000CBF810101D99CBF8183023461C9F0B4435
:102490001C463D44CBF82440219F009C079BCBF871
:1024A0002050964606440A9ACBF81C602744019CAB
:1024B000229E1E981F9D17997244A646029CCBF837
:1024C0001420B644239E209AA4461844059C089BD9
:1024D000B444159E5D19A619169B049C1C44069BCA
:1024E000194402EB08030093039B149ADDF824A01F
:1024F000CBF828001344009ACBF830200C9ACBF884
:102500002C509245CBF83470CBF838E0CBF83CC077
:10251000CBF80460CBF80840CBF80C10CBF80030B7
:10252000D0460BF1400B7FF46AAF0F9B0E9A23F05D
:102530003F0340331A440D9B0E9213F03F030D935B
:1025400004D125B0BDE8F08F14AB0B9351464B4638
:102550000B9811AAFFF7BEFD0D98002814BF014685
:1025600001210B1F9B08013303284FEA83025AD92C
:102570000E9D14982860012B39D015986860022BA5
:1025800035D01698A860032B31D01798E860042B3B
:102590002DD018982861052B29D019986861062B31
:1025A00025D01A98A861072B21D01B98E861082B29
:1025B0001DD01C982862092B19D01D9868620A2B1F
:1025C00015D01E98A8620B2B11D01F98E8620C2B17
:1025D0000DD0209828630D2B09D0219868630E2B0D
:1025E00005D02298A8630F2B01D0239BEB638A426E
:1025F000A7D024AB13440D9D0E9C13F8403CA3546C
:10260000511CA9429DD224AB5818931C9D4210F82E
:10261000402C625495D924AA1A4412F8402CE25452
:1026200025B0BDE8F08F0022E3E700BF30FB0100DA
:102630008DF84F308DF84E300A2324AA591E5018B9
:10264000002200F84C2C00293FF4BDAE991E24A8AE
:10265000084400F84C2C00293FF4B5AED91E24A83C
:10266000084400F84C2C00293FF4ADAE191F24A8F3
:10267000084400F84C2C00293FF4A5AE591F24A8AB
:10268000084400F84C2C00293FF49DAE991F24A863
:10269000084400F84C2C00293FF495AED91F24A81B
:1026A000084400F84C2C00293FF48DAEA3F108013A
:1026B00024A8084400F84C2C00293FF484AE093BC0
:1026C00024A9194401F84C2C002B3FF47CAE8DF862
:1026D000442078E60B2224A9931EC8180A4400213E
:1026E00002F84D1C00F84C1C002BA6D16BE60A2208
:1026F000F1E70922EFE70822EDE70722EBE70622E0
:10270000E9E70522E7E70422E5E70322E3E70222FF
:10271000E1E78DF8441056E62DE9F04F99B0804678
:10272000894622982499002A00F0E88092460028E1
:1027300000F0D081421E9C5C8DF81F40002A00F002
:102740003082821E9C5C8DF81E40002A00F0278299
:10275000C21E9C5C8DF81D40002A00F01E82021FE4
:102760009C5C8DF81C40002A00F01582421F9C5C86
:102770008DF81B40002A00F00C82821F9C5C8DF8B3
:102780001A40002A00F0F881C21F9C5C8DF81940A5
:10279000002A00F00A82A0F108029C5C8DF8184023
:1027A000002A00F00482A0F109029C5C8DF8174019
:1027B000002A00F0FE81A0F10A029C5C8DF8164010
:1027C000002A00F0F081A0F10B029C5C8DF815400E
:1027D000002A00F0CE81034413F80C3C8DF814302D
:1027E000BAF13F0F40F28D80AAF140034F1C0193D4
:1027F00007EB93131A4608AB4D464446CDF80880C4
:10280000CDF80C900DF1140B00930DF15F0690467E
:10281000994648E02B68089A0999534023606B68F1
:102820000A9A4B406360AB680B995340A360EB6816
:102830000C9A4B40E3602B690D99534023616B69FF
:102840000E9A4B406361AB690F995340A361EB69EA
:10285000109A4B40E3612B6A1199534023626B6AD3
:10286000129A4B406362AB6A5340A362EB6A139ABD
:1028700014995340E3622B6B159A4B4023636B6BA7
:10288000169953406363AB6B179A4B40A363EB6B92
:10289000474583EA0203E363394604F1400405F146
:1028A000400520D00137239B5A464846FFF712FCCB
:1028B000231D9D42AED22B1D9C42ABD205F1FF3EA3
:1028C0000DF11F01601E1EF8013F11F8012F53404A
:1028D0008E4200F8013FF6D14745394604F14004E5
:1028E00005F14005DED101AB93E8080323F03F0377
:1028F00040331AF03F0A9844994406D119B0BDE814
:10290000F08F08AB0DF1140B00935A46239B0098EF
:10291000FFF7E0FB08F1040309F10402904538BF1A
:102920009945C0F0C580BAF1050F40F2C180BAF1F7
:10293000000F14BF50460120031FD9F80010089A59
:102940009B0801335140012B4FEA8302C8F8001065
:1029500000F08480D9F80410099C022B81EA04015C
:10296000C8F804107AD0D9F808100A9C032B81EA21
:102970000401C8F8081071D0D9F80C100B9C042B76
:1029800081EA0401C8F80C1068D0D9F810100C9C2A
:10299000052B81EA0401C8F810105FD0D9F8141093
:1029A0000D9C062B81EA0401C8F8141056D0D9F802
:1029B00018100E9C072B81EA0401C8F818104DD09E
:1029C000D9F81C100F9C082B81EA0401C8F81C10D0
:1029D00044D0D9F82010109C092B81EA0401C8F8D2
:1029E00020103BD0D9F82410119C0A2B81EA040155
:1029F000C8F8241032D0D9F82810129C0B2B81EA89
:102A00000401C8F8281029D0D9F82C10139C0C2BDD
:102A100081EA0401C8F82C1020D0D9F83010149C99
:102A20000D2B81EA0401C8F8301017D0D9F8341002
:102A3000159C0E2B81EA0401C8F834100ED0D9F889
:102A40003810169C0F2B81EA0401C8F8381005D005
:102A5000D9F83C10179C6140C8F83C1090423FF4F4
:102A60004DAF18A9114419F8230011F8401C484033
:102A7000511C514508F82300BFF440AF18AB0B447C
:102A800019F8010013F8404C931C534580EA0402E6
:102A900008F80120BFF432AF18AAD11819F80320A2
:102AA00011F8401C4A4008F8032019B0BDE8F08F27
:102AB00009F1FF3908F1FF380DF11F00002119F865
:102AC000013F10F8012F013153408A4508F8013FBA
:102AD000F5D813E78DF81F008DF81E000A2318AAF9
:102AE000581E1418002204F84C2C00283FF478AE2D
:102AF000981E18AC044404F84C2C00283FF470AE27
:102B0000D81E18AC044404F84C2C00283FF468AEDE
:102B1000181F18AC044404F84C2C00283FF460AE95
:102B2000581F18AC044404F84C2C00283FF458AE4D
:102B3000981F18AC044404F84C2C00283FF450AE05
:102B4000D81F18AC044404F84C2C00283FF448AEBD
:102B5000A3F1080018AC044404F84C2C00283FF4FE
:102B60003FAE093B18A8184400F84C2C002B3FF44A
:102B700037AE8DF8142033E6062218A8931EC41829
:102B80000244002002F84D0C04F84C0C002BA6D196
:102B900026E60722F1E70822EFE70922EDE70A22FD
:102BA000EBE70B22E9E70222E7E70522E5E704224B
:102BB000E3E70322E1E700BF2DE9F047CC7F0D7882
:102BC000C0B00B4625F0070504F03F0493F80280DF
:102BD00049788DF8405044F040041D7F93F803C0BD
:102BE000D3F804E09F68D3F810A0DE688DF8411098
:102BF0008DF85F4011469C695A698DF842808DF8C6
:102C00005C5093F81D809B7F8DF843C081466D46D4
:102C10006846CDF844E01297CDF850A0159216946E
:102C20008DF85D808DF85E30139601F06DF90FCD53
:102C300018AC0FC495E80F0084E80F006846012126
:102C400001F07EF918AD08A8002101F079F90FCD47
:102C500020AC0FC495E80F0084E80F0028A80121DC
:102C600001F06EF918AF0DF140084FF0060A00248C
:102C700017F8016D46FA0AF505F001056C40224689
:102C800020A96846FEF7BAFA224628A908A8FEF746
:102C9000B5FA08AA694630A8FDF760FB08AA1046F5
:102CA0006946FDF793FB28AA20A938A8FDF756FB33
:102CB00028AA104620A9FDF789FB38A9084608AACA
:102CC000FDF7BEFB28A9084630AAFDF7B9FB38AAD4
:102CD00028A920A8FDF742FB28A938AA0846FDF735
:102CE00075FB20A90846FDF7AAFB28A90846FDF7B1
:102CF000A6FB28A918AA0846FDF7A2FB30A908469A
:102D0000FDF79DFB08A938A8FDF799FB38AA30A963
:102D10006846FDF795FB30A938AA0846FDF756FB33
:102D200030A908A8FDF7D5FD08A9084638AAFDF77F
:102D300015FB08A90AF1FF3A30AA0846FDF780FB07
:102D4000BAF1FF3F2C4695D147454FF0070A8FD186
:102D500008A90846012201F00FF908AA6946684649
:102D6000FDF76EFB6946484601F014FA40B0BDE835
:102D7000F08700BF014AFFF71FBF00BFACEF0100A3
:102D800070B500F1200590B00E46044601F03EFA01
:102D900006F12001284601F039FA214608A8FDF77E
:102DA0007FFE08A908460C4AFDF70EFE08A9224638
:102DB0000846FDF776FE08A90846084AFDF704FE16
:102DC00029466846FDF76CFE694608A82022FDF7F3
:102DD000A5FA013810B070BDB0FA0100D0FA0100B8
:102DE0002DE9F047B8B08A468146114610A8514AED
:102DF000FEF779F95049024610A8FEF794F9179F9B
:102E00004C4900EAD7778046C7F1010210A8FEF7C7
:102E10008AF9179D524628A918A8ED4303F036FCFD
:102E2000ED0F20A9C5F10102084601F0CBF9C8F168
:102E30000108FE266A4618A928A803F0DBFB7311D7
:102E400038AA02EB830306F01F0253F8A04CD440CB
:102E500004F0010465402A4628A918A8FEF7CEF917
:102E60002A4630A920A8FEF7C9F9013E28A918A8CA
:102E700003F05AFB731C2546DCD1C4F1010208A8FB
:102E800020A901F09FF97D406A4618A928A803F0FF
:102E9000B1FB28A92A4618A8FEF7B0F92A4630A99E
:102EA00020A8FEF7ABF908A96A460846FDF7F9FD28
:102EB00008A9084601F0C4F908A909F120040AF19B
:102EC00020020846FDF7EDFD20A908AA2046FDF7DF
:102ED000E8FD08AA18A96846FDF7E3FD69466846BB
:102EE000FDF7DEFD18AA694608A8FDF7DAFD2146C0
:102EF0006846FDF7D5FD08AA69461046FDF7A3FD13
:102F000008A90E4A6846FDF79EFD20462021FDF7E0
:102F100018FA08A943420246684643EA0808FEF741
:102F20006DF948466946064AFDF7BBFD404638B094
:102F3000BDE8F08710FB010090F30100D0FA01001A
:102F4000C40000200A460149FFF74ABFCCEF010048
:102F500001F026BA38B504460D4601F021FA05F114
:102F6000200104F12000BDE8384001F019BA00BF8B
:102F700030B5A9B014460546684601F0ADFE2146BD
:102F800018A8FFF7FDFE6A4618A9044608A8FFF72F
:102F900027FF08A904432846FFF7DAFF204629B097
:102FA00030BD00BF30B599B00546684601F094FECB
:102FB000694608A8FFF7C6FF08A904462846FFF798
:102FC000C9FF204619B030BDF0B5C1B005460E4668
:102FD00008A81946174601F07FFE08A930A8FFF798
:102FE000B1FF30A9044618A801F09EFE18A82021C0
:102FF000FDF7A7F918A90443284602F0A1FA3946BB
:10300000684601F069FE6A4618A928A802F060FA2D
:10301000314620A801F060FE28A920AA084601F048
:1030200047FE08A910A801F08FFE28A910AA08469B
:1030300002F04EFA28A82021FDF783F928A90443BD
:1030400005F1200002F07CFA44F3000041B0F0BD2D
:1030500070B50446E8B00E4618A804F120011546E4
:1030600001F03AFE18A920A801F06EFE314610A822
:1030700001F032FE10A920AA084602F029FA2146E2
:1030800008A801F029FE20AA08A9684602F020FA43
:1030900010A948A8FFF756FF294638A8FFF770FE89
:1030A000002856D138A958A86A46FFF799FE00288B
:1030B0004FD150AA28A860A9FDF7C5FC30A858A98F
:1030C00048AAFDF7C0FC30A82021FDF73AF938BB2B
:1030D00050A82021FDF735F9B0B930A9084601F014
:1030E000AFF828A930AA0846FDF7DBFC28A9084656
:1030F000FDF7D6FC48AA28A930A8FDF7A4FC30A902
:1031000058AA0846FDF79FFC30A9684601F00CFE5E
:1031100008A968462022FDF701F9013868B070BDA2
:1031200048A930A8FDF7BCFC30AA114628A8FDF735
:103130004BFC28A930AA0846FDF746FC28A90846FA
:10314000064AFDF780FC50AA114630A8FDF73CFC6A
:10315000BEE74FF0FF3068B070BD00BFF0F3010074
:1031600010B52022B0B004460DEB020002F054FC72
:103170009DF83F309DF8202003F07F0343F040038B
:1031800022F0070208A968468DF83F308DF820200C
:1031900001F0B8FB694618A800F082F918A920468A
:1031A00000F05CF930B010BDF0B5C3B004460E4677
:1031B000174619461AA8202202F02EFC9DF8871007
:1031C0009DF8685001F07F0141F040013B463246D6
:1031D00002A88DF8871025F0070522A98DF8685000
:1031E000FEF7F4FE02A92AA800F05AF92AA92046FF
:1031F00000F034F93346489A009721460AA8FEF7B2
:10320000C1FE1AA912A801F07DFB0AA912AA08465C
:1032100001F058FC0AA902AA084601F05FFB0AA9BE
:1032200004F1200001F012FD43B0F0BDF0B5D3B0C1
:1032300004460E4632A819461D46174600F0BEF950
:10324000E8B933462A460AA821460097FEF79AFEB7
:1032500012A804F1200101F055FB12AB0AAA32A911
:103260001AA800F00FF81AA902A800F0F7F802A9AE
:1032700020462022FDF752F8013853B0F0BD4FF040
:10328000FF30FAE72DE9F04FADF2045D0C4606463B
:103290009246C0A880229946FEF7DAFB214668468E
:1032A000FEF75CFD694608AA20A8FDF7C9F818AA30
:1032B00010A928A8FDF7C4F810AA08A930A8FDF79E
:1032C000BFF818AA694638A8FDF7BAF8C0AC0DF5E2
:1032D00090670023214604F1800520AA6846FEF786
:1032E000D5FC284608AA6946FDF7AAF804F1A00013
:1032F00018AA10A9FDF7A4F804F1C00010AA08A9A3
:10330000FDF79EF804F1E00018AA6946FDF798F869
:10331000BD422C46DDD10DF580785146404601F086
:1033200053FC494680A801F04FFCFC240DF2FD132C
:103330000DF2FD2205E012F9011D31B914F1FF343F
:1033400078D313F9011D0029F5D00021304606F18C
:10335000200A00F0F5FD06F140095046012100F079
:10336000EFFD48460121013400F0EAFD80AB1F1952
:1033700008EB040531466846FEF7F0FC15F9014DEF
:1033800008AA694620A8ECB15FEAD47B18BF644262
:10339000FDF756F818AA10A928A8FDF751F810AAA9
:1033A00008A930A8FDF74CF818AA694638A8FDF717
:1033B00047F8C0AB621003EBC21220A95B46684617
:1033C000FEF764FC17F9014D08AA694620A8E4B18C
:1033D0005FEAD47B18BF6442FDF732F818AA10A93F
:1033E00028A8FDF72DF810AA08A930A8FDF728F89D
:1033F00018AA694638A8FDF723F8174A5B4602EB7E
:10340000841220A96846FEF7FFFD08AA69463046E7
:10341000FDF716F818AA10A95046FDF711F810AAE2
:1034200008A94846FDF70CF8A845A3D10DF2045DA4
:10343000BDE8F08F304600F083FD06F12000012149
:1034400000F07EFD06F14000012100F079FD0DF253
:10345000045DBDE8F08F00BF10F4010030B599B0F5
:1034600004460D4610A84031012200F085FD10AA47
:1034700029466846FCF7E4FF10AA05F1200108A8D8
:10348000FCF7DEFF08A9204600F084FE684600F045
:103490004FFDE37F83EAC010E07719B030BD00BF75
:1034A0002DE9F041B0B00446684601F0E1FB9DF91A
:1034B0003F30414DDA1713445340012B03F1100202
:1034C0001346B8BF002305EB83150FCD27460FC762
:1034D0000FCD0FC70FCD0FC795E80F0004F14006C1
:1034E00087E80F003046012100F02AFDE84604F18C
:1034F00020070DF11505214610A8FEF72FFC18AA8C
:1035000010A92046FCF79CFF28AA20A93846FCF702
:1035100097FF20AA18A93046FCF792FF214610A871
:10352000FEF71CFC18AA10A92046FCF789FF28AA60
:1035300020A93846FCF784FF20AA18A93046FCF7DA
:103540007FFF214610A8FEF709FC18AA10A9204603
:10355000FCF776FF28AA20A93846FCF771FF20AABD
:1035600018A93046FCF76CFF214610A8FEF7F6FBC1
:1035700015F9011D10A8FEF7EDFA95F9151010A820
:10358000FEF71CFB95F92A1010A8FEF74BFB18AAB2
:1035900010A92046FCF754FF28AA20A93846FCF7BA
:1035A0004FFF20AA18A93046FCF74AFFA845A2D130
:1035B00030B0BDE8F08100BF10F40100F0B5044662
:1035C00000F1400699B00F4604F120053046012174
:1035D00000F0B6FC2846394600F096FC294608A8BB
:1035E000FCF72DFF08A910A82D4AFCF729FF08A910
:1035F00032460846FCF7EAFE10AA31461046FCF7B0
:10360000ADFE10AA08A96846FCF71AFF694668468D
:10361000002200F0B1FC08AA69462046FCF710FF22
:1036200021466846FCF70BFF10AA69466846FCF77E
:1036300007FF08A9684600F057FC21460646194ACC
:103640006846FCF7FDFEC6F1010269462046FDF71B
:10365000D5FD21466846FCF7F2FE10AA6946684689
:10366000FCF7EEFE08A9684600F03EFC214606463F
:10367000684600F06FFC204600F05AFCFA7F80EAB2
:10368000D21269462046C2F10102FDF7B7FD04F1EE
:1036900060002A462146FCF7D3FE701E19B0F0BD2B
:1036A00070FA010090FA010038B50C46054601F0A9
:1036B00061FF204602F060F804F1A8012046402294
:1036C00002F004F929462046202202F0FFF82146A4
:1036D0002846BDE8384001F04DBF00BF402A2DE923
:1036E000F84316460C46054600F20982002A00F00F
:1036F0003382671E05F16702002100E0014617F8DA
:10370000013F481C83F03603B04202F8013FF5D375
:10371000402808BF05F1680700F0A38001F1690E99
:103720008B1C05EB0E01402BC1F10001C0F14002E2
:1037300001F0030188BF0122914228BF1146062AE9
:10374000904600F2CE8105F1680705EB000C3621AA
:10375000012A8CF8681000F0F18105EB0309022AB8
:1037600003F1010C89F868101DD005EB0C09032A40
:1037700003F1020C89F8681015D005EB0C09042A36
:1037800003F1030C89F868100DD005EB0C09062A2B
:1037900003F1040C89F8681005D105EB0C0903F15D
:1037A000050C89F86810424558D0402BA8EB020858
:1037B000C0F13F00A8F1040388BF00209B08801AD5
:1037C000013302284FEA830935D972444FF036306D
:1037D000012B05EB0201A8502AD0022B486027D00C
:1037E000032B886024D0042BC86021D0052B0861EE
:1037F0001ED0062B48611BD0072B886118D0082BE0
:10380000C86115D0092B086212D00A2B48620FD06C
:103810000B2B88620CD00C2BC86209D00D2B0863CF
:1038200006D00E2B486303D00F2B886300D0C863EB
:10383000C845CC4412D005EB0C020CF10103362133
:10384000402B82F8681009D0EA180CF10203402BD3
:1038500082F8681002D02B4483F86810002E00F024
:103860006F81221D05F1A80305F1AC01A14288BFBB
:103870009A4200F25381062E40F25081331F216894
:103880009B08013381F05C31012B4FEA8302C5F8BC
:10389000A81066D06168022B81F05C31C5F8AC10CD
:1038A0005FD0A168032B81F05C31C5F8B01058D00F
:1038B000E168042B81F05C31C5F8B41051D0216966
:1038C000052B81F05C31C5F8B8104AD06169062B30
:1038D00081F05C31C5F8BC1043D0A169072B81F0A1
:1038E0005C31C5F8C0103CD0E169082B81F05C3137
:1038F000C5F8C41035D0216A092B81F05C31C5F8B8
:10390000C8102ED0616A0A2B81F05C31C5F8CC104A
:1039100027D0A16A0B2B81F05C31C5F8D01020D0E4
:10392000E16A0C2B81F05C31C5F8D41019D0216B01
:103930000D2B81F05C31C5F8D81012D0616B0E2BC5
:1039400081F05C31C5F8DC100BD0A16B102B81F03D
:103950005C31C5F8E01004D1E16B81F05C31C5F851
:10396000E410B24218D014F82300A918531C80F0B8
:103970005C00B34281F8A8000ED2E05CE918931C09
:10398000B34280F05C0281F8A82005D2E25C2B44AF
:1039900082F05C0283F8A820402E00F0988006F1A7
:1039A000A8042A19711C4029C2F10002C6F1400383
:1039B00002F0030288BF01239A4228BF1A46062B51
:1039C0009E4600F29780A8195C22012B80F8A8205F
:1039D00000F0B28005EB010C022B01F101008CF824
:1039E000A8201CD005EB000C032B01F102008CF881
:1039F000A82014D005EB000C042B01F103008CF877
:103A0000A8200CD005EB000C062B01F104008CF86B
:103A1000A82004D105EB000C481D8CF8A8207345A4
:103A200055D04029AEEB030EC6F13F06AEF10402BD
:103A300088BF00269208F61A0132022E4FEA820C45
:103A400035D92344012A4FF05C3405EB0301EC50D7
:103A50002AD0022A4C6027D0032A8C6024D0042A62
:103A6000CC6021D0052A0C611ED0062A4C611BD0E7
:103A7000072A8C6118D0082ACC6115D0092A0C625B
:103A800012D00A2A4C620FD00B2A8C620CD00C2A5E
:103A9000CC6209D00D2A0C6306D00E2A4C6303D0E9
:103AA0000F2A8C6300D0CC63E64560440FD0291800
:103AB000431C5C22402B81F8A82008D02B44023004
:103AC000402883F8A82002D0284480F8A82028465F
:103AD00001F052FE394628464022BDE8F84301F085
:103AE000F5BE84460A4605F168076046002A3FF4A1
:103AF0005CAE2AE613463046002B92D063E701F015
:103B00003BFE32462146284605F1E80401F0DEFE80
:103B10002046294601F02EFD2026EAE5711E2144AB
:103B200005F1A702013C14F8013F83F05C038C42CD
:103B300002F8013FF7D12FE7084670E79C4632E6CE
:103B40006B4203F00303304601214FF0400EA824DE
:103B5000002B3FF466AF36E700F168077A4202F0C7
:103B60000302B4464FF0680E01234FF04008BCE753
:103B700001F0ACBE38B50C46054602F04DF92046C2
:103B800002F07EFA04F5A4712046802202F058FC6F
:103B900029462046402202F053FC21462846BDE833
:103BA000384002F039B900BF2DE9F043802A83B0D4
:103BB0000C46054600F25B81002A00F08681671EF4
:103BC00005F1C706002100E0014617F8013F481C37
:103BD00083F03603904206F8013FF5D3802808BFF2
:103BE00005F1C80677D001F1C9088B1C05EB080662
:103BF000802BC6F10006C0F1800106F0030688BFE5
:103C000001218E4228BF0E4606298E4600F22181F0
:103C100005F1C8062F184FF0360C012987F8C8C0E7
:103C200000F0458105EB0309022903F1010789F83A
:103C3000C8C01CD005EB0709032903F1020789F866
:103C4000C8C014D005EB0709042903F1030789F85C
:103C5000C8C00CD005EB0709062903F1040789F851
:103C6000C8C004D105EB07095F1D89F8C8C07145BC
:103C70002ED0802BAEEB010EC0F17F00AEF1040C14
:103C800088BF00204FEA9C0C401A0CF1010C02285E
:103C90004FEA8C090CD94144294400234FF03630B7
:103CA00001339C4541F8040BFAD8CE454F440FD060
:103CB000E8197B1C3621802B80F8C81008D02B44D3
:103CC0000237802F83F8C81002D02F4487F8C8101D
:103CD000002A00F0EE8005F5A47005F5A673211DFD
:103CE000884238BF9C42C0F0D280062A40F2CF8082
:103CF000A2F1040E4FEA9E0E0EF1010E4FEA8E0C59
:103D00002746002157F8043B013183F05C338E4590
:103D100040F8043BF6D894451CD014F82E0005EB6F
:103D20000C010CF1010380F05C00934281F8480122
:103D300010D2E15C0CF1020C2B4481F05C01944543
:103D400083F8481106D214F80C30AC4483F05C03BD
:103D50008CF84831802A71D002F5A470291802F13C
:103D6000010EBEF1800FC1F10001C2F1800301F02C
:103D7000030188BF0123994228BF1946062B1F461D
:103D800070D8AC185C21012B84F8481100F08D80AC
:103D900005EB0E0C022B0EF101048CF848111DD01E
:103DA00005EB040C032B0EF102048CF8481115D01E
:103DB00005EB040C042B0EF103048CF848110DD014
:103DC00005EB040C062B0EF104048CF8481105D108
:103DD00005EB040C0EF105048CF84811BB422DD004
:103DE000BEF1800FA7EB0307C2F17F02A7F1040128
:103DF00088BF00228908D21A0131022A4FEA810EB7
:103E00000CD90344EA184FF05C3000230133994287
:103E100042F8040BFAD8774574440FD02919631C73
:103E20005C22802B81F8482108D02B440234802C5E
:103E300083F8482102D02C4484F84821284602F017
:103E40001FF931462846802203B0BDE8F04302F056
:103E5000F7BA3146074605F1C806384600293FF44F
:103E600008AFD7E60B461446002BB9D089E701927C
:103E700002F006F9019A2146284605F5E47402F09D
:103E8000DFFA2046294601F0C7FF402297E6501E80
:103E9000204405F24711013C14F8013F83F05C0314
:103EA000844201F8013FF7D154E7744696E71F4674
:103EB000DDE66B4203F0030314464FF0010E80274A
:103EC0004FF4A470002B8BD05BE700F1C806714261
:103ED00001F0030117464FF0C80801234FF0800E90
:103EE000BBE700BF02F0ACBA38B50C460546FCF79C
:103EF00034FD2046FCF731FD214628462022BDE84E
:103F00003840FCF70BBA00BF0B6803604B68436096
:103F10008B688360CB68C3600B6903614B69436145
:103F20008B698361CB6923F00043C361704700BF95
:103F300010B50446FCF711FD206800F0010010BD2B
:103F4000002380E80A008360C360036143618361EA
:103F5000C361704700B589B000230A4669460093E3
:103F60000193029303930493059306930793FCF73D
:103F70002DFA09B05DF804FBF0B5A1B0054668461E
:103F800017460E46FCF75BFA694618A8FCF757FA85
:103F900018A90846FCF753FA324618A908A8FCF7F6
:103FA0004FFA6A4608A96846FCF74AFA694618A813
:103FB000FCF745FA08AA104618A9FCF741FA08A927
:103FC00018A8FCF73CFA18A90846FCF738FA18A913
:103FD0000846FCF734FA18A90846FCF730FA18A985
:103FE0000846FCF72CFA08AA18A91046FCF728FA8C
:103FF000022408A918A8FCF722FA18A90846FCF719
:104000001EFA18A90846FCF71AFA18A90846FCF780
:1040100016FA18A90846FCF712FA013C18A9E9D1CA
:1040200010A808AAFCF70CFA042410A918A8FCF799
:1040300006FA18A90846FCF702FA18A90846FCF780
:10404000FEF918A90846FCF7FAF918A90846FCF782
:10405000F6F9013C18A9E9D110AA0846FCF7F0F9D5
:10406000022418A90846FCF7EAF918A90846FCF743
:10407000E6F918A90846FCF7E2F918A90846FCF782
:10408000DEF918A90846FCF7DAF9013CE9D118A9CC
:1040900008AA10A8FCF7D4F90A2410A918A8FCF75C
:1040A000CEF918A90846FCF7CAF918A90846FCF782
:1040B000C6F918A90846FCF7C2F918A90846FCF782
:1040C000BEF9013C18A9E9D110AA08A8FCF7B8F973
:1040D000142408A918A8FCF7B2F918A90846FCF797
:1040E000AEF918A90846FCF7AAF918A90846FCF782
:1040F000A6F918A90846FCF7A2F9013C18A9E9D1CC
:1041000008AA0846FCF79CF90A2418A90846FCF7F7
:1041100096F918A90846FCF792F918A90846FCF781
:104120008EF918A90846FCF78AF918A90846FCF781
:1041300086F9013CE9D118A9084610AAFCF780F9D4
:1041400018A9084667B9FCF77AF918A90846FCF7D8
:1041500076F9324618A92846FCF772F921B0F0BD6D
:10416000FCF76DF918A90846FCF769F918A9084683
:10417000FCF765F918A90846FCF761F918A9084683
:10418000FCF75DF96A4618A92846FCF759F921B0F1
:10419000F0BD00BF38B50C4605460846FCF7DDFB10
:1041A00023682B6063686B60A368AB60E368EB60B7
:1041B00023692B6163696B61A369AB61E369EB619F
:1041C00038BD00BF2DE9F0410D4606460F4690462A
:1041D0000FCD34460FC495E80F0088B084E80F0077
:1041E00000233A466946684600930193029303937D
:1041F0000493059306930793FCF725FC4246694612
:104200003046FCF7FBFF08B0BDE8F0810B681BBA35
:10421000C3614B681BBA83618B681BBA4361CB686F
:104220001BBA03610B691BBAC3604B691BBA83607D
:104230008B691BBA4360CB691BBA0360704700BF30
:1042400070B598B00D46064610A8FCF729FC2A4622
:1042500010A96846FCF725FC694610A8FCF720FC6D
:1042600010A90846FCF71CFC6A4610A908A8FCF730
:1042700018FC08A910A8FCF713FC10A90846FCF7C5
:104280000FFC10A90846FCF70BFC10A90846FCF728
:1042900007FC10A908AA0846FCF703FC10A9084669
:1042A000FCF7FEFB10A90846FCF7FAFB10A96A46CA
:1042B00008A8FCF7F6FB052408A910A8FCF7F0FBFA
:1042C00010A90846FCF7ECFB013C10A9F5D108AA9F
:1042D0000846FCF7E6FB052410A90846FCF7E0FBBE
:1042E00010A90846FCF7DCFB013CF5D110A908AA8F
:1042F0000846FCF7D6FB10A908A8FCF7D1FB08A9D3
:104300000846FCF7CDFB08A96A466846FCF7C9FBDE
:104310001024694610A8FCF7C3FB10A90846FCF757
:10432000BFFB013C10A9F5D12A460846FCF7B9FBB2
:10433000402410A90846FCF7B3FB10A90846FCF777
:10434000AFFB013CF5D110A96A460846FCF7A9FB72
:10435000102410A90846FCF7A3FB10A90846FCF797
:104360009FFB013CF5D110A96A460846FCF799FB72
:10437000102410A90846FCF793FB10A90846FCF787
:104380008FFB013CF5D110A908AA0846FCF789FB70
:104390002A4610A93046FCF784FB18B070BD00BF58
:1043A000CB691BBA03608B691BBA43604B691BBAAC
:1043B00083600B691BBAC360CB681BBA03618B684F
:1043C0001BBA43614B681BBA83610B681BBAC3619C
:1043D000704700BFF0B5164685B0054608460C4646
:1043E000FDF712FB3269F369D6F814E0B769009261
:1043F000214620466A460393CDF804E00297FCF775
:104400003FFE23682B6063686B60A368AB60E36862
:10441000EB6005B0F0BD00BF002303604360836024
:10442000C3600361704700BF2DE9F04FCA4DD3F858
:1044300000E05F689E68DC6893B02EF0704E2F40FD
:104440002E402C40CDF814E0069707960894002AD9
:104450006FD005460B4614464FF001080F2C0DAAED
:1044600005A9284668D81A788DF82420012C7AD01E
:104470005A788DF82520022C00F018829A788DF851
:104480002620032C00F0FA81DA788DF82720042CFE
:1044900000F0DC811A798DF82820052C00F0BE810F
:1044A0005A798DF82920062C00F0A0819A798DF890
:1044B0002A20072C00F08281DA798DF82B20082C35
:1044C00000F064811A7A8DF82C20092C00F04681C6
:1044D0005A7A8DF82D200A2C00F026819A7A8DF8D0
:1044E0002E200B2C00F00881DA7A8DF82F200C2C6E
:1044F00000F0EA801A7B8DF830200D2C00F0CC8083
:104500005A7B8DF831200F2C40F0AD809B7B8DF8CD
:10451000323000238DF833300C9B099E0A9D0B9C92
:1045200010930DAA01230D960E950F941193FDF78C
:104530008FF913B0BDE8F08FDE68D3F800C0D3F870
:1045400004E09F681096103CCDF84480CDF834C04C
:10455000CDF838E00F9703F11006FDF779F9002C3C
:10456000E7D033467AE70D23019309230393082309
:10457000029303234FF00E0C0C200B260A274FF05A
:10458000070A4FF006094FF0050E4FF004084FF0F0
:10459000020B194612AB12AA9B4422440023102995
:1045A00002F8243C0BF8243C4BD012AA1144B8F179
:1045B000100F01F8243C44D012AA9044BEF1100F11
:1045C00008F8243C3DD09644B9F1100F0EF8243C75
:1045D00037D09144BAF1100F09F8243C31D052443D
:1045E00002F8243C029A102A2BD00DF1480E724496
:1045F00002F8243C039A102A23D07244102F02F8A8
:10460000243C1ED07744102E07F8243C19D0764461
:10461000102806F8243C14D0019A70440023102A74
:1046200000F8243C0DD011467144BCF1100F01F884
:10463000243C06D0F444012C0CF8243C01D18DF824
:104640003330099B0A9E0C9C0D93284601230B9D39
:104650000E960DAA05A90F9510941193FDF7F8F881
:1046600013B0BDE8F08F1A2301931623039315238B
:10467000029310234FF01B0C1920182617274FF018
:10468000140A4FF013094FF0120E4FF011084FF0BB
:104690000F0B19460E247DE719230193152303936D
:1046A000142302930F234FF01A0C182017261627F5
:1046B0004FF0130A4FF012094FF0110E4FF010088F
:1046C0004FF00E0B194665E718230193142303934B
:1046D000132302930E234FF0190C172016261527CB
:1046E0004FF0120A4FF011094FF0100E4FF00F0863
:1046F0004FF00D0B19464DE7172301931323039336
:10470000122302930D234FF0180C162015261427A0
:104710004FF0110A4FF010094FF00F0E4FF00E0836
:104720004FF00C0B194635E7162301931223039320
:10473000112302930C234FF0170C15201426132776
:104740004FF0100A4FF00F094FF00E0E4FF00D080A
:104750004FF00B0B19461DE7FCFFFF0F15230193CC
:1047600011230393102302930B234FF0160C1420F4
:10477000132612274FF00F0A4FF00E094FF00D0EBF
:104780004FF00C084FF00A0B194603E7142301936E
:10479000102303930F2302930A234FF0150C1320C9
:1047A000122611274FF00E0A4FF00D094FF00C0E94
:1047B0004FF00B084FF0090B1946EBE6132301935A
:1047C0000F2303930E23029309234FF0140C12209E
:1047D000112610274FF00D0A4FF00C094FF00B0E69
:1047E0004FF00A084FF0080B1946D3E61223019345
:1047F0000E2303930D23029308234FF0130C112073
:1048000010260F274FF00C0A4FF00B094FF00A0E3D
:104810004FF009084FF0070B1946BBE6112301932F
:104820000D2303930C23029307234FF0120C102047
:104830000F260E274FF00B0A4FF00A094FF0090E12
:104840004FF008084FF0060B1946A3E6102301931A
:104850000C2303930B23029306234FF0110C0F201C
:104860000E260D274FF00A0A4FF009094FF0080EE7
:104870004FF007084FF0050B19468BE60F23019305
:104880000B2303930A23029305234FF0100C0E20F1
:104890000D260C274FF0090A4FF008094FF0070EBC
:1048A0004FF006084FF0040B194673E60E230193F0
:1048B0000A2303930923029304234FF00F0C0D20C6
:1048C0000C260B274FF0080A4FF007094FF0060E91
:1048D0004FF005084FF0030B19465BE638B5084D5D
:1048E0000446FCF7E0FB21462A462046FCF7FBFB8A
:1048F000294602462046BDE83840FCF714BC00BFFC
:10490000D0F30100F0B50B4699B0DA69184D149256
:1049100018A9120F04465F689E68186941F85C2D5B
:10492000DA68D3F800E00E970F965F699E691092DF
:1049300000232A46119005A8CDF834E0179316936A
:10494000159304930393029312971396FCF761FC5B
:10495000019B05AA1B070DA920460C93FCF7C3FB7E
:10496000E2692946D20F2046FCF7DDFB19B0F0BD05
:10497000D0F301002DE9F0419EB04A6B8B6B0F68BC
:104980004E688C68D1F80CE0D1F810C01A921EADB8
:104990000D970E964F698E690F94120FCC69D1F85E
:1049A0002480CDF840E042EA0312D1F820E0CDF8AF
:1049B00044C01297D1F828C0CF6B13961494CE6AD6
:1049C0000C6BCDF85CC01B93CDF854E0189619948D
:1049D000CDF858803A4C1C9745F8742D1B0F4FF0BA
:1049E000000E064643EA07132946224605A83F0F54
:1049F000CDF874E0CDF810E002930397FCF709FCC2
:104A0000019B13A91B0705AA08460C93FCF76BFB37
:104A10001A9A214613A8D20FFCF785FB189B199808
:104A20001A9A179F4FEA137C4FEA107E1B014CEA3B
:104A300000104EEA021E43EA17732946170F029030
:104A4000224605A8CDF80CE001930497FCF7E1FBA2
:104A5000019B10A91B0705AA08460C93FCF743FB12
:104A6000179A214610A8D20FFCF75DFB159B1698EC
:104A7000179A4FEA137E4EEA001E070F1498CDF8DE
:104A800008E01B0143EA1073294647EA0217150F95
:104A900005A82246019303970495FCF7BAFB019BF6
:104AA00005AA1B070DA930460C93FCF71CFBF26905
:104AB0002146D20F3046FCF736FB1EB0BDE8F08130
:104AC000D0F30100F0B59FB005460DA8FCF716FC29
:104AD0001AA889C81EAE190141EA1071394C46F86E
:104AE000741D1B0F4FF0000E43EA07133146224698
:104AF00005A83F0FCDF874E0CDF810E002930397BE
:104B0000FCF787FB019B13A91B0705AA08460C931A
:104B1000FCF7E9FA1A9A214613A8D20FFCF703FB17
:104B2000189B19981A9A179F4FEA137C4FEA107E28
:104B30001B014CEA00104EEA021E43EA177331468D
:104B4000170F0290224605A8CDF80CE001930497B8
:104B5000FCF75FFB019B10A91B0705AA08460C93F5
:104B6000FCF7C1FA179A214610A8D20FFCF7DBFA1E
:104B7000159B1698179A4FEA137E4EEA001E070FF0
:104B80001498CDF808E01B0143EA1073314647EA58
:104B90000217160F05A82246019303970496FCF707
:104BA00038FB019B05AA1B070DA928460C93FCF7AF
:104BB0009AFAEA692146D20F2846FCF7B4FA1FB0E8
:104BC000F0BD00BFD0F301002DE9F0430024471EE3
:104BD000254622466FF0090E4FF0010C17E010F841
:104BE0000E604E44F6B24FFA86F8B8F1070FA6F100
:104BF0001006D2BF00F80E8000F80E601D4600239C
:104C00000132FD2A07F8013F4FEA54041BD053112B
:104C100012F01F0F08BF51F82340631913F001036E
:104C2000A2EB0E0805EA0405EAD0B8F1030F0CFA6E
:104C300008F9D4DD964601320123FD2A07F8013F29
:104C40004FEA5404E3D1BDE8F08300BF0B68036072
:104C50004B6843608B688360CB68C3600B690361FA
:104C60004B6943618B698361CB69C361704700BF46
:104C7000F0B40025471E2C462A46E30814F0070F1F
:104C800008BF51F8235005F00F03134403F1080245
:104C900012090134D6B2A3EB06133F2C4FEA1515C7
:104CA00007F8013FE9D1354480F83F50F0BC704728
:104CB00070B50446FCF7F7F9064D064621462A462C
:104CC0002046FCF710FA2946821B2046BDE87040BA
:104CD000FCF729BAF0FA010038B50B68114D1BBA80
:104CE000C3614B681BBA83618B681BBA4361CB6895
:104CF0001BBA03610B691BBAC3604B691BBA8360A3
:104D00008B691BBA4360CB691BBA2A460360014614
:104D10000446FCF7E8F9294602462046BDE838403B
:104D2000FCF701BAF0FA010038B5064C22460546F8
:104D3000FCF7D9F9214602462846BDE83840FCF781
:104D4000F2B900BFF0FA01002DE9F047C0B0044607
:104D50000A4610A88A46FCF7D1FA18A920A8B74A33
:104D6000DFF8D892DFF8DC82FCF7C8FA28A918AA85
:104D70000846FCF798F928A930A8B14AFCF7BEFA12
:104D8000189B389D30AA10A908A85D1BFCF7ABF949
:104D900008A92D1AAA4A0846FCF7A5F92D1AEA43D4
:104DA000D20FA74908A8FCF7ECF92A1AD20FA44998
:104DB00008A8FCF7B8F9524608A910A8FCF79EFA13
:104DC00018A920A89D4AFCF799FA28A918AA08460C
:104DD000FCF769F928A930A8994AFCF78FFA189BC3
:104DE000389D30AA10A968465D1BFCF77CF969461E
:104DF0002D1A934A6846FCF776F92D1AEA43D20F2A
:104E00008F496846FCF7BDF92A1AD20F8C496846CB
:104E1000FCF789F96A46694610A8FCF76FFA18A9E9
:104E200020A8864AFCF76AFA28A918AA0846FCF7BF
:104E30003AF928A930A8824AFCF760FA189B389DF5
:104E400030AA10A908A85D1BFCF74DF908A92D1A76
:104E50007B4A0846FCF747F92D1AEA43D20F7849F6
:104E600008A8FCF78EF92A1AD20F754908A8FCF792
:104E70005AF908AA114610A8FCF740FA18A920A868
:104E80006E4AFCF73BFA28A918AA0846FCF70BF96A
:104E900028A930A86A4AFCF731FA189B389D30AA35
:104EA00010A908A85D1BFCF71EF908A92D1A644A71
:104EB0000846FCF718F92D1AEA43D20F604908A8F2
:104EC000FCF75FF92A1AD20F5D4908A8FCF72BF905
:104ED0006A4608A910A8FCF711FA18A920A8574A91
:104EE000FCF70CFA28A918AA0846FCF7DCF828A950
:104EF00030A8534AFCF702FA189B389D30AA10A933
:104F000068465D1BFCF7EFF869462D1A4C4A684667
:104F1000FCF7E9F82D1AEA43D20F49496846FCF735
:104F200030F92A1AD20F46496846FCF7FCF8694660
:104F300008A80422FCF756FF6A4608A910A8FCF747
:104F4000DDF918A920A83D4AFCF7D8F928A918AA24
:104F50000846FCF7A8F828A930A8394AFCF7CEF98A
:104F6000189B389D30AA10A968465D1BFCF7BBF85A
:104F700069462D1A324A6846FCF7B5F82D1AEA43FD
:104F8000D20F2F496846FCF7FCF82A1AD20F2C4999
:104F90006846FCF7C8F8694608A80822FCF722FF13
:104FA0006A4608A910A8FCF7A9F918A920A8234A5D
:104FB000FCF7A4F928A918AA0846FCF774F828A950
:104FC00030A81F4AFCF79AF9189B389D30AA10A9FF
:104FD00068465D1BFCF787F869462D1A184A684633
:104FE000FCF781F82D1AEA43D20F15496846FCF701
:104FF000C8F82A1AD20F12496846FCF794F8694695
:1050000008A81022FCF7EEFE6A4608A910A8FCF7D3
:1050100075F918A920A8094AFCF770F928A918AA57
:105020000846FCF740F828A930A8054AFCF766F9BD
:10503000189B389D30AA10A906E000BFB0F301000C
:10504000F0FA0100ADFAE6BC68465D1BFCF74BF8D0
:1050500069462D1AAB4A6846FCF745F82D1AEA4313
:10506000D20FA8496846FCF78CF82A1AD20FA54936
:105070006846FCF758F8694608A84022FCF7B2FEDB
:105080006A4608A910A8FCF739F918A920A89E4A71
:10509000FCF734F928A918AA0846FCF704F828A94F
:1050A00030A8984AFCF72AF9189B389D30AA10A915
:1050B00008A85D1BFCF717F808A92D1A914A0846A5
:1050C000FCF711F82D1AEA43D20F8E4908A8FCF715
:1050D00058F88C492A1AD20F08A80D46FCF723F875
:1050E00008A908462022FCF77DFE6A4608A910A8F8
:1050F000FCF704F918A920A84A46FCF7FFF828A9EC
:1051000018AA0846FBF7CFFF28A930A82A46FCF7C3
:10511000F5F8189B389E30AA10A920469E1BFBF775
:10512000E2FF2146361A2A462046FBF7DCFF361AF4
:10513000F243D20F29462046FCF723F8321AD20F49
:1051400020462946FBF7EFFF202601E0013E64D010
:105150002246214610A8FCF7D1F84A4618A920A8F3
:10516000FCF7CCF828A918AA0846FBF79CFF2A46AA
:1051700028A930A8FCF7C2F8189B389F30AA10A9BC
:105180002046DF1BFBF7AFFF2A463F1A2146204689
:10519000FBF7A9FF3F1AFA43D20F29462046FBF737
:1051A000F0FF3A1AD20F29462046FBF7BCFFB8F1B0
:1051B000000F4FEA4808C9DA5246214610A8FCF70A
:1051C0009DF84A4618A920A8FCF798F828A918AA1B
:1051D0000846FBF768FF2A4628A930A8FCF78EF896
:1051E000189B389F30AA10A92046DF1BFBF77BFFD6
:1051F0002A463F1A21462046FBF775FF3F1AFA431D
:10520000D20F29462046FBF7BCFF3A1AD20F294697
:105210002046FBF788FF013E9AD1DFF8F090DFF8D7
:10522000E880384D202601E0013E64D02246214628
:1052300010A8FCF763F8424618A920A8FCF75EF80E
:1052400028A918AA0846FBF72EFF2A4628A930A845
:10525000FCF754F8189B389F30AA10A92046DF1B92
:10526000FBF741FF2A463F1A21462046FBF73BFF4A
:105270003F1AFA43D20F29462046FBF782FF3A1A1B
:10528000D20F29462046FBF74EFFB9F1000F4FEA37
:105290004909C9DA5246214610A8FCF72FF84246C0
:1052A00018A920A8FCF72AF828A918AA0846FBF78D
:1052B000FAFE2A4628A930A8FCF720F8189B389F48
:1052C00030AA10A92046DF1BFBF70DFF2A463F1A24
:1052D00021462046FBF707FF3F1AFA43D20F294623
:1052E0002046FBF74EFF3A1AD20F29462046FBF71D
:1052F0001AFF013E9AD1DFF81890DFF80C80014DBB
:10530000202609E0F0FA0100B0F30100849E17A7FF
:10531000C2CAB9F3013E64D02246214610A8FBF769
:10532000EDFF424618A920A8FBF7E8FF28A918AA14
:105330000846FBF7B8FE2A4628A930A8FBF7DEFF8F
:10534000189B389F30AA10A92046DF1BFBF7CBFE25
:105350002A463F1A21462046FBF7C5FE3F1AFA436C
:10536000D20F29462046FBF70CFF3A1AD20F2946E6
:105370002046FBF7D8FEB9F1000F4FEA4909C9DA18
:105380005246214610A8FBF7B9FF424618A920A8AB
:10539000FBF7B4FF28A918AA0846FBF784FE2A46A3
:1053A00028A930A8FBF7AAFF189B389F30AA10A99C
:1053B0002046DF1BFBF797FE2A463F1A2146204670
:1053C000FBF791FE3F1AFA43D20F29462046FBF71E
:1053D000D8FE3A1AD20F29462046FBF7A4FE013E1A
:1053E0009AD1DFF8E490DFF8E480364D202601E022
:1053F000013E64D02246214610A8FBF77FFF4246BB
:1054000018A920A8FBF77AFF28A918AA0846FBF7D5
:105410004AFE2A4628A930A8FBF770FF189B389F40
:1054200030AA10A92046DF1BFBF75DFE2A463F1A73
:1054300021462046FBF757FE3F1AFA43D20F294672
:105440002046FBF79EFE3A1AD20F29462046FBF76C
:105450006AFEB9F1000F4FEA4909C9DA52462146FE
:1054600010A8FBF74BFF424618A920A8FBF746FF00
:1054700028A918AA0846FBF716FE2A4628A930A82C
:10548000FBF73CFF189B389F30AA10A92046DF1B72
:10549000FBF729FE2A463F1A21462046FBF723FE4A
:1054A0003F1AFA43D20F29462046FBF76AFE3A1A02
:1054B000D20F29462046FBF736FE013E9AD140B076
:1054C000BDE8F087F0FA01004F2563FCB0F301005E
:1054D00070B5B0B005466846FBF710FF08A910A8E4
:1054E000154A164EFBF70AFF18A908AA0846FBF74B
:1054F000DAFD18A9324620A8FBF700FF289B089C7C
:1055000020AA69462846E41AFBF7EDFD32462946F3
:10551000241A2846FBF7E7FD241AE2433146D20F4E
:105520002846FBF72EFE221AD20F31462846FBF7FB
:10553000FAFD30B070BD00BFB0F30100F0FA010019
:10554000CB691BBA03608B691BBA43604B691BBAFA
:1055500083600B691BBAC360CB681BBA03618B689D
:105560001BBA43614B681BBA83610B681BBAC361EA
:10557000704700BFF8B50A6E0C46531C11448026D4
:10558000382B054681F8206000F2BE8004F1200629
:1055900003F1200022185242C3F13B0102F0030242
:1055A0008A4228BF0A46062900F2E1800A46E71827
:1055B0004FF0000E012A87F820E003F1010724D004
:1055C00004EB070C022A03F102078CF820E01CD040
:1055D00004EB070C032A03F103078CF820E014D036
:1055E00004EB070C042A03F104078CF820E00CD02C
:1055F00004EB070C062A03F105078CF820E004D120
:1056000004EB070C9F1D8CF820E091424ED0A1EBDB
:10561000020EAEF10401C3F13A0389089B1A01316D
:10562000022B4FEA810C31D910440023012904EBED
:105630000002235027D00229536024D0032993600D
:1056400021D00429D3601ED0052913611BD006295F
:10565000536118D00729936115D00829D36112D05E
:10566000092913620FD00A2953620CD00B299362C7
:1056700009D00C29D36206D00D29136303D00E295B
:10568000536300D09363E64567440FD0E2197B1C57
:1056900000213B2B82F8201008D0E218BB1C3B2BCA
:1056A00082F8201002D0234483F82010636E4FEA62
:1056B000537E580B5A095F0DDB0084F85D0084F8B7
:1056C0005F30314684F85BE084F85C7084F85E20DB
:1056D000204601F0F3F823681BBA2B6063681BBAFD
:1056E0006B60A3681BBAAB60E3681BBAEB6023690D
:1056F0001BBA2B6163691BBA6B61A3691BBAAB61EF
:10570000E3691BBAEB61F8BD3F2B25D82344901CFD
:105710000021402883F820101ED02044D31C402BA9
:1057200080F8201018D0E018131D402B80F82010AE
:1057300012D0E018531D402B80F820100CD0E01838
:10574000931D402B80F8201006D02344382A83F87C
:10575000201001D184F85F1004F120063146204664
:1057600001F0ACF83A2803467FF612AF9EE71F46D9
:10577000002A3FF44CAF1AE7F0B40D4A0260A2F1E0
:1057800062620C4B0C4F0D4E0D4D0E4C0E4943609A
:10579000A2F511220023A2F64E128760C6600561B1
:1057A00044618161C26103664366F0BC704700BF1B
:1057B00067E6096A85AE67BB72F36E3C3AF54FA5A2
:1057C0007F520E518C68059BABD9831F2DE9F04F9A
:1057D000824602F1100090E8014283B0A1F1040B6F
:1057E0000AF14004D1680091D369D2F8088001948D
:1057F00092E80210774602E08C46304629465AF875
:10580000046B5BF8044FD7614FEAF02587EA090E75
:1058100085EAB015264485EA70650EEA000E8EEA28
:10582000070E354475441D444FEA7134009BC2F89D
:10583000189041EA0C0606EA080684EAB10401EA77
:105840000C0E2B4446EA0E0684EAB15434445061EF
:105850001E4613613B464F4681460198C2F80C80B4
:1058600025448245CDF80080C2F808C0516015601B
:10587000E046C1D103B0BDE8F08F00BFF0B5002213
:10588000061F1546931E013202F00F0103F00F03AD
:10589000073D50F821E050F8237005F00F054FEA5E
:1058A000BE4450F82530756884EAFE144FEAF7418B
:1058B0002B4484EADE0481EA7741234481EA97217C
:1058C0000B44102A46F8043FDBD1F0BDF8B5436E17
:1058D0000646006E134414460D467366C8B13F2851
:1058E00000F29380002A00F0848000F11F0333440B
:1058F00001E0002C7DD0013015F8012B03F8012FB9
:10590000402804F1FF34F4D106F12001304600F0C4
:10591000D5FF002C6DD022462946304600F012FFFC
:10592000231A2B44002864D0221D121A2A4406F19F
:10593000200106F12407BB4238BF91425BD30828FF
:1059400059D9021F1968316292080132596871628F
:10595000022A4FEA820135D09C68B462032A31D012
:10596000DC68F462042A2DD01C693463052A29D02E
:105970005C697463062A25D09C69B463072A21D028
:10598000DC69F463082A1DD01C6A3464092A19D022
:105990005C6A74640A2A15D09C6AB4640B2A11D01C
:1059A000DC6AF4640C2A0DD01C6B34650D2A09D016
:1059B0005C6B74650E2A05D09C6BB4650F2A01D010
:1059C000DC6BF465884203EB010512D013F822204A
:1059D00074184B1C984284F820200AD9F2188B1CAA
:1059E0009842697882F8201003D93344AA7883F862
:1059F00020203066F8BD2C4406F11F0213F8011B6D
:105A000002F8011FA342F9D1F3E740283FF47CAF2D
:105A1000002C80D1EDE700BF2DE9F04F0FF2B83B2D
:105A2000DBE900ABEEA7D7E90067B3B0EEA5D5E997
:105A30000045CDE900ABCDE902670FF2B43BDBE9ED
:105A400000ABEDA7D7E90067CDE90445ECA5D5E9A2
:105A50000045CDE906ABCDE908670FF2AC3BDBE9C9
:105A600000ABEBA7D7E90067CDE90A4500248046E3
:105A70001546CDE90CABCDE90E6731923094002A82
:105A800040F0798180238DF8403032ABC3F1870339
:105A900003F0030302224FF041094FF07A0E012474
:105AA0006E4610AF2046002B40F030817B2AAEEBD3
:105AB000030EC0F17A00AEF1040188BF002089080E
:105AC000C01A013102284FEA810C0CD903EB0902FC
:105AD00000233244184601338B4242F8040BFAD3B8
