:020000040000FA
:1000000090260020F9020000010300000303000015
:1000100005030000070300000903000000000000C2
:100020000000000000000000000000000B030000C2
:100030000D030000000000000F030000110300008A
:100040001303000013030000CD0800001303000099
:100050001303000013030000A103000013030000BA
:100060001303000013030000130300001303000038
:100070001303000013030000130300001303000028
:100080001303000013030000F50400001303000035
:100090001303000013030000130300001303000008
:1000A00013030000130300001303000013030000F8
:1000B0001303000013030000000000000000000014
:1000C00013030000130300001303000013030000D8
:1000D00013030000130300001303000000000000DE
:1000E0000000000000000000000000000000000010
:1000F0000000000000000000000000000000000000
:1001000000000000000000000000000000000000EF
:1001100000000000000000000000000000000000DF
:1001200000000000000000000000000000000000CF
:1001300000000000000000000000000000000000BF
:1001400000000000000000000000000000000000AF
:10015000000000000000000000000000000000009F
:10016000000000000000000000000000000000008F
:10017000000000000000000000000000000000007F
:10018000000000000000000000000000000000006F
:10019000000000000000000000000000000000005F
:1001A000000000000000000000000000000000004F
:1001B000000000000000000000000000000000003F
:1001C000000000000000000000000000000000002F
:1001D000000000000000000000000000000000001F
:1001E000000000000000000000000000000000000F
:1001F00000000000000000000000000000000000FF
:10020000DFF80CD000F0BAF8004800475D0F00009E
:100210009026002030B4044654E8000F0D4644E810
:100220000053002BF8D1156030BC704730B4044641
:1002300054E8000F40EA010544E80053002BF7D1D1
:10024000156030BC704730B4044654E8000F00EA33
:10025000010544E80053002BF7D1156030BC70470E
:1002600030B4044654E8000F80EA010544E8005326
:10027000002BF7D1156030BC704730B4044654E809
:10028000000F00EB010544E80053002BF7D1156087
:1002900030BC704730B4044654E8000FA0EB0105B1
:1002A00044E80053002BF7D1156030BC704770B4A0
:1002B00004464FF0000054E8006F0D68AE4207BFDF
:1002C00044E80023012044E800630E60002B1CBFBB
:1002D0000020F0E770BC704730B4044654E8000FCB
:1002E00088422CBF451A054644E80053002BF5D13F
:1002F000156030BC7047000006488047064800473C
:10030000FEE7FEE7FEE7FEE7FEE7FEE7FEE7FEE7C5
:10031000FEE7FEE7B105000001020000004870475B
:100320009C2C000040EA01039B0703D009E008C9A8
:10033000121F08C0042AFAD203E011F8013B00F8AA
:10034000013B521EF9D27047D2B201E000F8012BF6
:10035000491EFBD270470022F6E710B513460A4645
:1003600004461946FFF7F0FF204610BD421C10F866
:10037000011B0029FBD1801A70470000064C074D75
:1003800006E0E06840F0010394E807009847103465
:10039000AC42F6D3FFF738FF442D0000642D000077
:1003A0002DE9F043002589B0DFF84091A8464FF4CD
:1003B000807601242F460695304601F0E9F838B1E1
:1003C000D9F80403204203D0304601F0D7F8254382
:1003D000361D64007F1CB6B2082FEDD34FF4BE74F7
:1003E000204601F0D5F848B1204601F0C7F845F0A5
:1003F000004506AA0121002001F0ACF83C4E15F0A2
:10040000FF0F15D0012700242F420DD009EB8401E6
:10041000D1F81005D1F81015C0F3042056F82420A7
:10042000C1F3014102B190477F00641C082CEBD35B
:10043000002D2DDA4FF0FF30CDF808804AE004A9F6
:10044000204600F0B1FE002822D04FEA9518204641
:1004500000F0CAFB56F820501DB1B8F1030F03D0CD
:1004600006E0B8F1030F13D102A9204600F0A4FE64
:100470004FF0A04000EB8400D0F8000706A9C0F3BD
:100480000149204600F090FE28B1B9F1020F05D0D5
:1004900009B0BDE8F083B9F1030FF9D1B8F1030F4A
:1004A00007D1B9F1020F1FD00221204601F040F818
:1004B000012715B141462046A847002FE8D06A46DB
:1004C0000121002001F046F8069900988842DFD00B
:1004D00006900298049096F84450002768B225F0E0
:1004E000C004401CABD1D3E70321DEE7006000402D
:1004F000CC0000202DE9F8432A48DFF8A4804FF40F
:1005000080720168284E002589B1D8F8041311F0D3
:10051000010F0CD0056000680090244862F30F04BE
:100520000068726860F317443946204690471D48BA
:100530004FF48271001D0268BAB1D8F8042312F09A
:10054000020F12D0056000680090184861F30F0494
:100550000C30006860F31F4414483C300068726837
:1005600060F30F073946204690470E484FF48472D7
:10057000083041460368002B10D0D1F8041311F065
:10058000040F0BD0056000680090204662F30F0056
:10059000726801B03946BDE8F0431047BDE8F88302
:1005A00000200140002101402C0000200C250140CA
:1005B000F0B5B5480023021D0178101D01254FF04C
:1005C000805406290BD11678360708D10678C6F371
:1005D0000316032E06D0042E04D0052E02D00629C1
:1005E00007D00EE0B4F82463A84FC6F304263E609B
:1005F00002E01678360704D10678C6F30316032EF8
:1006000002D0062904D00FE0A24FA14E7E670EE073
:100610001678360708D10678C6F30316032E06D0DF
:10062000042E04D0052E02D0062907D00EE0D4F8FF
:100630004462994FC6F342363E6002E016783607B0
:1006400004D10678C6F30316032E02D0062906D07D
:1006500011E0924E376827F0807737600EE0167809
:10066000360708D10678C6F30316032E06D0042EEB
:1006700004D0052E02D006290AD011E04FF08046A2
:10068000C6F80C31C6F81031834E361F336002E0D5
:100690001678360704D10678C6F30316032E02D067
:1006A000062905D00CE07C4F032664373E600AE043
:1006B0001678360704D10678C6F30316032E02D047
:1006C00006290DD014E0764F05263E60744E78362C
:1006D0003560734E083633603F263F1D3E6002E0B2
:1006E0001678360704D10678C6F30316052E02D015
:1006F000062957D062E06B4E36686B4F3E60694EFC
:10070000361D36683F1D3E60664E083636683F1D12
:100710003E60644E0C3636683F1D3E60614E1036BA
:1007200036683F1D3E605F4E143636683F1D3E60A2
:100730005C4E183636685C4F20373E60594E1C368A
:1007400036683F1D3E60574E203636683F1D3E607E
:10075000544E243636683F1D3E60524E2836366869
:100760003F1D3E604F4E2C3636683F1D3E604D4E5D
:10077000303636684C4F40373E604A4E3436366825
:100780003F1D3E60474E383636683F1D3E60454E41
:100790003C3636683F1D3E60424E403636683F1D4F
:1007A0003E6002E01678360708D10678C6F30316D5
:1007B000032E06D0042E04D0052E02D0062907D021
:1007C00019E0D4F85812394A01F04F01116002E0E3
:1007D000117809070FD10078C0F30310032803D064
:1007E000042801D0052806D131480168C90702D084
:1007F0006FF001010160D4F83001062808D1D4F867
:100800003401062804D12B48016841F4806101605D
:1008100022487438016841F470010160BFF34F8FC2
:10082000BFF36F8F4FF01021D1F80002002803DBD7
:10083000D1F80402002822DA1F4A15601F48046814
:10084000002CFCD01524C1F800420568002DFCD016
:10085000C1F8044201680029FCD013600168002936
:10086000FCD0BFF34F8F0D48F0380168144A01F4F3
:10087000E06111430160BFF34F8F00BFFDE71249F4
:1008800010480860F0BD0000E00F00F04035014066
:100890000DF0ADBA00C007403C050040FCED00E0A3
:1008A000105600400404001020C50040E40E004033
:1008B000000400403C17004004E5014000E4014012
:1008C0000400FA050090D003AC0000200148006845
:1008D000004700002400002002E008C8121F08C1E1
:1008E000002AFAD170477047002001E001C1121FB1
:1008F000002AFBD17047000072B601F0E3F800BF98
:1009000000F026FF0028FBD1104C0121208801EBCC
:1009100000400FA101F028F810480068C00700D07F
:1009200000BE2088022101EB00400DA101F01CF85F
:10093000BFF34F8F0948E43801680D4A01F4E061C4
:1009400011430160BFF34F8F00BFFDE7C8000020D7
:10095000466174616C206572726F7200F0ED00E0A8
:1009600053797374656D20726573657400000000BF
:100970000400FA050EB500210091CDE901106A4688
:1009800044F20100FFF7B8FF0EBD00F003B800F01D
:1009900009B8000072B602480168491C016070473E
:1009A0003400002003490868401E086000D162B688
:1009B00070470000340000202DE9F0410646086829
:1009C0000C46411C4FF0A0474FF0010506D005FA38
:1009D00000F1C7F80815206800F096FD6068411C1A
:1009E00002D0002100F07EFD3168A069C1F8240525
:1009F000607D227D31681043C1F86C05D4E9001296
:100A00003068C0F81425C0F80C15207D012815D1D8
:100A1000A068411C02D0002100F064FDE068411C88
:100A200005D08540C7F80855E06800F06DFDD4E9B1
:100A300002123068C0F80825C0F81015BDE8F08132
:100A40002DE9F041064608680C46411C4FF0A047CE
:100A50004FF0010506D005FA00F1C7F80815206827
:100A600000F05CFD6068411C02D0002100F043FDF5
:100A70003168A069C1F82405607D217D3268084392
:100A8000C2F86C05D4E900123068C0F80C15C0F843
:100A90001425207D012815D1A068411C02D0002119
:100AA00000F029FDE068411C05D08540C7F80855D5
:100AB000E06800F033FDD4E902123068C0F8082580
:100AC000C0F81015BDE8F0812DE9F0470546861CF9
:100AD00090460F464FF001090020FFF756FF1B4CD0
:100AE00020683860D4E90001401AA16804F21C476C
:100AF000081A0EE00121384600F0EEFA00F0E0F9A5
:100B00000146384600F0E8FAD4E90001401AA1682D
:100B1000081A401C8642EDD8B8F1000F03D005201A
:100B200065F3891002E0062065F39F50A2682168F2
:100B3000114004EB8101C86020683044206000202F
:100B4000FFF725FF4846BDE8F08700006802002057
:100B500030B482680468531C8360A154D0E9011248
:100B60008A4202D330BC00F072BB30BC7047000038
:100B7000034803C8814201D101207047002070471B
:100B80006802002005494FF0FF32082841F8202074
:100B900002D3084480F83C2070470000CC000020BD
:100BA000F0B54FF0FF3512B10023082601E008230D
:100BB00009260C4C05E000BF54F823707F1C04D0BC
:100BC0005B1CB342F8D32846F0BD26185DB286F808
:100BD000245044F82310002AF5D1E11881F83C0094
:100BE000F1E70000CC0000200249084490F92400FD
:100BF00070470000CC0000202DE9F041154C051E87
:100C000003DD607828B16D1E03E002DA607800B180
:100C10006D1C6068104E012748B13088626807EB90
:100C200000400EA100F0A4FE0020FFF7A3FEA06884
:100C3000A8420AD03088A36807EB00402A4614A1D6
:100C400000F09DFE0020FFF795FE00206070BDE8DB
:100C5000F081000000000020C80000206D5F61638B
:100C60006364626C7265616420776173206578707B
:100C7000656374656420746F2068617665207661B1
:100C80006C756520302062757420697320257500AD
:100C90006D5F616363726561642073686F756C6416
:100CA00020626520256420627574206973202564A4
:100CB0000000000010B50021024800F018FA80F38F
:100CC000100010BD8406002010B51E4C606800287E
:100CD00006DD607820B16068401E60601A4813E04D
:100CE0006068002807DA607828B16068401C60609E
:100CF0001548001D08E0A06850B1607840B1A068B8
:100D0000401EA060104808302178405C207001E04F
:100D1000002060702078C0074FF01E0002D001F064
:100D20002BF901E001F0C0F8207880074FF01F0098
:100D300003D5BDE8104001F01FB9BDE8104001F037
:100D4000B3B800000C000020C32B00002DE9FC5FAD
:100D50000E008346DDE90C47C6F100009846924636
:100D6000814600D40846012503E000BF90FBFAF05D
:100D70006D1C5045FADAA84500D9454624B1002E2D
:100D800001DB780700D5641EB80702D5B8F1000F63
:100D90000AD0F80708D13CB1A54205D22021584617
:100DA000641EFFF7D5FEF6E7002E02DA4E462D212F
:100DB00002E0780703D52B215846FFF7C9FE07F05C
:100DC000030002280BD1B8F1000F08D13CB1A542B5
:100DD00005D230215846641EFFF7BAFEF6E7CDE98A
:100DE0000047434652463146584601F083FEBDE86F
:100DF000FC9F000070B50D46044600684FF48871F2
:100E000000F04FFF4FF49071206800F04AFF4FF45C
:100E10009271206800F045FF4FF4A271206800F045
:100E200040FF20681249C0F8041320686907000BCE
:100E300040B2090E002806DA00F00F0000F1E020B1
:100E400080F8141D03E000F1E02080F80014206811
:100E50000121000B40B200F01F02914040098000C8
:100E600000F1E020C0F88012C0F8001170BD000051
:100E700010030200024600201268930702D05307B5
:100E800002D47047500714D502F00300012802D0A5
:100E900002280CD105E0C2F383100B68801C1844B3
:100EA00004E00223086803EB92521044086001201A
:100EB0007047086800EB9253C2F38910401CEEE7BC
:100EC0002DE9FF410026234800F003F92148001FC7
:100ED000074600F0FEF8204C60680090A56800E02E
:100EE00000986946284004EB80000C30FFF7C2FFF1
:100EF0000028F5D101AA009901EA050304EB830358
:100F0000491CDB6842F82030401C00910228F2D3D3
:100F1000019800F0030001280BD0022810D101989D
:100F2000032101EB90500099BDF80A6001EB90009D
:100F300005E00198BDF80A60C0F3831008440090F2
:100F4000384600F0C3F808B10098606004B030463D
:100F5000BDE8F081800600206802002002240125FF
:100F6000A103002000F06AFD08B1FFF703FD00F0C7
:100F7000E1FB2049204801F04FF808B1FFF7FAFCE7
:100F80001E484FF00A080068C0B201F05DFB1C4F1C
:100F90000321388801EB00401AA100F0E5FC1F4E48
:100FA0004FF0000BB9464FF0050A00BF05FB04F7F0
:100FB000384601F073FB01F01FF800E020BF3078E5
:100FC0000028FBD0B9F800100AEB014014A100F092
:100FD000CBFC86F800B03846FFF70EFE641C444593
:100FE000E4D90124D5F1000500F0B2FB0028FBD1C3
:100FF000DCE7000029260000A82B000004250140A2
:10100000C8000020514445432074657374696E67BD
:1010100020737461727465642E000000000000206B
:101020002A0000002DE9F047C7880446181D16461F
:101030008946B0FBF7F1B0FBF7F207FB12009A19F3
:101040003A44D21CB2FBF7F2DDF820A001E024689C
:10105000491E0029FBD13D1A8846B54216D818E032
:10106000BAF1000F05D0211809EB08002A46091D26
:1010700004E0204409EB08012A46001DFFF752F95D
:1010800000202468761BA844B74201D9354600E009
:101090003D46002EE4D1BDE8F087000030B50246A1
:1010A00059B100F0F7FC0021074C09E004EB810383
:1010B00015685B88AB4202D11160002030BD491C2D
:1010C0008142F3D3052030BDB0000020002100F0A4
:1010D00009B8012100F010B808B56A46FFF7CDF84D
:1010E000009808BD08B56A46FFF7ADF808BD08B519
:1010F0006A46FFF78FF808BD08B56A46FFF796F80D
:10110000009808BD08B56A46FFF7C4F8009808BD06
:1011100070B5044600252846FFF737FC2168626851
:10112000086890420ED9401E08600178A38AE268E0
:1011300001FB0325227A2168101AC0B20A79824283
:1011400000D208710020FFF722FC284670BD70B560
:1011500005460C460020FFF718FCE868A98A201A0B
:10116000B0FBF1F12A681068431C13600170BDE800
:1011700070400020FFF70BBC10B530B1017A426817
:101180000368891AC9B21A6006E00E2010BD036810
:101190001A68541C1C601170491EC9B2F7D200684D
:1011A00000210171084610BDC20800F007030120AC
:1011B000895C98400840704710B5C20800F00703EA
:1011C000885C01249C402043885410BDF0B505463E
:1011D0000478154889B0164640F82420124A086958
:1011E000121DA2F1080742F82400487F385520223A
:1011F0006846FFF797F804942878385C48B10EB138
:101200000A4A00E000226946281D01F09BF809B057
:10121000F0BD0EB1064A00E00022694605F10C005F
:1012200000F062FFF3E700001C000020D12900005D
:101230001D2800000FB408B50399002904D004AAA2
:1012400000926A4600F00FF801B05DF814FB10B58B
:1012500082680446002A05D0D4E90403216898472F
:101260000020A06010BD2DE9FC4791460C0080468F
:1012700076D014F8011B39B125290ED04046FFF76E
:1012800067FC20780028F4D198F80C00002867D07B
:101290004046BDE8FC47FFF7DABF00200122217875
:1012A0002B291BD02D2902D0302908D102E040F093
:1012B000010001E040F00200641C002AEFD100258B
:1012C0002A290ED02178A1F130020A2A11D205EB89
:1012D000850201EB4205641C303DF1E740F004005B
:1012E000EAE7D9F800100B1DC9F800300968641C42
:1012F0000D44217800232E290BD114F8011FA1F1F0
:1013000030020A2A05D203EB830201EB4203303B91
:10131000F3E76C290DD068290BD0692921D00BDCAB
:10132000252918D0582931D063290ED0642915D128
:1013300017E014F8011FECE7702969D0732932D047
:1013400075291BD0782909D120E0D9F80000011DAA
:10135000C9F8001001784046FFF7FAFB641C90E7DB
:101360006CE0D9F800100A1DC9F800200968CDE921
:1013700000500A224046FFF7E9FCEFE7D9F80010D9
:101380000A1DC9F8002009680A2206E0D9F80010F1
:101390000A1DC9F8002009681022CDE90050404616
:1013A00001F0A8FBDAE7D9F8001000270A1DC9F8F8
:1013B00000200E68C00705D112E04046761C7F1C55
:1013C000FFF7C6FB31780029F7D104E02021404621
:1013D0006D1EFFF7BDFBBD42C0D9002DF6D1BDE7A4
:1013E0004EB13046FEF7C2FF074604E020214046DA
:1013F0006D1EFFF7ADFBBD4206D9002DF6D103E00F
:101400004046761CFFF7A4FB31780029F8D1A5E708
:10141000D9F80000011DC9F80010056830214046C8
:10142000FFF796FB78214046FFF792FB082000214A
:10143000CDE90001034610222946B0E7BDE8FC874C
:1014400070B541EA4201DDE904564FF0A04441EA9B
:10145000830141EA052104EB800041EA0641C0F81E
:10146000001770BD70B541EA4201DDE904564FF046
:10147000A04441EA830141EA052104EB800041EAEE
:101480000641C0F8001770BD70B541EA4201DDE9C0
:1014900004564FF0A04441EA830141EA052104EBE0
:1014A000800041EA0641C0F8001770BD1CB500215C
:1014B00000910B4601220191FFF7D4FF1CBD1CB522
:1014C000002100910B4601220191FFF7DDFF1CBDB9
:1014D0004FF0A042002302EB800043EA8101C0F8F4
:1014E000001770471CB500220B460092114601926E
:1014F000FFF7B8FF1CBD1CB500220B460092114639
:101500000192FFF7C1FF1CBD1CB5002100910B46E5
:10151000012201911146FFF7A5FF1CBD1CB500215A
:1015200000910B46012201911146FFF7ADFF1CBD52
:101530004FF0A04202EB8000D0F8002722F44032A6
:10154000C0F80027D0F8002742EA0141C0F8001790
:101550007047000018B5084B6C4601441B680093A7
:1015600006E000BF54F82030D3F81035401C08C204
:101570008142F7D818BD0000D02B0000034908B500
:101580000844002101600068009008BD0060004030
:1015900002494058012800D00020704700600040F8
:1015A00030B5124B01460020D3F81044224609E022
:1015B000157A854205D1401C0A28F7DB4FF0FF3031
:1015C00030BD5268002AF3D1421CF9D00872D3F81A
:1015D00010242AB152684A60D3F81024516030BDFB
:1015E0000022C3F810144A6030BD000068020020D9
:1015F000F0B595B01C4615460F4608461A9E00F0F9
:1016000019FB182109A8FEF7A6FE0E96CDE909548C
:101610000023082203A9384600F021FB0598069014
:10162000BDF81000ADF81C00BDF81200ADF81E00AA
:1016300000208DF821000398082600F003000128FF
:1016400002D0022818D032E003983346850AC0F34E
:10165000C2008DF8200003980FA9C0F38314A200E4
:10166000384600F0FCFA09A8009006AB22460FA904
:10167000284600F03BFA1AE00398840DC0F3C2003C
:101680008DF82000082C01D2254600E008253346BD
:101690002A460FA9384600F0E2FA2E44641B09AB33
:1016A00006AA29460FA800F073F9002CEAD13846A3
:1016B00000F0C6FA15B0F0BD7047012001F0CCB8BB
:1016C000084810B50178084A515C19B1001D00F0B6
:1016D000C5FE02E00C3000F0D3FDBDE81040002054
:1016E00001F0BAB83C0000201800002008B5034AF9
:1016F00000924023024AFFF77BFF08BD1527000038
:10170000680100200A4A012902EBC00007D0022923
:1017100007D0032907D0042907D0002070470220F2
:101720007047042070470079704740797047000087
:10173000642D000010B5FFF7C0FF04210348FFF738
:101740002FFF02490120487210BD00005000002008
:101750002DE9F0478CB0FFF70BFA18B100200CB060
:10176000BDE8F087784C0020C4F81804BFF34F8F11
:1017700060680290A5684FF00008284004EB8000E4
:1017800008E021680298814201D86160E6E72840BC
:1017900004EB80000C3002A9FFF76CFB0028F0D1AD
:1017A00003AB029901EA050204EB8202491CD268EC
:1017B00043F82020401C02910228F2D3039800F045
:1017C0000300022802D001284ED0A5E00398502241
:1017D000810D8946B2EB905F00D850210E4666F32A
:1017E0009F5003900831594800F0DBF9070078D08A
:1017F00000F020FA4346082203A9384600F035FAE3
:10180000029908F1080A2940681A8000001D8642E2
:1018100023D94D4D0C3530B1C2B204EB8101301AE1
:1018200090460C3104E02946F2B200259046284645
:10183000C6B25346384600F018FA0AEB08032DB139
:10184000324629464FEA070000F00FFA029909F1E3
:10185000030001EB900002903AE004EB8101534653
:10186000324638460C31EFE70398C0F3831106295E
:1018700000D3062161F389100390C0F38310801C0C
:101880008100324800F08DF9070045D000F0D2F910
:101890004346082203A9384600F0E7F908F1080892
:1018A00000260FE00298434600EA0501401C04EBC5
:1018B00081010290042238460C3100F0D6F908F17B
:1018C0000408761C0398C0F38310B042EAD847B1ED
:1018D000D4F81054D4F8180468B1384600F0B0F9C0
:1018E0002CE019E0687A012804D12A682846394694
:1018F000126890476D68002DF4D1384600F0A0F9C9
:101900000020FFF742F8D4F8180408B90298606084
:101910000020FFF73CF811E0D4F8104404E02168FF
:101920002046896888476468002CF8D1084802215D
:10193000008801EB004007A100F016F8FFF718F946
:1019400080F001000BE70000680200209C2D0000E1
:10195000C80000204261636B656E647320666C751D
:10196000736865640000000000231A4600F0F2BEB0
:1019700008B5012300926A4600F0ECFE08BD1CB5D4
:10198000CDE9002302236A4600F0E4FE1CBD0000FE
:101990002DE9F0470E4680461C46924608293ED85F
:1019A00094F80C90002020731946104600F0E4FDD6
:1019B0000025B54206D218F805201AA12046FFF7E7
:1019C00039FC03E019A12046FFF734FC6D1C082DFB
:1019D000EFD317A12046FFF72DFC0025B54210D20A
:1019E00018F80570FEF79AFC0068C05D10F03E0F15
:1019F00001D03A4600E02E220EA12046FFF71AFC45
:101A000003E00DA12046FFF715FC6D1C082DE5D362
:101A100001222146504600F091FD84F80C90BDE86B
:101A2000F0870000202530327800000020202000C0
:101A30007C0000002563000020000000104810B565
:101A4000FF218160002101604160C0F81814C0F8D6
:101A5000141480F820140B4800F0F0F800280DD181
:101A600009480A490A4B401AC108002003E000BF98
:101A700023F82000401C8842FAD3002010BD00004B
:101A8000680200209C2D00009C2D0000642D0000A9
:101A9000B000002002480349401AC0087047000007
:101AA0009C2D0000642D000013B56846FFF7F6FA80
:101AB00008B100201CBD0248009950F831001CBD3F
:101AC000642D000070B508480125D0F8104480F856
:101AD000205405E06572216820464968884764689B
:101AE000002CF7D170BD0000680200202DE9FF47EF
:101AF00081460C9D00200C462F7B28739846164685
:101B00002946184600F038FD072E42D2DFE806F0DD
:101B100004090F161F2A360049462846FFF78AFB9C
:101B200037E0494628462268FFF784FB31E0D4E9D4
:101B3000002349462846FFF77DFB2AE0A068009075
:101B4000D4E9002349462846FFF774FB21E0D4E995
:101B50000201CDE90001D4E9002349462846FFF7F8
:101B600069FB16E004F1080007C88DE80700D4E916
:101B7000002349462846FFF75DFB0AE004F1080010
:101B80000FC88DE80F00D4E9002349462846FFF727
:101B900051FB00222946404600F0D0FC2F73BDE8DF
:101BA000FF872DE9F041858A80462D1F4819C01C0A
:101BB000B0FBF5F0C6B24046FFF7AAFA041E19D0F2
:101BC0000020207101206071E58000272546761EE7
:101BD000C4F800800BE04046FFF79AFA60B16179E3
:101BE000491C6171286005467F1CC0F80080B7421F
:101BF000F1D32046BDE8F081204600F002F8002035
:101C0000F8E72DE9F041457901466B1E002201E01D
:101C10000968521C9A42FBD30F680146002605E072
:101C200038460C68FFF793FA2146761CAE42F7D38C
:101C3000BDE8F0810121001DFFF74EBAFFF79CBA05
:101C400010B504460121001DFFF75CFA10F0FF0FEC
:101C500004D12046BDE81040FFF7D3BF10BD38B512
:101C600001240094FFF7DEF938BD38B50024009454
:101C7000FFF7D8F938BD4058002800D00120704740
:101C800008B5002242504058009008BDD0F8040327
:101C9000084000D0012070474058002800D00120A3
:101CA000704708B5002242504058009008BD00001F
:101CB0002DE9F0418846054600F028FC234E002817
:101CC00028461AD0FEF790FF304490F83C00800977
:101CD000032802D001280ED007E04FF0A040D0F832
:101CE0001005E84010F0010F05D003212846BDE89B
:101CF000F041FFF71DBC0221F8E700F013FC0028BB
:101D000022D02846FEF770FF04464FF4807000EBA7
:101D100084000F4F81B207EB8400D0F8102542F009
:101D20000102C0F810250846FFF728FCB8F1000FA3
:101D30000AD02846FEF758FF56F82000002803D0A6
:101D40000120A040C7F80403BDE8F081CC000020CA
:101D5000006000402DE9FC41DFF8BC80044608EB40
:101D60000400002790F924001346C0170E46401CBB
:101D700001D008274CE0B0781946C0F34002204655
:101D8000FEF70EFF0546401C41D0B078410719D43C
:101D9000C0070AD04FF0A04000EB8401D1F8000743
:101DA00020F00200C1F8000707E000217378204608
:101DB00000910A460191FFF743FB17492046453140
:101DC000FFF7FAF9B078800718D51448317800EB9E
:101DD0008500D0F81025124B1A40C0F810254FF49A
:101DE000F8524FF4403302EA042203EA01410A4365
:101DF000D0F810150A43C0F8102509E008EB0500DB
:101E0000327810F83C1F41EA8211017000E004278B
:101E10003846BDE8FC810000CC0000200060004096
:101E2000FFE0FCFF70B5184D95F8490008B1082097
:101E300070BD0020411E2A18401CC0B282F8241038
:101E40002028F8D300242046FEF79CFE641CE4B250
:101E5000092CF8D300240D4945F8454FE02081F8BE
:101E6000000401264020891FC1F88002C1F800014A
:101E70004FF4BE70FFF782FB0549F007C1F8040379
:101E80002E71204670BD0000CC00002006E000E06E
:101E900000600040034890F84900002800D001206D
:101EA00070470000CC0000204FF0A042012181408B
:101EB000C2F80C15704700002DE9FC4104462B4880
:101EC0000F462044002590F92410491C01D0082514
:101ED00046E0B978002651B3012200212046FEF7E2
:101EE0005FFE411C21D0830021483A78184479785C
:101EF000D0F81035DFF87CC003EA0C03C0F81035C9
:101F0000D0F810354FF4F85C0CEA042C43EA0C03CB
:101F10004FF4403C0CEA02424FF4801C0CEA0151A1
:101F20000A431343C0F8103504E0042518E0FE21ED
:101F300080F824107A780120A0404FF0A041012AB7
:101F400011D0C1F80C05012220460096002311464D
:101F50000196FFF775FA054920464531FFF72CF940
:101F60002846BDE8FC81C1F80805ECE7CC0000205C
:101F700000600040FFE0ECFF4FF0A04201218140F3
:101F8000C2F8081570470121B1EB507F01D1012043
:101F900070470020704770B50D4600F039FB040013
:101FA0000FD00020FEF7F1FC207920B10020FEF7D1
:101FB000EEFC112070BD0120256020710020FEF78D
:101FC000E6FC002070BD10B500F022FB002802D016
:101FD00000210160017110BD044901200860044A1C
:101FE000002111600349087070470000042001407F
:101FF000002501402C00002004490120086004490C
:102000000860044902200870704700000025014064
:10201000002001402C00002070B52B4D044628788C
:1020200008B1082070BD6960284960780860002107
:10203000E068FFF74DFA00216068FFF749FA0021D8
:10204000A068FFF745FA214BD4E901211833E06875
:102050001A601A1D1160191F08601C492069383167
:1020600008601A49207D091F0860194AD2F8000249
:1020700040F00100C2F800021448617D20300123C5
:10208000002609B1036000E00660217804200829D9
:1020900003D00E48083001600620A17D09B140F050
:1020A0000100C2F80403E07D0A49400181F8000400
:1020B0004FF0E0224FF480213046C2F88012C2F87F
:1020C00000112B7070BD00002C000020082501407D
:1020D0000020014012E000E00149024800F0E4BBAA
:1020E00018010020002000402DE9F041054600794C
:1020F00016460F4600EB40012D4A01EBC00102EBF2
:10210000810494F82A1011B10820BDE8F081294912
:1021100051F820102868FFF73EFF08B11120F4E7BE
:1021200039462846FEF748FC666038692060300072
:102130004FF001062FD03F7F4FF48E712868FFF7D4
:102140009FFD4FF4A2712868FFF79AFD28681A498D
:10215000C0F8041328684FEA4711000B40B200286A
:1021600006DA00F00F0000F1E02080F8141D03E013
:1021700000F1E02080F800142868000B40B200F065
:102180001F0206FA02F14009800000F1E020C0F8C9
:102190008012C0F8001128680421C0F80015002042
:1021A000A061E06184F8290044F8140FA675ACE73B
:1021B00018010020D42B0000800002002DE9F04718
:1021C000054600790B4600EB400101EBC0002349B6
:1021D00001EB8004284600F043F810B11120BDE85F
:1021E000F0874FF00008C4F82080A360626184F893
:1021F00028804FF48E76474631462868FFF740FD29
:1022000028684FF00109C0F808902146286800F0BE
:10221000E7FA606800BBD5F800A00EE094F828004B
:1022200008B10F2716E031465046FFF724FD00287D
:10223000F4D02146504600F0D3FA216A6069814209
:10224000F1D331462868FFF716FD0028F9D0286839
:10225000C0F80C90C4F814803846C0E7180100207C
:10226000007900EB400101EBC000044901EB800064
:102270004069002800D001207047000018010020AC
:102280002DE9F047044600794FF0000900EB4001CA
:1022900001EBC000254901EB80072068C0F80095DC
:1022A000786880B120682249C0F8081320680121AD
:1022B000000B40B200F01F0291404009800000F185
:1022C000E020C0F880112068D0F80C25D0F81485E3
:1022D000D0F80865D0F810554FF0FF31C0F814154C
:1022E000C0F80C152068C0F80815C0F81015501C6F
:1022F00002D01046FFF7DAF8B8F1FF3F02D04046AF
:10230000FFF7D4F8681C02D02846FFF7CFF8701CFE
:1023100002D03046FFF7CAF82068FFF754FE87F86E
:102320002A90C7F80490BDE8F0870000180100204B
:10233000840202000149024800F062BB440100200F
:10234000002000402DE9F0410546164600790F4671
:10235000154A00EBC00102EB810494F8201011B182
:102360000820BDE8F081114951F820102868FFF7D6
:1023700012FE08B11120F4E739462846FEF760FB4B
:102380006660386920601EB1397F2846FEF732FD4D
:1023900028680821C0F800150020A061E061012133
:1023A000606184F82010DCE744010020D82B000095
:1023B0002DE9F04704460E460079204900EBC000A5
:1023C00001EB800517463046FFF7DDFD30B12046B2
:1023D00000F036F820B11120BDE8F0871020FBE7AF
:1023E0006F61AE604FF49076002731462068FFF7AA
:1023F00058FC4FF4AC7841462068FFF752FC206847
:10240000AA686969C0F84425C0F848152068012108
:102410008160686878B9B14649462068FFF73CFC9E
:10242000064641462068FFF737FC0643F4D000B16A
:102430000F27002068613846CEE7000044010020E5
:102440000079054900EBC00001EB800040690028DD
:1024500000D0012070470000440100202DE9F04722
:1024600004460079274900EBC00001EB8007206893
:102470004FF00009C0F80095786880B120682249C3
:10248000C0F8081320680121000B40B200F01F02C1
:1024900091404009800000F1E020C0F880112068E0
:1024A000D0F80C25D0F81485D0F80865D0F8105570
:1024B0004FF0FF31C0F80C15C0F814152068C0F8B3
:1024C0000815C0F81015501C02D01046FEF7F7FF93
:1024D000B8F1FF3F02D04046FEF7F1FF681C02D082
:1024E0002846FEF7ECFF701C02D03046FEF7E7FFEF
:1024F0002068FFF768FD87F82090C7F80490BDE8D2
:10250000F087000044010020100302000449084441
:1025100090F92400082801DB012070470020704753
:10252000CC0000200449084490F92400082801D276
:102530000120704700207047CC00002010B50C46E9
:10254000017A052908D0407A38B1084808A1026804
:102550002046FEF76FFE00E01AB106A12046FEF706
:1025600069FE2046BDE81040FEF771BE88000020DD
:10257000257300000D0A000038B5C3880D460446D7
:1025800033B114A0009015A216A12846FEF752FE02
:10259000217A05291CD0607A48B1A088FFF7B2F8EB
:1025A000164951F8202016A12846FEF743FEA088C0
:1025B0000021FFF779FA03461049207A143951F8BF
:1025C000202001B02846BDE830400EA1FEF732BE03
:1025D00038BD00001B5B306D000000001B5B313B11
:1025E00033316D0025734C6F67732064726F7070A8
:1025F0006564202825642925730D0A0088000020C1
:10260000257300003C25733E2025733A200000000E
:102610000349884201D103487047002070470000F9
:10262000002000402400002082B2B2F5827F08D151
:102630008AB204494A600014886001200870FFF7DC
:10264000CBBC7047000000201CB504461148006850
:1026500000900020019003208DF80100FFF71AFC84
:1026600008B9FFF7DFFB14B902208DF800000A4A11
:1026700069461D20FFF76EFB01211D20FFF718FBA7
:1026800001A91F20FFF718FC01A91E20FFF714FC69
:102690001CBD0000C02B0000C90C0000002100F090
:1026A00001B80000024A50609160012050707047EC
:1026B0000C00002070B5054688690C4600284FF4D0
:1026C000847128460AD0FFF7DBFAD5F81805626A4C
:1026D000E1688854606A401C606270BDFFF7D0FA00
:1026E000D5F8180570BD1FB501238DF80030CDE970
:1026F0000121D0E90012684690471FBD1FB5012394
:102700008DF800308DF808100192D0E9001268466B
:1027100090471FBD70B50D4C0020D2B22070201D17
:102720000B4D0378EB5C1BB1001DFFF741FE02E08F
:102730000C30FFF743FD08B1FEF71CF96078002864
:1027400002D021780029FAD070BD000038000020A6
:10275000180000202DE9F84F204D92468946064684
:102760009846012269461846AF68FEF7ADF958B39E
:10277000009800210446801C09E000BF00EA07031E
:102780005AF8212005EB8303401C491CDA604145BF
:10279000F4D34FEA164AFEF78DFA4AEA0041601C6C
:1027A000384005EB80003C4005EB8402C160D068F6
:1027B00066F3C50068F3891069F39F2020F00300D9
:1027C000401C20F00400D06095F8200402E000BF17
:1027D000FEF7BEFF0028FBD1BDE8F88F680200209D
:1027E00070B50C4605464FF48E71FFF749FA216A21
:1027F000A068415C206A401C2062C5F81C1570BDB1
:102800001FB500228DF8002002918168019142617C
:10281000D0E90012684690471FBD00001FB50A4668
:1028200001788DF8001041680191017A8DF8081047
:10283000C0680390044850F82210001F50F822206E
:10284000684690471FBD000020000020014901207C
:10285000087070473800002010B588B00446202268
:102860000E496846FDF75EFD06200090C01F0190EE
:10287000029003904FF0EB7006900CB1084A00E014
:10288000002269460748FEF7A1FC08B1FEF772F87E
:102890000448001F447008B010BD0000F82B000071
:1028A0004D2800003C0000202DE9FF470C4605465E
:1028B0004FF40071FFF7EAF901274FF40178002681
:1028C00018B34FF4927949462846FFF7D4F9E0B19E
:1028D00049462846FFF7D4F9C5F8088394F829003B
:1028E00000B96F6002208DF80000D5F88004C5F8AB
:1028F00080040390A0690290E0680190A661E661FF
:10290000D4E900126846904728E004212846FFF7E2
:10291000BDF918B34FF484712846FFF7ACF9E8B15C
:1029200021462846FFF7C6FE616AA069884215D194
:10293000E06938B1E268616AA0612069E6616662B7
:10294000E06008E094F8290000B96F60C5F80883DA
:10295000A661E268616A2046FFF7C5FE4FF48E78F3
:1029600041462846FFF787F978B1206A61698842B5
:1029700002D294F8280020B341462846FFF780F998
:10298000616911B12046FFF73BFF4FF4A278414641
:102990002846FFF770F9002818D041462846FFF76F
:1029A0006FF994F8290000B12F60A06900280DD0BC
:1029B000A661E268616A04B02046BDE8F047FFF70F
:1029C00092BE21462846FFF70BFFDEE7BDE8FF87F2
:1029D0001FB50A4601788DF8001041680191017A0F
:1029E0008DF80810C0680390044850F82210001FAA
:1029F00050F82220684690471FBD000020000020AC
:102A00002DE9FF410C464FF4927705463946FFF712
:102A100043F90026C0B139462846FFF742F90220A3
:102A20008DF80000D5F88004C5F880040390D5F82F
:102A30003C058DF80800E0680190A661E661D4E9E4
:102A400000126846904723E04FF4887739462846BD
:102A5000FFF722F9E0B139462846FFF722F9D5F809
:102A60003C15A069884213D1E06960B1E268D5F8ED
:102A7000000220F02000C5F80002E069A061206992
:102A8000E661E06001E0A661E2682046FFF736FEFD
:102A90004FF4A27739462846FFF7FEF860B1394671
:102AA0002846FFF7FEF8A06930B1A661D5F83C15BD
:102AB0002046E268FFF722FE4FF490773946284619
:102AC000FFF7EAF8002813D039462846FFF7E9F85F
:102AD000606900280CD0D5F84C058DF800608DF8A1
:102AE0000800A06801906661D4E90012684690472A
:102AF000BDE8FF812DE9F05F8346DDE90A4A99468A
:102B000090460D460846012703E000BFB0FBF8F0F1
:102B10007F1C4045FAD2B94500D94F465FEACA70DA
:102B200012D18CB15FEA8A7002D5B9F1000F01D0E1
:102B3000202607E0302605E031465846641EFEF7A1
:102B400007F80CB1A742F7D35FF00106B9F1010F06
:102B500002D9A9F1010903E0B5FBF6F0404502D323
:102B600006FB08F6F2E7DFF83C9000BFB5FBF6F095
:102B700000FB165519F800105846FDF7E9FFB6FBA3
:102B8000F8F6002EF2D15FEACA7009D0002C07D007
:102B9000A74205D220215846641EFDF7D9FFF5E76C
:102BA000BDE8F09FDC2B00000007000003000000E0
:102BB000040000001C0000003200000001000007BB
:102BC00002000201030002020003010302010000EF
:102BD00000000050D920000035230000303132338E
:102BE000343536373839414243444546ED16000006
:102BF000C1160000B9160000FFFFFFFFFFFFFFFF37
:102C0000FFFFFFFFFFFFFFFF0000000000000000CC
:102C10000000D60107010000004040404040404015
:102C2000404041414141414040404040404040409F
:102C30004040404040404040400502020202020243
:102C40000202020202020202022020202020202092
:102C500020202002020202020202909090909090A6
:102C60001010101010101010101010101010101064
:102C700010101010020202020202888888888888D8
:102C800008080808080808080808080808080808C4
:102C9000080808080202020240000000192C000087
:102CA0007761726E696E6700646562756700000027
:102CB0001B5B313B33306D001B5B306D000000004F
:102CC0001B5B313B33316D001B5B313B33326D009D
:102CD0001B5B313B33336D001B5B313B33346D0089
:102CE0001B5B313B33356D001B5B313B33366D0075
:102CF0001B5B313B33376D00696E666F000000006F
:102D00006572726F720000004750494F54450000D1
:102D10005052530051444543000000005541525465
:102D200000000000554152544500000062616C6C87
:102D30006F632E6C6F675F6D656D706F6F6C0000F9
:102D400061707000B42D000000000020CC00000075
:102D5000D8080000802E0000CC000020C425000010
:102D6000E8080000082D000000000000102D000001
:102D700000000000142D0000000000001C2D0000C9
:102D800000000000242D0000000000002C2D000099
:102D900000000003402D0000000003036400002039
:102DA0005C00002064000020A8010020C400002076
:102DB00018000000000100000000000000000000FA
:102DC0000000000000000000000000000000000003
:102DD00000000000000000000000000000000000F3
:102DE00000000000000000000000000000000000E3
:102DF0000000000000200040000000000020004013
:102E000000000000EC2B00000000000000000000AB
:102E100000000000000000000000000000000000B2
:102E2000000000000000000000000000002D000075
:102E3000A02C0000F82C0000A82C0000B82C0000EA
:102E4000B02C0000C02C0000C82C0000D02C0000CA
:102E5000D82C0000E02C0000E82C0000F02C000032
:102E60000090D003000000000000000000000000FF
:102E70000000000000000000000000000000000052
:0400000500000201F4
:00000001FF
