:020000040000FA
:1000000098320020F5030000FD03000015020000F7
:1000100001040000030400000504000000000000CB
:1000200000000000000000000000000007040000C5
:1000300009040000000000000B0400000D04000093
:100040004B0E00000F0400005D1000000F040000C4
:100050000F0400000F040000F90B00000F04000063
:100060000F0400000F0400000F0400000F04000044
:100070000F0400000F0400000F0400000F04000034
:100080000F040000590E00000F0400000F040000D0
:100090007D0E00000F0400000F0400000F0400009C
:1000A0000F0400000F0400000F0400000F04000004
:1000B0000F0400000F04000000000000000000001A
:1000C0000F0400000F0400000F0400000F040000E4
:1000D0000F0400000F0400000F040000691000006E
:1000E0000F0400000F0400000F04000000000000D7
:1000F000000000000F040000000000000F040000DA
:1001000000000000000000000000000000000000EF
:1001100000000000000000000000000000000000DF
:1001200000000000000000000000000000000000CF
:1001300000000000000000000000000000000000BF
:1001400000000000000000000000000000000000AF
:10015000000000000000000000000000000000009F
:10016000000000000000000000000000000000008F
:10017000000000000000000000000000000000007F
:10018000000000000000000000000000000000006F
:10019000000000000000000000000000000000005F
:1001A000000000000000000000000000000000004F
:1001B000000000000000000000000000000000003F
:1001C000000000000000000000000000000000002F
:1001D000000000000000000000000000000000001F
:1001E000000000000000000000000000000000000F
:1001F00000000000000000000000000000000000FF
:10020000DFF80CD000F024FB00480047B159000093
:1002100098320020094B1EF0040F1CBFEFF3098039
:100220001847EFF308800649064A884201D89042F1
:1002300002D88D464FF0000018470000AD0D0000B9
:10024000983200209812002030B450E8012F93B269
:10025000C48923448489A34228BF1B1B0489A34269
:1002600002BFBFF32F8F002007E0C3EA020340E87C
:100270000134002CE9D14FF001000A6030BC704716
:1002800050E8012FC2EA024240E801210029F7D1DB
:10029000704730B450E8022F1FFAA2F3C488A3427B
:1002A00002BFBFF32F8F00200DE0C489234484894F
:1002B000A34228BF1B1BC2EA034340E80234002CC0
:1002C000E8D14FF001000A6030BC704750E8022FBF
:1002D000C2EA224240E802210029F7D170470346D2
:1002E00053E8022FD988B2EB324F4FF0000017BF0E
:1002F00092B241EA014142EA014104E05A68B2EB9C
:10030000324F08BF012043E80212002AE8D17047AB
:1003100030B4044654E8000F0D4644E80053002B67
:10032000F8D1156030BC704730B4044654E8000F73
:1003300040EA010544E80053002BF7D1156030BCBA
:10034000704730B4044654E8000F00EA010544E861
:100350000053002BF7D1156030BC704730B4044611
:1003600054E8000F80EA010544E80053002BF7D160
:10037000156030BC704730B4044654E8000F00EB01
:10038000010544E80053002BF7D1156030BC7047DD
:1003900030B4044654E8000FA0EB010544E80053D4
:1003A000002BF7D1156030BC704770B404464FF095
:1003B000000054E8006F0D68AE4207BF44E8002318
:1003C000012044E800630E60002B1CBF0020F0E712
:1003D00070BC704730B4044654E8000F88422CBF0C
:1003E000451A054644E80053002BF5D1156030BC92
:1003F000704700000648804706480047FEE7FEE7D2
:10040000FEE7FEE7FEE7FEE7FEE7FEE7FEE7FEE7C4
:10041000810E0000010200002DE9F05F054600207A
:1004200092469B4688460646814640241BE0284665
:1004300041464746224600F0B9F953465A46C01A8B
:10044000914110D311461846224600F016F82D1A95
:1004500067EB01084F4622460120002100F00DF80D
:1004600017EB00094E41201EA4F10104DFDC4846D1
:1004700031462A464346BDE8F09F202A04DB203A55
:1004800000FA02F1002070479140C2F1200320FAE7
:1004900003F31943904070470048704790AD000047
:1004A00010B50446FFF7F8FF0068005D00F001009A
:1004B00010BD2DE9FE43994615468846074601AC16
:1004C000022942D3002D40D000200290A8F1010063
:1004D0004FF0FF36009022E000FB057201FB057033
:1004E00011464A469047002805DC54F8260030445F
:1004F00044F8260013E060682A4600FB057154F8B2
:10050000040C00FB057007E00B7890F800C001F8C0
:1005100001CB00F8013B521E002AF5D1764254F877
:10052000040C61688842D7DC4B462A463846FFF700
:10053000C0FF54F8040C4B46A8EB0001401C00FB24
:1005400005702A46491EFFF7B4FFBDE8FE8310B5CB
:10055000431A934209D28318881803E010F8011D4A
:1005600003F8011D521EF9D210BD40EA01039B079A
:1005700003D009E008C9121F08C0042AFAD203E018
:1005800011F8013B00F8013B521EF9D210BDD2B266
:1005900001E000F8012B491EFBD270470022F6E76C
:1005A00010B513460A4604461946FFF7F0FF2046E9
:1005B00010BD421C10F8011B0029FBD1801A7047A6
:1005C00010B5002200E0521C835C8C5CA34201D178
:1005D000002BF8D1D8B2E1B2401A10BD30B50446B4
:1005E0000020034600E05B1C934203D2E05CCD5C3C
:1005F000401BF8D030BD034611F8012B00F8012B49
:10060000002AF9D11846704730B505460020034648
:1006100000E05B1C934205D2EC5CC85C201A01D15F
:10062000002CF6D130BD00000FB400B58DB010A97C
:1006300009900B9000914FF0FF300A9000200C9031
:1006400005480690054807906A4609A80F9900F0EA
:10065000D1F80DB05DF814FB110800002F08000060
:100660002DE9FF5F1D464FF0FF3BD5E9014691465E
:100670005F464FF00008A9697F1C01988847296AE6
:10068000824688470028F6D1BAF1FF3F0CD024F407
:10069000C064002E19DD600614D5BAF12B0F09D005
:1006A000BAF12D0F0ED103E0584604B0BDE8F09F1B
:1006B00044F48064A9697F1C01988847761E8246AD
:1006C000002E02DDBAF1300F03D0B9F1000F26D0B1
:1006D00032E0A969761E44F400747F1C01988847B3
:1006E0008246002E05DDBAF1780F06D0BAF1580F18
:1006F00003D0B9F1000F10D01EE0B9F1000F02D005
:10070000B9F1100F18D1A969761E24F400747F1C6A
:10071000019888478246102002E0082000E00A2065
:10072000814609E008FB0908A969761E44F40074B3
:100730007F1C019888478246002E05DD49465046B9
:1007400000F044F80028EDDAE96901988847A0052F
:1007500002D46FF00100A8E7E00725D1600613D5A9
:10076000600502D5C8F1000000E0404629680A1D76
:100770002A600968220501D5087015E0220701D515
:10078000088011E008600FE02868011D29600068FA
:10079000210502D580F8008006E0210702D5A0F8E7
:1007A000008001E0C0F8008038467EE7202A04DBA4
:1007B000203A21FA02F00021704721FA02F3D040DA
:1007C000C2F1200291400843194670473A2800D2EE
:1007D000303820F02002412A01D3A2F137008842AC
:1007E00001D34FF0FF307047026811441378016065
:1007F00018467047D16004495161044911620021D3
:100800001161114600F036B8E9070000A1040000AC
:10081000426842B1016811F8013B23B1521EC0E9A0
:100820000012184670470121C160881E7047426857
:100830005AB1C368016843B983688B4205D0491E29
:10084000521CC0E90012002070474FF0FF30704783
:10085000064C074D06E0E06840F0010394E807000D
:1008600098471034AC42F6D3FFF7CEFC2CB500000D
:100870004CB500002DE9F34F8BB04FF0000801F1AB
:100880000C000C464FF0010B46460DF1080A019092
:100890006269012101989047051E2DD0252D2CD08D
:1008A000216A8847C0B16269012101989047216A95
:1008B00088470028F7D1411E62690198904700E0FF
:1008C000761CA1690B988847216A88470028F7D1D0
:1008D000E1690B988847DBE7A1690B9888470746D1
:1008E000A84201D1761CD3E7E1690B9888477F1CA9
:1008F00002D1B8F1000F6FD046E1002762693D4692
:100900003946019890472A2804D16269012101984B
:1009100090470125DFF88492626901210198904790
:10092000A0F130010A290AD24F45E5DC07EB870127
:1009300000EB4107303FDFD445F01005ECE7E90656
:1009400001D46FF000476C280AD04C2814D06828D6
:1009500015D06A280DD074281CD07A281AD01DE032
:1009600062690121019890476C2802D045F0040586
:1009700014E045F002050DE045F020050AE062694B
:10098000012101989047682802D045F0080505E04C
:1009900045F400656269012101989047C4E9015757
:1009A00065283DD019DC58287AD00CDC452837D092
:1009B00004DC252826D0412831D131E046282FD02B
:1009C00047282CD12CE05B2877D0612828D06328D9
:1009D0007CD0642823D15AE0D0E06F2848D008DCCE
:1009E00066281DD067281BD0692821D06E2816D113
:1009F00027E0702845D0732868D0752847D078281C
:100A00000DD14DE0A1690B988847054625283FF494
:100A100069AFE1690B9888476D1C3FF46AAFB3E09A
:100A200023466A466FF001000B99AFF300809EE009
:100A300045F040006060A80723464FF0000236D41E
:100A40003EE0E8077FF447AF2068011D21600068A1
:100A5000290501D506701BE7290701D5068017E790
:100A6000A90703D5F117C0E9006111E706600FE798
:100A700045F040006060A80723464FF0080216D4F6
:100A80001EE040F60E0125EA0100606016E045F028
:100A900040006060A80723464FF00A0207D40FE029
:100AA00045F040006060A80708D5234610226FF08B
:100AB00001000B99AFF3008059E007E023461022B4
:100AC0006FF001000B99FFF7CBFD50E04FF00009EC
:100AD0004F464B46632802D05B2806D040E0E8062C
:100AE00001D40120A06001273AE062690121019848
:100AF00090475E2805D14FF0010962694946019887
:100B00009047216939B900210A46534643F821200C
:100B1000491C0829FADBB0B3216969B9C11700EB98
:100B2000D16253110AEB830122F01F02821A0120C5
:100B30000B68904003430B60626901210198904764
:100B40005D28E8D1B9F1000F09D00020514651F8D5
:100B50002020D24341F82020401C0828F7DB02ABBC
:100B6000224600976FF001000B99AFF30080002838
:100B70000CDA401C08D1BBF1000F05D04FF0FF305C
:100B80000DB0BDE8F08FFFE74046F9E7E90701D176
:100B900008F1010806444FF0000B79E6CCCCCC0CF0
:100BA00070B58C1810F8015B15F0070301D110F82F
:100BB000013B2A1106D110F8012B03E010F8016B5C
:100BC00001F8016B5B1EF9D12B0705D40023521EDF
:100BD0000DD401F8013BFAE710F8013BCB1A921C47
:100BE00003E013F8015B01F8015B521EF9D5A14245
:100BF000D8D3002070BD00002DE9F04F00268DB045
:100C0000DFF8A081B14604964FF480750124374681
:100C10000596284606F062FE38B1D8F80403204253
:100C200003D0284606F050FE26432D1D64007F1C8D
:100C3000ADB2082FEDD34FF4BE74204606F04EFE41
:100C400048B1204606F040FE46F0004604AA0221C4
:100C5000002006F023FE544C16F0FF0F15D001279C
:100C6000002537420DD008EB8501D1F81005D1F8E9
:100C70001015C0F3052054F82520C1F3014102B13D
:100C800090477F006D1C082DEBD3002E7EDA0020EC
:100C9000CDF82890411E0DF1100B07AACDF82C902D
:100CA00042F82010401C91460228F9D300252E4618
:100CB000A11911F8607F91F9000027F0C008401CCD
:100CC00040D007A9404605F05BF940B34FEA971AB8
:100CD000404601F0EBFE54F820701FB1BAF1030F4B
:100CE00003D006E0BAF1030F2CD10AA9404605F063
:100CF0004FF902A8CDF8088006F074FD029900EBC8
:100D00008100D0F8000704A9C0F3014002904046DA
:100D100005F036F90028029802D0022802D011E02E
:100D200003280FD1BAF1030F08D10298022833D05B
:100D30000221404606F030FD6D1CEDB217B1514660
:100D40004046B847761C042EB2D3002D21D001AA0C
:100D50000221002006F0A2FD00205A460DF10401F8
:100D600052F8206051F82030B34217D000200AAE6C
:100D70004FEA090351F8207042F8207056F82070AD
:100D800043F82070401C0228F4D300E001E0002D5D
:100D90008CD10DB0BDE8F08F0321CAE7401C0228BA
:100DA000DED3F6E700600040CC090020044607F0DF
:100DB00067F800BF06F038FE0028FBD1204600F09F
:100DC00001F80000BFF34F8F05480168054A01F4A0
:100DD000E06111430160BFF34F8F00BFFDE70000EA
:100DE0000CED00E00400FA0500F01F020121914023
:100DF0004009800000F1E020C0F88012704700F048
:100E00001F02012191404009800000F1E020C0F85C
:100E10000011704700F01F0201219140400980003D
:100E200000F1E020C0F8001270474907090E0028C1
:100E300006DA00F00F0000F1E02080F8141D704782
:100E400000F1E02080F80014704710B507F0D4FDE1
:100E5000BDE8104007F052BC07480021C0F840111F
:100E6000C0F84411C0F84811C0F84C11C0F8001186
:100E7000C0F8041108F07ABE0010014008F0C8BDA7
:100E800030B54FF0805000228300D0F83011C3F805
:100E90000C21C3F81021624B1A60624B1B68624C34
:100EA0002360604B1B1D1B68241D23605D4B0833B2
:100EB0001B68241D23605B4B0C331B68241D2360BF
:100EC000584B10331B68241D2360564B14331B688A
:100ED000241D2360534B18331B68534C203423606C
:100EE000504B1C331B68241D23604E4B20331B6862
:100EF000241D23604B4B24331B68241D2360494B66
:100F000028331B68241D2360464B2C331B68241D8B
:100F10002360444B30331B68434C40342360414BC7
:100F200034331B68241D23603E4B38331B68241D5B
:100F300023603C4B3C331B68241D2360394B4033FA
:100F40001B68241D23600124082902D1D0F8343104
:100F500013B1082904D006E0354B3449196005E087
:100F6000D0F8343113B1082904D006E0314BFB210D
:100F7000196005E0D0F8343113B1082908D00EE02B
:100F800090F858322C48016863F30301016002E0D5
:100F9000D0F834311BB929494FF400700860284853
:100FA0000168C90702D06FF001010160254801689E
:100FB00041F470010160BFF34F8FBFF36F8F4FF0AB
:100FC0001021D1F80002002803DBD1F80402002828
:100FD00022DA1D4B1C601D480468002CFCD0122432
:100FE000C1F800420568002DFCD0C1F80442016838
:100FF0000029FCD01A6001680029FCD0BFF34F8F94
:1010000010487C380168124A01F4E0611143016024
:10101000BFF34F8F00BFFDE70F490E48086030BD9A
:10102000380500400404001020C50040488103003A
:101030008C56004018F50040E40E004040960240F7
:101040000004004088ED00E004E5014000E40140B8
:101050000400FA050090D003040200200148006853
:1010600000470000B80000202DE9F05F5448D0F898
:10107000045300242E464FF0010913E096FAA6F01F
:10108000B0FA80F7B80000F58070804607F0B8FA33
:1010900028B1404607F0BCFA09FA07F0044309FA00
:1010A00007F08643002EE9D105F0B4FF002869D08F
:1010B000444AD078F0BBA00264D5434940F2A978F5
:1010C000C1F80080081D036813F0FF0C02D003680C
:1010D00003EA0C0C40F2AA7AC1F800A0036813F0EE
:1010E000FF0301D00668334040F2AB7BC1F800B08B
:1010F000066816F0FF0601D007683E4040F2AC7764
:101100000F60076817EA0C0709D0D2F810C04CEA44
:10111000070CC2F810C0C1F800800760076840F2F1
:10112000AD770F6007681F4009D0136943EA074392
:10113000136100E026E0C1F800A00760036840F2F8
:10114000AE730B60036833400BD0DE0701D044F46C
:101150000004DE0601D544F00104C1F800B00360CC
:101160000068106930F0011102D005F080710C4365
:1011700010F0011F06D0690504D520F0011044F4D9
:1011800080641061C4F3C05624F400044F46DFF8B5
:101190003C8009E094FAA4F0B0FA80F558F82500F4
:1011A000804707FA05F08443002CF3D108F0B0FF24
:1011B000002E03D0BDE8F05F02F07CBFBDE8F09FD9
:1011C000007002408800002000780240F8A700006C
:1011D000C11700EBD161074B4A1153F8222021F0CF
:1011E0001F01411A01208840024201D001207047AE
:1011F0000020704700E100E002E008C8121F08C1AB
:10120000002AFAD170477047002001E001C1121F87
:10121000002AFBD17047022001F080B970B500248C
:10122000064D06E06868012110F8340007F0B2FAB4
:10123000641C28788442F5D3002070BDC0000020D3
:10124000F8B515460C460646052A01D20720F8BD1A
:1012500007F098FB18B907F05BFB0028F7D112499B
:1012600000224E600C708D60C1E90422C1E90622A3
:101270000E4D0DE006EBC4002968009181788DF8D1
:10128000011000780A4A694607F0D0FA0028DED13A
:10129000641EE4B2EED2BDE8F84004480021054ADD
:1012A000001D00F059B80000C0000020A4A80000F4
:1012B00019430000913D000072B606F0E1FD00BF49
:1012C00006F0B2FB0028FBD1134C606830B12088D7
:1012D000012101EB004011A106F0D0FC124800688A
:1012E000C00700D000BE6068022806D32088022113
:1012F00001EB00400DA106F0C1FCBFF34F8F0A487F
:10130000E43801680D4A01F4E06111430160BFF364
:101310004F8F00BFFDE70000F402002046617461BA
:101320006C206572726F7200F0ED00E05379737497
:10133000656D207265736574000000000400FA0595
:101340000EB500210091CDE901106A4644F201007A
:10135000FFF7B2FF0EBD0000074B9B7823B12AB107
:1013600020B10068037C1BB108207047072070473C
:101370004174426100207047A80A002070B507F050
:10138000C5FF104800240B21047044700E4D81707D
:1013900014206C602C706C70FFF726FD0721142060
:1013A000FFF743FD1420FFF72AFD084804600721DA
:1013B0001120FFF73AFD0548001F0068A8600020D3
:1013C00070BD0000A80A0020E000002008150140C0
:1013D0002DE9F843DFF8709099F802305BB350B311
:1013E000052902D20720BDE8F88343691BB3437C7B
:1013F000012B22D0002704460025884616462846A1
:1014000000F0CEFF684609F06DF8C0B1012101700F
:101410000E4944600968C0E90218C0E904769DF8E5
:10142000000089F80100002000F0BCFF1420FFF745
:10143000F1FC2846D7E70820D5E70F46DBE704256F
:10144000002000F0AFFFF4E7A80A002004150140D7
:101450000649897839B130B1416921B1002101745F
:10146000022108F063BB082070470000A80A002092
:1014700070B505460548046905E02946204601F097
:1014800063FC20680468002CF7D170BD08010020BF
:1014900070B5094804690CE0267A002505E0294664
:1014A000204600F01CFE6D1CEDB2B542F7D320685B
:1014B0000468002CF0D170BD0801002070B50A4806
:1014C00004690DE0267A002506E000222946204620
:1014D00000F044FE6D1CEDB2B542F6D320680468FE
:1014E000002CEFD170BD00000801002070B5084944
:1014F000054606200C6907E02946204601F024FC39
:10150000062803D121680C68002CF5D170BD0000BD
:1015100008010020F8B5044600250FE0002705E08B
:10152000007800F091FA08B11120F8BD3946781C16
:10153000C7B2304600F09CF80028F1D12946681C5B
:10154000C5B2204600F0AFF80600E7D100250DE057
:10155000002703E00078214600F07BFA3946781C2A
:10156000C7B2304600F084F80028F3D12946681C41
:10157000C5B2204600F097F80600E9D1074800E020
:10158000086801680029FBD1046005486946406984
:1015900000906068026820469047F8BD180100205E
:1015A000B8A800002DE9F04F87B04FF000081D46A5
:1015B000934689460446DDF840A04646CDF80C80A7
:1015C00000E0761C6068012300224768214603A8DA
:1015D000B8470028F5D140468DF800800027B8466E
:1015E00001903BE0606801236A46D0F804C02146C0
:1015F00001A8E0476068012305AAD0F804C021468D
:1016000001A8E0479DF8141049451AD1D84514D1D6
:101610009DF80000CAF8000005F8010B6A1C85F867
:10162000009060689DF800302146456801A89B1E27
:10163000A847002007B0BDE8F08F08F1010000F0D6
:10164000FF0860689DF800300022D0F804C02146F1
:1016500001A89B1EE0479DF800000744B742C1D394
:101660000520E7E7014800697047000008010020F5
:1016700042788A4201D8002070478278104408449A
:10168000704742788A4201D800207047827810441F
:101690000844704742788A4201D800207047827817
:1016A000104408447047027A8A4201D800207047EB
:1016B00001EB4101093008447047027A8A4201D89F
:1016C0000020704701EB4101093008447047027A5D
:1016D0008A4201D80020704701EB410109300844DB
:1016E0007047000002484078002800D00120704771
:1016F0000801002002484178491C417000207047D1
:101700000801002002484178491E417000207047BE
:1017100008010020044901E01168091D0A68002A37
:10172000FAD10860002070471C01002009490BE035
:10173000824207D1026852680A6000680021416055
:10174000084670471168091D0A68002AF0D1052073
:10175000704700001C01002070B50D460978062472
:1017600001260F293DD2DFE801F03C080C0E3C1A9F
:101770002B3C3C3C3C0C1E202900032008F024FCA0
:101780002FE000242DE0284804F014FB0028F8D0B6
:1017900026480660BFF36F8FBFF34F8FF1E700F06D
:1017A0006DF804461DE0002005E02148006810F0B7
:1017B000010F03D0022008F007FCE2E70120FAE75E
:1017C000E87803280DD01849091D0A6832B10023B2
:1017D0000B6049689047040005D000E00E2405F036
:1017E0003BFD204670BD08F0E7FB28B1A878002833
:1017F000F7D105F0F4FCF4E70E480078082810D182
:101800000C48001D007800070BD10A48083000780A
:1018100010F0F00F05D107480C30007810F0F00FF1
:10182000DFD005F0D9FCDCE72C0100205C70024021
:1018300038040040E00F00F002494978C14001F04F
:101840000100704728010020024A0146D2E9000247
:1018500010470000040D002070B50C46054605F049
:10186000B5FCA84201D0102070BD0348D4E9001295
:10187000C0E90212002070BD280100207FB5054696
:1018800005208DF8000006240DF1010005F0BCFCD8
:1018900008F092FB2949002008609DF8010010F033
:1018A0001F0006D001280FD0022826D0032833D1EC
:1018B00006E06946284607F02FFE044606282AD18E
:1018C0006846FFF713FE25E09DF8050003A900F028
:1018D00023FC050008D06A469DF80C1000F0FBFBC5
:1018E0000446062802D016E0102415E06A469DF84A
:1018F0000C10284607F03EFF0CE09DF8050001079C
:1019000005D0694600F058F80446062803D1684619
:1019100007F08CFE044624B105F09EFC04B020467E
:1019200070BD08F049FB30B105F050FC0028F5D13E
:1019300005F055FCF2E705F04FFCEFE73001002021
:10194000FEB5C08814460E46A04201D2054600E00E
:101950001546844207D2802005F068FAB4FBF0F106
:1019600000FB114068B100200096CDE90150002035
:1019700000F016FD6946802000F078F8040002D0DF
:1019800006E00120F0E705498020FFF765FF0446E7
:10199000002000F007FD2046FEBD0000F8A8000072
:1019A00008B140210160014870470000580D002037
:1019B00005F0F0B805F00AB910B50C46010600F0C4
:1019C0000F02092A09D200F00BF8006828B141681B
:1019D0000A682146BDE810401047102010BD0000E5
:1019E000010600F00F0001D5034901E0024948312A
:1019F00001EBC00070470000BC0C002010B504468D
:101A000000F00F00082805D2204605F089F920468D
:101A100005F03CFA2046BDE8104005F08FB9000003
:101A200070B50C46054605F0C9F918B105480078AF
:101A3000022801D0082070BD21462846BDE870402C
:101A400005F0BEB90801002010B5FFF7C9FF006816
:101A500010BD10B50C46FFF7C3FF04601CB16168F0
:101A60000968416010BD0021FBE7000070B50C461D
:101A7000054605F0A3F918B105480078022801D001
:101A8000082070BD21462846BDE8704005F024BA04
:101A900008010020F8B5054600781D4E10B31D4F13
:101AA0006946F86904F057F904001AD028682060E4
:101AB000002000F075FC7088F168401A401CE0803E
:101AC000002106F10C0004F094F9A080002000F041
:101AD00069FC6946F86904F05FF90146284608F098
:101AE000EBFCF8BD002000F05BFCF06808B96888EA
:101AF0007080074801210C3004F065F9002000F0E7
:101B000051FC0121284608F0D7FCF068F8BD000020
:101B100008010020B8A8000070B501786B4C05469C
:101B200009296FD007DC77D2DFE801F067779E8064
:101B30008AA7AE76C30065488129007817D00DDCEE
:101B40000A2971D00F2970D0802965D1052803D0CA
:101B500006283CD007285FD1022081E082291BD0D3
:101B6000832936D0842957D103283AD03FE05848FA
:101B7000FFF76AFE5648FFF77BFC0D2008F0AAFC31
:101B8000606910B95348007A00B1012005F068FB84
:101B9000FFF77EFC012063E0FFF77AFC05F08CFB89
:101BA000002007F0CBFE4A48401CFFF761FC484884
:101BB000401CFFF749FE0E2008F08CFC207800F056
:101BC000C5FB002828D0BDE8704004F0CFBE082037
:101BD00046E0032820D105F08DFB00281CD004200E
:101BE0003EE005F087FB10B1042007F0A7FE05F0EA
:101BF00009FC002810D0062032E0002008F06AFC22
:101C0000646907E057E007E02946204601F09CF8A8
:101C100020684468002CF7D170BDFFF739FC022022
:101C200007F08CFE012005E047E02BE0052007F0DF
:101C300085FE032008F04EFC2846FFF705FE3FE036
:101C4000032008F047FC2248801CFFF7FDFD2048D8
:101C5000801CFFF70DFC207806287FF47DAF07205D
:101C6000BDE8704007F06ABE032007F067FE02205F
:101C700008F030FC2846FFF7FBFB2846BDE8704023
:101C8000FFF7E2BD0F2019E0A878FFF7A9FED0E921
:101C900000232946104698470028BDD0A8780107A0
:101CA000BAD000F00F010829B6D2BDE8704005F0A7
:101CB000C9B8082002E0092000E00A2008F00AFC68
:101CC0002846BDE87040FFF7D3BB000008010020A4
:101CD000C9A800004C0D0020FFF7DCBEF8B5214C70
:101CE00000250095204EA0684FF4006728B9211DFB
:101CF000F06904F046F8A060C0B1818869B1C1887C
:101D0000B94200D3C580C188ADF80210C188491C12
:101D1000C1808188491E81801FE0FFF7FDFE1149C7
:101D2000F069091D04F022F8A56019E0E0680028B8
:101D300017D0002000F034FB6088B84200D36580E3
:101D40006088ADF80200401C6080064801210C301C
:101D500004F060F8002000F025FB6846FFF7DCFE89
:101D60000120F8BD08010020B8A800000148FFF7D5
:101D700091BE0000B8A8000010B5001D04F01DF8C9
:101D8000BFF34F8F10BD10B5001D04F016F8BFF360
:101D90004F8F10BD10B5001D04F009F8BFF34F8F31
:101DA00010BD10B5001D04F002F8BFF34F8F10BD39
:101DB0002DE9F04107461878002416460D460F28F5
:101DC00032D2DFE800F008113E40311318313131D2
:101DD0003145546669005988104603F080F80028A0
:101DE00054D06869816828E0032156E029463846C6
:101DF00007F066FC23E0987800060FD5D87820B964
:101E000003222946384608F05FFB70680028E8D0B6
:101E10000321304600F019F9002437E06869C068F2
:101E200010B1D87810B106E006242FE0022229462E
:101E3000384608F049FB6869C16838468847044657
:101E400024E0022126E00221104600F0FEF8C8E757
:101E50003846FFF75FFC040018D13846FFF74AFC0C
:101E6000040013D10021304600F0F4F80EE03846AB
:101E7000FFF75CFC040009D13846FFF743FC04007F
:101E800004D100214FEA060000F0DFF82046BDE84B
:101E9000F08101211046E7E701211046F4E7C2690D
:101EA00052680A60C069006870472DE9F041056812
:101EB00080464FF0000417000E4605F10805204645
:101EC00013D029188A7BB2422BD014B90AB901F178
:101ED0000E04401C0628F4D324B12846FFF74CFF1B
:101EE00077B90CE01120BDE8F0812918897BB14257
:101EF00014D12C180E3414D02846FFF73DFF0026CD
:101F000026702846FFF746FF284600F0BEF8002856
:101F1000E9D04046BDE8F04102F0C1BC401C0628B3
:101F2000E3D30020DFE7006890F82400084000D0E9
:101F3000012070472DE9F041046807460D46207DD9
:101F400008341646284000D00120B04202D10020BB
:101F5000BDE8F0812046FFF70FFF207B0EB128433C
:101F600000E0A84320732046FFF714FF204600F04E
:101F70008CF80028ECD03846BDE8F04102F08FBC68
:101F8000026A52680A60006A006870472DE9F041F1
:101F90000746046890F82C000D4608341646A842FF
:101FA00002D80720BDE8F081204600F05FF838B184
:101FB000A07CE84000F00100B04203D10020F1E72E
:101FC0000820EFE72046FFF7DEFE0120A17CA840B5
:101FD0000EB1014300E08143A1742046FFF7E1FE0A
:101FE000204600F067F80028DCD03846BDE8F04114
:101FF00002F00CBF70B50468064608340D46204652
:1020000000F034F840B14DB1B4F90E00294602F0A9
:102010009AFC28B1112070BD082070BD002070BD51
:102020002046FFF7B0FEA0892844A0812046FFF794
:10203000B8FE204600F03EF80028F0D03046BDE85B
:10204000704002F0E3BEC068704701228A40D1436D
:1020500003F0BFBE012202FA01F103F0CFBE006817
:10206000C840C04340F30000401C704710B5044610
:102070000021FFF7F4FF30B101212046FFF7EFFF09
:1020800008B1012010BD002010BD10B501686FEA35
:10209000910141F30001491C03D000F071F90020C7
:1020A00010BD00686FEAD00040F30000401C80F0D3
:1020B000010010BD10B504460221FFF7D0FF18B192
:1020C00000F05EF9002010BD03212046FFF7C7FF96
:1020D00080F0010010BD114642681368184770B5C2
:1020E000044640680D46C2680AB120469047204623
:1020F0002946FFF7D8FA05464678002408E021462D
:102100002846FFF7B5FA007804F0E8FD641CE4B255
:10211000B442F4D370BD00002DE9F04180460E4872
:102120000E46056914E02F7A00240DE0214628466A
:10213000FFF7B9FA0178414504D106B13470284659
:10214000BDE8F081641CE4B2BC42EFD328680568A6
:10215000002DE8D10020F3E70801002070B5044607
:10216000406815460E4683681BB1204698470628EE
:1021700003D1204631460DB1072070BDFFF793FA19
:1021800005464678002408E021462846FFF770FA05
:102190000078FFF733FC641CE4B2B442F4D30020AF
:1021A00070BD034600205A681269002A01D0184603
:1021B000104770472DE9F8432E4C054608234FF48D
:1021C00084722B49E06903F0B3FD10B10320BDE830
:1021D000F883294804F0A6FF0028F8D127490870A1
:1021E0000861486148212648FEF7D8F9244848216B
:1021F0004830FEF7D3F9224878307DB195E80E00DB
:10220000183080E80E00002004F030FC18B185285A
:1022100001D0FFF795F81B4D002611E004F13001C5
:102220000EC9EDE7002703E000782946FFF711FC0F
:102230003946781CC7B24046FFF71AFA0028F3D196
:102240003146701CC6B22846FFF72DFA5FEA000837
:10225000E8D1606800906946284600F075FD0400EA
:1022600003D005F0C1F82046B1E70020AFE7000039
:10227000B40B0020B8A80000D91C00000801002001
:10228000BC0C002038A9000030B1012807D002287A
:1022900008D10548FFF7FEBB03480838FAE70248B3
:1022A000001FF7E770470000E0A8000010B504F039
:1022B00085FF10B104F078FF08B1082010BD044874
:1022C00004F0E4FB08B1FFF73BF8002010BD00006C
:1022D000E4A80000074803E0016811F0010F07D0EF
:1022E0000168C1F340010029F6D00348FFF7D2BBD3
:1022F0007047000038040040BDA80000034808B53E
:10230000806800906846FFF7C5FB08BDB8A80000CC
:10231000074918B1052803D30020704708687047A3
:10232000044A105C0028FAD051F8200070470000E1
:102330007001002030AA0000034808B5C068009072
:102340006846FFF7A7FB08BDB8A80000092808D217
:10235000DFE800F007070507070505050500012070
:10236000704700207047092808D2DFE800F007070F
:102370000507070707070500012070470020704781
:1023800008B50120FFF758FA002806D00348006975
:1023900000906846FFF77EFB012008BDB8A800004A
:1023A00000F002B800F008B872B602480168491C93
:1023B000016070478401002003490868401E0860DE
:1023C00000D162B6704700008401002070B5054658
:1023D00008680C46411C04D005F039FA206805F065
:1023E000C7F96068411C02D0002105F0AFF92968E7
:1023F000A069C1F82405607D227D29681043C1F8D9
:102400006C05D4E900122868C0F81425C0F80C1532
:10241000207D012814D1A068411C02D0002105F0C4
:1024200095F9E068411C04D005F011FAE06805F068
:102430009FF9D4E902122868C0F80825C0F81015E1
:1024400070BD70B5054608680C46411C04D005F007
:1024500008FA206805F096F96068411C02D0002156
:1024600005F07DF92968A069C1F82405607D217D0A
:102470002A680843C2F86C05D4E900122868C0F83D
:102480000C15C0F81425207D012814D1A068411C2A
:1024900002D0002105F063F9E068411C04D005F08A
:1024A000E0F9E06805F06EF9D4E902122868C0F896
:1024B0000825C0F8101570BD102802D31038C0B21E
:1024C000704740F0800070472DE9FC410646C00788
:1024D0004FF000050ED0104F00240122385D00950A
:1024E00000231146019505F0BBF8641C042CF4D3BD
:1024F00000F04EF8B0070DD5074E0024361D00221F
:10250000305D032300951146019505F0A9F8641C80
:10251000042CF4D3BDE8FC8124A70000094908B5C8
:10252000085C0090684605F04FF9D0F80425009B40
:102530000121994021EA0203C0F808351140C0F892
:102540000C1508BD24A700000249085C012105F014
:1025500092B9000024A700000249085C002105F0A0
:102560008AB9000024A70000084908B5085C00905B
:10257000684605F029F9D0F804050099C84010F024
:10258000010000D0012080F0010008BD24A7000058
:1025900010B500242046FFF7D7FF641C042CF9D3A4
:1025A00010BD10B500242046FFF7D6FF641C042C94
:1025B000F9D310BD10B50246064B4FF0FF30002195
:1025C0005C5C944201D1084610BD491C0429F7D334
:1025D00010BD000028A700002DE9F0470D468146F8
:1025E000FFF7E8FF0446042836D2DFF874801B4862
:1025F0001C4EA8F10C0725B3012D0ED0022D2BD1B6
:1026000004EB440030444578002D25D0B9680029FA
:1026100022D02846BDE8F047084704EB4401755C2A
:102620000E44717849B10E4A4FF40041093A80686E
:10263000FEF7CEFE08B987F80390B17808F80410C9
:10264000E2E78068FEF704FF04EB4401314418F828
:1026500004008D78A842D7D0BDE8F0872CA70000F1
:1026600068000020540700200149086000207047DE
:102670006C00002010B51E4C0E380C2836D2DFE856
:1026800000F00617212B353535351219232D184842
:1026900003212030FFF7AEFC20680022BDE8104087
:1026A000A421FEF795BE2068BDE81040FEF7D0BE1D
:1026B000012200E000220E480021BDE81040203039
:1026C000FFF764BC012200E0002209480221BDE8B6
:1026D00010405030FFF72EBC012200E000220448D9
:1026E0000A21BDE810405030FFF7DFBB10BD0000ED
:1026F000E8A5000070B50023042810D20D4D00EBB2
:102700004004012A02D101290CD00022094E00EB1D
:102710004000304461B1012906D0022906D00723C8
:10272000184670BD0E30C2B22A55F9E74270F7E77D
:102730008270F5E75407002070B506461E48002455
:10274000C0E90161B00720D50025012211462846C5
:10275000FFF7D0FF6D1C0446042D02D2002CF4D0EC
:1027600013E094B940F2666204211448FEF768FD54
:1027700004000AD1FEF752FD040006D10F48104AAA
:102780000021001FFEF7E8FD0446F00712D00120EB
:10279000FFF79AFE74B909480A4A00210C38FEF77F
:1027A000DBFD040006D10548074A01210838FEF781
:1027B000D3FD0446204670BD5C00002038A7000011
:1027C000412A000091540000171200002DE9F05F2B
:1027D0006A4C054600266078B34618B184F801B00B
:1027E00002F03EFE664F4FF47A694FF4C87A4FF01C
:1027F0000108182D62D2DFE805F0AC0C0C31404D19
:1028000062676B746B74BE7D7D7D7D7DACAFB2B550
:10281000BEBE0020FFF7A8FE00284FF0000008D041
:10282000FFF792FE022D02D14FF4E16008E0484626
:1028300006E0FFF791FE022D01D1C82000E05046CE
:10284000410CC0034FF4FA72801841F10001257069
:1028500052000023FDF7E0FD01462AE00020FFF7CB
:1028600083FE00284FF0000004D0FFF76DFE4FF408
:102870004870E5E7FFF770FEDFE70020FFF774FE22
:1028800000284FF0000002D0FFF75EFECFE7FFF711
:1028900063FED4E70020FFF767FE00284FF000003A
:1028A00002D0FFF751FE01E0FFF756FE257041F61A
:1028B0009A1100223868FEF78BFD064646E000209C
:1028C000FFF72CFE257008E0002051E025703DE068
:1028D00084F801800120FFF721FE002240F6CD415F
:1028E000E8E784F801800120FFF718FE00224FF48A
:1028F0008041DFE77868FEF7ABFD0646D5F11100B1
:1029000000D02EB10220FFF71FFE84F802B01DE0B8
:10291000012816D980B2C8214843C117C90341EA2A
:102920005041C0034FF4FA72801841F10001520087
:102930000023FDF771FD014600227868FEF748FD8F
:1029400006460220FFF708FE84F802803046BDE804
:10295000F09F02F085FDB9E702F082FDB4E702F0D6
:102960007FFD04E002F07CFD0020FFF7F5FD012073
:10297000FFF7F2FDAAE7FFF714FEA7E75C000020CF
:102980002CA700002DE9F0470546861C90460F460F
:102990004FF001090020FFF703FD1B4C2068386051
:1029A000D4E90001401AA16804F21C47081A0EE09D
:1029B0000121384603F007FA02F010FF01463846BD
:1029C00003F001FAD4E90001401AA168081A401C7A
:1029D0008642EDD8B8F1000F03D0052065F38910C9
:1029E00002E0062065F39F50A2682168114004EBC5
:1029F0008101C8602068304420600020FFF7D2FCCD
:102A00004846BDE8F0870000700E002030B48268B0
:102A10000468531C8360A154D0E901128A4202D396
:102A200030BC04F024BD30BC70470000034803C82C
:102A3000814201D10120704700207047700E0020B4
:102A400000780221FFF7C8BD05494FF0FF32082882
:102A500041F8202002D3084480F858207047000035
:102A6000CC090020F0B54FF0FF3512B10023082645
:102A700001E008230C260C4C05E000BF54F823703D
:102A80007F1C04D05B1CB342F8D32846F0BD261847
:102A90005DB286F8305044F82310002AF5D1E118D1
:102AA00081F85800F1E70000CC09002002490844F1
:102AB00090F9300070470000CC09002070B58168A3
:102AC00004468A7C002A4DD0C87C00284AD0121ABD
:102AD0000844D5B200F114016A1C1330FDF737FD2C
:102AE000A068C17C491EC174A068817C491E8174A4
:102AF0008DB308221C49206904F0ACFC204603F089
:102B0000EFF88178C078814211D1A06817A2C17C0A
:102B1000431808212046143303F0D2FC204600F06D
:102B200017F929462046BDE8704001F03BB8204621
:102B300000F022F9204600F00BF9A0680BA2C17C3E
:102B4000431808212046143303F0BAFC2046BDE8A0
:102B5000704000F007B92069BDE87040044A03A145
:102B600004F078BC70BD0000442D00002573000007
:102B7000F4AB000070B504468068827CC17C521AB8
:102B800012F0FF053AD0084400F115012A4614302E
:102B9000FDF7DDFCA068817C491E8174204603F0AE
:102BA0009FF88178C078814214D1A06814A2C17CBA
:102BB000431808212046143303F082FC114A10A167
:102BC000206904F047FC6D1EE9B22046BDE8704064
:102BD00000F0E8BF204600F0CFF8204600F0B8F83B
:102BE000A06807A2C17C431808212046143303F0D3
:102BF00067FC2046BDE8704000F0B4B870BD00002E
:102C000025730000F8AB00002DE9F0410446806810
:102C10000F46D0F83C11C27C11F00106817CA1EB7B
:102C20000203DDB20AD07F2901D3002D7ED0A06837
:102C3000C17C08440021077566B113E07F297CD26E
:102C4000002DF4D0831803F114012A46481CFDF727
:102C50007EFCECE7A068827C521CD2B28274A06831
:102C6000143281544DB3204603F03AF88178C0788D
:102C700081420ED1A06832A2C17C431808212046AF
:102C8000143303F01DFCA81BC1B2204600F08AFFDC
:102C900021E0204600F070F8A06829A2C17C43180A
:102CA00008212046143303F00BFC204600F05AF8AC
:102CB0000121204601F054F80DE03EB1A068827C6D
:102CC000521CD2B28274A068143281543A461DA1BB
:102CD000206904F0BFFBA168C87C401CC874204672
:102CE00000F04DFF0028204603D0BDE8F04100F081
:102CF00065BF01F0FEFA00281FD0204602F0F0FF69
:102D00000546C078A978401A401EC1B2204600F09E
:102D1000D7FE204600F052FFE878A978401AC1B2E9
:102D2000204601F029F82878401E00E005E0C1B2F5
:102D30002046BDE8F04101F013B8BDE8F081000085
:102D400025730000256300004268126810470000E8
:102D50000069024A02A104F07DBB0000ECAB000058
:102D6000257300000069024A024904F073BB0000A9
:102D7000E3AB0000602D00000069024A024904F044
:102D800069BB0000E0AB0000602D00002DE9F04FB2
:102D90004FF000099DB005464E464C46CDF81490C4
:102DA00000F0A0FD284602F0D3F9284600F094FE7A
:102DB000284600F0E4FE10B9284600F0FFFEAA689D
:102DC0000C2308A901A8143202F060FE0346019802
:102DD00040B15BB150A20221284603F071FB1DB047
:102DE000BDE8F08F284600F0E9FEF8E75148504969
:102DF0000027A1EB00080DF1200A834613E008D359
:102E00004DA0009051A202212846089B03F058FBD8
:102E1000E5E70BEBC704606801685AF82900FDF785
:102E2000CFFB18B17F1CB7EBD80FE8D94FF0000BE0
:102E3000CDF868B06068C7680FB1A968486060687D
:102E400009F101044FF0000880680DF1580906905F
:102E50000198844237D25AF824003EA1FDF7B0FB16
:102E600050B35AF824003CA1FDF7AAFB20B3424618
:102E700008F101081AAB2146CDF80090069800F041
:102E8000EDFCB8F1000F1ED01A98E0B101685AF8B5
:102E90002400FDF795FB0028DAD11A98C16829B102
:102EA000A8F10101DDF818B02646059180684FF0C1
:102EB0000008641C0690CBE7A868D0F83C1141F0EC
:102EC0000201C0F83C11BBF1000F12D0CDF8009008
:102ED0001AAB31465846059A00F0C0FCA9681A980A
:102EE0000AEB860248600199C368891B2846984707
:102EF0000AE027B108AA28460199B84704E018A2B9
:102F00000221284603F0DCFAA868D0F83C1121F031
:102F10000201C0F83C1162E76E6F74207465726D37
:102F2000696E617465643A2025630D0A0000000033
:102F30008CB500004CB500003A20636F6D6D616E7A
:102F400064206E6F7420666F756E64002573257340
:102F50000D0A00002D6800002D2D68656C700000C2
:102F6000506C656173652073706563696679206173
:102F700020737562636F6D6D616E642E0D0A0000C3
:102F80008068D0F83C01C0F3C00070472DE9F041E3
:102F90000446C0688EB00D460026C068324601A9BE
:102FA00005F052F818B100200EB0BDE8F0816DB107
:102FB000019805F023F8A168D1F82C01401CC1F854
:102FC0002C0100F00700012879D10126204602F0EB
:102FD00087FE05468078012804D9401EC1B22046EC
:102FE00000F0CAFE2878012804D9401EC1B220464C
:102FF00000F0D8FD2046FFF7ABFE2EB131A2022132
:10300000204603F05DFA5AE04FF000080023082242
:1030100002A9019805F001F804980590BDF80C008C
:10302000ADF81800BDF80E00ADF81A008DF81D803F
:103030000298082700F00300012802D0022818D0C7
:1030400032E002983B46860AC0F3C2008DF81C00AD
:10305000029808A9C0F38315AA00019804F0DDFFC7
:103060002069009005AB2A4608A9304604F01CFFF1
:103070001AE00298850DC0F3C2008DF81C00082DDF
:1030800001D22E4600E008263B46324608A90198A8
:1030900004F0C3FF3744AD1B05AA314608A82369D5
:1030A00004F0F0FD002DEAD1019804F0A7FFE068DC
:1030B000002201A9C06804F0C7FF0028A6D00120A3
:1030C00072E700004C6F7374206C6F6773202D20C3
:1030D000696E637265617365206C6F6720626163FE
:1030E0006B656E642071756575652073697A652EF0
:1030F0000D0A000030B4406804682469A44630BC5E
:1031000060477CB500260446019601AB0122694662
:103110002046FFF7EFFF019800281CD09DF8000023
:103120007F28F2D804F08FFFA068417821B10129EF
:1031300061D0022963D167E0217E9DF80050A94249
:103140000DD1807C0028204606D0FFF71FFE02210B
:10315000204600F0C7F87CBD00F030FDF7E7092DF0
:103160001CD004DC002DD0D0082D04D11FE01B2D75
:1031700012D07F2D24D0FDF78FF90068405D10F04C
:103180003E0FC2D02046FFF7FBFE9DF8001000B3B3
:103190002046FFF739FDB8E7012133E02046FFF76D
:1031A000EFFE0028B1D0204600F0B6F8ADE720468B
:1031B000FFF7E6FE0028A8D02046FFF77FFCA4E733
:1031C0002046FFF7DDFE00289FD02046FFF7D2FC07
:1031D0009BE7A268907C7F2897D2D07C1318401C74
:1031E000D0741975A068C17C08440675A068817CFC
:1031F000491C817489E79DF800105B2901D00021EA
:1032000000E00221417080E7002141702046FFF775
:10321000B7FE00289FD09DF8000041380C28BAD294
:10322000DFE800F007090E2D064C0650060606548E
:103230006BE7012100E00021204601F077FE64E702
:10324000204602F04DFD054600786978884203D19A
:10325000A978EA7891429ED0697988424FF00101BD
:10326000204606D100F02CFC6979204600F09AFC3B
:1032700001E000F075FDA068C17C491C15E0204606
:1032800002F02EFD05460078A979491C884202D13A
:10329000A97801298AD001284FF00101204606D0E3
:1032A00000F080FCA068C17C491EC1742DE700F0CD
:1032B00063FD6979204600F053FDF3E7204600F0F6
:1032C0000BFC22E7204600F030FC1EE7A068D0F897
:1032D0003C2101219143D0F83C2161F30002C0F868
:1032E0003C2112E78268022911700BD1826800210B
:1032F00011758268D1748268917403A203210368F6
:1033000003F0DEB87047000025730000002801D0EC
:10331000FDF74FB9704700002DE9F04FA7B04FF00F
:1033200000080546CDF82480CDF81880806847460F
:10333000817CC1F17F01C9B25FEA010B7BD0C27C05
:1033400000F114019430FDF702F9A8680024C17C53
:10335000084480F89440FDF79FF821900168A86820
:103360000C23C27C0244D27C895CC0F83841AA6834
:1033700001F0010912A920A8943202F087FB1298EB
:10338000FFF7C4FFC6B2A2461F940C94209818B150
:103390004844401EB8426AD8B9F1000F01D0002657
:1033A00005E012A850F82700FFF7B0FFC6B20024CE
:1033B0000DA822460090641C1FAB3946504600F011
:1033C0004DFA1F9800286BD0016812A8324650F8B9
:1033D0002700FDF719F900280C9802D00028E7D043
:1033E0005EE0D8B11F980068FFF790FF0699C0B261
:1033F000884200D90690BBF1000F2BD022A8009084
:103400000CAB42463946504600F028FA1F98006837
:1034100082190C9800688319002015E0601E09903D
:103420001F980068FFF772FFC0B20690801B5845D6
:1034300010DAC0B20DE07FE013F800C0614506D19C
:10344000401C10F0FF0010D0115C0029F4D183451E
:1034500000D983461F98B4F101080C90A8D263A24A
:103460000421284603F02CF81AE0FF20EFE700249F
:103470000DA822460090641C1FAB3946504600F050
:10348000EDF9ECB31F98002856D0016812A850F847
:103490002700FDF795F80028EAD11F98D0F808A07A
:1034A000BAF1000F09D01F9838B120997F1CFFB2E4
:1034B00001EB09008742FFF469AF0C9800283BD06C
:1034C0000998414640455FD19AF8000038B10DA8EF
:1034D0000A4600900CAB3946504600F0BFF90C98F4
:1034E0000068FFF713FFB04206D00C985A460068F8
:1034F0008119284600F09AFA2198A968026800E02C
:103500001DE0C87C0B181B7DD25CD2071DD0897CC6
:10351000884211D2284602F0E3FBA9688478C87C6F
:10352000401CC874284602F0DBFB8078A04227D1FB
:103530000121284600F014FC27B0BDE8F08F2BA233
:103540000421284602F0BCFFF6E7D1F83C01C00791
:1035500011D0D1F83C0120F00100C1F83C0120213C
:103560002846FFF751FBA868D0F83C1141F0010153
:10357000C0F83C11E0E720212846FFF745FBDBE7D8
:10358000284600F01BFBD7E700212846069A05F0E5
:10359000DBFD0DF13409099C0EE01FAB22463946D4
:1035A0005046CDF8009000F059F91F98069A01682E
:1035B000284605F0C9FD641C4445EED917A2032135
:1035C00028462B6802F07CFFAB6816A2082128462B
:1035D000143302F075FF284600F08CFB0C985A4615
:1035E00000688119284600F021FAA5E7546162209D
:1035F00066756E6374696F6E3A20636F6D6D616E90
:10360000647320636F756E746572206F7665726681
:103610006C6F7765642E0D0A000000000D0A25739B
:103620000000000025730000002806D08868D0F84C
:103630003C1141F02001C0F83C11704770B50446C0
:1036400040680D4690F8280030B1A0680068FDF78A
:10365000FFFE08B108280CD1012685B1606903F08E
:103660006BFA616800220831606903F021FA08B141
:10367000062070BD606880F82960002070BD606819
:1036800090F8280048B9074A0021A068FDF764FEB9
:103690006168002881F82860F0D12046BDE87040BC
:1036A00005F092BEF599000070B5044640680D46DD
:1036B0000260606800224360606880F828206068CB
:1036C00080F82920606820220830FCF740FF2C6138
:1036D000074A2946606903F0EBF9050005D1E06867
:1036E00004F0E9FE206904F0E6FE284670BD000003
:1036F0001B9C00001A60C0681A4604F01ABE10B580
:103700000446406903F018FAA0680068BDE810405C
:10371000FDF79EBE7CB51A60044600691A4604F0A7
:1037200046FE050025D16069134A0178515C19B144
:10373000001D05F0A3FC02E00C3005F029FBC0B928
:10374000FF20009001236A4601A9206904F07BFE56
:1037500078B900980199C2B2606903F0DDF90546B5
:10376000606890F8290020B11DB92069009904F023
:1037700057FE28467CBD0000740000202DE9F84368
:103780001E4615468846074600241BE0786808EB6D
:1037900004016B460268D2F80CC02A46E047009844
:1037A00004442D1A70B9B868017803290AD000BF03
:1037B000D0F83C118906FBD5D0F83C1121F020014E
:1037C000C0F83C11002DE1D1002E01D000983060EE
:1037D000BDE8F88370B5084C050009D010342168A5
:1037E000002907D008682060496828468847F6E71E
:1037F0000834F4E770BD000080070020054A01216D
:1038000020B1012805D19170FFF7E4BF517000206D
:10381000FAE770478007002008B550686A4605A19E
:10382000FCF702FF044900980E300968C0B28847CF
:1038300008BD0000257500006C00002008B5506828
:103840006A4604A1FCF7F0FE034900980968C0B27B
:10385000884708BD257500006C0000202DE9F05F49
:103860001C460A9E15464FF0000959B180B30178F5
:1038700039B342683146284690473068D8B126604F
:10388000BDE8F09F14491548A1EB0008B5EBD80F2F
:1038900011D2DFF84CA00026834609E00BEBC607E7
:1038A000786801685AF82500FCF78AFE30B1761C6A
:1038B000B6EBD80FF2D3C4F80090E1E77868206047
:1038C000DEE7406800EB0210016809B11860D7E735
:1038D000FFE7C3F80090D3E78CB500004CB50000BB
:1038E000080200202DE9F041856806460024287D65
:1038F000002812D0A046FCF7CFFD0746D0F8000004
:1039000004F1140104F10104695CE4B2415CC907EB
:1039100005D0002CF4D185F81480BDE8F081641E38
:1039200014F0FF040FD0A87C021B04F11400291826
:1039300005F11400521CFCF70AFEB168887C001BDC
:103940008874B168C874B2683D68937CD01813302D
:103950000446002102E0491CC9B2401E0778EF5D11
:10396000FF07F8D18442D8D05B1A143302F80380E1
:10397000B268907C401A9074B168C874CDE70000BA
:103980002DE9F05F26484168F1B3DFF898B00E6882
:103990008146DBF8004087688078E11B21F07F4595
:1039A000ED1CB0B9DFF880804FF48030C8F84403D4
:1039B000C8F804031120FDF717FA1120FDF71FFACC
:1039C0004FF0010AC8F800A02F2004F0DBFE89F8B0
:1039D00002A0B54200D23546124BE8193C3320F024
:1039E0007F401860DBF800105A46091B21F07F4128
:1039F000001B20F07F40C91C81420FD9106818605D
:103A00002F2004F0BFFE00E004E0BDE8F05F1120CD
:103A1000FDF700BABDE8F05F05F078BCBDE8F09FA7
:103A2000E000002004150140001001402DE9F041A4
:103A30000446806815460F46827CC17C531A2A448E
:103A4000DEB27F2A37D8002D35D0084400F11401AA
:103A500005F114021044721CFCF779FDA0682A4697
:103A6000C17C084439461430FCF771FDA06814305D
:103A7000FFF74CFCA16811A28874A068C17C4318B0
:103A800008212046143302F01BFDA068C17C2944A4
:103A9000C174204600F073F818B9204600F029FCE4
:103AA00010B1204600F08AF8002E04D02046BDE870
:103AB000F04100F01FB9BDE8F0810000257300005F
:103AC000002904D00A46006901A103F0C3BC704775
:103AD0001B5B25644200000070B5054602F000F94A
:103AE000044600786178884203D1A078E178884262
:103AF0001AD0E178A078814204D9081AC1B22846C8
:103B0000FFF7DEFF20786178884205D9401AC1B2FC
:103B1000284600F047F804E0081AC1B2284600F031
:103B20001FF9A868817CC17470BD70B5054602F0AC
:103B3000D7F8044601788079401C814202D1A078F0
:103B400001281BD0A078012804D9401EC1B2284604
:103B500000F012F92078A179884206D9401A401E57
:103B6000C1B2284600F01EF805E0081A401CC1B298
:103B7000284600F0F5F8A9680020C87470BD10B59B
:103B800004460068FFF7C2FB0146A068C27C407B88
:103B90001144B1FBF0F200FB121008B1002010BD7F
:103BA000012010BD002904D00A46006901A103F0DC
:103BB00051BC70471B5B2564440000000069024A49
:103BC000024903F047BC0000E6AB0000602D000096
:103BD0002DE9FC47002604468DF8046080683546D0
:103BE000B146B04680219430FCF7D8FC40492069AA
:103BF00003F030FC206903F03AFC00276B460122F9
:103C000001A92046FFF776FA0098D8B19DF8040084
:103C10001B2806D0A16891F894101B29EED15228D8
:103C20001FD0A26808F19401505408F1010000F07F
:103C3000FF08B8F1090F0AD9A168042081F894900F
:103C4000BDE8FC872A494FF6C0100D31884700981F
:103C50000028D3D17F1CBFB2B7F57A7FCED30D2019
:103C6000EEE7A16808F194004A4601F80090A168C7
:103C700091F895005B2803D081F894200B20DFE7B2
:103C800002206FF02F0309E005EB850503EB4505E6
:103C9000401C3D44C0B2ADB2802808D200F1940768
:103CA000CF5D3B2FF0D1401CC0B2802809D30C203F
:103CB000C6E700BF06EB860603EB46063E44B6B2F7
:103CC000F1E700F19407CF5D002FF3D1FA20FA2E2F
:103CD00001D9087200E00E72FA2D02D9A16888722B
:103CE00001E0A0688572A06880F894200020A7E712
:103CF00004AC000070B5054601F0F2FF0446807880
:103D0000E178884201D1012600E000262846FFF72D
:103D100036FF18B9284600F0ECFA10B12846FFF734
:103D20004DFF1EB160782178401A12E0E078A1784A
:103D3000401AC1B2284600F01FF820786178884206
:103D400006D9401AC1B22846BDE8704000F008B854
:103D5000081AC1B22846BDE87040FFF723BF000033
:103D6000002904D00A46006901A103F073BB704723
:103D70001B5B256443000000002904D00A4600694B
:103D800001A103F067BB70471B5B25644100000085
:103D90002DE9F0470025DFF88C803CE060680021C9
:103DA00000EBC506012032789146FCF766FBD4E9AA
:103DB000062300EA020701EA030C57EA0C0728D0A1
:103DC00082438B434846C4E9062304F099FD3278C8
:103DD0008246914601200021FCF74FFBD4E90423E1
:103DE00000EA020401EA03074A4650460021FCF7B4
:103DF00044FB44404F403C430BD17078012801D034
:103E0000012100E00021726881EA0A010AB14846F6
:103E100090476D1CEDB298F8000044468542BDD332
:103E2000BDE8F087C000002010B50021024801F075
:103E3000E0FF80F3100010BD8C1200200E4910B579
:103E40000A784C780023A24212D0521CD2B20A70D7
:103E5000022A00D10B70084A0B780C3252F823204A
:103E600002608868104420F07F408860012010BD07
:103E70000360002010BD0000E00000206FEA006138
:103E8000C90F61F31F1070470106044900D5903136
:103E900000F00F0001EB00107047000094070020B5
:103EA00010B506F01FF98020FFF7EEFF817B01249B
:103EB000032902D00068002809D18020FFF7DEFF27
:103EC0008440E143BDE81040014801F082BF10BDCD
:103ED00094000020812004F045BB822004F042BB06
:103EE000832004F03FBB842004F03CBB852004F019
:103EF00039BB862004F036BB872004F033BB0000BA
:103F000038B5882506F0EEF82846FFF7BDFF817B1F
:103F10000124032915D00068002811D12846FFF795
:103F2000ADFF8440E1430C4801F053FF0B480A49C0
:103F3000806800900C398DF80250496868468847BF
:103F400038BD2846FFF79AFF8440E143BDE838407A
:103F5000014801F03EBF000094000020B0A700001F
:103F600038B506F0BFF80020FFF78EFF817B0124F3
:103F7000032905D0006868B1BDE8384003F02FB9C7
:103F80000020FFF77BFF8440E143BDE838400A484A
:103F900001F01FBF0020FFF771FF8440E143064896
:103FA00001F017FF05480449C0680C3900904968C2
:103FB0006846884738BD000094000020B0A7000084
:103FC000012004F0EBBA022004F0E8BA032004F068
:103FD000E5BA042004F0E2BA052004F0DFBA0620B6
:103FE00004F0DCBA072004F0D9BA000038B5082480
:103FF00006F078F82046FFF747FF817B032915D0AC
:104000000068002812D12046FFF738FF01218140C7
:10401000C943074801F0DDFE0648054940690090A4
:104020000C398DF8024049686846884738BD000061
:1040300094000020B0A7000070B515480468046023
:10404000BFF36F8FBFF34F8FBFF36F8FBFF34F8FF0
:1040500002F0E0FF38B10F48016921F0011201F0D0
:1040600001111443016101266CB194FAA4F0B0FA75
:1040700080F52846FEF720FA06FA05F18C4329461A
:1040800006F08AF9F0E7BDE8704006F041B800009C
:104090006C7402408800002010B5054CA078FFF732
:1040A000EDFE0146A078BDE8104006F075B90000AD
:1040B00088000020F8B51A4800681A4DC6B2A878E2
:1040C000FFF7DCFE012404FA00F12889EA68C04306
:1040D00080B21043014202D0A87806F0D5F806F06D
:1040E0008000A8700020FFF7C9FE04FA00F68020C7
:1040F000FFF7C4FE04FA00F006430A48F1430C300F
:1041000001F067FE8020FFF7B9FE8440A8680443F1
:104110000548AC60006A0090696868468847F8BD49
:104120008074024088000020B0A7000038B500204D
:1041300000900B480068ADF802008820FFF79EFE53
:10414000012505FA00F40820FFF798FE054985408F
:104150002C43886804438C6049686846884738BDAA
:10416000207502408800002070470000F8B518480C
:104170000568284604F058FABFF36F8FBFF34F8FDE
:10418000144E154CE80506D501206070706A009049
:10419000616868468847A8054FF0000705D5677035
:1041A000B06A009061686846884768050ED56078F7
:1041B00000280BD06770094901200860582004F0DE
:1041C00045FAF06A0090616868468847F8BD0000CB
:1041D00000740240B0A7000088000020087502406B
:1041E000054908B500204870887004484068009070
:1041F00049686846884708BD88000020B0A70000CD
:104200002DE9F05F17460E00814670D013B1F9B268
:10421000FFF7A6FD0024FCF73FF98246006800E0A6
:10422000641C315D415CC907FAD100253046FFF7B7
:104230006DF8D9F80810001B4A7BD11B814228D3A6
:1042400006EB040805E000BF18F805100A290CD099
:104250006D1C8542F8D33119D9F8100003F0FAF833
:104260004846BDE8F05FFFF7A9BCD9F8100003F09D
:10427000FEF8414600232A464846FFF77FFA2C44C1
:104280004846641CFFF79AFCF9B24846FFF768FD00
:10429000E1E78B46DAF8001006EB040818F8050091
:1042A0000B5CDB0702D0AB460A2804D0E819904229
:1042B00001D26D1CF2E7D9F8100003F0D8F841469E
:1042C00000235A464846FFF759FA5C44DAF80000E2
:1042D00000E0641C315D415CC907FAD14846FFF734
:1042E0006DFCF9B24846FFF73BFD9EE7FFE7BDE8EE
:1042F000F09F10B504460068FFF708F80146A06873
:10430000827C407B1144B1FBF0F200FB121008B13B
:10431000002010BD012010BD2DE9F041804602466D
:1043200001200021FCF7A9F81A4F05460E467868CF
:10433000FDF78EF800280CD1174CD4E90621104661
:104340002A4001EA06031A4305D0A843B143C4E951
:104350000601BDE8F081404604F0D2FA30B1D4E95C
:10436000040128433143C4E9040105E0D4E9041001
:10437000A943B043C4E90410D4E9060128433143FA
:10438000C4E90601A1687868BDE8F0410022FDF7A4
:104390001FB80000A4A80000C000002000F07FBAF1
:1043A00030B400F110040B460268214630BC0832DC
:1043B000FDF7FEBC2DE9F05FDFF89C830C7A054623
:1043C00088F80040006816468A464FF0000940F21F
:1043D000BB124C461F46A0F2BB114FF0090B904296
:1043E0007AD020DCB0F5D97F77D012DCB0F5D77F5A
:1043F0005AD006DC88B311F1120038D001286DD1F3
:1044000040E0B0F5D87F5AD0A0F58070B138F6D131
:1044100065E0A0F2B310082860D2DFE800F07C88E5
:10442000935F5F9EA9B4192970D00EDC0E296ED05F
:1044300006DC01296CD002296BD00B29DFD1DCE02E
:104440000F2967D01829DAD118E11D390529E3D2DF
:10445000DFE801F0F5F4F3F2F10088F801906CE187
:1044600085F804B0BC4202D340F2A9104FE10EB16E
:10447000287930550420641C2871BC4202D34FF4C3
:10448000D57044E10EB12879305598F801105046A6
:10449000641CFDF712F9C8F8080000782871BC42C6
:1044A00002D34FF4D77032E10EB128793055641C35
:1044B00085F80490BC4202D34FF4D87027E10EB1C6
:1044C00028793055D8F80800641CBC42407828711F
:1044D00005D340F2B1101AE160E00BE037E10EB114
:1044E000287930550320641C2871BC4202D34FF454
:1044F000D9700CE10EB1287930559AF81800641C77
:104500002871BC4207D340F2B31000E1C1E085E05E
:104510004FE05BE094E00EB1287930559AF819002D
:10452000641C2871BC4202D34FF4DA70EFE00EB184
:1045300028793055641C85F80490BC4202D340F2BF
:10454000B510E4E00EB128793055641C85F804B04C
:10455000BC4202D34FF4DC70D9E00EB1287930555B
:104560002120641C2871BC4202D340F2B910CEE075
:104570000EB1287930551120641C2871BC4202D339
:104580004FF4DD70C3E00EB1287930550120641C72
:104590002871BC4202D340F2BB10B8E00EB12879BA
:1045A0003055641C85F80490BC4202D34FF4DE7091
:1045B000ADE00EB1287930555046641C00F008F982
:1045C0002871BC4202D340F2BD10A0E00EB12879A0
:1045D00030555046641C00F0FBF888F8020088F85B
:1045E000039036E0DAF81000BC4250F82100007960
:1045F000287102D34FF4E37089E00EB12879305569
:1046000098F803105046641C00F0E4F8A8F806007F
:104610002871BC4202D340F2C91078E00EB128796B
:104620003055B8F80600641C000A2871BC4207D354
:104630004FF4E5706BE06EE05FE053E047E03BE095
:104640000EB12879305598F80310491C88F80310EA
:10465000641C98F8031098F8022040469142C1D398
:10466000816849780171494688F803905DE0072028
:104670002871BC4202D340F2D31048E00EB1287931
:1046800030550520641C2871BC4202D34FF4EA70F7
:104690003DE00EB12879305598F80110641CD8F827
:1046A0000800FCF7EEFFC8F80C0000782871BC4247
:1046B00002D34FF4EC702AE00EB128793055032074
:1046C000641C2871BC4202D340F2D9101FE00EB125
:1046D000287930554020641C2871BC4202D34FF425
:1046E000ED7014E00EB128793055641C85F8049003
:1046F000BC4202D340F2DB1009E00EB128793055FC
:104700000120641C2871BC4205D34FF4EE70286070
:104710000120BDE8F09F0EB12879305598F80310BC
:104720004046491C88F80310641C0279C9B29142C2
:104730009DD34178491C88F8011098F8011098F829
:1047400000008142FFF48CAE4FF4F070DFE70020F0
:10475000C5F80090DDE70000400100202DE9F05F82
:104760000546DDF828B00068184C8A461746002632
:1047700098464FF4F97928B1484518D000202E60AA
:10478000BDE8F09F5946504600F024F8606130467D
:10479000266113E0DAF81000464550F82B008068D7
:1047A000405C287103D3C5F800900120E8E70FB101
:1047B0002879B8552069401C761C20610146606943
:1047C0008142E7D940F2F5102860EEE74001002071
:1047D000007D7047006950F821000068704708B5F7
:1047E0000B46002100911979012903D0022905D037
:1047F000062008BD6946FDF752FB02E06946FDF759
:10480000BFFB009A411C581C521EFDF799F808BDC9
:1048100030B50446006A85B000210268117000912D
:10482000019102910168491C00914068401E01906D
:104830000020FDF7B5FD69460020FDF717F90500DA
:1048400008D1074803A90068CDE903040020FDF75B
:1048500003F805460020FDF7A5FD05B0284630BD4C
:1048600070A9000010B508B1032010BD0A6A0846FF
:1048700009681268527881F82420826A02219047E0
:10488000002010BD10B5046800F11001084608347E
:10489000FDF7D9FB08211434C0E9004110BD2DE912
:1048A000FE430568044600210835FCF706FF002199
:1048B000FCF7E7FE90F800806FF00801284601F051
:1048C00088FA2046FFF7DEFF06462168D6E9000297
:1048D00014318946FBF782FE002700281FD0D6E955
:1048E00000024946FBF733FE2046FFF7CBFF009757
:1048F0000197029701680091406801900020FDF740
:104900004FFD69464046FDF7B1F8040003D1284643
:10491000082101F073FA0020FDF744FD2046BDE8B0
:10492000FE8310B5022906D003290BD1BDE8104043
:104930000220FDF7F3BD0220FDF7F0FDBDE81040B9
:1049400000F06EBD10BD0844B0F5004F02DA10F55E
:10495000004F01DA01207047002070477F2801DDF9
:104960007F2070476FF07F01884201DA0846704768
:1049700040B2704700F04ABA30B400F110040B4660
:104980000268214630BC0832FDF712BA2DE9F05F0B
:10499000DFF8AC830C7A054688F8004000684FF0D9
:1049A00000098A4616464C461F464FF0090BB0F5E3
:1049B000FD7F78D022DC40F2F112A0F2F11190429A
:1049C00072D012DCB0F5F77F62D007DC80B3B0F5AF
:1049D000F47F40D011F1080067D147E0A0F5807066
:1049E000EF3863D00128F7D16DE009295DD2DFE807
:1049F00001F05C86929D5C5CA8B3BE0040F213227D
:104A0000A0F21321904275D013DCB0F5027F72D072
:104A100007DC11F118006FD001286ED00A28DBD115
:104A2000DFE0A0F50070093868D00928D4D119E179
:104A300007E0091F0529D9D2DFE801F0F5F4F3F208
:104A4000F10088F801906CE185F804B0BC4202D313
:104A50004FF4F4704FE10EB1287930550420641CF6
:104A60002871BC4202D340F2E91044E10EB128792A
:104A7000305598F801105046641CFCF728FEC8F821
:104A8000080000782871BC4202D34FF4F77032E17D
:104A90000EB128793055641C85F80490BC4205D3CA
:104AA00040F2EF1027E16DE018E044E10EB1287903
:104AB0003055D8F80800641CBC424078287102D3F5
:104AC0004FF4F87017E10EB1287930550320641CBB
:104AD0002871BC4202D340F2F1100CE10EB12879EA
:104AE00030559AF81800641C2871BC4207D34FF463
:104AF000F97000E1C1E085E04FE05BE094E00EB1C9
:104B0000287930559AF81900641C2871BC4202D3E8
:104B100040F2F310EFE00EB128793055641C85F8AF
:104B20000490BC4202D34FF4FA70E4E00EB128794D
:104B30003055641C85F804B0BC4202D340F2F71033
:104B4000D9E00EB1287930552120641C2871BC426F
:104B500002D34FF4FC70CEE00EB12879305511200D
:104B6000641C2871BC4202D340F2F910C3E00EB1BC
:104B7000287930550120641C2871BC4202D34FF4BF
:104B8000FD70B8E00EB128793055641C85F80490AA
:104B9000BC4202D340F2FB10ADE00EB12879305593
:104BA0005046641C00F008F92871BC4202D34FF44F
:104BB000FE70A0E00EB1287930555046641C00F01C
:104BC000FBF888F8020088F8039036E0DAF8100065
:104BD000BC4250F821000079287102D340F2052030
:104BE00089E00EB12879305598F803105046641CBE
:104BF00000F0E4F8A8F806002871BC4202D34FF494
:104C0000027078E00EB128793055B8F80600641CBF
:104C1000000A2871BC4207D340F209206BE06EE025
:104C20005FE053E047E03BE00EB12879305598F85B
:104C30000310491C88F80310641C98F8031098F8B6
:104C4000022040469142C1D38168497801714946AA
:104C500088F803905DE007202871BC4202D340F23F
:104C6000122048E00EB1287930550520641C2871C7
:104C7000BC4202D340F213203DE00EB128793055FA
:104C800098F80110641CD8F80800FCF703FDC8F878
:104C90000C0000782871BC4202D340F217202AE0B1
:104CA0000EB1287930550320641C2871BC4202D310
:104CB0004FF406701FE00EB1287930554020641C77
:104CC0002871BC4202D340F2192014E00EB12879B9
:104CD0003055641C85F80490BC4202D340F21A207F
:104CE00009E00EB1287930550120641C2871BC42BE
:104CF00005D340F21B2028600120BDE8F09F0EB1D3
:104D00002879305598F803104046491C88F803105C
:104D1000641C0279C9B291429DD34178491C88F83C
:104D2000011098F8011098F800008142FFF48CAE51
:104D300040F21F20DFE70020C5F80090DDE700000B
:104D4000580100202DE9F0470546DDF820A0006855
:104D5000184C894617460026984638B1A0F50070D1
:104D6000313819D000202E60BDE8F0875146484602
:104D700000F024F860613046266114E0D9F8100094
:104D8000464550F82A008068405C287104D340F200
:104D9000312028600120E7E70FB12879B855206954
:104DA000401C761C2061014660698142E6D94FF4BF
:104DB0000D70EEE758010020007D7047006950F843
:104DC00021000068704710B50C460979012901D00F
:104DD000062010BD00F009F8D0E90012601CBDE803
:104DE0001040FCF7ADBD0620704770B5056800F1B6
:104DF000100420460835FDF726F904211335C0E9D3
:104E000000512046BDE87040FDF71DB92DE9FE4F69
:104E10000268054602F108080021FCF758FC002151
:104E2000FCF738FC90F800B06FF00801404600F045
:104E3000D0FF28462C68FFF7D8FF0768A07E97F8B8
:104E400000A03870B4F91400FFF788FD0646A08A68
:104E5000801BA0827E70B4F91600FFF77FFD8146AB
:104E6000E08AA0EB0900E08287F80290B4F918000C
:104E7000FFF774FD0146208B46EA0906401A20839D
:104E8000F9700E434FF0000405D13978514502D135
:104E90000020BDE8FE8F2846FFF7A7FF009401948D
:104EA000029401680091406801900020FDF778FAB3
:104EB00069465846FCF7DAFD040003D14046082154
:104EC00000F09CFF0020FDF76DFA2046E1E7022983
:104ED00004D0032902D10220FDF720BB704710B592
:104EE000027A02B39200B1FBF2F302FB1311D1B9C3
:104EF000416819B10321FDF7A8F814E001686FEAD1
:104F0000910141F30001491C02D0FDF739FA0AE092
:104F100000686FEAD00040F30000401C90F0010FE1
:104F200001D0012010BD002010BD0000FEB50026FC
:104F300004460096019602968068E9B3D0E94D12C6
:104F40008A4271D0D0F8300100286DD02046FEF79B
:104F5000ECFDA068D0F83851002D68D0002309225C
:104F60006946284603F059F8A1689DF80850009852
:104F7000C1F83801A06800230922D0F83801694639
:104F800003F04BF8A1689DF808200923D1F83801F7
:104F90001431521C03F041F8A1689DF80800C87450
:104FA000A1689DF8080088749DF80800A84202D204
:104FB0002046FDF7CDFE00E00BE0A3682BA2082100
:104FC0002046143301F07CFA2046FEF7D8FD60BB82
:104FD00042E0D0F83801002846D02046FEF7A5FD73
:104FE000A06800230922D0F83801694603F015F8BB
:104FF000A0680199C0F83811A0680029857CB9D152
:105000009430FEF783F90028A06805D000F19401E0
:105010001430FBF7F0FA00E00675A0681430FEF7D4
:1050200075F98DF80800B7E71EE01AE0FFE71430C5
:10503000FEF76CF910F0FF05A068D0F83011C0F849
:105040003811A06805D000F114019430FBF7D3FAB1
:1050500090E780F894608DE72046FFF74AF9002832
:1050600002D02046FEF7AAFDFEBD00002573000019
:10507000FEB50D46816804460026D1F8300138B3EC
:1050800000230922694602F0C8FF0195A0680023A9
:105090000922D0F83001694602F0C5FF0196A068E8
:1050A000D0F830110091807C8DF80800A068C0F81D
:1050B0003051002309226946284602F0B4FFA16856
:1050C000092328468A7C1431521C02F0ACFFFEBD35
:1050D000C1F83051A068C0F8345100960196A0681C
:1050E000807C8DF80800E4E7FEB504468068D0F8BF
:1050F0003461002E28D0002309226946304602F090
:105100008CFFA16801980025C1F834010095019534
:105110002B46092269463046029502F084FF30464C
:1051200002F04DFFA168D1F8340170B100230922CB
:10513000694602F072FF0095A06800230922D0F8AA
:105140003401694602F06FFFFEBDC1F83051FEBD6B
:10515000FEB5044680681430FEF7D8F810F0FF055D
:10516000A0684FF00006C0F8386133D0A068D0F8CE
:105170003001E0B100230922694602F04EFF9DF89C
:105180000820AA4213D1A068092300F19401D0F8A5
:105190003001521C02F041FFA06800F1940114306C
:1051A000FBF70EFA0028A06880F8946012D0002661
:1051B0000A352946606902F0D2FE0100204604D07B
:1051C00003B0BDE8F040FFF753BFFFF78DFF761C3B
:1051D000082EEED3FEBD000010B516490220FDF7E3
:1051E000ABFA08B1FCF7ACF8002116220846FDF72F
:1051F00081FA08B1FCF7A4F8172200210120FDF77D
:1052000079FA08B1FCF79CF8182200210220FDF77A
:1052100071FA08B1FCF794F8192200210320FDF778
:1052200069FA08B1FCF78CF8BDE810400120FDF7E1
:105230004BB900007526000000B589B01348FDF792
:1052400013FA08B1FCF77CF82022114901A8FBF7FA
:105250007EF9062001900820029000208DF81800A9
:10526000032000900A4801231A4601A9783801F06A
:1052700093FA08B1FCF764F80548783801F042FB6E
:10528000002801D0FCF75CF809B000BD75260000CD
:1052900064A600002DE9FC5F0E008346DDE90C47A3
:1052A000C6F1000098469246814600D40846012582
:1052B00003E000BF90FBFAF06D1C5045FADAA845F8
:1052C00000D9454624B1002E01DB780700D5641EC5
:1052D000B80702D5B8F1000F0AD0F80708D13CB1E1
:1052E000A54205D220215846641EFDF78FFBF6E744
:1052F000002E02DA4E462D2102E0780703D52B213D
:105300005846FDF783FB07F0030002280BD1B8F1E4
:10531000000F08D13CB1A54205D230215846641E89
:10532000FDF774FBF6E7CDE90047434652463146A8
:10533000584604F0E7FDBDE8FC9F000070B50D463F
:10534000044600684FF4887103F0F1F84FF490714F
:10535000206803F0ECF84FF49271206803F0E7F84E
:105360004FF4A271206803F0E2F820681249C0F8F7
:10537000041320686907000B40B2090E002806DA02
:1053800000F00F0000F1E02080F8141D03E000F1B0
:10539000E02080F8001420680121000B40B200F0EA
:1053A0001F0291404009800000F1E020C0F8801207
:1053B000C0F8001170BD000010030200024600207A
:1053C0001268930702D0530702D47047500714D5D0
:1053D00002F00300012802D002280CD105E0C2F33C
:1053E00083100B68801C184404E00223086803EB58
:1053F00092521044086001207047086800EB9253F5
:10540000C2F38910401CEEE70268134602E08A42AC
:1054100004D01268002AFAD10B60016070470000C6
:1054200010B501210D48FCF77EFD00284FF001006A
:1054300002D0FDF791F801E0FDF786F80221074858
:10544000FCF771FD00284FF0000003D0BDE81040CC
:10545000FDF782B8BDE81040FDF776B838A6000029
:105460000A4810B5807860B1002401E0022C06D013
:105470002046FDF769F8641C042CF7D310BD032403
:10548000F6E7BDE81040FDF783B800005C0000209F
:1054900003480179C90702D00078FDF797B9704732
:1054A0005C0000202DE9F047394E002780463D463C
:1054B000DFF8E090D6F804A057E003D00446D0F817
:1054C0001C8035E099F8002002EB4201521CD2B258
:1054D00089F8002009EBC10199F80230091D9A42B0
:1054E00001D189F8005048680A780446012A12D090
:1054F000022A02D0032A3BD108E004F0E7FA00B107
:105500000127257434E00574C06900E07068002844
:10551000F9D170602CE0207C50BB88686060C8685E
:10552000A0600869E0604869A061F07800B165603A
:105530006268B168184B501A20F07F40984202D23E
:10554000A168084406E0881AA16820F07F408142E3
:1055500002D9081A206000E0256065600120A5607E
:1055600020742046E56104F093FAB8F10000A4D15C
:1055700099F8001099F801008142A3D117B9716818
:10558000514502D00120BDE8F0870020FBE7000074
:10559000E0000020A80A0020FFFF7F001CB50129C1
:1055A00005D08168D1F83C11C1F3400131B102B09E
:1055B0000022BDE81040114600F0AABF536804A1C4
:1055C000CDE90013136808A2022100F079FF1CBD89
:1055D00020756E6B6E6F776E20706172616D657491
:1055E00065723A200000000025733A257325730D7B
:1055F0000A0000002DE9F74F82B0154602980F000F
:105600004FF00006C068007A009058D0072248A1E9
:105610002868FAF7F9FF78B1082247A12868FAF755
:10562000F3FF002830D02B6845A2029805B0022174
:10563000BDE8F04F00F044BF012F02D0022F08D088
:1056400008E0029805B044A2BDE8F04F022100F046
:1056500037BF0126DFF81881002400BF58F8241056
:105660000A226868FAF7D0FF10B1641C052CF5D344
:10567000052C06D004F0FF090224002E54D000248B
:1056800019E03CA26B68D0E7012F4FF00009F6D07B
:10569000012449E04A462146009800F0DFFA48B963
:1056A0000021204602F0DEFB03463AA202210298C6
:1056B00000F006FF641C02F083FBA042EAD805B0AC
:1056C000BDE8F08F4FF0000A55F824B002F078FBE7
:1056D0008046002609E00021304602F0C3FB20226C
:1056E0005946FAF791FF90B1761C4645F3D34645EB
:1056F00006D155F8243030A20221029800F0E0FED5
:105700004A465146009800F0A9FA10B10BE0B246A3
:10571000EDE70021504602F0A5FB03461DA2022141
:10572000029800F0CDFE641CBC42CBD3C7E700005A
:10573000656E61626C65000064697361626C65002E
:10574000556E6B6E6F776E206F7074696F6E3A2056
:1057500025730D0A000000004261642070617261CF
:105760006D6574657220636F756E742E0D0A00008E
:105770008C010020556E6B6E6F776E2073657665B9
:1057800072697479206C6576656C3A2025730D0A10
:10579000000000004C6576656C20756E617661696D
:1057A0006C61626C6520666F72206D6F64756C65EC
:1057B0003A2025730D0A0000556E6B6E6F776E20D0
:1057C0006D6F64756C653A25730D0A00C068012120
:1057D00041727047C0680021417270472DE9FF4156
:1057E0000026234800F0E9FA2148001F074600F090
:1057F000E4FA204C60680090A56800E000986946D3
:10580000284004EB80000C30FFF7D8FD0028F5D1CC
:1058100001AA009901EA050304EB8303491CDB6834
:1058200042F82030401C00910228F2D3019800F089
:10583000030001280BD0022810D10198032101EBAD
:1058400090500099BDF80A6001EB900005E00198C6
:10585000BDF80A60C0F3831008440090384600F099
:10586000A9FA08B10098606004B03046BDE8F08144
:1058700088120020700E00202DE9FE4F814602F0B4
:105880009FFA0746D9F80C0090F80880407A20B9B2
:105890001FA20221484600F013FE22A324A20821E1
:1058A000484600F00DFE2AA20821484600F008FEF6
:1058B000002429E001231A462146404602F08AFAD4
:1058C0008246002301222146404602F083FA054623
:1058D000032801D2064600E003260121204602F0FB
:1058E000C1FA0346AE4201D229A200E027A229480C
:1058F00050F8261050F82A008DE8070026A208214B
:10590000484600F0DDFD641CBC42D3D3BDE8FE8FE9
:105910004C6F6773206172652068616C74656421E7
:105920000D0A00006D6F64756C655F6E616D6500DA
:10593000252D343073207C2063757272656E74205F
:105940007C206275696C742D696E200D0A00000060
:105950002D2D2D2D2D2D2D2D2D2D2D2D2D2D2D2D77
:105960002D2D2D2D2D2D2D2D2D2D2D2D2D2D2D2D67
:105970002D2D2D2D2D2D2D2D2D2D2D2D2D2D2D2D57
:105980002D2D2D2D2D2D2D2D2D2D0D0A000000003E
:105990002A0000008C010020252D343073207C204B
:1059A000252D3773207C20257325730D0A000000F8
:1059B0004FF40041002002F0BBF908B1FBF7C0FC36
:1059C00001F00EF808B1FBF7BBFC002001F02AF84B
:1059D00001F020F80028FBD0FBF7D0FC08B1FBF762
:1059E000AFFC1E4A01211E48FBF7B6FC08B1FBF7CD
:1059F000A7FCFFF7F1FBFFF71FFC19489C30FCF7F1
:105A0000D9FB08B1FBF79CFC15482030FBF782FD61
:105A100008B1FBF795FC12485030FBF77BFD08B14D
:105A2000FBF78EFC0F484168032906D30088032149
:105A300001EB00400CA102F021F9FCF737FC08B1A2
:105A4000FBF77EFCFCF74AF90028FBD10448001D57
:105A500000F01EFF01F0E8FF20BFF3E7D55C000077
:105A6000E8A50000F4020020555342442048494470
:105A700020636F6D706F73697465206578616D70F8
:105A80006C6520737461727465642E002DE9FF4F9C
:105A90004FF0000881B014468B468146C246C0F8DC
:105AA00000802578002D71D0FAF7F6FC0090006890
:105AB000405DC00702D004F801AB84E0D9F80000D3
:105AC0008300401CC9F800004BF8034015E026781D
:105AD000002E78D0B8F1000F05D1222E10D0272E3D
