:020000040000FA
:1000000040A9012049030000510300003102000013
:1000100055030000570300005903000000000000D2
:100020000000000000000000000000005B03000072
:100030005D030000000000005F030000610300009A
:10004000DFB100006303000089B500006303000016
:100050006303000063030000A1AD00006303000020
:1000600063030000630300006303000063030000F8
:1000700063030000EDB100006303000063030000B0
:100080006303000015B20000630300006303000077
:1000900081B30000630300006303000063030000FA
:1000A000630300006303000061B5000075B5000044
:1000B0006303000063030000000000000000000074
:1000C0006303000063030000630300006303000098
:1000D0006303000063030000630300006303000088
:1000E00063030000630300006909000000000000D2
:1000F0000000000063030000000000006303000034
:1001000000000000000000000000000000000000EF
:1001100000000000000000000000000000000000DF
:1001200000000000000000000000000000000000CF
:1001300000000000000000000000000000000000BF
:1001400000000000000000000000000000000000AF
:10015000000000000000000000000000000000009F
:10016000000000000000000000000000000000008F
:10017000000000000000000000000000000000007F
:10018000000000000000000000000000000000006F
:10019000000000000000000000000000000000005F
:1001A000000000000000000000000000000000004F
:1001B000000000000000000000000000000000003F
:1001C000000000000000000000000000000000002F
:1001D000000000000000000000000000000000001F
:1001E000000000000000000000000000000000000F
:1001F00000000000000000000000000000000000FF
:10020000DFF80CD000F056FA00480047DD6401002A
:1002100040A9012000B583B002900091019244F200
:10022000010071466A460CF0D9FE03B000BD000023
:10023000094B1EF0040F1CBFEFF309801847EFF3C2
:1002400008800649064A884201D8904202D88D4665
:100250004FF000001847000055AF000040A90120F2
:100260004089012030B4044654E8000F0D4644E8AC
:100270000053002BF8D1156030BC704730B40446F1
:1002800054E8000F40EA010544E80053002BF7D181
:10029000156030BC704730B4044654E8000F00EAE3
:1002A000010544E80053002BF7D1156030BC7047BE
:1002B00030B4044654E8000F80EA010544E80053D6
:1002C000002BF7D1156030BC704730B4044654E8B9
:1002D000000F00EB010544E80053002BF7D1156037
:1002E00030BC704730B4044654E8000FA0EB010561
:1002F00044E80053002BF7D1156030BC704770B450
:1003000004464FF0000054E8006F0D68AE4207BF8E
:1003100044E80023012044E800630E60002B1CBF6A
:100320000020F0E770BC704730B4044654E8000F7A
:1003300088422CBF451A054644E80053002BF5D1EE
:10034000156030BC704700000648804706480047EB
:10035000FEE7FEE7FEE7FEE7FEE7FEE7FEE7FEE775
:10036000FEE7FEE785B30000010200002DE9F05F23
:100370000546002092469B46884606468146402414
:100380001BE0284641464746224600F034F95346D2
:100390005A46C01A914110D311461846224600F021
:1003A00016F82D1A67EB01084F462246012000215E
:1003B00000F00DF817EB00094E41201EA4F10104D6
:1003C000DFDC484631462A464346BDE8F09F202AF6
:1003D00004DB203A00FA02F1002070479140C2F19C
:1003E000200320FA03F319439040704700487047F8
:1003F000245202002DE9FE439946154688460746D9
:1004000001AC022942D3002D40D000200290A8F177
:1004100001004FF0FF36009022E000FB057201FB67
:10042000057011464A469047002805DC54F826001E
:10043000304444F8260013E060682A4600FB05714A
:1004400054F8040C00FB057007E00B7890F800C02E
:1004500001F801CB00F8013B521E002AF5D176428B
:1004600054F8040C61688842D7DC4B462A4638466B
:10047000FFF7C0FF54F8040C4B46A8EB0001401CEA
:1004800000FB05702A46491EFFF7B4FFBDE8FE8356
:1004900010B5441A0346944209D28418114403E06B
:1004A00011F8013D04F8013D521EF9D210BD40EA99
:1004B0000104A40703D009E010C9121F10C3042AC5
:1004C000FAD203E011F8014B03F8014B521EF9D2A6
:1004D00010BDD2B201E000F8012B491EFBD27047DB
:1004E0000022F6E710B513460A4604461946FFF700
:1004F000F0FF204610BD421C10F8011B0029FBD163
:10050000801A704710B5002200E0521C835C8C5C9E
:10051000A34201D1002BF8D1D8B2E1B2401A10BDEC
:1005200030B504460020034600E05B1C934203D232
:10053000E05CCD5C401BF8D030BD034611F8012BC8
:1005400000F8012B002AF9D11846704730B505464E
:100550000020034600E05B1C934205D2EC5CC85CC3
:10056000201A01D1002CF6D130BD10B54843044605
:100570000BF0B0F9002805D00021002C02D0641E39
:100580000155FAE710BD2DE9F04791460F46804628
:100590000446002614F8015B2DB1FFF727FF006821
:1005A000405DC007F6D12B2D02D02D2D18D0641E32
:1005B0004A463946204600F02EF827B13968A14254
:1005C00001D1C7F8008071054FF002040BD54042FD
:1005D000002803DD0BF04CF90460A007BDE8F087AC
:1005E00046F48066E4E70028F8DA0BF041F904608D
:1005F0006FF00040F2E7202A04DB203A21FA02F0F3
:100600000021704721FA02F3D040C2F1200291404C
:100610000843194670472DE9F05F824600780027AD
:1006200015468B460AF10104B946302801D09DB128
:1006300013E014F8010B0127782803D0582801D0C3
:1006400045B10AE00DB1102D07D10027102514F88F
:10065000010B02E0082500E00A250026B0460EE066
:1006600005FB080005FB06F1012701EB10461FFA08
:1006700080F8B6F5803F00D3B94614F8010B29463F
:1006800000F02AF80028EBDABBF1000F05D00FB11B
:10069000641E00E05446CBF80040B9F1000F06D0CC
:1006A0000BF0E6F802210160C81EBDE8F09F48EAA1
:1006B0000640FAE7064C074D06E0E06840F001030B
:1006C00094E8070098471034AC42F6D3FFF79CFD3E
:1006D00024C8020044C802003A2800D2303820F072
:1006E0002002412A01D3A2F13700884201D34FF002
:1006F000FF30704770B58C1810F8015B15F00703D8
:1007000001D110F8013B2A1106D110F8012B03E0AA
:1007100010F8016B01F8016B5B1EF9D12B0705D4B2
:100720000023521E0DD401F8013BFAE710F8013BFB
:10073000CB1A921C03E013F8015B01F8015B521E17
:10074000F9D5A142D8D3002070BD00002DE9F043B7
:1007500083B000248DF807409DF834709DF83880F0
:1007600028B1012907D9784803B0BDE8F08377485C
:1007700003B0BDE8F08322B10C9C14B11BB17448E6
:10078000F2E77448F0E7C7F10F035FFA83F90F9BB4
:10079000044616460D462BB9A8F104030C2B16D9B6
:1007A0006D48E1E7012BECD10C9B0DF10702197BA1
:1007B00040460AF0DFF90028F2D10D2FF0D10C9B52
:1007C0001A7B9DF807309A427ED06448CCE718F037
:1007D000010FE5D1C7F10D03DBB2062BE0D8B9F16B
:1007E000030F05D80B9A4FEAC90332FA03F3D7D1A6
:1007F000062FD5D9C9F10F039F42D1D198212046A8
:1008000009F08EFE0022012303206262226310227F
:10081000A3626363A36331462062A01809F07AFEE5
:100820001021204609F07CFE0A9BC4F8805084F811
:10083000847084F8858004F1860513B1402384F820
:10084000863094F98630B8F1000F06D0A8F102087E
:10085000022298FBF2F84FEAC808C7F10E06F6B27A
:10086000334343EA080884F886803A460C9904F139
:10087000870009F04FFEB9F1030F49D8C9F1100004
:1008800028444A460BA900F0B1FC29460022102357
:10089000204608F067FF10220546214604F14C006F
:1008A00009F038FEFDB1A5F57105042D18D801A396
:1008B00053F825F06F070000CB0700006707000022
:1008C000D9080000DD0800000B9A4FEAC90332FA8C
:1008D00003F37FF465AF8DE7214845E7214843E7FF
:1008E0004FF4750040E70A9BB3F57F4F1DD29BB9CB
:1008F0001A461344E36704F15D0084F85C603A46ED
:100900000C9909F007FE012384F86B3000202BE7D7
:1009100004F192000422B5E702220AA904F16C0056
:1009200000F064FC02220A9BE3E7FE23FF2284F826
:100930006C2084F86D3004220AA904F16E0000F0E6
:1009400055FC06220A9BD4E70315F0000015F000C1
:100950000115F0000D15F0000C15F0001115F00058
:100960000515F0000615F0000B490C4B0C4A4FF032
:10097000FF3008601B68BFF35B8F52E8001F42E83E
:1009800000300028F9D1BFF35B8F9942F3D1BFF358
:100990005F8F044A1360704704BA025000BA0250D5
:1009A0003C69012008BA025038B12DE9F0410D46EA
:1009B00051B122B92148BDE8F08121487047C76F85
:1009C0002FB92048BDE8F0811F48BDE8F081BA4248
:1009D000F0D2BF1AC7F11008904528BF90460446D0
:1009E0006C3016463844424609F094FDA6EB0802E6
:1009F00005EB0801204608F097FF144B984212D0EF
:100A000009D9134B9842DFD014D3013398420DD14A
:100A10001048BDE8F0810028CDD0B0F5710F05D1A8
:100A20000748BDE8F0810C48BDE8F0814FF475003F
:100A3000BDE8F0810948BDE8F08100BF0715F0006E
:100A40000015F0000E15F0000515F0000100F10092
:100A50000300F1000615F0001115F0000315F00079
:100A6000C0B138B5059C002C4DD0002944D0049C61
:100A7000002C4AD00446002B42D090F884009942C2
:100A8000C0F10F00C5B20AD006D88818834206D23A
:100A90003B4838BD3B48704798188142F8D31AB19B
:100AA000204608F091FFF0B90223D4F88020236299
:100AB00000232363626204F15C011022204609F0E6
:100AC00029FDC5F110002044294609F029FDD4F87C
:100AD0008030E3B91023049A04F14C01204608F059
:100AE00041FE00283ED0A0F5710004282BD8DFE895
:100AF00000F0312D2F050800002AB8D0224838BD5B
:100B000052B3224838BD224838BD224838BD04F1CE
:100B100086052846102109F003FD284694F8852013
:100B2000049909F0F7FC2A4629461023204608F0CC
:100B300019FE0028D7D1294694F8852004F14C00ED
:100B400009F0E6FCB0B14FF4750038BD124838BD6D
:100B5000124838BD0B4838BD90F88400C0F10F0032
:100B6000C5B2A1E794F88500049BC0F110011844B8
:100B700009F0D6FC059A94F885301370002038BD32
:100B80000815F0000015F0000515F0000615F0003E
:100B90000C15F0000D15F0001115F0000315F00014
:100BA0002DE9F04192B0199C5CB11A9D1DB93348F2
:100BB00012B0BDE8F08140B149B1012930D03048D0
:100BC000F6E7304812B0BDE8F0812F48F0E74FF06B
:100BD0000808189D012D01D92C48E9E7002A3ED0CC
:100BE000064618980E901F460D460123114606A88A
:100BF00020220F931093119509F08CFC4246314648
:100C000001A809F087FC002305931B9B04972BB1D7
:100C1000A34208D91A9A1B1B9A4204D91C48C7E759
:100C20004FF00C08D5E71B9BA34203D21A9AE31A94
:100C30009A42F3D821461A9B1B9A01A808F0A0FFFC
:100C4000144B98420446C7D00BD9134B9842E5D0B9
:100C5000B7D302339842B2D04FF47500A8E70F48DB
:100C6000A6E720B1B0F5750FF6D10D48A0E701A8B1
:100C7000442109F055FC20469AE700BF0A22F00003
:100C80000122F0000522F0000922F0000422F00009
:100C90000622F0000100F5000300F5000322F00039
:100CA0000722F0002DE9F0414024B0B00646884606
:100CB0001746002122460DEB04001D46FFF712FCEB
:100CC0002246002120A8FFF70DFC08A820220021C1
:100CD000FFF708FC002305930493069307930DB1D7
:100CE000369B23B94A4C204630B0BDE8F081379B93
:100CF0001BB1399B0BB1389B23B9464C204630B011
:100D0000BDE8F0813A9B002BF7D0002EF5D0B8F16A
:100D1000000FF2D01FB1012F14D03F4CE3E720ABFE
:100D2000039310AB0193029400973B464246012186
:100D30003046FFF735FF40B3384C3899399809F001
:100D4000EFFBD0E720A9002303910DEB04010191F3
:100D500002940093424601213046FFF721FF00280C
:100D6000EAD120220DEB020020A909F0D3FB04AB4D
:100D70000193389B0093294608A8379B369A08F0C0
:100D8000C3FB00282BD0264CD7E720220DEB020016
:100D900020A909F0BFFB399A0392389A02920021E8
:100DA000379A019201230091424630461946FFF7D7
:100DB000F7FE08B11B4CC0E704AB0193389B0093CE
:100DC000294608A8399B369A08F09EFB044600285D
:100DD000D9D104A910223A9809F09CFB83E704A911
:100DE00010223A9809F094FB08B10F4CA5E7399A04
:100DF0000392389A02920123379A01923046424672
:100E000000931946FFF7CCFE04460028D2D16AE7CA
:100E10000124F0000224F0000324F0000524F00077
:100E20000724F0000624F0000824F00099422DE980
:100E3000F04349D801EB030E4FEA5E0E0127002470
:100E40000025002699423CD202EB830302EB810E7F
:100E50005EF804CB9E4544EA0C04F9D114F1FF344A
:100E600045F1FF356FEA050C0CF0010C8E46BEF122
:100E7000000F4DD0002400EB8E0E043A214652F8AC
:100E8000043F50F8045B9D420CBF0123002301EA9C
:100E9000030103EA040388BF41F001012CBF1C4693
:100EA00043F001048645EAD181B38CF001001EB302
:100EB000BCF1000F24D123461F4000EB4700BDE8E2
:100EC000F0834FF0000CD2E700EB830600EB810EBD
:100ED0000024002556F8047BB64544EA0704F9D1FE
:100EE00014F1FF3845F1FF396FEA090606F00106F3
:100EF00009F001079E46A5E70840BCF1000FDAD0D3
:100F000001231F4000EB4700BDE8F083002CCCD14B
:100F10002EB9BCF1000F09D030460123CCE78CF08C
:100F200001000024BCF1000FC5D0E9E7604664462B
:100F30006746C0E7F0B461B14C1E0519065DF6B90D
:100F4000294634B111F8015D661EBDB93446002C46
:100F5000F8D1002B46D05C1E1519115D002943D134
:100F60002B4634B113F8016D651E86B92C46002C52
:100F7000F8D1081C18BF0120F0BC7047214673B39C
:100F80005C1E1519165D002EEAD0254600E02346AA
:100F90008B4224D3994238BF0220EDD34C1EA54288
:100FA00028BF2546002D22DB4419471E2A44002075
:100FB00004E0002808BF0120A7420BD014F8016903
:100FC00012F80159AE42F4D8F6D2002808BF022028
:100FD000A742F3D1994218BF0020F0BC704701200E
:100FE000F0BC70471846C7E725460021D2E700202D
:100FF000F0E700BF88420BD030B4D31C9B0803F14C
:101000008043013B002540F8235030BC09F084BAEE
:10101000704700BF814202D0920009F07DBA70474C
:101020001AB110B11BB9114870471148704713F03D
:10103000030FF8D18B42F6D30029F4D090420AD0A6
:1010400004D91344984201D20A487047904202D210
:1010500043189A42F8D91144013811F8013D00F8BB
:10106000013F8A42F9D10020704700BF050DF00012
:10107000040DF000060DF00032B128B1F8B55C1E89
:10108000053403D91E48F8BD1E48704711F003040B
:10109000F8D18B42F6D8CE1C26F00307B94201D214
:1010A0001948F8BDFF1A114605461A46384409F09A
:1010B00033FA39462846B70809F032FA012F04D12D
:1010C0002B681BBA2B602046F8BDF60805EB86049A
:1010D0002B4605EB870050F8041C1A6809BA43F840
:1010E000041B12BA9C4240F8042DF4D117F0010001
:1010F000D7D055F826301BBA45F826300020F8BD69
:10110000050DF000040DF000090DF00091B310B4CE
:101110004B1EC418C25C6AB9214633B111F8012DC7
:10112000581E32B90346002BF8D118465DF8044B1F
:101130007047194614064FEAC100F7D4510600F172
:10114000FF33F2D49406A0F10203EED4D106A0F14D
:101150000303EAD41407A0F10403E6D45107A0F175
:101160000503E2D49207A0F10603DED407385DF848
:10117000044B70470846704749B301F18042013A79
:1011800000EB820350F8222022BB1A464B1E1FD0D0
:1011900010B452F8044D34B91946013B13D052F83B
:1011A000044D002CF8D001F1804102395B0150F868
:1011B0002120A3F1200102E0013B8B4203D0002A51
:1011C0004FEA4202F8DA18465DF8044B70470B46C6
:1011D000184670474B01A3F1200102E0013B8B420E
:1011E000F6D0002A4FEA4202F8DAF1E73AB10A44AF
:1011F000013812F8013D00F8013F8A42F9D1002080
:10120000704700BF2DE9F84339B12A4C0D68A5425B
:1012100007D0294C2046BDE8F883284C2046BDE87D
:10122000F88328B10568013CA54203D0244CF1E7BE
:10123000244CEFE7A2B1BBB1089C9CB10C4605461B
:10124000164600F194014FF4377204F150001F4626
:10125000043504F1040909F05BF938B11A4CD9E7F7
:101260001A4CD7E71A4CD5E71A4CD3E7D4F80883C1
:101270003B6808F107084FEAD808984503D9C7F832
:101280000080154CC6E749462846089B324602F0C6
:10129000E1FC044638B9C7F800804FF45371089850
:1012A00009F03EF9B6E73046396809F039F900230C
:1012B0003B60F2E7020000EC3408F0003308F00075
:1012C0003208F0003108F0003A08F0003508F0006C
:1012D0003708F0003608F0003808F0002DE9F04F2C
:1012E00089B042B1ABB1129C092C09D9804F384664
:1012F00009B0BDE8F08F7F4F384609B0BDE8F08FE8
:101300007D4C1D68A54209D07C4F384609B0BDE828
:10131000F08F7B4F384609B0BDE8F08F894606460E
:1013200040F6CC01104614461D4609F0F9F8754BFD
:10133000129A9B5C002B75D0DFF8F481C4F864240A
:10134000134608EBC20238F833305168C4F86034F1
:1013500005290ED804F54C7000F0C2FE074640B1D6
:1013600020464FF40D6109F0DBF8384609B0BDE8BE
:10137000F08F29464FF44C72204609F0CBF8624BAF
:10138000C4F8CC38139B33B3149BB3F1005F01D383
:101390005E4FE5E7D4F8643408EBC3035B68052BC4
:1013A0001ED9D4F86034149AB2EB830FF0D113999C
:1013B00004F5846009F0AEF84EB1B9F1000F08D021
:1013C000514BD4F8CC289A4214D0514F8FE7514F4B
:1013D0008DE7514F8BE7149B002BDBD04F4FBFE7BE
:1013E000149A139904F54C7000F0DEFE07460028AD
:1013F000E2D0B5E7159BBBB1169BBBB1D4F8643402
:10140000092B3FF673AFD4F80C53169A05F1070871
:1014100012684FEAD8084FEA48018A42079107D27A
:101420003F4F64E7324F9BE73E4F60E73E4F5EE73A
:10143000D4F860240692042B04F5846B06D8594630
:1014400004F54C7000F0FEFD074650BB1F356D09DA
:10145000AD0004F58D6A2946504609F061F8D4F8CC
:101460000C23069BB2EB431F20D3069B59469A00E0
:101470005046FFF7BBFE0AEB050B0BEB05070122FD
:101480003D444FF0000E8DE8044049463046CDF80B
:1014900008B0534604950397221D02F019FC50B181
:1014A000224F0799159809F03BF859E759465046DD
:1014B00002F0CCFDDFE708F1030525F003055A46ED
:1014C0002B4641461598FFF7ABFD08B1144FE8E7EE
:1014D00015983A462B4641464044FFF7A1FD074682
:1014E0000028F3D1169B1A46079B136038E700BF0C
:1014F0005308F0005108F000020000EC5808F0001A
:101500005208F00064A80200030000EC5508F00047
:101510005708F0006508F0006608F0005408F00075
:101520006208F0006008F0006108F0006708F00051
:1015300014A802002DE9F04F85B038B1A1B1092AF5
:1015400009D9764F384605B0BDE8F08F744F38465C
:1015500005B0BDE8F08F734D0E68AE4209D0724FF2
:10156000384605B0BDE8F08F704F384605B0BDE88D
:10157000F08F17460E4640F2845200211D46044665
:1015800008F0CCFF6A4BDB5D002B3DD0DFF8C0815B
:10159000C4F8A87408EBC70238F837305168C4F8AB
:1015A000A43405290BD804F55D7000F099FD0746B9
:1015B00028B120464FF4B16108F0B2FFC2E73146CE
:1015C0004FF45D72204608F0A5FF5A4BC4F88435ED
:1015D0000F9BA3B1109BB3F1005F01D3564FB1E74E
:1015E000D4F8A83408EBC3025268052A0ED938F89B
:1015F0003330109AB2EB830F2DD04F4FD9E7109BA9
:10160000002BEDD04D4F9DE7444FD2E7109A0F9934
:1016100004F55D7000F0C8FD07460028C9D1454BB0
:10162000D4F884259A4204D0454F384605B0BDE829
:10163000F08F75B1D4F8A834092B82D8D4F8508330
:101640000E9A08F10706F608B2EB460F09D03D4F97
:1016500078E73D4F76E70F9904F2644008F05AFFAF
:10166000DDE7042B04F264430AD8194604F55D70E3
:10167000029300F0E7FC029B074600287FF462AF6C
:1016800008F11F077F094FEA870804F2AC4909EB0C
:10169000080BD4F8A4240393F90048460BEB080A7E
:1016A000029208F03DFF4146504608F039FFD4F859
:1016B0005013029A039BB1EB421F29D392001946A3
:1016C0005046FFF793FDA8F10408002349F80830BD
:1016D0003246294648460293FFF788FD029B4BF8A5
:1016E0000830A91932465846FFF780FD3A46514660
:1016F000CDF800B04B46201D02F0D0FC134F4FF444
:10170000B161002808BF0027204608F009FF19E74B
:101710000A465046194602F099FCD4E77308F000D7
:101720007108F000010000EC8308F0007208F0007E
:1017300064A80200040000EC8108F0008008F000BA
:101740008208F0007708F0007608F0008408F000C6
:1017500014A802002DE9F04F83B0C8B1C1B1BAB1ED
:10176000B3B10E9CA4B10C9C94B10D9CACB1984645
:1017700017460E46044601F087FB426A33684FEA7B
:10178000C20A534583464FEA820908D2154D00E04C
:10179000154D284603B0BDE8F08F144DF9E7D8F891
:1017A00000309945F2D81FFA89F10E9A0C980D9BDA
:1017B0009847054620B149460E9808F0B1FEE8E783
:1017C0000E9B03F1200200925B46214638460E9A9A
:1017D00001F016FC05460028EDD1C6F800A0C8F8B7
:1017E0000090E8E70123F0000023F0000523F0005B
:1017F00078B172B16BB170B582B0069C5CB1079CD8
:101800004CB1089C3CB11C683F2C07D8114802B071
:1018100070BD11487047104802B070BD079C246825
:101820001F2CF3D92029F1D1154604461E4601F09C
:101830002BFB089B0093224603462946069801F09D
:10184000DFFB0028E8D140223260079A2023136092
:10185000E2E700BF0123F0000023F00068B161B1AE
:101860005AB1F0B583B0089C1CB30A9C0CB3B3F119
:10187000005F04D3104803B0F0BD10487047099CC6
:10188000402CF7D10C683F2CF4D91F46164604466D
:101890000D4601F0F9FA0A9B3A468DE809003146F7
:1018A0002046089B01F018FC0028E4D1099B2B601E
:1018B000E1E7024803B0F0BD0123F0000023F0008F
:1018C0002DE9F041069E079C089F38B132B12EB138
:1018D00027B1402905D00C48BDE8F0810B48BDE890
:1018E000F081B4F1005FF6D8202BF4D11546804684
:1018F00001F0CAFA079706902B4622463146404629
:10190000BDE8F04101F076BD0123F0000023F000B6
:101910002DE9F04782B0BAB1B3B1A8B1A1B10A9C28
:1019200094B10C9C84B10B9C9CB114461E46884615
:10193000074601F03FFFD0F88C2033684FEA820958
:10194000994508D91D4D00E01D4D284602B0BDE85F
:10195000F0871C4DF9E7D8F800309945F2D8436A72
:101960000A981FFA89F122464FEA830A0B9B98478F
:10197000054668B10C984FF4B07108F0D1FD51469E
:10198000384608F0CDFD4946204608F0C9FDDCE7A1
:101990000C9BC8F800A04146009322464B463846AF
:1019A00000F0A2F805460028E4D1C6F800904FF4F4
:1019B000B0710C9808F0B4FDC7E700BF3123F00008
:1019C0003023F0000523F000C8B1C1B1BAB12DE950
:1019D000F04F85B00E9CACB1109C9CB199460D4661
:1019E0000446164601F0E6FE476A2B68BF009F4298
:1019F00080460CD9394B184605B0BDE8F08F384BFE
:101A000018467047364B184605B0BDE8F08F0F9B5F
:101A10009F42EFD1D0F88C2092004A45EAD1109B2A
:101A2000314603F140091846A2F1040BFFF7E2FA30
:101A30003A460E994846FFF7DDFA109B109A53F884
:101A40000B3012680293019223F04043109A1099D0
:101A500043F0804342F80B30136802F1200A23F070
:101A60000703136050464A46434602F0C1F820B3CC
:101A70001C4B109A964205D039461046019308F047
:101A80004FFD019B544505D050463946019308F05F
:101A900047FD019B0E9A4A4505D0394648460193B9
:101AA00008F03EFD019B0193109B4FF4807103F100
:101AB000600008F035FD019BA5E7109B03901A46D6
:101AC000019B1360029B42F80B305146D8F824204A
:101AD0002046FFF79FFA2F60039BCAE73123F000EF
:101AE0003023F0003423F000C0B1B9B1B2B12DE918
:101AF000F04F83B00C9C002C4CD099460D46044608
:101B0000164601F057FE476A2B68BF009F42804689
:101B100007D92B4B184603B0BDE8F08F294B184668
:101B20007047D0F88C30B9EB830FF2D14A4631467A
:101B30000C98FFF75FFAA9F1040A0C9B0C9A53F872
:101B40000AB01B6800932BF0404343F0804342F8F7
:101B50000A3013680C9902F1200923F0070313607F
:101B60004846434608F1280202F042F8B8B1164B45
:101B70000C9A964205D039461046009308F0D0FCE6
:101B8000009B4C45C6D039464846009308F0C8FC37
:101B9000009BBFE70B4B184603B0BDE8F08F0C9BD2
:101BA00001901A46009B136042F80AB04946D8F8E3
:101BB00024202046FFF72EFA2F60019BD8E700BFB4
:101BC0003123F0003023F0003423F0002DE9F047FA
:101BD00051B18BB160B1D0F8B842B4F5107F0FD9D4
:101BE000294C2046BDE8F087284C2046BDE8F08708
:101BF000274C2046BDE8F087264C2046BDE8F087FC
:101C0000D0F8BC520134A542EAD80AB9224CE8E720
:101C10000735EE08B242F9D8174603F104080A4620
:101C20001D4681463B4640464C21FFF725FA0446B7
:101C300050B907F1030AB7424FEA9A0A15D0514644
:101C40004046FFF799FA30B928464FF44C7108F036
:101C500067FC124CC5E749464FF4377205F1500056
:101C600008F058FC0E4B2B60BBE7D9F8BC321F3391
:101C7000C3F34F1309F1D80251464046FFF7D6F897
:101C80000228E1D1DBE700BF9508F0000908F00069
:101C90000208F0000A08F0000B08F0000C08F00041
:101CA000020000EC38B191B110B5114B04689C42B0
:101CB00003D0104810BD1048704752B1D0F80C3313
:101CC00014680733B4EBD30F05D20C4810BD0C4891
:101CD00070470C4810BD0246043208464C2321468A
:101CE000FFF79EF9084B002814BF1846002010BDCE
:101CF000020000ECC208F000C008F000C408F000C8
:101D0000C108F000C308F000C508F00048B17AB37C
:101D10002DE9F843364C0568A54204D03548BDE8A6
:101D2000F883354870472BB305291ED007291CD8E6
:101D30001E46D0F84C331546C26CDF1D042903F152
:101D40001F0304464FEAD7074FEA531302F001027C
:101D500013D0062911D0022907D1316807F10108F3
:101D6000414529D22548BDE8F8832548BDE8F883D8
:101D7000244870472448BDE8F8834FEA4708306894
:101D800008F101084045EDD30429284618BF42F068
:101D900006014FEA830900F8011B4B46221D394614
:101DA000FFF73EF9C0B12846316808F0B9FB0023BF
:101DB00033601648BDE8F883284642F0020200F876
:101DC000012B9B00221D3946FFF72AF90028EAD192
:101DD000C6F80080BDE8F883781C4B4604F14C023D
:101DE00028443946FFF71CF90028DCD1F0E700BF92
:101DF000010000EC1A08F0001408F0001808F000C8
:101E00001508F0001608F0001708F0001B08F00095
:101E10002DE9F04182B0002A52D0002B5FD0089CFF
:101E2000002C52D0099C002C5ED0002861D00029E3
:101E300050D0154604460F4618464FF44C711E46C6
:101E400008F06EFB4FF45D71089808F069FBD5F857
:101E5000BC3209981F334FEA53184FEA880208F141
:101E6000FF3805F1D80106EB880808F053FB002382
:101E7000C8F80430331DD5F8BC22009320463946FB
:101E8000099B00F089FC0446002834D030464FF40A
:101E90004C7108F045FB4FF45D71089808F040FB69
:101EA0000A9B23B140F66811184608F039FB0998DF
:101EB0004FF4537108F034FB204602B0BDE8F081C6
:101EC000124C204602B0BDE8F081114C204602B011
:101ED000BDE8F0810F4C204602B0BDE8F0810E4C09
:101EE000204602B0BDE8F0810C4C204602B0BDE8AF
:101EF000F0810B4CE5E72846099B089A314602F031
:101F000093F904460028C1D1CAE700BF0208F000D7
:101F10000408F0009008F0000308F0000508F00045
:101F20009108F0000B2804D8034B53F8203003B17C
:101F300018470020704700BFE4A70200F0B5BDB00D
:101F400004460E466846F0211F46154608F0E8FA9A
:101F5000042C39D8DFE804F02C321B3803000320AE
:101F60002C4B2D492D4A00908020179039933A919F
:101F70003B9268469847B0F5720F17D02CD9284B82
:101F8000984221D0013398423ED1264C1DE0264B89
:101F90002649274A399301200090402017903A9112
:101FA0003B9268469847B0F5720FE7D1214C0CE0A0
:101FB0001D4B1E491E4A39930020EDE71A4B1B4961
:101FC0001B4A39930220E7E71B4C6846F02108F0D2
:101FD000A7FA20463DB0F0BDB0B92DB939466846E4
:101FE00000F030F80446F0E78EB1019B0BB1134CC2
:101FF000EBE72A463146684608F036FEB0F5720F28
:10200000D4D0BCD80028E9D04FF47504DDE70C4CDF
:10201000DBE700BF5D4B00005D9F00001D49000035
:102020000100F2000202F000094B0000899D00004F
:10203000914800000002F0000102F0000C02F000E4
:102040000302F000F0B1F9B170B5026EBAB91646EC
:1020500001230D4643603146D0F8E83004469847E6
:10206000A0B11A4B984221D0013398421CD0184B92
:10207000B0F5720F0CBF18464FF4750070BD00F13B
:102080006406E5E71248704712487047D4F8EC3010
:10209000204698470028E4D123682066032B05D802
:1020A000DFE803F0100E06120B4870BD0B4870BD40
:1020B0001C22284604F1080108F02CFA002070BD0B
:1020C0002022F6E71422F4E74022F2E70100F200B2
:1020D0000002F0000502F0000202F0000102F00030
:1020E00060B138B50D46F021044608F019FA042D08
:1020F0003DD8DFE805F0202E353C0500204870472C
:10210000204B2149214AC4F8E43003258020256072
:10211000E065C4F8E810C4F8EC2020469847B0F514
:10212000720F2BD025D91A4B984220D001339842F8
:1021300021D1184838BD184B1849194AC4F8E43061
:10214000002540202560E065C4F8E810C4F8EC20C4
:10215000E3E7114B1149124AC4F8E4300225F0E7D5
:102160000D4B0E490E4AC4F8E4300125E9E70D484D
:1021700038BD00B938BD4FF4750038BD0048F9E7E7
:102180000002F0005D4B00005D9F00001D49000053
:102190000100F2000202F000094B0000899D0000DE
:1021A000914800000102F00040B138B522B139B1C8
:1021B00043683BB10F4838BD104638BD0E487047E4
:1021C0000E4838BD08F050FDB0F5720F08D009D99F
:1021D0000B4B98420BD00133984205D1094838BDCA
:1021E000054838BD0028E6D04FF4750038BD0648D4
:1021F00038BD00BF0C02F0000002F0000302F00046
:102200000100F2000202F0000102F00028B1264BAA
:1022100002689A4203D02548704725487047002934
:102220003DD0F0B5D0F8843091B000F18806022B93
:1022300004460D46304669468CBF80274027FFF78D
:1022400001FF08B111B0F0BDD4F884103046FFF79B
:1022500047FF0028F6D13A46211D3046FFF7A4FF7C
:102260000028EFD1D4F88430042B1AD8DFE803F02B
:102270000F03151311001C2269463046FFF794FF27
:102280000028DFD129463046FFF7DCFEDAE71422CA
:10229000F2E74022F0E73022EEE72022ECE70548A3
:1022A00070470548CEE700BF896745230203F00069
:1022B0000003F0000503F0000103F00020B1002A44
:1022C0005FD01BB938487047384870472DE9F04156
:1022D000B0B0042965D8DFE801F021212103030013
:1022E00080250E464FF4BC7198461746044608F008
:1022F00017F9802110A808F013F9A845424639467D
:102300000ED96B463046FFF719FE002836D1042E51
:1023100047D8DFE806F03E38444240004025E0E779
:1023200010A808F0F7F8002330AA1A44E11812F8B0
:10233000802C0133DBB282F05C029D420A71F3D83B
:10234000002330AAD118013311F8802CDBB282F0BF
:1023500036029D4201F8802CF3D804F188073846F4
:102360003146FFF7BDFE48B92A4610A93846FFF7A7
:102370001BFF18B90E4BC4F88460236030B0BDE871
:10238000F0810C4870471C22694610A808F0C2F87A
:10239000C9E71422F8E74022F6E73022F4E72022CA
:1023A000F2E70548EAE700BF0703F0000003F0008A
:1023B000896745230603F0000103F00038B170B4CB
:1023C0000A4C0568A54204D0094870BC704709480A
:1023D000704731B10AB91046F7E7883070BCFFF793
:1023E000E3BE002A044808BF0020EEE789674523C2
:1023F0000203F0000003F0000303F0002DE9F843AE
:1024000048B1044615460E4669B3302A07D9254F10
:102410003846BDE8F883244F3846BDE8F883930773
:10242000F5D1DFF894804FF0FF31D8F8000008F0C4
:1024300097F8074620BB04F184094846402108F07C
:102440006FF8314648462A4608F064F8AD08C4F8EB
:10245000C450D8F8000008F0A5F80028D8D01348D8
:1024600008F002F8D4E70AB1114FD1E7DFF848804D
:102470004FF0FF31D8F8000008F072F8074658B165
:102480000C4804F1840907F0EFFF4846402108F0AA
:1024900047F8002ED5D1D9E7402104F1840008F097
:1024A0003FF8D3E7040CF000250CF000B89C0200C4
:1024B000030CF000A09C020040A901202DE9F04F80
:1024C0009BB040B3002A43D021B98B4658461BB07D
:1024D000BDE8F08FA34E04460F4630684FF0FF3141
:1024E000154608F03DF8E0B99F4BD4F8DC209A423D
:1024F0001BD0DFF884B23946284608F011F8D4F82A
:10250000C4305BBB306808F04DF80028DED0974837
:1025100007F0AAFFDAE7DFF864B258461BB0BDE85F
:10252000F08F934807F0A0FFDEE7D4F8D430DA0745
:102530001DD5D4F8CC3011331CD8D4F8D080B8F1E4
:10254000040F1AD0B8F1080F17D0DFF834B2D2E771
:10255000DFF830B258461BB0BDE8F08F0023C4F856
:10256000C43004F18400402107F0DAFFCAE7DFF845
:1025700018B2C0E7DFF814B2BDE7D4F8C4200C2AC3
:1025800054D804F14003029304F1840A002A50D085
:102590009200514604F1480007F0BCFFD4F8C42073
:1025A000029908F104039B000093920053462046D1
:1025B00008F03AF8834600289DD10346224651464A
:1025C000204608F0D1F98346002894D14FEA880BC1
:1025D00004EB0B09D9F80C301BBA5A1C11BA934200
:1025E000C9F80C1018D9D9F808301BBA5A1C11BAFE
:1025F0009A42C9F808100FD2D9F804301BBA5A1CF5
:1026000011BA9A42C9F8041006D254F828301BBAFD
:1026100001331BBA44F82830002307A819460322C7
:1026200007F0FEFD50B1DFF868B164E7DFF864B190
:1026300061E75046402107F073FFC7E701460823D2
:1026400005AA07A80594CDF818B007F03FFE0028AA
:10265000E9D1494607A807F021FE0028E3D1454A01
:10266000D4F8D4301A4267D017F00F0B4FEA171383
:1026700003930EBF4FF0100B01330393BB450DD0F6
:10268000A7EB0B084146284607F04AFF2B46424677
:10269000294607A807F0DAFC0028C4D104F1300865
:1026A00010224146029807F035FF4046102107F0FE
:1026B00037FF1AAA102342F8583D07A80192CDF817
:1026C00000801946424607F007FD0028ABD1A7EB72
:1026D0000B0028445A46414607F01CFFD4F8D4307A
:1026E000DB0509D442460298039B294602F0F4FE1A
:1026F000834600287FF4FFAE039A09F1100353F8D4
:10270000041C09BA0A4410BA914243F8040D4FF070
:10271000010201D99945F2D15146012322462046B2
:1027200008F022F9834600287FF4E5AED4F8CC30D7
:102730000133C4F8CC30E2E604F130084046102101
:1027400007F0EEFE43464146102207A807F07EFC44
:1027500000287FF468AFD4F8D43043F48033C4F851
:10276000D43081E740A90120CDAB2301B89C020001
:10277000A09C0200000101000E0CF000270CF000EC
:10278000210CF000000CF000080CF000070CF00029
:10279000360CF000040CF00070B4039D4DB1064EF1
:1027A000941EB44202D9054870BC704770BC00F05A
:1027B00009B8034870BC7047FDFF0700310CF000FA
:1027C000300CF000002800F08F80002900F0B78066
:1027D0002DE9F04F87B01D460193D31D1446DA084A
:1027E0000E460292002D00F082808046BDF808104F
:1027F0002846FEF78BFC02282C46054669D903289B
:1028000064D0109BEC1DE40803EB0409029B4846CE
:10281000191B6D4207F084FE05F00705109BCDF8EB
:1028200010904FF0FF0A4AFA05FA651E1D44A3B244
:102830000393A4F1100305934FF6FF735FFA8AFA2E
:102840009946109A03994046B04700287AD12B78D0
:102850000F2C0AEA03032B705FD9109A059BD71837
:10286000019A02EB030B08E0002B56D0B04700287A
:1028700068D12B780AEA03032B70102319465A46B5
:102880003846FEF757FB0346022B3A464FF010013D
:102890004046E9D1DDF81090109901230A781344DD
:1028A00001F8013B89454FEA2323F7D1019B02221E
:1028B0001C4419780A4403F8012B9C424FEA222257
:1028C000F7D10023184607B0BDE8F08F2378032B1B
:1028D00097D81F4B10980299019307F021FE019B96
:1028E000184607B0BDE8F08F1A4B184670471546DA
:1028F000A9B2109AB04703460028EBD16B1E109A7C
:10290000D25C42F0800162071ED0624202F00702F0
:1029100041FA02F21099CA54D3E7A3B21946019AB8
:102920001098FEF707FB022804D0B9F1010988D1FD
:10293000094BCFE7DDF81090002CADD1C1E7074B74
:10294000184670470346C5E7109AD154B9E700BF4F
:10295000320CF000250CF000010CF000140CF0001B
:1029600070B5D9B1B8B1174E0D4604464FF0FF31DE
:10297000306807F0F5FDA0B9134BD4F8DC209A427B
:1029800013D0124C306807F00DFE10B1104807F05C
:102990006BFD204670BD0F4C204670BD0E4C20468E
:1029A00070BD0E4807F060FDE6E7D4F8D430DB07D1
:1029B00001D40B4CE6E720462A46002107F034FFFD
:1029C0000446DFE744A90120CDAB23010E0CF00043
:1029D000B89C0200250CF000200CF000A09C020026
:1029E000080CF000F0B589B090B169B105460C460D
:1029F000E42107F095FD01A9284607F0EDFA58B14A
:102A0000234C204609B0F0BD224C204609B0F0BD51
:102A1000214C204609B0F0BD204E4FF0FF31306808
:102A200007F09EFD80BB01A92246284602F082FDE8
:102A30000746306807F0B6FDD0B9002FE0D1E42199
:102A4000284607F06DFD4FF0FF31306807F088FD34
:102A5000B0B922462846012107F0E6FE0446306858
:102A600007F0A0FD40B90E4B002C18BF1C46C8E76C
:102A70000C4807F0F9FCE0E70A4807F0F5FCF2E73C
:102A8000094807F0F1FCE4E7074807F0EDFCCAE766
:102A9000110CF000200CF000250CF00044A90120DE
:102AA000120CF000B89C0200A09C02002DE9F04F2F
:102AB00099B09C01239F229EDFF87CE24FEA073CFD
:102AC0004CEA874744F00458944648EA0705DEF884
:102AD00000200292029AD207F9D5964ADFF858E20E
:102AE00015604FEA8C1C249A4CF0104C4CEA0235CD
:102AF0004FEA834945EA090CDEF800200392039A65
:102B0000D507F9D58B4A8C4DC2F800C04FEA811821
:102B100048F0104217432A680492049AD207FAD563
:102B2000320342EA8646834A834D176046F00457D3
:102B300027432A680592059AD207FAD544EA090A7A
:102B40007C4A7D4D17604AF0045A4FEA033E4AEA38
:102B50000E0A2A680692069AD707FAD58A040192C5
:102B600042F0104C734A744FC2F800A04CEA040CB7
:102B70004CEA0E0C3A680792079AD207FAD56D4ACA
:102B80006D4FC2F800C046F0104C4CF4807C3A689F
:102B90000892089AD507FAD5664A674FC2F800C06E
:102BA000860146F0045C4CF4821C3A680992099A4A
:102BB000D207FAD55F4ADFF88CB15F4FC2F800C088
:102BC0004FEA003A4AEA0B0B3A680A920A9AD5078A
:102BD000FAD5584F594AC7F800B0259D303742EA18
:102BE000854C3A680B920B9AD207FAD544EA0E0745
:102BF000DFF840B1504ACBF800C047F0245747F403
:102C0000001715680C950C9DED07FAD546F0484C59
:102C1000DFF820B1484ACBF800704CF4821C4CEA33
:102C2000030315680D950D9DED07FAD546EA0A06D2
:102C3000404F414A3B6046F0045646EA0906136895
:102C40000E930E9BDF07FAD544EA8040394B3A4A8F
:102C50001E6040F0045040EA0E0013680F930F9B73
:102C6000DD07FAD5334B364F334A18604EEA070773
:102C700013681093109BD807FAD5019D2D4B2E4E4B
:102C80001F600A03154348EA050747F004503368FC
:102C90001193119BDB07FAD5264B274E186047F09E
:102CA000104733681293129BDB07FAD5214B224E53
:102CB0001F6033681393139BDB07FAD51D4B1E4E21
:102CC000186045F00455254333681493149BDF07BF
:102CD000FAD5259B184844EA0334164B44F01044B7
:102CE0001D6044EA090403681593159BDD07FAD5B6
:102CF00048EA02020F4B10481C6042F0245242F492
:102D0000101203681693169BDC07FAD541F0484170
:102D1000084B09481A6041F4A21141EA080103680E
:102D20001793179BDB07FAD5024B196019B0BDE862
:102D3000F08F00BF80B00250B0B0025000410021BF
:102D400040012829000110212DE9F04F8BB00F46DA
:102D5000159D6C6A8246214638461E469046FEF70F
:102D60000BFA214683461498FEF706FA23462A46B4
:102D700007218146002003F0F1F905F2D442052332
:102D80000721012003F0EAF9002E47D042462346EE
:102D90000721092003F0E2F92346324607210820E3
:102DA00003F0DCF9149B04950293CDF80C908DE8A8
:102DB0008008092308220E210D2003F08DFD054611
:102DC00018B128460BB0BDE8F08F0D2221465046C1
:102DD00003F098F9274A13680893089BD907FAD596
:102DE000254B2649264A196013680993099BDB077E
:102DF000FAD5244B1F680E22214650466FEA17373A
:102E000003F080F9002EDCD104F18044013C5AF833
:102E1000243043EAC7734AF82430D2E7234605F149
:102E2000940207211A2003F099F9234605F29442EF
:102E30000721182003F092F9234605F2B442072136
:102E4000192003F08BF904F18043013B424658F806
:102E50002310079121F0004148F823100920234650
:102E6000072103F07BF907980921C20F082004F01D
:102E70003FF897E7B0B0025080B00250C01F36470D
:102E8000B4B0025088B0025000487047E89C02007D
:102E90002DE9F843089C8146884610461946164697
:102EA000656AFEF769F918B9544C2046BDE8F88305
:102EB000224607462B460721002003F04FF904F273
:102EC000D44205230721012003F048F904F1D4027C
:102ED0002B460721102003F041F904F1F4022B46A0
:102EE0000721112003F03AF904F58A722B460721D5
:102EF000122003F033F904F59A722B4607211320B0
:102F000003F02CF904F5AA722B460721142003F0D4
:102F100025F904F5BA722B460721152003F01EF996
:102F200004F5CA722B460721162003F017F904F5A1
:102F3000DA722B460721172003F010F904F5EA7224
:102F40002B4607210C2003F009F904F5FA722B46F1
:102F500007210D2003F002F904F505722B46072125
:102F60000E2003F0FBF804F50D722B4607210F200D
:102F700003F0F4F804F555722B460721022003F004
:102F8000EDF804F55D722B460721032003F0E6F807
:102F900004F565722B460721042003F0DFF804F5E1
:102FA0006D722B460721052003F0D8F804F57572E1
:102FB0002B4607211C2003F0D1F804F57D722B4627
:102FC00007211D2003F0CAF8072104F274420846C5
:102FD0002B4603F0C3F83946304604F0A1F9044605
:102FE00000287FF462AF48462946102203F08AF891
:102FF00029464046112203F085F856E70223F000E7
:103000002DE9F04F5F6A85B09046BC0000251E4652
:103010008246894622460E9B039541460420FEF7D0
:103020008DFF054658B104EB44010E9807F078FA7D
:10303000039804F01DFE284605B0BDE8F08F4FF060
:10304000FF31224807F08CFA50B904AA1E2342F837
:10305000043D0021306A04F015FF28B11C4DE2E761
:103060001C4807F001FAF0E70E9B0E9A1B680096C9
:1030700023F00703261F1360935923F0404302EB0C
:10308000040B43F08043935159460BEB04003B463D
:1030900000F0B8FA05460028C5D15BF827205BF898
:1030A000063043EAC27341464BF806302246484692
:1030B00007F030FA3A4659465046FDF7ABFF224634
:1030C000514609EB040007F025FAACE748A90120B6
:1030D0003323F000F0A102002DE9F04F91B09846A3
:1030E0001A9D1B9CD5F88C700290BE008A469146B2
:1030F0001946324623460420FEF720FF054660B1FC
:1031000020464FF40C7107F00BFA4FF0FF3004F03B
:10311000AFFD284611B0BDE8F08F2378A11908460D
:10312000721E23F00703304423700390A35C0398BE
:103130000491F9000D4605914031411803F03F0319
:1031400001EB050B43F040030691A35458460421BC
:10315000FEF7C6FF05460028D2D1B9F1000F28D0EE
:10316000C6F18003994526D84A465146039807F090
:10317000D1F906EB090204995846FFF715F8054600
:103180000028BDD104995846FEF75CFF054600288B
:10319000B6D14FF0FF318B4807F0E2F950BBBB01CD
:1031A000002218461146079304F06CFE30B3864D9A
:1031B000A6E73246DFE71A46514603980893A9F17D
:1031C000800507F0A7F9AB198022049907935846A8
:1031D000FEF7EAFF0546002892D1079A089B002ACD
:1031E000D0D00AEB03015846FEF7DEFF0546002863
:1031F000C8D085E7754807F037F9D0E71A9B6833E0
:103200001A46089301213B4602F0A8FF049A1023B6
:103210000121022002F0A2FF6D4A13680B930B9B61
:10322000DB07FAD56B4B6C4A1A60394602220498C8
:1032300002F068FF1A9B0022596A186A04F022FE05
:103240000028B4D103991A9A00920B46334409938B
:103250001846049A3B46FFF71BFE054600287FF4FC
:103260004FAF0398321F50F82710835883EAC17379
:10327000835008EB06013246099807F04BF9B9F183
:10328000000F40F08580059E04215846FEF728FF78
:10329000054600287FF434AF324603995846FEF7BE
:1032A00083FF054600287FF42BAFB9F1000F0AD049
:1032B000059B4A460AEB03015846FEF775FF054693
:1032C00000287FF41DAF58460699FEF7BBFE054661
:1032D00000287FF415AF2A462946079804F0D2FD4E
:1032E000054600287FF463AF089A3B46012102F0AF
:1032F00035FF069A10230121032002F02FFF3B46E1
:1033000022460121042002F029FF3B46049A0121B4
:10331000022002F023FF1A9A01210523084602F534
:103320009D6202F01BFF2A4B1A680C920C9AD6077A
:10333000FAD5284B294A2A491A600B680D930D9B30
:10334000D807FAD51A99274BD1F888101960264A60
:103350001F49BB1C5B0113600B680E930E9BDA07C1
:10336000FAD51C4B214A1A491A600B680F930F9B20
:10337000DB07FAD5174B1E4A1A6039460998052211
:1033800002F0C0FE059A0399029807F0C3F8B7E669
:103390007300C3F180039945099B03EB060007D82E
:1033A000059B4A4651469E18A94607F0B3F86BE7BD
:1033B000059D5146C5F1800207F0ACF8A9EB05095F
:1033C000802661E748A901203323F000F0A1020024
:1033D000B0B0025080B00250000108A1C0010CA1A1
:1033E000B4B0025090B0025094B0025040410C88EA
:1033F000402114302DE9F04F8BB00746149C7A48D9
:10340000D4F824808A464FF0FF31934699464FEA1C
:10341000880507F0A5F878B96E00BA19236A12F882
:10342000012C03F01F03023B52FA03F308D06F4B49
:1034300018460BB0BDE8F08F6D4807F015F8EBE7C4
:103440002946484605F0FCFE0028F0D1159B049063
:103450002B442A4639461598029307F05BF82A4612
:103460004946029807F056F8BBF1000F29D06A00D0
:10347000029BC2F180022B449345039318464CD81B
:10348000049B05935A46B3185146049307F042F83B
:10349000039B2B4407932B4403EB060B5846042154
:1034A0000693FEF71DFE034690B14FF40C7115987C
:1034B000029307F035F84FF0FF3004F0D9FB029B80
:1034C000B6E7029BCDF814B02B4404960393E0E7D3
:1034D000049A15995846FEF767FE03460028E4D182
:1034E000059B4BB11A46049B991B51445846FEF765
:1034F0005BFE03460028D8D158461599FEF7A2FD79
:1035000003460028D1D1024601464FF4007004F072
:10351000B9FC064678B1374BC7E7C6F18002514681
:10352000ABF1800B06F0F6FF0BEB0603059380234F
:103530000493039BADE71023159A0121032002F0A9
:103540000DFE04F1680243463046012102F006FEFA
:10355000294A13680993099BDB07FAD5274B284AA8
:103560001A6041460322159802F0CCFD0022114654
:10357000206A04F087FC06460028CCD1DDF80880DC
:10358000494640462A46FDF735FD291FCDF80880FB
:1035900058F8013003F1004348F80130DDF80C80A1
:1035A0002A4679194046FDF725FD33460194CDF8AA
:1035B0000080029A15990698FFF7C6FB034600287B
:1035C0007FF473AF079C029039462A462046FDF7E8
:1035D00011FD2A462146069805F0FCF9034A029B94
:1035E000002808BF134660E748A901202023F00007
:1035F000F0A102003323F000B0B0025080B00250BE
:1036000000010CA12DE9F04784B09A460C9C81463C
:103610008846104619461646656AFDF7ADFDBAF1B3
:10362000000F04D15C4C204604B0BDE8F0872B4667
:10363000224607210746002002F090FD052304F2F0
:10364000D4420721012002F089FD2B4604F5EA72DD
:1036500007210C2002F082FD2B4604F5FA720721A7
:103660000D2002F07BFD2B4604F5057207210E208C
:1036700002F074FD2B4604F50D7207210F2002F0B5
:103680006DFD2B4604F515720721102002F066FD32
:103690002B4604F51D720721112002F05FFD2B4619
:1036A00004F525720721122002F058FD2B4604F57F
:1036B0002D720721132002F051FD2B4604F53572BF
:1036C0000721142002F04AFD2B4604F53D72072124
:1036D000152002F043FD2B4604F545720721162004
:1036E00002F03CFD2B4604F54D720721172002F035
:1036F00035FD2B4604F214420721082002F02EFD6E
:103700002B4604F234420721092002F027FD04F27F
:1037100054422B4607210B2002F020FD1F4A13685C
:103720000093009BDB07FAD51D4B1E491B4A19600D
:1037300013680193019BD807FAD5194B1A49174A08
:10374000196013680293029BD907FAD5144B1749E5
:10375000124A196013680393039BDB07FAD5104BD9
:10376000134A1A60072104F2744208462B4602F0FD
:10377000F5FC3946304603F067FF044600287FF425
:1037800052AF48462946102202F0BCFC294640466A
:10379000112202F0B7FC46E70223F000B0B002505D
:1037A00080B0025080022A4780122A4F80010021F7
:1037B000806118210048704708A202002DE9F041FD
:1037C000069C0E4615461F462246636A0121804626
:1037D000002002F0C3FC012104F1B40208460523D5
:1037E00002F0BCFC636A04F194020121062002F09D
:1037F000B5FC636A3A460121082002F0AFFC294675
:10380000304600F00DF8044630B905F11F014909B2
:103810004046072202F076FC2046BDE8F08100BF5A
:103820002DE9F04FA9B009230590012218460C4656
:103830000B2704210A260C250793089709960A9559
:1038400002F0B8FB079B9F4A990141EA834141F08E
:10385000924141F4043113680B930B9BDE07FAD5B8
:10386000994A9A4B11600899303243EA81111368E2
:103870000C930C9BDD07FAD5934B924A19600A9B77
:10388000990141EA834141F0924141F404311368C6
:103890000D930D9BD807FAD58B4B8A4A1960136894
:1038A0000E930E9BD907FAD5874B8949854A196033
:1038B00013680F930F9BDB07FAD5834B854A1A6079
:1038C00014F11E0248BF04F13D026FF0404303EBC8
:1038D000621304F1FF38059AB8F1000F52F823B0D3
:1038E000C0F2718108AB029307AB01930AAB04935A
:1038F000DFF8F891734C744DDFF8F4A109AB0027A1
:10390000039308F01F061F2E00F057812BFA06F6CE
:1039100006F0010677403A460299019805F08EF9C3
:103920003A460499039805F089F90A9A49EA02315E
:1039300023681093109BDF07FAD52960089A66491F
:1039400041EA824123681193119BD807FAD5296077
:10395000099A49EA023123681293129BDA07FAD5D1
:103960002960079A5D4B43EA824123681393139BB6
:10397000DB07FAD52960079A0998110341EA8041CB
:1039800041F0045141EA821123681493149BDF072C
:10399000FAD529600A9A08990998120342EA8141E6
:1039A00041F0045141EA801123681593159BD80713
:1039B000FAD529600A9A0798910141EA003141F04D
:1039C000104141F4002123681693169BDA07FAD5BB
:1039D0002960099A910141EA023141F0104141F414
:1039E000402123681793179BDB07FAD529602368CA
:1039F0001893189BDF07FAD5394B2B60079A1103F0
:103A000041EA824141F0104141F0C001236819931D
:103A1000199BD807FAD52960099A0A9908981203C0
:103A200042EA814141F0045141EA801123681A932E
:103A30001A9BDA07FAD52960099A49EA0231236804
:103A40001B931B9BDB07FAD52960099A0A98910101
:103A500041EA804141F0045141F4804123681C93C4
:103A60001C9BDF07FAD52960079A4AEA821123686E
:103A70001D931D9BD807FAD5296023681E931E9BB2
:103A8000DA07FAD5174A2A6023681F931F9BDB07C2
:103A9000FAD5154A2A60099A110341EA824141F098
:103AA000104141EA821123682093209BDF07FAD559
:103AB0002960089A110341EA824141F0104141EA2C
:103AC000821117E0B0B0025080B0025000002249CD
:103AD000400100214051142180400021C0400021BC
:103AE00080300C9000211429C0400C2100011429C1
:103AF00000200C9023682193219BD807FAD52960D8
:103B000023682293229BDA07FAD5344A2A600A9A5C
:103B10000998910141EA003141F0104141F400114E
:103B200023682393239BDB07FAD52960099A4AEA85
:103B3000821123682493249BDF07FAD508F1FF380C
:103B4000B8F1FF3F296037467FF4DBAE0299019858
:103B5000324605F073F832460499039805F06EF882
:103B6000089B1F491F4A41EA831113682593259B2F
:103B7000DC07FAD51C4B1B4A1960089B09981903EE
:103B800041EA804141F0184141F0800113682693D9
:103B9000269BD807FAD5144A144B11600799303286
:103BA00043EA814113682793279BDB07FAD50E4B25
:103BB0000020196029B0BDE8F08F4FEA6812059B1C
:103BC00053F822B0A2E608AB029307AB01930AAB0D
:103BD000049309AB00260393B8E700BF823018C8EE
:103BE00000200229B0B0025080B00250C0210088ED
:103BF0002DE9F04184B007460E460D244FF0FF3109
:103C00001248039490461D4606F0AAFCD0B903AAB8
:103C10000021286A04F036F9044660B9D5F88C1002
:103C20003046FDF7A9FA009502464346314638462C
:103C3000FFF7C4FD0446039804F01AF8204604B0C8
:103C4000BDE8F081024806F00FFCE0E748A901203A
:103C500000A302002DE9F043D0F848431F34640963
:103C60001D464FEA8408D0F84C3385B005EB0806B2
:103C700000F1480706EB080E1F33009701959146A7
:103C800002965A09CDF80CE00346903003F0DCFDB3
:103C9000074640B128464FF4537106F041FC3846C0
:103CA00005B0BDE8F08330462146FDF765FA08B956
:103CB000064FEFE721462846FDF75EFA0028F7D0C9
:103CC000424648462946FDF791FAE3E72008F1000D
:103CD0002DE9F04FA3B068B1002900F08D80D2F833
:103CE00008431F346509132D09D9524C204623B0CF
:103CF000BDE8F08F504C204623B0BDE8F08FD2F8DD
:103D000004431F346409122CEFD80A93309B0990A6
:103D1000A4004FEA850A1F1907EB0A0303EB040B03
:103D20000493AAF1040390460BEB0302FB180793DC
:103D30002C9BCDF814A0089106920026AA46002BD1
:103D400061D1002E5DD1059A2D99384606F0E2FB2F
:103D5000049A029208F5DC73309A01920093CDF830
:103D60000CB008F5B8735246394608F14C0003F020
:103D70006BFD04460028B9D1D8F8080300F11F09EB
:103D80004FEA59192023B9F1130F1493ADD8D8F87D
:103D900004531F356B09122B0C93A6D8274B93F9AC
:103DA00002301D46254B93F903300D93234B93F9B5
:103DB00004300E93214B93F905300F931F4B93F969
:103DC000063011931D4B93F9073012931B4B14A926
:103DD00093F90830109304F029F80446002835D0F0
:103DE000174B984282D12C9B002B00F02181652E2D
:103DF00000F01E810136A2E7124C204623B0BDE838
:103E0000F08F114C72E7069B059A00241C6008F5A0
:103E10009271584606F07EFB079B08991C60D8F803
:103E20000823099800975B46FEF7B6FC0446002875
:103E30008ED05BE73108F1009108F00090A80200F5
:103E40001008F1009008F0001108F1004B4608F549
:103E50009272012102F082F90121EBB208469DF82D
:103E600034500B9308F5067205230D95139502F057
:103E700075F90C9B9DF83850309A0B980C950121E0
:103E800002F06CF99DF83C500D980A9A0D954B463E
:103E9000012102F063F94B463A460C98012102F0E9
:103EA0005DF94B4642462846012102F057F99DF83C
:103EB00040100C9B8A019D0445EA020E4EF0274EED
:103EC0005C4B1B681593159BD807F9D55A4B45F0E9
:103ED000AE40C3F800E040F40230564B1B68169326
:103EE000169BDB07F9D5544B1860544B1B6817938E
:103EF000179BDB07F9D5524B1B68D80400F185806E
:103F000042F0245242F408324A4B1B681893189B23
:103F1000DB07F9D545EA0130474B9DF844101A609C
:103F200040F0184040EA8110424B1B681993199BDE
:103F3000DD07F9D5434A404B42EA814218603D4BC8
:103F40001B681A931A9BD807F9D53B4B1A603B4B59
:103F50001B681B931B9BDB07F9D5394B1B68DD04E2
:103F600053D40B9B0D9A9DF848C01B0343EA824330
:103F700043F008434FEA8C1213432E4800681C900C
:103F80001C98C007F9D51398850145EA80452A4851
:103F9000036045F05843274800681D901D98C507E9
:103FA000F9D513984FEA8C452A4342EA003E22484D
:103FB00003604EF044531F4800681E901E98C007CF
:103FC000F9D542EA01321C4942F008420B60194B14
:103FD0001B681F931F9BD807F9D5174B45F0A245C7
:103FE00045F402351A60134B1B682093209BD907B8
:103FF000F9D5114B1D60114B1B682193219BDA07EA
:10400000F9D50F4B1B68DB0403D5149803F030FE81
:10401000E9E665460B9A2E98494602F073F82F9808
:104020002A46494602F06EF8149803F021FE5DE638
:10403000054C5BE6B0B0025080B00250B4B0025004
:1040400088B00250000802511008F100F8B5164679
:104050000732D20874420546FDF7C8F814F0070489
:104060001AD01F367609012E12D006F18046013E85
:1040700029682B46C4F1200705EB860521FA04F0D8
:10408000596801FA07F2024343F8042B9D42F5D127
:104090002B6823FA04F42C60F8BD00BF2DE9F04F23
:1040A000D0F84C6385B02024039416F11F0448BF58
:1040B00006F13E046511132D04DD3D4B184605B095
:1040C000BDE8F08FD0F848B31BF11F0748BF0BF1D4
:1040D0003E077F11122FF0DCB3458846044603A942
:1040E0005846B8BF30469A46914603F09FFE0346B5
:1040F0000028E3D12F4B304A1E6001212B46C2F825
:1041000000B004F5B47202F029F801210846052335
:1041100004F5177202F022F82B46524601211C20AA
:1041200002F01CF82B460E9A0121032002F016F82B
:1041300004F190054B4642460121022002F00EF8A0
:104140002A463B4601211A2004F5127502F006F8B2
:104150002A46052301211B2002F000F83B4604F506
:10416000DA720121142001F0F9FF3B4604F5FE72DA
:104170000121152001F0F2FF3B46224601211620C5
:1041800001F0ECFF3B4604F148020121172001F049
:10419000E5FF3B4604F1D80201210B2001F0DEFFD0
:1041A00003F0E2FB0190039803F062FD019B85E7B9
:1041B0003108F10090B0025098B00250F0B5D0F83C
:1041C0004843D0F84C2385B01F340346640901EB03
:1041D000C40001EB84070D4601911F3203F1480131
:1041E000039000910297520903F5B47103F1900016
:1041F00003F02AFB18B10A4E304605B0F0BD064662
:1042000021463846FCF7B8FF18B1064E304605B0D7
:10421000F0BD21462846FCF7AFFF0028F5D1EBE7BB
:104220003008F0001008F0002DE9F04385B088B3A5
:1042300000294CD09AB3002B4ED01646D0F8BC22A1
:10424000039306F14C0400F5B6731F3201F1040923
:1042500006F10408029400930D4652094946CDF830
:10426000048000F59273074603F0EEFA0446D8B1D5
:1042700000242C604846214634604C2206F04EF95A
:1042800021464046902206F049F9164C204605B0DA
:10429000BDE8F083144C204605B0BDE8F083134C14
:1042A000204605B0BDE8F0834FF43772394605F17A
:1042B000500006F02FF90E4B2B6039464FF4377241
:1042C00006F1940006F026F90A4B3360E3E70A4C46
:1042D000204605B0BDE8F083084C204605B0BDE897
:1042E000F08300BF3008F0000208F0000408F0007E
:1042F000020000EC010000EC0308F0000508F000EB
:10430000F0B5D0F8483303F11F048DB064092022C2
:10431000122C009203D9564E30460DB0F0BD0F4618
:1043200005466946184603F081FD06460028F3D18C
:10433000234605F19002012101F010FF01210846FA
:10434000052305F5127201F009FF23462A460121D3
:10435000022001F003FF234605F1D80201210420C9
:1043600001F0FCFE05F5907223460121052001F0C5
:10437000F5FE404A13680193019BDB07FAD53E4BDB
:104380003E493C4A196013680293029BD807FAD54C
:10439000394B3B49374A196013680393039BD9078C
:1043A000FAD5354B3749334A196013680493049B97
:1043B000DB07FAD5304B344A1A6007F00603022BAC
:1043C00029D005F1480223460121032001F0C6FE51
:1043D000284A13680593059BDC07FAD5264B2B4921
:1043E000244A196013680693069BD807FAD5224B16
:1043F0002749284A196013680793079BD907FAD5FC
:10440000254A264B126812F4805F08BF1E460098AA
:1044100003F02EFC80E704F039FC002826D01D4A6A
:1044200013680893089BDB07FAD51D4B194A1968D6
:1044300013680A930A9BD807FAD51A4A1A4B1160D7
:104440001B680993099B5F40F90708D5343A136844
:104450000B930B9BDB07FAD5074B144A1A602146D6
:1044600005F14800032201F04DFED0E7104ECEE7E3
:104470000F08F000B0B0025080B0025080210888D0
:1044800080411831806108880051183180310C88D2
:1044900000681051B4B0025088B002501008F0000B
:1044A0000CB00250E4B00250DCB00250C030002921
:1044B0004021F00070B582B058B10E46016A07295C
:1044C00004463FD053B9032912D00025284602B034
:1044D00070BD4FF47105284602B070BD416B0029D4
:1044E0005DD1B3F5805F0DD3914D284602B070BD0C
:1044F000016B0029E9D1C36303644364836400F161
:104500003C0610234FF0FF318A488DE80C0006F07E
:1045100027F89DE80C00002847D187480121016059
:10452000206A072847D9854B1D68002DFCD1824B96
:1045300080481D6006F036F80028C6D0804805F097
:1045400093FFC3E7426B22BBB3F5805FCCD213B9B4
:10455000226B002AC8D14FF0FF317648009305F056
:10456000FFFF009B002840F08C80734901220A6005
:10457000216A072940F28F80724D704A1368002B20
:10458000FCD16D4A6B48136006F00CF800289DD0F2
:10459000D4E7012ADBD1B3F5803FA5D2D7E70129C3
:1045A000B0D1B3F5803F9FD2ACE7674805F05CFF20
:1045B0009DE80C00B1E7814011F08F0FB3D0616A24
:1045C0000129B0D8616B0129ADD8A16B0129AAD806
:1045D00020468DE80C0006F093FB0028A3D1A16AC9
:1045E00001299DE80C006CD065D3022963D0216AB3
:1045F000481E06280FD8DFE800F00431040E0E0E26
:10460000040052492068086060684860A0688860BB
:10461000E068C860216A21F00401032936D0A16B4B
:10462000012958D04A484B49026020200B60626B38
:10463000012A3BD04849494A0E60136005F0ACFEA0
:104640003E4A1368002BFCD1236A013B062B12D88B
:10465000DFE803F014061411111114004049D1E7EA
:104660003F4A404B126822601A6862605A68A26032
:1046700008331B68E3600123236354E7334A3A4B52
:10468000F0E7314805F0F0FE009B6EE7626B012A0F
:104690000BD01020CEE78A4012F08F0F3FF46CAFA2
:1046A000626A012A1DD9314D67E740203049314AFD
:1046B0000E601360C2E7304D30482960012101606F
:1046C00095E72F492069086060694860A0698860A3
:1046D000E069C8608BE72B482B49026080200B60A3
:1046E000A5E7626B012A01D9284D46E7A26B012A92
:1046F00001D9274D41E72046009306F001FB05460E
:1047000000287FF43AAFA26A009B012A00F0928051
:10471000C0F08A80022A00F08780226A013A062AC5
:1047200041D8DFE802F0376537404040370000BF2E
:104730000500F10050A9012010B8025010B9025034
:1047400050A602000100F10038A6020040B4025059
:1047500030BD025034BD025030BC025034BC025057
:1047600060B4025064B4025044B402500200F1003C
:1047700028BC02502CBC025038BA025078B4025007
:1047800000B4025028BD02502CBD02500300F100BD
:104790000400F1002F4A2168116061685160A1682E
:1047A0009160E168D1602C482C49012202600B60C5
:1047B000002B2ED1236B0BB9294B1A60294A1368A1
:1047C000002BFCD1236A013B062B3FF6D6AE01A29B
:1047D00052F823F0F54700000D480000F5470000AF
:1047E0007B4500007B4500007B450000F54700004D
:1047F0001D4AD0E7174A1D4B126822601A68626092
:104800005A68A26008331B68E360B6E6164A184B84
:10481000F2E7626B012A17D01649174A0E60102082
:10482000136005F0B9FDC9E714481549026001227B
:104830000A6072E7134A2169116061695160A169D8
:104840009160E169D16068E70F49104A0E6040202D
:104850001360E6E740B402507CB40250BCB402508E
:1048600024B5025010B9025060B4025044B4025052
:1048700064B4025030BC025034BC025038BA02500A
:1048800078B4025000B4025028BC02502CBC025034
:10489000002840D02DE9F04300F11C010EC983B07F
:1048A00006690193836845698469C76893FA83FE42
:1048B000019BC0F808E093FA83F9836AC0F824905A
:1048C00093FA83FCC36AC0F828C036BA2DBA24BA5A
:1048D00009BA12BA93FA83F806614561066B456B13
:1048E0008461C161846BC16B0262436C026CC0F86D
:1048F0002C803FBA36BA2DBA24BA09BA12BA1BBAFA
:10490000C760066345638463C16302644364002037
:1049100003B0BDE8F0834FF47200704728B1574BE5
:10492000826D9A4204D0564870474FF47200704727
:104930002DE9F043016E804600F14805E1B02846BC
:10494000C900042200F09EF8D8F8543020A84FF493
:10495000807200211CBA05F0E1FDD8F85C20E30864
:10496000B3FBF2F402FB1434141B102C98BFA418F0
:1049700020ABA4F1100018442946102280258DF8A0
:10498000805005F0C7FD2A46684608F1640105F02D
:10499000C1FDD8F86030D8F85C200DEB0300D21AC6
:1049A0000DEB050105F0B6FDD8F85C50D8F8603085
:1049B000ED1AADB26946404600F0EAF8AC4251D873
:1049C00008F118000FC893FA83F9D8F82830D8F8FE
:1049D0001050D8F81440D8F80870D8F80C60C8F80F
:1049E000209093FA83FE00BAD8F82C30C8F81C0047
:1049F0002DBAD8F83800C8F8145024BA09BA12BA37
:104A000093FA83FCD8F83050D8F84430C8F81040F6
:104A1000C8F81810D8F83440D8F83C10C8F824204A
:104A2000D8F84020C8F82CE000BA3FBA36BA2DBA00
:104A300024BA09BA12BA1BBAC8F83C000020C8F858
:104A40000C70C8F80860C8F828C0C8F83450C8F816
:104A50003040C8F83810C8F84420C8F8403061B079
:104A6000BDE8F08320AB59196846D8F85C2005F002
:104A700051FD6946404600F08BF8A1E778563412A4
:104A80000200F20070B4EAB1034600EB82051C6834
:104A900024BA43F8044B9D42F9D102F18043013B13
:104AA0009E0050F823402144A14240F8231013D324
:104AB000321D024403681BBA40F8043B9042F9D10E
:104AC00070BC704750F8043C19448B4240F8041CF9
:104AD00088BF6FF00306F3D9311F43184458651C93
:104AE000A5424550A2F102010BD809B9E0E741B156
:104AF00053F8045C6C1CA54201F1FF3143F8044DEE
:104B0000F5D2002AD4D1DBE740B110B50468012CFE
:104B100015D0022C05D05CB10C4810BD4FF47200CA
:104B20007047083020220A4905F0F4FC002010BD2F
:104B300008301422074905F0EDFC204610BD08306E
:104B40002022054905F0E6FC002010BD0100F2001E
:104B50002CA3020018A302004CA3020020B103689A
:104B6000032B04D0074870474FF47200704710B50C
:104B7000402204460449083005F0CCFC034BA365F1
:104B8000002010BD0100F200609C02007856341233
:104B90002DE9F04F00F10803ADF5697D1C468B4609
:104BA0004022002138A824930025FBF79BFC2146D6
:104BB00038A800244022CDE9344505F0ABFCDDE9FE
:104BC0003E78DDE93834DDE93A1240A8CDE91478C1
:104BD000D0E9007842A8D0E9009ACDE91C34CDE9AB
:104BE0002634CDE90034CDE91E12CDE92812CDE9F5
:104BF0000A12DDE9142344A8CDE9169AD0E9009AF7
:104C0000CDE90423DDE9163446A8CDE9189AD0E9A8
:104C1000009ADDE93C56CDE92E34CDE90C34DDE9CE
:104C20001834CDE91A9ACDE92278CDE92C78CDE96E
:104C30000278CDE92056CDE92A56CDE90E56CDE9C8
:104C40003034CDE91034DDE91A340BF1040BCDE931
:104C500006348046DFF8A4A1259013E0DDE90A239D
:104C6000CDE90E23DDE90C23CDE91023DDE9002396
:104C7000CDE90A23DDE90223CDE90001CDE90C23CA
:104C8000CDE902452C9A2D98319C309E2E9D2F9B6C
:104C9000DDF8A8909704910347EA903741EA9041E4
:104CA00087EA010C4FEA804E810341EA92414EEAC5
:104CB000923E8EEA010ED105C70541EA50216340BC
:104CC0008EEA010147EA5227754034918CEA0707C2
:104CD00015402899359718406E400891299DDBF8BA
:104CE000001013956040DDE9344535903496DDE9D8
:104CF000346709BAC8F80810FAE90201269A279B16
:104D0000DDF8ACE0A4197D414FEA827C00194FEA3E
:104D1000031444EA12744CEA930C694184EA0C0CC3
:104D20009D07140145EA920544EA13746C40550648
:104D300045EAD3158CEA050534955D065BF8046CED
:104D400045EAD2156C40089D359436BA45EA090407
:104D5000C8F80C6005EA0909139DF8E902672240CA
:104D600045EA0E04234005EA0E0E801942EA0902C4
:104D700043EA0E03794132923393DDE93445DDE9AC
:104D80000667DDE9322336184F4112196B41DDE920
:104D90000445A4197D41B01847EB0301CDE9322346
:104DA000DDE90E23CDE90423DDE90223CDE92E233D
:104DB000DDE91023CDE90623DDE90A23CDE92A2325
:104DC000DDE90023DDE90C67CDE9282366AB434527
:104DD000CDE930670BF1080BCDE92C45CDE9260173
:104DE0007FF43CAF044BDDF89490CDE90645CDE966
:104DF0000801984618E000BFE8A3020068A302007B
:104E000030463946CDE90A01DDE90201CDE90C0160
:104E1000DDE90801CDE90001DDE90601CDE908235E
:104E2000CDE90201CDE90645D9F87C60D9F8787062
:104E3000D9F81430D9F810102D9D2C98DDF8C0C089
:104E4000FC004FEA463E44EA56724EEAD7444FEA27
:104E5000866E4EEA971E544084EA0E047A034FEAA7
:104E6000C60E42EAD6424EEA5777574087EA961670
:104E700036943796DDE936ABD9E91467DC071A06B4
:104E800042EA112244EA51045440CA071AEB060AC6
:104E900042EA53064FEA016242EA132282EA06021C
:104EA00082EAD3124FEA436343EAD11384EA03044C
:104EB0004BEB070B36944FEA804EAC048303C9E9F1
:104EC00022AB3792F9E9026744EA903243EA95430C
:104ED000AC034EEA953E8EEA030E44EA90435340FB
:104EE0003199139316EB0A062E9A2F9B47EB0B076B
:104EF000DDE936AB8CEA02024B402B40024082EAED
:104F00000C0283EA010C1AEB06034BEB0704EE05D7
:104F1000CDE9043446EA5026139B2699C00540EAA1
:104F200055205840279B34908D0745EA93078EEA19
:104F300006061D010C019807359640EA910045EAE6
:104F4000117544EA13747D404440DDE93467580626
:104F500034924A0642EAD31240EAD1106A406040D5
:104F6000DDE90445CDF8D4C0C9E92045DDE9344583
:104F70003492359028A890E80550F8E902AB36192C
:104F800034466F411AEB0406344640EA0C0601EA47
:104F9000060100EA0C0040EA010042EA0E0103EAC1
:104FA000010302EA0E0243EA02033393DDE904231C
:104FB0003D464BEB05073D4612196B4114461D4615
:104FC0003290DDE91023DDE93201DDE934671219A1
:104FD0006B418019DDE90E457941DDE90267A418CE
:104FE0005D41CDE930671218DDE906674B41CDE937
:104FF0003201DDE90A01CDE92E67DDE90867CDE977
:105000000E01DDE90C01CDE92867DDE90067CDE996
:105010001001C6A98945CDE92C45CDE92A67CDE91E
:1050200026237FF4EDAEDDE91C018018594180464E
:10503000DDE91E238946DDE9080112184B419C4633
:105040009346DDE9202392197B41CDE90023DDE978
:105050000A67DDE9141289197A41CDE90412DDE904
:10506000220100196941DDE9066704460D46DDE9C4
:1050700016018019794142ABC3E90001DDE91867E7
:10508000DDE902013618DDE90C234F41CDE938890D
:10509000DDE91A01E146D846CDE93A89DDE9008922
:1050A00080185941CDE93C8946ABDDE90489C3E963
:1050B000000140ABC3E9004548A844AB4FF420725F
:1050C0000021C3E90067CDE93E8905F027FA38A938
:1050D0002498402205F01EFA0DF5697DBDE8F08F99
:1050E0000B6802E0082B0B6006D8426813424FEAB7
:1050F0004303F7D00020704700487047310CF1009F
:105100000138072815D8DFE800F0100C1408141433
:1051100014048B698B60002070474B698B60002002
:1051200070470B698B6000207047CB688B60002054
:1051300070470148704700BF310CF1002DE9F04F76
:105140008FB080460C46164602A830220021189DDA
:10515000FBF7C8F91A9B03F5C1622A60199A00236C
:105160001360D8F8D43013F4407F0AD02B681B6842
:105170001360002B40F08980924F38460FB0BDE895
:10518000F08F002E00F08E808F49904A0868A16849
:105190001268914240F09B80002840F0988098F877
:1051A000DB3000938A4E8B4DDFF834A2DFF834B247
:1051B0004FF004090023019301270CE09A0700F146
:1051C0009380DB0600F18D80A36803EB43031B048F
:1051D0009B0933602F6001A800F0CAF9019BD90731
:1051E000ECD54FF0FF33CAF80030DBF80030029303
:1051F000794B1A6803925A6804920833774A1B68FD
:105200000593A3681168069103EB43035168079166
:10521000203A1B049B0912683360012700232F608A
:1052200001930AE099075FD4DA065AD4A36803EB26
:1052300043031B049B0933602F6001A800F098F919
:10524000019BD807EED56649664A634B4FF0FF30A5
:105250000860126808921A6809925A680A929A6855
:105260000B92DA680C921A690D92143B1B681A9B18
:10527000302203F5C26002A905F04CF9199A3023D7
:105280001360D8F8D430002722E0D8F8D47017F48F
:10529000007720D02B68544F5A684A4B002A08BF29
:1052A0001F466AE723F00F03C8F8D430002C00F043
:1052B00087800EA9012341F8383DC8F8D860204600
:1052C000FFF70EFF074648B3D8F8D43000E0474F49
:1052D0009B053FF552AF00F02FF938460FB0BDE8FF
:1052E000F08F1023CAF800304FF0FF33CAF80030B7
:1052F000009B082B0ED05B0000933CB1002B55D1D6
:1053000063683BB9D8F8D430394FE1E7D8F8D430E6
:10531000384FDDE7D8F8D430374FD9E72146009829
:10532000FFF7EEFE07460028CED1009B082B00F0C9
:10533000C480042B00F0BF80A3F10203B3FA83F30F
:105340005B092E4A2E4E214D012111600846316025
:105350000F461760A16829602E68A1688E42F8D1B7
:105360001C4ADFF87CE0274F274E174D00214FF0F5
:10537000FF3C1160CEF800C06FF0130EC7F800E0DC
:1053800033602960A368124903EB43031B049B09A4
:105390000B6010600099D8F8D8200B0243EA016333
:1053A00022F07F421343C8F8D830FBE66946204616
:1053B000FFF796FE50B30E4B98420746A0D083E706
:1053C0000C4F85E7330CF00038B1025030B1025079
:1053D000D8B102502CB1025018B1025024B1025081
:1053E00008B1025014B10250340CF000300CF1003E
:1053F000310CF100350CF100320CF100C4B1025057
:1054000040B1025000B102500CB102502146009848
:10541000FFF776FE0028CED1009B082B45D0042B49
:1054200046D0A3F1020CBCFA8CFC4FEA5C1C244869
:10543000244F254A0123036019463B6086461F46D8
:10544000CEF80070A36813601368A0688342F7D198
:1054500000231E4A1E4F1F482B604FF0FF3ECAF824
:1054600000E06FF0130EC7F800E0C0F800C0136052
:10547000A36803EB43031B049B0933602960009A74
:10548000D8F8D810130243EA026321F07F421A438E
:10549000130A03F47F03134323F07F43B9F1010997
:1054A000C8F8D8307FF486AEE1E64FF0030CBEE7D3
:1054B0004FF0020CBBE7022343E7032341E700BFA1
:1054C000C4B1025040B1025030B1025038B1025064
:1054D00000B102500CB10250012BF8B5164607D0AE
:1054E00010221D460C4605F013F848B91048F8BDC7
:1054F0001146102205F00CF80028F7D00020F8BD66
:10550000AF1E314604EB0710102205F001F8002809
:10551000ECD0022DF2DD0025204610342146102269
:10552000013504F0F5FF0028E0D0BD42F4D1E5E7F5
:10553000020CF00000207047084B094A0021196056
:105540001368002BFCD107480749084A03604FF451
:1055500080604FF0FF330860136070472CB1025039
:1055600010B90250C4B1025008BA025008B102503A
:1055700038B504464FF4806004F00EFF054D064830
:105580000649074A00232B6003600B682360136001
:1055900038BD00BFC8B102502CB1025004B1025056
:1055A00008B10250F0B5860146F02457554C8FB033
:1055B00047EA023527680097009FFF07FAD5524C4B
:1055C000524A2560149C4F4F42EA043E85044EEA3D
:1055D00005043A680192019AD207FAD54A4F4C4A1B
:1055E0003C60159C303742EA04343A680292029AD1
:1055F000D207FAD5444A474F1460424C47EA8347E2
:1056000022680392039AD207FAD53F4A3D4C1760AD
:1056100022680492049AD707FAD53B4A3E4F394C88
:10562000176022680592059AD207FAD5364A3B4F91
:10563000344C176022680692069AD707FAD58C0177
:10564000314FDFF8E0E0C7F800E044F0104242F4E8
:105650004022303742EA03333A680792079AD2076A
:10566000FAD5294F274A3B6045F0104E4EF4824E42
:1056700013680893089BDF07FAD5234B284F214A6C
:10568000C3F800E0374313680993099BDB07FAD599
:1056900046EA00361C4B1B4A1F6046F0045646F48F
:1056A000801613680A930A9BDB07FAD5164B154A36
:1056B0001E6013680B930B9BDF07FAD5124B114A40
:1056C0001E6045F0045545F4824513680C930C9B0D
:1056D000DE07FAD541F048430B4E0A4A356043F4E1
:1056E00004231C4313680D930D9BDB07FAD5064B6F
:1056F0000A461C6001460D23002002F055FC0FB045
:10570000F0BD00BFB0B0025080B002504003002195
:10571000800000298020002100D13490C0403490C6
:10572000032008C8C03020292DE9F04F9BB04FEA74
:10573000831C269EDDF894B0A14D01914FEA864E60
:105740004CF010444EEA0636039446EA04082968F1
:1057500005910599CC07FAD59A4C994DC4F800806B
:10576000860146F02457249947F4201747EA013769
:10577000296806910699C907FAD52799914DDFF84E
:1057800040822F6040EA814444F0484444F0C00421
:105790001D032C43D8F8001007910799CF07F9D5BE
:1057A000DFF82092DFF81882C9F800404CEA0507BC
:1057B0004EEA070949F01049D8F8001008910899F5
:1057C000CC07F9D52899DFF8FCA17D4CCAF80090E8
:1057D0004CEA814848F0104848EA050821680991D8
:1057E0000999C907FAD5774CDFF8D491C4F800803D
:1057F00047F0245848F40018D9F800100A910A9983
:10580000CC07F9D54CEA8B49DFF8B8A16C4CCAF843
:10581000008049F0045949EA050921680B910B9968
:10582000C907FAD5DFF8A081DFF898A1644CCAF85F
:10583000009048EA821848EA0E0E21680C910C99F3
:10584000C907FAD55F4CDFF87881C4F800E0D8F8D2
:1058500000100D910D99C907F9D55A4CDFF86C81EC
:10586000DFF85CE1C4F80080DEF800100E910E99BC
:10587000CC07F9D5534CDFF85881DFF844E1C4F880
:105880000080DEF800100F910F99C907F9D5019932
:10589000DFF830E1DFF83C81CEF800804FEA811A72
:1058A0004AF0104444F440240EF1300E44EA0B3B1D
:1058B000DEF8001010911099CC07F9D54FEA804E10
:1058C000404CDFF8FC80C4F800B04EF0104949F4B9
:1058D0008249D8F8001011911199C907F9D59B0494
:1058E00046F04848DFF8DCB0354C02931D4348F0E1
:1058F0000308CBF8009048EA050823681293129B2E
:10590000DB07FAD546EA00302E4C2D4EC4F8008055
:1059100040F0045040F4801033681393139BDC076D
:10592000FAD5284C264E206033681493149BD9076F
:10593000FAD5244E224C30604EF0045646F482468E
:1059400023681593159BDB07FAD5019B1D481C4C5A
:10595000066043F0484141F48041029B41EA0A015C
:105960000B43216816911699C807FAD5110341EA2D
:105970008242144912480B6042F0104242EA0C0283
:1059800003681793179BD907FAD50E4B0C491A6079
:10599000039B1D430B681893189BDA07FAD5094B34
:1059A000074A1D6047F0104747F4301713681993F2
:1059B000199BDB07FAD5034B1F601BB0BDE8F08FC6
:1059C000B0B0025080B002500030009000310C9016
:1059D000C0400C90C03020292DE9F04F99B0964C72
:1059E000269F239E4FEA874E4FEA073C4EEA0C075C
:1059F00047F0104747F0800725680195019DED07A6
:105A0000FAD54FEA801A4AF010498C4C8A4D27602B
:105A100049F4005949EA83432C680294029CE40744
:105A2000FAD5864C844D23604AEA003747F0245467
:105A300044F400142B680393039BDB07FAD57F4BD8
:105A4000DFF8F4811C604EF0104545F40255D8F89B
:105A500000300493049BDB07F9D5784C764B256026
:105A60004FEA811949F01048229C48F4005848EA4E
:105A700084451C680594059CE407FAD549EA013E73
:105A80006E4B6D4C1D604EF0245848F4001823688E
:105A90000693069BDB07FAD54FEA864B4BEA0636A0
:105AA000664B654CC3F8008046F0104646F0800611
:105AB00023680793079BDD07FAD5614B249D5F4C54
:105AC00043EA85455C4B266005431C680894089CA6
:105AD000E407FAD5594B584C1D604BF0104545F47E
