:020000040001F9
:1090000030560020159201001D9201001F920100B0
:10901000219201002392010025920100000000002E
:109020000000000000000000000000002792010086
:1090300029920100000000002B9201002D920100F6
:109040002D9401002F920100759701002F920100CD
:109050002F92010000000000C19201002F92010038
:109060002F9201002F9201002F9201002F920100F8
:109070002F9201002F9201002F9201002F920100E8
:109080002F9201002F9201002F9201002F920100D8
:109090002F9201002F920100859401002F92010070
:1090A0002F9201002F92010000000000000000003C
:1090B0002F9201002F92010000000000000000002C
:1090C00000000000000000000000000000000000A0
:1090D0000000000000000000000000000000000090
:1090E0000000000000000000000000000000000080
:1090F0000000000000000000000000000000000070
:10910000000000000000000000000000000000005F
:10911000000000000000000000000000000000004F
:10912000000000000000000000000000000000003F
:10913000000000000000000000000000000000002F
:10914000000000000000000000000000000000001F
:10915000000000000000000000000000000000000F
:1091600000000000000000000000000000000000FF
:1091700000000000000000000000000000000000EF
:1091800000000000000000000000000000000000DF
:1091900000000000000000000000000000000000CF
:1091A00000000000000000000000000000000000BF
:1091B00000000000000000000000000000000000AF
:1091C000000000000000000000000000000000009F
:1091D000000000000000000000000000000000008F
:1091E000000000000000000000000000000000007F
:1091F000000000000000000000000000000000006F
:10920000DFF80CD000F04AF800480047E5170200EC
:10921000305600200648804706480047FEE7FEE734
:10922000FEE7FEE7FEE7FEE7FEE7FEE7FEE7FEE716
:10923000899401000192010040EA01039B0703D0D9
:1092400009E008C9121F08C0042AFAD203E011F885
:10925000013B00F8013B521EF9D27047D2B201E047
:1092600000F8012B491EFBD270470022F6E710B52B
:1092700013460A4604461946FFF7F0FF204610BD84
:1092800030B504460020034600E05B1C934203D245
:10929000E05CCD5C401BF8D030BD0000064C074DB3
:1092A00006E0E06840F0010394E8070098471034B6
:1092B000AC42F6D3FFF7A8FF883B0200A83B0200B0
:1092C0002DE9F043002589B0DFF84091A8464FF41E
:1092D000807601242F460695304608F057FC38B1B9
:1092E000D9F80403204203D0304608F045FC25435A
:1092F000361D64007F1CB6B2082FEDD34FF4BE7448
:10930000204608F043FC48B1204608F035FC45F003
:10931000004506AA0121002008F01AFC3C4E15F079
:10932000FF0F15D0012700242F420DD009EB840137
:10933000D1F81005D1F81015C0F3042056F82420F8
:10934000C1F3014102B190477F00641C082CEBD3AC
:10935000002D2DDA4FF0FF30CDF808804AE004A947
:10936000204608F081FA002822D04FEA95182046BE
:1093700006F070FB56F820501DB1B8F1030F03D072
:1093800006E0B8F1030F13D102A9204608F074FAE1
:109390004FF0A04000EB8400D0F8000706A9C0F30E
:1093A0000149204608F060FA28B1B9F1020F05D052
:1093B00009B0BDE8F083B9F1030FF9D1B8F1030F9B
:1093C00007D1B9F1020F1FD00221204608F0AFFBF0
:1093D000012715B141462046A847002FE8D06A462C
:1093E0000121002008F0B4FB069900988842DFD0E4
:1093F00006900298049096F84450002768B225F031
:10940000C004401CABD1D3E70321DEE7006000407D
:10941000A433002000F01F02012191404009800088
:1094200000F1E020C0F880127047000070B54FF4E2
:109430008076304608F02AFA114CB50560B1304606
:1094400008F02BFA0120C5F80803607920B9012043
:1094500060712168002088474FF48276304608F01A
:1094600015FA00280AD0304608F017FA0220C5F88D
:1094700008032168BDE870400120084770BD000066
:10948000A027002008F00CBCF0B5A848A74B012687
:1094900000781B1D1A1D4FF0805106280BD11C7837
:1094A000240708D11478C4F30314032C06D0042C29
:1094B00004D0052C02D0062807D011E0B1F82443CF
:1094C0009B4DC4F304242C6002E01C78240707D1D0
:1094D0001478C4F30314032C02D1974D954C6C6798
:1094E000D1F83051D1F84442944FC4F342343C6037
:1094F00006280CD11C78240709D11478C4F303146E
:10950000032C04D18E4C276827F0807727604FF01A
:1095100080470024C7F80C41C7F81041874F3F1F10
:109520003C60062807D11F783F0704D11778C7F39E
:109530000317032F02D0062808D01FE0DFF8FCC174
:1095400003270CF1640CCCF8007007E01F783F078C
:1095500014D11778C7F30317032F0FD1DFF8E4C135
:109560000527CCF80070774F78373E60754F083785
:109570003C600CF1040C3F27CCF80070724F3F6840
:10958000DFF8C8C1CCF800706F4F3F1D3F680CF189
:10959000040CCCF800706C4F08373F680CF1040CD9
:1095A000CCF80070684F0C373F680CF1040CCCF815
:1095B0000070654F10373F680CF1040CCCF8007058
:1095C000614F14373F680CF1040CCCF800705E4F0B
:1095D00018373F68DFF874C10CF1200CCCF800702C
:1095E000594F1C373F680CF1040CCCF80070564FF3
:1095F00020373F680CF1040CCCF80070524F243730
:109600003F680CF1040CCCF800704F4F28373F68CE
:109610000CF1040CCCF800704B4F2C373F680CF168
:10962000040CCCF80070484F30373F68DFF81CC19D
:109630000CF1400CCCF80070434F34373F680CF10C
:10964000040CCCF80070404F38373F680CF1040C24
:10965000CCF800703C4F3C373F680CF1040CCCF860
:109660000070394F40373F680CF1040CCCF80070A3
:10967000DFF8DCC0FB27CCF80070062813D11F7878
:109680003F0710D11778C7F30317032F03D0042F18
:1096900001D0052F07D1D1F85872DFF8B8C007F014
:1096A0004F07CCF800702C480268D20702D06FF048
:1096B00001020260062D08D1D1F83401062804D138
:1096C0002648016841F4806101604FF01021D1F813
:1096D0000002002803DBD1F80402002822DA204A25
:1096E000166020480368002BFCD01523C1F8003217
:1096F0000568002DFCD0C1F8043201680029FCD0B7
:10970000146001680029FCD0BFF34F8F0C48F0387B
:109710000168154A01F4E06111430160BFF34F8F06
:1097200000BFFDE7124911480860F0BDE00F00F0EE
:10973000403501400DF0ADBA00C007403C05004087
:10974000FCED00E0105600400404001020C500406D
:1097500018F50040E40E0040000400403C170040B3
:1097600004E5014000E401400400FA050090D00344
:10977000742800200149024809F0D4BE0C340020AE
:109780000020004002E008C8121F08C1002AFAD1D8
:1097900070477047002001E001C1121F002AFBD171
:1097A000704700000121202803DA8140054801406C
:1097B00003E0402802DA2038814009B101207047D7
:1097C00000207047FC06FFBD0121202803DA8140FC
:1097D0000548014003E0402802DA2038814009B101
:1097E0000120704700207047FC06FFBD082806D204
:1097F00028B1012803D0042801D00120704700209F
:109800007047000038B5044600208DF80000684617
:1098100000F0FAF80A4884420CD0BFF34F8F094891
:109820000168094A01F4E06111430160BFF34F8F01
:1098300000BFFDE79DF8000000F00AF938BD000008
:10984000FECADDBA0CED00E00400FA050EB50021F9
:109850000091CDE901106A4644F20100FFF7D2FF02
:109860000EBD00002DE9F84F2C4C814692466088D1
:109870000E4681424FD800274FF6FF788DF80070D2
:10988000684600F0C1F822786078A188884201DA41
:10989000401C00E00020C0B2904204D19DF80000BE
:1098A00000F0D6F835E065786078884201DA401C2F
:1098B00000E00020607020786278824201D3101AA4
:1098C00002E0081A1044401CE18880B2884200D9A6
:1098D000E0809DF8000000F0BBF8454519D0E06835
:1098E000B9F1000F40F835A00DD066B1618820694C
:1098F000324605FB01004946FFF79EFCE06800EB9D
:10990000C500868002E000EBC50087800020BDE82E
:10991000F88F0420FBE70920F9E70000A8270020C2
:1099200010B50F4C03E0401C00E000202070A06840
:10993000002814D120786178814210D02278618883
:109940002069E36802FB010003EBC20153F83220F7
:10995000898890472078A1888842E6DAE3E710BD3D
:10996000A827002030B5CB0008339DB293074FF0F5
:10997000000401D0072030BD054BDA602A441A618B
:109980005C701C7058809980DC80002030BD000025
:10999000A827002008B500208DF80000684600F0D8
:1099A00033F805498868421C01D0401C88609DF846
:1099B000000000F04DF808BDA827002007480178F6
:1099C0004078064A8842928801D3401A02E0511A30
:1099D0000844401C101A80B270470000A8270020DD
:1099E00008B500208DF80000684600F00DF8054825
:1099F000816809B1491E81609DF8000000F028F8D7
:109A000008BD0000A827002030B5EFF3108172B622
:109A10000D4A9468012324B10370002900D162B675
:109A200030BD93604FF0E023D3F88051074C2540C0
:109A30001560C3F88041D3F8844154605A17C3F8C5
:109A4000842100220270E8E730340020FC06FFBDCC
:109A50000B498A68002A11D000280FD1EFF310803B
:109A600072B60B684FF0E022C2F800314B68C2F8C2
:109A7000043100228A60002800D162B670470000DD
:109A8000303400202DE9F041064608680C46411CA0
:109A90004FF0A0474FF0010506D005FA00F1C7F8D6
:109AA0000815206808F02FF86068411C02D00021DA
:109AB00008F020F83168A069C1F82405607D217D97
:109AC00032680843C2F86C05D4E900123068C0F867
:109AD0000C15C0F81425207D012815D1A068411C63
:109AE00002D0002108F006F8E068411C05D085404E
:109AF000C7F80855E06808F006F8D4E902123068A3
:109B0000C0F80825C0F81015BDE8F0812DE9FC4724
:109B10001D46070090460E460AD036B10024019437
:109B200038780DF10409692804D00720BDE8FC87C6
:109B30000E20FBE70120134601904A46384609F003
:109B4000A0FD0028F2D12B464A4631463846009403
:109B500005F0E8FF0028E9D12B68C3B30025D8F849
:109B600000002C46232819D008DC012818D0202812
:109B70000DD021280DD0222816D10DE0402811D07B
:109B8000412829D0A02829D0A1280DD128E0164DA0
:109B900000E0164D9C1C07E0154DFBE7154DF9E75D
:109BA000154D00E0154D1C462038032806D84A46BE
:109BB0003146384609F09DFD0028B7D123464A4674
:109BC00031463846009507F0AFFC0028AED1019829
:109BD000B04207D00920A9E7094DE4E7094DE2E7C3
:109BE000094DE0E70020A1E70FA8010041CE0100E8
:109BF000ADE201006FCB0100199C0100DDA701005F
:109C000059A7010017E0010009E0010013460A46C8
:109C10000146692008F0B8BE18B112B10BB109F0C5
:109C200068BD0E20704738B568B162B15BB11C46A3
:109C30006B4609F05EFD002804D19DF8001001F08C
:109C40000101217038BD0E2038BD08B551B14BB1AE
:109C500040B1007800F001008DF80000684609F07E
:109C600055FD08BD0E2008BD2DE9F84316465FEAF4
:109C700000082BD056B34BB3164F1C460D46009729
:109C800007F070FC002822D1631C3246294640466A
:109C9000009707F067FC002819D1A31C324629461B
:109CA000404609F026FD002811D1E31C3246294622
:109CB000404609F01EFD002809D101B0231D32469F
:109CC00029464046BDE8F04309F013BD0E20BDE82B
:109CD000F8830000FDF301002DE9F8431D4690468E
:109CE0000E002AD04DB340B3154F0446009707F03D
:109CF00089FC002822D12B4642463146601C009741
:109D000007F080FC002819D12B4642463146A01CA2
:109D100009F0FCFC002811D12B4642463146E01CDC
:109D200009F0F4FC002809D101B02B464246314627
:109D3000201DBDE8F04309F0E9BC0E20BDE8F88322
:109D40003BF401002DE9FC41164607000DD066B139
:109D50005BB11C460D4601AB09F093FC002805D110
:109D6000019840B1216819B105E00E20BDE8FC81E1
:109D700005F024FF2060201D00902346324629462E
:109D8000384607F0E6FCF1E7F8B5144606000D4644
:109D90001ED0ECB100200090631C6A46304609F0EA
:109DA000A8FC002813D123466A462946304609F00C
:109DB000A0FC00280BD1631D6A462946304609F0F5
:109DC00098FC002803D10099A94200D00920F8BDD1
:109DD0000E20F8BD17B581B0144669B164B10020FA
:109DE00000906B4601A8226809F062FC002801D1AE
:109DF0000099216004B010BD0E20FBE728B111B11D
:109E00000078602803D0072070470E207047012992
:109E100001D0092070470020704713460A460146CA
:109E2000602008F0B1BD30B49AB193B188B1048814
:109E3000312C7ED033DC182C76D01BDC132C4FD089
:109E40000FDC102C67D007DC012C43D0022C71D121
:109E50003DE00E2030BC7047112C59D0122C69D136
:109E60003BE0142C3FD0152C43D0162C59D0172C86
:109E700060D141E01E2C51D008DC192C36D01A2CB0
:109E80003DD01B2C41D01C2C54D13BE0202C7DD04C
:109E9000212C52D0222C4AD0302C4BD159E0323CCC
:109EA000262C47D2DFE804F04C4F6A525B676158BA
:109EB0006D5E709090909090909090909090909017
:109EC0009090909090907E8184757B87788A30BC4A
:109ED00000F07EB830BC00F0C7B830BC01F0AEB8BE
:109EE00030BC01F02FBC30BC01F0BCBB30BC00F07A
:109EF000F7BF30BC01F06EBA30BC00F0BDBF30BC63
:109F000001F0E2B830BC01F027BB30BC01F0B2BCBC
:109F100030BC01F09BB930BC01F01CB930BC01F081
:109F200057BC30BC01F0DDB930BC01F00DBA30BC1B
:109F300001E01DE048E001F091BA30BC01F0D4BA74
:109F400030BC03F05BB830BC03F096B930BC03F012
:109F5000C7B830BC03F0C4BA30BC03F051BA30BC4F
:109F600003F02EBB30BC03F00FBC30BC03F0A2BC2E
:109F700030BC03F095BB30BC03F01EB930BC02F01E
:109F8000B5BF30BC03F0EAB930BC00E019E003F023
:109F90004CBC30BC04F042BA30BC04F0BFBB30BC97
:109FA00004F052BB30BC04F0F9BB30BC04F0CCBAB6
:109FB00030BC04F073BB30BC04F0F0B930BC04F02A
:109FC0006CBA30BC01F004BB06200021196041E7E7
:109FD0002DE9FE431D461646040007D036B12DB1CB
:109FE0002088022804D00720BDE8FE830E20FBE76E
:109FF00000270197D5F8008002200DF10409ADF883
:10A0000008004B464246314602A809F020FB0028D2
:10A01000EAD14B4642463146201D09F018FB002884
:10A02000E2D14B464246314604F1080009F06EFB8E
:10A030000028D9D14B464246314604F1100009F0C0
:10A0400006FB0028D0D100974B4642463146E068D7
:10A0500005F096FD0028C7D1A08805F051FE002824
:10A06000C2D101992960BFE72DE9FC411D46164682
:10A07000040007D036B12DB12088012804D0072074
:10A08000BDE8FC810E20FBE7002000902F68012036
:10A09000E846ADF8040043463A46314601A809F0C7
:10A0A000D6FA0028ECD143463A463146201D09F045
:10A0B000CEFA0028E4D143463A46314604F108007E
:10A0C00009F024FB0028DBD100992960D8E77CB592
:10A0D0000C4640B12CB100230193057801A96D2DE8
:10A0E00003D007207CBD0E207CBD0125CDE90035C5
:10A0F00013460A46214605F015FD0028F4D10198C3
:10A10000A04201D009207CBD00207CBD2DE9FF418B
:10A1100082B0984614460F0028D03CB3002000902F
:10A1200025686D206E468DF8040033462A4601A846
:10A1300009F0ECFA002816D133462A46394602A81F
:10A1400009F0B6FA00280ED1029848B95FEA080073
:10A1500039462A46334609D000F05AF8002802D181
:10A1600000982060002006B0BDE8F0810E20FAE7DC
:10A170001CB50C4640B12CB100210191037801A916
:10A180006C2B03D007201CBD0E201CBD01230193A6
:10A19000074B009313460A46214605F0C3FC0028EE
:10A1A000F3D10198A04201D009201CBD00201CBDA4
:10A1B000C1A1010013460A4601466C2008F0E4BB29
:10A1C0002DE9FC411646070020D0FEB1F3B11C4634
:10A1D0000D4601AB09F08DFA002815D1062000903C
:10A1E000631C32462946384609F09DFA00280BD1F7
:10A1F0009DF80420217862F3000121709DF804206D
:10A20000520862F347012170BDE8FC810E20FBE794
:10A210002DE9FC411D4617460E0013D095B188B1BB
:10A22000044600788DF8040001A809F06FFA0028B0
:10A2300006D13B4632460621601C009509F089FA9A
:10A24000BDE8FC810E20FBE72DE9F84316465FEAE6
:10A25000000813D096B18BB1094F1C460D460097EC
:10A2600007F06CF9002807D104F1080332462946AB
:10A270004046009707F062F9BDE8F8830E20FBE73F
:10A28000459D01002DE9FF41164607006ED0002EC6
:10A290006CD0002B6AD0364800901C460D463846DC
:10A2A00007F04CF900285ED132480090231D324659
:10A2B0002946384605F036FC002854D104F108033D
:10A2C00032462946384609F0DCF900284BD104F122
:10A2D0000C0332462946384609F0AAF9002842D133
:10A2E00004F10E0332462946384609F002FA0028E6
:10A2F00039D104F10F00029005200090019002ABCB
:10A3000032462946384605F011FB00282BD104F1CE
:10A31000140332462946384609F0EBF9002822D1C9
:10A3200004F1150332462946384609F0E2F90028BF
:10A3300019D104F1160332462946384609F0D9F9F5
:10A34000002810D103AB32462946384609F0D1F92E
:10A35000002808D19DF80C20E17D62F30301120969
:10A3600062F30411E17504B0BDE8F0810E20FAE754
:10A3700079A30100C1A10100F8B51646070019D064
:10A38000C6B1BBB11C460D4609F0B3F9002810D187
:10A390006B4632462946384609F0ABF9002808D109
:10A3A0009DF80020617862F30001520862F34101D8
:10A3B0006170F8BD0E20F8BD2DE9FC411D46089CDA
:10A3C0000E46070037D036B10020019038780DF1E5
:10A3D0000408722802D00720BDE8FC81012001900A
:10A3E0004AB3106838B335B3286820B31CB320686B
:10A3F00008B31348134600904246384605F092FBD6
:10A400000028E9D10F4800902B4642463146384695
:10A4100005F088FB0028DFD10B4800902346424618
:10A420003146384605F07EFB0028D5D10198B04270
:10A4300003D00920D0E70E20CEE70020CCE70000B3
:10A44000F336020049A2010085A201002DE9FF4177
:10A4500084B0984614460F0019D0C4B10020019072
:10A460002568722001AE8DF8080033462A4602A8FE
:10A4700009F04CF900280BD133462A46394604A886
:10A4800009F016F9002803D1049870B903E00E20F2
:10A4900008B0BDE8F0810748009033462A463946A7
:10A4A000404605F06DFB0028F2D1019820600020A5
:10A4B000EEE700000D370200F8B51F460C46050018
:10A4C00008D02CB10020009028786E46732803D065
:10A4D0000720F8BD0E20F8BD01201346009032463B
:10A4E000284609F006F90028F5D13B4632462146B8
:10A4F000284609F0FEF80028EDD10098A04201D0CE
:10A500000920F8BD0020F8BD13460A460146732015
:10A5100008F03ABA38B50C4640B12CB10021009190
:10A5200003786946742B03D0072038BD0E2038BD50
:10A530000123009313460A46214609F0DAF8002861
:10A54000F5D10098A04201D0092038BD002038BDC7
:10A5500013460A460146742008F016BA7CB50C462C
:10A56000D0B12CB100230193057801A9792D01D038
:10A5700007207CBD0125019572B1156865B1009376
:10A5800013460A46214605F0CDFA0028F1D101987C
:10A59000A04203D009207CBD0E207CBD00207CBDE4
:10A5A0002DE9FF4184B0984614460F0019D0C4B17C
:10A5B000002001902568792001AE8DF8080033460F
:10A5C0002A4602A809F0A2F800280BD133462A46F1
:10A5D000394604A809F06CF8002803D1049870B932
:10A5E00003E00E2008B0BDE8F08107480090334634
:10A5F0002A463946404605F0C3FA0028F2D10198B0
:10A6000020600020EEE700004F36020038B50C460F
:10A61000B8B12CB10021009103786946782B01D0A4
:10A62000072038BD012300935AB113460A4621463C
:10A6300008F0FEFF0028F4D10098A04203D00920C2
:10A6400038BD0E2038BD002038BD13460A460146ED
:10A65000782008F099B92DE9FE431F46DDF82880DF
:10A660000C46050022D0F4B100200290287802AEFA
:10A67000802818D101200290C2B1BFB113463246E2
:10A68000284608F0D5FF00280ED13B463246214629
:10A69000284609F02EF8002806D1387840B1012864
:10A6A00008D0022808D00720BDE8FE830E20FBE773
:10A6B000002202E0062200E01022009201924346AE
:10A6C00032462146284605F031F90028ECD102989F
:10A6D000A04201D00920E7E70020E5E713460A463B
:10A6E0000146802008F050B92DE9FC411C460D467A
:10A6F000060025D02DB100200190307801AF7E28D2
:10A7000002D00720BDE8FC8101200190C2B1BCB19C
:10A710002068A8B113463A46304608F089FF002861
:10A72000F0D10948009023463A462946304605F0C4
:10A73000F9F90028E6D10198A84203D00920E1E701
:10A740000E20DFE70020DDE7D9C7010013460A46E7
:10A7500001467E2008F018B92DE9FE4316465FEA4F
:10A76000000836D0A6B39BB35F891B4800901C46F7
:10A770000D46404606F0E2FE002827D102AB3246E5
:10A780002946404608F0B5FF00281FD19DF8080073
:10A7900004F1080300F00300607032462946404689
:10A7A00008F046FF002811D104F10A033246294679
:10A7B000404608F03DFF002808D12089231DCDE93F
:10A7C000007032462946404605F0B0F8BDE8FE83E9
:10A7D000FFE70E20FAE7000015AA01002DE9F0417D
:10A7E0001546060010D07DB173B11F460C465B1CA8
:10A7F00008F07FFF002808D13B462A462146304614
:10A80000BDE8F04108F075BF0E20BDE8F0812DE9EC
:10A81000F041164607000FD076B16BB11C460D46CD
:10A8200008F067FF002808D1A31C324629463846A5
:10A83000BDE8F04108F0FCBE0E20BDE8F08100004C
:10A840002DE9FC411C460D46060025D02DB1002007
:10A850000190307801AF752802D00720BDE8FC8157
:10A8600001200190C2B1BCB12068A8B113463A469C
:10A87000304608F0DDFE0028F0D10948009023465C
:10A880003A462946304605F04DF90028E6D10198B0
:10A89000A84203D00920E1E70E20DFE70020DDE732
:10A8A000B1A8010013460A460146752008F06CB8AD
:10A8B0002DE9F041164607001FD0F6B1EBB11C465A
:10A8C0000D4608F0B5FE002818D1A31C32462946D3
:10A8D000384608F0ADFE002810D1231D3246294627
:10A8E000384608F0A5FE002808D1A31D32462946A7
:10A8F0003846BDE8F04108F09BBE0E20BDE8F0816F
:10A900002DE9F0411D4617460E001ED0EDB1E0B115
:10A91000044608F09CFE002818D12B463A463146E2
:10A92000A01C08F094FE002810D12B463A46314670
:10A93000201D08F08CFE002808D12B463A463146EF
:10A94000A01DBDE8F04108F082BE0E20BDE8F081F8
:10A950002DE9FC4198460C46050021D02CB100267B
:10A960000196287801AF872802D00720BDE8FC8136
:10A9700001200190A2B113463A46284608F058FE3D
:10A980000028F3D143463A4621462846009605F072
:10A99000C9F80028EAD10198A04203D00920E5E7D0
:10A9A0000E20E3E70020E1E72DE9FF4184B01C46DB
:10A9B000150088461AD0CCB1002001902668872067
:10A9C00001AF8DF808003B463246294602A808F040
:10A9D0009DFE00280BD13B463246294604A808F0CC
:10A9E00067FE002803D1049870B903E00E2008B078
:10A9F000BDE8F081064800903B4632462946404675
:10AA000005F0BEF80028F2D1019820600020EEE7A2
:10AA100061AA010038B5A0B19AB193B11C466B464A
:10AA200008F067FE00280BD19DF80020217862F322
:10AA3000030121709DF80020120962F307112170B3
:10AA400038BD0E2038BD08B541B13BB130B10078FA
:10AA50008DF80000684608F059FE08BD0E2008BDBC
:10AA6000F8B51D4617460E0012D08DB180B10446D0
:10AA700008480090204606F093FD002809D101B057
:10AA80002B463A463146601CBDE8F04008F03EBE19
:10AA90000E20F8BD47AA01002DE9FF5F1D460E9F5D
:10AAA000144688465FEA000942D0B8F1000F07D08B
:10AAB000002602A8CDE9010699F800006F2803D00E
:10AAC000072004B0BDE8F09F012002907CB320680D
:10AAD00068B3006858B355B3286840B3006830B312
:10AAE0003B4641464846019A08F003FE0028E8D15B
:10AAF00003AB41464846019A08F0FBFD0028E0D12F
:10AB00009DF80C00012815D0266003AB414648464D
:10AB1000019A08F0EEFD0028D3D19DF80C00012821
:10AB20001ED02E60029941452DD00920C9E7FFE7CC
:10AB30000E20C6E7D4F800A00024DFF850B00BE0E8
:10AB40000AEB8403CDF800B041464846019A04F070
:10AB5000E9FF0028B5D1641C3878A042F0D8D4E7CA
:10AB60002D6800240A4E0AE005EB84030096414656
:10AB70004846019A04F0D6FF0028A2D1641C387818
:10AB8000A042F1D8CEE700209BE70000DDB801002D
:10AB90005DB9010013460A4601466F2007F0F4BE76
:10ABA0002DE9FC4190460C46050022D02CB1002630
:10ABB0000196287801AF7D2802D00720BDE8FC81EE
:10ABC00001200190ABB10D4800903A46284604F0B0
:10ABD000A9FF0028F2D143463A462146284600966E
:10ABE00004F0A0FF0028E9D10198A04203D0092079
:10ABF000E4E70E20E2E70020E0E700003136020043
:10AC00002DE9FF4383B01E000E9C154689461BD0DC
:10AC1000D4B100200190D4F800807D2001AF8DF8E0
:10AC200008003B464246314602A808F06FFD002866
:10AC30000BD13B464246314603A808F039FD0028B7
:10AC400003D10398C0B903E00E2007B0BDE8F0833C
:10AC50000B4800903B4642463146284604F090FFA0
:10AC60000028F2D145B1009729884346324648462C
:10AC700008F06FFD0028E8D1019820600020E4E78B
:10AC80004F3602002DE9FC419846089E0C4605000F
:10AC900027D02CB100200190287801AF7C2802D069
:10ACA0000720BDE8FC8101200190D2B1B8F1000F6E
:10ACB00017D0B6B10D48134600903A46284604F026
:10ACC00031FF0028EDD143463A46214628460096FA
:10ACD00006F03FFD0028E4D10198A04203D00920EE
:10ACE000DFE70E20DDE70020DBE7000015AA01000A
:10ACF00013460A4601467C2007F046BEF8B51F46BB
:10AD00000C46050020D02CB10020009028786E461B
:10AD1000762801D00720F8BD01200090A2B19FB194
:10AD200013463246284608F083FC0028F3D13B4600
:10AD300032462146284608F0DCFC0028EBD100987A
:10AD4000A04203D00920F8BD0E20F8BD0020F8BDB8
:10AD500013460A460146762007F016BE2DE9FC414F
:10AD60001646070020D0FEB1F3B1102000901C461B
:10AD70000D46384608F0D7FC002813D101AB324607
:10AD80002946384608F0B5FC00280BD19DF8041080
:10AD9000227C4B0861F3000263F34102890861F3EE
:10ADA00087022274BDE8FC810E20FBE72DE9FC41FF
:10ADB0001D4617460E001DD0E5B1D8B113460A4610
:10ADC00004461021009508F0C4FC002810D1207C16
:10ADD0002B46C0F34002014662F35F0120F00300FE
:10ADE00001438DF804103A46314601A808F08EFC64
:10ADF000BDE8FC810E20FBE7F8B51646070014D02D
:10AE00009EB193B10A4800901C460D46384606F0A4
:10AE100095FB002808D10748009004F11203324640
:10AE20002946384606F08AFBF8BD0E20F8BD000022
:10AE30005DAD0100B9BC0100F8B51D4617460E0016
:10AE400013D095B188B1044609480090204606F019
:10AE5000A7FB002808D1074800902B463A46314608
:10AE600004F1120006F09CFBF8BD0E20F8BD0000B6
:10AE7000ADAD0100E7BC01002DE9FC411D461646C1
:10AE8000040007D036B12DB12088172804D0072040
:10AE9000BDE8FC810E20FBE7002000902F68172002
:10AEA000E846ADF8040043463A46314601A808F0AA
:10AEB000CEFB0028ECD143463A463146201D08F02F
:10AEC000C6FB0028E4D143463A46314604F1080067
:10AED00008F01CFC0028DBD100992960D8E70000AD
:10AEE0002DE9FF411D461646040008D03EB135B19C
:10AEF0002088192805D0072004B0BDE8F0810E2075
:10AF0000FAE7002001902F6819200DF10408ADF830
:10AF1000080043463A46314602A808F098FB00284C
:10AF2000EAD143463A463146201D08F090FB0028FE
:10AF3000E2D11648009043463A46314604F10800F3
:10AF400006F024FB0028D7D1A08803A904F09AFEBC
:10AF500018B1002001992960CEE70D4800900398B0
:10AF60000C49C0EB001000EB800001EB8000434671
:10AF70003A463146001D06F009FB0028BCD1A088E6
:10AF800004F062FE0028E5D0B6E7000099AF0100AA
:10AF90005DC601003C3400202DE9FC411D46904671
:10AFA0000E0045D0F5B3E8B341780446C1F3800202
:10AFB000084662F39F00C1F3C00140EAC1008DF86A
:10AFC000040042463146204608F0A0FB00282DD15F
:10AFD0002B464246314601A808F098FB002825D1AF
:10AFE000144F2B4642463146A01C009706F0D8FA73
:10AFF00000281BD12B4642463146E01C009706F044
:10B00000CFFA002812D10C4F2B4642463146201D64
:10B01000009706F0C5FA002808D12B464246314673
:10B02000601D00E004E0009706F0BAFABDE8FC817C
:10B030000E20FBE799C601000FC501002DE9FE4374
:10B040001D461646040007D036B12DB120881228BF
:10B0500004D00720BDE8FE830E20FBE7002001900E
:10B060002F6812200DF10408ADF8080043463A4657
:10B07000314602A808F0EBFA0028EBD143463A46E5
:10B080003146201D08F0E3FA0028E3D1064800907D
:10B0900043463A46314604F1080006F077FA0028A4
:10B0A000D8D101992960D5E7ADB0010038B531B1EB
:10B0B0002BB120B1034C009406F072FA38BD0E207B
:10B0C00038BD000001A901002DE9FE431D461646CA
:10B0D000040007D036B12DB120881A2804D00720EB
:10B0E000BDE8FE830E20FBE7002001902F681A20A8
:10B0F0000DF10408ADF8080043463A46314602A86F
:10B1000008F0A5FA0028EBD143463A463146201D07
:10B1100008F09DFA0028E3D10648009043463A46DD
:10B12000314604F1080006F031FA0028D8D101991F
:10B130002960D5E739B1010038B531B12BB120B163
:10B14000034C009406F02CFA38BD0E2038BD0000E8
:10B1500061AA01002DE9FE431D461646040007D0F2
:10B1600036B12DB12088102804D00720BDE8FE8319
:10B170000E20FBE7002001902F6810200DF104083D
:10B18000ADF8080043463A46314602A808F05FFA97
:10B190000028EBD143463A463146201D08F057FAC5
:10B1A0000028E3D10648009043463A46314604F170
:10B1B000080006F0EBF90028D8D101992960D5E7FD
:10B1C000C5B10100F8B51D4617460E0038D0BDB315
:10B1D000B0B304461B480090204606F0E1F9002871
:10B1E0002FD12B463A463146E01D08F08FFA002851
:10B1F00027D1154800902B463A46314604F1080005
:10B2000006F0CEF900281CD12B463A46314604F10F
:10B21000100008F07BFA002813D12B463A4631463D
:10B2200004F1180008F013FA00280AD101B02B46E7
:10B230003A46314604F12000BDE8F04008F007BA74
:10B240000E20F8BD11A2010001A901002DE9FF4166
:10B250001D461646040008D03EB135B1208811289D
:10B2600005D0072004B0BDE8F0810E20FAE70020E9
:10B2700001902F6811200DF10408ADF80800434635
:10B280003A46314602A808F0E2F90028EAD14346DE
:10B290003A463146201D08F0DAF90028E2D10C4880
:10B2A000009043463A46314604F1080006F06EF934
:10B2B0000028D7D1A08803A904F0E4FC20B9A08815
:10B2C00004F0C2FC0028CDD1019900202960C9E713
:10B2D000D5B2010019B113B108B108F017BA0E20A8
:10B2E00070472DE9FC411D461646040007D036B1D3
:10B2F0002DB12088162804D00720BDE8FC810E203F
:10B30000FBE7002000902F681620E846ADF8040007
:10B3100043463A46314601A808F099F90028ECD195
:10B3200043463A463146201D08F091F90028E4D101
:10B3300043463A46314604F1080008F0E7F9002890
:10B34000DBD100992960D8E72DE9FF411D4616465B
:10B35000040008D03EB135B12088182805D0072058
:10B3600004B0BDE8F0810E20FAE7002001902F68BC
:10B3700018200DF10408ADF8080043463A4631465E
:10B3800002A808F064F90028EAD1207B434600F0C7
:10B3900001008DF80C003A463146201D08F057F99F
:10B3A0000028DDD10A48009043463A463146A0685D
:10B3B00004F0E6FB0028D3D143463A46314603A8C1
:10B3C00008F0A4F90028CBD101992960C8E7000052
:10B3D0009FBC01002DE9FF411D46904604000AD0A4
:10B3E000B8F1000F07D035B12088152805D0072007
:10B3F00004B0BDE8F0810E20FAE7002001902F682C
:10B40000152001AEADF8080033463A46414602A881
:10B4100008F01DF90028EBD1A07B334600F00100B5
:10B420008DF80C003A464146201D08F010F900281E
:10B43000DED13B464246062104F10800009608F0A2
:10B4400088F90028D4D133463A46414603A808F08B
:10B450005DF90028CCD101992960C9E72DE9FC41AB
:10B460001D461646040007D036B12DB1208822288B
:10B4700004D00720BDE8FC810E20FBE700200090EF
:10B480002F682220E846ADF8040043463A4631468C
:10B4900001A808F0DCF80028ECD143463A463146D2
:10B4A000201D08F0D4F80028E4D143463A4631463E
:10B4B00004F1080008F02AF90028DBD143463A4697
:10B4C000314604F1090008F021F90028D2D14346A1
:10B4D0003A46314604F10A0008F018F90028C9D1AB
:10B4E00000992960C6E700002DE9FE431D46164677
:10B4F000040007D036B12DB12088212804D00720C0
:10B50000BDE8FE830E20FBE7002001902F6821207C
:10B510000DF10408ADF8080043463A46314602A84A
:10B5200008F095F80028EBD143463A463146201DF5
:10B5300008F08DF80028E3D10648009043463A46CB
:10B54000314604F1080006F021F80028D8D101990D
:10B550002960D5E75DBF01002DE9FC411D46164677
:10B56000040007D036B12DB120881C2804D0072054
:10B57000BDE8FC810E20FBE7002000902F681C2016
:10B58000E846ADF8040043463A46314601A808F0C3
:10B590005EF80028ECD143463A463146201D08F0BB
:10B5A00056F80028E4D143463A46314604F10800F3
:10B5B00008F0ACF80028DBD143463A46314604F1A6
:10B5C000090008F0A3F80028D2D100992960CFE73C
:10B5D0002DE9FE431D461646040007D036B12DB1B5
:10B5E0002088202804D00720BDE8FE830E20FBE73A
:10B5F000002001902F6820200DF10408ADF808000C
:10B6000043463A46314602A808F021F80028EBD11B
:10B6100043463A463146201D08F019F80028E3D188
:10B6200043463A46314604F1080008F06FF8002816
:10B63000DAD10B48009043463A46314604F10A00FD
:10B6400005F0A4FF0028CFD143463A46314604F125
:10B65000090008F05BF80028C6D101992960C3E70A
:10B6600011A201002DE9FE431D461646040007D035
:10B6700036B12DB12088142804D00720BDE8FE8300
:10B680000E20FBE7002001902F6814200DF1040824
:10B69000ADF8080043463A46314602A807F0D7FF06
:10B6A0000028EBD143463A463146201D07F0CFFF34
:10B6B0000028E3D10648009043463A46314604F15B
:10B6C000080005F063FF0028D8D101992960D5E76B
:10B6D000D5B601002DE9FC411D4617460E002AD0C3
:10B6E0004DB340B30446807CC0F34002014662F390
:10B6F0005F01C0F3800041EA80008DF804000F482C
:10B7000000903A463146204605F04AFF002810D105
:10B710000B4800902B463A46314604F1080005F0EC
:10B720003FFF002805D12B463A46314601A807F0D5
:10B73000EDFFBDE8FC810E20FBE7000011A2010037
:10B74000E7BC01002DE9FE431D461646040007D064
:10B7500036B12DB12088132804D00720BDE8FE8320
:10B760000E20FBE7002001902F6813200DF1040844
:10B77000ADF8080043463A46314602A807F067FF95
:10B780000028EBD143463A463146201D07F05FFFC3
:10B790000028E3D10648009043463A46314604F17A
:10B7A000080005F0F3FE0028D8D101992960D5E7FB
:10B7B000B5B7010038B531B12BB120B1034C0094BD
:10B7C00005F0EEFE38BD0E2038BD000095C8010022
:10B7D0002DE9FE431D461646040007D036B12DB1B3
:10B7E00020881E2804D00720BDE8FE830E20FBE73A
:10B7F000002001902F681E200DF10408ADF808000C
:10B8000043463A46314602A807F021FF0028EBD113
:10B8100043463A463146201D07F019FF0028E3D180
:10B820000648009043463A46314604F1080005F0C8
:10B83000ADFE0028D8D101992960D5E741B80100B3
:10B8400038B5A9B1A3B198B10078C0F3400504465A
:10B8500065F35F04C0F3800544EA8504C0F3C000CB
:10B8600044EAC0008DF80000684607F04FFF38BD7D
:10B870000E2038BD2DE9FC411D461646040007D0B8
:10B8800036B12DB120881B2804D00720BDE8FC81EB
:10B890000E20FBE7002000902F681B20E846ADF843
:10B8A000040043463A46314601A807F0D0FE00287E
:10B8B000ECD143463A463146201D07F0C8FE002829
:10B8C000E4D143463A46314604F1080007F01EFF32
:10B8D0000028DBD100992960D8E70000F8B51646AA
:10B8E000070014D09EB193B10A4800901C460D4643
:10B8F000384605F023FE002808D10748009004F1DF
:10B90000100332462946384605F018FEF8BD0E20D1
:10B91000F8BD00005DB90100C1A10100F8B51D46E8
:10B9200017460E0013D095B188B10446094800901F
:10B93000204605F035FE002808D1074800902B4628
:10B940003A46314604F1100005F02AFEF8BD0E20FB
:10B95000F8BD000073B9010011A2010038B530B183
:10B960002AB123B11024009407F0DDFE38BD0E206B
:10B9700038BD08B541B13BB130B1009313460A461A
:10B98000102107F0E6FE08BD0E2008BDF8B51F46E1
:10B990000C46050020D02CB10020009028786E467F
:10B9A000822801D00720F8BD01200090A2B19FB1EC
:10B9B00013463246284607F03BFE0028F3D13B46AB
:10B9C00032462146284607F094FE0028EBD1009825
:10B9D000A04203D00920F8BD0E20F8BD0020F8BD1C
:10B9E00013460A460146822006F0CEBF2DE9FC41EF
:10B9F0001F460C46050023D02CB10020019028786A
:10BA000001AE812802D00720BDE8FC810120019011
:10BA1000B2B1AFB113463246284607F009FE0028FE
:10BA2000F2D1094800903B4632462146284604F0B0
:10BA300079F80028E8D10198A04203D00920E3E773
:10BA40000E20E1E70020DFE759BA010013460A465D
:10BA50000146812006F098BF38B530B12AB123B134
:10BA60002024009407F05FFE38BD0E2038BD000092
:10BA70002DE9FC479846DDF828900C46050031D0AA
:10BA80002CB100260196287801AF832802D0072028
:10BA9000BDE8FC870120019022B35FEA090021D0B4
:10BAA000B8F1000F1ED013463A46284607F0C0FDF5
:10BAB0000028EDD10D48009043463A4621462846DD
:10BAC00004F030F80028E3D14B463A462146284698
:10BAD000009604F027F80028DAD10198A04203D09C
:10BAE0000920D5E70E20D3E70020D1E789BC01006B
:10BAF0002DE9FF4184B01C46150088461AD0CCB110
:10BB0000002001902668832001AF8DF808003B4695
:10BB10003246294602A807F0F9FD00280BD13B4622
:10BB20003246294604A807F0C3FD002803D1049833
:10BB300070B903E00E2008B0BDE8F081064800901F
:10BB40003B4632462946404604F01AF80028F2D116
:10BB5000019820600020EEE73DBC01002DE9FC4784
:10BB60009846DDF828900C46050031D02CB1002015
:10BB70000190287801AE842802D00720BDE8FC8718
:10BB80000120019022B3B8F1000F21D05FEA090033
:10BB90001ED013463246284607F04AFD0028EDD154
:10BBA0000D4F4346324621462846009703F0BAFF20
:10BBB0000028E3D14B46324621462846009703F041
:10BBC000B1FF0028DAD10198A04203D00920D5E7BF
:10BBD0000E20D3E70020D1E7E9BB010013460A4657
:10BBE0000146842006F0D0BE2DE9F84316465FEAF0
:10BBF00000081ED0EEB1E3B10F4800901C460D4680
:10BC0000404605F09BFC002811D11027E31D324669
:10BC100029464046009707F086FD002807D104F129
:10BC20001703324629464046009707F07CFDBDE8E1
:10BC3000F8830E20FBE70000C1A10100F8B51D4606
:10BC400017460E001BD0D5B1C8B104460D48009070
:10BC5000204605F0A5FC002810D13B4632461021B5
:10BC6000E01D009507F075FD002807D13B463246E0
:10BC7000102104F11700009507F06BFDF8BD0E20B0
:10BC8000F8BD000011A2010038B530B12AB123B1CE
:10BC90004024009407F047FD38BD0E2038BD08B59C
:10BCA00041B13BB130B1009313460A46402107F041
:10BCB00050FD08BD0E2008BDF8B51646070010D08F
:10BCC0007EB173B11C460D4607F0B2FC002807D1C7
:10BCD00008200090A31C32462946384607F023FD71
:10BCE000F8BD0E20F8BDF8B51D4617460E000ED063
:10BCF0006DB160B1044607F0AAFC002806D13B46AE
:10BD000032460821A01C009507F023FDF8BD0E2047
:10BD1000F8BD2DE9F041164607000FD076B16BB1A2
:10BD20001C460D4607F084FC002808D1A31C3246AF
:10BD300029463846BDE8F04107F07ABC0E20BDE840
:10BD4000F0812DE9F0411D4617460E000ED06DB171
:10BD500060B1044607F07BFC002808D12B463A4628
:10BD60003146A01CBDE8F04107F071BC0E20BDE8D3
:10BD7000F081F8B51646070010D07EB173B11C46AD
:10BD80000D4607F055FC002807D105200090A31CA4
:10BD900032462946384607F0C6FCF8BD0E20F8BDED
:10BDA000F8B51D4617460E000ED06DB160B10446C1
:10BDB00007F04DFC002806D13B4632460521A01C69
:10BDC000009507F0C6FCF8BD0E20F8BDF8B5164684
:10BDD000070018D0BEB1B3B11C460D4607F028FCD1
:10BDE00000280FD1A31C32462946384607F020FC14
:10BDF000002807D105480090231D324629463846C1
:10BE000003F090FEF8BD0E20F8BD000031360200B0
:10BE1000F8B51D4617460E0017D0B5B1A8B10446B7
:10BE200007F015FC00280FD12B463A463146A01CDE
:10BE300007F00DFC002807D1054800902B463A4634
:10BE40003146606803F09CFEF8BD0E20F8BD00008E
:10BE50004F3602001CB538B132B12BB10624009424
:10BE6000019403F063FD1CBD0E201CBD08B549B153
:10BE700043B138B1009313460A460068062103F027
:10BE800087FD08BD0E2008BDF8B51646070013D083
:10BE900096B18BB11C460D4607F0CAFB00280AD1AB
:10BEA0006B4632462946384607F023FC002802D16B
:10BEB0009DF80010A170F8BD0E20F8BD2DE9FC41E1
:10BEC0001C460D46060025D02DB10020019030788B
:10BED00001AF8F2802D00720BDE8FC81012001902E
:10BEE000C2B1BCB12068A8B113463A46304607F04B
:10BEF0009FFB0028F0D10948009023463A46294686
:10BF0000304603F00FFE0028E6D10198A84203D086
:10BF10000920E1E70E20DFE70020DDE72DBF01006B
:10BF200013460A4601468F2006F02EBD2DE9F0414A
:10BF3000164607000FD076B16BB11C460D4607F0D0
:10BF4000D8FB002808D1631C324629463846BDE894
:10BF5000F04107F0CEBB0E20BDE8F0812DE9F041A5
:10BF60001D4617460E000ED06DB160B1044607F0B5
:10BF7000CDFB002808D12B463A463146601CBDE86F
:10BF8000F04107F0C3BB0E20BDE8F0817CB50C4644
:10BF9000E0B12CB100230193057801A97B2D01D0DC
:10BFA00007207CBD0125019582B1156875B1022C71
:10BFB0000AD3009313460A46214603F0B3FD002836
:10BFC000EFD10198A04203D009207CBD0E207CBD9A
:10BFD00000207CBD2DE9FF4184B0984614460F0037
:10BFE00019D0C4B10020019025687B2001AE8DF8E6
:10BFF000080033462A4602A807F088FB00280BD128
:10C0000033462A46394604A807F052FB002803D1DC
:10C01000049870B903E00E2008B0BDE8F08107482D
:10C02000009033462A463946404603F0A9FD0028D1
:10C03000F2D1019820600020EEE7000001A9010084
:10C040001CB50C46C8B12CB100210191037801A99F
:10C050007A2B01D007201CBD012301936AB1094B43
:10C06000009313460A46214603F05CFD0028F2D1F6
:10C070000198A04203D009201CBD0E201CBD002049
:10C080001CBD0000B1A8010013460A4601467A20F3
:10C0900006F07ABC1CB50C4640B12CB100210191D0
:10C0A000037801A9712B03D007201CBD0E201CBDF5
:10C0B00001230193074B009313460A46214603F0E0
:10C0C00031FD0028F3D10198A04201D009201CBD08
:10C0D00000201CBD45C101002DE9FF4184B09846F8
:10C0E00014460F0019D0C4B10020019025687120BA
:10C0F00001AE8DF8080033462A4602A807F006FB79
:10C1000000280BD133462A46394604A807F0D0FA56
:10C11000002803D1049870B903E00E2008B0BDE8F0
:10C12000F0810748009033462A463946404603F0DE
:10C1300027FD0028F2D1019820600020EEE70000E2
:10C1400099C10100F8B51646070020D0FEB1F3B141
:10C150001C460D4607F0CDFA002817D1631C324665
:10C160002946384607F0C5FA00280FD1A31C3246ED
:10C170002946384607F05CFA002807D105480090A8
:10C18000231D32462946384603F0CCFCF8BD0E206C
:10C19000F8BD00005DB90100F8B51D4617460E0058
:10C1A0001FD0F5B1E8B1044607F0B0FA002817D166
:10C1B0002B463A463146601C07F0A8FA00280FD1FA
:10C1C0002B463A463146A01C07F041FA002807D119
:10C1D000054800902B463A463146606803F0D0FC93
:10C1E000F8BD0E20F8BD000073B901001CB50C4667
:10C1F00040B12CB100210191037801A9702B03D02B
:10C2000007201CBD0E201CBD01230193074B00938A
:10C2100013460A46214603F085FC0028F3D1019815
:10C22000A04201D009201CBD00201CBD45C1010059
:10C2300013460A460146702006F0A6BB2DE9FC47CE
:10C240001D460A9C0E46070035D046B14FF0000847
:10C25000CDF8048038780DF104098E2802D007202B
:10C26000BDE8FC87012001902AB325B3286810B3EC
:10C2700013464A46384607F0DBF90028F0D12B4632
:10C280004A4631463846CDF8008003F04BFC002882
:10C29000E6D184B1206870B123464A46314638461B
:10C2A000CDF8008003F03EFC0028D9D10198B042BF
:10C2B00003D00920D4E70E20D2E70020D0E7000009
:10C2C0002DE9FF4784B09946DDF840A014465FEAA7
:10C2D00001081AD0CCB10020019026688E2001AF51
:10C2E0008DF808003B463246414602A807F00EFA98
:10C2F00000280BD13B463246414604A807F0D8F946
:10C30000002803D10498B8B903E00E2008B0BDE8B6
:10C31000F0870B4D3B46324641464846009503F0B8
:10C320002FFC0028F2D13B4632464146504600954C
:10C3300003F026FC0028E9D1019820600020E5E701
:10C340000D3702002DE9F8431F46DDF820800C462A
:10C3500005002CD02CB10020009028786E4688284B
:10C3600002D00720BDE8F88301200090FAB1F7B1B0
:10C370005FEA08001BD013463246284607F058F9FA
:10C380000028EFD13B4632462146284607F0B1F956
:10C390000028E7D1434632462146284607F0A9F94E
:10C3A0000028DFD10098A04203D00920DAE70E2050
:10C3B000D8E70020D6E713460A460146882006F053
:10C3C000E3BA38B50C46B8B12CB10021009103781E
:10C3D0006946892B01D0072038BD012300935AB14B
:10C3E00013460A46214607F023F90028F4D10098A5
:10C3F000A04203D0092038BD0E2038BD002038BD32
:10C4000013460A460146892006F0BEBA2DE9FC47CC
:10C410001E46DDE90A540F465FEA000842D03FB1EC
:10C420000020019098F800000DF10409862802D040
:10C430000720BDE8FC870120019092B38EB385B33D
:10C440007CB3306868B3286858B3206848B3134693
:10C450004A46404607F0ECF80028EAD1134800901D
:10C4600033464A463946404603F05CFB0028E0D19B
:10C470000F4800902B464A463946404603F052FB8F
:10C480000028D6D10B48009023464A4639464046FC
:10C4900003F048FB0028CCD10198B84204D0092011
:10C4A000C7E7FFE70E20C4E70020C2E75DAD01004B
:10C4B0005DB9010035C9010013460A4601468620D0
:10C4C00006F062BA38B500B3FAB1F3B11C466B4658
:10C4D00007F00FF9002817D19DF80020217862F3AA
:10C4E000000121709DF80020520862F34101217083
:10C4F0009DF80020920862F3820121709DF80020CF
:10C50000D20862F3C301217038BD0E2038BD38B5A2
:10C51000A9B1A3B198B10078C0F34005044665F312
:10C520005F04C0F3800544EA8504C0F3C00044EA18
:10C53000C0008DF80000684607F0E8F838BD0E200E
:10C5400038BD0000F8B51646070029D046B33BB306
:10C55000144800901C460D46384603F0E3FA0028C4
:10C560001DD111480090231D32462946384603F05C
:10C57000D9FA002813D10D48009004F1080332467F
:10C580002946384603F0CEFA002808D10848009022
:10C5900004F10C0332462946384603F0C3FAF8BDCD
:10C5A0000E20F8BDF9AD0100DDB8010035C901006C
:10C5B00089BC0100F8B51D4617460E0026D02DB3E4
:10C5C00020B3044612480090206803F0D9FA0028EE
:10C5D0001BD1104800902B463A463146606803F064
:10C5E000CFFA002811D10C4800902B463A4631462C
:10C5F000A06803F0C5FA002807D1084800902B4630
:10C600003A463146E06803F0BBFAF8BD0E20F8BDAB
:10C6100039AE01001DB901004BC901009FBC0100EA
:10C620002DE9F84316465FEA000813D096B18BB1A6
:10C63000094F1C460D46009704F080FF002807D1E3
:10C6400004F11003324629464046009704F076FF75
:10C65000BDE8F8830E20FBE745C501002DE9F8434E
:10C660001D4690460E0012D08DB180B1094F044690
:10C67000009704F095FF002807D12B46424631462B
:10C6800004F11000009704F08BFFBDE8F8830E2042
:10C69000FBE70000B5C5010038B5A9B1A3B198B159
:10C6A0000078C0F34005044665F35F04C0F38005DD
:10C6B00044EA8504C0F3C00044EAC0008DF80000DD
:10C6C000684607F023F838BD0E2038BD2DE9FC4739
:10C6D0009846DDE90A540E4607003FD036B10020E7
:10C6E000019038780DF104097F2802D00720BDE8B9
:10C6F000FC870120019082B3B8F1000F2ED065B302
:10C70000286850B34CB3206838B313464A463846BD
:10C7100006F08EFF0028EAD143464A4631463846A5
:10C7200006F0E7FF0028E2D10E4800902B464A466B
:10C730003146384603F0F6F90028D8D10A4800906F
:10C7400023464A463146384603F0ECF90028CED15C
:10C750000198B04204D00920C9E7FFE70E20C6E7E0
:10C760000020C4E7D9C7010021C601002DE9FF411F
:10C7700084B0984614460F0019D0C4B1002001902F
:10C7800025687F2001AE8DF8080033462A4602A8AE
:10C7900006F0BCFF00280BD133462A46394604A8D0
:10C7A00006F086FF002803D1049870B903E00E203C
:10C7B00008B0BDE8F0810748009033462A46394664
:10C7C000404603F0DDF90028F2D1019820600020F6
:10C7D000EEE700005DC601002DE9FC4116465FEA68
:10C7E000000853D0002E51D0002B4FD01C460D46D0
:10C7F00001AB06F07EFF002846D1631C3246294675
:10C80000404606F076FF00283ED1A31C324629465A
:10C81000404606F06EFF002836D11D4FE31C32461D
:10C8200029464046009704F089FE00282CD1231D9C
:10C83000324629464046009704F080FE002823D166
:10C840009DF80420217862F3000121709DF80420F6
:10C85000520862F3410121709DF80420920862F3AE
:10C86000820121709DF80420D20862F3C301217077
:10C870009DF80420120962F3061121709DF804202E
:10C88000D20962F3C7112170BDE8FC810E20FBE7DD
:10C89000C5C401002DE9FC411D4690460E0045D05F
:10C8A000F5B3E8B304460078C0F34002014662F3F2
:10C8B0005F01C0F3800241EA8201C0F3C00241EA95
:10C8C000C201C0F3021241EA021120F07F000143CD
:10C8D0008DF804104246314601A806F017FF0028E3
:10C8E00022D12B4642463146601C06F00FFF00283D
:10C8F0001AD12B4642463146A01C06F007FF0028FD
:10C9000012D10B4F2B4642463146E01C009704F0F3
:10C9100047FE002808D12B4642463146201D00E044
:10C9200004E0009704F03CFEBDE8FC810E20FBE72C
:10C930000FC5010038B530B12AB123B110240094DD
:10C9400006F0F1FE38BD0E2038BD08B541B13BB14F
:10C9500030B1009313460A46102106F0FAFE08BDD6
:10C960000E2008BD2DE9F8439846089F0C460500A7
:10C9700028D02CB10020009028786E46772802D06D
:10C980000720BDE8F88301200090DFB1134632464E
:10C99000284606F0AEFE0028F3D143463246214633
:10C9A000284606F045FE0028EBD13B46324621469C
:10C9B000284606F09EFE0028E3D10098A04203D04E
:10C9C0000920DEE70E20DCE70020DAE713460A46FE
:10C9D0000146772005F0D8BF2DE9FE4F144606002A
:10C9E00098460D4629D035B10027019730780DF1D2
:10C9F000040A6E2802D00720BDE8FE8F01200190B6
:10CA0000DCB12068C8B10068B8B15246304606F0C3
:10CA100070FE0028F0D102AB52462946304606F09F
:10CA200068FE0028E8D19DF80800012807D027609B
:10CA30000198A84219D00920DEE70E20DCE727681C
:10CA40000024DFF82C900BE007EB840352462946C4
:10CA50003046CDF8009003F065F80028CCD1641C76
:10CA600098F80000A042EFD8E2E70020C4E70000F9
:10CA7000C1A1010013460A4601466E2005F084BF9D
:10CA800038B5A0B19AB193B11C466B4606F031FEA1
:10CA900000280BD19DF80020217862F3000121705D
:10CAA0009DF80020520862F34101217038BD0E202C
:10CAB00038BD38B590B38AB383B31C466B4606F0D5
:10CAC00018FE002829D19DF80020217862F300018A
:10CAD00021709DF80020520862F3410121709DF8F9
:10CAE0000020920862F3820121709DF80020D20894
:10CAF00062F3C30121709DF80020120962F3041152
:10CB000021709DF80020520962F3451121709DF8B3
:10CB10000020920962F38611217038BDFFE70E20D4
:10CB2000FBE738B509B303B3F8B10078C0F34005AB
:10CB3000044665F35F04C0F3800544EA8504C0F34E
:10CB4000C00544EAC504C0F3001544EA0514C0F367
:10CB5000401544EA4514C0F3801044EA80108DF873
:10CB60000000684606F0D2FD38BD0E2038BD18B171
:10CB700012B10BB106F05CBD0E207047F8B51D4632
:10CB800017460E000FD075B168B1044606F05FFD80
:10CB9000002807D1054800902B463A463146A01C94
:10CBA00004F012FDF8BD0E20F8BD00001BF50100D9
:10CBB000F8B51D4617460E000FD075B168B1044692
:10CBC00006F045FD002807D1054800902B463A465F
:10CBD0003146A01C04F0F8FCF8BD0E20F8BD0000A2
:10CBE00035F701002DE9FC411C460D46060025D015
:10CBF0002DB100200190307801AF9F2802D007208E
:10CC0000BDE8FC8101200190C2B1BCB12068A8B18F
:10CC100013463A46304606F00BFD0028F0D109488D
:10CC2000009023463A462946304602F07BFF002812
:10CC3000E6D10198A84203D00920E1E70E20DFE702
:10CC40000020DDE703DA010013460A4601469F2073
:10CC500005F09ABE2DE9FC411D4617460E0032D064
:10CC600085B378B3044619480090204604F0ACFC24
:10CC7000002825D1164800902B463A463146201D03
:10CC800004F0A2FC00281BD160792B4600F00100C3
:10CC90008DF804003A46314601A806F037FD002819
:10CCA0000ED12B463A463146A01D06F0D0FC002896
:10CCB00006D12B463A46314604F1080006F0C7FC7F
:10CCC000BDE8FC81FFE70E20FAE7000035F7010020
:10CCD00023CB01002DE9FC411D46089C0E460700B0
:10CCE00033D036B10020019038780DF10408A02827
:10CCF00002D00720BDE8FC81012001902AB325B3B2
:10CD0000286810B30CB32068F8B113464246384681
:10CD100006F08EFC0028EDD10E4800902B464246CE
:10CD20003146384602F0FEFE0028E3D10A48009062
:10CD3000234642463146384602F0F4FE0028D9D157
:10CD40000198B04203D00920D4E70E20D2E700209A
:10CD5000D0E7000005F7010003DA010013460A4698
:10CD60000146A02005F010BE2DE9FC411C46089F9D
:10CD70000D46060026D035B10020019030780DF127
:10CD80000408A22802D00720BDE8FC810120019000
:10CD9000C2B1BCB12068A8B1A7B113464246304623
:10CDA00006F046FC0028EFD123464246294630468D
:10CDB000009704F0C1F80028E6D10198A84203D0FA
:10CDC0000920E1E70E20DFE70020DDE713460A46F1
:10CDD0000146A22005F0D8BD2DE9FC411F460C46B6
:10CDE000050009D02CB100200190287801AE9D28C3
:10CDF00004D00720BDE8FC810E20FBE7012013468C
:10CE000001903246284606F013FC0028F2D108486B
:10CE100000903B4632462146284602F083FE002819
:10CE2000E8D10198A04201D00920E3E70020E1E722
:10CE300003DA010013460A4601469D2005F0A4BD11
:10CE400018B112B10BB106F054BC0E2070470000AF
:10CE5000F8B51D4617460E000FD075B168B10446EF
:10CE600006F0F5FB002807D1054800902B463A460E
:10CE70003146A01C04F0A8FBF8BD0E20F8BD000050
:10CE800035F701002DE9FC411F460C46050009D08D
:10CE90002CB100200190287801AE9E2804D00720F4
:10CEA000BDE8FC810E20FBE70120134601903246CD
:10CEB000284606F0BDFB0028F2D1084800903B460A
:10CEC00032462146284602F02DFE0028E8D101987E
:10CED000A04201D00920E3E70020E1E703DA0100E6
:10CEE00013460A4601469E2005F04EBD2DE9FE433D
:10CEF0001D461646040007D036B12DB120883428CF
:10CF000004D00720BDE8FE830E20FBE7002001903F
:10CF10002F6834200DF10408ADF8080043463A4666
:10CF2000314602A806F093FB0028EBD143463A466F
:10CF30003146201D06F08BFB0028E3D143463A46DC
:10CF40003146A01D06F083FB0028DBD143463A465C
:10CF5000314604F1080006F07AFB0028D2D10748D8
:10CF6000009043463A46314604F10A0004F022FBA1
:10CF70000028C7D101992960C4E7000081CF0100D2
:10CF80002DE9F8431F4691465FEA010814D09FB18E
:10CF900090B1044606F05BFB00280ED13B464A46A2
:10CFA0004146A01C06F0B2FB002806D1A178012959
:10CFB00005D0104E002515E00E20BDE8F8830E4E7A
:10CFC000F8E7A078012811D005EBC50004EB40007C
:10CFD000001D3B464A464146009604F0F5FA0028FB
:10CFE000EBD16D1C2188A942EBD8E6E705EB4500A3
:10CFF000ECE700007DCB0100B1CB01002DE9FE4341
:10D000001D461646040007D036B12DB120883228BF
:10D0100004D00720BDE8FE830E20FBE7002001902E
:10D020002F6832200DF10408ADF8080043463A4657
:10D03000314602A806F00BFB0028EBD143463A46E6
:10D040003146201D06F003FB0028E3D143463A4653
:10D050003146A01D06F0FBFA0028DBD143463A46D4
:10D06000314604F1080006F0F2FA0028D2D1074850
:10D07000009043463A46314604F10A0004F09AFA19
:10D080000028C7D101992960C4E7000091D00100B0
:10D090002DE9F8431E4691465FEA010809D046B1E2
:10D0A00038B1044606F0D3FA002803D100250B4F0F
:10D0B00010E00E20BDE8F88305EB850004EB40008E
:10D0C00033464A464146801C009704F07DFA00280A
:10D0D000F0D16D1C2188A942EED8EBE755CC0100B8
:10D0E0002DE9FE431D461646040007D036B12DB18A
:10D0F0002088352804D00720BDE8FE830E20FBE7FA
:10D10000002001902F6835200DF10408ADF80800CB
:10D1100043463A46314602A806F099FA0028EBD178
:10D1200043463A463146201D06F091FA0028E3D1E5
:10D1300043463A463146A01D06F089FA0028DBD165
:10D1400043463A46314604F1080006F080FA0028CA
:10D15000D2D10748009043463A46314604F10A00CE
:10D1600004F028FA0028C7D101992960C4E700001B
:10D1700075D10100F8B51D4617460E001AD0CDB185
:10D18000C0B1044606F063FA002812D12B463A4695
:10D190003146A01C06F05BFA00280AD1608821887D
:10D1A000801C484381B23B463246201D009506F064
:10D1B000D0FAF8BD0E20F8BD2DE9FE431D461646F7
:10D1C000040007D036B12DB12088372804D00720BD
:10D1D000BDE8FE830E20FBE7002001902F6837207A
:10D1E0000DF10408ADF8080043463A46314602A85E
:10D1F00006F02DFA0028EBD143463A463146201D71
:10D2000006F025FA0028E3D143463A463146A01DF0
:10D2100006F01DFA0028DBD143463A46314604F1B8
:10D22000080006F014FA0028D2D1074800904346BF
:10D230003A46314604F10A0004F0BCF90028C7D18F
:10D2400001992960C4E700004DD20100F8B51D46E0
:10D2500017460E000ED06DB160B1044606F0F7F926
:10D26000002806D1009521883B463246A01C06F0D6
:10D2700070FAF8BD0E20F8BD2DE9FE431D46164696
:10D28000040007D036B12DB12088332804D0072000
:10D29000BDE8FE830E20FBE7002001902F683320BD
:10D2A0000DF10408ADF8080043463A46314602A89D
:10D2B00006F0CDF90028EBD143463A463146201D11
:10D2C00006F0C5F90028E3D143463A463146A01D91
:10D2D00006F0BDF90028DBD143463A46314604F159
:10D2E000080006F0B4F90028D2D107480090434660
:10D2F0003A46314604F10A0004F05CF90028C7D12F
:10D3000001992960C4E700000DD301002DE9F8431D
:10D310001E4691465FEA010809D046B138B104467D
:10D3200006F095F9002803D100250B4F10E00E20E0
:10D33000BDE8F88305EB450004EB400033464A4660
:10D340004146801C009704F03FF90028F0D16D1C85
:10D350002188A942EED8EBE751CE01002DE9FE432A
:10D360001D461646040007D036B12DB120883A2854
:10D3700004D00720BDE8FE830E20FBE700200190CB
:10D380002F683A200DF10408ADF8080043463A46EC
:10D39000314602A806F05BF90028EBD143463A4635
:10D3A0003146201D06F053F90028E3D143463A46A2
:10D3B0003146A01D06F04BF90028DBD143463A4622
:10D3C000314604F1080006F042F90028D2D107489E
:10D3D000009043463A46314604F10A0004F0EAF868
:10D3E0000028C7D101992960C4E70000F1D30100EA
:10D3F00019B113B108B106F02AB90E207047000028
:10D400002DE9FE431D461646040007D036B12DB166
:10D410002088392804D00720BDE8FE830E20FBE7D2
:10D42000002001902F6839200DF10408ADF80800A4
:10D4300043463A46314602A806F009F90028EBD1E6
:10D4400043463A463146201D06F001F90028E3D153
:10D4500043463A463146A01D06F0F9F80028DBD1D4
:10D4600043463A46314604F1080006F0F0F8002839
:10D47000D2D10748009043463A46314604F10A00AB
:10D4800004F098F80028C7D101992960C4E700008A
:10D4900095D40100F8B51D4617460E001ED0EDB11B
:10D4A000E0B1044606F0D3F8002816D12B463A46E0
:10D4B0003146A01C06F02AF900280ED12B463A4628
:10D4C0003146201D06F0C3F8002806D10095A1883A
:10D4D0003B463246A01D06F03CF9F8BD0E20F8BDD3
:10D4E0002DE9FE431D461646040007D036B12DB186
:10D4F0002088302804D00720BDE8FE830E20FBE7FB
:10D50000002001902F6830200DF10408ADF80800CC
:10D5100043463A46314602A806F099F80028EBD176
:10D5200043463A463146201D06F091F80028E3D1E3
:10D5300043463A463146A01D06F089F80028DBD163
:10D5400043463A46314604F1080006F080F80028C8
:10D55000D2D10748009043463A46314604F10A00CA
:10D5600004F028F80028C7D101992960C4E7000019
:10D5700075D501002DE9F8431E4691465FEA010882
:10D5800009D046B138B1044606F061F8002803D14D
:10D5900000250A4F0EE00E20BDE8F88304EBC5001D
:10D5A00033464A464146801C009704F00DF8002897
:10D5B000F2D16D1C2188A942F0D8EDE74DDC0100C5
:10D5C0002DE9FE431D461646040007D036B12DB1A5
:10D5D0002088362804D00720BDE8FE830E20FBE714
:10D5E000002001902F6836200DF10408ADF80800E6
:10D5F00043463A46314602A806F029F80028EBD106
:10D6000043463A463146201D06F021F80028E3D172
:10D6100043463A463146A01D06F019F80028DBD1F2
:10D6200043463A46314604F1080006F010F8002857
:10D63000D2D10748009043463A46314604F10A00E9
:10D6400003F0B8FF0028C7D101992960C4E70000A2
:10D6500055D60100F8B51D4617460E001ED0EDB197
:10D66000E0B1044605F0F3FF002816D12B463A46F8
:10D670003146A01C05F0EBFF00280ED12B463A46A0
:10D680003146201D05F0E3FF002806D10095A18852
:10D690003B463246A01D06F05CF8F8BD0E20F8BDF2
:10D6A0002DE9FE431D461646040007D036B12DB1C4
:10D6B0002088312804D00720BDE8FE830E20FBE738
:10D6C000002001902F6831200DF10408ADF808000A
:10D6D00043463A46314602A805F0B9FF0028EBD18F
:10D6E00043463A463146201D05F0B1FF0028E3D1FC
:10D6F00043463A463146A01D05F0A9FF0028DBD17C
:10D7000043463A46314604F1080005F0A0FF0028E0
:10D71000D2D10748009043463A46314604F10A0008
:10D7200003F048FF0028C7D101992960C4E7000031
:10D7300035D701002DE9F84F984692465FEA010976
:10D740000ED0B8F1000F0BD050B104464346494605
:10D7500005F07DFF002804D1A51C0026094F0DE02F
:10D760000E20BDE8F88F43465246494628460097AA
:10D7700003F02AFF0028F4D10A35761C2188B14233
:10D78000F1D8EEE7C1DA01002DE9FE431D46164649
:10D79000040007D036B12DB120883B2804D00720E3
:10D7A000BDE8FE830E20FBE7002001902F683B20A0
:10D7B0000DF10408ADF8080043463A46314602A888
:10D7C00005F045FF0028EBD143463A463146201D7F
:10D7D00005F03DFF0028E3D143463A463146A01DFF
:10D7E00005F035FF0028DBD143463A46314604F1C7
:10D7F000080005F02CFF0028D2D1074800904346CE
:10D800003A46314604F10A0003F0D4FE0028C7D19D
:10D8100001992960C4E700001DD8010019B113B1B6
:10D8200008B105F073BF0E2070472DE9FC411D467D
:10D830001646040007D036B12DB120883C2804D00C
:10D840000720BDE8FC810E20FBE7002000902F6838
:10D850003C20E846ADF8040043463A46314601A86C
:10D8600005F0F5FE0028ECD143463A463146201D2E
:10D8700005F0EDFE0028E4D143463A463146A01DAE
:10D8800005F0E5FE0028DCD143463A46314604F176
:10D89000080005F0DCFE0028D3D143463A46314665
:10D8A00004F10A0005F032FF0028CAD1009929606E
:10D8B000C7E700002DE9FE431D461646040007D0C9
:10D8C00036B12DB12088382804D00720BDE8FE836A
:10D8D0000E20FBE7002001902F6838200DF104088E
:10D8E000ADF8080043463A46314602A805F0AFFEBF
:10D8F0000028EBD143463A463146201D05F0A7FEED
:10D900000028E3D143463A463146A01D05F09FFE6C
:10D910000028DBD143463A46314604F1080005F0C1
:10D9200096FE0028D2D10748009043463A46314639
:10D9300004F10A0003F03EFE0028C7D101992960D6
:10D94000C4E7000049D90100F8B51D4617460E008E
:10D9500027D035B328B3044605F079FE00281FD13F
:10D960002B463A463146A01C05F0D0FE002817D1C0
:10D970002B463A463146201D05F069FE00280FD19E
:10D980002B463A463146A01D05F061FE002807D11E
:10D990000095E1883B46324604F1080005F0D9FEC7
:10D9A000F8BD0E20F8BDF8B51F460C46050008D09E
:10D9B0002CB10020009028786E46A52803D00720BF
:10D9C000F8BD0E20F8BD01201346009032462846CF
:10D9D00005F02EFE0028F5D13B463246214628466A
:10D9E00005F026FE0028EDD10098A04201D00920C4
:10D9F000F8BD0020F8BD13460A460146A52004F0F4
:10DA0000C3BF2DE9F041164607000FD076B16BB1C8
:10DA10001C460D4605F00CFE002808D1A31C32461A
:10DA200029463846BDE8F04105F002BE0E20BDE8AB
:10DA3000F0812DE9F0411D4617460E000ED06DB164
:10DA400060B1044605F003FE002808D12B463A4693
:10DA50003146A01CBDE8F04105F0F9BD0E20BDE83F
:10DA6000F081F8B51F460C46050008D02CB1002007
:10DA7000009028786E46A42803D00720F8BD0E2019
:10DA8000F8BD0120134600903246284605F0D0FD2F
:10DA90000028F5D13B4632462146284605F0C8FD10
:10DAA0000028EDD10098A04201D00920F8BD002047
:10DAB000F8BD13460A460146A42004F065BF0000E5
:10DAC000F8B51D4617460E000FD075B168B1044673
:10DAD00005F0BDFD002807D1054800902B463A46C9
:10DAE0003146A01C03F070FDF8BD0E20F8BD00000B
:10DAF0004DDC01002DE9FC411F46DDF820800C467D
:10DB0000050009D02CB100200190287801AE9B2897
:10DB100004D00720BDE8FC810E20FBE7012013465E
:10DB200001903246284605F083FD0028F2D13B469D
:10DB300032462146284605F07BFD0028EAD10848F8
:10DB40000090434632462146284601F0EBFF00286C
:10DB5000E0D10198A04201D00920DBE70020D9E7FD
:10DB600005F7010013460A4601469B2004F00CBF4E
:10DB70002DE9F8431F46DDF820800C46050009D04A
:10DB80002CB10020009028786E46A12804D00720F0
:10DB9000BDE8F8830E20FBE70120134600903246D3
:10DBA000284605F045FD0028F2D13B463246214685
:10DBB000284605F03DFD0028EAD14346324621467D
:10DBC000284605F035FD0028E2D10098A04201D09A
:10DBD0000920DDE70020DBE713460A460146A120C5
:10DBE00004F0D2BE2DE9FC411F460C46050009D0C9
:10DBF0002CB100200190287801AE9C2804D0072089
:10DC0000BDE8FC810E20FBE701201346019032465F
:10DC1000284605F00DFD0028F2D1084800903B464B
:10DC200032462146284601F07DFF0028E8D10198C0
:10DC3000A04201D00920E3E70020E1E703DA010078
:10DC400013460A4601469C2004F09EBEF8B51D46C8
:10DC500017460E0012D08DB180B1044608480090DE
:10DC6000204603F0B1FC002807D1064800902B465F
:10DC70003A463146201D03F0A7FCF8BD0E20F8BD42
:10DC800035F7010033DA0100F8B51646070028D051
:10DC90003EB333B31C460D4605F02BFD00281FD1C3
:10DCA000631C32462946384605F023FD002817D16B
:10DCB000A31C32462946384605F0BAFC00280FD18D
:10DCC000231D32462946384605F0B2FC002807D10C
:10DCD000A01D831C009032462946384603F039FDCA
:10DCE000F8BD0E20F8BD00002DE9FC411F460C4692
:10DCF000050009D02CB100200190287801AEA3289E
:10DD000004D00720BDE8FC810E20FBE7012013466C
:10DD100001903246284605F08BFC0028F2D10848D5
:10DD200000903B4632462146284601F0FBFE002883
:10DD3000E8D10198A04201D00920E3E70020E1E703
:10DD400089DC010013460A460146A32004F01CBEEC
:10DD50002DE9FC479846DDF828900D46060009D0CD
:10DD60002DB100240194307801AFB42804D00720ED
:10DD7000BDE8FC870E20FBE70120134601903A46E0
:10DD8000304605F055FC0028F2D143463A46294674
:10DD90003046009401F0C6FE0028E9D14B463A46D1
:10DDA00029463046009401F0BDFE0028E0D10198DC
:10DDB000A84201D00920DBE70020D9E72DE9FF4385
:10DDC00083B09846DDF8389014460F0019D0C4B1DE
:10DDD000002001902568B42001AE8DF8080033467C
:10DDE0002A4602A805F092FC00280BD133462A46A9
:10DDF000394603A805F05CFC002803D10398C0B99C
:10DE000003E00E2007B0BDE8F0830C4800903346D5
:10DE10002A463946404601F0B3FE0028F2D10848B0
:10DE2000009033462A463946484601F0A9FE0028AC
:10DE3000E8D1019820600020E4E7000035F70100F8
:10DE4000B1DE01002DE9FC4116465FEA00082BD047
:10DE500056B34BB3154F1C460D46009703F078FBA5
:10DE600000281FD1631C324629464046009703F024
:10DE70006FFB002816D101AB32462946404605F01B
:10DE800038FC00280ED19DF80410A2784B0861F3ED
:10DE9000000263F34202CB0863F3C302090961F392
:10DEA0000412A270BDE8FC810E20FBE715AA010058
:10DEB0002DE9FC411D4690460E0032D085B378B363
:10DEC000194F0446009703F093FB002826D12B46F8
:10DED00042463146601C009703F08AFB00281DD1A2
:10DEE000A0782B46C0F34102014662F35F01C0F304
:10DEF000C00241EAC201C0F3001041EA00108DF8EF
:10DF000004004246314601A805F000FC002805D176
:10DF1000A178C1F34101012900D00720BDE8FC81AF
:10DF2000FFE70E20FAE7000047AA0100F8B5164601
:10DF3000070032D086B37BB3194800901C460D46CB
:10DF4000384601F0EFFD002825D116480090231D2A
:10DF500032462946384601F0E5FD00281BD104F180
:10DF60000A0332462946384605F062FB002812D1E2
:10DF700004F10C0332462946384605F059FB0028C7
:10DF800009D104F10800009004F11003324629463B
:10DF9000384603F0DEFBF8BDFFE70E20FBE700008C
:10DFA00005F7010045DE01002DE9FC41164607009A
:10DFB00028D03EB333B31C460D4605F039FB00288C
:10DFC0001ED101AB32462946384605F092FB0028A7
:10DFD00016D1231D32462946384605F029FB002874
:10DFE0000ED1A01D831C009032462946384603F00E
:10DFF000B0FB002804D19DF8041001F00101A170CC
:10E00000BDE8FC810E20FBE718B112B10BB105F0A1
:10E0100038BB0E20704738B558B152B14BB11C46D1
:10E020006B4605F066FB002802D19DF800102170B8
:10E0300038BD0E2038BD2DE9F0411D4617460E00B3
:10E040001ED0EDB1E0B1044605F001FB002818D167
:10E050002B463A463146A01C05F0F9FA002810D1AB
:10E060002B463A463146201D05F0F1FA002808D12A
:10E070002B463A463146A01DBDE8F04105F0E7BA0F
:10E080000E20BDE8F08100002DE9F84316465FEA56
:10E09000000854D0002E52D0002B50D029480090B8
:10E0A0001C460D46404603F053FA002845D1264849
:10E0B0000090631C32462946404603F049FA002886
:10E0C0003BD104F1080332462946404605F0B0FA38
:10E0D000002832D104F10A000090231D324629465F
:10E0E000404603F036FB002827D11848009004F181
:10E0F0000C0332462946404601F014FD00281CD18D
:10E10000134F04F11003324629464046009701F0B0
:10E1100009FD002811D104F1140332462946404676
:10E12000009701F0FFFC002807D104F118033246E4
:10E1300029464046009701F0F5FCBDE8F8830E2023
:10E14000FBE70000B3CA010081CA010055E10100EC
:10E1500045DE01002DE9F0411646070027D036B311
:10E160002BB31C460D4605F0C4FA002820D1631CD1
:10E1700032462946384605F0BCFA002818D1A31CBF
:10E1800032462946384605F053FA002810D1231D9F
:10E1900032462946384605F0ACFA002808D1A31DBE
:10E1A000324629463846BDE8F04105F041BA0E2016
:10E1B000BDE8F0812DE9FC479846DDE90A9A0C4656
:10E1C000050009D02CB100260196287801AFAA28B5
:10E1D00004D00720BDE8FC870E20FBE70120134692
:10E1E00001903A46284605F023FA0028F2D1124859
:10E1F000009043463A462146284601F093FC002809
:10E20000E8D10E4800904B463A462146284601F098
:10E2100089FC0028DED153463A462146284600961E
:10E2200001F080FC0028D5D10198A04201D009203E
:10E23000D0E70020CEE7000089E001002DDF0100DB
:10E240002DE9FF4184B0984614460F0019D0C4B19F
:10E25000002001902568AA2001AE8DF80800334601
:10E260002A4602A805F052FA00280BD133462A4666
:10E27000394604A805F01CFA002803D1049870B9A7
:10E2800003E00E2008B0BDE8F08107480090334657
:10E290002A463946404601F073FC0028F2D1019825
:10E2A00020600020EEE7000037E0010018B112B155
:10E2B0000BB105F01EBA0E20704700002DE9FC4797
:10E2C0009846DDF828900C46050009D02CB10026B0
:10E2D0000196287801AFAB2804D00720BDE8FC8761
:10E2E0000E20FBE70120134601903A46284605F030
:10E2F0009FF90028F2D10D48009043463A46214646
:10E30000284601F00FFC0028E8D14B463A4621464A
:10E310002846009601F006FC0028DFD10198A042B3
:10E3200001D00920DAE70020D8E700002DDF010046
:10E330002DE9FF4184B0984614460F0019D0C4B1AE
:10E34000002001902568AB2001AE8DF8080033460F
:10E350002A4602A805F0DAF900280BD133462A46EE
:10E36000394604A805F0A4F9002803D1049870B92F
:10E3700003E00E2008B0BDE8F08107480090334666
:10E380002A463946404601F0FBFB0028F2D10198AD
:10E3900020600020EEE700004F3602002DE9FE432A
:10E3A0001D461646040007D036B12DB120885528E9
:10E3B00004D00720BDE8FE830E20FBE7002001907B
:10E3C0002F6855200DF10408ADF8080043463A4681
:10E3D000314602A805F03BF90028EBD143463A4606
:10E3E0003146201D05F033F90028E3D1064800909E
:10E3F00043463A463146A01D03F0F0F80028D9D133
:10E4000001992960D6E700000DE4010019B113B1AC
:10E4100008B105F01CB90E20704700002DE9FE433D
:10E420001D461646040007D036B12DB1208853286A
:10E4300004D00720BDE8FE830E20FBE700200190FA
:10E440002F6853200DF10408ADF8080043463A4602
:10E45000314602A805F0FBF80028EBD143463A46C6
:10E460003146201D05F0F3F80028E3D1064800905E
:10E4700043463A463146A01D03F0B0F80028D9D1F2
:10E4800001992960D6E700008DE4010019B113B1AC
:10E4900008B105F0DCB80E2070472DE9FC411D469F
:10E4A0001646040007D036B12DB12088572804D075
:10E4B0000720BDE8FC810E20FBE7002000902F68BC
:10E4C0005720E846ADF8040043463A46314601A8D5
:10E4D00005F0BDF80028ECD143463A463146201DF0
:10E4E00005F0B5F80028E4D143463A463146A01D70
:10E4F00005F00CF90028DCD100992960D9E700006B
:10E50000F8B51D4617460E0019D0C5B1B8B104467E
:10E5100005F09DF8002813D10A4800902B463A4692
:10E520003146A01C03F064F8002809D101B02B4645
:10E530003A463146A01DBDE8F04005F088B80E20EF
:10E54000F8BD000035F701002DE9F04186B01E4608
:10E550001746040008D03FB136B12088512805D0B5
:10E56000072006B0BDE8F0810E20FAE700200390F6
:10E57000356851200DF10C08ADF8100043462A46CD
:10E58000394604A805F063F80028EAD143462A4634
:10E590003946201D05F05BF80028E2D116480090AE
:10E5A00043462A463946A01D03F018F80500D8D185
:10E5B000A07902281CD1A07B062801D0042817D1FD
:10E5C000A08801A901F0BAFB052811D003A800908A
:10E5D0000198336800EB400101EB001107483A460F
:10E5E00000EB81000189406803F0CBF80500B8D149
:10E5F000039830602846B4E701E60100BC450020DE
:10E60000F8B51D4617460E000DD065B158B1044649
:10E6100005F07CF8002805D12078012805D00228D3
:10E6200005D00720F8BD0E20F8BD054800E00548DC
:10E6300000902B463A463146A01C02F0D9FFF8BDA7
:10E6400001E5010051E801002DE9FC411C46164698
:10E65000050007D036B12CB12888532804D00720F4
:10E66000BDE8FC810E20FBE70020009027685320C6
:10E67000E846ADF8040043463A46314601A804F0A6
:10E68000E6FF0028ECD143463A463146281D04F007
:10E69000DEFF0028E4D100992160E1E72DE9FE4387
:10E6A0001D461646040007D036B12DB120885228E9
:10E6B00004D00720BDE8FE830E20FBE70020019078
:10E6C0002F6852200DF10408ADF8080043463A4681
:10E6D000314602A804F0BBFF0028EBD143463A467E
:10E6E0003146201D04F0B3FF0028E3D10648009016
:10E6F00043463A463146A01D02F070FF0028D9D1AA
:10E7000001992960D6E700000DE7010019B113B1A6
:10E7100008B104F0FBBF0E20704700002DE9FE4356
:10E720001D461646040007D036B12DB12088562864
:10E7300004D00720BDE8FE830E20FBE700200190F7
:10E740002F6856200DF10408ADF8080043463A46FC
:10E75000314602A804F07BFF0028EBD143463A463D
:10E760003146201D04F073FF0028E3D106480090D5
:10E7700043463A463146A01D02F030FF0028D9D169
:10E7800001992960D6E700008DE7010019B113B1A6
:10E7900008B104F0BBBF0E20704700002DE9FF4711
:10E7A0001E46914604000AD0B9F1000F07D036B1D9
:10E7B0002088502805D0072004B0BDE8F0870E203F
:10E7C000FAE700200190D6F80080502001AFADF8A4
:10E7D00008003B464246494602A804F038FF00289C
:10E7E000EAD13B4642464946201D04F030FF00284E
:10E7F000E2D1154800903B4642464946A01D02F032
:10E80000EDFE0500D8D1207B012801D0062816D1C5
:10E81000A08803A901F092FA052810D00398009768
:10E8200000EB400101EB00110848434600EB81007A
:10E830004A460189406802F0A4FF0500BCD1019856
:10E8400030602846B8E7000051E80100BC450020D0
:10E85000F8B51D4617460E003CD0D5B3C8B30446E4
:10E8600004F0F5FE002833D11B4800902B463A46B1
:10E870003146A01C02F0BCFE002829D12B463A46A6
:10E880003146A01D04F042FF002821D12B463A4614
:10E890003146E01D04F03AFF002819D12B463A46D4
:10E8A000314604F1080004F0D2FE002810D12B46B6
:10E8B0003A46314604F10A0004F0C9FE002807D1A7
:10E8C000009561893B46324604F10C0004F041FF9B
:10E8D000F8BDFFE70E20FBE735F70100F8B51F464E
:10E8E0000C46050008D02CB10020009028786E4618
:10E8F000B52803D00720F8BD0E20F8BD012013462F
:10E9000000903246284604F093FE0028F5D13B469D
:10E9100032462146284604F08BFE0028EDD10098AF
:10E92000A04201D00920F8BD0020F8BD13460A46D8
:10E930000146B52004F028B82DE9FC411646070031
:10E9400032D086B37BB31C460D4604F071FE00281E
:10E9500027D1A31C32462946384604F0CAFE0028B7
:10E960001FD1231D32462946384604F061FE002897
:10E9700017D10E48009004F1080332462946384664
:10E9800001F0D0F800280CD1A168002909D008882E
:10E990000090019004F10C0332462946384600F0FD
:10E9A000C5FFBDE8FC81FFE70E20FAE73136020023
:10E9B0002DE9FC411F460C46050009D02CB1002072
:10E9C0000190287801AEAE2804D00720BDE8FC8174
:10E9D0000E20FBE70120134601903246284604F042
:10E9E00027FE0028F2D1084800903B4632462146D7
:10E9F000284601F097F80028E8D10198A04201D0FC
:10EA00000920E3E70020E1E739E901002DE9FF41B2
:10EA100084B0984614460F0019D0C4B1002001906C
:10EA20002568AE2001AE8DF8080033462A4602A8BC
:10EA300004F06CFE00280BD133462A46394604A860
:10EA400004F036FE002803D1049870B903E00E20CC
:10EA500008B0BDE8F0810748009033462A463946A1
:10EA6000404601F08DF80028F2D101982060002086
:10EA7000EEE700004F3602002DE9FC479846DDF82E
:10EA800028900C46050009D02CB100260196287864
:10EA900001AFA92804D00720BDE8FC870E20FBE7C2
:10EAA0000120134601903A46284604F0C1FD002893
:10EAB000F2D143463A462146284604F0B9FD0028E3
:10EAC000EAD14B463A4621462846009601F02AF8FC
:10EAD0000028E1D10198A04201D00920DCE7002004
