:020000040000FA
:10000000D0390020810300008903000015020000A0
:100010008D0300008F03000091030000000000002A
:10002000000000000000000000000000930300003A
:1000300095030000000000009703000099030000F2
:100040009B0300009B030000310B0000210800000F
:100050009B0300009B0300007D0400009B03000045
:100060009B0300009B0300009B0300009B03000018
:100070009B0300009B0300009B0300009B03000008
:100080009B030000FD0700009B0300009B03000092
:10009000310800009B0300009B0300009B0300004D
:1000A0009B0300009B0300009B0300009B030000D8
:1000B0009B0300009B030000000000000000000004
:1000C0009B0300009B0300009B0300009B030000B8
:1000D0009B0300009B0300009B0300000000000046
:1000E0000000000000000000000000000000000010
:1000F0000000000000000000000000000000000000
:1001000000000000000000000000000000000000EF
:1001100000000000000000000000000000000000DF
:1001200000000000000000000000000000000000CF
:1001300000000000000000000000000000000000BF
:1001400000000000000000000000000000000000AF
:10015000000000000000000000000000000000009F
:10016000000000000000000000000000000000008F
:10017000000000000000000000000000000000007F
:10018000000000000000000000000000000000006F
:10019000000000000000000000000000000000005F
:1001A000000000000000000000000000000000004F
:1001B000000000000000000000000000000000003F
:1001C000000000000000000000000000000000002F
:1001D000000000000000000000000000000000001F
:1001E000000000000000000000000000000000000F
:1001F00000000000000000000000000000000000FF
:10020000DFF80CD000F00AF900480047251800007C
:10021000D0390020094B1EF0040F1CBFEFF30980FA
:100220001847EFF308800649064A884201D89042F1
:1002300002D88D464FF0000018470000F10500007D
:10024000D0390020D019002030B4044654E8000F03
:100250000D4644E80053002BF8D1156030BC7047C0
:1002600030B4044654E8000F40EA010544E8005366
:10027000002BF7D1156030BC704730B4044654E809
:10028000000F00EA010544E80053002BF7D1156088
:1002900030BC704730B4044654E8000F80EA0105D2
:1002A00044E80053002BF7D1156030BC704730B4E0
:1002B000044654E8000F00EB010544E80053002B0E
:1002C000F7D1156030BC704730B4044654E8000FD5
:1002D000A0EB010544E80053002BF7D1156030BCBA
:1002E0007047000030B4044654E8000F0D4644E85F
:1002F0000053002BF8D1156030BC704730B4044671
:1003000054E8000F40EA010544E80053002BF7D100
:10031000156030BC704730B4044654E8000F00EA62
:10032000010544E80053002BF7D1156030BC70473D
:1003300030B4044654E8000F80EA010544E8005355
:10034000002BF7D1156030BC704730B4044654E838
:10035000000F00EB010544E80053002BF7D11560B6
:1003600030BC704730B4044654E8000FA0EB0105E0
:1003700044E80053002BF7D1156030BC70470000F3
:100380000648804706480047FEE7FEE7FEE7FEE72F
:10039000FEE7FEE7FEE7FEE7FEE7FEE735080000C2
:1003A0000102000000487047FC52000040EA0103CF
:1003B0009B0703D009E008C9121F08C0042AFAD21B
:1003C00003E011F8013B00F8013B521EF9D27047DF
:1003D000D2B201E000F8012B491EFBD27047002287
:1003E000F6E710B513460A4604461946FFF7F0FF34
:1003F000204610BD421C10F8011B0029FBD1801AB9
:10040000704730B504460020034600E05B1C934271
:1004100003D2E05CCD5C401BF8D030BD064C074DEC
:1004200006E0E06840F0010394E8070098471034C4
:10043000AC42F6D3FFF7E8FEC85D0000E85D0000BF
:1004400030B58C1810F8012B12F00F0301D110F801
:10045000013B120906D110F8012B03E010F8015BF3
:1004600001F8015B5B1EF9D101E001F8013B521E6E
:10047000FBD1A142E6D3002030BD00002DE9F047BA
:1004800000268CB0DFF86091B0464FF480750124EF
:1004900037460696284602F0C7FE38B1D9F804035D
:1004A000204203D0284602F0B5FE26432D1D6400ED
:1004B0007F1CADB2082FEDD34FF4BE74204602F07E
:1004C000B3FE48B1204602F0A5FE46F0004606AA5B
:1004D0000121002002F08AFE444D16F0FF0F15D0D6
:1004E0000127002437420DD009EB8401D1F8100513
:1004F000D1F81015C0F3042055F82420C1F30141B0
:1005000002B190477F00641C082CEBD3002E67DA01
:100510004FF0FF30CDE9088000263446281910F846
:10052000507F90F9000027F0C008401C44D009A972
:10053000404602F0CAF958B34FEA9719404600F016
:10054000FBFE55F820701FB1B9F1030F03D00FE087
:10055000B9F1030F30D108A84FEAD80208F0070319
:10056000815C4FF0010C0CFA03FC41EA0C01815450
:100570004FF0A04101EB8800D0F8000706A9C0F3B6
:10058000014A404602F0A1F918B1BAF1020F03D0B6
:1005900012E0BAF1030F0FD1B9F1030F08D1BAF18C
:1005A000020F1BD00221404602F0FCFD761CF6B281
:1005B00017B149464046B847641C042CAED3002E00
:1005C0000ED06A460121002002F010FE0699009824
:1005D000884205D00690089809909DE70321E2E73C
:1005E0000CB0BDE8F087000000600040E012002081
:1005F0001CB5814603F002F902F0F2FE0028FBD19F
:1006000030484D460768304E012430A13088D9F873
:10061000182004EB004003F033F8D5E90201CDE9DE
:1006200000013088D5E9002304EB00402DA103F040
:100630003FF8E8690090D5E90423308837A104EB3E
:10064000004003F02CF81F48001D0068800705D506
:1006500030883C4904EB004003F00EF8DFF8E880F6
:10066000002500BF04FA05F0384208D058F82520CC
:100670002AB1308835A104EB004003F001F86D1C6D
:100680001A2DEFD3380608D50E480C300268308892
:1006900031A104EB004002F0F3FF380408D509480B
:1006A00010300268308834A104EB004002F0E8FF0B
:1006B0000448C8300068C00700D000BE484600F0BB
:1006C00069F8000028ED00E058010020484152443C
:1006D000204641554C5420617420307825303858DC
:1006E00000000000202052303A2020307825303899
:1006F00058202052313A2020307825303858202098
:1007000052323A2020307825303858202052333A5F
:100710002020307825303858000000002020523149
:10072000323A2030782530385820204C523A202058
:1007300030782530385820205053523A20307825D0
:10074000303858001C540000580000204361757375
:10075000653A2025732E00004D656D4D616E616711
:1007600065204661756C7420416464726573733AE8
:100770002030782530385800427573204661756CFA
:100780007420416464726573733A20307825303880
:1007900058000000BFF34F8F05480168054A01F477
:1007A000E06111430160BFF34F8F00BFFDE7000020
:1007B0000CED00E00400FA0500F01F020121914059
:1007C0004009800000F1E020C0F88012704700F07E
:1007D0001F02012191404009800000F1E020C0F893
:1007E0000011704700F01F02012191404009800074
:1007F00000F1E020C0F80012704700000748002117
:10080000C0F84011C0F84411C0F84811C0F84C11AC
:10081000C0F80011C0F8041103F0BCBC0010014086
:100820000149024800F0DCBE3813002000300040CF
:1008300003F022BCF0B5AE480023021D017801256B
:10084000101D4FF0805406290BD11678360708D1B9
:100850000678C6F30316032E06D0042E04D0052E08
:1008600002D0062907D00EE0B4F82463A14FC6F3E6
:1008700004263E6002E01678360704D10678C6F3F7
:100880000316032E02D0062904D00FE09B4F9A4E88
:100890007E670EE01678360708D10678C6F3031691
:1008A000032E06D0042E04D0052E02D0062907D030
:1008B0000EE0D4F84462924FC6F342363E6002E046
:1008C0001678360704D10678C6F30316032E02D035
:1008D000062906D011E08B4E376827F08077376005
:1008E0000EE01678360708D10678C6F30316032EF5
:1008F00006D0042E04D0052E02D006290AD011E01D
:100900004FF08046C6F80C31C6F810317C4E361FC9
:10091000336002E01678360704D10678C6F3031672
:10092000032E02D0062905D00CE0754F032664374C
:100930003E600AE01678360704D10678C6F303163F
:10094000032E02D006290DD014E06F4F05263E601D
:100950006D4E783635606C4E083633603F263F1D4D
:100960003E6002E01678360704D10678C6F3031617
:10097000052E02D0062957D062E0644E3668644FD7
:100980003E60624E361D36683F1D3E605F4E083643
:1009900036683F1D3E605D4E0C3636683F1D3E603A
:1009A0005A4E103636683F1D3E60584E1436366833
:1009B0003F1D3E60554E18363668554F20373E6015
:1009C000524E1C3636683F1D3E60504E203636680B
:1009D0003F1D3E604D4E243636683F1D3E604B4EF7
:1009E000283636683F1D3E60484E2C3636683F1D1F
:1009F0003E60464E30363668454F40373E60434E87
:100A0000343636683F1D3E60404E383636683F1DEE
:100A10003E603E4E3C3636683F1D3E603B4E4036A3
:100A200036683F1D3E6002E01678360708D106782A
:100A3000C6F30316032E06D0042E04D0052E02D0D2
:100A4000062907D019E0D4F85812324A01F04F01B4
:100A5000116002E0117809070FD10078C0F303108C
:100A6000032803D0042801D0052806D12A480168AC
:100A7000C90702D06FF00101016022487438016893
:100A800041F470010160BFF34F8FBFF36F8F4FF0E0
:100A90001021D1F80002002803DBD1F8040200285D
:100AA00022DA1E4A15601E480468002CFCD015246A
:100AB000C1F800420568002DFCD0C1F8044201686D
:100AC0000029FCD0136001680029FCD0BFF34F8FD0
:100AD0000C48F0380168134A01F4E06111430160E9
:100AE000BFF34F8F00BFFDE710490F480860F0BD0E
:100AF000E00F00F0403501400DF0ADBA00C00740F6
:100B00003C050040FCED00E01056004004040010DD
:100B100020C50040E40E00400004004004E5014010
:100B200000E401400400FA050090D00324010020F5
:100B30000448017F04480029024901D004F0D5B9D6
:100B400004F044B9601300200020004002E008C80F
:100B5000121F08C1002AFAD170477047002001E037
:100B600001C1121F002AFBD1704700001CB50621ED
:100B7000684600F069F8002811D100224FF47A731A
:100B800000F088F918B1521C92B29A42F8D30622AA
:100B900003496846FFF735FC002800D003201CBD40
:100BA000C850000010B5144600F00CF8002808D119
:100BB000204600F010FA18B1BDE81040FFF7D6BF8C
:100BC000032010BD2DE9F84380461C480C46C0792F
:100BD00010B10320BDE8F88304F10806B6F5807F64
:100BE00001D90720F6E7164F0025FF213D707D70E3
:100BF000B970611CF970C943491C3971D4217971EC
:100C000022464146B81DFFF7D1FBD421002005E064
:100C100018F80020401C1144C9B2C0B2A042F7D35A
:100C2000C8433919401C8871CD71F3B2044A24219C
:100C30000448009502F04EF8CCE700003500002093
:100C4000E0110020D450000070B505460C46642029
:100C500000F0C1F910B10F48C07908B1032070BD90
:100C6000601CB0F5807F01D9072070BDFF2C0FD02C
:100C7000C3B2094A2421094802F01AF80028F4D125
:100C800005492246491C2846FFF790FB002070BD0D
:100C9000062070BD35000020E0110020D450000077
:100CA000002000F001B8000010B5012802D008B102
:100CB000072010BD0A4932220A7001224A7088704A
:100CC0004FF47A7203210648FFF76CFF0028F0D139
:100CD000642000F080F908B1002010BD032010BD91
:100CE000E010002070B5124C0546022020704FF431
:100CF0007A7201212046FFF755FF00280CD10D2103
:100D00002046FFF7A1FF002806D106220949601CF2
:100D1000FFF777FB08B1052070BDD4F80700A17A72
:100D200000BA20F0FF0008432860002070BD0000DA
:100D3000E0100020CE5000001FB50C4900231A46D9
:100D4000D1E90701CDE902011B2000901A20019092
:100D5000064869460C3001F065FF002804D10348BD
:100D60000C3001F04FFF002004B010BDC85000004F
:100D70002DE9F04116461D468F1C4FF48072034644
:100D8000974241D828780A3090423DD8274C4022DB
:100D9000A01C2270264A927962700A461946FFF713
:100DA00005FBF9B24FF47A773A462046FFF7FAFE90
:100DB00000282AD1384600F00EF928B328780A30E6
:100DC000C1B22046FFF740FF00281ED121780B203A
:100DD00000291AD16178002917D1A178FF2914D1EF
:100DE000E1782379CA43521CD2B293420DD1627981
:100DF000D52A01D0D42A08D1D52A05D1A0794128F5
:100E000002D1E079800602D00320BDE8F081C91E3E
:100E10002878CAB2904200D20246044914460831EA
:100E20003046FFF7C3FA2C700020EEE7E0100020F8
:100E30003500002038B5164D2978814301D00020B7
:100E400038BD134C641CE07908B1032038BDFFF7AE
:100E500073FF0028FAD12079002102F086F9607929
:100E6000002102F082F9642001F037FD6846FFF7A7
:100E700039FF0028EAD1012000F072F80028E5D1FE
:100E8000FF2000F05BF80028E0D101202870D6E7B1
:100E900034000020064801794FF0A040D0F810053A
:100EA000C84010F0010F01D00020704701207047AA
:100EB0003500002070B50E4605001FD01D4C4A209D
:100EC00064222070012060700020A0700321204661
:100ED000FFF768FE002810D1642E00D26426304649
:100EE00000F079F860B119211248FFF7ADFE002833
:100EF00003D1E079012805D00B2070BD072070BD1B
:100F0000032070BD207B0A2801D9092070BDA07A7A
:100F10002870607A6870E07AA8700649227BEA70CF
:100F20000D31281DFFF742FA0349207A887100200D
:100F300070BD0000E010002035000020074932227B
:100F40000A7005224A70FF228A700122CA70087155
:100F50004FF47A7205210148FFF724BEE01000200B
:100F600010B5012807D0022805D0032803D0042893
:100F700001D0072010BD0E4C14214FF47A7221705D
:100F80006070A1700120E07004212046FFF70AFE86
:100F90000028EFD109212046FFF756FE0028E9D1AD
:100FA000A079152801D0052010BD002010BD00003B
:100FB000E01000201CB510228DF8042030228DF89E
:100FC00000208DF801000A4601AB02216846FFF7B8
:100FD000CFFE1CBD704770B50546002404E0641CBC
:100FE000A4B2012001F079FCFFF754FF002801D1E1
:100FF000AC42F4D370BD000010B5FFF751FE20B134
:10100000044A40F2611100F075F8BDE81040024852
:1010100001F068BCB050000080841E002DE9FC4146
:1010200014468846074602F0E9FB00BF02F0D8F9F3
:101030000028FBD16FF48040194D38184FF001069D
:101040001ED0012813D02888424606EB004015A187
:1010500002F016FB19480068C00700D000BE224607
:1010600002B041463846BDE8F04100F04FB828884C
:10107000238806EB004012A1626802F008FBE9E752
:10108000A06802F0B5FC034621886068CDE9000144
:10109000288812A106EB0040A26802F009FBD9E7FC
:1010A00070010020554E4B4E4F574E204641554C37
:1010B000542061742030782530385800F0ED00E07D
:1010C000415353455254494F4E204641494C4544A3
:1010D0002061742025733A25750000004552524F57
:1010E00052202575205B25735D2061742025733A9D
:1010F000257500000EB5ADF80010CDE901206A4657
:10110000002144F20100FFF789FF0EBD08B501235D
:101110008DF800309DF80030144B186059609A60CB
:101120006FF48041401807D001280FD1DA60D868E9
:1011300000889861D86807E01A611869806858616A
:1011400018690088986118694068D86118685868FB
:101150009868D868186958699869D86972B600BFE4
:101160009DF800000028FBD162B608BD8013002066
:1011700000F002B800F008B872B602480168491CD5
:10118000016070475400002003490868401E086051
:1011900000D162B670470000540000202DE9F041F4
:1011A000064608680C46411C4FF0A0474FF0010569
:1011B00006D005FA00F1C7F80815206801F0E8FF2D
:1011C0006068411C02D0002101F0D9FF307920492C
:1011D00001EB4010A169007F00283068C0F8241599
:1011E00025D0607D227D31681043C1F86C05D4E9BB
:1011F00000123068C0F80C15C0F8142524E0A0686F
:10120000411C02D0002101F0BAFFE068411C05D06A
:101210008540C7F80855E06801F0BAFFD4E902122A
:101220003068C0F80825C0F81015BDE8F081607D71
:10123000217D32680843C2F86C05D4E90012306899
:10124000C0F81425C0F80C15207D0128D7D0ECE794
:10125000601300200249085C012101F0BBBF0000BF
:10126000C05000007CB50024084E25460122305DA8
:10127000009500231146019501F04AFF641C042CDF
:10128000F4D3BDE87C4000F003B80000C05000007B
:1012900010B500242046FFF7DDFF641C042CF9D3B1
:1012A00010BD00002DE9F041871C0E4601250020ED
:1012B000FFF75EFF124C20683060D4E90001401A4D
:1012C000A168091ABE1C06E000F062FAD4E9000128
:1012D000401AA168091A491C8E42F5D8A1682068F5
:1012E000084004EB8000C16841F00301C160206840
:1012F000384420600020FFF73DFF2846BDE8F0811C
:10130000AC15002030B482680468531C8360A1547B
:10131000D0E901128A4202D330BC01F000BE30BCD9
:1013200070470000034803C8814201D10120704783
:1013300000207047AC1500200249084490F93000A5
:1013400070470000E01200202DE9F05F2648416858
:10135000F1B3DFF898B00E688146DBF8004087688B
:101360008078E11B21F07F45ED1CB0B9DFF880806B
:101370004FF48030C8F84403C8F804031120FFF785
:101380001BFA1120FFF723FA4FF0010AC8F800A05A
:101390002F2001F079FB89F802A0B54200D2354632
:1013A000124BE8193C3320F07F401860DBF8001046
:1013B0005A46091B21F07F41001B20F07F40C91CC9
:1013C00081420FD9106818602F2001F05DFB00E00A
:1013D00004E0BDE8F05F1120FFF704BABDE8F05F5C
:1013E00002F0C0BBBDE8F09F4000002004150140A2
:1013F000001001400E4910B50A784C780023A24233
:1014000012D0521CD2B20A70022A00D10B70084AC4
:101410000B780C3252F8232002608868104420F0C8
:101420007F408860012010BD0360002010BD0000D7
:10143000400000202DE9FC5F0E008346DDE90C47EB
:10144000C6F1000098469246814600D40846012520
:1014500003E000BF90FBFAF06D1C5045FADAA84596
:1014600000D9454624B1002E01DB780700D5641E63
:10147000B80702D5B8F1000F0AD0F80708D13CB17F
:10148000A54205D220215846641EFFF73BFFF6E730
:10149000002E02DA4E462D2102E0780703D52B21DB
:1014A0005846FFF72FFF07F0030002280BD1B8F1D1
:1014B000000F08D13CB1A54205D230215846641E28
:1014C000FFF720FFF6E7CDE9004743465246314695
:1014D000584603F083FDBDE8FC9F2DE9FE43054619
:1014E000002014680290D5E901871646894636E047
:1014F00002A800904B4601AA39460294404600F0EB
:10150000F7FA002820D12868816800299DF8041086
:1015100003D031B1402924D103E0802901D0C02972
:101520001FD1394600F0D7FB00280DD102999DF854
:101530000400641A402809D0C02807D028688268AF
:101540004068824207D10420BDE8FE833068001B5A
:1015500030600020F8E7894408F108081837002CAB
:10156000C6D10B20F0E7000070B50E4604460079A6
:1015700018494FF4A27501EB4010017F2068A1B11A
:101580004FF4887102F05FFA4FF49071206802F016
:101590005AFA4FF49271206802F055FA29462068F1
:1015A00002F051FA0C49206809E04FF48E7102F004
:1015B00039FA2946206802F035FA08492068C0F84F
:1015C0000413206801F013FB3146BDE8704001F0C0
:1015D000F2BA000060130020100302008000020035
:1015E0007FB50C46054691F8211094F82000CDE90E
:1015F000000104F12602D11E2846E36902F0DFFE55
:10160000002823D194F8230008BB207B022801D0B6
:1016100003281CD12269E169914218D16269E26113
:10162000E37B84F82030217E0328C1F3401184F845
:10163000211006D004B029462046BDE8704002F0D3
:1016400047BE00912946204602F03EFF7FBD04F1CF
:101650000C0001AB07C883E8070094F823000021C1
:1016600068B1D5F8C404C5F8C404820701D50120C7
:1016700002E0400705D502208DF8000001E08DF85A
:10168000001084F82410207E4007DFD4D4E9002124
:10169000684690477FBD00002DE9F047394E00278E
:1016A00080463D46DFF8E090D6F804A057E003D02E
:1016B0000446D0F81C8035E099F8002002EB420186
:1016C000521CD2B289F8002009EBC10199F802300E
:1016D000091D9A4201D189F8005048680A780446E9
:1016E000012A12D0022A02D0032A3BD108E002F0DC
:1016F00021FD00B10127257434E00574C06900E0C4
:1017000070680028F9D170602CE0207C50BB88689C
:101710006060C868A0600869E0604869A061F0780E
:1017200000B165606268B168184B501A20F07F40C4
:10173000984202D2A168084406E0881AA16820F005
:101740007F40814202D9081A206000E02560656070
:101750000120A56020742046E56102F0CDFCB8F1BF
:101760000000A4D199F8001099F801008142A3D19A
:1017700017B97168514502D00120BDE8F0870020FB
:10178000FBE7000040000020A0130020FFFF7F00C7
:1017900070B588B0214801F045F82048001F064682
:1017A00001F040F81E4DD5E9014105E0C0F3891272
:1017B00002EB9050641C044404EA010005EB800035
:1017C000C0688207F2D000200DF1080204EA01038C
:1017D00005EB8303641CDB6842F82030401C0228C0
:1017E000F4D3029800F00300012808D002280AD19F
:1017F0000298032101EB905004EB900403E002985F
:10180000C0F3831004443046002101AAFEF783FD93
:10181000002800D06C6008B070BD0000C419002022
:10182000AC15002003F034FC0020FFF703FB20B1CF
:1018300018A240F26D11FFF75DFC1A4C5FF0030532
:1018400002F0C2FB98B1042814D0052817D006284E
:10185000208805EB004019D013A101F00DFFFFF720
:101860001FFA00BF01F0BCFD0028FBD1E8E7FFF73D
:10187000C3FBF7E7208812A105EB004007E02088B2
:101880001DA105EB004001F0F7FEEBE71EA101F002
:10189000F3FEECE72E2E5C2E2E5C2E2E5C6D616925
:1018A0006E2E6300700100204572726F72206475A5
:1018B00072696E672074616720726561642E000032
:1018C0004465636C6172656420627566666572204A
:1018D000666F722054325420697320746F20736DC8
:1018E000616C6C20746F2073746F72652074616713
:1018F00020646174612E00004E6F20546167206681
:101900006F756E642E000000546167206E6F742046
:10191000737570706F727465642E00002DE9F04766
:10192000C7880446181D16468946B0FBF7F1B0FB80
:10193000F7F207FB12009A193A44D21CB2FBF7F2F5
:10194000DDF820A001E02468491E0029FBD13D1AE2
:101950008846B54216D818E0BAF1000F05D0211814
:1019600009EB08002A46091D04E0204409EB0801A0
:101970002A46001DFEF71AFD00202468761BA844A5
:10198000B74201D9354600E03D46002EE4D1BDE81E
:10199000F087000030B5024669B101F017FF002161
:1019A000084C0BE001EB410304EB830315685B88F3
:1019B000AB4202D11160002030BD491C8142F1D3FD
:1019C000052030BD2801002003B5DFB04FF4BA7107
:1019D00002465D9160AB5DA9684600F025F838B11C
:1019E00006480321008801EB004005A101F044FEF8
:1019F000684600F027F861B000BD000070010020CB
:101A00004572726F7220647572696E6720706172C0
:101A100073696E672061204E444546206D6573737F
:101A20006167652E000000003EB515461C466A46FB
:101A300000F03AF8002804D1224629466846FFF70C
:101A40004CFD3EBD70B505460C4801F063F80C48EE
:101A50000321AA68008801EB00400AA101F010FEF2
:101A6000002406E0286850F82410204600F09CF876
:101A7000641CA868A042F5D870BD0000A0860100D3
:101A80007C0100204E444546206D65737361676597
:101A900020636F6E7461696E7320256420726563C4
:101AA0006F7264287329000030B50B68302B01D2A7
:101AB000042030BD2424303BB3FBF4F400F10C03CC
:101AC000641C03EB8405C2E9000505EBC4059560C1
:101AD000036013685C6015680023AB60926804EBD8
:101AE000440302EBC302101A0860002030BD00005E
:101AF000F0B50324059D2E68032E3BD31E7806F017
:101B000007060E70072E01D105260E701E7806F00E
:101B1000C006167013F8016B13F8017B0F72F20602
:101B200002D513F8012B0CE02A680624062A21D3DB
:101B300053F8032B12BA13F801CB22F0FF0242EA4A
:101B40000C0236074FF0000C07D52E68641CA64225
:101B500010D313F8016B4E7003E081F801C0C1F897
:101B600004C04E78144407EB060E7444D5F800E028
:101B7000A64501D20920F0BD17B1CB603B4401E07E
:101B8000C1F80CC00EB14B6033443AB103604260FF
:101B900048610448086100202C60F0BDC0F800C016
:101BA000F5E70000B11C000070B5294C02460E4656
:101BB0002088032505EB004026A101F061FD307867
:101BC0002A4951F82020208829A105EB004001F086
:101BD00057FD706860B1208827A105EB004001F037
:101BE0004BFD2088727805EB0040716801F0EAFC3B
:101BF000F06860B1208821A105EB004001F03CFDB8
:101C00002088327A05EB0040F16801F0DBFC1D49C9
:101C1000306988421BD17669306880B120881AA16A
:101C200005EB0040726801F02BFDB088316882B28C
:101C3000208805EB0040BDE8704001F0C3BC20885F
:101C400018A105EB0040BDE8704001F015BD70BD66
:101C5000880100204E444546207265636F726420FF
:101C6000256420636F6E74656E743A0050520000F4
:101C7000544E463A2025730049443A007479706501
:101C80003A000000B11C00005061796C6F61642063
:101C90006461746120282564206279746573293A2F
:101CA000000000004E6F207061796C6F616400006D
:101CB00070B515460B00044609D02868626890424A
:101CC00001D2042070BD18462168FEF76FFB6068E2
:101CD0002860002070BDD0E901329A4201D304206F
:101CE0007047036843F822108168491C8160002016
:101CF000704783899B1CFF2B01D906207047DBB2FC
:101D0000AFF300803FB581B00C469DF8101015462A
:101D1000FA2902D9042005B030BDFA21ADF800102F
:101D20006A46294600F0A8F90028F4D1BDF8000061
:101D30002A46C1B204AB1046FFF71AF80028EAD1D0
:101D40009DF810202946204600F00AFD0500E2D14A
:101D5000204600F021FD2088A0F5D441823904D02E
:101D6000B0F5104F03D00320D5E70520D3E7284670
:101D7000D1E72DE9F04104008AB04FF00E000BD0FE
:101D80002368002B08D0002906D0A2F10F004FF6DF
:101D9000F073984203D309200AB0BDE8F081E088CF
:101DA0000426D0B14FF00008A4F8048008888D1CE8
:101DB00040BA208188780009A07315F8010BD21F62
:101DC00000F00F00E07335F8020B97B240BA608163
:101DD00035F8020B40BAA0811FE03046DCE7ADF8D1
:101DE000047001AA294603A800F0EBF90028D3D11A
:101DF000BDF80400E2880544381A87B2A08803A918
:101E00009042EAD0226800EB800002EB80001422AE
:101E1000FEF7CCFAA088401CA080002FDFD12068FC
:101E2000A17B807C032902D0022903D004E006288C
:101E300004D001E0042801D00B20ADE74046ABE719
:101E400070B51E4D0446032628881DA106EB0040F0
:101E500001F012FC2888228906EB004021A101F044
:101E60000FFC2888E37BA27B06EB004020A101F059
:101E70000EFC2888628906EB004023A101F000FCDB
:101E80002888A28906EB004022A101F0F9FB2888EE
:101E9000A28806EB0040224901F0F2FB002509E090
:101EA000206805EB850100EB8101284600F0C6F9AA
:101EB0006D1CEDB2A088A842F2D870BDAC01002024
:101EC0004361706162696C69747920436F6E7461FB
:101ED000696E65722046696C6520636F6E74656E0D
:101EE000743A200043434C454E3A202564200000BC
:101EF0004D617070696E672056657273696F6E3AD6
:101F00002025642E256420004D4C653A2025642050
:101F1000000000004D4C633A2025642000000000C2
:101F2000B05C000030B5D9B00546314C0020ADF8AA
:101F30004C012088032101EB00402EA101F09CFB05
:101F40004FA800F093F8B0208DF83D01BDF84C018A
:101F5000ADF83E010F20ADF8480110AA55A94FA8D1
:101F6000FFF7C7FE002840D153AB4022694655A871
:101F700000F0E5F8002838D1BDF8000040BAADF80F
:101F8000500119E0BDF84C11ADF83E11F22801D214
:101F90000F2800D90F20ADF8480110AA55A94FA865
:101FA000FFF7A7FE002820D153AB4022694655A871
:101FB00000F0C5F8002818D154A955A800F0ACFAD3
:101FC000002812D1BDF850010028DBD1BDF84C210A
:101FD00069462846FFF7CDFE05462088132141EAD1
:101FE00000400EA101F048FB284659B030BD00006A
:101FF000B80100204361706162696C6974792043A3
:102000006F6E7461696E65722052656164205072F2
:102010006F63656475726520000000000D0A0000A2
:10202000074810B50088032101EB004005A101F02D
:1020300023FBBDE810404EF2031000F077BA000019
:10204000B80100204361706162696C697479204352
:102050006F6E7461696E65722053656C6563742080
:1020600050726F6365647572652000000021016025
:1020700041608160C16070472DE9F04105004FF07B
:102080000E0023D0002921D0002A1FD00720AB68E2
:10209000002613B1AC88002C18D004202BB1A888DE
:1020A000FF2801D9072000E00520AB884FF4807796
:1020B0001844AB8980B22BB1BB4201D9801C00E02F
:1020C000401C80B21388834202D20420BDE8F08114
:1020D0001080287801F8010B687801F8010B6888F6
:1020E000000A01F8020BA87801F8010CA8680C4658
:1020F000A8B1A888FF2809D92670A8884C1C000A16
:1021000004F8010B287904F8010B01E020704C1C45
:10211000AA882046A968FEF749F9A8880444A88936
:1021200058B1B84204D9000A2070287B607004E0DE
:10213000B84201D1267000E020700020C6E72DE9EA
:10214000F0411C460B468168054639B12688A888AF
:102150003718974204D90420BDE8F0810E20FBE730
:10216000334402461846FEF721F92088A98808441E
:1021700020800020F0E7000010B50368002280886E
:102180000EE000BF02EB820403EB8404A4898C42BE
:1021900004D102EB820003EB800010BD521CD2B2CE
:1021A0009042EFD8002010BD30B50C4615461946B8
:1021B000FFF7E2FF18B1C0E90045002030BD05205F
:1021C00030BD70B50446108816460D46022812D35D
:1021D00014212046FEF703F92878A0746878691C5A
:1021E000FF280AD02082491C228A481B10443288CA
:1021F00080B282420DD2092070BD30880428FAD303
:10220000B1F80100C91C40BA2082FF28ECD20B2093
:1022100070BD3080A27C0B20042A0BD0052A09D087
:10222000062AF5D1228A082AF2D12046BDE870405C
:1022300000F026B9228A062AF7D070BD70B5304D5D
:1022400002460E462888032404EB00402DA101F02D
:1022500017FAB27C042A08D0052A0BD02888062A4F
:1022600004EB004041D02CA108E0288830A104EB09
:10227000004003E0288837A104EB004001F000FA99
:102280002888328A04EB00403CA101F0F9F9288843
:10229000B28904EB00403FA101F0F2F9288844A183
:1022A00004EB0040B26801F0EBF92888B27B04EB44
:1022B000004045A101F0E4F92888F27B04EB0040DE
:1022C00049A101F0DDF9306888B12888B28804EBB3
:1022D00000404DA101F0D4F92888B28804EB0040F9
:1022E0003168BDE8704001F06DB951A1C6E728889A
:1022F0005AA104EB0040BDE8704001F0BDB90000F8
:10230000C401002025642066696C6520436F6E74EB
:10231000726F6C20544C5600547970653A20556E9B
:102320006B6E6F776E202830782530327829000068
:10233000547970653A204E4445462046696C6520C4
:10234000436F6E74726F6C20283078253032782994
:1023500000000000547970653A2050726F70726905
:1023600065746172792046696C6520436F6E747282
:102370006F6C202830782530327829004C656E67E4
:1023800074682028696E206279746573293A202563
:102390006400000046696C65204964656E74696676
:1023A0006965723A203078253034582000000000EA
:1023B0004D6178696D756D2066696C652073697A09
:1023C000653A2025642000005265616420616363E2
:1023D00065737320636F6E646974696F6E3A203041
:1023E0007825303258200000577269746520616387
:1023F0006365737320636F6E646974696F6E3A20EE
:1024000030782530327820004E4445462066696C8D
:102410006520636F6E74656E742070726573656E8F
:10242000742E204C656E6774683A20256420000085
:10243000547970653A20457874656E646564204E01
:102440004445462046696C6520436F6E74726F6C1C
:102450002028307825303278290000004E44454647
:102460002066696C6520636F6E74656E7420697395
:10247000206E6F742070726573656E7420000000AA
:1024800010B531F8022B4EF2021452BA131B82819E
:10249000A24239D008DCBAB3B2F57C5F34D0521C0A
:1024A000B2F5804F07D12FE0012B2DD003F203139B
:1024B000B3F5005F28D0827C042A04D0052A0AD014
:1024C000062A23D111E031F8022B4FF6FA7352BAE3
:1024D0008260521F06E031F8022B4FF6FC7352BAAD
:1024E0008260D21E9A420FD210E051F8032B12BA2A
:1024F00011F8013B22F0FF021A438260A2F57F42ED
:10250000FF3A12F5803F01D30B2010BD0A78827389
:102510004978C173002010BD0A888088824201D2A8
:102520000B207047101A08800020704730B5044611
:10253000174DA0F56140C7B0033807D028880321A4
:1025400001EB0040224613A101F09AF81A48210A33
:10255000017044703FA8FFF789FDA4208DF8FD00AD
:102560000C20ADF8FE00144841900220ADF80001A7
:102570006A4643A93FA8FFF7BCFB044628881321FD
:1025800041EA00400DA101F077F847B0204630BD88
:10259000B801002046696C6520284944203D20256B
:1025A0003458292053656C6563742050726F6365DD
:1025B0006475726520000000200100200D0A0000F3
:1025C000F0B5C9B00746394E0020ADF80C010C46F5
:1025D0003088032101EB0040154635A101F04CF88D
:1025E0003FA8FFF743FDB0208DF8FD00BDF80C01BA
:1025F000ADF8FE000220ADF808016A4645A93FA8E3
:10260000FFF777FB00284ED143AB2A46214645A869
:10261000FFF795FD002846D1208840BA801CADF810
:10262000100121E0BDF80C01ADF8FE007889F22818
:1026300001D2024600E0F2228A4204D8F22801D2F6
:10264000014600E0F221ADF808116A4645A93FA80D
:10265000FFF74FFB002826D143AB2A46214645A869
:10266000FFF76DFD00281ED144A945A8FFF754FFD0
:10267000002818D1BDF810110029D3D1BDF80C01E4
:102680002A4660F30F0210482146008843BA3846B4
:10269000FFF78AFD04463088132141EA00400BA170
:1026A00000F0EAFF204649B0F0BD0000B80100206C
:1026B0004E44454620526561642050726F636564E4
:1026C0007572652000000000200100200D0A000046
:1026D00030B5164D0321C7B0288801EB004014A186
:1026E00000F0CAFF3FA8FFF7C1FCA4208DF8FD0051
:1026F0004FF48060ADF8FE00174841900720ADF818
:1027000000014FF48070ADF8080102236A4643A926
:102710003FA8FFF7F7FA04462888132141EA004052
:102720000EA100F0A9FF47B0204630BDB80100203F
:102730004E44454620546167204170706C69636166
:1027400074696F6E2053656C6563742050726F639B
:102750006564757265200000725200000D0A000069
:1027600010B50E2320B119B1022A03D24FF009038C
:10277000184610BD4FF0000303604360836003D030
:10278000A2F102028280816082881144098849BADC
:1027900001804FF0000010BD70B5104E0446028855
:1027A0003088032505EB00400DA100F069FFA0680B
:1027B0000028308805EB00400BD00EA100F05CFF34
:1027C0003088A28805EB0040A168BDE8704000F0A9
:1027D000F9BEBDE870400BA100F04EBFA001002083
:1027E000522D41504455207374617475733A2025FD
:1027F00034582000522D4150445520646174613A90
:1028000020000000522D41504455206E6F2064611D
:102810007461206669656C642070726573656E749E
:102820002E00000008B501216A46FDF767FD0098FB
:1028300008BD70B5044600252846FEF799FC2168BE
:102840006268086890420ED9401E08600178238AA9
:10285000E26801FB0325227A2168101AC0B20A79C6
:10286000824200D208710020FEF784FC284670BD29
:1028700070B505460C460020FEF77AFCE868298A08
:10288000201AB0FBF1F12A681068431C1360017034
:10289000BDE870400020FEF76DBC10B530B1017A84
:1028A00042680368891AC9B21A6006E00E2010BD9A
:1028B00003681A68541C1C601170491EC9B2F7D213
:1028C000006800210171084610BDC20800F007032E
:1028D0000120895C9840084070474FF47A71484362
:1028E00000F046B800283ED01F49204A096800BFC2
:1028F00000BF00BF00BF00BF00BF00BF00BF9142CC
:102900002FD000BF00BF00BF00BF00BF00BF00BF8F
:1029100000BF00BF00BF00BF00BF00BF00BF00BFBF
:1029200000BF00BF00BF00BF00BF00BF00BF00BFAF
:1029300000BF00BF00BF00BF00BF00BF00BF00BF9F
:1029400000BF00BF00BF00BF00BF00BF00BF00BF8F
:1029500000BF00BF00BF00BF00BF00BF00BF00BF7F
:1029600000BF0138C3D17047240100200024F400C7
:1029700000283ED01F49204A096800BF00BF00BFA1
:1029800000BF00BF00BF00BF00BF91422FD000BFFB
:1029900000BF00BF00BF00BF00BF00BF00BF00BF3F
:1029A00000BF00BF00BF00BF00BF00BF00BF00BF2F
:1029B00000BF00BF00BF00BF00BF00BF00BF00BF1F
:1029C00000BF00BF00BF00BF00BF00BF00BF00BF0F
:1029D00000BF00BF00BF00BF00BF00BF00BF00BFFF
:1029E00000BF00BF00BF00BF00BF00BF00BF013875
:1029F000C3D17047240100200024F40000283ED0F9
:102A00001F49204A096800BF00BF00BF00BF00BFC8
:102A100000BF00BF00BF91422FD000BF00BF00BF6A
:102A200000BF00BF00BF00BF00BF00BF00BF00BFAE
:102A300000BF00BF00BF00BF00BF00BF00BF00BF9E
:102A400000BF00BF00BF00BF00BF00BF00BF00BF8E
:102A500000BF00BF00BF00BF00BF00BF00BF00BF7E
:102A600000BF00BF00BF00BF00BF00BF00BF00BF6E
:102A700000BF00BF00BF00BF00BF0138C3D1704717
:102A8000240100200024F40000283ED01F49204AE1
:102A9000096800BF00BF00BF00BF00BF00BF00BF8C
:102AA00000BF91422FD000BF00BF00BF00BF00BFDA
:102AB00000BF00BF00BF00BF00BF00BF00BF00BF1E
:102AC00000BF00BF00BF00BF00BF00BF00BF00BF0E
:102AD00000BF00BF00BF00BF00BF00BF00BF00BFFE
:102AE00000BF00BF00BF00BF00BF00BF00BF00BFEE
:102AF00000BF00BF00BF00BF00BF00BF00BF00BFDE
:102B000000BF00BF00BF0138C3D1704724010020BF
:102B10000024F40000283ED01F49204A096800BF65
:102B200000BF00BF00BF00BF00BF00BF00BF914299
:102B30002FD000BF00BF00BF00BF00BF00BF00BF5D
:102B400000BF00BF00BF00BF00BF00BF00BF00BF8D
:102B500000BF00BF00BF00BF00BF00BF00BF00BF7D
:102B600000BF00BF00BF00BF00BF00BF00BF00BF6D
:102B700000BF00BF00BF00BF00BF00BF00BF00BF5D
:102B800000BF00BF00BF00BF00BF00BF00BF00BF4D
:102B900000BF0138C3D17047240100200024F40095
:102BA00000F01F02012191404009800000F1E02067
:102BB000C0F8801170474907090E002806DA00F0B6
:102BC0000F0202F1E02282F8141D03E000F1E0227E
:102BD00082F8001400F01F0201219140400980009A
:102BE00000F1E020C0F88012C0F800117047000B1F
:102BF00040B270470121B1EB507F01D101207047F5
:102C0000002070470179064A01EB8101006802EB60
:102C1000C1010522C0F80025022081F8220070477A
:102C20003813002070B506460D4600791F4900EBA9
:102C3000800001EBC00494F8220008B1082070BDA8
:102C40000020C4E90023A06084F8250084F8240053
:102C5000A87B84F82700687B10B1284601F0D4FADD
:102C6000296840F20C60890001F1A041C1F8000719
:102C70006968890001F1A041C1F80007D5E9001297
:102C80003068C0F80815C0F80C25A968C0F82415EC
:102C9000206828B13068297B000B40B2FFF78BFF1A
:102CA000012084F82200002070BD000038130020AD
:102CB0003EB5074D2C68AD6800948DF80110019267
:102CC00002958DF802300022694600F015F83EBDED
:102CD000F05000003EB500250095069C8DF80110CF
:102CE00002958DF8023001920CB1202200E0002202
:102CF000694600F001F83EBD30B40379084C03EB9F
:102D0000830304EBC304930702D030BC0620704752
:102D1000006813460A460146204630BC01F03CBC20
:102D2000381300202DE9F04105460079164F9046F2
:102D300007EB40140E46E07E10B10820BDE8F0819C
:102D4000707F20772846FEF729FA5FEA0800606066
:102D50003169216003D0317F2846FEF705FC2879D0
:102D600007EB4010007F0028286801D0082100E010
:102D70000421C0F800150020E0752076A07501211F
:102D8000E176A076DAE70000601300202DE9F04735
:102D9000054600793F4E904606EB40140F46207FD3
:102DA00018B10846FFF726FF30B1284600F074F846
:102DB00020B11120BDE8F0871020FBE784F81680D1
:102DC000A7600027A78228794FF0010806EB40147E
:102DD0003E46207F0028286825D04FF49079494648
:102DE00000F031FE4FF4AC7A5146286800F02BFE1B
:102DF0002868A17DA268C0F84425C0F84815286855
:102E0000C0F808806068F0B94946286800F016FEEE
:102E100080465146286800F011FE58EA0001F3D0C0
:102E200058BBA7750FE04FF48E7A514600F0FAFDBB
:102E30002868C0F808802146286801F0F3FB616823
:102E40004FF4807089B13046B4E75146286800F0ED
:102E5000E4FD10B9A08A4845F7D1A08A484505D0BD
:102E60002146286801F0DEFB00E08146A08AA17DB2
:102E70008842EAD3A08A484501D10F26D1E75146BE
:102E8000286800F0CAFD0028F9D02868C0F80C8036
:102E9000C7E70000601300200079044901EB4010EF
:102EA000807D002800D001207047000060130020C2
:102EB00070B5044600791149002601EB40152068E1
:102EC0002A7FC0F80065686888B1207901EB40105E
:102ED000007F0028206801D0094901E008498C39A9
:102EE000C0F808132068FFF782FEFFF759FE20465E
:102EF00000F0B0FDEE766E6070BD00006013002043
:102F0000100302000FB408B50399002904D004AAE5
:102F100000926A4600F00FF801B05DF814FB10B59E
:102F200082680446002A05D0D4E904032168984742
:102F30000020A06010BD2DE9FC4791460C008046A2
:102F400076D014F8011B39B125290ED04046FEF782
:102F5000D9F920780028F4D198F80C00002867D01F
:102F60004046BDE8FC47FFF7DABF00200122217888
:102F70002B291BD02D2902D0302908D102E040F0A6
:102F8000010001E040F00200641C002AEFD100259E
:102F90002A290ED02178A1F130020A2A11D205EB9C
:102FA000850201EB4205641C303DF1E740F004006E
:102FB000EAE7D9F800100B1DC9F800300968641C55
:102FC0000D44217800232E290BD114F8011FA1F103
:102FD00030020A2A05D203EB830201EB4203303BA5
:102FE000F3E76C290DD068290BD0692921D00BDCBF
:102FF000252918D0582931D063290ED0642915D13C
:1030000017E014F8011FECE7702969D0732932D05A
:1030100075291BD0782909D120E0D9F80000011DBD
:10302000C9F8001001784046FEF76CF9641C90E77F
:103030006CE0D9F800100A1DC9F800200968CDE934
:1030400000500A224046FEF7F5F9EFE7D9F80010E4
:103050000A1DC9F8002009680A2206E0D9F8001004
:103060000A1DC9F8002009681022CDE90050404629
:1030700001F0B4FFDAE7D9F8001000270A1DC9F8FB
:1030800000200E68C00705D112E04046761C7F1C68
:10309000FEF738F931780029F7D104E020214046C5
:1030A0006D1EFEF72FF9BD42C0D9002DF6D1BDE748
:1030B0004EB13046FDF79EF9074604E02021404618
:1030C0006D1EFEF71FF9BD4206D9002DF6D103E0B3
:1030D0004046761CFEF716F931780029F8D1A5E7AD
:1030E000D9F80000011DC9F80010056830214046DC
:1030F000FEF708F978214046FEF704F90820002180
:10310000CDE90001034610222946B0E7BDE8FC875F
:1031100070B541EA4201DDE904564FF0A04441EAAE
:10312000830141EA052104EB800041EA0641C0F831
:10313000001770BD70B541EA4201DDE904564FF059
:10314000A04441EA830141EA052104EB800041EA01
:103150000641C0F8001770BD1CB5002100910B4658
:1031600001220191FFF7E6FF1CBD4FF0A0420023B2
:1031700002EB800043EA8101C0F8001770471CB5DC
:1031800000220B46009211460192FFF7D3FF1CBDAF
:103190001CB5002100910B46012201911146FFF759
:1031A000C9FF1CBD4FF0A04202EB8000D0F8002701
:1031B00022F44032C0F80027D0F8002742EA01414B
:1031C000C0F8001770474FF0A04201218140C2F8BB
:1031D0000815704701224FF0A043824011B1C3F897
:1031E00008257047C3F80C257047000018B5084B38
:1031F0006C4601441B68009306E000BF54F8203081
:10320000D3F81035401C08C28142F7D818BD000021
:10321000EC500000034908B5084400210160006833
:10322000009008BD0060004002494058012800D0CD
:10323000002070470060004030B5124B014600206E
:10324000D3F81044224609E0157A854205D1401C86
:103250000A28F7DB4FF0FF3030BD5268002AF3D167
:10326000421CF9D00872D3F810242AB152684A607F
:10327000D3F81024516030BD0022C3F810144A6006
:1032800030BD0000AC150020F0B595B01C461546C9
:103290000F4608461A9E00F069FB182109A8FDF7A1
:1032A0009EF80E96CDE909540023082203A938465A
:1032B00000F076FB059806900498ADF81C000020FD
:1032C0008DF820000398082600F00300012802D0A2
:1032D00002281DD03CE003983346850AC0F3C200A3
:1032E0008DF81E0003980FA9C0F380008DF81F0011
:1032F0000398C0F38314A200384600F051FB09A8DC
:10330000009006AB22460FA9284600F08BFA1FE07A
:103310000398840DC0F3C2008DF81E000398C0F31B
:1033200080008DF81F00082C01D2254600E00825FA
:1033300033462A460FA9384600F032FB2E44641B60
:1033400009AB06AA29460FA800F0BCF9002CEAD167
:10335000384600F014FB15B0F0BD7047012001F0B5
:1033600009BD000010B50448FFF7A2FDBDE81040FC
:10337000002001F0FFBC0000C400002008B5034A93
:1033800000924023024AFFF77FFF08BDED3B00009B
:10339000AC1400200A4A012902EBC00007D0022920
:1033A00007D0032907D0042907D000207047022046
:1033B00070470420704700797047407970470000DB
:1033C000E85D000010B5FFF7C9FF04210348FFF7CF
:1033D00033FF02490120487210BD0000CC000020DC
:1033E0002DE9FE4FFDF79EFF10B10020BDE8FE8FD6
:1033F00072480021C0F81814BFF34F8FD0E901467E
:1034000004EA060100EB81014FF000090AE000BF69
:10341000C1F3891202EB9151641C0C4404EA0601C9
:1034200000EB8101C9688A07F2D000216A46804614
:1034300004EA060008EB8000641CC06842F8210022
:10344000491C43460229F3D3009800F003000228E8
:1034500006D0012800984FD0C04380077ED0A8E056
:1034600000985022810D8A46B2EB905F00D850211F
:103470000D4665F39F5000900831514800F02DFA39
:1034800007006CD000F072FA4B46082269463846B5
:1034900000F08CFA04EA0600311A8900091D09F1CE
:1034A000080B8D4221D9454E0C3631B1CAB208EB1A
:1034B0008000691A91460C3004E03046EAB20026DA
:1034C00091463146CDB201465B46384600F06EFA71
:1034D0000BEB090326B12A463146384600F066FA5E
:1034E0000AF1030004EB90043BE008EB80015B462B
:1034F0002A4638460C31F1E7C0F38310062800D382
:103500000620009960F38911C1F38310801C00919B
:1035100081002B4800F0E1F907004AD000F026FABC
:103520004B4608226946384600F040FA09F108097E
:1035300000250DE004EA060008EB80014B4604225A
:1035400038460C31641C00F031FA09F104096D1C95
:103550000098C0F38310A842ECD801E00BE028E00B
:103560003FB3D8F81054D8F81804464690B13846FE
:1035700000F005FA1DE0D3F8180400283FF436AF38
:1035800017E0687A012804D12A682846394612686B
:1035900090476D68002DF4D1384600F0F0F9002016
:1035A000FDF7E6FDD6F8180400B974600020FDF7B9
:1035B000E1FDFDF7B7FE80F0010017E7AC15002034
:1035C0003C5200002DE9F84FDFF8A89080468A466B
:1035D000D01C164680086946D9F80870FDF762FECF
:1035E00080B3009DAC1C0094D9F8081004EA0700D1
:1035F000091A8C00241DA64209EB800002D832462D
:1036000051460AE0224651460C30FCF7CFFE301BF3
:1036100086B218480AEB040132460C30FCF7C6FEAD
:10362000681C384009EB80004FEA18423D4009EB26
:103630008501C2605FEAC86051F80C0F03D540F005
:10364000040002E00CE020F0040068F3C5004FF62F
:10365000C072904366F39F5020F00300801C086006
:1036600099F81C0402E000BFFFF7BAFE0028FBD166
:10367000BDE8F88FAC15002000231A4600F0CEBA42
:1036800008B5012300926A4600F0C8FA08BD1CB5CF
:10369000CDE9002302236A4600F0C0FA1CBD3EB506
:1036A000069C8DE81C0003236A4600F0B7FA3EBD75
:1036B0007FB5DDE908458DE83C0004236A4600F04B
:1036C000ADFA7FBD2DE9F0470E4680461C46924676
:1036D00008293ED894F80C90002020731946104613
:1036E00000F012FA0025B54206D218F805201AA1FA
:1036F0002046FFF707FC03E019A12046FFF702FC74
:103700006D1C082DEFD317A12046FFF7FBFB00250A
:10371000B54210D218F80570FCF744FE0068C05D91
:1037200010F03E0F01D03A4600E02E220EA12046B6
:10373000FFF7E8FB03E00DA12046FFF7E3FB6D1C5C
:10374000082DE5D301222146504600F0BFF984F848
:103750000C90BDE8F0870000202530327800000092
:10376000202020007C0000002563000020000000D5
:10377000114810B5FF218160002101604160C0F84F
:103780001814C0F8141480F81C140C4800F0F5F854
:1037900000280FD10A480B490B4B401AC1080020E2
:1037A00005E000BF00EB400223F82200401C8842E5
:1037B000F8D3002010BD0000AC1500203C520000E2
:1037C000585E0000E85D000028010020024803491F
:1037D000401AC00870470000585E0000E85D000015
:1037E00013B56846FEF7D6F808B100201CBD0248A4
:1037F000009950F831001CBDE85D000070B5084824
:103800000125D0F8104480F81C5405E06572216849
:103810002046496888476468002CF7D170BD0000D5
:10382000AC1500202DE9FF4781460C9D00200C4679
:103830002F7B2873984616462946184600F064F9EF
:10384000072E42D2DFE806F004090F161F2A3600C1
:1038500049462846FFF756FB37E049462846226886
:10386000FFF750FB31E0D4E9002349462846FFF733
:1038700049FB2AE0A0680090D4E900234946284685
:10388000FFF740FB21E0D4E90201CDE90001D4E9D2
:10389000002349462846FFF735FB16E004F10800EF
:1038A00007C88DE80700D4E9002349462846FFF7FA
:1038B00029FB0AE004F108000FC88DE80F00D4E9E5
:1038C000002349462846FFF71DFB002229464046B3
:1038D00000F0FCF82F73BDE8FF872DE9F041058A61
:1038E00080462D1F4819C01CB0FBF5F0C6B24046FB
:1038F000FEF79FFF041E19D0002020710120607187
:10390000E58000272546761EC4F800800BE040467F
:10391000FEF78FFF60B16179491C6171286005462F
:103920007F1CC0F80080B742F1D32046BDE8F0818B
:10393000204600F002F80020F8E72DE9F041457933
:1039400001466B1E002201E00968521C9A42FBD31B
:103950000F680146002605E038460C68FEF788FF30
:103960002146761CAE42F7D3BDE8F08108B50121AF
:103970006A46001DFCF79BFC08BDFEF78EBF38B5FC
:103980000446001D01216A46FCF79EFC009810F0D9
:10399000FF0F04D12046BDE83840FFF7CEBF38BD49
:1039A00038B501240094FDF7B9FF38BD38B50024BF
:1039B0000094FDF7B3FF38BD0C4A10B502F1F003D7
:1039C0000EE0991AC91001EBD171491002EBC10147
:1039D0000C68844201D90B4602E005D201F10802CD
:1039E0009A42EED3002010BD486810BD205100005F
:1039F00000B5FFF7E1FF002800D1014800BD00003D
:103A00000C5100004058002800D00120704708B534
:103A1000002242504058009008BD4058002800D075
:103A20000120704708B5002242504058009008BD60
:103A3000D0F80403084000D0012070474058002807
:103A400000D00120704708B5002242504058009035
:103A500008BD000070B5034600791B4901EB40101A
:103A60001968027F4FF0FF30002AD1F80C25D1F8F9
:103A70001465D1F80855D1F8104504D0C1F80C05EB
:103A8000C1F8140503E0C1F81405C1F80C05196864
:103A9000C1F80805C1F81005501C02D01046FFF708
:103AA0005BFB701C02D03046FFF756FB601C02D057
:103AB0002046FFF751FB681C04D02846BDE8704043
:103AC000FFF74ABB70BD00006013002010B50C4624
:103AD000C17949B11AB109A12046FFF713FA20466E
:103AE000BDE81040FFF71BBA007A0028F3D0044865
:103AF00004A102682046FFF705FAECE70D0A000072
:103B0000FC0000202573000070B50446C0790D4606
:103B100000281CD1207A50B1A179A088FFF73AFC87
:103B20000B4951F820200BA12846FFF7EBF9A0889C
:103B30000021FFF755FE03460549A079143951F8D5
:103B400020202846BDE8704003A1FFF7DBB970BD17
:103B5000FC000020257300003C25733E2025733AAD
:103B60002000000070B5012670044FF0E021002510
:103B7000C1F88001084C4010C4F84803C4F8080399
:103B800066602F20FEF780FFA660044C2F20A56002
:103B9000FEF77AFFA57070BD0010014040000020C4
:103BA00070B50546C87D0C4600284FF48471284640
:103BB0000AD0FFF737FFD5F81805627EE168885410
:103BC000607E401C607670BDFFF72CFFD5F81805AD
:103BD00070BD1FB501238DF800308DF808100192DB
:103BE000D0E90012684690471FBD000010B5094C8F
:103BF0000020D2B22070201DFFF7C8F818B1064A85
:103C00002D21FDF777FA6078002802D0217800296D
:103C1000FAD010BDC0000020645B00002DE9F8431D
:103C2000214C8846054691461F4669461846A668B7
:103C3000FDF738FB70B30098811C00220AE000BF3A
:103C400001EA060C59F8223004EB8C0C491C521C7A
:103C5000CCF80C30BA42F3D30246401C304004EB9F
:103C600080002B0CC36002EA060004EB8002E80629
:103C700052F80C0F02D540F0040001E020F00400DF
:103C800065F3C50067F3891068F39F2020F00300F7
:103C9000401C106094F81C0402E000BFFFF7A0FB7A
:103CA0000028FBD1BDE8F883AC15002070B5144D99
:103CB0000146284600F03DFD1249032204280DD09C
:103CC00030B1088810A102EB004000BFFFF7D4FC20
:103CD000284600F06BFD0026EC690DE008881A49C3
:103CE00002EB0040F2E72078032804D16188606885
:103CF000FDF76AFE0834761C288CB042F3D870BDFC
:103D000000000020700100204572726F72206475FF
:103D100072696E672070617273696E6720612074CA
:103D200061672E205072696E74696E6720776861D2
:103D30007420636F756C64277665206265656E20FC
:103D4000726561642E000000005300002DE9F0410F
:103D5000002714460D46102A18D3C078072802D031
:103D60000620BDE8F0813846FDF724F9154E4FF0E6
:103D7000030828B13188032308EB01403A4616E0D6
:103D8000A87BC00000F11001A14201D90420E8E79E
:103D9000C0F38707042411E005EB84012046FDF7FA
:103DA00009F948B13188E31C08EB0140224606A11D
:103DB000FFF76DFC0320D4E7241DE4B2BC42EBD333
:103DC0000020CEE7700100204661696C65642074B4
:103DD0006F207265616420626C6F636B733A20259B
:103DE000642D25640000000010B54FF48062054981
:103DF000FFF7ACFF002803D10248FFF757FF002070
:103E000010BD0000200200202DE9F047FEF760FC05
:103E1000304F02004FF0030804D0398808EB01400E
:103E20002DA134E0FEF7FCF8020004D0398808EB3D
:103E3000014038A12BE0424D2846FEF773F80200FE
:103E400004D0398808EB01403EA120E00026DFF8CD
:103E50001C912C6822E0A07C042801D0A07BD8B95A
:103E6000A089FEF763FB020004D0398808EB01400B
:103E70003FA10CE0C6EB06214944FF222846FEF78D
:103E80009FFB020008D0398808EB014043A1FFF7EF
:103E9000F7FB0320BDE8F0871434761CA888B042F5
:103EA000D9D82846FDF7CCFF00262C680CE0A07C72
:103EB000042801D0206828B1A1882068891E801CB0
:103EC000FDF782FD1434761CA888B042EFD800209C
:103ED000E0E70000700100204572726F7220283008
:103EE0007825582920647572696E67204E444546CE
:103EF00020546167204170706C69636174696F6EF2
:103F00002053656C6563742050726F6365647572CD
:103F1000652E00004572726F72202830782558296E
:103F200020647572696E672043432053656C656336
:103F3000742050726F6365647572652E0000000016
:103F4000240000204572726F72202830782558298D
:103F500020647572696E6720434320526561642056
:103F600050726F6365647572652E00002006002034
:103F70004572726F72202830782558292064757236
:103F8000696E67204E4445462053656C6563742016
:103F900050726F6365647572652E00004572726FB2
:103FA000722028307825582920647572696E672040
:103FB0004E44454620526561642050726F636564CB
:103FC0007572652E000000001FB541F28831684609
:103FD000FCF770FF10B1052004B010BD6846FCF777
:103FE000F9FF9DF8020000F03DF80D49032218B1D9
:103FF00001280BD00620EFE708880AA102EB004059
:10400000FFF73AFB6846FFF7EFFEE5E708880DA1EA
:1040100002EB0040FFF730FB6846FFF7F5FEDBE7F9
:10402000700100205479706520322054616720505F
:104030006C6174666F726D20646574656374656429
:104040002E20000054797065203420546167205080
:104050006C6174666F726D20646574656374656409
:104060002E200000C108C90703D1C0F34110022867
:1040700000D30220704700002DE9F84F1D4C0025A9
:104080006846D4E901A6FDF7B5F9002738B3002347
:10409000009A61681CE0D1F800C00846944503D935
:1040A000ACEB02020A6015E0A2EB0C02634407606D
:1040B000D0F80CC0C1698146BCF1000F08D006EBF6
:1040C000030828F07F48C0E9018CC9F81C50054658
:1040D0000029E0D128466160FDF7DEFA03E02846BA
:1040E000FDF7DAFA10B15046FDF72EF9E770BDE89A
:1040F000F88F0000400000200D4B10B5596831B119
:1041000002680C68A24204D8A21A0A60C161586011
:1041100010BD0B4603E00B46C969121B21B10C68A8
:104120009442F8D3A41A0C600260C161D86110BD3A
:10413000400000202DE9F041144E77683D462C46A2
:1041400003E0844204D02546E469002CF9D11BE049
:10415000D4B1A5420BD1F869706040B90C49012077
:1041600088600021B160F0702F20FEF78DFC21687F
:10417000E069E86110B1026811440160706887422B
:1041800002D00120BDE8F0810020FBE740000020C4
:10419000001001402DE9F041194D6C68002C2CD025
:1041A000184800270068A968B846401A20F07F46E2
:1041B0002068B0420CD82146361A0744E469087CCE
:1041C00020B181F81080886949698847002CEFD1B7
:1041D00029786878814206D1401CC0B268700228F4
:1041E00001D185F80180064869780C3040F82170CB
:1041F000BDE8F0411420FCF7F5BABDE8F0810000FD
:1042000040000020041501402DE9F041044640F231
:104210000C602168890001F1A041C1F800076168C4
:10422000890001F1A041C1F800072068FEF7CBFF2B
:104230006068FEF7C8FF216840F20D60890001F157
:10424000A041C1F800076168890001F1A041C1F8EF
:1042500000070420FEF7D2FB00274FF0A0460125FF
:104260002179D6F81005C84010F0010F02D0002FB8
:104270001DD010E0217805FA01F0C6F80C050420E5
:10428000FEF7BCFB2068FEF79EFF0420FEF7B6FB9E
:104290007F1C092FE4DB20798540C6F80C550420EB
:1042A000FEF7ACFB6068BDE8F041FEF78CBFBDE8EF
:1042B000F08101460320CA0701D04FF402408A076B
:1042C00001D548F20120490701D548F20220704784
:1042D0002DE9FE4F05460C4642F2107002901F4633
:1042E000934600264FF482712046FFF790FB4FF46F
:1042F00092712046FFF78BFB4FF48E712046FFF73B
:1043000086FB4FF484712046FFF781FB002085F87F
:10431000260085F82300012F0ED00121C4F80012D9
:10432000012121622160296861B140F28620A860E4
:10433000A868C4F804032BE00221EFE70298401EAE
:10434000029005E08046029805F1260A05F123094E
:10435000002809DDCDE900785B46524649462046F3
:1043600000F02DF80028E9D195F8230038B1D4F8F1
:10437000C404C4F8C40410B1FFF79BFF06460298BA
:10438000002805DCC4F800850520C4F800050326D4
:104390003046BDE8FE8F30B51C78039D944206D2AE
:1043A000095DC0F81C151878401C187005E0012143
:1043B00015B1C161002030BD4161012030BD2DE942
:1043C000FF4F81B0044608780E9E90460F4618B9FC
:1043D00098F80010B14201D1012100E00021894686
:1043E0004FF48E7B4FF4927160B12046FFF70FFBC4
:1043F00059462046FFF70BFB4FF484712046FFF728
:1044000006FB4DE08A462046FFF7FCFA012540BB3B
:1044100059462046FFF7F6FA98B159462046FFF76D
:10442000F6FA51462046FFF7EDFAD0B90F98009002
:104430004346324620460499FFF7ADFF00283ED0A0
:104440002EE04FF4847B59462046FFF7DBFA38B361
:1044500059462046FFF7DBFA51462046FFF7D2FACD
:1044600030B151462046FFF7D2FA65613D7017E042
:1044700098F8002004994046B24211D2D4F8183579
:104480008B540178701E491CC9B288F80010814213
:1044900003D10220C4F8000201E0B14200D025623D
:1044A000B9F1000F0ED04FF4827529462046FFF770
:1044B000A9FA38B129462046FFF7A9FA002005B02D
:1044C000BDE8F08F0120FAE72DE9F04F87B00546EF
:1044D0000C4642F2107004909A4693460026109FB4
:1044E0004FF482712046FFF792FA4FF49271204602
:1044F000FFF78DFA4FF48E712046FFF788FA4FF4DC
:1045000084712046FFF783FA0020C4F8000285F882
:104510002600804685F8230001202062A06005F176
:10452000260352465946204600970293FFF733FF71
:10453000286850B140F28620A860A868C4F8040337
:1045400026E00498401E049002E0049805F1230937
:10455000002809DDCDE900A75B4649462046029ABE
:10456000FFF72DFF0028ECD195F8230038B1D4F8DF
:10457000C404C4F8C40410B1FFF79BFE06460498B7
:10458000002805DCC4F800850520C4F800050326D2
:1045900007B03046BDE8F08FF8B504464FF0FF3065
:1045A000C1F8080394F8240020B1A068C1F80403FE
:1045B0001120F8BD43F38000401C84F82400180744
:1045C00001D50620F8BDA36192E8610004F10C0753
:1045D00087E86100907884F820005068E0615078A6
:1045E000C1F888051078002501280ED008B9980672
:1045F00001D5012000E0002084F82100009093788C
:1046000052682046FFF760FF06E084F82150937857
:1046100052682046FFF75CFE21680029D2D184F859
:104620002450F8BD70B50C4605464FF48E71FFF767
:10463000F9F9A18AA068415CA08A401CA082C5F853
:104640001C1570BD1FB500228DF800208DF80810D4
:10465000816801918275D0E90012684690471FBDBC
:1046600000210184C0F81210C182016041608160A4
:10467000C16070472DE9F0410C780470B1F8012059
:1046800053BA4380CD7805714A68CE7912BA22F0C8
:10469000FF02324382600E7A06734F7A477349896C
:1046A00049BA0182D8B284EA132180F088004140DF
:1046B000C2F3074080EA1260C2F307235840D2B227
:1046C00050408D4201D1864207D005480221008822
:1046D00001EB004003A1FEF7CFFF0020BDE8F08111
:1046E000940100205761726E696E67212042434336
:1046F000206F66207468652073657269616C206E36
:10470000756D626572206973206E6F7420636F72BD
:1047100072656374210000004AB1808A0A44103037
:10472000521E824203DA102901D301207047002073
:10473000704738B50D460446FFF792FF29462046DC
:10474000FFF798FF002805D1287B05F10C02E1282E
:1047500001D00B2038BD50780109A174507800F0C9
:104760000F01E1749078C100A182D0780109A17590
:10477000D07800F00F01E175A07C012801D006205F
:1047800038BD1020ADF80000A18A80B210318142FE
:104790000AD06A462946204600F084FA0028EFD164
:1047A000BDF800000028EFD1002038BD2DE9F0470A
:1047B0006C4F0446032538886BA105EB0040FEF7DB
:1047C0005BFF3888228C05EB00406DA1FEF758FF97
:1047D000388872A105EB0040FEF74EFF388822783A
:1047E00005EB004071A1FEF74BFF3888628805EBAE
:1047F000004077A1FEF744FF3888227905EB00409E
:104800007CA1FEF73DFF388883A105EB0040A2683C
:10481000FEF736FF3888227B05EB004087A1FEF7C4
:104820002FFF3888627B05EB00408DA1FEF728FF43
:104830003888228A05EB004092A1FEF721FF3888D4
:1048400099A105EB0040FEF717FF3888A27C05EB25
:1048500000409CA1FEF714FF3888E27C05EB004085
:10486000A0A1FEF70DFF3888A28A05EB0040A5A1A4
:10487000FEF706FF3888A27D05EB0040A9A1FEF7F0
:10488000FFFE3888E27D05EB0040AFA1FEF7F8FEA1
:1048900000264FF002094BE0E069B4A110F8362081
:1048A000388805EB0040FEF7EBFEE06910F83600B3
:1048B000032842D006DC002849D001280BD002286A
:1048C00004D10DE0FD283DD0FE2845D03888ACA1AC
:1048D00005EB004008E03888ABA105EB004003E0A1
:1048E0003888ADA105EB0040FEF7C6FEE16909EB93
:1048F000C608388831F8082005EB0040AAA1FEF769
:10490000BFFEE16931F8080088B13888AAA105EB3B
:104910000040FEF7B1FEE069042101EBC60130F86A
:1049200008204158388805EB0040FEF74BFE761C06
:10493000208CB042B0D8BDE8F0873888A1A105EB43
:104940000040D1E73888A3A105EB0040CCE73888C8
:10495000A3A105EB0040C7E73888A3A105EB004001
:10496000C2E7000094010020547970652032205481
:10497000616720636F6E74656E74733A00000000A7
:104980004E756D626572206F6620544C5620626CC5
:104990006F636B733A20256400000000496E7465F4
:1049A000726E616C20646174613A000020202020E6
:1049B0004D616E7566616374757265722049443A23
:1049C0002020202020203078253032780000000080
:1049D0002020202053657269616C206E756D6265C0
:1049E00072207061727420313A203078253034782A
:1049F0000000000020202020436865636B2062795E
:104A0000746520303A20202020202020202030787B
:104A10002530327800000000202020205365726984
:104A2000616C206E756D62657220706172742032E7
:104A30003A2030782530386C780000002020202083
:104A4000436865636B206279746520313A202020C9
:104A500020202020202030782530327800000000EF
:104A600020202020496E7465726E616C206279741A
:104A7000653A2020202020202020307825303278F0
:104A800000000000202020204C6F636B20627974AE
:104A900065733A20202020202020202020203078FC
:104AA00025303478000000004361706162696C69F0
:104AB000747920436F6E7461696E657220646174ED
:104AC000613A0000202020204D616A6F72207665D7
:104AD0007273696F6E206E756D6265723A2025641F
:104AE00000000000202020204D696E6F7220766546
:104AF0007273696F6E206E756D6265723A202564FF
:104B00000000000020202020446174612061726553
:104B1000612073697A653A202020202020202564B6
:104B20000000000020202020526561642061636342
:104B30006573733A20202020202020202020307808
:104B40002530325800000000202020205772697460
:104B500065206163636573733A2020202020202044
:104B6000202030782530325800000000544C562068
:104B7000626C6F636B203078253032583A20000029
:104B8000556E6B6E6F776E004C6F636B20436F6E6C
:104B900074726F6C000000004D656D6F7279204378
:104BA0006F6E74726F6C0000202020204C656E6761
:104BB00074683A202564000020202020446174613C
:104BC0003A0000004E444546204D657373616765A9
:104BD0000000000050726F70726965746172790034
:104BE0004E756C6C0D0A00005465726D696E6174CF
:104BF0006F7200002DE9F0474FF00009C3F80090F4
:104C00000D46C3F80490144611881E4680460122C2
:104C1000FFF782FD0B2770B32188685C3070208815
:104C2000401C81B221803278032A06D001DC22B9EF
:104C30001EE0FD2A01D0FE2A1ED040460122FFF7C9
:104C40006BFDC0B12188685CFF281AD07080208875
:104C5000401C208072885AB140462188FFF75CFDD5
:104C600048B12088284470602088718808442080DA
:104C70000020BDE8F08702E0A4F80090F8E738468D
:104C8000F7E703224046FFF747FD0028F7D02188C9
:104C9000681C0844008840BAFF28F0D37080208840
:104CA000C01CD6E71CB504466B46FFF7A3FF0028DF
:104CB00015D19DF8000002280CD003DC30B101288A
:104CC0000ED107E0FD280BD0FE2809D1BDF8021057
:104CD00021B905E0BDF80210032901D00B201CBD4D
:104CE000032806D001DC20B91CE0FD2801D0FE28F5
:104CF00018D0208C218B88420AD10B480221042431
:104D0000008801EB004009A1FEF7B6FC20461CBD5F
:104D1000E16901EBC000DDE90012C0E90012208C5E
:104D2000401C208400201CBD940100205761726E3D
:104D3000696E6721204E6F7420656E6F75676820FD
:104D40006D656D6F72792020746F20696E73657266
:104D50007420616C6C206F662074686520626C6FD3
:104D6000636B732100000000014901200870704747
:104D7000C000002010B588B0044620220F496846C4
:104D8000FBF714FB06200090C01F019002900390D7
:104D90004FF0EB7006900CB1094A00E00022694622
:104DA0000848FDF7BFFF18B1074A1D21FCF7A2F91B
:104DB0000448001F447008B010BD00001C520000E1
:104DC000694D0000C4000020645B00002DE9FF472E
:104DD0000C4605464FF40071FEF72AFE01274FF4FA
:104DE0000178002618B34FF4927949462846FEF719
:104DF00014FEE0B149462846FEF714FEC5F80883C4
:104E0000A07E00B96F6002208DF80000D5F8800404
:104E1000C5F880040390E07D8DF80800E0680190FB
:104E2000E6752676D4E900126846904727E004210B
:104E30002846FEF7FDFD10B34FF484712846FEF7B7
:104E4000ECFDE0B121462846FEF7AAFEE07D617E3A
:104E5000884214D1207E38B1617EE268E075206915
:104E6000E0602676667607E0A07E00B96F60C5F840
:104E70000883E675617EE2682046FEF7AAFE4FF4DD
:104E80008E7841462846FEF7C8FD88B1A08AA17DEC
:104E9000884204D221462846FFF7C4FB08E0414679
:104EA0002846FEF7BFFDA17D11B12046FFF7CAFBE2
:104EB0004FF4A27841462846FEF7AFFD002812D0F5
:104EC00041462846FEF7AEFDA07E00B12F60E07D92
:104ED000002808D0E675617EE26804B02046BDE88F
:104EE000F047FEF776BEBDE8FF872DE9FF410C468F
:104EF0004FF4927705463946FEF7A0FD0026C0B173
:104F000039462846FEF79FFD02208DF80000D5F8AF
:104F10008004C5F880040390D5F83C058DF808009E
:104F2000E0680190E6752676D4E90012684690475D
:104F300024E04FF4887739462846FEF77FFDE8B134
:104F400039462846FEF77FFDD5F83C05C1B2E07D25
:104F5000884213D1207E60B1E268D5F8000220F0CB
:104F60002000C5F80002207EE0752069E06026760A
:104F700001E0E675E2682046FEF72BFE4FF4A277CB
:104F800039462846FEF75AFD68B139462846FEF7ED
:104F90005AFDE07D38B1E675D5F83C05E268C1B24E
:104FA0002046FEF716FE4FF4907631462846FEF76F
:104FB00045FD00280FD031462846FEF744FDA07D70
:104FC000002808D0D5F84C0504B0C1B22046BDE891
:104FD000F041FFF737BBBDE8FF8100002DE9F05F2E
:104FE0008346DDE90A4A994690460D460846012760
:104FF00003E000BFB0FBF8F07F1C4045FAD2B94592
:1050000000D94F465FEACA7012D18CB15FEA8A704C
:1050100002D5B9F1000F01D0202607E0302605E0C7
:1050200031465846641EFCF76DF90CB1A742F7D320
:105030005FF00106B9F1010F02D9A9F1010903E0FE
:10504000B5FBF6F0404502D306FB08F6F2E7DFF8C1
:105050003C9000BFB5FBF6F000FB165519F80010A8
:105060005846FCF74FF9B6FBF8F6002EF2D15FEA8E
:10507000CA7009D0002C07D0A74205D2202158467B
:10508000641EFCF73FF9F5E7BDE8F09FFC50000017
:1050900010B5FCF7E7F80020FEF76AFB18B104A290
:1050A0004E21FCF727F8BDE81040FEF78BB9000051
:1050B0002E2E5C2E2E5C2E2E5C6D61696E2E630092
:1050C000111213140D0E0F100000FF00FF0000FF5F
:1050D00006FAD50300300040000000001F00000069
:1050E0001F00000000004006070000000000005004
:1050F00001000000000000000000000030313233E9
:10510000343536373839414243444546556E6B6E27
:105110006F776E206572726F7220636F6465000036
:1051200000000000345B000001000000F4590000A2
:10513000020000007458000003000000685A0000DC
:1051400004000000BC5A000005000000B459000033
:10515000060000005459000007000000A45A000097
:1051600008000000C859000009000000145A00009F
:105170000A0000001C5B00000B0000005C580000EF
:105180000C000000E05900000D000000405B000032
:105190000E000000945A00000F000000D05A0000DA
:1051A00010000000045B000011000000545B0000D0
:1051B0008000000094590000810000001859000090
:1051C00082000000D858000083000000B85800009A
:1051D00084000000F4580000850000006C590000B5
:1051E000860000007C5A0000900000003459000046
:1051F000910000009858000000820000E45A00006E
:1052000001820000305A0000028200004C5A000067
:105210007D330000653300005B330000FFFFFFFFBC
:10522000FFFFFFFFFFFFFFFFFFFFFFFF000000008A
:10523000000000000000D60107010000E00000208F
:10524000D8000020E0000020EC140020180000002E
:10525000A85C0000845C0000185C0000305C00006A
:10526000485C0000A05C00006C5C0000785C000002
:105270000000D276000085010100404040404040DF
:105280004040404141414141404040404040404019
:10529000404040404040404040400502020202027F
:1052A000020202020202020202022020202020202A
:1052B0002020202002020202020202909090909090
:1052C000901010101010101010101010101010105E
:1052D00010101010100202020202028888888888CA
:1052E00088080808080808080808080808080808BE
:1052F0000808080808020202024000007A52000072
:105300004E6F7420656E6F756768206D656D6F7286
:105310007920746F20726561642077686F6C6520F6
:105320007461672E205072696E74696E67207768A9
:105330006174277665206265656E20726561642EF2
:105340000000000044617461206275732065727210
:105350006F72202872657475726E20616464726564
:10536000737320696E2074686520737461636B20A9
:105370006672616D65206973206E6F742072656C52
:105380006174656420746F2074686520696E73743D
:1053900072756374696F6E207468617420636175DF
:1053A00073656420746865206572726F72290000ED
:1053B0004461746120627573206572726F72202877
:1053C00050432076616C756520737461636B65640E
:1053D00020666F72207468652065786365707469F3
:1053E0006F6E2072657475726E20706F696E747363
:1053F00020746F2074686520696E737472756374AD
:10540000696F6E20746861742063617573656420D0
:10541000746865206661756C74290000436175735A
:10542000653A204275734661756C74206F6E206119
:1054300020766563746F72207461626C652072659A
:10544000616420647572696E672065786365707445
:10545000696F6E2070726F63657373696E672E007B
:105460005468652070726F636573736F7220686132
:105470007320657865637574656420616E2053449C
:105480004956206F72205544495620696E737472D4
:10549000756374696F6E2077697468206120646930
:1054A0007669736F72206F66203000005468652043
:1054B00070726F636573736F7220686173206174BB
:1054C00074656D7074656420746F206578656375AC
:1054D000746520616E20696E737472756374696F90
:1054E0006E2074686174206D616B657320696C6CEB
:1054F0006567616C20757365206F66207468652030
:1055000045505352000000005468652070726F636C
:105510006573736F722068617320617474656D7058
:1055200074656420616E20696C6C6567616C206CC9
:105530006F6164206F66204558435F524554555251
:105540004E20746F207468652050432C20617320B6
:105550006120726573756C74206F6620616E2069BE
:105560006E76616C696420636F6E746578742C204C
:105570006F7220616E20696E76616C696420455897
:10558000435F52455455524E2076616C756500005C
:105590005468652070726F636573736F72206174F5
:1055A00074656D707465642061206C6F6164206F38
:1055B000722073746F72652061742061206C6F6358
:1055C0006174696F6E207468617420646F65732004
:1055D0006E6F74207065726D697420746865206FD9
:1055E0007065726174696F6E0000000041204D6546
:1055F0006D4D616E616765206661756C74206F63C7
:1056000063757272656420647572696E6720666C7A
:105610006F6174696E672D706F696E74206C617A4A
:105620007920737461746520707265736572766138
:1056300074696F6E0000000041206275732066611E
:10564000756C74206F636375727265642064757223
:10565000696E6720666C6F6174696E672D706F6923
:105660006E74206C617A7920737461746520707235
:1056700065736572766174696F6E000054686520A9
:1056800070726F636573736F7220686173206174E9
:1056900074656D7074656420746F206578656375DA
:1056A000746520616E20756E646566696E65642040
:1056B000696E737472756374696F6E00496E73748A
:1056C00072756374696F6E20627573206572726F94
:1056D000720000005468652070726F636573736FA9
:1056E000722068617320617474656D7074656420E4
:1056F000746F20616363657373206120636F7072E0
:105700006F636573736F7200556E737461636B20A2
:10571000666F7220616E20657863657074696F6E64
:105720002072657475726E20686173206361757391
:105730006564206F6E65206F72206D6F72652061E9
:1057400063636573732076696F6C6174696F6E73E0
:1057500000000000537461636B696E6720666F72AE
:1057600020616E20657863657074696F6E20656E68
:105770007472792068617320636175736564206F4A
:105780006E65206F72206D6F726520616363657353
:10579000732076696F6C6174696F6E73000000002E
:1057A0005468652070726F636573736F72206861EF
:1057B00073206D61646520616E20756E616C696730
:1057C0006E6564206D656D6F7279206163636573CA
:1057D00073000000556E737461636B20666F7220F6
:1057E000616E20657863657074696F6E2072657490
:1057F00075726E2068617320636175736564206FD4
:105800006E65206F72206D6F726520427573466100
:10581000756C747300000000537461636B696E678C
:1058200020666F7220616E20657863657074696FA1
:105830006E20656E74727920686173206361757380
:105840006564206F6E65206F72206D6F72652042F7
:1058500075734661756C7473000000004E52465FAC
:105860004552524F525F494E56414C49445F444164
:10587000544100004E52465F4552524F525F534FC3
:1058800046544445564943455F4E4F545F454E414B
:10589000424C4544000000004E52465F4552524F74
:1058A000525F464541545552455F4E4F545F454EF9
:1058B00041424C45440000004E52465F4552524F13
:1058C000525F4D555445585F554E4C4F434B5F46C4
:1058D00041494C45440000004E52465F4552524FEC
:1058E000525F4D555445585F4C4F434B5F464149BD
:1058F0004C4544004E52465F4552524F525F4D5503
:105900005445585F434F4E445F494E49545F4641AA
:10591000494C4544000000004E52465F4552524FEC
:10592000525F4D555445585F494E49545F46414971
:105930004C4544004E52465F4552524F525F4150D3
:10594000495F4E4F545F494D504C454D454E54456F
:10595000440000004E52465F4552524F525F4E4F38
:10596000545F535550504F52544544004E52465F79
:105970004552524F525F4D4F44554C455F414C523A
:10598000454144595F494E495449414C495A45445F
:10599000000000004E52465F4552524F525F4D4F3D
:1059A00044554C455F4E4F545F494E495449414C14
:1059B0005A4544004E52465F4552524F525F4E4F39
:1059C000545F464F554E44004E52465F4552524F2B
:1059D000525F494E56414C49445F5354415445002F
:1059E0004E52465F4552524F525F444154415F53BD
:1059F000495A45004E52465F4552524F525F5356E8
:105A0000435F48414E444C45525F4D495353494EC4
:105A1000470000004E52465F4552524F525F494E7A
:105A200056414C49445F4C454E47544800000000E5
:105A30004E52465F4552524F525F4452565F545742
:105A4000495F4552525F414E41434B004E52465FC3
:105A50004552524F525F4452565F5457495F455228
:105A6000525F444E41434B004E52465F4552524FA7
:105A7000525F494E5445524E414C00004E52465FD3
:105A80004552524F525F53544F524147455F46551E
:105A90004C4C00004E52465F4552524F525F4E559D
:105AA0004C4C00004E52465F4552524F525F494E99
:105AB00056414C49445F504152414D004E52465F61
:105AC0004552524F525F4E4F5F4D454D0000000012
:105AD0004E52465F4552524F525F464F52424944E2
