:020000040000FA
:1000000080220020150200001D0200001F020000D7
:100010002102000023020000250200000000000071
:1000200000000000000000000000000027020000A7
:1000300029020000000000002B0200002D02000039
:10004000150500002F0200002F0200002F02000003
:100050002F0200002F020000FD0200002F0200000E
:100060002F0200002F0200002F0200002F020000CC
:100070002F0200002F0200002F0200002F020000BC
:10008000710700006D0500002F0200002F02000024
:10009000910500002F0200002F0200002F02000037
:1000A0002F0200002F0200002F0200002F0200008C
:1000B0002F0200002F0200000000000000000000DE
:1000C0002F0200002F0200002F0200002F0200006C
:1000D0002F0200002F0200002F0200002F0200005C
:1000E0002F0200002F0200002F020000000000007D
:1000F000000000002F020000000000002F0200009E
:1001000000000000000000000000000000000000EF
:1001100000000000000000000000000000000000DF
:1001200000000000000000000000000000000000CF
:1001300000000000000000000000000000000000BF
:1001400000000000000000000000000000000000AF
:10015000000000000000000000000000000000009F
:10016000000000000000000000000000000000008F
:10017000000000000000000000000000000000007F
:10018000000000000000000000000000000000006F
:10019000000000000000000000000000000000005F
:1001A000000000000000000000000000000000004F
:1001B000000000000000000000000000000000003F
:1001C000000000000000000000000000000000002F
:1001D000000000000000000000000000000000001F
:1001E000000000000000000000000000000000000F
:1001F00000000000000000000000000000000000FF
:10020000DFF80CD000F068F8004800472912000021
:10021000802200200648804706480047FEE7FEE7A8
:10022000FEE7FEE7FEE7FEE7FEE7FEE7FEE7FEE7A6
:1002300095050000010200002DE9F05F0546002051
:1002400092469B4688460646814640241BE0284647
:1002500041464746224600F02FF853465A46C01AF8
:10026000914110D311461846224600F016F82D1A77
:1002700067EB01084F4622460120002100F00DF8EF
:1002800017EB00094E41201EA4F10104DFDC4846B3
:1002900031462A464346BDE8F09F202A04DB203A37
:1002A00000FA02F1002070479140C2F1200320FAC9
:1002B00003F3194390407047202A04DB203A21FAC7
:1002C00002F00021704721FA02F3D040C2F120026F
:1002D0009140084319467047064C074D06E0E06818
:1002E00040F0010394E8070098471034AC42F6D37D
:1002F000FFF78AFF081B0000281B00002DE9F04FC4
:1003000000268DB0DFF8A081B14604964FF48075C9
:10031000012437460596284601F0D8F838B1D8F8B8
:100320000403204203D0284601F0C6F826432D1DC1
:1003300064007F1CADB2082FEDD34FF4BE7420468D
:1003400001F0C4F848B1204601F0B6F846F0004686
:1003500004AA0221002001F099F8544C16F0FF0F76
:1003600015D00127002537420DD008EB8501D1F8C3
:100370001005D1F81015C0F3052054F82520C1F35D
:10038000014102B190477F006D1C082DEBD3002E78
:100390007EDA0020CDF82890411E0DF1100B07AA3F
:1003A000CDF82C9042F82010401C91460228F9D339
:1003B00000252E46A11911F8607F91F9000027F061
:1003C000C008401C40D007A9404600F07BFF40B366
:1003D0004FEA971A404600F04FFD54F820701FB1C5
:1003E000BAF1030F03D006E0BAF1030F2CD10AA92A
:1003F000404600F06FFF02A8CDF8088001F01AF81F
:10040000029900EB8100D0F8000704A9C0F3014075
:100410000290404600F056FF0028029802D00228C1
:1004200002D011E003280FD1BAF1030F08D10298CE
:10043000022833D00221404600F0D6FF6D1CEDB2F9
:1004400017B151464046B847761C042EB2D3002D52
:1004500021D001AA0221002001F018F800205A46FC
:100460000DF1040152F8206051F82030B34217D04A
:1004700000200AAE4FEA090351F8207042F82070BC
:1004800056F8207043F82070401C0228F4D300E096
:1004900001E0002D8CD10DB0BDE8F08F0321CAE73B
:1004A000401C0228DED3F6E700600040E400002094
:1004B00000F01F02012191404009800000F1E0207E
:1004C000C0F88012704700F01F02012191404009DE
:1004D000800000F1E020C0F80011704700F01F021A
:1004E000012191404009800000F1E020C0F8001295
:1004F00070474907090E002806DA00F00F0000F1E6
:10050000E02080F8141D704700F1E02080F800140E
:100510007047000070B54FF48076304600F0E4FE7E
:10052000114CB50560B1304600F0E5FE0120C5F87C
:100530000803607920B90120607121680020884794
:100540004FF48276304600F0CFFE00280AD03046C5
:1005500000F0D1FE0220C5F808032168BDE8704014
:100560000120084770BD000014000020074800214A
:10057000C0F84011C0F84411C0F84811C0F84C113F
:10058000C0F80011C0F8041101F02EBA00100140AB
:1005900001F07CB930B54FF0805000228300D0F8D4
:1005A0003011C3F80C21C3F81021624B1A60624B62
:1005B0001B68624C2360604B1B1D1B68241D23605D
:1005C0005D4B08331B68241D23605B4B0C331B6899
:1005D000241D2360584B10331B68241D2360564B89
:1005E00014331B68241D2360534B18331B68534C72
:1005F00020342360504B1C331B68241D23604E4B5A
:1006000020331B68241D23604B4B24331B68241D9F
:100610002360494B28331B68241D2360464B2C3331
:100620001B68241D2360444B30331B68434C40340B
:100630002360414B34331B68241D23603E4B383309
:100640001B68241D23603C4B3C331B68241D236026
:10065000394B40331B68241D23600124082902D133
:10066000D0F8343113B1082904D006E0354B3449B1
:10067000196005E0D0F8343113B1082904D006E040
:10068000314BFB21196005E0D0F8343113B1082952
:1006900008D00EE090F858322C48016863F303014B
:1006A000016002E0D0F834311BB929494FF40070E1
:1006B000086028480168C90702D06FF00101016095
:1006C0002548016841F470010160BFF34F8FBFF30B
:1006D0006F8F4FF01021D1F80002002803DBD1F812
:1006E0000402002822DA1D4B1C601D480468002CFF
:1006F000FCD01224C1F800420568002DFCD0C1F8DE
:10070000044201680029FCD01A6001680029FCD06D
:10071000BFF34F8F10487C380168124A01F4E06142
:1007200011430160BFF34F8F00BFFDE70F490E4833
:10073000086030BD380500400404001020C50040AA
:10074000488103008C56004018F50040E40E00403C
:10075000409602400004004088ED00E004E50140BE
:1007600000E401400400FA050090D003600000207E
:10077000094882B0D0F804034FF0000110F0010FD7
:1007800007D006480160006800900548406802B044
:10079000004702B070470000000001400001014026
:1007A0001C00002002E008C8121F08C1002AFAD16C
:1007B00070477047002001E001C1121F002AFBD1E1
:1007C0007047022000F028B970B50024064D06E0FD
:1007D0006868012110F8340000F0BEFE641C28781F
:1007E0008442F5D3002070BD28000020F8B51546DE
:1007F0000C460646052A01D20720F8BD00F0A4FFEA
:1008000018B900F067FF0028F7D1124900224E60A6
:100810000C708D60C1E90422C1E906220E4D0DE085
:1008200006EBC4002968009181788DF801100078EA
:100830000A4A694600F0DCFE0028DED1641EE4B2FC
:10084000EED2BDE8F84004480021054A001D00F042
:1008500017B8000028000020EC1A0000511000001A
:10086000790F000000F012F9FEE70EB500210091AB
:10087000CDE901106A4644F20100FFF7F3FF0EBD17
:10088000074B9B7823B12AB120B10068037C1BB1D0
:10089000082070470720704741744261002070476C
:1008A0007001002070B500F0D3FF104800240B2128
:1008B000047044700E4D817014206C602C706C704C
:1008C000FFF7F6FD07211420FFF713FE1420FFF7B2
:1008D000FAFD0848046007211120FFF70AFE0548C9
:1008E000001F0068A860002070BD0000700100209B
:1008F00048000020081501402DE9F843DFF870900A
:1009000099F802305BB350B3052902D20720BDE845
:10091000F88343691BB3437C012B22D00027044694
:10092000002588461646284600F036F8684601F04D
:1009300095F8C0B1012101700E4944600968C0E911
:100940000218C0E904769DF8000089F80100002033
:1009500000F024F81420FFF7C1FD2846D7E708204F
:10096000D5E70F46DBE70425002000F017F8F4E791
:1009700070010020041501400649897839B130B171
:10098000416921B100210174022101F00DB8082054
:10099000704700007001002000F002B800F008B8B5
:1009A00072B602480168491C016070475C00002073
:1009B00003490868401E086000D162B67047000015
:1009C0005C0000202DE9FC410646C0074FF0000501
:1009D0000ED0104F00240122385D009500231146EF
:1009E000019500F0CFFC641C042CF4D300F04EF809
:1009F000B0070DD5074E0024361D0022305D0323BD
:100A000000951146019500F0BDFC641C042CF4D344
:100A1000BDE8FC81B01A0000094908B5085C0090E7
:100A2000684600F0F9FCD0F80425009B01219940AC
:100A300021EA0203C0F808351140C0F80C1508BDC2
:100A4000B01A00000249085C012100F00CBD000052
:100A5000B01A00000249085C002100F004BD00004B
:100A6000B01A0000084908B5085C0090684600F01C
:100A7000D3FCD0F804050099C84010F0010000D064
:100A8000012080F0010008BDB01A000010B500245C
:100A90002046FFF7D7FF641C042CF9D310BD10B516
:100AA00000242046FFF7D6FF641C042CF9D310BDA8
:100AB00010B50246064B4FF0FF3000215C5C9442BB
:100AC00001D1084610BD491C0429F7D310BD000010
:100AD000B41A00002DE9F0470D468146FFF7E8FF04
:100AE0000446042836D2DFF874801B481C4EA8F157
:100AF0000C0725B3012D0ED0022D2BD104EB4400A1
:100B000030444578002D25D0B968002922D02846E8
:100B1000BDE8F047084704EB4401755C0E4471786A
:100B200049B10E4A4FF40041093A8068FFF7E4FEEC
:100B300008B987F80390B17808F80410E2E78068F4
:100B4000FFF71AFF04EB4401314418F804008D78D4
:100B5000A842D7D0BDE8F087B81A000010000020E6
:100B6000A4000020FFF730BE0E2803D10248007811
:100B700000F012BE704700000000002070B5002396
:100B8000042810D20D4D00EB4004012A02D10129A6
:100B90000CD00022094E00EB4000304461B1012925
:100BA00006D0022906D00723184670BD0E30C2B207
:100BB0002A55F9E74270F7E78270F5E7A4000020B4
:100BC00070B506461E480024C0E90161B00720D573
:100BD0000025012211462846FFF7D0FF6D1C044670
:100BE000042D02D2002CF4D013E094B940F26662D6
:100BF00004211448FFF7FAFD04000AD1FFF7E4FDD1
:100C0000040006D10F48104A0021001FFFF738FEEC
:100C10000446F00712D00120FFF7D4FE74B909484A
:100C20000A4A00210C38FFF72BFE040006D10548C4
:100C3000074A01210838FFF723FE0446204670BD0D
:100C400004000020C41A00000D0E00001D11000059
:100C5000C30700002DE9F05F6A4C05460026607866
:100C6000B34618B184F801B000F040FA664F4FF473
:100C70007A694FF4C87A4FF00108182D62D2DFE884
:100C800005F0AC0C0C31404D62676B746B74BE7D2B
:100C90007D7D7D7DACAFB2B5BEBE0020FFF7E2FE2C
:100CA00000284FF0000008D0FFF7CCFE022D02D143
:100CB0004FF4E16008E0484606E0FFF7CBFE022D66
:100CC00001D1C82000E05046410CC0034FF4FA7235
:100CD000801841F10001257052000023FFF7ACFAA3
:100CE00001462AE00020FFF7BDFE00284FF000007B
:100CF00004D0FFF7A7FE4FF44870E5E7FFF7AAFE20
:100D0000DFE70020FFF7AEFE00284FF0000002D022
:100D1000FFF798FECFE7FFF79DFED4E70020FFF72F
:100D2000A1FE00284FF0000002D0FFF78BFE01E08B
:100D3000FFF790FE257041F69A1100223868FFF700
:100D4000DBFD064646E00020FFF766FE257008E062
:100D5000002051E025703DE084F801800120FFF77C
:100D60005BFE002240F6CD41E8E784F801800120D7
:100D7000FFF752FE00224FF48041DFE77868FFF76B
:100D8000FBFD0646D5F1110000D02EB10220FFF781
:100D900059FE84F802B01DE0012816D980B2C8219E
:100DA0004843C117C90341EA5041C0034FF4FA72E6
:100DB000801841F1000152000023FFF73DFA01467F
:100DC00000227868FFF798FD06460220FFF742FEF2
:100DD00084F802803046BDE8F09F00F087F9B9E75B
:100DE00000F084F9B4E700F081F904E000F07EF946
:100DF0000020FFF72FFE0120FFF72CFEAAE7FFF7E8
:100E00004EFEA7E704000020B81A00000078022177
:100E1000FFF760BE05494FF0FF32082841F8202057
:100E200002D3084480F8582070470000E4000020F6
:100E3000F0B54FF0FF3512B10023082601E008237A
:100E40000C260C4C05E000BF54F823707F1C04D026
:100E50005B1CB342F8D32846F0BD26185DB286F875
:100E6000305044F82310002AF5D1E11881F85800D9
:100E7000F1E70000E40000200249084490F9300046
:100E800070470000E400002070B5084C050009D050
:100E900010342168002907D0086820604968284676
:100EA0008847F6E70834F4E770BD0000D000002062
:100EB000054A012120B1012805D19170FFF7E4BF57
:100EC00051700020FAE77047D00000202DE9F05F54
:100ED00026484168F1B3DFF898B00E688146DBF828
:100EE000004087688078E11B21F07F45ED1CB0B998
:100EF000DFF880804FF48030C8F84403C8F804035A
:100F00001120FFF7D5FA1120FFF7DDFA4FF0010AA3
:100F1000C8F800A02F2000F017FB89F802A0B54206
:100F200000D23546124BE8193C3320F07F40186060
:100F3000DBF800105A46091B21F07F41001B20F00E
:100F40007F40C91C81420FD9106818602F2000F023
:100F5000FBFA00E004E0BDE8F05F1120FFF7BEBA45
:100F6000BDE8F05F00F074BCBDE8F09F48000020D1
:100F700004150140001001402DE9F0470025DFF87D
:100F80008C803CE06068002100EBC50601203278CF
:100F90009146FFF782F9D4E9062300EA020701EA45
:100FA000030C57EA0C0728D082438B434846C4E918
:100FB000062300F087FB327882469146012000210B
:100FC000FFF76BF9D4E9042300EA020401EA0307FE
:100FD0004A4650460021FFF760F944404F403C43E9
:100FE0000BD17078012801D0012100E00021726846
:100FF00081EA0A010AB1484690476D1CEDB298F8A3
:10100000000044468542BDD3BDE8F087280000209B
:101010000E4910B50A784C780023A24212D0521C17
:10102000D2B20A70022A00D10B70084A0B780C3237
:1010300052F8232002608868104420F07F408860C6
:10104000012010BD0360002010BD000048000020FA
:101050002DE9F0418046024601200021FFF71DF9ED
:101060001A4F05460E467868FFF786FC00280CD11B
:10107000174CD4E9062110462A4001EA06031A4318
:1010800005D0A843B143C4E90601BDE8F08140465C
:1010900000F018FB30B1D4E9040128433143C4E91E
:1010A000040105E0D4E90410A943B043C4E90410E5
:1010B000D4E9060128433143C4E90601A1687868F0
:1010C000BDE8F0410022FFF717BC0000EC1A000059
:1010D000280000200268134602E08A4204D0126809
:1010E000002AFAD10B600160704700000A4810B571
:1010F000807860B1002401E0022C06D02046FFF782
:10110000A1FC641C042CF7D310BD0324F6E7BDE852
:101110001040FFF7BBBC0000040000200348017929
:10112000C90702D00078FFF795BD70470400002082
:101130002DE9F047394E002780463D46DFF8E09024
:10114000D6F804A057E003D00446D0F81C8035E060
:1011500099F8002002EB4201521CD2B289F800201B
:1011600009EBC10199F80230091D9A4201D189F8B1
:10117000005048680A780446012A12D0022A02D098
:10118000032A3BD108E000F0DFFB00B10127257402
:1011900034E00574C06900E070680028F9D170601F
:1011A0002CE0207C50BB88686060C868A06008693B
:1011B000E0604869A061F07800B165606268B1687C
:1011C000184B501A20F07F40984202D2A168084480
:1011D00006E0881AA16820F07F40814202D9081AEF
:1011E000206000E0256065600120A5602074204635
:1011F000E56100F08BFBB8F10000A4D199F8001074
:1012000099F801008142A3D117B97168514502D004
:101210000120BDE8F0870020FBE700004800002027
:1012200070010020FFFF7F000EB500F06DF808B1DF
:10123000FFF71BFB002000F081F8FFF733FB08B13C
:10124000FFF713FB1B490220FFF7BAFC08B1FFF7B9
:101250000CFB0120FFF7B6FB174A07CA8DE8070011
:101260006846164900F0B2FA08B1FFF7FEFA1448D2
:1012700000F074FA08B1FFF7F8FA00F099FA0E4D91
:101280000024143D4FF47A47C826691C3846884725
:10129000761EFAD12046FFF7DDFB641C042CF3D345
:1012A000FFF760FC08B1FFF7E0FA40BF20BF20BFA6
:1012B000FBE70000690B0000A41A00008D1A000073
:1012C00000000020C20800F007030120895C98405C
:1012D0000840704710B5C20800F00703885C01247D
:1012E0009C402043885410BD00F1804000680028D5
:1012F00000D00120704708B500F180400021016056
:101300000068009008BD000070B50A4C207808B154
:1013100085250CE00020A06060602061E060064848
:1013200000F0F2F8054600F0D9F8012020702846B8
:1013300070BD0000D0000020B10E000070B5104D4F
:101340000446A87838B114B16168012088470020AC
:10135000FFF722FB0CE00020FFF71EFB24B108483A
:1013600021461030FFF7B6FEE86808B900F0DCF857
:10137000E868401CE860BDE870400020FFF70EBB45
:10138000D00000202DE9FF411C46DDE90A78154612
:101390000E46684600F040F846EA450141EA8401FD
:1013A00041EA072242EA0841009A00EB8200C0F8B5
:1013B0000017BDE8FF812DE9FF411C46DDE90A78F1
:1013C00015460E46684600F035F846EA450141EA02
:1013D000840141EA072242EA0841009A00EB8200B8
:1013E000C0F80017BDE8FF8113B50C46684600F051
:1013F00021F8009900EB8101D1F8002722F4403256
:10140000C1F80027009900EB8100D0F8001741EAED
:101410000441C0F800171CBD0168202902D24FF01A
:10142000A040704701F01F010160014870470000B3
:10143000000300500168202902D24FF0A0407047FD
:1014400001F01F01016001487047000000030050D7
:1014500001B56846FFF7EEFFD0F810050099C840C7
:1014600000F0010008BD38B501240090684631B194
:10147000FFF7D2FF00998C40C0F8084538BDFFF750
:10148000CBFF00998C40C0F80C4538BD1CB5094C09
:101490000144D4E90034CDE900346C4606E000BFD5
:1014A00054F82030D3F81035401C08C28142F7D8D8
:1014B0001CBD0000E41A0000034908B508440021DF
:1014C00001600068009008BD00600040024940587B
:1014D000012800D0002070470060004008480068E4
:1014E000012110F0010F08D14FF0E020E02280F838
:1014F0000024C0F88012C0F8001102480160704753
:1015000000E100E0180500400649024600200B7982
:101510000BB1852070470A6001220A7100224A71CE
:10152000704700001400002010B54FF48270FFF7E0
:10153000E2FE02204107C1F80403024901200860CD
:1015400010BD000008000040002802D001498001C1
:1015500008477047011B00002DE9F0410E46804608
:1015600000F05EF9204D0028404616D0FFF784FCBD
:10157000284490F858008009032802D001280AD096
:1015800003E04046FFF764FF28B103214046BDE871
:10159000F041FFF729BF0221F8E700F04DF90028DC
:1015A00020D04046FFF768FC0446104F4FF480708F
:1015B00007EB840100EB8400D1F8102580B242F0E3
:1015C0000102C1F81025FFF777FF002E0AD0404630
:1015D000FFF752FC55F82000002803D00120A0405E
:1015E000C7F80403BDE8F081E4000020006000407B
:1015F0002DE9FC41DFF8C080044608EB0400002719
:1016000090F930001346C0170E46401C01D0082741
:101610004FE0B0781946C0F340022046FFF708FCBF
:101620000546401C44D0B07841071CD4C0070DD0FB
:1016300068460094FFF7FEFE009900EB8100D0F8A9
:10164000001721F00201C0F8001707E000217378AD
:10165000204600910A460191FFF7ADFE164920464B
:101660006431FFF737FEB078800718D5134831781A
:1016700000EB8500D0F81025114B1A40C0F810255A
:101680004FF47C524FF4403302EA042203EA014152
:101690000A43D0F810150A43C0F8102509E008EBFA
:1016A0000500327810F8581F41EA8211017000E0FD
:1016B00004273846BDE8FC81E400002000600040BB
:1016C000FFC0FCFF10B5FFF7C3FE002800D00120CB
:1016D00010BD000070B5194D95F86A0008B10820DA
:1016E00070BD0020411E2A18401CC0B282F8301084
:1016F0003028F8D300242046FFF78CFB641CE4B2AA
:101700000C2CF8D30D490024E0204C66A1F8684069
:101710000B4981F8000401264020891FC1F880028E
:10172000C1F800014FF4BE70FFF7C6FE0549F0078F
:10173000C1F8040385F86A60204670BDE40000200B
:1017400006E000E000600040034890F86A000028CE
:1017500000D0012070470000E400002010B50446CE
:101760000020FFF719F90A48816808290AD2217078
:101770004A1C82600748026801238B401A430260BA
:10178000002400E004240020FFF708F9204610BDE3
:101790001C00002008050140044A034902EB8000B8
:1017A000C0F80016704700003546526E0000014038
:1017B00004490120C1F804030860034902200870AD
:1017C00070470000000001401C000020114A5160D9
:1017D000117809B108207047012111700E4A017873
:1017E000116041684FF47A72C903B1FBF2F10A4A01
:1017F000083A1160007A0949400181F800044FF06D
:10180000E0224FF480310020C2F88012C2F80011AB
:10181000704700001C0000200C05014010E000E0B3
:101820000449084490F93000082801DB0120704782
:1018300000207047E40000200449084490F930007B
:10184000082801D20120704700207047E4000020E2
:1018500070B5012670044FF0E0210025C1F8800129
:10186000084C4010C4F84803C4F8080366602F20F1
:10187000FFF76AFEA660044C2F20A560FFF764FE08
:10188000A57070BD00100140480000202DE9F84F00
:101890001D4C00256846D4E901A6FFF7B9FB0027D7
:1018A00038B30023009A61681CE0D1F800C00846F4
:1018B000944503D9ACEB02020A6015E0A2EB0C02DE
:1018C00063440760D0F80CC0C1698146BCF1000FC9
:1018D00008D006EB030828F07F48C0E9018CC9F85E
:1018E0001C5005460029E0D128466160FFF720FC26
:1018F00003E02846FFF71CFC10B15046FFF7E6FA5C
:10190000E770BDE8F88F0000480000200D4B10B5CF
:10191000596831B102680C68A24204D8A21A0A6060
:10192000C161586010BD0B4603E00B46C969121B2C
:1019300021B10C689442F8D3A41A0C600260C16112
:10194000D86110BD480000202DE9F041144E7768A1
:101950003D462C4603E0844204D02546E469002C31
:10196000F9D11BE0D4B1A5420BD1F869706040B940
:101970000C49012088600021B160F0702F20FFF732
:10198000E3FD2168E069E86110B10268114401607B
:101990007068874202D00120BDE8F0810020FBE79B
:1019A0004800002000100140F8B5064600240D460E
:1019B0002046FEF7F1FF684600F050F868B1057068
:1019C000084946609DF8000048700020FEF7E6FFD9
:1019D0001420FEF783FD2046F8BD04240020FEF706
:1019E000DDFFF8E7700100202DE9F041194D6C682A
:1019F000002C2CD0184800270068A968B846401A67
:101A000020F07F462068B0420CD82146361A0744A1
:101A1000E469087C20B181F81080886949698847A9
:101A2000002CEFD129786878814206D1401CC0B2E1
:101A30006870022801D185F80180064869780C3069
:101A400040F82170BDE8F0411420FEF747BDBDE825
:101A5000F081000048000020041501400A494A783E
:101A60008B78521CD2B2934200D100220B78934261
:101A700001D1002070470270487800EB400001EB74
:101A8000C000001D7047000070010020FEF7FEBF7F
:101A90000338FDD87047000001000000D0070000A7
:101AA0000700000001000000D00700000700000050
:101AB0000D0E0F100B0C181964000020840000207C
:101AC000B00000200B000300D50A00000C0003004A
:101AD000D50A000018000300D50A00001900030011
:101AE000D50A000000000050000300500300000071
:101AF0005001002000000000000000000000000075
:101B00000338FDD870470000281B000000000020AB
:101B100064000000A40700008C1B0000640000208B
:101B20001C220000B40700000000000000000000BC
:101B300000000000000000000000000000000000A5
:101B40000000000000000000000000000000000095
:101B50000000000000000000000000000000000085
:101B60000000000000000000000000000000000075
:101B70000000000000000000000000000000000065
:0C1B800000000000000000000090D003F6
:0400000500000201F4
:00000001FF
