:020000040000FA
:10000000E82B00204D0300005503000057030000BB
:10001000590300005B0300005D03000000000000C6
:100020000000000000000000000000005F0300006E
:10003000610300000000000063030000650300008E
:1000400067030000CD070000490D000067030000B2
:1000500067030000670300007504000067030000E9
:10006000E50C000067030000670300006703000061
:1000700067030000670300006703000067030000D8
:1000800067030000E5080000670300006703000045
:10009000090900000D090000670300006703000064
:1000A00067030000670300006703000067030000A8
:1000B000670300006703000000000000000000006C
:1000C0006703000067030000670300006703000088
:1000D00067030000670300006703000000000000E2
:1000E0000000000000000000000000000000000010
:1000F0000000000000000000000000000000000000
:1001000000000000000000000000000000000000EF
:1001100000000000000000000000000000000000DF
:1001200000000000000000000000000000000000CF
:1001300000000000000000000000000000000000BF
:1001400000000000000000000000000000000000AF
:10015000000000000000000000000000000000009F
:10016000000000000000000000000000000000008F
:10017000000000000000000000000000000000007F
:10018000000000000000000000000000000000006F
:10019000000000000000000000000000000000005F
:1001A000000000000000000000000000000000004F
:1001B000000000000000000000000000000000003F
:1001C000000000000000000000000000000000002F
:1001D000000000000000000000000000000000001F
:1001E000000000000000000000000000000000000F
:1001F00000000000000000000000000000000000FF
:10020000DFF80CD000F024F9004800473D2400003E
:10021000E82B002030B4044654E8000F0D4644E8B3
:100220000053002BF8D1156030BC704730B4044641
:1002300054E8000F40EA010544E80053002BF7D1D1
:10024000156030BC704730B4044654E8000F00EA33
:10025000010544E80053002BF7D1156030BC70470E
:1002600030B4044654E8000F80EA010544E8005326
:10027000002BF7D1156030BC704730B4044654E809
:10028000000F00EB010544E80053002BF7D1156087
:1002900030BC704730B4044654E8000FA0EB0105B1
:1002A00044E80053002BF7D1156030BC70470000C4
:1002B00030B4044654E8000F0D4644E80053002BC8
:1002C000F8D1156030BC704730B4044654E8000FD4
:1002D00040EA010544E80053002BF7D1156030BC1B
:1002E000704730B4044654E8000F00EA010544E8C2
:1002F0000053002BF7D1156030BC704730B4044672
:1003000054E8000F80EA010544E80053002BF7D1C0
:10031000156030BC704730B4044654E8000F00EB61
:10032000010544E80053002BF7D1156030BC70473D
:1003300030B4044654E8000FA0EB010544E8005334
:10034000002BF7D1156030BC70470000064880478D
:1003500006480047FEE7FEE7FEE7FEE7FEE7FEE7AA
:10036000FEE7FEE7FEE7FEE7950900000102000058
:100370002DE9F05F0546002092469B4688460646DA
:10038000814640241BE0284641464746224600F06D
:100390004EF853465A46C01A914110D3114618469A
:1003A000224600F035F82D1A67EB01084F46224629
:1003B0000120002100F02CF817EB00094E41201E0F
:1003C000A4F10104DFDC484631462A464346BDE835
:1003D000F09F40EA01039B0703D009E008C9121F00
:1003E00008C0042AFAD203E011F8013B00F8013BEF
:1003F000521EF9D2704730B504460020034600E093
:100400005B1C934203D2E05CCD5C401BF8D030BD56
:10041000202A04DB203A00FA02F1002070479140C4
:10042000C2F1200320FA03F3194390407047202AB9
:1004300004DB203A21FA02F00021704721FA02F38E
:10044000D040C2F120029140084319467047000095
:10045000064C074D06E0E06840F0010394E8070011
:1004600098471034AC42F6D3FFF7CEFE405300005D
:10047000605300002DE9F04700268CB0DFF8609152
:10048000B0464FF48075012437460696284602F0A0
:1004900061FD38B1D9F80403204203D0284602F0A8
:1004A0004FFD26432D1D64007F1CADB2082FEDD3F8
:1004B0004FF4BE74204602F04DFD48B1204602F0D4
:1004C0003FFD46F0004606AA0121002002F024FD6F
:1004D000444D16F0FF0F15D00127002437420DD0F0
:1004E00009EB8401D1F81005D1F81015C0F30420F0
:1004F00055F82420C1F3014102B190477F00641CEC
:10050000082CEBD3002E67DA4FF0FF30CDE90880DE
:1005100000263446281910F8507F90F9000027F083
:10052000C008401C44D009A9404602F0F0F858B376
:100530004FEA9719404601F0CDF855F820701FB1E9
:10054000B9F1030F03D00FE0B9F1030F30D108A8C0
:100550004FEAD80208F00703815C4FF0010C0CFA57
:1005600003FC41EA0C0181544FF0A04101EB8800EB
:10057000D0F8000706A9C0F3014A404602F0C7F8C8
:1005800018B1BAF1020F03D012E0BAF1030F0FD184
:10059000B9F1030F08D1BAF1020F1BD00221404676
:1005A00002F09EFC761CF6B217B149464046B847A9
:1005B000641C042CAED3002E0ED06A46012100200C
:1005C00002F0AAFC06990098884205D00690089887
:1005D00009909DE70321E2E70CB0BDE8F087000039
:1005E000006000406401002002F036B82DE9F74FAA
:1005F000364C4FF4803B904607460025C4F808B3BC
:10060000334EB07810B13348FFF7EEFF1FB93148D1
:10061000801CFFF7E9FF706818B12E48C01CFFF777
:10062000E3FFDFF8B4A077605FEA08004FF000094D
:100630004FF00108AAF1040725D0012830D0022884
:100640002AD024481630FFF7CFFF00BF86F802807B
:10065000C4F840910199294489B239603F68C4F8CF
:100660004480DAF80060D4F8400118B11948283005
:10067000FFF7BAFFAF4215D3AE4201D3BE4221D33A
:1006800014483D301CE0C4F84480DAF80050C4F847
:100690004080C4F84091D9E70F48001D0568D5E7B0
:1006A0003D68D3E7BE4201D2012000E00020B54200
:1006B00001D8012100E00021884203D105485630CD
:1006C000FFF792FFC4F804B3BDE8FE8F008000403E
:1006D000A4000020730004004485004000F01F02C5
:1006E000012191404009800000F1E020C0F8801213
:1006F000704700F01F02012191404009800000F185
:10070000E020C0F88012704700F01F0201219140E4
:100710004009800000F1E020C0F88012704700F02E
:100720001F02012191404009800000F1E020C0F843
:100730008012704700F01F020121914040098000A3
:1007400000F1E020C0F88011704700F01F02012185
:1007500091404009800000F1E020C0F8001170478E
:1007600000F01F02012191404009800000F1E020CB
:10077000C0F80011704700F01F02012191404009AC
:10078000800000F1E020C0F8001270474907090E10
:10079000002806DA00F00F0000F1E02080F8141DB8
:1007A000704700F1E02080F8001470474907090EF7
:1007B000002806DA00F00F0000F1E02080F8141D98
:1007C000704700F1E02080F80014704770B53E4C8F
:1007D00020696578401C2061607D10B13B48FFF7BF
:1007E00003FF21783A4803291CD1D0F80C11C9B174
:1007F000012D04D0022D0DD03448193060E020695D
:10080000022803D031480F30FFF7EEFEBDE87040FC
:1008100003F034BA206901284CD02C481430FFF77B
:10082000E3FE47E0032D49D02A4E012D1AD0022DB8
:1008300040D06178284A002502EB01110A7B1AB1E9
:10084000D0F80C0100B10125887A2070012003F056
:10085000A9F9002D2DD030688068002829D0BDE886
:10086000704000472169012905D0022921D1BDE846
:10087000704003F063B90021C0F80011C0F8041102
:10088000C0F80811C0F80C11C0F81011491EC0F8CA
:1008900008130121C0F804133168097D19B10F4A0A
:1008A0004FF4806111600E4AE16811600B21C0F8BD
:1008B000001270BDBDE8704003F01EBA0348453019
:1008C000BDE87040FFF790BED4080020B3010A00D5
:1008D00000100040AC000020F452000004F501407C
:1008E0000415004007480021C0F84011C0F8441129
:1008F000C0F84811C0F84C11C0F80011C0F804113C
:1009000004F0A2BA0010014004F0F0B92DE9F04162
:100910001F4C0027012080F31088D4F8840080B396
:10092000D4F8800000EB400004EB8000017961F313
:100930000705417961F30F25817961F31745C17985
:1009400061F31F6581688289C08962F30F0660F3D5
:100950001F46D4F88400401EC4F88400D4F88000F8
:10096000401CC4F88000D4F880000A2801D3C4F8E1
:100970008070002080F3108823683246284698470C
:10098000C8E7FFE7002080F31088BDE8F081000091
:10099000F8080020F0B5AE480023021D01780125BB
:1009A000101D4FF0805406290BD11678360708D158
:1009B0000678C6F30316032E06D0042E04D0052EA7
:1009C00002D0062907D00EE0B4F82463A14FC6F385
:1009D00004263E6002E01678360704D10678C6F396
:1009E0000316032E02D0062904D00FE09B4F9A4E27
:1009F0007E670EE01678360708D10678C6F3031630
:100A0000032E06D0042E04D0052E02D0062907D0CE
:100A10000EE0D4F84462924FC6F342363E6002E0E4
:100A20001678360704D10678C6F30316032E02D0D3
:100A3000062906D011E08B4E376827F080773760A3
:100A40000EE01678360708D10678C6F30316032E93
:100A500006D0042E04D0052E02D006290AD011E0BB
:100A60004FF08046C6F80C31C6F810317C4E361F68
:100A7000336002E01678360704D10678C6F3031611
:100A8000032E02D0062905D00CE0754F03266437EB
:100A90003E600AE01678360704D10678C6F30316DE
:100AA000032E02D006290DD014E06F4F05263E60BC
:100AB0006D4E783635606C4E083633603F263F1DEC
:100AC0003E6002E01678360704D10678C6F30316B6
:100AD000052E02D0062957D062E0644E3668644F76
:100AE0003E60624E361D36683F1D3E605F4E0836E2
:100AF00036683F1D3E605D4E0C3636683F1D3E60D9
:100B00005A4E103636683F1D3E60584E14363668D1
:100B10003F1D3E60554E18363668554F20373E60B3
:100B2000524E1C3636683F1D3E60504E20363668A9
:100B30003F1D3E604D4E243636683F1D3E604B4E95
:100B4000283636683F1D3E60484E2C3636683F1DBD
:100B50003E60464E30363668454F40373E60434E25
:100B6000343636683F1D3E60404E383636683F1D8D
:100B70003E603E4E3C3636683F1D3E603B4E403642
:100B800036683F1D3E6002E01678360708D10678C9
:100B9000C6F30316032E06D0042E04D0052E02D071
:100BA000062907D019E0D4F85812324A01F04F0153
:100BB000116002E0117809070FD10078C0F303102B
:100BC000032803D0042801D0052806D12A4801684B
:100BD000C90702D06FF00101016022487438016832
:100BE00041F470010160BFF34F8FBFF36F8F4FF07F
:100BF0001021D1F80002002803DBD1F804020028FC
:100C000022DA1E4A15601E480468002CFCD0152408
:100C1000C1F800420568002DFCD0C1F8044201680B
:100C20000029FCD0136001680029FCD0BFF34F8F6E
:100C30000C48F0380168134A01F4E0611143016087
:100C4000BFF34F8F00BFFDE710490F480860F0BDAC
:100C5000E00F00F0403501400DF0ADBA00C0074094
:100C60003C050040FCED00E010560040040400107C
:100C700020C50040E40E00400004004004E50140AF
:100C800000E401400400FA050090D0036C0000204D
:100C9000124A10B50021104B126809E053F82140A8
:100CA000844203D10E48FFF79FFC13E0491CC9B2F0
:100CB0009142F3D3084A002112F1180201EB01130B
:100CC00002EB4303834201D1012010BD491CC9B28C
:100CD0000629F3D3002010BD040B0020C40000201F
:100CE000F600030070B5144E4FF48030C6F80803C8
:100CF0000025C6F84051114C606810B91048FFF744
:100D000073FCA57062680123656073640D48016817
:100D1000001F00681430B1F5804F04D2B0F5404F89
:100D200001D9637005E0814201D3012000E0002079
:100D30006070BDE87040104700800040A4000020B3
:100D4000EC000400448500400448017F0448002969
:100D5000024901D004F075B904F0E4B8BC010020E8
:100D60000020004002E008C8121F08C1002AFAD182
:100D700070477047002001E001C1121F002AFBD11B
:100D80007047022000F03ABA70B50024064D06E024
:100D90006868012110F8340001F0CEFD641C287849
:100DA0008442F5D3002070BD1C000020F8B5154624
:100DB0000C460646052A01D20720F8BD01F0A2FE26
:100DC00018B901F071FE0028F7D1104900204E60DB
:100DD0000C70C1E902500E4D08610DE006EBC40035
:100DE0006968009181788DF801100078094A694698
:100DF00001F0F4FD0028E0D1641EE4B2EED2BDE8BB
:100E0000F840054A0021024800F050B81C000020BC
:100E1000C45200007D190000A517000003F02AFA53
:100E200003F004F90028FBD1104C0121208801EBCC
:100E300000400FA103F0ECF910480068C00700D093
:100E400000BE2088022101EB00400DA103F0E0F973
:100E5000BFF34F8F0948E43801680D4A01F4E0619F
:100E600011430160BFF34F8F00BFFDE7EC0000208E
:100E7000466174616C206572726F7200F0ED00E083
:100E800053797374656D207265736574000000009A
:100E90000400FA050EB500210091CDE901106A4663
:100EA00044F20100FFF7BAFF0EBD0000074B9B782C
:100EB00023B12AB120B10068037C1BB10820704720
:100EC0000720704741744261002070472C020020C7
:100ED00070B503F08BFD104800240B2104704470A2
:100EE0000E4D817014206C602C706C70FFF7F6FB57
:100EF00007211420FFF74AFC1420FFF726FC0848BE
:100F0000046007211120FFF741FC0548001F00681D
:100F1000A860002070BD00002C02002030000020DE
:100F2000081501402DE9F843DFF8709099F8023078
:100F30005BB350B3052902D20720BDE8F8834369AB
:100F40001BB3437C012B22D0002704460025884692
:100F50001646284600F036F8684604F07FF9C0B11E
:100F6000012101700E4944600968C0E90218C0E916
:100F700004769DF8000089F80100002000F024F8B4
:100F80001420FFF7F8FB2846D7E70820D5E70F46DF
:100F9000DBE70425002000F017F8F4E72C0200201E
:100FA000041501400649897839B130B1416921B150
:100FB00000210174022103F027BF082070470000C0
:100FC0002C02002000F002B800F008B872B6024807
:100FD0000168491C0160704744000020034908680B
:100FE000401E086000D162B6704700004400002037
:100FF00010B502F00FFE0349002008610249087095
:1010000010BD0000B0080020900000202DE9FF4135
:1010100044480068444C012802D04448006828B97C
:1010200060680078202801D8012000E00020404FAF
:101030000321002539704FF00108256090B339482D
:1010400008300668006839490839086003A8CDE906
:10105000000434480C30026801233146184603F07E
:1010600017FA00B3012805D002281FD0032847D063
:10107000304843E0039818B12E481038FFF7B4FA0F
:10108000304603F0F9FA18B92A480F38FFF7ACFADE
:101090007868F1B20023807D1A46CDE900100295F0
:1010A00019461BE01EE023480B3827E0039818B9C7
:1010B00020480838FFF798FA304603F0DDFA18B9EF
:1010C0001C48C01FFFF790FA7968F2B20023897DAF
:1010D000CDF80880CDE9002103991A46022003F0DB
:1010E000C8FC0DE0002300951A46194618460195E4
:1010F00003F0CEF9042803D00E48C01DFFF774FAA0
:10110000206838B184F815800B48206104203870BD
:10111000BDE8FF8102F07EFD6575256100F026F8CF
:10112000F6E7000000140040B0080020341500402D
:1011300090000020D1050900ED11000010B5074C0A
:101140002078012802D00648FFF74EFA02202070CE
:101150000448002101610449C16010BD90000020D5
:101160009B050900B00800200D10000010B5FFF726
:101170003FFF1A490120087019480168194A21F0F7
:10118000FF0112691143016003F07AFAC0B103F064
:1011900077FA032802D01448FFF726FA022002F05B
:1011A00091FE002002F0F2FE03F06AFA032803D059
:1011B0000D480830FFF718FABDE81040FFF7BEBF32
:1011C00003F012F90228E9D303F0E8FA0549503197
:1011D00000284860E2D10448401FDDE7900000206D
:1011E00030150040600800208905090002490520EB
:1011F0000870FFF7BBBF00009000002007490B5CA0
:101200004FF0A041D1F804250120984020EA0203C4
:10121000C1F808351040C1F80C0570478C52000029
:101220000249085C012101F06CBE00008C520000F4
:101230000249085C002101F064BE00008C520000ED
:101240000649095C4FF0A040D0F80405C84010F0F2
:10125000010000D0012080F0010070478C52000096
:101260007CB50024084E25460122305D0095002300
:101270001146019501F010FE641C042CF4D3BDE866
:101280007C4000F003B800008C52000010B5002430
:101290002046FFF7C5FF641C042CF9D310BD10B520
:1012A00000242046FFF7C4FF641C042CF9D310BDB2
:1012B00010B50246064B4FF0FF3000215C5C9442B3
:1012C00001D1084610BD491C0429F7D310BD000008
:1012D000905200002DE9F0470D468146FFF7E8FFE8
:1012E0000446042836D2DFF874801B481C4EA8F14F
:1012F0000C0725B3012D0ED0022D2BD104EB440099
:1013000030444578002D25D0B968002922D02846E0
:10131000BDE8F047084704EB4401755C0E44717862
:1013200049B10E4A4FF40041093A8068FFF7FAFDCF
:1013300008B987F80390B17808F80410E2E78068EC
:10134000FFF730FE04EB4401314418F804008D78B7
:10135000A842D7D0BDE8F087945200000C000020CE
:101360003801002070B50023042810D20D4D00EB89
:101370004004012A02D101290CD00022094E00EBC1
:101380004000304461B1012906D0022906D007236C
:10139000184670BD0E30C2B22A55F9E74270F7E721
:1013A0008270F5E73801002070B506461E4800241B
:1013B000C0E90161B00720D5002501221146284669
:1013C000FFF7D0FF6D1C0446042D02D2002CF4D090
:1013D00013E094B940F2666204211448FFF7E6FC7A
:1013E00004000AD1FFF7D0FC040006D10F48104AD0
:1013F0000021001FFFF75AFD0446F00701D0FFF758
:101400002FFF74B909480B4A00210C38FFF74EFD35
:10141000040006D10548084A01210838FFF746FDB7
:101420000446204670BD000000000020A0520000CD
:101430006916000059210000830D00002DE9F05FBE
:101440006A4C054600266078B34618B184F801B0AE
:1014500000F06AFE664F4FF47A694FF4C87A4FF095
:101460000108182D62D2DFE805F0AC0C0C31404DBC
:1014700062676B746B74BE7D7D7D7D7DACAFB2B5F4
:10148000BEBE0020FFF7DCFE00284FF0000008D0B1
:10149000FFF7C6FE022D02D14FF4E16008E0484696
:1014A00006E0FFF7C5FE022D01D1C82000E050463E
:1014B000410CC0034FF4FA72801841F1000125700D
:1014C00052000023FEF754FF01462AE00020FFF7F8
:1014D000B7FE00284FF0000004D0FFF7A1FE4FF444
:1014E0004870E5E7FFF7A4FEDFE70020FFF7A8FE5E
:1014F00000284FF0000002D0FFF792FECFE7FFF781
:1015000097FED4E70020FFF79BFE00284FF0000075
:1015100002D0FFF785FE01E0FFF78AFE257041F655
:101520009A1100223868FFF7FDFC064646E00020CD
:10153000FFF764FE257008E0002051E025703DE0D3
:1015400084F801800120FFF759FE002240F6CD41CA
:10155000E8E784F801800120FFF750FE00224FF4F5
:101560008041DFE77868FFF71DFD0646D5F11100E1
:1015700000D02EB10220FFF753FE84F802B01DE028
:10158000012816D980B2C8214843C117C90341EACE
:101590005041C0034FF4FA72801841F1000152002B
:1015A0000023FEF7E5FE014600227868FFF7BAFC4B
:1015B00006460220FFF73CFE84F802803046BDE874
:1015C000F09F00F0B1FDB9E700F0AEFDB4E700F028
:1015D000ABFD04E000F0A8FD0020FFF729FE01208C
:1015E000FFF726FEAAE7FFF75AFEA7E70000002054
:1015F000945200002DE9F041871C0E460125002081
:10160000FFF7E0FC124C20683060D4E90001401A7A
:10161000A168091ABE1C06E000F024FED4E900010E
:10162000401AA168091A491C8E42F5D8A1682068A1
:10163000084004EB8000C16841F00301C1602068EC
:10164000384420600020FFF7BFFC2846BDE8F08149
:10165000F8030020034803C8814201D101207047EC
:1016600000207047F803002000780221FFF732BE07
:1016700005494FF0FF32082841F8202002D30844E2
:1016800080F848207047000064010020F0B54FF05A
:10169000FF3512B10023082601E008230C260C4C6C
:1016A00005E000BF54F823707F1C04D05B1CB342DC
:1016B000F8D32846F0BD26185DB286F8305044F8BD
:1016C0002310002AF5D1E11881F84800F1E7000065
:1016D000640100200249084490F93000704700007E
:1016E000640100202DE9F05F26484168F1B3DFF87E
:1016F00098B00E688146DBF8004087688078E11B6F
:1017000021F07F45ED1CB0B9DFF880804FF48030C8
:10171000C8F84403C8F804031120FEF7DFFF1120C6
:10172000FFF713F84FF0010AC8F800A02F2001F0CE
:1017300063F889F802A0B54200D23546124BE81989
:101740003C3320F07F401860DBF800105A46091B3C
:1017500021F07F41001B20F07F40C91C81420FD93E
:10176000106818602F2001F047F800E004E0BDE8A1
:10177000F05F1120FEF7FFBFBDE8F05F03F036B960
:10178000BDE8F09F3000002004150140001001402A
:101790000348416809B1491E416003F007BD0000DC
:1017A000940800202DE9F04100260125144C22E088
:1017B0006068226900EBC607387805FA00F111422B
:1017C00017D08A43226101F065F902463878E36850
:1017D00005FA00F1194002FA00F3994209D179782B
:1017E000012901D0012100E0002151407A6802B1B5
:1017F0009047761CF6B220788642D9D3BDE8F081B6
:101800001C000020FEB532480068012802D0314893
:10181000006830B9304840680078202801D8012796
:1018200000E0002703F092F92B4C01261C3C00B984
:10183000666102F025FF012802D02848FEF7D4FE99
:10184000274D6868007D18B12448401CFEF7CCFE87
:1018500002F0E0F9002F3AD00121084602F0AAFE7A
:10186000052826D2DFE800F003211021210002F034
:10187000FDFEC6B202F0F4FE014668680022807DDB
:101880000096CDE901020AE002F0F0FEC7B202F0D4
:10189000E7FE01466868807D0097CDE90106E3898F
:1018A000A289002003F0E5F803E00C482030FEF7A1
:1018B0009BFE00F05FFF2061074850384069606080
:1018C00003F074FCBDE8FE40002000F083BFFEBDC5
:1018D0000014004034150040B0080020B206090092
:1018E000900000200E4910B50A784C780023A242DF
:1018F00012D0521CD2B20A70022A00D10B70084AD0
:101900000B780C3252F8232002608868104420F0D3
:101910007F408860012010BD0360002010BD0000E2
:101920003000002010B5044CE06F002802D101F017
:101930002DFAE06710BD0000800900203EB50D4D76
:10194000687E002815D003F00DF902F063F9002439
:10195000AC706C7600940194234622462146052003
:10196000029403F086F804480470BDE83E4000F09D
:10197000C3BC3EBD94080020900000202DE9F0413A
:10198000124E07460125BD403068FFF70BFB0028CB
:101990000DD10F4C2069284207D1384601F07AF862
:1019A0000028E06805D0284304E0A8432061BDE892
:1019B000F081A843E060206928432061A168306875
:1019C000BDE8F0410022FFF7ADBA0000C4520000AC
:1019D0001C00002010B501F00FFB00BF01F006FC59
:1019E0000028FBD110BD10B50024204601F066FB95
:1019F000641C082CF9DB10BD10B501F08FFB012829
:101A000004D0FFF7E7FF012001F08AFC01F0EEFBB4
:101A1000002803D1BDE8104001F0FCBA10BD400021
:101A200001F000BC10B50024204601F057FB641CF7
:101A3000082CF9DB10BD000002490A880280897871
:101A400081707047E0520000F0B50746204889B029
:101A5000154600780E4698B1012814D0022834D1DA
:101A600010221C4904A8FEF7B4FC1B490D2204A84F
:101A7000FEF7AFFC0024164A6846521C21460DE0D2
:101A800010221449F3E71022124904A8FEF7A1FC22
:101A900004A800F088F8EDE7052C02D2135D035589
:101AA00000E00155641CE4B2102CF5D301F05EF89F
:101AB00004A801F06DF86946084601F02DF82B46A0
:101AC0006A463146384600F015FB09B0F0BD00000B
:101AD00058000020E3520000380800200149087037
:101AE000704700005800002001460D220148FEF713
:101AF00070BC00003808002003490268C1F80120CA
:101B000000794871704700005800002070B5084CFB
:101B10000D46E2784AB10749FEF75BFC0DB1E0786B
:101B200028700020E070012070BD002070BD000012
:101B30005E000020450800200248C078002800D040
:101B4000012070475E000020F0B54E23B3FBF2F594
:101B5000022303704F23841804F8013C81B1012350
:101B6000541E0BE003F003068E5DB6FBF5F705FB94
:101B7000176605FB0366C6545B1CDBB2A342F1DBB0
:101B800001210DE04318445C13F8013CE31ADBB279
:101B9000052B03D2C3F1050323444354491CC9B2A6
:101BA0009142EFD3F0BD41F201010A680260097968
:101BB0000171704702498A680260097B01717047B0
:101BC0005E000020F8B505464FF480500E4680793F
:101BD000FF2815D1002141F2060002F029FC002463
:101BE00041F207070AE00121684600F007FA9DF874
:101BF0000010E01902F01CFC641CE4B2B442F2D301
:101C0000002206E041F20700805C521C05F8010B3F
:101C1000D2B2B242F6D3F8BD30B58BB020203E4DE3
:101C200000240890AC70204601F08CFA002805DDF5
:101C300008AA6946002001F00BFA0446E878204320
:101C40000AD1012001F07EFA002805DD08AA6946C4
:101C5000012001F0FDF904463CB39DF8000007287F
:101C60003AD2DFE800F00439080C1023340068464B
:101C700000F0B4F830E0684600F08CF92CE06846DB
:101C800000F04AF928E00A208DF8240009AC601C15
:101C9000FFF790FF00F04EF810B9601CFFF72CFF23
:101CA0000122062109A800F087F815E06C46012002
:101CB000FFF714FF1022611C601CFFF7C5FE601CBB
:101CC00000F00CFA40B1201DFFF70EFF04E0089869
:101CD000C1B2684600F0E4F801F088FA60B900206B
:101CE000FFF79DFE687828B101F038FA40F0010056
:101CF00001F02CFBFFF780FE0749002008310A5C49
:101D0000521C12F0FF020A5403D1401CC0B2052835
:101D1000F5D30BB030BD00005E00002000B500F030
:101D200009F8002802D002490220087000BD000016
:101D30005E00002002480078002800D00120704793
:101D40005E00002008B504216846FFF73BFF6846A7
:101D500000F070F901F002FA40F0020001F0F6FA2A
:101D600004490020487088700870C870FFF757FE5B
:101D700008BD00005E00002070B50E4D0446687876
:101D8000A04216D0FFF726FE34B101F0E7F940F08B
:101D9000010001F0DBFA07E001F0E0F920F00100BA
:101DA00001F0D4FA002028706C70BDE87040FFF795
:101DB00023BE70BD5E00002070B516460C46054679
:101DC000FFF708FEFFF72EFE22462946304601F0B7
:101DD000C9F8BDE87040FFF70FBE0000FEB505462C
:101DE00020202E4E02900020B070FFF7F3FD01F08E
:101DF000B5F9C4B2301DB0F9020010F1400F44DB58
:101E0000002001F0A3FA9620FFF709FEFFF7EBFD93
:101E1000FFF7F2FD01F0EAF90028FBD108208DF868
:101E2000000004210DF10100FFF7CCFE05226946F8
:101E3000002001F097F84FF4AF70FFF7F0FD01209C
:101E400001F084FAFFF7D8FD01270CE0002001F033
:101E500079F940B102AA2946002001F0F9F8287862
:101E6000012800D1B77001F0C1F90028EED1FFF7C9
:101E7000D9FDFFF7B8FD0020FFF7D1FD204601F0A6
:101E800065FA00BFFFF7B8FDFEBD24F0010001F0C8
:101E90005DFA4FF4FA70FFF7C2FDF3E75E00002031
:101EA0003EB50D460446FFF745FF08B1002000E0AF
:101EB0000220FFF713FE681EC2B2611C601CFFF710
:101EC000C3FD601C00F00AF938B111482D1FEAB2B9
:101ED000C270211D0F48FEF77CFA0B208DF8000020
:101EE0006C46A01DFFF7A8FD0322A11DA01DFFF752
:101EF000ABFD601CFFF75EFEFFF71CFF10B9601C16
:101F0000FFF7FAFD012209216846FFF755FF3EBDA4
:101F10005E000020450800203EB50446FFF70AFF9A
:101F2000002827D00020FFF7D9FD0322611C601C88
:101F3000FFF78AFD601C00F0D1F800281AD0144B7E
:101F400000246D461878022815D003281AD08DF881
:101F5000044009208DF800002C46681CFFF76CFD3A
:101F60000922611C601CFFF76FFD01220A216846EF
:101F7000FFF722FF3EBD01208DF80400681DFFF72A
:101F800012FE02E002208DF804001C70E1E7000060
:101F90005E0000207CB5184D0446687800282AD0E1
:101FA000FFF7C8FE20B9601CFFF7A6FD01202870CE
:101FB0006846FFF7F8FD00216846425CFF2A02D11F
:101FC000491C0529F9DB052915D1FFF7F3FD694601
:101FD0000523621C084600F08DF84FF480546946D2
:101FE0002078FF2807D10522601C02F043FA002167
:101FF000204602F01DFA7CBD5E000020F0B50B4BC0
:102000000025C3F8005101241C602A46084E09E04F
:10201000D3F80071002FFBD037688754C3F8005104
:10202000521CD2B28A42F3D35C60F0BD00D00040B3
:1020300008D500402DE9FF41054601F0D7F8264CB0
:102040000646EDB328786978EA7800EB0120A97894
:10205000090401EB0261471801F0D6F9204601F0AE
:10206000EDF850B10021084601F0C8F828B1384613
:1020700001F0F4F808B1012402E0012407E037B1CF
:102080002146084601F0BAF808B1012700E0002710
:10209000641CE4B2082CF2D301F034F80446C2B256
:1020A00029466846FFF750FD87B12146684601F092
:1020B000E5F858B10120002E05D000F0ABFF00E09C
:1020C00007E030B1012004B0BDE8F0810020002E0F
:1020D000F9D00020F7E700000406080A10B5032233
:1020E0000349FEF788F908B1002010BD012010BD9A
:1020F000E052000070B5002409E000BF11F8015B58
:1021000012F8016B7540641C00F8015BE4B29C425C
:10211000F4D370BD0278521C027002788A4201D357
:1021200000210170704700000A4810B5807860B146
:10213000002401E0022C06D02046FFF771F8641C51
:10214000042CF7D310BD0324F6E7BDE81040FFF7D9
:102150009DB800000000002003480179C90702D0A3
:102160000078FFF76BB97047000000202DE9F047B9
:10217000394E002780463D46DFF8E090D6F804A0AF
:1021800057E003D00446D0F81C8035E099F80020D1
:1021900002EB4201521CD2B289F8002009EBC101C6
:1021A00099F80230091D9A4201D189F80050486817
:1021B0000A780446012A12D0022A02D0032A3BD10F
:1021C00008E002F0F1FD00B10127257434E0057448
:1021D000C06900E070680028F9D170602CE0207CB4
:1021E00050BB88686060C868A0600869E0604869A2
:1021F000A061F07800B165606268B168184B501A50
:1022000020F07F40984202D2A168084406E0881A74
:10221000A16820F07F40814202D9081A206000E0C6
:10222000256065600120A56020742046E56102F00C
:102230009DFDB8F10000A4D199F8001099F80100B3
:102240008142A3D117B97168514502D00120BDE880
:10225000F0870020FBE70000300000202C02002067
:10226000FFFF7F0070B588B0214800F0FDF92048DD
:10227000001F064600F0F8F91E4DD5E9014105E0C2
:10228000C0F3891202EB9050641C044404EA01007C
:1022900005EB8000C0688207F2D000200DF1080233
:1022A00004EA010305EB8303641CDB6842F8203079
:1022B000401C0228F4D3029800F00300012808D043
:1022C00002280AD10298032101EB905004EB9004FC
:1022D00003E00298C0F3831004443046002101AAB1
:1022E000FDF7FFFF002800D06C6008B070BD000053
:1022F00010080020F80300201CB510494FF440706E
:10230000086002F0BDF9012812D0022810D003287D
:1023100013D100200090034602460146019002F0CE
:10232000B7F8042809D0BDE81C400548FEF75CB9A1
:102330000021084602F03EF9F3E71CBD08F5014014
:10234000E8010900154800210160012101601448DD
:10235000016821F480710160016821F00F01891D7D
:102360000160016821F4702141F440310160001DD9
:10237000016821F000710160016841F08071016025
:10238000016821F0FF0141F020010160016821F4A2
:102390007F4101600120FEF7ACB90000FC1F004046
:1023A0001415004070B5134801F05CFD1249114C42
:1023B000503C4860607F01F097F9206A01F020FAF4
:1023C000606A01F029FA0025601990F82810284663
:1023D00001F02EFA6D1C082DF6DB084914F8300FB9
:1023E0000860607801F0ACF9A078BDE8704001F0B9
:1023F000E3B90000B0080020900000200C15004058
:102400000C4910B5002008600A484FF440744C385D
:102410000460FFF797FF00F0D9FC06490831086017
:10242000091F05480860034850380460BDE81040A3
:10243000FFF7B8BF54F50140041100408AB002F024
:1024400079FE012000F094FE28B900F061FE00F54D
:102450000340FEF71FFD4FF4FC7000F087FF28B922
:1024600000F056FE00F50340FEF714FDFFF76AFC8E
:1024700000F074FE40F0040000F068FF28B900F09E
:1024800047FE00F50340FEF705FD0120FFF774FC51
:1024900000F0C0FD28B900F03BFE00F50340FEF758
:1024A000F9FC2024FFF7B8FBFFF744FC08B1FFF765
:1024B00035FC0220089400F045FE28B108AA6946C0
:1024C000022000F0C5FD07E0FFF736FB0028E9D049
:1024D00008A96846FFF71AFB0028E3D09DF8000022
:1024E00002F012FADEE72DE9F047C7880446181D0E
:1024F00016468946B0FBF7F1B0FBF7F207FB120076
:102500009A193A44D21CB2FBF7F2DDF820A001E0A0
:102510002468491E0029FBD13D1A8846B54216D8C9
:1025200018E0BAF1000F05D0211809EB08002A467F
:10253000091D04E0204409EB08012A46001DFDF7AF
:1025400048FF00202468761BA844B74201D93546CD
:1025500000E03D46002EE4D1BDE8F0872DE9F047CC
:1025600013460E46C0F30729C2B2010E40F30740DE
:1025700000241F0C40421FFA83F8062A5FD2DFE8CE
:1025800002F003182F4E4A4601B10121254667F398
:102590000F0461F3070560F31F4468F31F453046DD
:1025A00000F0B2FF224629464846BDE8F04700F059
:1025B00022BD26488068407E10B92548FEF714F8F1
:1025C000304600F0A1FF214664F3070167F30F04D2
:1025D00068F31F4122464846BDE8F04700F00ABDB7
:1025E00009B1012200E0002262F3070460F31F44F6
:1025F0003AB11EB916480E30FDF7F6FF304600F02E
:1026000083FF21464846BDE8F04700F0A9BDBDE87C
:10261000F04700F0FDBC00F0EFFDBDE8F0870D488D
:102620004168491C416001780029F6D0816811B1E8
:10263000491E8160F1E7BDE8F04700F0DDBCBDE870
:10264000F04703482E30FDF7CFBF00007000002098
:10265000D20305005408002002490F220A70C86006
:10266000704700007000002008B501216A46FDF7A0
:102670002BFE009808BD70B5044600252846FEF7DD
:10268000A1FC21686268086890420ED9401E08606B
:102690000178238AE26801FB0325227A2168101A57
:1026A000C0B20A79824200D208710020FEF78CFC89
:1026B000284670BD70B505460C460020FEF782FC2A
:1026C000E868298A201AB0FBF1F12A681068431CD7
:1026D00013600170BDE870400020FEF775BC10B5B6
:1026E00030B1017A42680368891AC9B21A6006E0FB
:1026F0000E2010BD03681A68541C1C601170491E1E
:10270000C9B2F7D2006800210171084610BDC208A5
:1027100000F007030120895C9840084070470000E2
:102720000948021F4168491C4160126813689942B8
:1027300008D3002343600168491C0160526891423C
:1027400000D30360704700009C00002070B5074C68
:10275000251F206829684968884202D30448FDF78C
:1027600043FF286821688068405C70BD9C000020A1
:10277000B100010001480068704700009C00002083
:1027800001484068704700009C00002010B504001C
:1027900002D10548FDF728FF044800210460001D10
:1027A0000160416010BD0000290001009800002078
:1027B00010B50446054800684068A04202D80448A5
:1027C000FDF712FF0148001D046010BD98000020B5
:1027D000B800010010B50446054800680068A04232
:1027E00002D80448FDF700FF0148001D446010BDF9
:1027F00098000020C400010000283ED01F49204A54
:10280000096800BF00BF00BF00BF00BF00BF00BF1E
:1028100000BF91422FD000BF00BF00BF00BF00BF6C
:1028200000BF00BF00BF00BF00BF00BF00BF00BFB0
:1028300000BF00BF00BF00BF00BF00BF00BF00BFA0
:1028400000BF00BF00BF00BF00BF00BF00BF00BF90
:1028500000BF00BF00BF00BF00BF00BF00BF00BF80
:1028600000BF00BF00BF00BF00BF00BF00BF00BF70
:1028700000BF00BF00BF0138C3D170476C0000200B
:102880000024F400002839D0401E00BF00BF00BF64
:1028900000BF00BF00BF00BF00BF00BF00BF00BF40
:1028A00000BF00BF00BF00BF00BF00BF00BF00BF30
:1028B00000BF00BF00BF00BF00BF00BF00BF00BF20
:1028C00000BF00BF00BF00BF00BF00BF00BF00BF10
:1028D00000BF00BF00BF00BF00BF00BF00BF00BF00
:1028E00000BF00BF00BF00BF00BF00BF00BF00BFF0
:1028F00000BF00BF00BF00BF00BFC5D17047490780
:10290000090E002806DA00F00F0202F1E02282F838
:10291000141D03E000F1E02282F8001400F01F0211
:10292000012191404009800000F1E020C0F88012B0
:10293000C0F80011704700002DE9F04188460546B7
:1029400001F0FEFF234E002828461AD0FEF7C2FEF3
:10295000304490F848008009032802D001280ED0A6
:1029600007E04FF0A040D0F81005E84010F0010F4C
:1029700005D003212846BDE8F04100F0B1BA02219C
:10298000F8E701F0E9FF002822D02846FEF7A2FE72
:1029900004464FF4807000EB84000F4F81B207EBC8
:1029A0008400D0F8102542F00102C0F81025084636
:1029B00000F0C6FAB8F1000F0AD02846FEF78AFEEA
:1029C00056F82000002803D00120A040C7F80403D7
:1029D000BDE8F08164010020006000402DE9FC4169
:1029E000DFF8A480044608EB0400002790F93000CB
:1029F0001346C0170E46401C01D0082741E0F2786C
:102A000019462046FEF742FE0546401C38D0B078F5
:102A100050B14FF0A04000EB8400D0F8001721F037
:102A20000201C0F8001707E00021737820460091EA
:102A30000A46019100F042FAF078C0B113483178AB
:102A400000EB8500D0F81025114B1A40C0F8102576
:102A50004FF4F8524FF4403302EA042203EA0141F2
:102A60000A43D0F810150A43C0F8102509E008EB16
:102A70000500327810F8481F41EA8211017000E029
:102A800004273846BDE8FC81640100200060004056
:102A9000FFE0FCFF4FF0A041D1F81015C14011F04C
:102AA000010000D00120704770B5144D95F8540016
:102AB00008B1082070BD0020411E2A18401CC0B279
:102AC00082F830102028F8D300242046FEF7D0FDED
:102AD000641CE4B20C2CF8D307210620FFF70FFF8B
:102AE0004FF4BE7000F02CFA05494FF00040C1F8D9
:102AF0000403012085F85400002070BD640100200B
:102B000000600040034890F85400002800D00120E5
:102B1000704700006401002070B5124D06464FF06A
:102B200080746868814202D01022FDF752FC0E4981
:102B30000020C1F8000101220A6001E0641E0ED0ED
:102B4000D1F80021002AF9D0C1F80001A9688E420D
:102B500003D010223046FDF73CFC012070BD002060
:102B600070BD00001000002000E00040054906484C
:102B700001F11002C0E900121032826003480160C6
:102B800001207047DC0100201000002004E5004017
:102B90000146024810220068FDF71BBC100000200F
:102BA0002DE9F0410446102802D30B48FDF71CFD27
:102BB000094E0A4D361D204600F07CF8070008D06B
:102BC000AF4202D13046FDF70FFD384600F008F85D
:102BD000F1E7BDE8F0810000D7000300ADDEADDE17
:102BE00070B5104C06462068062802D30E48FDF743
:102BF000FBFC3046FEF74CF818B90B48401CFDF7BB
:102C0000F3FC0A4D20680A4955F82000884203D099
:102C10000548C01CFDF7E8FC216845F82160491C07
:102C2000216070BDC400002085000300040B00205B
:102C3000ADDEADDE0148006870470000C400002032
:102C400010B50446102802D30348FDF7CDFC034914
:102C500004EB4400085C10BDC8000300140A002007
:102C600030B50020114A014600EB40039C1861700A
:102C7000A170D154401C1028F6D30C4D0020F03523
:102C800005F118045FF0DE0300EB001104EB4102D4
:102C900045F8202000215354491C2229FBD3401C15
:102CA0000628F1D302490620086030BD140A00202E
:102CB000C400002070B500260446102802D30C483A
:102CC000FDF792FC0B4D04EB4404285D70B105F157
:102CD000300000EB8401601910F8022F51F82260D7
:102CE0000321FFF717FA285D401E2855304670BDB6
:102CF000A6000300140A002070B50C4606461029F1
:102D000002D31248FDF770FC3046FDF7C1FF18B939
:102D10000E48401CFDF768FC0D4D04EB4404285D93
:102D2000032810D205F1300000EB8401601910F87F
:102D3000012F41F822600321FFF7ECF9285D401CC8
:102D40002855012070BD002070BD00008F000300D9
:102D5000140A002010B50446102802D30948FDF7D4
:102D600043FC094904EB44000A5C42B101F1300222
:102D700002EB80020844807852F8200010BD002049
:102D800010BD0000B7000300140A00200B4810B566
:102D90000168002479B10A4A0A4B02EB8102491EFC
:102DA00052F8044D136001602046FDF771FF10B921
:102DB0000548FDF719FC204610BD0000C4000020A6
:102DC000040B0020ADDEADDE7D000300004870473F
:102DD000488000400048704740810040014800782A
:102DE00070470000A400002070B5144E01247460E8
:102DF000F460134800250560746411483C30006895
:102E000010B11048FDF7F0FB4FF0FF30C6F8080393
:102E1000C6F840510A490420083108600A48456054
:102E20000470457085700820FDF76EFC4FF0E021BE
:102E30004FF48070C1F8000170BD000000800040B8
:102E40000885004035000400A4000020034901204B
:102E500008600349002008707047000000800040AF
:102E6000A400002070B5074801254560C560064CE8
:102E70000026082066606670FDF746FCA670257087
:102E800070BD000000800040A40000200148407890
:102E900070470000A400002070B541EA4201DDE95E
:102EA00004564FF0A04441EA830141EA052104EBB6
:102EB000800041EA0641C0F8001770BD70B541EAD4
:102EC0004201DDE904564FF0A04441EA830141EAA2
:102ED000052104EB800041EA0641C0F8001770BDEF
:102EE0004FF0A04202EB8000D0F8002722F44032DD
:102EF000C0F80027D0F8002742EA0141C0F80017C7
:102F0000704701224FF0A043824011B1C3F8082559
:102F10007047C3F80C25704718B5084B6C46014440
:102F20001B68009306E000BF54F82030D3F810353A
:102F3000401C08C28142F7D818BD0000C0520000F2
:102F4000034908B50844002101600068009008BDED
:102F50000060004002494058012800D0002070471E
:102F6000006000402DE9F041204D16468846074696
:102F7000082801D3042035E0B8F1000F03D0202E3B
:102F800003D906202EE003202CE0384600F0D6FAC4
:102F9000032801D3092025E0384600F0C7FA0328AA
:102FA00001D30A201EE000F0B9FA022801D208205D
:102FB00018E000F08FFB044606704078324640F07F
:102FC000010060704146A01CFDF703FAF8B22146EB
:102FD00000F064FB10B10120BDE8F0810448FDF76A
:102FE00003FB0F2028700020F6E70000700000208F
:102FF000F60005007047704710B500F03BFB18B1B4
:10300000BDE8104000F004B8BDE8104000F00ABA76
:10301000704700000C4810B5816821B10B49096860
:10302000090C02D007E002210AE0084908310968CA
:1030300011F0FF0F03D000F009FA012010BD11219B
:103040000170002010BD0000700000201C15004021
:103050002DE9F04116460F46044600F067FA154D7B
:1030600048B157B1204600F033FB00783168814207
:1030700005D206201AE00B2018E0032016E02046B7
:1030800000F002FB04000DD0A01C0BD02278A11C84
:1030900038463260FDF79DF9204600F035FA0120F0
:1030A000BDE8F0810448FDF79FFA0F20287000204A
:1030B000F6E70000700000201E01050010B508288A
:1030C00004D3054904200870002010BDC0B200F0F0
:1030D000F9F9012010BD000070000020084910B56A
:1030E0008A68527E0AB10C2002E0082803D304202B
:1030F0000870002010BDC0B200F0EEF9012010BD34
:1031000070000020014840687047000070000020F7
:1031100001480078704700007000002010B500F0F2
:10312000FFF930B1012806D0022806D00448FDF787
:103130005BFA022010BD002010BD012010BD000070
:1031400089010500082804D3034904200870401FA2
:10315000704700F0EBB900007000002000F0E8B903
:10316000002801D101484160704700005E00002046
:1031700070B51B4C054600201A492070E0600860BD
:1031800048608860184800F0DBF9A06018B304F1CB
:103190001000616800F072F80646284600F0C0F89A
:1031A00000EA0605042000F09FFA002000F0A0F8D5
:1031B0000540012000F0EAF80540022000F080F808
:1031C0000540002000F008F90540012000F068F9F2
:1031D0000DB1012070BD01202070002070BD0000E5
:1031E00070000020540800205D2500000148806820
:1031F000407E70477000002070470000084A10B5FC
:1032000093685B7E0BB1022002E0082803D3042000
:103210001070002010BD00F00BFB012010BD00005D
:10322000700000200449002200280A7002D0886043
:10323000012008707047000054080020064910B5AE
:103240008A68527E1AB102200870002010BD00F07A
:10325000D7FA012010BD000070000020064910B50B
:103260008A68527E1AB102200870002010BD00F05A
:10327000D3FA012010BD00007000002010B50F4CE3
:10328000A268527E012A11D0102911D881B188B1CB
:103290000A466160014604F11000FDF79AF804F156
:1032A0001000616800F034FA012010BD022002E035
:1032B000072000E003202070002010BD70000020D7
:1032C0000A4910B58B68024601205B7E0BB10220D3
:1032D00004E0012A05D0022A04D00E200870002044
:1032E00010BD002000F068FA012010BD7000002021
:1032F0000A4910B58B68024600205B7E0BB10220A4
:1033000003E032B1012A03D00E200870002010BD66
:10331000012000F0F7F9012010BD0000700000202E
:1033200010B540B1012808D002280BD0064905206D
:103330000870002010BD012000E0022000F04AFAD1
:10334000012010BD0020F9E770000020064910B5EB
:103350008A68527E1AB102200870002010BD00F069
:103360008FFA012010BD000070000020064910B542
:103370008A68527E1AB102200870002010BD00F049
:1033800085FA012010BD000070000020114910B521
:103390008B68024600205B7E0BB1022017E0072AF3
:1033A00014D2DFE802F0040F06080A0C0E00042015
:1033B00008E0FC2006E0F82004E0F42002E0F02021
:1033C00000E0EC2000F074FA012010BD0E2008701F
:1033D000002010BD700000200A4910B58B6802461D
:1033E00000205B7E0BB1022003E032B1012A03D042
:1033F0000E200870002010BD012000F063FA0120AB
:1034000010BD00007000002010B5FFF7EFFE00288F
:1034100006D0FFF7F1FD30BFFFF7E8FE0028FBD133
:1034200010BD000010B5012080F310880648417ED1
:1034300029B1817819B90121817001F055FB002073
:1034400080F3108810BD00009408002070B5124C65
:10345000607E00281ED1FEF7D3FF04F13405A86872
:1034600010B90E48FDF7C0F8686818B90B48401C41
:10347000FDF7BAF801F00AFA18B108480830FDF76C
:10348000B3F8002001F016FA01206076BDE8704024
:1034900001F02ABB70BD0000940800205D02090005
:1034A00010B504460448406810B90448FDF79CF87C
:1034B0000348047510BD00009000002000040900BE
:1034C000B008002010B5012181F3108801F0B2F896
:1034D000002080F3108810BD10B50446012181F34F
:1034E00010880748017821B1407E10B10548FDF7EA
:1034F0007BF8204601F0A1F8002080F3108810BD71
:1035000094080020F902090010B5012181F3108808
:1035100001F09CF8002080F3108810BD01F098B8ED
:1035200001480078704700009408002001F0A4B81A
:1035300001480069704700006008002001F0A6B84B
:103540002DE9F0410646012080F31088454D4FF0EB
:1035500003080024687085F80080AC706C60AC6073
:10356000AC81EC812C6107466C612C7605F11C0066
:103570006C76046044608460C46004610475183033
:1035800084604460FFF730FC304600F037FF01F004
:103590007FF8002001F086F905F13400FFF7F6F816
:1035A00000210820FDF702F900210120FDF7FEF8B7
:1035B00001211520FDF7FAF8012000F00BF9A5F123
:1035C0003406FF2046F8100F04207073264931613D
:1035D0002649716137760221717686F81A80F07675
:1035E00005203077062070770720B0770820F07725
:1035F00086F8204086F8211086F822701E2046F8B2
:10360000040F4FF4167046F8100C022000F044F935
:103610000F2000F047F9F48037717771347220463B
:1036200001F0B6F8692046F8140C6878012802D039
:103630000F48FCF7D9FF2F70AC706C60AC60AC81A8
:10364000EC812C616C612C766C76FEF7D9FE08203B
:10365000FDF74FF81520FDF74CF884F3108801486A
:10366000BDE8F0819408002004070A0D05080B0E40
:103670003B0209000348407E08B10020704701204A
:10368000704700009408002010B5012181F31088D4
:1036900001F032F8002181F3108810BD10B501222D
:1036A00082F3108801F036F858B10848817819B9CA
:1036B000407E08B101F018FA002080F31088012044
:1036C00010BD002080F3108810BD00009408002079
:1036D00001F031B810B5012080F3108801F030F806
:1036E000002181F3108810BD0449487704490A6815
:1036F00022F4E02242EA004008607047600800209F
:103700001815004001490876704700006008002045
:1037100070B50C00054602D10748FCF765FF1DB9DE
:103720000548401CFCF760FF0448C0E90145BDE8BE
:1037300070400020FFF73CB848030900C80800208B
:10374000194981F8310019490A6822F0FF020A601C
:1037500058B1164A0B1D0832012809D0022810D092
:10376000032817D01248FCF73FBF0868086070476D
:10377000086840F001000860FF20106040F2071068
:1037800010E0086840F0020008604FF6FF7010601B
:10379000084807E0086840F0030008606FF07F40C9
:1037A0001060002018607047600800203415004049
:1037B000C103090021100100044981F832000449C5
:1037C00008B1012800D1086070470000600800209F
:1037D0001015004010B5012181F3108807490A78BF
:1037E000824204D04870487E28B101F07DF9002063
:1037F00080F3108810BD01F0E7FCF8E79408002082
:10380000034910B5086201F04DFA0249086010BD85
:10381000600800201C150040034910B5486201F003
:1038200041FA0249086010BD6008002020150040E0
:1038300070B5082819D20F4A024482F8281082076E
:10384000D40EFF22A240D243042801D20A4D01E047
:10385000094D2D1D286810402860084601F010FA17
:103860002968A0400843286070BDBDE87040034847
:10387000FCF7BABE60080020241500403803090098
:103880000149086170470000600800200149486054
:1038900070470000600800200149C86001F086BC44
:1038A000600800200149886001F080BC60080020A9
:1038B000024981F830000249086070476008002022
:1038C0000C1500400149087770470000600800208F
:1038D0000B4810B54068407D30B1012000F056FB28
:1038E00008498889401C88810749002008600548EC
:1038F000343803C8BDE81040091A002001F0DAB8D6
:10390000900000209408002054F50140FEB501F01D
:103910001DF9494D494E05F1340450B1FDF738FF0A
:10392000A07800286AD0FEF7FBFEBDE8FE40FEF757
:1039300005B82078012802D0022804D008E000F061
:103940001BFB28B171E0307804286ED003286CD0BE
:10395000FEF7E6FEFDF71CFFA07880B1FDF7EEFF55
:1039600000F042FD022843D300200090019003465E
:10397000024601460290032001F07BF8FEBD01F0F3
:1039800023FC20B10020696801F094F8E8E7207872
:10399000F0B1012816D0022817D02948FCF724FEE0
:1039A000687E0128DCD101F095F90028D8D1207873
:1039B000D8B1012811D00228D2D021481A30FCF702
:1039C00013FECDE700F03EF8EAE700F097F8E7E7EE
:1039D0000020696801F06EF8E2E700F051FE00286F
:1039E000BED100F041FF0028BAD101F0BBF8B7E723
:1039F000BDE8FE4012483430FCF7F6BD20780228BE
:103A000008D0FEF78DFE696803B00020BDE8F040E5
:103A100001F050B83078042807D0032805D0FEF70D
:103A20007FFEBDE8FE4000F069B86868BDE8FE4072
:103A3000400801F033B8000060080020900000202A
:103A400061040900FEB500F0E5F800F019FE284D0C
:103A500005F13404C0B1688B88B3A18981422FD3AA
:103A60000121002000F0A6FD00F000FEC6B200F02B
:103A7000F7FD01460020CDE900600290E389A289AC
:103A8000012000F0F6FF2CE000F0AEFC022828D365
:103A900001F020F960B1FEF773FE10BB287E20B95B
:103AA000FEF768FE216988421BD101F073F818E027
:103AB0002069FEF77DFE0020FEF78CFEF5E7FFE7AC
:103AC000FFF7E4F910B10B48FCF78EFDFEF73EFE60
:103AD00009490968884202D0E089401CE08100F071
:103AE00047FF296803B00120BDE8F04000F0E2BFC5
:103AF00060080020130509000815004070B5002477
:103B0000FEF724FE0A4D2968884203D0FEF71EFE08
:103B1000286001240748641E0078044201D1FDF7A3
:103B200025FB05484168BDE87040002000F0C2BF99
:103B3000081500409000002060080020164810B5CD
:103B40000021C0F80C11C0F81011C0F80011C0F825
:103B50002811D0F8002282F00802C0F800220122C9
:103B6000C0F808230822C0F804230C4A032313706A
:103B700051601175C0F80411C0F80811084C206894
:103B8000006900B1804720688068002802D0BDE845
:103B90001040004710BD000000100040D408002075
:103BA000AC0000202DE9F041174C00250746C4F871
:103BB0000052164E307803281CD0681EC4F8080343
:103BC000C4F80C51032070700120FCF7A8FD00BF61
:103BD000C4F80051C4F81051C4F80451756035752B
:103BE000002F0FD00A480068006900280AD0BDE8FD
:103BF000F04100476FF00800C4F808030820C4F83B
:103C00000403E5E7BDE8F08100100040D40800207F
:103C1000AC00002070B50120FCF78CFD0120FCF702
:103C20007EFD144C4FF0FF30C4F808030026C4F8A2
:103C30000062C4F8106101202061A0610E4D287857
:103C4000012813D0022813D0032811D05FF00100FF
:103C5000FEF718FEC4F810612E700020FFF7A2FFD7
:103C60006E75BDE870400120FCF77ABD0620EFE7D5
:103C70000220EDE700100040D408002070B5194E76
:103C80000220194C3070B069401C0025B061C4F8A6
:103C90000052681EC4F80803C4F80C51C4F800515F
:103CA000C4F81051C4F80451C4F828510120FCF79D
:103CB00036FD032070700D48756035750068017D14
:103CC00049B10B490968B175C4F81C510121A161C2
:103CD000084A89021160C068002802D0BDE870401F
:103CE000004770BDD408002000100040AC00002048
:103CF0004815004008F50140244910B50A69002024
:103D0000234C012A08D0022A1FD0032A21D0BDE863
:103D100010402048FCF768BCC4F80C01C4F800014E
:103D2000C4F81001C4F80801C4F80401012004F526
:103D30008074FCF7F4FC0820C4F804020120C4F8E5
:103D400008020720C4F8000110BDBDE8104000F0D3
:103D500025B8C4F80C01C4F81001C4F80001C4F877
:103D60000401C4F82801C4F8000208704FF0FF32C3
:103D7000C4F8082303224A704860087506480068A2
:103D800000690028E0D0BDE810400047D4080020BA
:103D9000001000403D030A00AC0000202DE9F04176
:103DA0002A4E04203070B069401CB0610120FCF73D
:103DB000B6FC274D0024C5F80C41C5F80041C5F8F4
:103DC0001041C5F80441C5F82841224F4FF00108C1
:103DD0003868007D90B120480068B0751F480068C1
:103DE000400502D41E48FCF7FFFBC5F81C41C5F88E
:103DF00018801A494FF4806008310860D5F8000136
:103E000018B11748C01DFCF7EFFBD5F80C0118B12D
:103E100013480830FCF7E8FB4FF0E020D0F8000230
:103E200010F0020F03D00E480930FCF7DDFB3868B4
:103E3000C06800B180473868417D002903D0064939
:103E4000006844390860BDE8F0810000D408002013
:103E500000100040AC0000204815004000F5014073
:103E6000EC020A00124910B508600120FCF762FC60
:103E70001149104808600F48091FF0300860FFF72B
:103E8000C9FE0E48002103220170427041600161A9
:103E90000175417581750A48016821F0010141F001
:103EA000807101600120FCF75BFC044810BD00003C
:103EB000AC0000201410004064F50140D40800203C
:103EC000741700402DE9F047254C06464FF0000AD4
:103ED000DFF89090214884F815A04FF0FF3100EBF7
:103EE00006155746C9F808130120FCF718FCDFF83F
:103EF00078806670032ED8F800000268A2604168DE
:103F0000C4E90317A7612868606018D2287A4F4671
:103F100040F00100C9F80002EB7A14481BB10160BF
:103F2000006848B904E00260006828B9104801E060
:103F30000F48401DFCF758FB687AC7F80403D8F80F
:103F40000000007D30B1022E04D10A4984F816A089
:103F50007002086001206075BDE8F087F45200002F
:103F6000D408002000100040AC00002004150040E0
:103F700025010A0004F501400348D0F80401012896
:103F800000D0002070470000001000402DE9F041F3
:103F9000204C07462048657800EB0516607D012817
:103FA00002D01E48FCF720FB207D18B11B48401CA6
:103FB000FCF71AFB0120002120756175032D09D241
:103FC0000FB931680860022D01D0012D06D1B07AF9
:103FD000207003E011481A30FCF706FB1048006817
:103FE000007D002813D0022D11D10E480068400535
:103FF00003D40A482030FCF7F7FA0B480068002881
:1040000005D1BDE8F04105482130FCF7EDBABDE827
:10401000F0810000D4080020F452000042010A00A0
:10402000AC00002004F50140041500402DE9FE4FCE
:10403000FDF710FB10B10020BDE8FE8F7248002193
:10404000C0F81814BFF34F8FD0E9014604EA060107
:1040500000EB81014FF000090AE000BFC1F38912B3
:1040600002EB9151641C0C4404EA060100EB81014F
:10407000C9688A07F2D000216A46804604EA060031
:1040800008EB8000641CC06842F82100491C4346CC
:104090000229F3D3009800F00300022806D001287B
:1040A00000984FD0C04380077ED0A8E000985022EF
:1040B000810D8A46B2EB905F00D850210D4665F322
:1040C0009F5000900831514800F0E8F807006CD08C
:1040D00000F02DF94B4608226946384600F041F9B8
:1040E00004EA0600311A8900091D09F1080B8D4206
:1040F00021D9454E0C3631B1CAB208EB8000691A9D
:1041000091460C3004E03046EAB200269146314632
:10411000CDB201465B46384600F023F90BEB0903AC
:1041200026B12A463146384600F01BF90AF1030051
:1041300004EB90043BE008EB80015B462A463846DE
:104140000C31F1E7C0F38310062800D30620009954
:1041500060F38911C1F38310801C009181002B480A
:1041600000F09CF807004AD000F0E1F84B46082226
:104170006946384600F0F5F809F1080900250DE018
:1041800004EA060008EB80014B46042238460C3155
:10419000641C00F0E6F809F104096D1C0098C0F3F6
:1041A0008310A842ECD801E00BE028E03FB3D8F838
:1041B0001054D8F81804464690B1384600F0C0F8BC
:1041C0001DE0D3F8180400283FF436AF17E0687AF2
:1041D000012804D12A6828463946126890476D683C
:1041E000002DF4D1384600F0ABF80020FCF7EAFED1
:1041F000D6F8180400B974600020FCF7E5FEFDF75E
:1042000029FA80F0010017E7F8030020CC520000E3
:1042100000231A4600F0ECBC114810B5FF21816064
:10422000002101604160C0F81814C0F8141480F82F
:104230001C140C4800F082F800280FD10A480B49E2
:104240000B4B401AC108002005E000BF00EB400204
:1042500023F82200401C8842F8D3002010BD000043
:10426000F8030020CC52000080530000605300008F
:10427000C800002070B508480125D0F8104480F827
:104280001C5405E0657221682046496888476468C7
:10429000002CF7D170BD0000F80300202DE9F0419B
:1042A000058A80462D1F4819C01CB0FBF5F0C6B228
:1042B0004046FEF7E0F9041E19D0002020710120CD
:1042C0006071E58000272546761EC4F800800BE06B
:1042D0004046FEF7D0F960B16179491C61712860F0
:1042E00005467F1CC0F80080B742F1D32046BDE8E8
:1042F000F081204600F002F80020F8E72DE9F041B7
:10430000457901466B1E002201E00968521C9A4261
:10431000FBD30F680146002605E038460C68FEF71F
:10432000C9F92146761CAE42F7D3BDE8F08108B545
:1043300001216A46001DFBF7A0FF08BDFEF7CFB9BB
:1043400038B50446001D01216A46FBF7A3FF00981B
:1043500010F0FF0F04D12046BDE83840FFF7CEBF74
:1043600038BD38B500240094FEF7BDF838BD000014
:1043700070B51B4C0546206810B91A48FCF734F993
:10438000D4F884000A2803D31648401CFCF72CF903
:10439000E06F00EB400004EB80012878087168783A
:1043A0004871A8788871E878C87168688860288939
:1043B00088816889C881D4F88400401CC4F88400CE
:1043C000E06F401CE067E16F00200A2900D3E0673E
:1043D0004FF0E0214FF40010C1F8000270BD000062
:1043E000F808002034000B000348D0F88400C0F126
:1043F0000A00C0B270470000F808002010B50400A1
:1044000002D10948FCF7F0F808490C600020C867A1
:10441000C1F88000C1F884004FF0E0214FF4001093
:10442000C1F8000110BD000029000B00F8080020B1
:1044300010B500F003029043D200FF2494400368BB
:104440009140A343CA18094901230B60BFF36F8F42
:10445000BFF34F8F026006480268002AFCD000209C
:104460000860BFF36F8FBFF34F8F10BD04E50140AD
:1044700000E40140F0B515460E460746002404E06E
:10448000315D3819FFF7D4FF641CAC42F8D3F0BD9E
:104490002DE9FF4F81B0444FDDE90EA8032600252A
:1044A000F86F0C46AB4610B94048FCF79DF83878D9
:1044B000032803D03D48401CFCF796F8F86FB94636
:1044C0004278D0072FD199F8920060B30027019865
:1044D000E8B30399584661F31700C2F3410209EBB0
:1044E000840162F31F608A6BCAF800B0C8F800B09C
:1044F0000090904234D0204600F060FA051E07EA92
:1045000005072DD004F1080109EB810200999161A2
:1045100004990D4223D0264E305D00B3204600F0B2
:10452000B5F830B901E00127D1E720483630FCF773
:104530005BF8204600F0E3F8CAF80000BAF1000F7B
:104540000AD018B919483B30FCF74EF800E01BE0E0
:1045500006F804B0022603E014483F30F4E70126D1
:1045600077B1204600F0EAF8C8F8000018B110480A
:104570000121015506E00C485830C8F8000001E060
:10458000C8F800B00DB107E004264C46D9F87C000D
:10459000FEF726FBC4F87CB089F800B000F0D2F832
:1045A00005B03046BDE8F08F800900205B010C00AB
:1045B000B000002070B51D4C05460E46207801283D
:1045C00004D0022802D01A48FCF70EF8E5B1207892
:1045D000012803D01648801DFCF706F8E06818B9DA
:1045E0001348C01DFCF700F8E068007820B160684F
:1045F00000F0E4F930B901E0002506E00C48123083
:10460000FBF7F2FF022500E004254EB1606800F0E0
:1046100076F8A168814203D005482230FBF7E4FF19
:104620000020207000F08EF8284670BD8009002020
:10463000FC000C000830FEF7B3BA10B5044600F0D9
:104640005BFC2046BDE81040FEF7AABAFEF7C8BAE8
:10465000FEF7F0BA0148C0687047000080090020EA
:1046600001488068704700008009002001484068C8
:1046700070470000800900200830FEF7E1BA000012
:10468000014800787047000080090020FEF7D8BA82
:104690002DE9F041FEF7E4FA0024154DDFF85480CF
:1046A0002646204600F042F904F10800074600F0D3
:1046B0003DF92919002081F880000146E81980F8A9
:1046C000801008F80460641C082CEAD32E706E6019
:1046D000AE60EE602E616E6185F8906085F8916045
:1046E00085F858600120EE6785F89200BDE8F081FA
:1046F00080090020B00000200830FEF7DBBA70B55A
:104700000446FEF7D7FA050002D0204600F0F4FB7D
:10471000284670BD70B50E4604460025FEF78AFA9D
:1047200038B121463046FEF7E7FA10B100F00AF83A
:104730000125284670BD0830FEF70CBBFEF70ABB0A
:10474000FEF724BB2DE9F041104C207800281AD147
:1047500094F89000002816D10825012600276069EA
:10476000FEF76EFA18B184F89060606920616069A4
:10477000401C6061082800D1676194F8900000280F
:1047800001D16D1EEBD1BDE8F08100008009002051
:10479000014981F8920070478009002010B50C4C47
:1047A000207810B10B48FBF71FFFFDF7BBF800287E
:1047B0000DD0FF220270417841F0060141700021C6
:1047C0004318491C9A702029FAD30321217010BD87
:1047D000800900203B010C0070B5214C207810B1FD
:1047E0002048FBF701FF94F890000025F8B12069FC
:1047F0006060FFF7A3FFA06018B91A48801DFBF79F
:10480000F3FEA0684078C00705D194F8920010B17B
:104810000220E56009E06068FFF72EFF032806D25A
:10482000FDF780F8E06010B10120207002E02078F0
:10483000002814D0A06818B90A482430FBF7D4FE29
:104840002069606004EB8001C87E401CC876A168C6
:104850004A7860F342024A7084F89050012070BD9B
:1048600080090020C3000C00014890F890007047B8
:104870008009002004480178817041780170001D92
:1048800050F8210000470000B800002001480078DF
:1048900070470000B80000200148407870470000D1
:1048A000B800002002498870487008707047000006
:1048B000B800002010B50446022802D30248FBF7D6
:1048C00093FE0248447010BD2A000D00B80000207D
:1048D0004058002800D00120704708B500224250FF
:1048E0004058009008BDD0F80403084000D00120D3
:1048F00070474058002800D00120704708B50022BA
:1049000042504058009008BD70B50024054601266D
:1049100006FA04F02842204602D0FCF789FC01E0A8
:10492000FCF77EFC641C042CF2D370BD034900220A
:1049300001EB800062F31F628261704780090020F2
:104940000449084490F93000082801DB0120704731
:1049500000207047640100200449084490F93000A9
:10496000082801D201207047002070476401002010
:1049700010B5FDF7EBFE0D490860FFF781FE012839
:1049800007D0FFF77DFE022802D00948FBF72CFE76
:104990000020FFF797FAFEF71DFA0649086006485F
:1049A000091D40684068086010BD000008150040FF
:1049B0002806090050F501409000002070B5094D0F
:1049C0000446E86F10B90848FBF70EFE04F1080131
:1049D000E86FFEF791F9002802D00020E867012077
:1049E00070BD0000800900206F020C0070B5012628
:1049F00070044FF0E0210025C1F88001084C401000
:104A0000C4F84803C4F8080366602F20FDF7F4FEDD
:104A1000A660044C2F20A560FDF7EEFEA57070BDCA
:104A2000001001403000002070B50546C87D0C46DE
:104A300000284FF4847128460AD0FFF74EFFD5F8BE
:104A40001805627EE1688854607E401C607670BD07
:104A5000FFF743FFD5F8180570BD1FB501238DF88A
:104A600000308DF808100192D0E900126846904796
:104A70001FBDFEB508AF97E870008DF800008DF8F7
:104A80000140ADF808208DF802500191ADF80A30D0
:104A90008DF803606846FFF76BFCFEBD03490122F9
:104AA000486101460248FBF7A1BD000094080020C0
:104AB0007548000070B50C46FFF7FCFE074D6869AD
:104AC000A04202D30648FBF78FFD68690122211A34
:104AD0000448FBF78BFD0020686170BD940800203E
:104AE000570609007548000010B5FEF777F9012850
:104AF00022D1FFF7D1FE10B11048FBF775FD00225F
:104B000064210F48FBF772FD0E48007F80B90E4804
:104B10000121016000220007C0F80021016000BFF0
:104B200000BF00BFAFF30080D0F800110029FBD018
:104B3000BDE81040FEF78AB910BD00003606090036
:104B4000754800006008002014050040044810B5B6
:104B5000406918B9FEF79AF9002800D0012010BD6D
:104B60009408002010B5FEF739F901280ED0FEF7A1
:104B700079F90748007F10B90120810748600020BB
:104B8000FFF798FE024900203431486010BD000054
:104B90006008002010B5FFF71FFE002820D0114844
:104BA00000218181C181FFF761FD0F490860FFF796
:104BB0005DFD012181400C48001D026822F0FF02CA
:104BC00011430160FFF74CFD064C1C342060FFF7D9
:104BD00041FD60600548E060BDE81040FFF7C8BED9
:104BE00010BD0000940800202C150040051800009E
:104BF0002DE9F843214C8846054691461F466946F3
:104C00001846A668FCF7F6FC70B30098811C0022D9
:104C10000AE000BF01EA060C59F8223004EB8C0CC4
:104C2000491C521CCCF80C30BA42F3D30246401C4B
:104C3000304004EB80002B0CC36002EA060004EB5A
:104C40008002E80652F80C0F02D540F0040001E0A3
:104C500020F0040065F3C50067F3891068F39F2016
:104C600020F00300401C106094F81C0402E000BF18
:104C7000FFF7DCF90028FBD1BDE8F883F80300203A
:104C8000024610B50020014622FA01F303F00103A9
:104C9000C1F10704A3400343491CC9B2D8B2082993
:104CA000F2D310BD2DE9F041002406462546182711
:104CB000E80026FA00F0C0B2FFF7E2FF694207EB16
:104CC000C101884020436D1CEDB20446042DEFD392
:104CD000BDE8F08104480178022902D0406800282C
:104CE00000D0012070470000940800202DE9F84F03
:104CF0001D4C00256846D4E901A6FCF7F3FD00270A
:104D000038B30023009A61681CE0D1F800C008465F
:104D1000944503D9ACEB02020A6015E0A2EB0C0249
:104D200063440760D0F80CC0C1698146BCF1000F34
:104D300008D006EB030828F07F48C0E9018CC9F8C9
:104D40001C5005460029E0D128466160FDF70EFAA7
:104D500003E02846FDF70AFA10B15046FCF7C2FC02
:104D6000E770BDE8F88F0000300000200D4B10B553
:104D7000596831B102680C68A24204D8A21A0A60CC
:104D8000C161586010BD0B4603E00B46C969121B98
:104D900021B10C689442F8D3A41A0C600260C1617E
:104DA000D86110BD300000202DE9F041144E776825
:104DB0003D462C4603E0844204D02546E469002C9D
:104DC000F9D11BE0D4B1A5420BD1F869706040B9AC
:104DD0000C49012088600021B160F0702F20FDF7A0
:104DE0000BFD2168E069E86110B1026811440160BF
:104DF0007068874202D00120BDE8F0810020FBE707
:104E00003000002000100140F8B5064600240D4691
:104E10002046FCF7D7F8684600F020FA68B1057024
:104E2000084946609DF8000048700020FCF7CCF867
:104E30001420FBF7A0FC2046F8BD04240020FCF75A
:104E4000C3F8F8E72C0200202DE9F041194D6C68F9
:104E5000002C2CD0184800270068A968B846401AD2
:104E600020F07F462068B0420CD82146361A07440D
:104E7000E469087C20B181F8108088694969884715
:104E8000002CEFD129786878814206D1401CC0B24D
:104E90006870022801D185F80180064869780C30D5
:104EA00040F82170BDE8F0411420FBF764BCBDE878
:104EB000F0810000300000200415014070B50C4660
:104EC00005464FF48E71FFF708FDA18AA068415C8A
:104ED000A08A401CA082C5F81C1570BD1FB5002219
:104EE0008DF800208DF80810816801918275D0E955
:104EF0000012684690471FBD70B5084D044695F8EE
:104F0000900020B12869A04201D1FFF71BFC0020CE
:104F1000291981F880000249085570BD80090020D8
:104F2000B00000202DE9FF470C4605464FF4007104
:104F3000FFF7D9FC01274FF40178002618B34FF48E
:104F4000927949462846FFF7C3FCE0B14946284616
:104F5000FFF7C3FCC5F80883A07E00B96F6002208C
:104F60008DF80000D5F88004C5F880040390E07D3A
:104F70008DF80800E0680190E6752676D4E9001205
:104F80006846904727E004212846FFF7ACFC10B3A1
:104F90004FF484712846FFF79BFCE0B12146284678
:104FA000FFF742FDE07D617E884214D1207E38B15A
:104FB000617EE268E0752069E0602676667607E04B
:104FC000A07E00B96F60C5F80883E675617EE2686F
:104FD0002046FFF742FD4FF48E7841462846FFF702
:104FE00077FC88B1A08AA17D884204D22146284658
:104FF000FFF764FF08E041462846FFF76EFCA17DFD
:1050000011B12046FFF76AFF4FF4A27841462846C7
:10501000FFF75EFC002812D041462846FFF75DFCF2
:10502000A07E00B12F60E07D002808D0E675617E8B
:10503000E26804B02046BDE8F047FFF70EBDBDE8CA
:10504000FF872DE9FF410C464FF49277054639461C
:10505000FFF74FFC0026C0B139462846FFF74EFC4B
:1050600002208DF80000D5F88004C5F88004039074
:10507000D5F83C058DF80800E0680190E6752676C5
:10508000D4E900126846904724E04FF48877394607
:105090002846FFF72EFCE8B139462846FFF72EFCDC
:1050A000D5F83C05C1B2E07D884213D1207E60B1C5
:1050B000E268D5F8000220F02000C5F80002207E4A
:1050C000E0752069E060267601E0E675E26820463A
:1050D000FFF7C3FC4FF4A27739462846FFF709FCD7
:1050E00068B139462846FFF709FCE07D38B1E6751E
:1050F000D5F83C05E268C1B22046FFF7AEFC4FF49C
:10510000907631462846FFF7F4FB00280FD0314651
:105110002846FFF7F3FBA07D002808D0D5F84C0502
:1051200004B0C1B22046BDE8F041FFF7D7BEBDE8EC
:10513000FF81000010B5FBF7CBFE08B1FBF7AAFE1C
:1051400000210120FCF730F908B1FBF7A3FE002095
:10515000FFF762F808B1FBF79DFE084803210088BD
:1051600001EB004006A1FFF753F800BFFEF75EFF1A
:105170000028FBD1BDE81040FCF772B8EC0000201D
:1051800047617A656C6C2064796E616D696320702B
:10519000616972696E67206578616D706C652E203B
:1051A000486F7374206D6F64652E000010B5FFF7B3
:1051B00091FD044901F1680208B1C86800E08868FF
:1051C000106010BD600800203EB5224D2878697837
:1051D00088423DD008B9FDF713F9687808B9FDF7A2
:1051E0008BF81D4800240460FEF714FD19481C309C
:1051F0000460446004618460C4602878012802D09F
:10520000022808D015E0FFF73BFA90B100210846CC
:10521000FFF7D0F90DE0FBF7EBFEFFF731FA0328BB
:1052200007D1002300941A46194618460194FFF747
:105230002FF9FFF7BBFF68782870002300940194D2
:105240001A46194604200294FFF713FC01203EBDC4
:1052500000203EBD9408002054F501400A494A78D8
:105260008B78521CD2B2934200D100220B78934229
:1052700001D1002070470270487800EB400001EB3C
:10528000C000001D704700002C02002011121314F2
:105290000D0E0F10F800002018010020440100201E
:1052A0000D000300D51200000E000300D51200000F
:1052B0000F000300D512000010000300D5120000FB
:1052C000000000500C0200200300000050000020ED
:1052D0004800002050000020380300201800000083
:1052E00032536601172D391A440C400D490D3E1AF0
:1052F0002D0C4D0000100040101100400310000064
:105300000100000000100040000000004102040005
:10531000000000000410004000000000060103012E
:10532000000000006770696F746500007561727439
:105330000000000062616C6C6F63000061707000BF
:105340008053000000000020F8000000640D000001
:1053500078540000F8000020F02A0000740D0000CE
:1053600024530000000000002C5300000000000047
:1053700034530000000000003C5300000000030014
:10538000000000000000000000000000000000001D
:10539000000000000000000000000000000000000D
:1053A00000000000000000000000000000000000FD
:1053B00000000000000000000000000000000000ED
:1053C00000000000000000000000000000000000DD
:1053D00000000000000000000000000000000000CD
:1053E0000000000000000000000000000090D0035A
:1053F00000000000050000000000000000000000A8
:1054000004192A3F4D0000000000000000000000C9
:10541000000000000000000000000000000000008C
:10542000000000000000000000000000000000007C
:105430000000000000000000000000000D39000026
:10544000D138000000000000000000000000000053
:10545000000000000000000000000000000000004C
:10546000000000000000000000000000000000003C
:08547000000000000000000034
:0400000500000201F4
:00000001FF
